:100300000FEF02F0FFFFFFFFFACF15F0FBCF16F063
:10031000E1CF17F0E2CF18F0D9CF19F0DACF1AF009
:10032000F3CF1BF0F4CF1CF04EC01DF04FC01EF0F9
:1003300050C01FF051C020F052C021F053C022F035
:1003400054C023F055C024F056C025F057C026F005
:1003500058C027F059C028F01DEE2EF0F2BC9DA029
:1003600005D09EA003D0A3EC66F030D0F2BC9DAACD
:1003700005D09EAA03D0C1EC43F028D0F2BC9DA8C2
:1003800005D09EA803D011EC5FF020D0F0B6F0A00D
:1003900003D0DCEC67F01AD0F0B8F0A203D0D9ECAF
:1003A00067F014D0F2B6F2A003D078EC66F00ED06D
:1003B000F2BC9DA605D09EA603D0D0EC1CF006D0C2
:1003C000F2BCA0A603D0A1B60EEC68F028C059F08C
:1003D00027C058F026C057F025C056F024C055F06D
:1003E00023C054F022C053F021C052F020C051F07D
:1003F0001FC050F01EC04FF01DC04EF01CC0F4FFD7
:100400001BC0F3FF1AC0DAFF19C0D9FF18C0E2FF02
:1004100017C0E1FF16C0FBFF15C0FAFF11001CEE6C
:1004200028F0DEEF2DF0D3EC67F0030103B18FD39A
:1004300050EC06F07D6F7D39E832070BE80601E0ED
:10044000A9D003011D5101E0A5D00001EB05010178
:10045000836F1AD00001EB51E925EC6F000EEA2101
:10046000ED6F010183510001EC5D8C6FED51D8A05F
:10047000ED053BEC4DF0A8EC61F0100E0101836539
:1004800002D0835F01D0836B8351E4E1420E00010F
:10049000D66F030ED76FE9C0D8F0EAC0D9F0EB51A0
:1004A000FC0FDA6FB5EC52F0D6C086F1D7C087F1F9
:1004B000D8C088F1D9C089F1ECDBC2EC59F093DBEC
:1004C00086517E1909E187517F1906E1885180190B
:1004D00003E1895181191AE06EEC4DF006E00251FA
:1004E0000F0B030A09E1E35107E002B903D03BEC2B
:1004F00062F002D0F00E0217020E03011219D8A406
:1005000012000301A5EC06F054EF4FF00301025175
:100510000F0B030A03E1D55118EC62F0E9C08AF130
:10052000EAC08BF1010120EE07F0E8DBDECF1EF31D
:10053000DECF1FF3DECF20F3DECF21F320EE0CF071
:10054000DDDBDF500F0BEAEC5BF0EFDBD7DBDF38F6
:10055000070B0001606FE9DBD1DBDF500F0B9FEC75
:1005600062F08AC160F08BC161F0EB5107EC68F07A
:100570008AC1A0F08BC1A1F00EEC4DF0E66AC1EC8F
:1005800039F00301CAEC06F0C5EC06F0020E1219B0
:10059000B8E0120001017D39E832070B030A06E0DA
:1005A0007D39E832070B050A01E0CED20301986BD2
:1005B000E9C091F1EAC092F1020E121901E005D1F1
:1005C0008ADB00DB03016251DE1809E16351DE18AA
:1005D00006E16451DE1803E16551DE18D8A4F5D0B8
:1005E00004A5F3D091C160F092C161F0C0EC50F06D
:1005F000000987E0D7DAAEDB0E5101018D5D030102
:100600000F5101018E5905E310C38FF111C390F111
:1006100007D0010E03011025C7DB11210101906FE6
:10062000ECDA010E716F5DEC3DF00DDBD5DA100EEA
:10063000646F42EC51F0F0DA42EC51F0660EC86F94
:10064000030EC96FC60E13DB54EC12F000DBC4DAE4
:10065000040E646F42EC51F01CDBC2EC59F0C3DABB
:100660007E5186190BE17F51871908E18051881965
:1006700005E18151891901E044D701D042D79ADAC6
:100680000E51DE5C0F51DE5821E38CDA31DB0E5166
:100690000001EC5F03010F5182DB905D0001ED5121
:1006A000030191590DE23050311001E12AD77DEC60
:1006B00029F0060E9C6F01D824D70500FA6E7ED073
:1006C00071DADECF0EF3DDCF0FF320D06BDA10DB63
:1006D0000E1D0001EE6F03010F1D0001EF6FEC51C5
:1006E000EE27ED51EF23030190510001EE5D030170
:1006F00091510001EF5906E203010E6B0F6B104B95
:10070000112B04D030503110D2E1FBD603010E2959
:1007100007E10F2905E1102903E1112901E1F2D7D1
:1007200002510F0B080A08E1D65118EC62F00301E0
:10073000D75118EC62F007D002510F0B030A03E106
:10074000D75118EC62F00CDB42DA23DAB0DA03E1BD
:10075000ED51EF1925E0A4DA7A6F0001E94BEA2B9D
:10076000EB51F40F01018C6F190E826FE9C0A0F0FC
:10077000D2DAA26F010EA36F0EC3A4F00FC3A5F0CF
:1007800010C3A6F011C3A7F0760EA86F030E53DABC
:10079000010EAD6F90EC29F0FF0EE925B4DA01D01F
:1007A000EADA03010383CCDA01E1ABD66BDA010E9E
:1007B00000019C6F01D8A5D60500FA6E3050FD6E81
:1007C0003150FE6EFF6AFA50120085DAFBD9030140
:1007D0001E51DE1809E11F51DE1806E12051DE1816
:1007E00003E12151DE1801E0AFD1DCD9B3DA0A51BF
:1007F00001018D5D03010B5101018E5905E30CC30D
:100800008FF10DC390F107D0010E03010C25CCDA56
:100810000D210101906FF1D9716B010E5DEC3DF07E
:1008200012DADAD9100E646F42EC51F0F5D942ECCD
:1008300051F034EC12F01BDA54EC12F008DACCD997
:10084000040E646F42EC51F024DAC2EC59F0CBD9BB
:100850007E51861909E17F51871906E18051881977
:1008600003E18151891901E06FD1A4D90A51DE5CFD
:100870000B51DE5827E396D93BDA0A510001EC5FB1
:1008800003010B518CDA8E5D0001ED5103018F598C
:1008900016E2009155DA10E0009B000E7DEC29F085
:1008A0009C6B01D809D00500FA6E3050FD6E3150B6
:1008B000FE6EFF6AFA501200030103934CD072D906
:1008C00077DA3CD08E510001EC6F03018F510001AB
:1008D000ED6FEE6BEF6B66D9DECFF0F0DDCFF1F0B0
:1008E00003010A510001F05DF26F03010B51000199
:1008F000F159F36FF46BD8A0F407F451F56FFF0EC4
:10090000F225F66FFF0EF321F76F000EF421F86F5A
:10091000000EF521F96FEC51F65DED51F759EE51EE
:10092000F859F951800AFA6FEF51800AFA5901E338
:100930000BD138D93DDA03010C4B0D2B496A486ABB
:100940000101F46B03010A2908E10B2906E10C29D6
:1009500004E10D2902E1048319D602510F0B030AA9
:1009600003E1D75118EC62F0010E0301CA6F91C187
:1009700060F092C161F0F6EC56F001010AD91DE079
:1009800008D991250001EC6FFBD9ED6F080EEC251D
:10099000D96E000EED21DA6EDF5010E0080E010175
:1009A000912500019F6FECD9A06F0101F2D80001E1
:1009B000A16F4CEC20F0DAD901D0D2D908D9E9D80E
:1009C00076D903E1ED51EF194FE06AD97A6F000152
:1009D000E94BEA2B0101DDD80001EC6FEC51EB5D36
:1009E000F40F01018C6FD5D8190F826F7A510EE088
:1009F000E9C0A0F090D92FD94CEC12F01CD9AD6B06
:100A000090EC29F0FF0EE9257ED92FD00001DFD828
:100A1000C0D80001EE6FEF6B0D0EEE27000EEF2336
:100A2000EC51EE5DEF51800AF06FED51800AF05904
:100A30001BE2E9C0A0F0EAC0A1F001018C050001B1
:100A40000AD948EC12F0F7D8AD6B90EC29F001010F
:100A5000A0D80AE1E9C09FF0EAC0A0F08C0500012F
:100A6000A16F4CEC20F082D986D9010E0301CA6F28
:100A7000C26BC36BE06B0099038300A136D0010108
:100A800020EE05F09FD8DFAA2DD00301009127D9D1
:100A90000FE0009BF7D87BC19CF001D809D005007E
:100AA000FA6E3050FD6E3150FE6EFF6AFA50120041
:100AB0000301039302BB00BB3BD000B302D000A7ED
:100AC00037D0FFD8FBEC37F0000909E1000E28D938
:100AD00078EC36F000092CE10301009729D008ECEE
:100AE00068F026D067EC50F023D0F9D80FE0009BD7
:100AF000C9D87BC19CF001D809D00500FA6E3050EE
:100B0000FD6E3150FE6EFF6AFA501200030102BB07
:100B100000BB0ED000B302D000A70AD0D2D8FBECA5
:100B200037F00009DCE1000EFBD878EC36F0D4D7C2
:100B3000020E03011219D8A41200ADEC63F00001FB
:100B4000EC6FECB11200DDD4000E41EF4DF03050EF
:100B50003110D8B41200ADEC63F00001EC6FECB7CB
:100B60000CD0E7D8030E9C6F0500FA6E3050FD6E76
:100B70003150FE6EFF6AFA501200DBD8020E9C6FF5
:100B80000500FA6E3050FD6E3150FE6EFF6AFA506D
:100B9000120020EE05F09151D9269251DA22DF5051
:100BA0000F0B1200010120EE06F09151D92692514F
:100BB000DA22120020EE06F09151D9269251DA2263
:100BC000030112009151D9269251DA221200EB5101
:100BD000EC6FED6B01011200616FC60E626F020EC9
:100BE000636F656B12006BC07EF16CC07FF16DC0EE
:100BF00080F16EC081F1010112008DC16BF08EC1D8
:100C00006CF08FC16DF090C16EF00001EB51FC0FE4
:100C10006F6F490E706F490C290E606F0B0E616F7C
:100C2000E9C062F0EAC063F0FC0EEB25646F656B0F
:100C3000FF0E6523FF0CA96F82C1AAF0190EAB6FDE
:100C40000B0EAC6F1200190E606F0B0E1200860EA9
:100C5000606F010E1200A26F010EA36F0AC3A4F011
:100C60000BC3A5F00CC3A6F00DC3A7F0010CCA6F0F
:100C7000020ECB6F190ECC6F0B0ECD6FEB510C0F1C
:100C8000CE6F120084C199F085C19AF08CC19BF09F
:100C90001200E9C06BF0EAC06CF0EBC06DF012001E
:100CA000E9C0D9FFEAC0DAFFDF50010112000001FC
:100CB000EE6FEF6B0C0EEE27000EEF23EC51EE19EA
:100CC0001200010E00017E6F7C0E7F6F010E806F9F
:100CD0000301DF511200010120EE01F01200010EAC
:100CE00001017B6FF00E030102173050311012002A
:100CF000DECFECF0DDCFEDF0030112008A51D926F2
:100D00008B51DA2212000101846FFF0E0001EA21EB
:100D10000101856F1200EAC0A1F08C0500011200EC
:100D2000E26BE36BE46BE56B1200010120EE0BF06C
:100D30001200E9C099F0EAC09AF0EBC09BF01200F3
:100D4000F00E02173050311012000251F00B090959
:100D5000026F1200DECF8DF1DDCF8EF103011200A4
:100D6000080E0001E927000EEA23000C9FC0E9F0FD
:100D7000A0C0EAF0120001018C6B846B856B12003D
:100D8000000E01019221000112000A6B0B6B0C6B2B
:100D90000D6B1200066B076B086B096B12000001EC
:100DA000ED5BEC510301120001018F6F0301000C98
:100DB000DECF0AF3DDCF0BF31200070E0101756FD2
:100DC000766B010E6C6F6D6F696B6A6B0001990732
:100DD000D8A09A07000E606F010E616F370E626F28
:100DE000FC0E636F41EC5EF099C08DF09AC08EF0FE
:100DF00007DAF2D916EC58F0000E60258F6F010E5D
:100E00006121906F99519B5DBAEC3CF0F9D9E4D91E
:100E100016EC58F060C064F161C065F1000E666FB9
:100E2000010E676F6611D8A4200E686F64C169F067
:100E300065C16AF0C5EC46F0B4D1050E99259D6FE9
:100E4000000E9A219E6F9B519D5D9C519E5924E2FC
:100E500020EE05F09951D9269A51DA22030EDE18B8
:100E60001BE101016C2B040E000199250101776F34
:100E7000000E00019A210101786FBDD9DF38070B00
:100E800042EC64F0000902E001016D6B050E000107
:100E90009927000E9A2385D1B7D9DF500F0B010196
:100EA0006B6F99C0D9FF9AC0DAFFDF5000019D6FC8
:100EB0009D390F0B0101706F0001A6D9ACD971C12A
:100EC00073F172C174F1020E9927000E9A2399C032
:100ED00077F19AC078F1994B9A2B030102AD15D1A5
:100EE00001016D5101E198D086D9DF38070B42EC42
:100EF00064F0000962E090D07ED9DF38070B000172
:100F00009D6F9D39F00B0101686F6851100F666F7E
:100F100068C179F126D0795157D964D90CE2010121
:100F200073B103D07351741106E179514DD9DF507B
:100F30000F0B0101756F0101795146D9DF380F0B95
:100F400076610BD073B103D07351741106E17951FE
:100F50003BD9DF380F0B0101766FD89074337333B0
:100F6000792B6651795D3AE2D6D7040E766F36D08A
:100F7000040E756F766F7151721130E16D6B2ED06A
:100F8000796B3F0E796501D014D079511DD92AD9DA
:100F900004E20101795118D947D90101795114D9D5
:100FA000DF380F0B766103D079510ED939D9792BFF
:100FB000E8D771517211D9E111D01DD90101DF3883
:100FC000070B9AE0010A98E0030A96E0010A94E010
:100FD000070ACBE0020AD4E0010ACAE0796B460EA8
:100FE000796501D019D0795185EC44F0DE0412E125
:100FF0007951EAD8F7D804E201017951E5D814D93A
:1010000001017951E1D8DF380F0B766103D07951B6
:10101000DBD806D9792BE3D70101705183EC65F059
:10102000000909E101017551705D05E37051765DBC
:1010300002E3010E6A6F0A0E01016B6109D0010E15
:10104000696F050E6B6102D0676F02D06BC167F1EB
:1010500069514AE06A5148E06D5146E06CC160F068
:101060000001616B6369FB0E626F95EC61F060518A
:10107000992501016E6F000161519A2101016F6F85
:101080001ED06E4B6F2B6E4B6F2B6EC1D9FF6FC195
:10109000DAFFC1D8020E6E27000E6F236EC177F102
:1010A0006FC178F16E4B6F2B71C167F072C168F040
:1010B000A2D8DF38070B0001696FB4EC47F00001DC
:1010C000995101016E5D00019A5101016F59D9E3F7
:1010D000030103870101675116EC67F003010389DF
:1010E0000101705148EC67F086D8DF500F0B03E127
:1010F0000301C86B08D07FD8DF500F0B00019D6F34
:101100009D050301C86F038B47D001016D6B44D06F
:101110000301985151D801016DB103D00301DF9053
:1011200002D00301DF80985147D801016AB103D092
:101130000301DF9202D00301DF8298513DD8010103
:1011400069B103D00301DF9402D00301DF84100EE4
:10115000986122D001016C511FE00301982B985136
:101160002BD8DF90985128D8DF92985125D8DF945A
:10117000985122D8DF9698511FD8DF9898511CD8E3
:10118000DF9A985119D8DF9C985116D8DF9E985154
:101190007CEC18F0030EDF6E01016C076C2907E090
:1011A000B7D79B51995D9C519A5901E246D699C097
:1011B00099F09AC09AF01200020D9B0EF324D96E9A
:1011C000030EF420DA6E1200020D210EF324D96E04
:1011D000050EF420DA6E1200616F6011D8A4200EA3
:1011E000626F1200DF500F0B00019D6F01017551FE
:1011F00000019D5D120077C1D9FF78C1DAFF1200AE
:10120000000E606F010E1200994B9A2B99C0D9FF06
:101210009AC0DAFF1200DECF71F1DDCF72F1120059
:10122000DF380F0B766F1200DF500F0B756F120057
:1012300004EC5BF0B2EC33F0E9D9DBEC32F0020104
:10124000A9511BEC34F00201A60501E068D19CC253
:1012500062F0390E72EC63F0B0C27BF0010E000157
:101260007B170201D890AF3500017C6F0201A839CD
:10127000DCD91D0E72EC63F07AC07BF0030E000126
:101280007B17AAC27CF0010E7C17D8907C37D890CF
:101290007C370201A739C9D91E0E72EC63F0020136
:1012A000AC51AD113FE0ACC27EF0ADC27FF00001A9
:1012B000806B816B21D0A1D97D0E000199D9F1EC11
:1012C00055F00FD09AD9FA0E000192D9F1EC55F0F1
:1012D00008D093D9F40E00016D6F010EC4D9F1EC62
:1012E00055F069C07EF06AC07FF06BC080F06CC0C2
:1012F00081F00BD094D909D00201A851070ADBE094
:101300000F0AE0E0010AE5E0F5D70201A729000194
:101310007B6F05D0D890813380337F337E337B2F32
:10132000F9D701D07CD97EC062F0240E72EC63F054
:1013300079C062F01F0E72EC63F0260ECEEC61F005
:10134000826F0C0E0201A71906E1070EA81909E029
:10135000080EA81906E00B0EA71906E1070EA8193A
:1013600003E10001828702D000018297828582C05A
:1013700062F0260E72EC63F0310ECEEC61F0826FFB
:10138000F80E8217030E821365D972EC63F00A0E11
:101390000001626F370E72EC63F0120E0201BF198A
:1013A00025E1070EA81903E0080EA81913E1310E74
:1013B000CEEC61F0826F829F4DD972EC63F0400EEB
:1013C0000001626F2F0E72EC63F00001626B300E51
:1013D00072EC63F0090E0201A81908E1310ECEEC9F
:1013E00061F0826F828F36D972EC63F0330ECEECEF
:1013F00061F0826F829D8281AEC27BF0010E7B170D
:10140000060E7C6FD8907B377C2FFCD77B518213E4
:1014100082C062F0330E72EC63F0AEC27BF0010E5C
:1014200000017B17D8907B37D8907B35FF0A1D0BC6
:10143000826F82C062F03B0E72EC63F003D9200E23
:1014400072EC63F09AC262F0210E72EC63F008D97C
:1014500072EC63F00001626B0E0E72EC63F000013F
:10146000626B0F0E72EC63F0120E0201BF1954E1B1
:10147000090EA8191AE1800E8E5D130E8F59610EA8
:101480009059330E915911E38E05F70E8F59CB0EFB
:1014900090593C0E915909E2020ECDD872EC63F0DE
:1014A000640ED5D872EC63F022D0090EA8191BE1A6
:1014B000800E8E5D1A0E8F59700E9059180E91592C
:1014C00012E3410E8E5DDD0E8F594A0E90591F0EAC
:1014D000915909E2020EAFD872EC63F07F0EB7D8D3
:1014E00072EC63F004D0030EA6D872EC63F0090E20
:1014F0000201A8190AE1AE0508E1A0D872EC63F078
:10150000190EABD872EC63F007D098D872EC63F088
:101510001D0EA3D872EC63F0ADD872EF63F092C2E7
:101520006DF093C26EF094C26FF095C270F083ECD0
:101530004FF096C26DF097C26EF098C26FF099C2EC
:1015400070F0D5EC4DF07ED8250E72EC63F09AC2A7
:1015500062F0260E72EC63F00A0ECEEC61F0826F40
:101560009F0E82170201C339E846E00B0001821387
:1015700082C062F00A0E72EC63F0C80E0001826F46
:101580000201AA5102E00001828982C062F0300E9D
:1015900072EC63F000017D6B0ED09D0E7D25D96E3F
:1015A000DA6A020EDA22DF50626F7D51280F72EC88
:1015B00063F000017D2B0201A55100017D5DEDE38B
:1015C0000201A55108E0A50510090001626F270E70
:1015D00072EC63F005D00001626B270E72EC63F0D1
:1015E000000162693E0E72EC63F041D872EF63F065
:1015F0006D6F6E6B6F6B706B12007EC069F07FC099
:101600006AF080C06BF081C06CF012008EC26DF089
:101610008FC26EF090C26FF091C270F012000001A4
:101620007E6B7F6B806B816B1200F00B00017C1175
:101630007B11626F12000001626F360C650E0001B3
:10164000626F3A0C02019B510001626F12000001AF
:10165000626F3A0C82C062F0310C0001626F3B0C89
:101660000001626B0D0C6E6F6F6B706B12000001EE
:1016700062693F0C00016269120C946B956B8D6B73
:101680008E6B010E0001616F120E606F626984EC57
:1016900059F0010E0001616F130E606F626984ECF6
:1016A00059F08AC290F18BC291F10101926B936B58
:1016B00091518D27000E8E230001616B606B91C1EB
:1016C00062F084EC59F00101944B952B90518D27D9
:1016D000A4D990C162F084EC59F00101944B952B90
:1016E000900E0001606F010E616F8F0E626F010E30
:1016F000636F5CEC61F00101966B6DD984EC59F07D
:101700009ED9030E9665F9D78F517DD984EC59F097
:101710000101944B952BCAEC67F086D974D984ECFF
:1017200059F00101944B952BD5EC65F060C090F118
:1017300061C091F162C092F163C093F1966B4BD995
:1017400084EC59F07CD9030E9665F9D7F0EC65F07E
:1017500060C090F161C091F162C092F163C093F1F9
:10176000966B39D984EC59F06AD9030E9665F9D78E
:101770007A0E00016B6F010E6C6F90EC64F001014A
:10178000966B11D984EC59F05AD9070E9665F9D7A2
:101790007A0E00016B6F010E6C6F18EC63F00101A3
:1017A000966B01D984EC59F04AD9070E9665F9D7A2
:1017B0007A0E00016B6F010E6C6FFAEC64F00101A0
:1017C000966BF1D884EC59F03AD90F0E9665F9D79B
:1017D0007A0E00016B6F010E6C6FE4EC64F0010196
:1017E000966BE1D884EC59F02AD90F0E9665F9D79B
:1017F0007A0E00016B6F010E6C6FEFEC64F001016B
:10180000966BD1D884EC59F01AD90F0E9665F9D79A
:10181000F9EC65F060C090F161C091F162C092F1A5
:1018200063C093F1966BD7D884EC59F008D9030EB6
:101830009665F9D77A0E00016B6F010E6C6FEBECB9
:1018400062F00101966BAFD884EC59F0F8D80F0E16
:101850009665F9D77A0E00016B6F010E6C6FDCECA8
:1018600062F00101966B9FD884EC59F0E8D80F0E16
:101870009665F9D7E7EC65F060C090F161C091F131
:1018800062C092F163C093F1966BA5D884EC59F0D5
:10189000D6D8030E9665F9D7DEEC65F060C090F1FE
:1018A00061C091F162C092F163C093F1966B93D8DD
:1018B00084EC59F0C4D8030E9665F9D776EC67F03E
:1018C000B3D8A1D884EC59F00101944B952B8C6BC3
:1018D000470E8C6501D016D08C5109EC63F0A4D86A
:1018E00092D884EC59F00101944B952B8C51FAEC71
:1018F00062F09AD888D884EC59F00101944B952B6A
:101900008C2BE6D7C7EC67F08FD87DD884EC59F0E4
:101910000101944B952B7EEC67F086D874D884EC4B
:1019200059F00101944B952BB2EC67F07DD86BD840
:1019300084EC59F00101944B952B07EC67F060C0E3
:101940008AF161C08BF1966B7FD88D2766D87CD8E1
:101950000001626F84EC59F072D8010E9665F4D7DD
:101960008D2904E18E2902E18D6B8E6B94C160F0AC
:1019700095C161F08DC162F084EC59F00101944B86
:10198000952B94C160F095C161F08EC162F084EC3A
:1019900059F00101944B952B000120EE06F0EB511C
:1019A000D926EC5145D07A0E9625D96EDA6A010E09
:1019B000DA22DF508D27000E8E2394C160F095C18E
:1019C00061F07A0E9625D96EDA6A010EDA22DF50BE
:1019D0000001626F1200900E9625D96EDA6A010E30
:1019E000DA22DF508D27000E8E2394C160F095C15E
:1019F00061F0900E9625D96EDA6A010EDA22DF5078
:101A00000001626F12008D27000E8E2394C160F0DA
:101A100095C161F08FC162F0000C000E8E2394C15D
:101A200060F095C161F0000C01018F6F8F511200C1
:101A3000DA2200C2DEFF01C2DEFFDD6A1200010110
:101A4000944B952B962B12008A0E9625D96EDA6A46
:101A5000010EDA22DF50120000018D6B8E6B946B49
:101A6000956B616B606B83EC64F00001ACD98FC047
:101A700086F0876B8651876F866BADD983EC64F0F7
:101A800098D98627000E872386519CEC66F086C085
:101A90008BF087C08CF00001966B9651900F82D925
:101AA00083EC64F079D9900F6FD9030E9665F5D762
:101AB00092D983EC64F0000186D990C06EF091C099
:101AC0006FF092C070F093C071F08FC072F039EC7B
:101AD00058F081D983EC64F06CD945EC59F00001E1
:101AE000966B9651900F5ED983EC64F055D9900FA8
:101AF0004BD9030E9665F5D790C060F091C061F0A8
:101B000092C062F093C063F014EC66F0966B96514D
:101B1000900F48D983EC64F03FD9900F35D9030E6C
:101B20009665F5D790C060F091C061F092C062F008
:101B300093C063F026EC66F0966B9651760F32D91F
:101B400083EC64F029D9760F1FD9070E9665F5D777
:101B50008BA105D0760E6B6F6C6BD3EC60F000013F
:101B6000966B9651760F1ED983EC64F015D9760FDB
:101B70000BD9070E9665F5D78BA305D0760E6B6F44
:101B80006C6B0FEC61F00001966B9651760F0AD9E1
:101B900083EC64F001D9760FF7D80F0E9665F5D770
:101BA0008BA505D0760E6B6F6C6BFBEC60F00001C3
:101BB000966B9651760FF6D883EC64F0EDD8760FDD
:101BC000E3D80F0E9665F5D78BA905D0760E6B6F0F
:101BD0006C6BE3EC5EF00001966B9651760FE2D8E9
:101BE00083EC64F0D9D8760FCFD80F0E9665F5D771
:101BF0008BAB05D0760E6B6F6C6BE7EC60F0F0D8BA
:101C00009651900FCFD883EC64F0C6D8900FBCD813
:101C1000030E9665F5D78BA70AD090C060F091C0EF
:101C200061F092C062F093C063F0C0EC64F0000118
:101C3000966B9651760FB6D883EC64F0ADD8760FDC
:101C4000A3D80F0E9665F5D78BAF05D0760E6B6FC8
:101C50006C6B63EC63F00001966B9651760FA2D823
:101C600083EC64F099D8760F8FD80F0E9665F5D770
:101C70008CA105D0760E6B6F6C6B54EC63F0B0D812
:101C80009651900F8FD883EC64F086D8900F7CD853
:101C9000030E9665F5D78BAD0AD090C060F091C069
:101CA00061F092C062F093C063F026EC65F0000131
:101CB000966B9651900F76D883EC64F06DD8900FA8
:101CC00063D8030E9665F5D790C060F091C061F0BF
:101CD00092C062F093C063F01DEC66F07CD883EC98
:101CE00064F067D8EEEC5FF000018A6B470E8A65FE
:101CF00001D017D070D883EC64F05BD8010ED8B453
:101D0000000E646F8A51E1EC61F065D883EC64F0F9
:101D1000000159D88FC067F08A516EEC60F08A2BB1
:101D2000E5D759D883EC64F044D8FAEC5EF053D888
:101D300083EC64F03ED876EC64F04DD883EC64F02C
:101D400038D88AEC67F00001886B896B966B9651E6
:101D5000880F28D883EC64F01FD8880F15D8010E9F
:101D60009665F5D788C060F089C061F05CEC64F0DE
:101D700000018D2904E18E2902E18D6B8E6B8DC0EF
:101D800074F08EC075F01200D96EDA6ADF508D27BC
:101D9000000E8E23962B000CDF6E0001944B952BCA
:101DA00096511200D96EDA6A94C060F095C061F065
:101DB000120000018F6F944B952B8F518D27000ED1
:101DC0008E238F5112008F6F944B952B8F518D273F
:101DD000000E8E23000C94C060F095C061F01200DC
:101DE0000001906B916B926B936B966B1200EBC042
:101DF000D9FFECC0DAFFDECFF0F0DDCFF1F000016B
:101E000020EE02F0AFD9DECFF2F0DDCFF3F0010E1D
:101E1000F46FF569F0C09CF0F1C09DF03CEC37F038
:101E2000F56FF5BF8BD1F66B070EF66501D086D145
:101E3000F651020D2C0EF324D96E020EF420DA6E48
:101E4000DECF60F0DDCF61F0F2C062F0F3C063F08E
:101E5000CFEC44F06051611101E06DD1C70EF52562
:101E60007DD99EEC22F0F5CFEDF0F6C0EEF0010E3C
:101E7000EF6FEE2B02D0D890EF37EE2FFCD700019A
:101E8000EF51ED1501E157D1F46B26D10F013891D7
:101E9000929051D10F01389192804DD192800F01D3
:101EA000388149D1F651F2E0010AF4E0030AF6E084
:101EB00012D00F01389392923ED10F013893928243
:101EC0003AD192820F01388336D1F651F2E0010AFD
:101ED000F4E0030AF6E0010A2ED10F01389592943E
:101EE0002AD10F013895928426D192840F0138852A
:101EF00022D1F651F2E0010AF4E0030AF6E0EBD752
:101F00000F013897929617D10F013897928613D107
:101F100092860F0138870FD1F651F2E0010AF4E002
:101F2000030AF6E0D8D7929806D1928804D1F651E8
:101F3000FAE0010AFAE0020AFED00F01389B929AF9
:101F4000FAD00F01389B928AF6D0928A0F01388B13
:101F5000F2D0F651F2E0010AF4E0030AF6E0BBD752
:101F60000F013C919690E7D00F013C919680E3D011
:101F700096800F013C81DFD0F651F2E0010AF4E0D7
:101F8000030AF6E0A8D70F013C939692D4D00F0134
:101F90003C939682D0D096820F013C83CCD0F651F0
:101FA000F2E0010AF4E0030AF6E095D70F013B9551
:101FB0009594C1D00F013B959584BDD095840F01B8
:101FC0003B85B9D0F651F2E0010AF4E0030AF6E0ED
:101FD00082D70F013C959694AED00F013C95968424
:101FE000AAD096840F013C85A6D0F651F2E0010AF2
:101FF000F4E0030AF6E06FD70F013A9B949A9BD066
:102000000F013A9B948A97D0948A0F013A8B93D010
:10201000F651F2E0010AF4E0030AF6E05CD70F01A2
:102020003B9B959A88D00F013B9B958A84D0958ADB
:102030000F013B8B80D0F651F2E0010AF4E0030A75
:10204000F6E049D70F013B9F959E75D00F013B9F4E
:10205000958E71D0958E0F013B8F6DD0F651F2E0C9
:10206000010AF4E0030AF6E036D70F013B9D959C88
:1020700062D00F013B9D958C5ED0958C0F013B8DFE
:102080005AD0F651F2E0010AF4E0030AF6E023D751
:10209000929E51D0928E4FD0F651FAE0010AFAE0AA
:1020A0004AD7929C48D0928C46D0F651FAE0010A69
:1020B000FAE041D7939E3FD0938E3DD0F651FAE09F
:1020C000010AFAE038D7939C36D0938C34D0F6517D
:1020D000FAE0010AFAE02FD7F55101E1E3D6010A4F
:1020E00001E1F3D6030A01E104D7010A01E114D7A3
:1020F000070A01E11CD7010A01E12BD7030A01E11C
:102100003BD7010A01E14BD70F0A01E15BD7010A76
:1021100001E16BD7030A01E17BD7010A8CE0070AD2
:102120009DE0010AAEE0030AB7E0010ABEE01F0A23
:10213000C5E0010ACCE00001F62B76D6F451CAECDA
:1021400021F0DECFEDF0DDCFEEF020EE06F00AD884
:10215000EDC0DEFFEEC0DEFFDD6A1200F66EF76A4C
:10216000F60E1200EB51D926EC51DA221200DD6F87
:10217000100E0001E16FDF6BDE0E606F616B636B51
:10218000626B656B010E646F59EC60F04FD959ECCE
:1021900060F09BEC3DF0A2EC56F0100E646F59EC31
:1021A00060F0DD0507E1DE511F0B8009DE6F0301E2
:1021B000008104D0DE511F0B4009DE6FFC0E0001D0
:1021C000DE17E30EDE170A0E55D9DEC0DFFFE12B66
:1021D00026D99FEC3DF08FEC3DF042EC51F0040E1F
:1021E000E127E06B030102AD30D00001E08F030175
:1021F000D151DD5D29E20001E08D03010089C24B70
:10220000C32B9451C219C31102E1E06B1AD094514F
:102210000001DB6FDC6B0301C2510001DB5D0301D8
:10222000C3510001DC590EE20301E02B9551E05D42
:102230000CE3E06BF7EC40F0000907E10301C26B2F
:10224000C36B0001E09D03010099030100A304D0CA
:102250000001E08B030100930001E0990301995113
:10226000981907E10001D951DA1103E1F00EE017E6
:1022700023D003019951981916E1F00E0001E017DF
:10228000495002E0FDD80CD9485007E0E0510F0B4F
:10229000DB6FDB2BE051DB1903D90101F4510CE0BA
:1022A0000001EED808D00001D951DA1105E01BEC8D
:1022B00040F0DB6FE019F4D80A0E0001DBD8E0C073
:1022C000DFFFE12BACD8060E626F030E636F656B08
:1022D000020E646F42EC51F0020EE12703019951A6
:1022E00098190FE00001D951DA110BE00A0E606F66
:1022F0000A0E616FE10E626F010E636F88EC17F0DA
:102300001AD003019951981916E1495009E00A0EB3
:102310000001606F0A0E616FE10E626F7CEC5DF090
:10232000485009E00A0E0001606F0A0E616FE10E6D
:10233000626FBFEC60F00A0E00019CD8D6C0DFFFD0
:10234000E12BD951DA1118E06AD8D7C062F0D8C0B1
:1023500063F0D9C064F0DAC065F042EC51F0D7C048
:10236000A0F0D8C0A1F0D9C0A2F06BD895D873D88E
:1023700090EC29F0D9511AD003019951981917E01E
:10238000190E0001606F0B0E616FDF0E626F636BE1
:1023900088EC17F0190EA06F0B0EA16FDFC0A2F032
:1023A00050D876D858D890EC29F0DF51E12706C3F1
:1023B0006BF007C36CF008C36DF009C36EF0000149
:1023C000E151F00F6F6F490E706F000E716B5DEC95
:1023D0003DF00A0E606F0A0EECEC05F0100E646F13
:1023E00042EC51F041D8CA6F020ECB6F0A0ECC6F8F
:1023F0000A0ECD6FE1C0CEF054EC12F010D8DAEC3A
:1024000052F08FEC3DF042EC51F0040EE127F00E5B
:10241000E1250301C66FC76BFF0EC723FF0C0A0E31
:10242000E125606F616B0A0E612312000A0E606F76
:102430000A0E616F636B626B010E656F0F0E646F46
:102440000F0CA36B06C3A4F007C3A5F008C3A6F046
:1024500009C3A7F01200A96FE1C0AAF00A0EAB6F82
:102460000A0EAC6FAD6B1200220EC86F030EC96F5F
:10247000C60E1200E125D96EDA6A0A0EDA221200BF
:10248000E0510F0BDB6F020EDB27E051DB1912006E
:10249000220EA86F030E1200320EA86F030E120058
:1024A000F00BDB19E06F12000101656B646B626B6E
:1024B000606B616BC8C0A0F0C9C0A1F0100E000134
:1024C000A26F010EA36F000EA46F010EA56FC1ECE9
:1024D0002FF0CE51CF6FD06B0F0ECF27000ED02331
:1024E000040ED16FD035D033CF33D12FFBD7CF519E
:1024F0000101636F635104E1010E636F626B0AD0E7
:10250000CEC0CFF00F0E0001CF17010ED8A4000EE1
:102510000101626F62052EE1646B6351100DF3508F
:10252000F00F656F18D0200E010164251BD9100E25
:102530006425E96EEA6A010EFBD8010165510001CC
:10254000CC25E96E000ECD21EA6EEF50CF19DF6E7B
:102550000101642B652B6351C7D801016551FED879
:10256000CF51D15DD251800AD36FD051800AD35957
:1025700040E2D9D70001CE51CC25CF6F000ECD213E
:10258000D06FCE510F0BCF5D0101606F0001D051B4
:10259000D8A0D0050101616F656BE9D865610CD0E9
:1025A00065516025D96E000E6121DA6E300EC5D8F6
:1025B000EA22DFCFEFFF09D0DAD8651904E1B1D8FC
:1025C000800EDF6E02D0ADD8DF6A652B0F0E656519
:1025D000E4D7656B200E6525C5D8000E6525E96E2C
:1025E000EA6A010EA5D8300E0101A7D88AD8656520
:1025F000F1D7500E0001606F010EA2EC56F0100EE4
:10260000646F59EC60F00101656B34D00101646BBB
:10261000400E6425B1D8655167D8CCC0D1F0CDC08B
:10262000D2F090D864510001D125E96E000ED2217C
:10263000EA6EEF50D36F500E010164256ED8EA2286
:10264000EF500001D319DF6E0101642B0F0E64659A
:10265000DFD7500E0001606F010E616F5AD83FD86E
:1026600042EC51F0500E8C6F010E72D8A8EC61F064
:102670000101652B0001CF69D069010163516ED85A
:1026800061D865510001D36FD46BD151D35DD45162
:10269000800AD56FD251800AD559B8E30101656B24
:1026A000400E652569D8200E6525E96EEA6A010E9F
:1026B0003FD8500E0101652530D823D86565F0D785
:1026C000400E00018C6F010E43D8A8EC61F0CAC027
:1026D00060F0CBC061F01DD802D842EF51F0636FBB
:1026E000656B100E646F100C0001CF6FD06BCF3B89
:1026F000D03BF00ED017CF510F0BD013F00ECF17E9
:10270000F00CEA22EF500001CF19DF6E0101652BBA
:102710000F0C400E626F010E1200E96EEA6A010EA4
:102720001200300E6525D96EDA6A010EDA22120027
:10273000EA22EF500001CF6F12006525E96EEA6AC8
:10274000010E1200CF51D127D051D2230101120026
:102750008D6FC8C08EF0C9C08FF012000001D16F1C
:10276000D26B1200D96EDA6A010EDA221200000171
:10277000CE510F0B01011200D96EDA6A010EDA2276
:10278000120000017B6F796B7A6B080E7B192EE1CA
:1027900027EEF4F0DE50DE10D8B4120019D9AF0ED7
:1027A0007025D96E050E7121DA6EDF5014E1F3C782
:1027B000E8FFFF0FE8CFF3F700D9DECFF6F7DDCF64
:1027C000F7F7FBD8DE6ADD6A27EEF3F0DF5007D9B2
:1027D000DE6ADD6A05D027EEF6F0DE06000EDD5A71
:1027E00027EEF4F0DE06000EDD5A000C27EEF4F0C2
:1027F000250EDE5C020EDE5844E2200E7B1943E11A
:1028000027EEF3F0060EDF603CD0E2D803D9000ECD
:10281000DF6A27EEF4F0DE2ADD2227EEF6F007EE7F
:10282000F3F0EF50020DD60EF324E96E070EF420FC
:10283000EA6EDECFEEFFDDCFEDFF7069716927EE46
:10284000F6F0EFD827EEF4F0DECF74F0DDCF75F0C0
:102850007251745F7351755B705174277151752398
:1028600027EEF3F0DF50BBD874C0DEFF75C0DDFF8C
:10287000F3C7E8FF010FE8CFF3F7000EA7EC56F01F
:1028800077D0796975D0A4D8C5D87BC0DFFF27EE93
:10289000F4F0DE2A000EDD2227EEF6F0DE2ADD223D
:1028A00083D816EC58F027EEF4F06051DE5C6151ED
:1028B000DE582EE3010E7A6F77D816EC58F060518F
:1028C0007C6F22D085D8B2D87C51725F000E9AD826
:1028D000DF50746F69D816EC58F0E40E756FFF0E78
:1028E000766F60517527615176237C51755F000EBC
:1028F000765B75C0F6FF76C0F7FFF86A0800F55002
:10290000741901E07A6B7C077C5102E07A51DAE1BC
:102910007A512EE05DD848D816EC58F087D860512F
:10292000725F61516FD8DF6A3FD816EC58F027EE1E
:10293000F6F05DD86051705F6151715B3ED870C038
:10294000DEFF71C0DDFF27EEF6F051D827EEF4F080
:1029500068D87051725F7151735B27EEF3F0DF50EE
:102960003ED872C0DEFF73C0DDFF010EE8CFF2F784
:102970007929D8A4120087EC56F048C260F049C209
:1029800061F04BEC17F016EC58F060C077F061C0C6
:1029900078F048C266F049C267F02ED877C069F077
:1029A00078C06AF0C5EF46F0E40E606FFF0E616F0D
:1029B0006011D8A4000E626F120027EEF3F0DF5012
:1029C000020DD60EF324D96E070EF420DA6E120033
:1029D00027EEF4F0DECF70F0DDCF71F01200020DC3
:1029E000E40EF324D96E070EF420DA6E1200DECF67
:1029F00070F0DDCF71F0120066516711D8A4000E9F
:102A0000686F1200735B70517225D96E715173211A
:102A1000DA6E1200B00E7025D96E050E7121DA6ED5
:102A20001200DECF72F0DDCF73F01200B00E726FC5
:102A3000050E736F1200A06B52C2B3F153C2B4F112
:102A4000B351B411D8A4000EB56FA36B35D0A35108
:102A5000090DF35097250001FA6FF45001019821F8
:102A60000001FB6F000E010199210001FC6FFAC00B
:102A7000F6FFFBC0F7FFFCC0F8FF21EEA4F0080E44
:102A800015D9FEE2A4C160F0A5C161F001019B511E
:102A9000EFEC14F0DECFFAF0DDCFFBF0B00E00016A
:102AA000FA25626F050EFB21636FCFEC44F0605195
:102AB000611105E00101A32B9A51A35DC8E3010157
:102AC0009A51A35D01E3ABD0A651A711A81101E073
:102AD0009BD0A951AA1101E1A2D0AC510001FA6F1B
:102AE000FB6B01019B51F3C7FCF0FCC0FDF0000142
:102AF000FE6BFD5F000EFE5BFA51FD1903E1FB5119
:102B0000FE19D8A48CD001019B29A26FA16BAC51F6
:102B100014E0A22BA205020DD60EF324D96E070EE7
:102B2000F420DA6EDE50DE1003E1010EA16F05D055
:102B300027EEF3F0A251DE5CECE2A15170E1AD0EA4
:102B40000001606F010EA2EC56F0090E646F59ECA3
:102B500060F001018DD8FA2B000EFB23FB5113E12D
:102B6000070EFA5D10E27BD8D80EFA25D96E070E53
:102B700093D809E074D8E60EFA25D96E070E7DD8F1
:102B8000AD6F85D8AE6F010173D8020E8AD813E1FC
:102B9000070EFA5D10E263D8DA0EFA25D96E070E39
:102BA0007BD809E05CD8E80EFA25D96E070E65D807
:102BB000AF6F6DD8B06F01015BD8030E72D813E10F
:102BC000070EFA5D10E24BD8DC0EFA25D96E070E1F
:102BD00063D809E044D8EA0EFA25D96E070E4DD81D
:102BE000B16F55D8B26FAD0E0001EB6F010EEC6FF7
:102BF00001D815D00500FA6E0101A951FD6EAA5148
:102C0000FE6EFF6AFA501200010EA06F9CC1D9FF40
:102C10009DC1DAFFA3C1DFFFB36BB46BB56B0101DC
:102C2000B351B411B51118E0B3C160F0B4C161F093
:102C3000B5C162F016EC58F060C09EF161C09FF122
:102C4000B3C166F0B4C167F0B5C168F09EC169F068
:102C50009FC16AF0C5EC46F00101A05112000101CC
:102C60009B510001FA6FFB6BD890FA37FB371200CB
:102C70009B510001FA6FFB6B1200FB21DA6EDECF75
:102C8000FCF0DDCFFDF0B00EFC2501011200050EB9
:102C90000001FD2101011200FB21DA6EDE50DE1081
:102CA0001200FA27000EFB23FB5112000900F5CF9A
:102CB000DEFFE8061200D7D0010E9B6554D023D961
:102CC00022C262F023C263F041EC5EF0DBD816EC66
:102CD00058F0F7D8856F070EAA21866F99C0D9FFE3
:102CE0009AC0DAFFDF50876FB6EC39F022EC5CF067
:102CF000C9D816EC58F0E5D8F3D8A94BAA2B9D6992
:102D00009E699B519F6FA06B9D519F279E51A02351
:102D1000120EA16F020EA26FA951A15FAA51A25B70
:102D2000D890A231A46FA131A36F9F51A35DA05190
:102D3000A45903E2B6D8E1D806D0FF0E9B25A56FB3
:102D4000A66BFF0EA62399298D6F000E9A218E6F18
:102D5000BFD8BAEC3CF096D816EC58F0ADD8C7D82E
:102D6000D8A4200E0DD01EC260F01FC261F093D80F
:102D700016EC58F0A1D81EC266F01FC267F06ED0E4
:102D8000686FA7C069F0A8C06AF0C5EF46F09B5114
:102D900025E0B9D820C262F021C263F041EC5EF0B8
:102DA00071D816EC58F08DD89BD8A94BAA2B79D89E
:102DB000A06F9D319F6F9B519F5D000EA05903E254
:102DC00070D89BD803D09BC0A5F0A66B99C08DF09E
:102DD0009AC08EF07DD8BAEC3CF0BDD71CC260F032
:102DE0001DC261F058D816EC58F066D81CC266F0C7
:102DF0001DC267F033D024C260F025C261F04BD809
:102E000016EC58F059D824C266F025C267F026D0D7
:102E100026C260F027C261F03ED816EC58F04CD8BC
:102E200026C266F027C267F019D028C260F029C216
:102E300061F031D816EC58F03FD828C266F029C2AC
:102E400067F00CD02AC260F02BC261F024D816ECD7
:102E500058F032D82AC266F02BC267F0665167116B
:102E6000D8A4000E8DD700019C51D2E0010A01E1E7
:102E700023D7030AC0E0010A8AE0070AD6E0010A64
:102E8000E1E01200F80E606F070E616F6011D8A4C8
:102E9000200E626F120060516111D8A4000E626FA3
:102EA0001200120E9D6F020E9E6FA9519D5FAA51D6
:102EB0009E5BD8909E31120060C0A7F061C0A8F060
:102EC000120060C0A9F061C0AAF0F80EA925120096
:102ED000F80EA9258F6F070EAA21906FA551120039
:102EE000D96E070EAA21DA6E200EDF6E200CF80EC6
:102EF000666F070E676F661112009F6F9D31A56F99
:102F00009FC0A6F01200F80E606F070E616F1200EE
:102F100099C36DF06251D96EDA6ADF506E6F0001AD
:102F2000635114E06D51E8D8DE2810E0F4D8E4D8FD
:102F3000F7D84CEC40F002D969BFB9D0695105E12E
:102F4000100E685D01E3CFD0B2D0CDD0635101E067
:102F5000AED06D51D1D8DE2801E1A9D0DCD8CCD8D3
:102F6000DFD84CEC40F0EAD8F50E030165EC4BF0ED
:102F70009EEC22F0F55000016A6F6B6B68516A5D40
:102F80006B51800A6C6F6951800A6C5901E2ABD0B9
:102F90008ED0BAD8030EDF6E6E2BB6D8DF6A6D51B5
:102FA000DCEC08F0DFA004D00001AED8000EDB801E
:102FB00000016D51DCEC08F0DFA203D0A5D8000EB3
:102FC000DB8200016D51DCEC08F0DFA403D09CD85B
:102FD000000EDB8400016E2B7CD096D8050EDF6ED0
:102FE0006E2B92D8DF6A6D51DCEC08F0DFA604D0BE
:102FF00000018AD8000EDB8000016D51DCEC08F086
:10300000DFA803D081D8000EDB8200016D51DCEC1B
:1030100008F0DFAA03D078D8000EDB84000174D852
:10302000DF500101F36FD6D76FD8060EDF6E6E2B1F
:103030006BD8D2C3DFFF6E2BD0EC67F0800AA00FF5
:1030400005E3D0EC67F0800A600F04E300015CD870
:10305000200E05D0000158D8D0EC67F03F0BDF6E92
:10306000B9D752D8070EDF6E6E2B4ED8DF6A6D517E
:10307000DCEC08F0DFAE04D0000146D8000EDB80A7
:1030800000016D51DCEC08F0DFACA4D73DD8000E98
:10309000DB82A0D70301CF69D06B00016D512CD822
:1030A0006E516025E96E000E612156D893D76D519F
:1030B00023D8DF50020AEEE0010A01E16AD7070ACD
:1030C000ECE0010A8AE0030AAFE0010ACAE00F0A55
:1030D000E4E06D2B100E6D1901E16D6B6D51030174
:1030E000981901E01CD76DC099F300016251D96EA7
:1030F000DA6A6EC0DFFF1200020D9A0EF324D96E59
:10310000030EF420DA6E12006E516025D96E000EA7
:103110006121DA6E1200FE0E646F65696D51120056
:10312000DF50666F676B64516627655167231C0E1D
:103130006625F66EF70E6721F76E12006EC068F016
:10314000696B6827000E69236251D96EDA6ADF5015
:10315000685F000E695B000CEA6EDFCFEFFF1200C4
:103160008B6B68518B25D96EDA6A8B51710FE96EC2
:10317000EA6ADFCFEFFF8B2B0F0E8B65F2D70A0EBB
:10318000446E010E436E8B6BC4D8BCD800D98B65DE
:10319000FBD78B6BB7D8DF50696F6A6BC70E692599
:1031A000F66EF50E6A21F76EF86A000EF822AAD8BC
:1031B0000800F5CFDFFF8B2B0F0E8B65EBD766C0BA
:1031C00060F067C061F0B0EC35F0440401E184D0F8
:1031D0008B6B91D86929D96EBDD86B6F93D8DF50AE
:1031E0006B19896F88D8CFD8B5D8A4D88A6F8919B8
:1031F000876F81D86929D96EADD89CD8886F7F0E2A
:10320000896508D01B0E89C069F0AFD8816F6A51FB
:10321000826F05D0D8908935816F826B823781C0EB
:1032200089F07F0E886508D01B0E88C069F09DD894
:10323000836F6A51846F05D0D8908835836F846B13
:10324000843783C088F07F0E8A6508D01B0E8AC041
:1032500069F08BD8856F6A51866F05D0D8908A3512
:10326000856F866B863785C08AF04CD884D88719DD
:103270008919DF6E40D86929D96E52D86B296FD869
:1032800087198819DF6E37D8020E6925D96E48D89C
:10329000020E6B2564D887198A19DF6E2CD873D873
:1032A0003FD8020E6B255BD86D6F8B5166256E6F14
:1032B000000E67216F6F6E29E96E000E6F21EA6EB6
:1032C000EF50706F58D870196D198719DF6E040EA2
:1032D0008B270F0E8B657DD7710E606FDCEC27F0AE
:1032E0008B6B17D80FD853D88B65FBD74406445047
:1032F00001E04FD712008B516625696F000E6721E0
:103300006A6F12008B516625D96E000E6721DA6E46
:1033100012008B51710FD96EDA6ADF50696F12009B
:10332000000E6A21DA6E8B5166256B6F000E6721E5
:103330006C6F12006B6F8B5166256C6F000E6721EE
:103340006D6F020E6C25D96E000E6D21DA6EDF50A6
:103350006B191200000E6A21DA6EDF501200E96E5E
:10336000000E6C21EA6EEF5012006A6BD89069373C
:103370006A37691912008B516625E96E000E6721C4
:10338000EA6EEF501200030E6925D96E12006951E2
:10339000DF1A8B2B0F0C060EE126000EE2224AEC00
:1033A00046F04EC082F24FC083F250C084F251C04A
:1033B00085F24A047AE14A6ACD38030B02E1E2D889
:1033C00002D0CED8D8D8CD38030B02E1EAD803D04A
:1033D000C7D805EC26F0CD38030B03E183EC46F0AB
:1033E00003D0BED87CEC46F0FE0EE3CF59F0526815
:1033F0005368546A556A592A05D0D89052365336C4
:1034000054365536592EF9D70101E7515214566EEC
:10341000E8515314576EE9515414586EEA5155143B
:10342000596EFC0EE3CF55F04E684F68506A516AF2
:10343000552A01D09AD8552EFDD734504E14526ECD
:1034400035504F14536E36505014546E375051143B
:10345000556E4E6A4F6A010E506E516AFA0EE35075
:10346000E82A01D082D8E82EFDD752504E5E535044
:103470004F5A5450505A5550515A56504E5C526EF5
:1034800057504F58536E58505058546E59505158C9
:1034900044D882C2E7F183C2E8F184C2E9F185C26F
:1034A000EAF1010179D873D82DD034C056F035C077
:1034B00057F036C058F037C059F0561E571E581EE8
:1034C000591E562A000E5722582259220101E7514F
:1034D000565C526EE8515758536EE9515858546E25
:1034E000EA5159581AD886510101E727020187513C
:1034F0000101E823020188510101E92302018951F8
:103500000101EA2386C24EF087C24FF088C250F014
:1035100089C251F0FA0EADEF26F0556E02018251CC
:103520005224566E83515320576E84515420586E46
:1035300085515520596E0101EB5156240201866FC9
:103540000101EC5157200201876F0101ED51582014
:103550000201886F0101EE5159200201896F1200AA
:10356000CD38030B4F6E506A1200D8904E364F364E
:10357000503651361200FE0E4FC0E3FFFF0E50C012
:10358000E3FFFF0CFE0EE36AFF0EE36A1200346AEB
:10359000356A366A376A1200EB6BEC6BED6BEE6BDB
:1035A0001200FC0EE36AFD0EE36A12009FD00001D8
:1035B0007D697E697F698069A6D000A521D0D4513C
:1035C000AAEC5CF0635102E1CFD80DE30301D451C2
:1035D000AAEC5CF00D0E01D0D4D8E82EFDD7B0D8FF
:1035E000F1EC55F06ED00301D451AAEC5CF0A8D8F0
:1035F000F1EC55F00D0E01D0BED8E82EFDD761D00C
:1036000002A981D0D651AAEC5CF0635102E1ACD89A
:103610000DE30301D651AAEC5CF00D0E01D0B1D838
:10362000E82EFDD78DD8F1EC55F04BD00301D651E3
:10363000AAEC5CF085D8F1EC55F00D0E01D09BD8CA
:10364000E82EFDD73ED000A504D0D551AAEC5CF001
:1036500005D002A904D0D751AAEC5CF098D800019B
:10366000805102E19DD81DE37DC079F07EC07AF0E3
:103670007FC07BF080C07CF00D0E05D0D8907C33ED
:103680007B337A337933E82EF9D779C069F07AC081
:103690006AF07BC06BF07CC06CF060D8F1EC55F048
:1036A00010D07DC069F07EC06AF07FC06BF080C032
:1036B0006CF054D8F1EC55F00D0E01D05CD8E82E2A
:1036C000FDD769C07DF06AC07EF06BC07FF06CC032
:1036D00080F019D0DA51AAEC5CF059D88051C4E1DD
:1036E0005FD8C2E2DED7000162D80DD003010251DB
:1036F0000F0B01E15CD7020A01E15FD7060AA3E0E4
:10370000020AE8E0F0D7000180517F117E1103E149
:10371000C80E7D5D09E3CE0E7D27FF0E7E237F233D
:1037200080230301038103D042D8030103917DC0AC
:1037300075F07EC076F07FC077F080C078F0120020
:1037400060C069F061C06AF062C06BF063C06CF089
:103750007D0E6D6F6E6B6F6B706B7D0C7D0E6D6F84
:103760006E6B6F6B706B7D0C1F0E605DAC0E6159E4
:10377000DF0E62591200D8906C336B336A336933B1
:103780001200D8906333623361336033120060C03B
:103790007DF061C07EF062C07FF063C080F01200F7
:1037A0001F0E7D5DAC0E7E59DF0E7F5912007D6BC2
:1037B0007E6B7F6B806B12000201B1A506D0800E7C
:1037C0000001896F030E886F030CB1C28AF0030EEB
:1037D00000018A1705E0800E896F040E886F040CC3
:1037E0008A868851891107E1000E7A6F040E796F7D
:1037F00018EC09F006D088C079F089C07AF018EC8E
:1038000009F00201A6050DE1010E0001626F220E12
:1038100072EC63F0C2D872EC63F0BCD872EC63F067
:1038200010D0C4C262F0120E72EC63F0C5C262F036
:10383000130E72EC63F0B1D872EC63F0ABD872EC9B
:1038400063F00201B183E70EB117000188518911BD
:1038500006E104EC5BF0050EB2EC33F02CD0020173
:10386000A60509E1010E0001656F000E666F060EE8
:10387000B2EC33F020D0000E89D8B2EC33F0000166
:1038800088518A6F89518B6F8C6B8D6B0C0ED89021
:1038900078D8E82EFCD760D856EC23F0EFEC47F050
:1038A00060C06DF048D80201B6511BEC57F0020120
:1038B000B6518FEC45F05FD83AE0BB5102E155D8E4
:1038C0000BE340D803EC3AF0EFEC47F00C0E54EC6D
:1038D0002DF0E82EFCD713D0B8C28AF0B9C28BF015
:1038E000BAC28CF0BBC28DF00C0ED890000149D842
:1038F000E82EFBD731D856EC23F0EFEC47F060C050
:103900008EF061C08FF062C090F063C091F08EC005
:103910006DF08FC06EF090C06FF091C070F002013A
:10392000B7511BEC57F00201B7518FEC45F0000185
:10393000886B896B120061C06EF062C06FF063C06B
:1039400070F01200B8C260F0B9C261F0BAC262F0A1
:10395000BBC263F000017D0C8AC060F08BC061F0D7
:103960008CC062F08DC063F01200B829FF0EB95907
:103970000F0EBA5912000201B851B911BA11BB1198
:1039800012008A378B378C378D3712000001656F34
:10399000666F050C0001626B410C0001626B400C0C
:1039A0009E96C6AEC7D0C69E426A0101D9EC5CF0B5
:1039B000DECF04F0DDCF05F004C0D9FF05C0DAFF8B
:1039C000010EDF6EEF6BF06B12002DB212002BC0F8
:1039D000EFF12CC0F0F12BC0D9FF2CC0DAFFDF5083
:1039E000416E20EE01F02B50D9262C50DA22DECF8A
:1039F000F1F1DDCFF2F1050E2B26000E2C22E50EA3
:103A00002B1807E1020E2C1804E1E00E2B6E020EBB
:103A10002C6E2D9029502B1804E12A502C1801E10E
:103A20002D82C580020E426E020CC5AC04D014D0AB
:103A3000040EC5EF5CF0D8904C30056E4B30046E30
:103A40000450C96E4BA003D00B0E426E0B0C030E3C
:103A5000426E030CC5AC02D02F2AEAD7C5824C5067
:103A6000060B046E056AF00E04104B6E05504C6E8A
:103A70004B80010E3F6ED6D73F0415E0F1C1D9FF50
:103A8000F2C1DAFFDECF4BF0DDCF4CF0010120EECA
:103A900003F06FD8DECF8CF2DDCF8DF220EE02F096
:103AA00068D8DF50406E4BC0C9FF4BA0D0D7050E81
:103AB000426E050CC5AC05D02F2AC59C050EC5EF7E
:103AC0005CF04006402807E18AEC63F0412E01D00B
:103AD0002AD0C582A7D748D8DF50C96E02018C4BC7
:103AE0008D2B1200C5AC06D02F2A040EC5EC5CF05D
:103AF000C59C1200C586080E426E080C080E426E68
:103B0000C586080C31D8C9CFDFFF02018C4B8D2B45
:103B1000400604E0C59A060E426E03D0C58A81ECC9
:103B200063F0C5881200000EC5EF5CF02F2A060E68
:103B3000C5EF5CF0425001E148D7010ACAE0030A30
:103B40009BE0010AB7E0070AEEE0010ACBE0030AB6
:103B5000D5E0010AE8E00F0AD5E0020A01E165D7E5
:103B6000010A01E177D7E2D78CC2D9FF8DC2DAFF13
:103B70001200F151D926F251DA2212000201B1A548
:103B800006D0800E0001896F030E886F030CB1C24E
:103B90008BF0030E00018B1705E0800E896F040E79
:103BA000886F040C0201A65109E1400E00018A65EC
:103BB00005D0800E896F020E886F020C8A86020182
:103BC000B55118EC62F0B5D818EC09F00201A60561
:103BD0001EE18AC062F0220E72EC63F00A0ECEEC97
:103BE00061F0976FF00E9717978797C062F00A0EF3
:103BF00072EC63F0400E0001626F72EC63F0CAEC8D
:103C00001CF072EC63F08FD8B2EC33F008D0CDEC3E
:103C10001CF072EC63F0CAEC1CF072EC63F0020171
:103C2000A65105E18AC062F0000E72EC63F0FBEC75
:103C300067F0800E4DEC67F00001986B0BD0985147
:103C40008825D96E000E8921DA6EDF504DEC67F0C1
:103C50000001982B8A51985DF2E3F9EC67F00201BC
:103C6000B181E70EB117DDEC5EF0030EB2EC33F07C
:103C700000016D6B6E6B0A0E6F6F706B0201B551B8
:103C80001BEC57F00201B5518FEC45F0BBEC1CF07A
:103C900046E0BB5103E1B5EC1CF00CE3A2EC1CF0D8
:103CA00003EC3AF0EFEC47F00C0E54EC2DF0E82E5C
:103CB000FCD71DD0B8C28BF0B9C28CF0BAC28DF05F
:103CC000BBC28EF00C0ED89000018B378C378D372D
:103CD0008E37E82EF8D78BC060F08CC061F08DC0B5
:103CE00062F08EC063F056EC23F0EFEC47F060C05A
:103CF00093F061C094F062C095F063C096F093C0F9
:103D00006DF094C06EF095C06FF096C070F0020137
:103D1000B7511BEC57F00201B7518FEC45F0000191
:103D2000886B896B1200A6C265F0010E0001666FF8
:103D3000010C000E00017A6F040E796F040CEBC0C9
:103D4000D9FFECC0DAFFDECFEFF0DDCFF0F00001FD
:103D500020EE02F0C7D8DECFF2F0DDCFF3F0010E97
:103D6000F16FF569EFC09CF0F0C09DF03CEC37F0CE
:103D7000F46FF2C085F0F3C086F0010E876F56EC49
:103D800042F09EEC48F0000908E0F2C066F0F3C093
:103D900067F04EEC3EF06651F56FF4AFF5BF92D090
:103DA000F16B6CD0F55102E189908CD089808AD07A
:103DB000F55102E1899286D0898284D0F55102E1E1
:103DC000899480D089847ED0F55102E189967AD099
:103DD000898678D0F55102E1899874D0898872D0AB
:103DE000F55102E1899A6ED0898A6CD0F55102E1D1
:103DF0008D9068D08D8066D0F55102E18D9262D0B1
:103E00008D8260D0F55102E18C945CD08C845AD0C4
:103E1000F55102E18D9456D08D8454D0F55102E1D4
:103E20008B9A50D08B8A4ED0F55102E18C9A4AD0B1
:103E30008C8A48D0F55102E18C9E44D08C8E42D0C1
:103E4000F55102E18C9C3ED08C8C3CD0F55102E1C6
:103E5000899E38D0898E36D0F55102E1899C32D0C6
:103E6000898C30D0F55102E18A9E2CD08A8E2AD0DE
:103E7000F55102E18A9C26D08A8C24D0F45192E03C
:103E8000010A96E0030A9AE0010A9EE0070AA2E00E
:103E9000010AA6E0030AAAE0010AAEE00F0AB2E0B6
:103EA000010AB6E0030ABAE0010ABEE0070AC2E06E
:103EB000010AC6E0030ACAE0010ACEE01F0AD2E006
:103EC000010AD6E0F151CAEC21F0DECFEDF0DDCFF2
:103ED000EEF020EE06F006D8EDC0DEFFEEC0DEFF0D
:103EE000DD6A1200EB51D926EC51DA2212007BC0B8
:103EF0008EF27CC08FF27DC090F27EC091F2A80E4F
:103F00000201926F610E936F946B956B500E966FDA
:103F1000C30E976F986B996B010EA66F070EA86F73
:103F2000020EA96F010EAF6FB06B9B6B080E9A6FFC
:103F30000C0EA76F010EAA6FAB6BAE6BC10E9D6F1F
:103F4000940E9E6FC10E9F6F030EA56F340E9C6F73
:103F5000B16BB26B79C0B3F27AC0B4F2AC6BAD6B3B
:103F6000800EC06FC269C16F980EB86F3A0EB96FFC
:103F7000BA6BBB6B020EC36F0B0EC46F120EC56F14
:103F8000BD6BBE6BBC5123E1A3EC59F00201B56FD0
:103F9000A3EC59F00201B66FA3EC59F00201B76F20
:103FA0001E0E0001606FB90E616F626B0201B651A7
:103FB00045EC63F09C0E606FB70E616F626B02019F
:103FC000B75145EC63F0010E0201BC6F0BD0B55147
:103FD00018EC62F00201B65118EC62F00201B75120
:103FE00018EC62F080EC5FF0000E0001656F010ECE
:103FF000666FB2EC33F006EC0BF0DBEC32F0420E05
:104000002DEC0BF072EC63F03B0ECEEC61F07F6FA9
:104010007FBBFAD7230E626F0C0E72EC63F01E0E9C
:104020000001626F0D0E72EC63F0AA0E0001626F68
:104030001F0E72EC63F08F0E0001626F350E72EC92
:1040400063F000016269320E72EC63F0400E000111
:10405000626F310E72EC63F0010E0001656F666FE6
:10406000000EB2EC33F093866186F19E0001806B06
:1040700005D081A602D0939603D0802B80AFF9D7CC
:104080006196F18E6269230E72EC63F0420ECEEC03
:1040900061F00201BF6F1200A46B9FC0A5F0A0C029
:1040A000A6F0AFD003019851DCEC08F0DF909851F6
:1040B000DCEC08F0DF929851DCEC08F0DF949851CA
:1040C000DCEC08F0DF969851DCEC08F0DF989851B2
:1040D000DCEC08F0DF9A9851DCEC08F0DF9C98519A
:1040E000DCEC08F0DF9EA1D89851020D9A0EF32463
:1040F000E96E030EF420ACEC18F061D0A5C060F0BE
:10410000A6C061F0C2EC5FF060C0A5F061C0A6F08F
:10411000030198517CEC18F0DF6865D0A5C099F0D8
:10412000A6C09AF0A1519F259B6F000EA0219C6F05
:10413000DDEC06F099C0A5F09AC0A6F054D0A5C059
:1041400060F0A6C061F04CEC62F060C0A5F061C008
:10415000A6F049D0A5C075F0A6C076F051EC2CF0C1
:1041600075C0A5F076C0A6F03ED0A5C060F0A6C090
:1041700061F01BEC67F060C0A5F061C0A6F033D021
:10418000A5C082F0A6C083F0AFEC2AF082C0A5F0F3
:1041900083C0A6F028D0A5C067F0A6C068F0ABEC3D
:1041A00060F067C0A5F068C0A6F01DD0010EA46F36
:1041B000A1519F25A56F000EA021A66FA9D735D8C4
:1041C0000001A54BA62BDF50020A98E0010AA6E0E9
:1041D000070AB5E0010ABEE0030AC7E0010AD0E021
:1041E0000F0AD9E0E3D7030198517CEC18F0DE28E0
:1041F00004E0100E986101D0982B100E981901E17F
:10420000986B0001A1519F25A26F000EA021A36F02
:10421000A251A55DA351A65903E2A45101E142D7E1
:10422000A5C09FF0A6C0A0F01200A5C0D9FFA6C0EF
:10423000DAFF1200EBC0D9FFECC0DAFFDECFEFF0FF
:10424000DDCFF0F0010E0001F16FF369EFC09CF0DB
:10425000F0C09DF03CEC37F0F26FF2BF80D05AD046
:10426000000E80B0010EF36F79D0000E80B2010E07
:10427000F36F74D0000E80B4010EF36F6FD0000E98
:1042800080B6010EF36F6AD0000E80B8010EF36F96
:1042900065D0000E80BA010EF36F60D0000E84B0BE
:1042A000010EF36F5BD0000E84B2010EF36F56D097
:1042B000000E83B4010EF36F51D0000E84B4010ED2
:1042C000F36F4CD0000E82BA010EF36F47D0000E90
:1042D00083BA010EF36F42D0000E83BE010EF36F5E
:1042E0003DD0000E83BC010EF36F38D0000E80BEAF
:1042F000010EF36F33D0000E80BC010EF36F2ED091
:10430000000E81BE010EF36F29D0000E81BC010E9C
:10431000F36F24D0F251A4E0010AA7E0030AAAE057
:10432000010AADE0070AB0E0010AB3E0030AB6E013
:10433000010AB9E00F0ABCE0010ABFE0030AC2E0CB
:10434000010AC5E0070AC8E0010ACBE0030ACEE093
:10435000010AD1E01F0AD4E0010AD7E0F16BF15164
:1043600009E0F15117D8DECFEDF0DDCFEEF01FD828
:10437000DD6A120017D8F3517E6F7F6B7EBF7F0717
:1043800021D8EBEC3EF0F80EED6F070EEE6F0FD874
:104390007EEF25F0020DDE0EF324D96E010EF4201F
:1043A000DA6E1200F80E7C6F070E7D6F120020EEA1
:1043B00006F0EB51D926EC51DA22EDC0DEFFEEC05B
:1043C000DEFF1200816B0A0E806F0A0C0001936FF2
:1043D0000301E75139EC67F0D1C391F00001930577
:1043E0001DE193C07EF0940E7F6F806B0301DF515F
:1043F000FBEC37F0926FD90E0301D12539EC56F062
:104400009DD8F5502FEC67F00301E151D15D0A0F03
:10441000176F0D0E17653FD0176F3DD0030100BD1C
:1044200011D0D16B96D8400EFBEC37F0926F0A0E8C
:104430002FEC67F00301E1510A08176F070E43ECF8
:1044400067F015D0040ED16F84D8080EFBEC37F05E
:10445000926F080E2FEC67F00301E1510E08176F01
:104460000D0E176501D0176F090E43EC67F00301BD
:1044700000BD04D000018C6B8C2B02D000018C6B32
:104480008C3B8C478C470301005100018C19BF0BFA
:104490008C190301006F91C0D1F3000192514BE1DF
:1044A000400E946116D0945158EC55F075C08DF0C3
:1044B00076C08EF077C08FF078C090F0070E43EC96
:1044C00067F0110E030140D839D8F55020EC67F0A1
:1044D00020D09451DAEC4CF075C08DF076C08EF09F
:1044E00077C08FF078C090F0090E43EC67F0110EA2
:1044F00003012AD823D8F550800A650F07E2110E70
:1045000023D81CD8F55020EC67F003D01A0E20EC0D
:1045100067F08DC060F08EC061F08FC062F090C017
:1045200063F07BEC43F0010E2AEC67F0000E25EC03
:1045300067F094C0CCF3000192511200F722F86AA0
:10454000000EF82208001200D325F66EF76AF70E67
:10455000120093C07EF0940E00017F6F806B1200FA
:10456000765106E17329FF0E74590F0E755905E354
:1045700073517411751176110CE19ED897D8EFEC38
:1045800047F060C06DF09BEC1CF05E501BEC57F0E8
:104590008AD07F6B806B866B816B73C07BF074C03D
:1045A0007CF075C07DF076C07EF017D0D890763361
:1045B00075337433733386C077F0010E786F796B7F
:1045C000772B03D0D89078377937772FFBD7000136
:1045D00078517F1379518013862B7651E7E1100EC5
:1045E000755DE4E269D862D8EFEC47F060C082F014
:1045F00061C083F062C084F063C085F0060E8665FA
:1046000015D08651200882C077F083C078F084C02E
:1046100079F085C07AF0E82A05D0D8907A337933DA
:1046200078337733E82EF9D77751816F81C060F006
:104630005E5040EC66F0862905D0D89082378337EB
:1046400084378537E82EF9D700017F517B15776FC6
:1046500080517C15786F796B7A6B0C0ED890773718
:10466000783779377A37E82EF9D777C060F078C095
:1046700061F079C062F07AC063F018D8EFEC47F0CF
:1046800060518227615183236251842363518523C2
:1046900082C06DF083C06EF084C06FF085C070F092
:1046A0005E501BEC57F0020E02EF66F07D0E646F59
:1046B000656B666B676B7D0C73C077F074C078F0C8
:1046C00075C079F076C07AF00C0ED89077377837CD
:1046D00079377A37E82EF9D777C060F078C061F083
:1046E00079C062F07AC063F01200030103B163D0B5
:1046F000E36B0251F00B0209026F00A52AD0E70E0E
:104700001725A3D89EEC22F0F5CFADF08A51A1D8A1
:104710008B2177D8EFEC47F08ED8D4511BEC57F0B3
:10472000A0D893D89EEC22F0F5CFADF08C5191D863
:104730008D2167D8EFEC47F07ED8D5511BEC57F0B0
:104740000301D4518FEC45F00301D5518FEC45F0B6
:1047500029D0E70E172579D89EEC22F0F5CFADF0E1
:10476000865177D887214DD8EFEC47F064D8D651E1
:104770001BEC57F076D869D89EEC22F0F5CFADF05F
:10478000885167D889213DD8EFEC47F054D8D751EC
:104790001BEC57F00301D6518FEC45F00301D751C4
:1047A0008FEC45F062D8D8A412000251F00B080932
:1047B000026F54EF4FF0ADEC63F00001AD6FADA9A7
:1047C0000ED0996B9A6B9B6B020E9C6F0500FA6E74
:1047D0003050FD6E3150FE6EFF6AFA5012003050BC
:1047E0003110D8B41200996B9A6B9B6B030E9C6FBF
:1047F0000500FA6E3050FD6E3150FE6EFF6AFA50C1
:1048000012000001AF6FB06BB16B0C0ED890AE37D9
:10481000AF37B037B137E82EF9D7AEC060F0AFC0D0
:1048200061F0B0C062F0B1C063F07D0E646F656B83
:10483000666B676B7D0C60C06DF061C06EF062C02E
:104840006FF063C070F003011200F66EF76AF60EA7
:1048500012000001AD25AE6F000EADBFFF0E0301CB
:104860001200E70E03011C251200020E03011219AB
:104870001200AFD8754B762B845106EC62F0F9E24A
:10488000806B816B826B836B7F6B2D0E841906E1CD
:10489000010E7F6F9ED8754B762B03D02B0E84199B
:1048A000F9E0300E84191DE194D8754B762B7951BF
:1048B0007A1104E0100E79197A110DE1780E84193D
:1048C00003E0580E841907E17A6B100E796F81D8D6
:1048D000754B762B06D079517A1103E17A6B080E6D
:1048E000796F79517A1103E17A6B0A0E796F8451ED
:1048F00049EC61F006E3845105EC65F0C90F846F63
:1049000006D0845127EC63F02EE3300E845F84518F
:104910007B6F7C6B79517B5D7C51800A7D6F7A5116
:10492000800A7D5920E279C069F07AC06AF008EC0B
:104930004DF080C06DF081C06EF082C06FF083C01A
:1049400070F0F1EC55F084516925806F000E6A21FA
:10495000816F000E6B21826F000E6C21836F39D83E
:10496000754B762BC4D7775178110EE0FF0E752565
:104970007B6FFF0E76217C6F77C0D9FF78C0DAFF9E
:104980007BC0DEFF7CC0DDFF7F511AE080C07BF082
:1049900081C07CF082C07DF083C07EF07B1F7C1FD5
:1049A0007D1F7E1F7B2B000E7C237D237E237BC0FF
:1049B00075F07CC076F07DC077F07EC078F0000C9A
:1049C00080C075F081C076F082C077F083C078F047
:1049D000120075C0D9FF76C0DAFFDF50846F120075
:1049E000EBC0D9FFECC0DAFFDECFEFF0DDCFF0F0A7
:1049F000010E0001F16FEFC09CF0F0C09DF03CECA7
:104A000037F0F26FF2BF5DD0C70EF225AEEC10F0BA
:104A10009EEC22F0F5A455D00001F16B38D0000EC9
:104A200014EC5DF02FD0010E14EC5DF02BD0020ED3
:104A300014EC5DF027D0030E14EC5DF023D0040ECF
:104A400014EC5DF01FD0050E14EC5DF01BD0060ECB
:104A500014EC5DF017D0160E14EC5DF013D0070EB9
:104A600014EC5DF00FD0110E14EC5DF00BD0190EAC
:104A700014EC5DF007D01B0E14EC5DF003D01A0EA1
:104A800014EC5DF065C0F3F066C0F4F01AD0F2519A
:104A9000C6E0010AC8E0030ACAE0010ACCE0060A3F
:104AA000CEE0030AD0E0010AD2E00F0AD4E0010A06
:104AB000D6E0030AD8E0010ADAE0070ADCE0010ADE
:104AC000DEE00001F1510AE0F151CAEC21F0DECF45
:104AD000EDF0DDCFEEF015D8DD6A1200D2EC21F05A
:104AE000F3C07EF0F4C07FF0E2EC21F0EBEC3EF09E
:104AF000F80EED6F070EEE6F04D800D0200EDF6EBB
:104B0000200C20EE06F0EB51D926EC51DA22EDC054
:104B1000DEFFEEC0DEFF1200090EE126000EE222EB
:104B2000566857685868596877D8CBEC19F0FB0E6F
:104B30004EC0E3FF6AD8FE0E51C0E3FFFF0EE36AEA
:104B400047D0FF0EE350E2EC40F0DE043FE1FF0E01
:104B5000E35053D8FB0EE3CF4EF0DE504E5CFC0E1C
:104B600068D8FD0E66D8FE0E64D805E3FF0EE3504C
:104B700044D864D82BD0FF0EE3503FD8FB0EE3504F
:104B8000DE5EFC0EE350DE5AFD0EE350DE5AFE0EF2
:104B9000E350DE5AFF0EE35030D8F70EE350DE5CF0
:104BA000F80EE350DE58F90EE350DE58FA0EE350EB
:104BB000DE580CE2FF0EE35020D8DECF56F0DECFF9
:104BC00057F0DECF58F0DECF59F026D8FF0EE32A9B
:104BD000FF0EE3CF4EF046504E5CB3E3F70EE3CF4B
:104BE0004EF0F80EE3CF4FF0F90EE3CF50F0FA0E8F
:104BF000E3CF51F0F70EADEF26F0080D000EF324D1
:104C0000D96E040EF420DA6E1200FC0E4FC0E3FFE2
:104C1000FD0E50C0E3FFFD0CF70E56C0E3FFF80E8B
:104C200057C0E3FFF90E58C0E3FFFA0E59C0E3FF87
:104C3000FA0CE3CF4EF0DE504E581200DE6ADE6A08
:104C4000DE6ADD6A1200050EE126000EE222030193
:104C500003A103A51FD0FF0EE36A09D0FF0EE350A6
:104C60007CEC18F0020EDE1808E0FF0EE32AFF0EBF
:104C7000E3CF4EF098514E5CF1E3FF0EE3509819EC
:104C800009E198517CEC18F0020EDF6E100E98616D
:104C900001D0982B03A52ED0C15103E112EC3AF0BC
:104CA0000CE308EC3AF003EC3AF0EFEC47F03ED8B6
:104CB0000C0E57D8E82EFDD706D01ED803EC3AF0DC
:104CC000EFEC47F033D8FB0E56C0E3FFFC0E57C0A5
:104CD000E3FFFD0E58C0E3FFFE0E59C0E3FFE150B5
:104CE000FB0FD96EE2502BD81BEC57F00301D951C2
:104CF0008FEC45F0FA0E31D0BEC356F0BFC357F06B
:104D0000C0C358F0C1C359F00C0ED8905636573670
:104D100058365936E82EF9D756C060F057C061F0C2
:104D200058C062F059C063F000017D0C60C056F0BD
:104D300061C057F062C058F063C059F01200DA6EDB
:104D4000FF0EDA22DECF6DF0DECF6EF0DECF6FF039
:104D5000DECF70F00301D9511200E126FF0EE222EE
:104D6000FF0CD890563657365836593612005D50DB
:104D70005C105B1004E10B0E5A5CD8A012005A5074
:104D8000605D5B5061595C5062595D506359D8B0A9
:104D9000120060C05AF061C05BF062C05CF063C09A
:104DA0005DF034C076F035C077F036C078F037C0AB
:104DB00079F0CD38030B02E17A6B03D0CD38030BC9
:104DC0007A6F7B6BCD38030B02E17C6B03D0CD385F
:104DD000030B7C6F7D6B7AC064F065696669676BF5
:104DE000686B642B05D0D8906537663767376837AE
:104DF000642FF9D760516515696F615166156A6F47
:104E0000625167156B6F635168156C6F7CC06DF0F4
:104E10006E6B6F6B010E706F716B6D2B05D0D89040
:104E20006E376F37703771376D2FF9D769516E5DF7
:104E3000346E6A516F59356E6B517059366E6C51C4
:104E40007159B8EC2BF05AEC2DF04EC072F04FC0F7
:104E500073F050C074F051C075F000017651725D6E
:104E6000646F77517359656F78517459666F7951D2
:104E70007559676F64510101EB270001655101010C
:104E8000EC23000166510101ED230001675101018E
:104E9000EE23120054EC5FF091EC67F0C00E0001BD
:104EA000646FB90E656F98EC4EF082EC67F0F28E8D
:104EB000F28C010E0001616F120E606F83EC64F0E2
:104EC0000401FA6FFB6B010E0001616F130E606F3E
:104ED00083EC64F00401F96FF951FB27FA2902E130
:104EE000FB292CE02CEC0DF074C0F5F475C0F6F441
:104EF0000401F551FA1903E1F651FB192AE0C8EC57
:104F00002BF048D872EC4CF051D8D3EC60F0010E85
:104F10009CEC66F00401FC6BFD6BFCC460F0FDC40E
:104F200061F00001626984EC59F00401FC4BFD2B37
:104F3000140EFC5D010EFD590CE2EFD7C8EC2BF00E
:104F400029D872EC4CF032D8D3EC60F0010E9CEC16
:104F500066F026D884EC3FF042EC17F016EC58F0DF
:104F600060C0F7F461C0F8F477EC17F0D8A4200E15
:104F7000686FF7C469F0F8C46AF0C5EC46F011EC4C
:104F80005EF059EC5EF047EC65F09DEC37F0ABEC71
:104F900030F0F5D7E50E00016F6F040E706F120050
:104FA000F80E00016B6F070E6C6F1200E50E00012A
:104FB0006B6F040E6C6F12006051D96EDA6A0D0EC1
:104FC00060D8635186D80E0E5CD8D92A635181D837
:104FD0000F0E57D8020ED92663517BD80C0E51D82C
:104FE000030ED926635175D84350DF1A7F0E4364F0
:104FF0000CD01B0E43C061F0626BD89061376237F2
:105000006119646F6251656F05D0D8904334646F45
:10501000656B653764C043F06051D96EDA6A53D866
:10502000040E43D8D92A4FD8050E3FD8020E44D8D3
:10503000060E3BD8030E40D8070E37D8040E3CD8D6
:10504000080E33D8050E38D8090E2FD8060E34D8DE
:105050000A0E2BD8070E30D80B0E27D8080E2CD8E6
:105060000C0E23D8090E28D80D0E1FD80A0E24D8EE
:105070000E0E1BD80B0E20D80F0ED9266151DF1A49
:105080001200D926DF50616F626BC70E6125F66E84
:10509000F50E6221F76EF86A000EF8220800F5CFCF
:1050A00063F06051D96EDA6A1200D9266151DF1AB5
:1050B0006051D96EDA6A1200D926DF50616F6051F3
:1050C000D96EDA6A1200DF50616F6051D96EDA6A08
:1050D0001200DF1A6051D96EDA6A1200010E000167
:1050E000EF6F7ED85AD862EC5DF0000943E06AD8D1
:1050F00054D862EC5DF000093DE072D853D839EC29
:1051000024F07551F06F5ED84DD839EC24F075510C
:10511000F16F66D8DECFEDF05CD84ED816EC58F0C3
:10512000020E6019611126E1F05108E163D858D8E8
:105130005CD8CFEC44F0605161111CE143D8DECF64
:10514000EDF047D839D816EC58F0020E601961110D
:1051500011E1F15108E14ED835D847D8CFEC44F0F1
:105160006051611107E1F1C062F0F05172EC63F03F
:105170000001EF6BEF51A1EC40F0DECFEDF0DDCFA1
:10518000EEF020EE06F0EB51D926EC51DA22EDC01C
:10519000DEFFEEC0DEFFDD6A1200DECF66F0DDCF9F
:1051A00067F01200DECF75F0DDCF76F0776B786BAD
:1051B0007A6B100E796F100C60516111D8A4200E1B
:1051C000626F120020EE02F0EB51D926EC51DA2288
:1051D0001200DDCFEEF0EDC060F0EEC061F0120025
:1051E000EBC0D9FFECC0DAFF1200DECF62F0DDCFFA
:1051F00063F012004D0E606FFF0E616F1200E652F9
:10520000030103B176D0020E121902E169EC64F0D9
:105210000301CB51C95D4FE334EC4BF0596E0D0ED9
:105220005926FF0E59C0E3FFE3504F6E506A030149
:10523000C6514F5CC75150582EE3010EE6EC21F0E9
:10524000000925E15FD8BEEC1DF063D820E1030121
:10525000D6EC36F0CB2BCBB1A7EF5CF0D15102E10D
:10526000A7EF5CF0CB514F6E506AC951586E596A26
:10527000582A000E59224F50581805E1505059181D
:1052800002E1A7EF5CF0F7EC40F0A7EF5CF067EC11
:1052900050F0A7EF5CF068EC66F03050311002E19E
:1052A000A7EF5CF02AD8040E9C6F02D8A7EF5CF041
:1052B0000500FA6E17D0CB51C95D02E3A7EF5CF091
:1052C00003B1A7EF5CF068EC66F03050311002E1FA
:1052D000A7EF5CF0000E11D89C6B02D8A7EF5CF032
:1052E0000500FA6E3050FD6E3150FE6EFF6AFA50C6
:1052F000120068EC66F0A7EF5CF00001996B9A6B06
:105300009B6B12001A0E886F0A0E896FC6C38AF053
:10531000120088C04FF089C050F04F50501012005A
:10532000B46BB56BA2390F0BB36F010EB46F31D0F4
:105330005BD85DEC3DF068D8A8EC61F0B56B75D832
:10534000B451AE6FAF6BAE3BAF3BF00EAF17AE518B
:105350000F0BAF13F00EAE17A0C0B0F0A1C0B1F0AC
:10536000AE51B027AF51B123B551B027000EB123D4
:10537000F00EB025E96EFF0EB121EA6EEF50B26F6C
:105380004CD8B219DF6EAA2BB52B0F0EB565D7D747
:10539000B42BB451B35DCCE24FD8D8B40F0C24D8A1
:1053A0005DEC3DF031D8A8EC61F0B56B18D03DD87C
:1053B000B351100DA0C0AEF0A1C0AFF0F350AE27B6
:1053C000F450AF23B551AE25E96E000EAF21EA6E61
:1053D000EF50B06F22D8B019DF6EAA2BB52B2CD8A6
:1053E000AE51B55DE4E31200A4C06BF0A5C06CF053
:1053F000A6C06DF0A7C06EF0B4C06FF0010E706F64
:10540000ADC071F0A3511200C60E8C6F020E8D6FED
:10541000A8C08EF0A9C08FF01200C60EB525E96EA7
:10542000EA6A020EEA22EF501200AA51AB25D96EA9
:10543000000EAC21DA6E1200A2C0AEF00F0EAE1755
:105440000F0C000120EE04F080D884D8EDC060F08D
:10545000EEC061F0DCEC28F016EC58F060C0F4F01F
:1054600061C0F5F0D890F531ED6FF431F06FEDC01B
:10547000F1F0030EF36FEBC0D9FFECC0DAFF99EC4B
:1054800048F06CC26BF06DC26CF06AC26DF06BC21A
:105490006EF062EC56F0EF6F20EE02F056D8E2ECC0
:1054A0003EF0F20E6F6F0CEC46F000092AE0F105B9
:1054B00028E2020EEF6125D020EE04F046D8CDECB4
:1054C00028F062EC5DF000091CE0F4C06EF0F5C05D
:1054D0006FF020EE04F039D8EAEC31F037EC30F020
:1054E000F4A102D0F04BF12BF2C0E2F0F80EE36F22
:1054F000070EE46FF0C0E5F0EF5178EC36F00001F4
:10550000F36FF35191EC48F025D820EE06F01DD84A
:10551000EDC0DEFFEEC0DEFFDD6A070EF319D8A492
:1055200012000301E951D8B41200000E000190EC02
:1055300006F078EC36F0000120EE06F006D814C232
:10554000DEFF15C2DEFFDD6A1200EB51D926EC51F9
:10555000DA221200DECFEDF0DDCFEEF0120083D8BC
:10556000DF50896F824B832B7ED8FF0EDE14856F50
:10557000FF0EDE14866FFF0EDE14876F000EDE1442
:10558000886F85C069F086C06AF087C06BF088C0FC
:105590006CF0640EF8EC0AF0F1EC55F069C085F09F
:1055A0006AC086F06BC087F06CC088F0030E82275B
:1055B000000E832358D8DF50846F824B832B895190
:1055C00079EC65F0000932E0895158EC55F08551CD
:1055D000751909E18651761906E18751771903E1BA
:1055E0008851781911E08951DAEC4CF08551751920
:1055F00009E18651761906E18751771903E188514F
:10560000781902E035D805E103019851DCEC08F087
:10561000DF8E84C062F00001895109EC4CF0000972
:1056200005E103019851DCEC08F0DF8C030198518F
:10563000DCEC08F0DFAE12D09851DCEC08F0DFAC07
:105640000DD0000115D805E1646B8951E1EC61F0E2
:1056500005D084C067F089516EEC60F082C082F0A2
:1056600083C083F0120082C0D9FF83C0DAFF12002A
:1056700085518611871188111200010E4A6E8CEC3B
:1056800025F04EC05AF04FC05BF050C05CF051C0E6
:105690005DF0CD38030B02E10F6A03D0CD38030B68
:1056A0000F6E106A0FC001F0026A036A010E046EE9
:1056B000056A012A01D066D8012EFDD702505A5C36
:1056C00003505B5804505C5805505D58D8B0120028
:1056D000CD38030B02E1116A03D0CD38030B116EF4
:1056E000126ACD38030B02E1136A03D0CD38030BE5
:1056F000136E146A11C001F002680368046A056A37
:10570000012A01D03FD8012EFDD75A500214066E4F
:105710005B500314076E5C500414086E5D50051452
:10572000096E13C00AF00B6A0C6A010E0D6E0E6A48
:105730000A2A05D0D8900B360C360D360E360A2EB6
:10574000F9D706500B5C346E07500C58356E085074
:105750000D58366E09500E580BD85AEC2DF04EC02D
:10576000EBF14FC0ECF150C0EDF151C0EEF1120081
:10577000376E34C0E6FF35C0E6FF36C0E6FF37C0FF
:10578000E6FF1200D89002360336043605361200C2
:105790000301E20502E131EC55F0340E0301E76F3D
:1057A000E75139EC67F0030172D8CF69D06B74D838
:1057B000C66BC76BC5EC06F0CAEC06F0C46BC56BD4
:1057C000CE6B010ECD6FC26BC36BE06BE16B64D827
:1057D000986B996B03955BD8006B016B070EC96FD3
:1057E000C86B010ECB6FCA6FD269126B42D877ECCF
:1057F0001FF074EC5CF0050ED36FA00E186F700EE6
:10580000196F080E1A6F370E1B6F080E1C6FD16BC5
:105810004AEC44F00301966B1D0E0001606F030E0D
:10582000A2EC56F0690E646F59EC60F000EC5CF08D
:10583000070E896FD00E886F130E8B6F880E8A6FDC
:10584000170E8D6F700E8C6F070E936FD00E926FC8
:10585000200E956F400E946F8F6F8E6B916F906BD3
:10586000E86B0001896B886BD6EC2CF0010E11EF10
:1058700067F0290E0001796F0B0E7A6FA00E7B6F17
:10588000700E7C6F080E7D6F370E7E6F370C026BCB
:10589000036B046B056B1200BA6BBB6BBC6BBD6B0F
:1058A00012007FD8DF507B6F754B762B7AD8FF0EB6
:1058B000DE14776FFF0EDE14786FFF0EDE14796F43
:1058C000000EDE147A6F77C069F078C06AF079C094
:1058D0006BF07AC06CF0640EF8EC0AF0F1EC55F065
:1058E00069C077F06AC078F06BC079F06CC07AF06C
:1058F000030E7527000E762377C069F078C06AF032
:1059000079C06BF07AC06CF006EC4EF0000905E14E
:1059100003019851DCEC08F0DF8600017B510F0B8E
:105920004FEC64F0000905E103019851DCEC08F04C
:10593000DF8800017B39070B0BEC66F0000905E1FD
:1059400003019851DCEC08F0DF8A03019851DCEC8C
:1059500008F0DFA81FD09851DCEC08F0DFA61AD0C1
:105960009851DCEC08F0DFAA15D000017B39070B59
:105970000301E16F77C060F078C061F079C062F038
:105980007AC063F000017B510F0B646F1BEC65F074
:105990000301038F010E496E75C075F076C076F075
:1059A000010C75C0D9FF76C0DAFF120088C069F01B
:1059B00089C06AF06B6B6C6BE80E6D6F030E33EC95
:1059C0000BF0F1EC55F069C0BEF36AC0BFF36BC0D9
:1059D000C0F36CC0C1F3885189111DE10301D95195
:1059E00018EC62F0030103950001926B0ED0925106
:1059F0007CEC18F0020EDE1806E192517CEC18F0F7
:105A0000DF68030198070001922B03019851000100
:105A1000925DEDE312000301038502A91200C1515A
:105A200003E112EC3AF00BE308EC3AF003EC3AF045
:105A3000EFEC47F00C0E38D8E82EFDD71DD0BEC3D2
:105A40008AF0BFC38BF0C0C38CF0C1C38DF00C0EC5
:105A5000D89000018A378B378C378D37E82EF8D7EE
:105A60008AC060F08BC061F08CC062F08DC063F0C2
:105A700056EC23F0EFEC47F060C08EF061C08FF081
:105A800062C090F063C091F08EC06DF08FC06EF078
:105A900090C06FF091C070F00301D9511BEC57F02A
:105AA0000301D9518FEF45F0D890603761376237E5
:105AB00063371200E652E652E652E6524AEC46F0EE
:105AC0004EC07EF24FC07FF250C080F251C081F2D2
:105AD0004AEC46F04EC056F04FC057F050C058F058
:105AE00051C059F002018151591808E180515818EC
:105AF00005E17F51571802E17E515618E9E0CD3893
:105B0000030B03E1C2EC1AF004D0B0EC1AF0BBECCA
:105B10001AF0F80EE3CF56F0F90EE3CF57F0FA0E75
:105B2000E3CF58F0FB0EE3CF59F0FE0EE350E82A26
:105B300005D0D8905932583257325632E82EF9D71C
:105B400056C04FF057C050F04FC0E6FF50C0E6FFC0
:105B5000D8EC5FF0CD38030B03E1D1EC1AF004D0A0
:105B6000B0EC1AF005EC26F0FC0EE3CF59F0010E74
:105B7000566E576A592A03D0D89056365736592E42
:105B8000FBD756C052F057C053F0000E53BEFF0E65
:105B9000546E556E525002017E2753507F2354504D
:105BA0008023555081237EC24EF07FC24FF080C2C9
:105BB00050F081C251F0F80EADEF26F0B80EF66E3F
:105BC000B00EF76E000EF86E04EEA0F020EE45F079
:105BD0000900F5CFEEFFDD50D950FAE1700EF66EF8
:105BE000CC0EF76E000EF86E03EEEEF020EE10F025
:105BF0000900F5CFEEFFDD50D950FAE17C0EF66ECC
:105C00008E0EF76E000EF86E02EE00F020EE76F0CB
:105C10000900F5CFEEFFDD50D950FAE1200EF66E07
:105C2000C70EF76E000EF86E01EECAF020EE1DF002
:105C30000900F5CFEEFFDD50D950FAE1BE0EF66E49
:105C4000CF0EF76E000EF86E00EE5AF020EE04F064
:105C50000900F5CFEEFFDD50D950FAE105EEB0F0C6
:105C600026EE78F0EE6ADD50D950FCE1DA50FAE128
:105C700005EE00F0B00EEE6AE806FDE104EE00F07D
:105C8000A00EEE6AE806FDE103EE00F0EE0EEE6A0D
:105C9000E806FDE102EE76F0710EEE6AE806FDE13F
:105CA00001EEE7F00E0EEE6AE806FDE100EE29F0E7
:105CB000250EEE6AE806FDE100014AEF27F000013B
:105CC000606B030E616F626B636B48EC5DF0200EDE
:105CD0000001ED6F290EE82EFED7ED2FFCD700D086
:105CE000200E0001ED6F290EE82EFED7ED2FFCD718
:105CF00000D0200E0001ED6F290EE82EFED7ED2F0B
:105D0000FCD700D0200E0001ED6F290EE82EFED743
:105D1000ED2FFCD700D0200E0001ED6F290EE82EEC
:105D2000FED7ED2FFCD700D0200E0001ED6F290E1D
:105D3000E82EFED7ED2FFCD700D0200E0001ED6F2E
:105D4000290EE82EFED7ED2FFCD700D0200E000143
:105D5000ED6F290EE82EFED7ED2FFCD700D0200ED8
:105D60000001ED6F290EE82EFED7ED2FFCD700D0F5
:105D7000200E0001ED6F290EE82EFED7ED2FFCD787
:105D800000D0200E0001ED6F290EE82EFED7ED2F7A
:105D9000FCD700D0200E0001ED6F290EE82EFED7B3
:105DA000ED2FFCD700D0FF0012000001E66B16ECCF
:105DB00012F059EC60F01F0EE517FC0EE517E30E2C
:105DC000E5172AEE0AF0E5C0DFFFE62BE76BE751A7
:105DD0005908D96E000ED8A0E82A030844D8E76510
