:040000000CD0000020
:020008007FD1A6
:100018007FD194908B80730ED36EF86A030EF76EBF
:10002800000EF66EFC0E0B6EFE0E0A6E15EC01F05D
:10003800FE0EF66EFF0EF76E0900F550001804E18B
:100048000900F55001184AE03CD80400ACA2FDD7DD
:10005800B880B8A005D0B8AEFCD7B890B89EF5D790
:10006800AE50AE5000EE09F0090E026E22D80550CF
:10007800EE6EE9500B0A0BE10950020A06E009503E
:10008800050A03E00950070A02E10A500226022E77
:10009800EDD726D8026E550E07D800EE09F0EE50BF
:1000A80003D8022EFCD7D1D704009EA8FDD7AD6E89
:1000B80012000400ABB2FF009EAAFED7AE50056E38
:1000C80012008B8C948C948E0F013A9D3A9F900E5F
:1000D800AB6E260EAC6E080EB86E12008B900CD16B
:1000E8000E50F66EA96E0F50F76E10C0F8FF00EEB6
:1000F80012F00A50026E0950090803E2FF0E096E59
:10010800010CFB6A010EFA6E09441A0FD8B0FA2ADC
:10011800F96E09D044D04BD05AD064D06DD03FD0BE
:1001280076D07FD0FF00010E126E010E136E146A96
:10013800156A166A176A3F0EF86EFF0EF76EFE0E06
:10014800F66E0900F5CF18F00900F5CF19F01A6A14
:100158001B6A400E1C6E400E1D6E200EF86EF76A6C
:10016800F66A0900F5CF1EF009001E38F5101E6E5C
:100178000900F5CF1FF009001F38F5101F6E0900A0
:10018800F5CF20F009002038F510206E0900F5CFD2
:1001980021F009002138F510216E190E120009000E
:1001A800F5CFEEFF022EFBD70A50090F1200EECF53
:1001B800F5FF0D00024E03D0F6503F0BF8E10A00A0
:1001C800840EA66E49D809000252F1E141D0940E7E
:1001D800A66E42D8400EF626E86AF722F822022ECA
:1001E800F6D736D0A66AA680A8CFEEFFA92A022E97
:1001F800F9D70A50090F1200EECFA8FF040EA66E19
:100208002BD8A6B2FED7A92A022EF6D721D0C40E23
:10021800A66EEECFF5FF0C001FD80900022EF7D707
:1002280017D0006A016A0A900A52D8A40B2A09005A
:10023800F55000260900F5500122020E0A5EF7E18A
:100248000B2EF5D700C0EEFF01C0EEFF0B0E12001B
:10025800010E126E0A0E120004000C50A76E0D500B
:08026800A76EA682000012003F
:10030000DFEF01F0FFFFFFFFFACF2AF0FBCF2BF06A
:10031000E1CF2CF0E2CF2DF0D9CF2EF0DACF2FF0B5
:10032000F3CF30F0F4CF31F01DEEBEF0F2BC9DA063
:1003300005D09EA003D0BAEC6CF030D0F2BC9DAAE0
:1003400005D09EAA03D00BEC52F028D0F2BC9DA899
:1003500005D09EA803D0F7EC65F020D0F0B6F0A051
:1003600003D00BEC6EF01AD0F0B8F0A203D008EC7A
:100370006EF014D0F2B6F2A003D0A4EC6CF00ED064
:10038000F2BC9DA605D09EA603D080EC22F006D03C
:10039000F2BCA0A603D0A1B63AEC6EF031C0F4FFD7
:1003A00030C0F3FF2FC0DAFF2EC0D9FF2DC0E2FF0F
:1003B0002CC0E1FF2BC0FBFF2AC0FAFF11001DEE8D
:1003C00000F051EF31F002EC6EF02BEEF9F0DFB0FF
:1003D000C3D393EC06F001017C6F7C39E832070B44
:1003E000E80601E0B3D02CEE13F0DF5001E0AED010
:1003F0000001F1050101826F1DD00001F151EF25CF
:100400000101666F000E0001F0210101676F82514A
:10041000665D00018C6F01016751D8A0670500017E
:100420006CEC53F03EEC68F0100E826502D0825FF7
:1004300001D0826B8251E1E1380E0001D76F0C0EC2
:10044000D86FEFC0D9F0F0C0DAF0F151FC0FDB6FDC
:10045000D6EC56F0D7C085F1D8C086F1D9C087F167
:10046000DAC088F16CEC06F055EC5FF0C2DB855128
:100470007D1909E186517E1906E187517F1903E153
:10048000885180191DE0A9DB050A07E0A6DB030AF5
:100490000CE12CEEFBF0DF5008E02BEEF8F0DFB8BB
:1004A00003D09BEC65F001D093DB08CCE8FF020A97
:1004B000D8A41200F4EC15F00909DF6EDBEF52F05E
:1004C0008CDB030A04E136EC09F083EC6CF0EFC03E
:1004D00089F1F0C08AF1010120EE07F0A1EC06F0ED
:1004E000DECF14FCDECF15FCDECF16FCDDCF17FC13
:1004F00020EE0CF0A1EC06F0DF500F0BAEEC5BF041
:1005000099EC06F0DF38070B0001606F99EC06F0FC
:10051000DF500F0BCEEC68F089C19EF08AC19FF0CE
:10052000F151FEEC28F089C1A0F08AC1A1F040ECA5
:1005300053F0E66ADFEC37F0000E5CEC22F04AEC98
:1005400022F008CCE8FF020AB5E012007C39E8325C
:10055000070B030A07E07C39E832070B050A02E0C3
:100560007FEF49F0000EE8CFA1FCEFC090F1F0C0A2
:1005700091F108CCE8FF020A01E011D12CEE58F00D
:1005800000EE01F09DDBEE1809E1DE50EE1806E109
:10059000DE50EE1803E1DE50EE18D8A400D12BEEA9
:1005A000FAF0DFA4FCD090C160F091C161F07CEC66
:1005B00055F0000901E17ED70101FEDAEBDB2CEEFC
:1005C00004F0F2DB05E306CC8EF107CC8FF104D00A
:1005D0002CEE06F088DBD8DB2FDB010E716F23ECED
:1005E0003FF05BDBFFDA100E646F81EC56F015DB39
:1005F00081EC56F05C0EC86F0C0EC96FCD0E2BDB74
:100600003EEC13F04EDBEEDA040E646F81EC56F034
:1006100063DB55EC5FF0EDDA7D5185190BE17E511E
:10062000861908E17F51871905E18051881901E099
:1006300041D701D03FD72CEE04F000EE06F040DBAE
:10064000EE5CDE50EE581CE32CEE04F04CDBB4DA2A
:1006500061DB2CEE98F0B2DB0DE2BB51BC1101E185
:1006600029D7F9EC15F0050EC56F01D823D7050081
:10067000FA6E8DD0A1DADECF04FCDDCF05FC2DD0E3
:100680002CEE98F000EE06F09051E9269151EA2206
:10069000EECF68F1EDCF69F10CEE04F0EECF6AF128
:1006A000EDCF6BF16A1D6C6F6B1D6D6F68516C2720
:1006B00069516D23DE506C5DDE506D590AE2000E0B
:1006C000E8CF04FCE8CF05FC2CEE06F0DE2ADD22A4
:1006D00004D0BB51BC11C5E1EDD62CEE04F0DE28F0
:1006E00007E1DE2805E1DE2803E1DE2801E1F1D79C
:1006F00074DA080A08E17BEC1FF083EC6CF02EDB67
:1007000083EC6CF006D069DA030A03E127DB83ECA3
:100710006CF034DB58DA47DAF4DA03E1675169192F
:1007200020E001DB796F0001EF4BF02BF151F40F6A
:1007300001018B6F190E816F66DA04CCA4F005CC31
:10074000A5F006CCA6F007CCA7F06C0EA86F0C0E97
:1007500090DA010EAD6FABEC2CF0FF0EEF25F6DA60
:1007600001D031DB2BEEF9F0DF8232DABB51BC1164
:1007700001E1A0D683C1C2F084C1C3F08BC1C4F033
:10078000010E0001C56F01D895D60500FA6E010172
:10079000BB51FD6EBC51FE6EFF6AFA5012002CEE8A
:1007A00014F000EE01F08CDAEE1809E1DE50EE18DC
:1007B00006E1DE50EE1803E1DE50EE1802E07FEFB6
:1007C00049F0FAD9E7DA2CEE00F0EEDA05E302CCD4
:1007D0008EF103CC8FF104D02CEE02F084DAD4DA5F
:1007E0002BDA716B010E23EC3FF057DAFBD9100EB8
:1007F000646F81EC56F011DA81EC56F00EEC13F0D8
:100800002ADA3EEC13F04DDAEDD9040E646F81EC78
:1008100056F062DA55EC5FF0ECD97D5185190CE1A8
:100820007E51861909E17F51871906E180518819A7
:1008300002E07FEF49F002D07FEF49F02CEE00F0AC
:1008400000EE06F03DDAEE5CDE50EE5826E32CEECC
:1008500000F049DAB1D95EDA2CEE96F0AFDA1AE29E
:10086000B4EC49F0B5D9BB51BC1111E0B0EC49F082
:10087000F9EC15F0C56B01D80AD00500FA6E01013C
:10088000BB51FD6EBC51FE6EFF6AFA501200BCEC0B
:1008900049F052D091D983DA41D02CEE96F023DA88
:1008A0006651686F6751696F6A6B6B6B2CEE00F075
:1008B000DECF6CF1DDCF6DF17FD9DECF6EF1DDCF14
:1008C0006FF16C516E5D706F6D516F59716F726B1E
:1008D000D8A072077251736FFF0E7025746FFF0EF0
:1008E0007121756F000E7221766F000E7321776F84
:1008F0006851745D695175596A5176597751800A0A
:10090000786F6B51800A785902E37FEF49F054D930
:1009100046DA2CEE02F0DE2A000EDD22D96BD86B0F
:10092000DF6BD66B2CEE00F0DE280AE1DE2808E152
:10093000DE2806E1DE2804E12BEEFAF0DF8201D6A4
:100940004CD9030A03E10ADA83EC6CF0010EE8CF1C
:10095000E2FC90C160F091C161F0B3EC59F001018B
:1009600022D91FE020D99025666F000E9121676F74
:10097000080E6625D96E000E6721DA6EDF5012E090
:10098000080E90250001A76F000E010191210001C2
:10099000A86F010108D90001A96F07EC1BF009DA63
:1009A00001D0ECD900010FD9FED8ABD903E16751D2
:1009B000691947E0B8D9796F0001EF4BF02B0101BD
:1009C000F2D8666F66510001F15DF40F01018B6F83
:1009D000EAD8190F816F79510CE015D989D92DEC1E
:1009E00013F047D9AD6BABEC2CF0FF0EEF25AED971
:1009F00029D00001E8D8D7D8686F696B0D0E682739
:100A0000000E69236651685D6951800A6A6F6751FB
:100A1000800A6A5915E2F7D86BD929EC13F029D965
:100A2000AD6BABEC2CF00101BED80AE1EFC0A7F032
:100A3000F0C0A8F08B050001A96F07EC1BF0B9D935
:100A40000101C1D978EC6BF041D9E8CFF8FC2BEE6D
:100A5000F6F0DF982BEEF9F0DF822BEEF6F0DFA058
:100A600043D020EE05F09051D9269151DA22DFAA29
:100A700038D02BEEF6F0DF90010E7B6FA9D8BB517A
:100A8000BC110CE0FED801D809D00500FA6EBB51AC
:100A9000FD6EBC51FE6EFF6AFA5012002BEEF9F0AB
:100AA000DF922BEEF8F0DFAA4BD02BEEF6F0DFBA98
:100AB00047D02BEEF6F0DFB204D02BEEF6F0DFA637
:100AC0003FD0F3D8D3EC40F0000908E1000E51D933
:100AD00019EC39F02BEEF6F0DF9632D0E8EC2FF07F
:100AE0002FD0D4EC53F02CD0010E7B6F71D8BB51BA
:100AF000BC110CE0C6D801D809D00500FA6EBB5174
:100B0000FD6EBC51FE6EFF6AFA5012002BEEF8F03B
:100B1000DFAA16D02BEEF6F0DFBA12D02BEEF6F0ED
:100B2000DFB204D02BEEF6F0DFA60AD0BED8D3ECAD
:100B300040F00009D3E1000E1CD919EC39F0CAD7F6
:100B400008CCE8FF020AD8A41200FFEC6DF0010106
:100B5000666F66B11200AED40101BB51BC11D8B4AE
:100B60001200FFEC6DF00101666F66B70ED0FAD887
:100B7000030E0001C56F0500FA6E0101BB51FD6E49
:100B8000BC51FE6EFF6AFA501200ECD8020E000152
:100B9000C56F0500FA6E0101BB51FD6EBC51FE6EC2
:100BA000FF6AFA50120020EE05F09051D9269151BB
:100BB000DA22DF500F0B120020EE06F09051D926FA
:100BC0009151DA221200F1510101666F676B120038
:100BD0002BEEF8F0F00EDF16F00C2BEEF8F0DF50F5
:100BE0000F0B1200616FCD0E626F020E636F656BAB
:100BF00012006BC07DF16CC07EF16DC07FF16EC0E4
:100C000080F101011200EFC0A0F0F0C0A1F08B054F
:100C10000001A26F010EA36F010CE80E606F090EB8
:100C2000616FEFC062F0F0C063F0FC0EF125646FFD
:100C3000656BFF0E6523FF0C8CC16BF08DC16CF0F2
:100C40008EC16DF08FC16EF00001F151FC0F6F6F1E
:100C5000490E706F490CCA6F020ECB6FD80ECC6F65
:100C6000090ECD6F0C0EF125CE6FCF6B000ECF238A
:100C7000000CA96F81C1AAF0D80EAB6F090EAC6F42
:100C800012002BEEF6F0DF9A83C1C2F084C1C3F0EC
:100C90008BC1C4F07BC1C5F01200D80E606F090E85
:100CA0001200850E606F010E1200010E0001A76F89
:100CB0007A0EA86F010EA96F2CEEF7F0DF5012002C
:100CC0009051E9269151EA22DE501200000EE8CF41
:100CD000DAFCE8CFDBFC000CEFC06BF0F0C06CF08E
:100CE000F1C06DF01200DECF66F1DDCF67F11200CA
:100CF00000CCA4F001CCA5F002CCA6F003CCA7F068
:100D00001200686F696B0C0E6827000E692366512C
:100D100068191200DECF68F1DDCF69F16651685FB6
:100D20006751695B1200EFC0D9FFF0C0DAFFDF50F6
:100D30001200010120EE0BF08951D9268A51DA22E6
:100D400012008951D9268A51DA2212000101836FDB
:100D5000FF0E0001F0210101846F12002CEEEFF074
:100D6000DF501200EFC0C2F0F0C0C3F0F1C0C4F019
:100D70001200E56FE66FE76FE86F1200080E0001E2
:100D8000EF27000EF023000C66298E6F000E6721FE
:100D90008F6F1200DECF8CF1DDCF8DF11200DECF30
:100DA00000FCDDCF01FC1200DE508C5DDE508D5961
:100DB0001200A7C0EFF0A8C0F0F012006851DE5C8E
:100DC0006951DE5812008B6B836B846B12002BEE23
:100DD000F9F0DFB0D5D10001E76BE86BE96BEA6BA6
:100DE000EB6BF469F569F669F769000EE8CFFBFC77
:100DF000F4EC15F00209DF6E2BEEF6F0DFA477D0ED
:100E00002CEE92F01CDA2CEE0DF0E2D91AEC4DF03B
:100E10001BDA7FEC1FF0F5EC61F02CEE94F00FDAAA
:100E20002CEE12F0D5D91AEC4DF00EDA1FDAF5ECF3
:100E300061F07FEC1FF0D6EC51F018DAD6EC51F0EF
:100E400028EEC2F0DE50DE102FE02CEEE5F0F7D9F0
:100E500015DA946B956B640E00DAD4EC5BF0FF0E40
:100E60009225F06FFF0E9321F16FFF0E9421F26F28
:100E7000FF0E9521F36FF0C092F0F1C093F0F2C035
:100E800094F0F3C095F0D4C096F0D5C097F0986B6D
:100E9000996BD4EC5BF092C0C4F893C0C5F894C0D1
:100EA000C6F895C0C7F846D028EEC2F0C8D9D651CA
:100EB000D86FD751D96FDA6BDB6BD829926F000EE0
:100EC000D921936F000EDA21946F000EDB21956F0C
:100ED0002CEEE5F0DECFDCF0DDCFDDF0DCC096F00F
:100EE000DDC097F0986B996BD4EC5BF0B8D72CEE23
:100EF0008EF0A5D92CEE0DF06BD91AEC4DF0A4D9DB
:100F00007BEC1FF0F5EC61F02CEE90F098D92CEE14
:100F100012F05ED91AEC4DF097D9AEEC06F0F5EC74
:100F200061F07BEC1FF0D6EC51F0AEEC06F0D6ECA5
:100F300051F0BAD797D966EC6BF0000960E092D90E
:100F400083EC6CF08FD9B8EC63F089C0ECF08AC008
:100F5000EDF08BC0EEF08CC0EFF0EF5107E11F0E0B
:100F6000EC5DAC0EED59DF0EEE591BE3ECC0D6F094
:100F7000EDC0D7F0EEC0D8F0EFC0D9F00D0E05D01F
:100F8000D890D933D833D733D633E82EF9D776D99A
:100F9000D8C094F0D9C095F07D0E5FD9D4EC5BF049
:100FA00012D0ECC092F0EDC093F0EEC094F0EFC020
:100FB00095F07D0E52D9D4EC5BF00D0E02D058ECBA
:100FC0001FF0E82EFCD792C0DFF093C0E0F094C091
:100FD000E1F095C0E2F0D2CCD6F0D3CCD7F0D4CCAF
:100FE000D8F0D5CCD9F0DF51D65DE86FE051D759B4
:100FF000E96FE151D859EA6FE251D959EB6FF86BBB
:10100000F8516AEC1EF02DEC3CF056E1F8510FD986
:1010100056EC1EF051E02CEEE4F0F851DE1830E012
:10102000F85105D9DE50E85DDE50E959DE50EA5945
:10103000DE50EB5921E2F851FAD8DECFD6F0DECF00
:10104000D7F0DECFD8F0DECFD9F0E851D65DDA6F39
:10105000E951D759DB6FEA51D859DC6FEB51D959B7
:10106000DD6FF851E4D8DAC0DEFFDBC0DEFFDCC0A4
:10107000DEFFDDC0DEFF04D0F851D9D8A8EC29F09E
:10108000F851D5D8DE50F45DDE50F559DE50F659F2
:10109000DE50F75911E3F851CAD856EC1EF00CE0B7
:1010A000F851C5D8DECFF4F0DECFF5F0DECFF6F0A4
:1010B000DECFF7F0010EE76FF82B0F0EF865A0D723
:1010C000E70554E1F4C0D2FCF5C0D3FCF6C0D4FC73
:1010D000F7C0D5FCF75106E1F429FF0EF5590F0EC4
:1010E000F65912E3F4C060F0F5C061F0F6C062F0AA
:1010F000F7C063F0EEEC15F01AEC4DF00C0E44EC7A
:1011000024F0E82EFCD71CD0F4C0D6F0F5C0D7F000
:10111000F6C0D8F0F7C0D9F00C0ED890D637D73734
:10112000D837D937E82EF9D7D6C060F0D7C061F0EC
:10113000D8C062F0D9C063F0EEEC15F01AEC4DF0B7
:1011400060C0E3F061C0E4F062C0E5F063C0E6F0C7
:10115000E3C06DF0E4C06EF0E5C06FF0E6C070F083
:1011600081D8F5EC61F07ED8D6EC51F0B8EC49F0BE
:10117000D8A41200F4EC15F00809DF6EDBEF52F092
:10118000FFEC6DF00001D66FD6A911D073D8D8B49A
:101190001200F9EC15F0020EC56F0500FA6E0101A0
:1011A000BB51FD6EBC51FE6EFF6AFA50120062D850
:1011B000D8B41200F9EC15F0030EC56F0500FA6EF5
:1011C0000101BB51FD6EBC51FE6EFF6AFA50120068
:1011D000DF50D86FD96BAD0ED825F66EF60ED9213B
:1011E000F76EF86A000EF8220800F5CFDAF0D65153
:1011F000DA25DB6F000EDABFFF0ED721DC6FDD6B67
:10120000DE6B0C0ED890DB37DC37DD37DE37E82EAF
:10121000F9D7DBC060F0DCC061F0DDC062F0DEC099
:1012200063F07D0E646F656B666B676B7D0C120DF2
:10123000C40EF324D96E080EF420DA6E1200DECF4D
:10124000D6F0DDCFD7F0120060C06DF061C06EF057
:1012500062C06FF063C070F01200966F976B986B6E
:10126000996B12002CEEF3F0DF5012002CEEEDF033
:10127000DF5012000101BB51BC111200D6C092F028
:10128000D7C093F01200806B816B796B7A6B010E83
:101290000001616FB70E606F626936EC5FF0010E9E
:1012A0000001616FB80E606F626936EC5FF0B4ECFC
:1012B0006DF01EDA7927000E7A230001616B606BF6
:1012C0007BC162F036EC5FF00101804B812B7C0E1C
:1012D0000001606F010E616F7B0E626F010E636F24
:1012E00011EC67F001017B51F2D936EC5FF001019E
:1012F000804B812B826B030E826501D005D0B7D95C
:1013000036EC5FF0F9D9F7D790C27CF191C27DF14C
:101310007E6B7F6B7D517927E4D97DC162F036EC1D
:101320005FF00101804B812B7C517927DAD97CC198
:1013300062F036EC5FF00101804B812BBCEC6DF06C
:101340007B6F7B51C4D936EC5FF00101804B812B60
:1013500020EC6CF060C07CF161C07DF162C07EF178
:1013600063C07FF1826B030E826501D005D07FD907
:1013700036EC5FF0C1D9F7D73BEC6CF060C07CF184
:1013800061C07DF162C07EF163C07FF1826B030EAC
:10139000826501D005D06BD936EC5FF0ADD9F7D7B7
:1013A000660E00016B6F010E6C6FC4EC6AF00101F8
:1013B000826B070E826501D005D071D936EC5FF0E3
:1013C0009BD9F7D7660E00016B6F010E6C6FB9ECFD
:1013D00069F00101826B070E826501D005D05FD9EB
:1013E00036EC5FF089D9F7D7660E00016B6F010EFE
:1013F0006C6F45EC6BF00101826B0F0E826501D0C2
:1014000005D04DD936EC5FF077D9F7D7660E0001DD
:101410006B6F010E6C6F2FEC6BF00101826B0F0E86
:10142000826501D005D03BD936EC5FF065D9F7D79E
:10143000660E00016B6F010E6C6F3AEC6BF00101F0
:10144000826B0F0E826501D005D029D936EC5FF092
:1014500053D9F7D744EC6CF060C07CF161C07DF1EA
:1014600062C07EF163C07FF1826B030E826501D0A2
:1014700005D0FDD836EC5FF03FD9F7D7660E0001F6
:101480006B6F010E6C6F7DEC69F00101826B0F0ECA
:10149000826501D005D003D936EC5FF02DD9F7D79E
:1014A000660E00016B6F010E6C6F6EEC69F001014E
:1014B000826B0F0E826501D005D0F1D836EC5FF05B
:1014C0001BD9F7D732EC6CF060C07CF161C07DF1C4
:1014D00062C07EF163C07FF1826B030E826501D032
:1014E00005D0C5D836EC5FF007D9F7D740EC6DF0E2
:1014F0007B6F7B51ECD836EC5FF00101804B812B88
:10150000786B010E786501D01DD07851B7EC67F08B
:10151000EFD8DDD836EC5FF00CD9BDEC68F0E8D838
:10152000D6D836EC5FF005D93FEC65F0F1D8030E64
:10153000826501D005D09BD836EC5FF0DDD8F7D7B7
:10154000782BDFD7786B1D0E786501D03AD07851B3
:10155000020F13EC6AF060C07CF161C07DF162C0E3
:101560007EF163C07FF10101826B030E826501D0C1
:1015700005D07DD836EC5FF0BFD8F7D77851020F91
:101580003FEC65F0C5D8030E826501D005D06FD859
:1015900036EC5FF0B1D8F7D77851020FBDEC68F0A8
:1015A000A7D895D836EC5FF0C4D8020FB7EC67F037
:1015B0009FD88DD836EC5FF00101804B812B782BC2
:1015C000C2D7B8EC6DF07B6F7B5181D836EC5FF001
:1015D0000101804B812B4AEC6DF07B6F7B5177D8FA
:1015E00036EC5FF00101804B812B98EC6DF07B6F46
:1015F0007B516DD836EC5FF00101804B812B36ECCE
:101600006DF060C076F161C077F1826B010E82658A
:1016100001D00AD086D8792764D883D80001626FB8
:1016200036EC5FF069D8F2D7792904E17A2902E132
:10163000796B7A6B80C160F081C161F079C162F031
:1016400036EC5FF00101804B812B80C160F081C1DD
:1016500061F07AC162F036EC5FF00101804B812BC2
:10166000000120EE06F0EF51D926F0514AD07C0E51
:101670008225D96EDA6A010EDA22DF507927000E50
:101680007A2380C160F081C161F07C0E8225D96E21
:10169000DA6A010EDA22DF500001626F1200660E74
:1016A0008225D96EDA6A010EDA22DF507927000E20
:1016B0007A2380C160F081C161F0660E8225D96E07
:1016C000DA6A010EDA22DF500001626F1200792718
:1016D000000E7A2380C160F081C161F07BC162F0AD
:1016E000000C000E7A2380C160F081C161F0000C13
:1016F00001017B6F7B5112000101804B812B822BFA
:101700001200DA2200C2DEFF01C2DEFFDD6A120033
:1017100063C07CF164C07DF101017E6B7F6B826BE5
:101720001200760E8225D96EDA6A010EDA22DF50B7
:1017300012000101804B812B7851120069EC21F0DD
:101740004AEC38F022EC25F09DEC36F00201B15164
:101750007FEC39F00201AE0501E06DD1A4C262F068
:10176000390EE6EC69F0B8C2A0F0010E0001A01736
:101770000201D890B7350001A16F0201B039CDD96F
:101780001D0EE6EC69F09FC0A0F0030E0001A0174B
:10179000B2C2A1F0010EA117D890A137D890A137FD
:1017A0000201AF39BAD91E0EE6EC69F00201B4515C
:1017B000B51142E0B4C2A3F0B5C2A4F00001A56B1C
:1017C000A66B24D0A1D97D0E00012DEC09F0D4EC3C
:1017D0005BF011D099D9FA0E00012DEC09F0D4EC90
:1017E0005BF009D091D9F40E0001966F010E56EC12
:1017F0002EF0D4EC5BF092C0A3F093C0A4F094C0A0
:10180000A5F095C0A6F00BD08ED909D00201B05139
:10181000070AD8E00F0ADEE0010AE4E0F5D702018A
:10182000AF290001A06F05D0D890A633A533A4330B
:10183000A333A02FF9D701D076D9A3C062F0240E2C
:10184000E6EC69F09EC062F01F0EE6EC69F0260E31
:1018500064EC68F0A76F0C0E0201AF1906E1070EE9
:10186000B01909E0080EB01906E00B0EAF1906E139
:10187000070EB01903E10001A78702D00001A79766
:10188000A785A7C062F0260EE6EC69F0310E64EC85
:1018900068F0A76FF80EA717030EA71358D9E6EC48
:1018A00069F00A0E0001626F370EE6EC69F0120E65
:1018B0000201C71925E1070EB01903E0080EB0199F
:1018C00013E1310E64EC68F0A76FA79F40D9E6ECF6
:1018D00069F0400E0001626F2F0EE6EC69F0000126
:1018E000626B300EE6EC69F0090E0201B01908E1F6
:1018F000310E64EC68F0A76FA78F29D9E6EC69F088
:10190000330E64EC68F0A76FA79DA781B6C2A0F064
:10191000010EA017060EA16FD890A037A12FFCD7FB
:10192000A051A713A7C062F0330EE6EC69F0B6C26F
:10193000A0F0010E0001A017D890A037D890A035D4
:10194000FF0A1D0BA76FA7C062F03B0EE6EC69F023
:10195000F0D8200EE6EC69F0A2C262F0210EE6ECAF
:1019600069F0FBD8E6EC69F00001626B0E0EE6EC64
:1019700069F00001626B0F0EE6EC69F0120E0201D5
:10198000C71956E1090EB0191AE1800E965D130EC3
:101990009759610E9859330E995911E39605F70E30
:1019A0009759CB0E98593C0E995909E2020EC9D8A5
:1019B000E6EC69F0640EC2D8E6EC69F022D0090EBC
:1019C000B0191BE1800E965D1A0E9759700E98594A
:1019D000180E995912E3410E965DDD0E97594A0E85
:1019E00098591F0E995909E2020EABD8E6EC69F03E
:1019F0007F0EA4D8E6EC69F004D0030EA2D8E6EC82
:101A000069F0090E0201B0190BE1B60509E1650E96
:101A100095D8E6EC69F0190E97D8E6EC69F008D095
:101A2000650E8CD8E6EC69F01D0E8ED8E6EC69F0F8
:101A300091D8E6EF69F09AC26DF09BC26EF09CC23D
:101A40006FF09DC270F0C5EC54F09EC26DF09FC265
:101A50006EF0A0C26FF0A1C270F005EC54F069D82E
:101A6000250EE6EC69F0A2C262F0260EE6EC69F003
:101A70000A0E64EC68F0A76F9F0EA7170201CA391F
:101A8000E846E00B0001A713A7C062F00A0EE6ECDF
:101A900069F0C80E0001A76F0201B25102E0000117
:101AA000A789A7C062F0300EE6EC69F00001A26BD6
:101AB0000ED0A50EA225D96EDA6A020EDA22DF5008
:101AC000626FA251280FE6EC69F00001A22B02011F
:101AD000AD510001A25DEDE30201AD5108E0AD059D
:101AE00010090001626F270EE6EC69F005D00001D5
:101AF000626B270EE6EC69F0000162693E0EE6ECCF
:101B000069F02ED8E6EF69F0A3C092F0A4C093F07C
:101B1000A5C094F0A6C095F01200F00B0001A11131
:101B2000A011626F12000001A36BA46BA56BA66BE2
:101B300012000201A3510001626F12000001626FE6
:101B40003A0C0001626F360C0001626F3B0CA7C0BB
:101B500062F0310C00016269120C0001626B0D0C25
:101B6000000162693F0C0001CA6BCB6B616B606B5B
:101B7000B7EC6AF00001C56FCA4BCB2BC5C0C2F0F1
:101B8000C36BC5518EEC21F0E5D9B7EC6AF0C9D929
:101B9000CC6BD0D9B7EC6AF0A1D9CC65FAD7C6C066
:101BA00065F0C7C066F0C8C067F0C9C068F0C5C0BE
:101BB00069F063EC5DF0CED9B7EC6AF0B2D9C5C07C
:101BC000BCF0BD6BBC51BD6FBC6BC4D9B7EC6AF047
:101BD000A8D9C551BC27000EBD23BCC060F0BDC054
:101BE00061F06DEC6DF0BCC0C0F0BDC0C1F0B2D909
:101BF000B7EC6AF096D9C55186EC5DF00001CC6B6C
:101C000099D9B7EC6AF06AD9CC65FAD7C6C060F04A
:101C1000C7C061F0C8C062F0C9C063F068EC6CF086
:101C2000CC6B88D9B7EC6AF059D9CC65FAD7C6C065
:101C300060F0C7C061F0C8C062F0C9C063F071EC69
:101C40006CF0CC6BCC51AC0F7ED9B7EC6AF0DF6E88
:101C500053D9CC65F7D7C0A105D0AC0E6B6F6C6BB8
:101C6000B3EC64F0CC6BCC51AC0F6DD9B7EC6AF02F
:101C7000DF6E42D9CC65F7D7C0A305D0AC0E6B6F31
:101C80006C6B50EC67F0CC6BCC51AC0F5CD9B7EC03
:101C90006AF0DF6E000169D93CD9CC65F5D7C0A5E3
:101CA00005D0AC0E6B6F6C6B3BEC67F0CC6BCC5122
:101CB000AC0F49D9B7EC6AF0DF6E000156D929D9CB
:101CC000CC65F5D7C0A905D0AC0E6B6F6C6B9BECE7
:101CD00064F0CC6BCC51AC0F36D9B7EC6AF0DF6E48
:101CE000000143D916D9CC65F5D7C0AB05D0AC0EF1
:101CF0006B6F6C6B26EC67F032D91CD9B7EC6AF0CD
:101D0000EDD8CC65FAD7C0A70AD0C6C060F0C7C06E
:101D100061F0C8C062F0C9C063F09DEC6AF0CC6BA2
:101D2000CC51AC0F10D9B7EC6AF0DF6E00011DD9B1
:101D3000F0D8CC65F5D7C0AF05D0AC0E6B6F6C6B2F
:101D400031EC69F0CC6BCC51AC0FFDD8B7EC6AF03C
:101D5000DF6E00010AD9DDD8CC65F5D7C1A105D069
:101D6000AC0E6B6F6C6B21EC69F0F9D8E3D8B7EC73
:101D70006AF0B4D8CC65FAD7C0AD0AD0C6C060F05E
:101D8000C7C061F0C8C062F0C9C063F000EC6BF07E
:101D9000E1D8B7EC6AF0C5D8C55196EC5EF0000109
:101DA000C46B010EC46501D021D0D4D8B7EC6AF061
:101DB000B8D8C551010ED8B4000E656FC45198EC67
:101DC00062F0C8D8B7EC6AF0ACD8C5C066F0C451B0
:101DD00051EC64F0C4D8AED8B7EC6AF07FD8CC65CB
:101DE000FAD7C8D866EC66F0C42BDBD7C46B1D0EDF
:101DF000C46501D034D0B3D89DD8B7EC6AF06ED8A2
:101E0000CC65FAD7C6C065F0C7C066F0C8C067F039
:101E1000C9C068F0C451020FEEEC5DF0A0D88AD8BA
:101E2000B7EC6AF05BD8CC65FAD7A4D8020F66ECA1
:101E300066F090D8B7EC6AF074D8C5C066F0C451AB
:101E4000020F51EC64F086D8B7EC6AF06AD8C5C0CE
:101E500065F0C451020F98EC62F0C42BC8D77AD851
:101E6000B7EC6AF05ED8C551CBEC64F073D8B7EC30
:101E70006AF057D8C551D7EC69F06CD8B7EC6AF066
:101E800050D8C551FDEC6CF00001BE6BBF6BCC6B44
:101E9000CC51BE0F58D8B7EC6AF0DF6E0001CA4BC8
:101EA000CB2BCC51BE0FD96EDA6ADF50C227000EA1
:101EB000C323CC2B010ECC65EBD7BEC060F0BFC0F6
:101EC00061F0E0EC65F0C22904E1C32902E1C26BD4
:101ED000C36BC2C0AAF0C3C0ABF01200DF6E00013A
:101EE000CA4BCB2BCC51C60FD96EDA6ADF50C22752
:101EF000000EC323CC2B030C0001CA4BCB2BCC51BF
:101F0000AC0FD96EDA6ADF50C227000EC323CC2B88
:101F1000070CD96EDA6ADF50C227000EC323CC2B20
:101F20000F0C0001C56FCA4BCB2BC551C227000E49
:101F3000C323000CCC51C60FD96EDA6ACAC060F058
:101F4000CBC061F01200D96EDA6ACAC060F0CBC0B3
:101F500061F01200CAC060F0CBC061F01200C66B25
:101F6000C76BC86BC96BCC6B1200CA4BCB2BCC5167
:101F7000AC0F1200C6C063F0C7C064F0C4511200B9
:101F8000EFC0D9FFF0C0DAFFDECFF4F0DDCFF5F01F
:101F9000000120EE02F0B0D9DECFF6F0DDCFF7F091
:101FA000010EF86FF969F4C0C5F0F5C0C6F04AEC4F
:101FB0003AF0F96FF9BF8BD1FA6B070EFA6501D0D1
:101FC00086D1FA51020D280EF324D96E020EF420A8
:101FD000DA6EDECF60F0DDCF61F0F6C062F0F7C000
:101FE00063F03EEC49F06051611101E06DD1710E7A
:101FF000F9257DD934EC49F0F5CFF1F0FAC0F2F0D3
:10200000010EF36FF22B02D0D890F337F22FFCD7EA
:102010000001F351F11501E157D1F86B26D10F0101
:102020003891929051D10F01389192804DD1928088
:102030000F01388149D1FA51F2E0010AF4E0030AB4
:10204000F6E012D00F01389392923ED10F013893EF
:1020500092823AD192820F01388336D1FA51F2E05E
:10206000010AF4E0030AF6E0010A2ED10F013895C7
:1020700092942AD10F013895928426D192840F012F
:10208000388522D1FA51F2E0010AF4E0030AF6E0C1
:10209000EBD70F013897929617D10F013897928698
:1020A00013D192860F0138870FD1FA51F2E0010A5D
:1020B000F4E0030AF6E0D8D7929806D1928804D1CA
:1020C000FA51FAE0010AFAE0020AFED00F01389B49
:1020D000929AFAD00F01389B928AF6D0928A0F0119
:1020E000388BF2D0FA51F2E0010AF4E0030AF6E08C
:1020F000BBD70F013C919690E7D00F013C919680A1
:10210000E3D096800F013C81DFD0FA51F2E0010A62
:10211000F4E0030AF6E0A8D70F013C939692D4D0DE
:102120000F013C939682D0D096820F013C83CCD095
:10213000FA51F2E0010AF4E0030AF6E095D70F0144
:102140003B959594C1D00F013B959584BDD0958466
:102150000F013B85B9D0FA51F2E0010AF4E0030A1D
:10216000F6E082D70F013C959694AED00F013C95D6
:102170009684AAD096840F013C85A6D0FA51F2E04D
:10218000010AF4E0030AF6E06FD70F013A9B949A34
:102190009BD00F013A9B948A97D0948A0F013A8B77
:1021A00093D0FA51F2E0010AF4E0030AF6E05CD7BA
:1021B0000F013B9B959A88D00F013B9B958A84D059
:1021C000958A0F013B8B80D0FA51F2E0010AF4E0CE
:1021D000030AF6E049D70F013B9F959E75D00F018A
:1021E0003B9F958E71D0958E0F013B8F6DD0FA512C
:1021F000F2E0010AF4E0030AF6E036D70F013B9D56
:10220000959C62D00F013B9D958C5ED0958C0F0103
:102210003B8D5AD0FA51F2E0010AF4E0030AF6E0ED
:1022200023D7929E51D0928E4FD0FA51FAE0010AF4
:10223000FAE04AD7929C48D0928C46D0FA51FAE004
:10224000010AFAE041D7939C3FD0938C3DD0FA51DC
:10225000FAE0010AFAE038D7939E36D0938E34D054
:10226000FA51FAE0010AFAE02FD7F95101E1E3D679
:10227000010A01E1F3D6030A01E104D7010A01E1F1
:1022800014D7070A01E11CD7010A01E12BD7030A81
:1022900001E13BD7010A01E14BD70F0A01E15BD70E
:1022A000010A01E16BD7030A01E17BD7010A8CE047
:1022B000070A9DE0010AAEE0030AB7E0010ABEE0AA
:1022C0001F0AC5E0010ACCE00001FA2B76D6F851CE
:1022D000B3EC26F0DECFF1F0DDCFF2F020EE06F029
:1022E0000BD8F1C0DEFFF2C0DEFFDD6A1200F66E31
:1022F000F76AF60EF7221200EF51D926F051DA22D2
:102300001200E06F100E0001E46FE26BE10E606FEF
:10231000616B636B626B656B010E646F65EC67F0FC
:1023200068D965EC67F068EC3FF05BEC3FF065EC7A
:1023300067F0E00506E1E1511F0B8009E16F9AD9D2
:1023400004D0E1511F0B4009E16FFC0EE117E30ED1
:10235000E117E70E72D9E1C0DFFFE42B43D96DEC42
:102360003FF056EC3FF081EC56F0040EE427E36BAF
:102370002BEEF8F0DFAC3FD0E38F25EC45F017E211
:10238000E38D2BEEF6F0DF882CEEDAF0DE2A000E7D
:10239000DD222CEEDAF0DECFDCF0DDCFDDF02CEE4E
:1023A0009CF0DF50DC19DD1106E160D9E39D2BEED6
:1023B000F6F0DF9820D02CEEDAF00CEE9CF0EF5027
:1023C000DE6FDF6BDE50DE5DDE50DF59EFE2F8CC12
:1023D000E8FF010FE8CFF8FC2CEE9DF00CEEF8F0D2
:1023E000DE50EE5C08E342D9E3EC44F0000903E17F
:1023F00066EC06F0DBD72BEEF6F0DFA204D0E38B21
:102400002BEEF6F0DF92E3992CEEA1F0DF5003E023
:10241000DA51DB111AE1F00EE3170101D95104E0A2
:1024200020D9020EDC270FD90101D85103E019D9B8
:10243000DC2B09D90101DF510FE0DF51020D000152
:10244000E351F318F00BF31806D0BAEC48F0DC6F48
:10245000E319F00BDC19E36FE70E0001EED8E3C0DF
:10246000DFFFE42BBFD8FC0E626F0B0E636F656B52
:10247000020E646F81EC56F0020EE4272CEEA1F000
:10248000DF500EE0DA51DB110BE0E70E606F0A0E51
:10249000616FE40E626F010E636F88EC1FF028D04D
:1024A0002CEEA1F0DF5024E10101DF5109E0E70E3D
:1024B0000001606F0A0E616FE40E626F56EC56F019
:1024C0000101D95109E0E70E0001606F0A0E616F4A
:1024D000E40E626F9EEC63F00101D85109E0E70E53
:1024E0000001606F0A0E616FE40E626FCBEC67F063
:1024F000E70E0001A2D8D7C0DFFFE42BDA51DB11D1
:1025000018E070D8D8C062F0D9C063F0DAC064F0C7
:10251000DBC065F081EC56F0D8C0A0F0D9C0A1F0C6
:10252000DAC0A2F071D899D87FD8ABEC2CF0DA5190
:1025300019D02CEEA1F0DF5016E0D80E606F090E16
:10254000616FE20E626F636B88EC1FF0D80EA06FB4
:10255000090EA16FE2C0A2F057D87BD865D8ABECCA
:102560002CF0E251E427FCCB6BF0FDCB6CF0FECB02
:102570006DF0FFCB6EF0E451F00F6F6F490E706F8E
:10258000000E716B23EC3FF0E70E606F0A0EF2EC69
:1025900005F0100E646F81EC56F040D8CA6F020E41
:1025A000CB6FE70ECC6F0A0ECD6FE4C0CEF0CF6BD1
:1025B0003EEC13F017D8FCEC56F056EC3FF081ECF3
:1025C00056F0040EE427F00EDC6FDD69E451DE6F97
:1025D000DF6BDC51DE27DD51DF23DEC0DEFCDFC038
:1025E000DFFC1200E70EE425606F616B0A0E6123C9
:1025F0001200E70E606F0A0E616F636B626B010E73
:10260000656F0F0E646F0F0CA36BFCCBA4F0FDCBBA
:10261000A5F0FECBA6F0FFCBA7F01200180EC86FF6
:102620000C0EC96FCD0E1200A96FE4C0AAF0E70E20
:10263000AB6F0A0EAC6FAD6B1200E425D96EDA6A8F
:102640000A0EDA221200E351DC19F00BDC19E36FF9
:102650001200180EA86F0C0E1200280EA86F0C0E98
:1026600012000001E3510F0BDC6F1200000EE8CFE7
:10267000F8FC000C2BEEF6F0DF8012000101656B18
:10268000646B626B606B616BC8C0A0F0C9C0A1F0E5
:10269000100E0001A26F010EA36F000EA46F010EB9
:1026A000A56F26EC33F00F0ECE25D06F000ECF2194
:1026B000D16F040ED26FD890D133D033D22FFBD745
:1026C000D0510101636F635104E1010E636F626BCE
:1026D0000AD0CEC0D0F00F0E0001D017010ED8A442
:1026E000000E0101626F62052DE1646B6351100DF4
:1026F000F350F00F656F18D0200E0101642512D938
:10270000100E6425E96EEA6A010EF6D801016551E2
:102710000001CC25E96E000ECD21EA6EEF50D019F4
:10272000DF6E0101642B652B6351C6D80101655131
:102730000DD9D25DD351800AD46FD151800AD459BA
:1027400040E2DAD70F0E0001CE15D06FD16BD9D889
:10275000D25FD151D35BCE51D2250101606F000110
:10276000CF51D3210101616F656BE6D865610CD053
:1027700065516025D96E000E6121DA6E300EC7D822
:10278000EA22DFCFEFFF09D0D7D8651904E1ADD831
:10279000800EDF6E02D0A9D8DF6A652B0F0E65654B
:1027A000E4D7656B200E6525BDD8000E6525E96E62
:1027B000EA6A010EA1D8300E0101A9D88AD8656550
:1027C000F1D7500E0001606F010E616F5BEC3FF0BE
:1027D00065EC67F00101656B32D00101646B400E5E
:1027E0006425AFD8655168D88CD8A1D86451000150
:1027F000D225E96E000ED321EA6EEF50D46F500E51
:10280000010164256ED8EA22EF500001D419DF6E71
:102810000101642B0F0E6465E2D7500E0001606F5A
:10282000010E616F400E626F010E41D881EC56F0CF
:10283000500E8C6F010E70D83EEC68F0652B0001D5
:10284000D069D1690101635181D871D86551000106
:10285000D46FD56BD251D45DD551800AD66FD35188
:10286000800AD659BAE30101656B400E652569D827
:10287000200E6525E96EEA6A010E3ED8500E010170
:1028800065252FD826D86565F0D7400E00018C6FDE
:10289000010E42D83EEC68F0CAC060F0CBC061F0D7
:1028A000400E0001626F010E02D881EF56F0636F97
:1028B000656B100E646F100C0001D06FD16BD03BB4
:1028C000D13BF00ED117D0510F0BD113F00ED01712
:1028D000F00CEA22EF500001D019DF6E0101652BE8
:1028E0000F0CE96EEA6A010E1200300E6525D96EF2
:1028F000DA6A010EDA221200EA22EF500001D06FEC
:102900001200CCC0D2F0CDC0D3F0D051120065255A
:10291000E96EEA6A010E12008D6FC8C08EF0C9C060
:102920008FF01200D96EDA6A010EDA221200D22775
:10293000D151D323010112000001CE510F0B01012F
:102940001200D96EDA6A010EDA2212000001D26F8B
:10295000D36BD05112000001DA69DB69DC69DD69F3
:102960002BEEF9F0DFB029D1EDEC05F0030A2FE1F1
:102970003BD90409DF6E2BEEF8F0DFA8120008CC7B
:10298000E8FF020AD8A412002BEEF6F0DFB0120026
:102990003BD9D8B012002CEEDEF0010EDB5004E182
:1029A0000E0EDE5CD8A0120071EC6BF03AEC09F070
:1029B000D8B412001ED9010EC56F0500FA6E0101D0
:1029C000BB51FD6EBC51FE6EFF6AFA5012002BEE39
:1029D000F6F0DFB49BEF65F02BEEF8F0DFA8E4D063
:1029E0002BEEF6F0DFA042D0DEEC2AF029E3FCD893
:1029F00000EC54F0DECFD4F0DDCFD5F0D451D66F5B
:102A0000D551D76FD86BD96B0C0ED890D637D73736
:102A1000D837D937E82EF9D7D6C060F0D7C061F0E3
:102A2000D8C062F0D9C063F0D9D81AEC4DF024ECCC
:102A300009F0F1D8F5EC61F0EED8D6EC51F0B4D055
:102A40005FEC6CF00101BB51BC1101E1ADD0000E97
:102A5000D0D8C56B01D8A8D00500FA6E0101BB51D2
:102A6000FD6EBC51FE6EFF6AFA501200CDD801E235
:102A700082D0BAD80609DF6E010E44EC28F00009B6
:102A800013E1D9EC4EF06FEC23F0A851A91105E148
:102A9000B5D8AAD80109DF6E87D071EC6BF00101BF
:102AA000BB51BC11D4E180D0DE6B38D0DE516AEC72
:102AB0001EF02DEC3CF031E1DE5117EC09F056EC44
:102AC0001EF02BE0DE5117EC09F0DE50DA5DDE502F
:102AD000DB59DE50DC59DE50DD591FE3DE5125ECB9
:102AE0003CF0DF500F0BD46F2CEEE9F0D451DE5CDC
:102AF00014E32CEEE9F0DE5153EC30F0D56FDE50EC
:102B0000D55D0BE3DE5117EC09F0DECFDAF0DECF56
:102B1000DBF0DECFDCF0DECFDDF0DE2B2CEEF7F0ED
:102B2000DE51DE5CC3E2DAC0D4F0DBC0D5F0DCC03D
:102B3000D6F0DDC0D7F00C0ED890D437D537D637C5
:102B4000D737E82EF9D7000ED425606F200ED52197
:102B5000616F030ED621626F000ED721636F3ED8DE
:102B60001AEC4DF024EC09F05AD8F5EC61F057D886
:102B7000D6EC51F019D008CCE8FF020A15E071EC50
:102B80006BF00101BB51BC110FE033D8010EC56FD2
:102B900001D80AD00500FA6E0101BB51FD6EBC518F
:102BA000FE6EFF6AFA501200B8EC49F0D8A4120089
:102BB0001BD80909DF6EDBEF52F03AEC09F0D8B40C
:102BC000120017D8020EC56F0500FA6E0101BB5145
:102BD000FD6EBC51FE6EFF6AFA5012007D0E646FEE
:102BE000656B666B676B7D0C2BEEF8F0DF50F00BBE
:102BF00012000001C26BC36BC46B1200E2CCE8FF91
:102C0000010FE8CFE2FC12002CEEE2F00CEEE0F057
:102C1000DE50EE5C12002CEEF2F0DF5012002CEED3
:102C2000F4F0DF50120000017B6F796B7A6B080EB5
:102C30007B192EE126EEA2F0DE50DE10D8B4120091
:102C40001BD95D0E7025D96E040E7121DA6EDF502E
:102C500014E1A1C6E8FFFF0FE8CFA1F602D9DECF4D
:102C6000A4F6DDCFA5F6FDD8DE6ADD6A26EEA1F07A
:102C7000DF5009D9DE6ADD6A05D026EEA4F0DE0653
:102C8000000EDD5A26EEA2F0DE06000EDD5A000C24
:102C900026EEA2F0250EDE5C020EDE5846E2200E85
:102CA0007B1945E126EEA1F0060EDF603ED0E4D8A8
:102CB00005D9000EDF6A26EEA2F0DE2ADD2226EE1E
:102CC000A4F006EEA1F0EF50020D840EF324E96E9D
:102CD000060EF420EA6EDECFEEFFDDCFEDFF706969
:102CE000716926EEA4F0F1D826EEA2F0DECF74F0E2
:102CF000DDCF75F07251745F7351755B705174273D
:102D00007151752326EEA1F0DF50BDD874C0DEFFEF
:102D100075C0DDFFA1C6E8FF010FE8CFA1F6000EE8
:102D2000E8CFA4F6E8CFA5F677D0796975D0A4D816
:102D3000C5D87BC0DFFF26EEA2F0DE2A000EDD2222
:102D400026EEA4F0DE2ADD2283D840EC5DF026EEEC
:102D5000A2F06051DE5C6151DE582EE3010E7A6F05
:102D600077D840EC5DF060517C6F22D085D8B2D826
:102D70007C51725F000E9AD8DF50746F69D840ECB6
:102D80005DF0E40E756FFF0E766F6051752761512F
:102D900076237C51755F000E765B75C0F6FF76C0BA
:102DA000F7FFF86A0800F550741901E07A6B7C07A8
:102DB0007C5102E07A51DAE17A512EE05DD848D8B0
:102DC00040EC5DF087D86051725F61516FD8DF6A67
:102DD0003FD840EC5DF026EEA4F05DD86051705F06
:102DE0006151715B3ED870C0DEFF71C0DDFF26EE21
:102DF000A4F051D826EEA2F068D87051725F7151DC
:102E0000735B26EEA1F0DF503ED872C0DEFF73C0C8
:102E1000DDFF010EE8CFA0F67929D8A4120056EC08
:102E200065F04CC260F04DC261F0CAEC1AF040ECA3
:102E30005DF060C077F061C078F04CC266F04DC2C2
:102E400067F02ED877C069F078C06AF02DEF4CF0AB
:102E5000E40E606FFF0E616F6011D8A4000E626F08
:102E6000120026EEA1F0DF50020D840EF324D96E7D
:102E7000060EF420DA6E120026EEA2F0DECF70F01D
:102E8000DDCF71F01200020D920EF324D96E060E02
:102E9000F420DA6E1200DECF70F0DDCF71F0120098
:102EA00066516711D8A4000E686F1200735B7051F1
:102EB0007225D96E71517321DA6E12005E0E702583
:102EC000D96E040E7121DA6E1200DECF72F0DDCF02
:102ED00073F012005E0E726F040E736F1200010E1B
:102EE000756F7B6F766B776B6E07D8A06F07F6D028
:102EF000050E6E25726F000E6F21736F7051725D3B
:102F0000715173591BE220EE05F06E51D9266F51B5
:102F1000DA22030EDE1812E1752B040E6E257C6F8B
:102F2000000E6F217D6F0AD9F4EC6AF0000901E010
:102F30007B6B050E6E27000E6F23D0D006D9030ED3
:102F4000DE1801E0CBD06E4B6F2BFFD8DF500F0B9C
:102F5000746FFBD8DF50726F72390F0B7A6F6E4B44
:102F60006F2BF3D8DECF78F0DDCF79F0020E6E272D
:102F7000000E6F236EC07CF06FC07DF06E4B6F2B28
:102F80002BEEF8F0DFAC63D07B5112E0D7D8F4EC35
:102F90006AF0000902E07B6B0BD0D0D8060A08E08B
:102FA00078C060F079C061F0C9EC65F00009F3E128
:102FB0007A51F0EC68F0000911E1080E7A610ED048
:102FC00078C060F079C061F07AC062F0B7D8636F02
:102FD0008BEC59F0000902E1010E776F7451C3ECDC
:102FE0006BF0000902E1010E766F760572E177055C
:102FF00070E17B056EE178C06BF079C06CF09ED813
:103000006D6F5BEC6BF07451F7EC6CF02BEEF9F03C
:10301000DF8800017A5103EC6DF07CC0D9FF7DC0E0
:10302000DAFF0001DF500F0B04E1000EE8CFE0FCF7
:103030000AD07CC0D9FF7DC0DAFFDF500F0B726F62
:10304000720772C0E0FC2BEEF9F0DF8A42D07B6B96
:1030500040D070D84ED87BB102D0DF9001D0DF8055
:1030600069D847D8000177B102D0DF9201D0DF8262
:1030700061D83FD8000176B102D0DF9401D0DF845F
:1030800030EC1CF0DF6025D00001755122E025EC0A
:103090001CF050D82ED8DF904DD82BD8DF924AD8CC
:1030A00028D82FD826D832D824D835D822D838D8FE
:1030B00020D83BD81ED8DF9E3DD844EC31F0DF90BD
:1030C00039D844EC31F0DF9235D886EC20F0030E8D
:1030D000DF6E00017507752907E0BBD770516E5D83
:1030E00071516F5901E204D76EC06EF06FC06FF07E
:1030F0001200030DA30EF324D96E0C0EF420DA6E29
:103100001200DF942CEEA1F0DF501200DF962CEEBF
:10311000A1F0DF501200DF982CEEA1F0DF5012007A
:10312000DF9A2CEEA1F0DF501200DF9C2CEEA1F014
:10313000DF5012002CEEA1F0DF5012007CC0D9FF4E
:103140007DC0DAFFDF38070B12006EC0D9FF6FC0F9
:10315000DAFF1200916B5CC2A4F15DC2A5F1A4512B
:10316000A511D8A4000EA66F946B31D09451090D0F
:10317000F35083258A6FF45084218B6F000E8521D4
:103180008C6F8AC1F6FF8BC1F7FF8CC1F8FF21EE6F
:1031900095F0080E05D9FEE295C160F096C161F088
:1031A000875143EC17F0DECF8AF1DDCF8BF15E0E55
:1031B0008A250001626F040E01018B210001636FFB
:1031C0003EEC49F06051611105E00101942B8651FC
:1031D000945DCCE301018651945D01E3ACD097513D
:1031E0009811991101E09CD09A519B1101E1A3D053
:1031F0009D518A6F8B6B8751A1C68CF18CC18DF16B
:103200008E6B8D5F000E8E5B8A518D1903E18B51A1
:103210008E19D8A490D08729936F926B9D5112E09C
:10322000932B9305020D840EF324D96E060E60ECE9
:1032300047F003E1010E926F05D026EEA1F0935105
:10324000DE5CEEE2925177E19E0E0001606F010EAE
:1032500068EC65F0090E646F65EC67F00101875159
:103260008A6F8B6B8A2B000E8B238B5114E1070E18
:103270008A5D11E280D8860E8A25D96E060E8BD81B
:103280000AE079D8940E8A25D96E060E7BD89E6FF7
:10329000040E8D219F6F87518A6F8B6B020E85D82C
:1032A00014E1070E8A5D11E266D8880E8A25D96E70
:1032B000060E71D80AE05FD8960E8A25D96E060EE2
:1032C00061D8A06F040E8D21A16F87518A6F8B6B1F
:1032D000030E6BD814E1070E8A5D11E24CD88A0EFA
:1032E0008A25D96E060E57D80AE045D8980E8A2549
:1032F000D96E060E47D8A26F040E8D21A36F9E0EC5
:103300000001EF6F010EF06F01D815D00500FA6EC5
:1033100001019A51FD6E9B51FE6EFF6AFA50120038
:10332000010E916F88C1D9FF89C1DAFF94C1DFFF17
:10333000A46BA56BA66B0101A451A511A61118E001
:10334000A4C160F0A5C161F0A6C162F040EC5DF0DF
:1033500060C08FF161C090F1A4C166F0A5C167F0B3
:10336000A6C168F08FC169F090C16AF02DEC4CF0F5
:1033700001019151120087518A6F8B6BD8908A3767
:103380008B3712008B21DA6EDECF8CF1DDCF8DF121
:103390005E0E8C2512008B21DA6EDE50DE101200DC
:1033A0000900F5CFDEFFE80612008A27000E8B2306
:1033B0008B511200D7D0010EC46554D023D91EC240
:1033C00062F01FC263F083EC64F0DBD840EC5DF088
:1033D000F7D8AE6F060ED321AF6FC2C0D9FFC3C0FE
:1033E000DAFFDF50B06F68EC3EF0D9EC61F0C9D87D
:1033F00040EC5DF0E5D8F3D8D24BD32BC669C76952
:10340000C451C86FC96BC651C827C751C923120E12
:10341000CA6F020ECB6FD251CA5FD351CB5BD8902B
:10342000CB31CD6FCA31CC6FC851CC5DC951CD59AC
:1034300003E2B6D8DBD806D0FF0EC425CE6FCF6B23
:10344000FF0ECF23C229B66F000EC321B76FBFD8BE
:10345000D2EC41F096D840EC5DF0ADD8CDD8D8A4F0
:10346000200E0DD01AC260F01BC261F093D840EC60
:103470005DF0A1D81AC266F01BC267F06ED0686F0B
:10348000D0C069F0D1C06AF02DEF4CF0C45125E0F6
:10349000B9D81CC262F01DC263F083EC64F071D82D
:1034A00040EC5DF08DD89BD8D24BD32B79D8C96F27
:1034B000C631C86FC451C85D000EC95903E270D847
:1034C00095D803D0C4C0CEF0CF6BC2C0B6F0C3C095
:1034D000B7F07DD8D2EC41F0BDD718C260F019C268
:1034E00061F058D840EC5DF066D818C266F019C299
:1034F00067F033D020C260F021C261F04BD840ECBD
:103500005DF059D820C266F021C267F026D022C2F1
:1035100060F023C261F03ED840EC5DF04CD822C28E
:1035200066F023C267F019D024C260F025C261F0B2
:1035300031D840EC5DF03FD824C266F025C267F078
:103540000CD026C260F027C261F024D840EC5DF0B8
:1035500032D826C266F027C267F066516711D8A438
:10356000000E8DD70001C551D2E0010A01E123D739
:10357000030AC0E0010A8AE0070AD6E0010AE1E096
:103580001200A60E606F060E616F6011D8A4200EA7
:10359000626F120060516111D8A4000E626F1200B8
:1035A000120EC66F020EC76FD251C65FD351C75BF2
:1035B000D890C731120060C0D0F061C0D1F01200C5
:1035C00060C0D2F061C0D3F0A60ED2251200A60EC4
:1035D000D225B86F060ED321B96FCE511200D96E25
:1035E000060ED321DA6E200EDF6E200CC86FC631B6
:1035F000CE6FC8C0CFF01200A60E666F060E676FC2
:1036000066111200A60E606F060E616F1200B26B9B
:10361000A7C0B4F0A8C0B5F004D19AEC18F079ECCA
:1036200018F0DF909AEC18F079EC18F0DF929AEC31
:1036300018F079EC18F081EC18F079EC18F086ECC1
:1036400018F079EC18F08BEC18F079EC18F090EC9D
:1036500018F079EC18F095EC18F079EC18F0DF9E82
:103660009AEC18F044EC31F0DF909AEC18F044EC4E
:1036700031F0DF92F0D80CEEA1F0EF50030DA20E66
:10368000F324E96E0C0EF420EA6EDFCFEFFFE3D8EF
:10369000DF50B36FFE0EAA6FAB69B351AC6FAD6B69
:1036A000AA51AC27AB51AD23930EAC25F66EF60EA6
:1036B000AD21E3EC48F0B425AE6F000EB521AF6F3D
:1036C000A951A725B06F000EA821B16FAE51B05D12
:1036D000AF51B15901E384D0010EB36581D00B0E17
:1036E000B3617ED09AEC18F086EC20F0FF0EDF6814
:1036F000A7D0B4C060F0B5C061F03AEC66F060C02D
:10370000B4F061C0B5F09AEC18F086EC20F0DF68F8
:103710007ED0B4C06EF0B5C06FF0A951A725706F10
:10372000000EA821716F6FEC17F06EC0B4F06FC07F
:10373000B5F06DD0B4C060F0B5C061F072EC58F077
:1037400060C0B4F061C0B5F062D0B4C09EF0B5C046
:103750009FF05AEC2EF09EC0B4F09FC0B5F057D049
:10376000B4C060F0B5C061F054EC6DF060C0B4F06E
:1037700061C0B5F04CD0B4C09EF0B5C09FF0CFECA6
:1037800026F09EC0B4F09FC0B5F041D0B4C06BF03D
:10379000B5C06CF0B2EC65F06BC0B4F06CC0B5F0C5
:1037A00036D0B4C09EF0B5C09FF0D9EC30F09EC0CA
:1037B000B4F09FC0B5F02BD0B4C069F0B5C06AF0CA
:1037C00065EC2FF069C0B4F06AC0B5F020D0010EEE
:1037D000B26FA951A725B46F000EA821B56F93D77A
:1037E0003AD8B44BB52BDF50020A83E0010A91E0CE
:1037F000070AA0E0010AA9E0030AB2E0010ABBE05F
:103800000F0AC4E0010AD8E0030ACBE0E0D79AEC43
:1038100018F086EC20F0DE2804E022D8DF6001D02A
:1038200014D80001A951A725AA6F000EA821AB6FDB
:10383000AA51B45DAB51B55903E2B25101E1EDD6E5
:10384000B4C0A7F0B5C0A8F01200A1CCE8FF010FEA
:10385000E8CFA1FC1200B4C0D9FFB5C0DAFF120056
:103860002CEEA1F0100C8B6B68518B25D96EDA6AA7
:103870008B51710FE96EEA6ADFCFEFFF8B2B0F0ED2
:103880008B65F2D70A0E0101D46F010E456E00015F
:103890008B6BC9D8BAD805D98B65FBD700018B6B68
:1038A000B4D8DF50696F6A6B710E6925F66EF50E3C
:1038B0006A21F76EF86A000EF822A7D80800F5CF43
:1038C000DFFF8B2B0F0E8B65EBD766C060F067C0F8
:1038D00061F014EC3BF00101D40501E185D0000159
:1038E0008B6B9AD86929D96EBFD86B6F8ED8DF5091
:1038F0006B19896F91D8D1D8B7D8A6D88A6F891992
:10390000876F8AD86929D96EAFD89ED8886F7F0E05
:10391000896508D01B0E89C069F0ABD8816F6A51E8
:10392000826F05D0D8908935816F826B823781C0D4
:1039300089F07F0E886508D01B0E88C069F099D881
:10394000836F6A51846F05D0D8908835836F846BFC
:10395000843783C088F07F0E8A6508D01B0E8AC02A
:1039600069F087D8856F6A51866F05D0D8908A35FF
:10397000856F866B863785C08AF047D886D88719C9
:103980008919DF6E49D86929D96E54D86B2977D83F
:1039900087198819DF6E40D8020E6925D96E4AD87A
:1039A000020E6B256CD887198A19DF6E35D875D849
:1039B00041D8020E6B2563D86D6F8B5166256E6FF3
:1039C000000E67216F6F6E29E96E000E6F21EA6E9F
:1039D000EF50706F5AD870196D198719DF6E040E89
:1039E0008B270F0E8B657DD7710E0001606F40EC49
:1039F0002DF08B6B18D809D854D88B65FBD70101F3
:103A0000D407D45101E04AD712008B516625D96EF4
:103A1000000E6721DA6E12008B516625696F000E69
:103A200067216A6F12008B51710FD96EDA6ADF500D
:103A3000696F1200000E6A21DA6E8B5166256B6F7A
:103A4000000E67216C6F12006B6F8B5166256C6FD7
:103A5000000E67216D6F020E6C25D96E000E6D2170
:103A6000DA6EDF506B191200000E6A21DA6EDF5039
:103A700012006A6BD89069376A3769191200E96ECB
:103A8000000E6C21EA6EEF5012008B516625E96E34
:103A9000000E6721EA6EEF501200030E6925D96E01
:103AA00012006951DF1A8B2B0F0C0A0EE126000E53
:103AB000E2225068516852685368FDD8FE0EE36AEE
:103AC000FE0EE35007D92DEC3CF06AE1FE0EE35008
:103AD00017EC09F0EBD864E0FE0EE35017EC09F0A8
:103AE0000CEED2F0DE50EE5CDE50EE58DE50EE58BA
:103AF000DE50EE582DE2D2CC50F0D3CC51F0D4CCE5
:103B000052F0D5CC53F0FE0EE35017EC09F0DECFA7
:103B10004CF0DECF4DF0DECF4EF0DECF4FF0505008
:103B20004C5C486E51504D58496E52504E584A6E3A
:103B300053504F584B6EFE0EE35017EC09F048C03F
:103B4000DEFF49C0DEFF4AC0DEFF4BC0DEFF06D00D
:103B5000FE0EE35017EC09F0A8EC29F0FE0EE3503E
:103B600017EC09F0FA0E45EC2AF0FB0EB8D8FC0E63
:103B7000B6D8FD0EB4D814E3FE0EE35017EC09F0EE
:103B800095D80EE0FE0EE35017EC09F0DECF50F0B2
:103B9000DECF51F0DECF52F0DECF53F08CD8E32AE7
:103BA000FE0EE32AE3CF48F00F0E486489D7FF0EDC
:103BB000E3046DE1E150FA0F6DD8DECFD2FCDECF29
:103BC000D3FCDECFD4FCDDCFD5FCFD0EE3500DE100
:103BD000FA0EE328FB0EE3CF48F0FF0E485AFC0E26
:103BE000E3CF48F00F0E485A18E3E150FA0F52D8CD
:103BF000DECF60F0DECF61F0DECF62F0DECF63F0CB
:103C00007D0E00012CEC38F01AEC4DF031EC38F060
:103C10000C0E46D8E82EFDD720D0FA0EE3CF50F098
:103C2000FB0EE3CF51F0FC0EE3CF52F0FD0EE3CFDD
:103C300053F00C0E35D8E82EFDD750C060F051C0BF
:103C400061F052C062F053C063F07D0E00012CECB5
:103C500038F01AEC4DF031EC38F0F60E50C0E3FFBE
:103C6000F70E51C0E3FFF80E52C0E3FFF90E53C048
:103C7000E3FFE150F60FD96EE2503AEC38F032EC47
:103C800009F0F5EC61F032EC09F0D6EC51F0F50EEC
:103C900046EF38F0D96EE250DA6EFF0EDA22FF0CF2
:103CA000D89050365136523653361200DE50DE1060
:103CB000DE10DE101200FA0E50C0E3FFFB0E51C002
:103CC000E3FFFC0E52C0E3FFFD0E53C0E3FFFF0E07
:103CD000E36A1200120DC00EF324D96E1200E3CF76
:103CE00048F0DE5048581200AAD00001A669A76922
:103CF000A869A969B0D02BEEF6F0DFA41FD0FFD8D9
:103D0000B8EC63F08C5102E1D9D80CE3F8D8B8ECE8
:103D100063F00D0E01D0D9D8E82EFDD7BBD8D4EC76
:103D20005BF077D0ECD8B8EC63F0B4D8D4EC5BF0AF
:103D30000D0E01D0BDD8E82EFDD76BD02BEEF8F0DC
:103D4000DFA889D0D8D8B8EC63F08C5102E1B6D89E
:103D50000CE3D1D8B8EC63F00D0E01D0B6D8E82E44
:103D6000FDD798D8D4EC5BF054D0C5D8B8EC63F04C
:103D700091D8D4EC5BF00D0E01D09AD8E82EFDD787
:103D800048D02BEEF6F0DFA405D036EC09F0B8EC05
:103D900063F008D02BEEF8F0DFA805D0AEEC06F00B
:103DA000B8EC63F098D80001A95102E19DD81FE357
:103DB000A6C0A2F0A7C0A3F0A8C0A4F0A9C0A5F017
:103DC0000D0E05D0D890A533A433A333A233E82E2B
:103DD000F9D7A2C092F0A3C093F0A4C094F0A5C0FC
:103DE00095F07D0E2DEC09F0D4EC5BF012D0A6C05E
:103DF00092F0A7C093F0A8C094F0A9C095F07D0EF2
:103E00002DEC09F0D4EC5BF00D0E01D051D8E82E6A
:103E1000FDD792C0A6F093C0A7F094C0A8F095C0BB
:103E2000A9F019D00BEC16F0B8EC63F054D8A951F6
:103E3000BFE15AD8BDE2DBD7000165D80CD0EDEC6C
:103E400005F001E152D7020A01E155D7060A99E0CF
:103E5000020AE8E0F1D70001A951A811A71103E176
:103E6000C80EA65D0AE3CE0EA627FF0EA723A82341
:103E7000A9232BEEF9F0DF8004D045D82BEEF9F022
:103E8000DF90A6C09EF0A7C09FF0A8C0A0F0A9C078
:103E9000A1F0120089C092F08AC093F08BC094F018
:103EA0008CC095F07D0E966F976B986B996B7D0C1F
:103EB000D890953394339333923312001F0E895D5B
:103EC000AC0E8A59DF0E8B591200D8908C338B338D
:103ED0008A338933120089C0A6F08AC0A7F08BC04C
:103EE000A8F08CC0A9F012001F0EA65DAC0EA75959
:103EF000DF0EA85912002CEEEEF0DF5012002CEE6F
:103F0000ECF0DF501200A66BA76BA86BA96B120038
:103F10000ED96B6F6A6BE7D0635101E1CCD06A5167
:103F2000F5D8DE2801E1C7D0FE0E646F65696A51DD
:103F3000EDD8DF50666F676B645166276551672364
:103F40009C0E6625F66EF60E6721E3EC48F06BC01A
:103F500068F0696B6827000E6923E9D8685F000E76
:103F6000695B69BFA8D0695105E1100E685D01E386
:103F7000C0D0A1D0BED0C3D8030EDF6E6B2BBFD88C
:103F8000DF6A6A5179EC18F0DFA003D0B8D8000ED0
:103F9000DB806A5179EC18F0DFA203D0B0D8000EB4
:103FA000DB826A5179EC18F0DFA403D0A8D8000EA8
:103FB000DB8400016B2B96D0A2D8050EDF6E6B2B35
:103FC0009ED8DF6A6A5179EC18F0DFA603D097D843
:103FD000000EDB806A5179EC18F0DFA803D08FD88F
:103FE000000EDB826A5179EC18F0DFAA03D087D883
:103FF000000EDB8484D8DF500101D76FDAD77FD879
:10400000060EDF6E6B2B2CEEEAF088D86B2BFCECE7
:104010006DF0800AA00F05E3FCEC6DF0800A600FE4
:1040200004E300016CD8200E05D0000168D8FCEC38
:104030006DF03F0BDF6EBDD762D8070EDF6E6B2BC6
:104040005ED8DF6A6A5179EC18F0DFAE03D057D83A
:10405000000EDB806A5179EC18F0DFACAAD74FD89C
:10406000000EDB82A6D76EEC22F06A514FD856D8EC
:10407000A0D745D80A0EDF6E6B2B41D8DF6A6A5194
:1040800044EC31F0DFA003D03AD8000EDB806A5157
:1040900044EC31F0DFA203D032D8000EDB822FD8FF
:1040A000880E0101D625E96EEA6A020EEA22DFCF08
:1040B000EFFFD62B7ED76A5129D8DF50020AD3E012
:1040C000010A01E158D7070AD0E0010A01E174D7DB
:1040D000030A95E0010AB0E00F0AC7E0010AC5E053
:1040E000030AC7E06A2B2CEEA1F0DE506A5D01E204
:1040F00013D76251D96EDA6A6BC0DFFF12006B51C1
:104100006025D96E000E6121DA6E1200030DA20E39
:10411000F324D96E0C0EF420DA6E12006B51602578
:10412000E96E000E6121EA6EDFCFEFFF12006251EF
:10413000D96EDA6ADF5012000201B9A506D0800EEE
:104140000001A96F030EA86F030CB9C2AAF0030EF9
:104150000001AA1705E0800EA96F040EA86F040CD9
:104160008A86A851A91104E1C8D89EEC0BF006D0AC
:10417000A8C09EF0A9C09FF09EEC0BF00201AE0516
:104180000DE1010E0001626F220EE6EC69F0C3D86A
:10419000E6EC69F0AFD8E6EC69F010D0CBC262F083
:1041A000120EE6EC69F0CCC262F0130EE6EC69F098
:1041B000B2D8E6EC69F09ED8E6EC69F00201B9836A
:1041C000E70EB9170001A851A91105E182D8050E23
:1041D0004AEC38F02BD00201AE0509E1010E0001D6
:1041E000656F000E666F060E4AEC38F01FD0000EA9
:1041F0008ED84AEC38F00001A851AA6FA951AB6FD4
:10420000AC6BAD6B0C0ED8907DD8E82EFCD758D88F
:10421000EEEC15F01AEC4DF024EC09F00201BE5161
:10422000F5EC61F00201BE51D6EC51F05DD83AE0F8
:10423000C35102E153D80BE339D82CEC38F01AEC17
:104240004DF00C0E44EC24F0E82EFCD713D0C0C285
:10425000AAF0C1C2ABF0C2C2ACF0C3C2ADF00C0E4A
:10426000D89000014FD8E82EFBD72AD8EEEC15F0F5
:104270001AEC4DF060C0AEF061C0AFF062C0B0F0BB
:1042800063C0B1F0AEC06DF0AFC06EF0B0C06FF003
:10429000B1C070F00201BF51F5EC61F00201BF51F5
:1042A000D6EC51F00001A86BA96B1200C0C260F0FF
:1042B000C1C261F0C2C262F0C3C263F000017D0CF2
:1042C000AAC060F0ABC061F0ACC062F0ADC063F0FA
:1042D0001200AEC265F0000E666F000CC029FF0E22
:1042E000C1590F0EC25912000201C051C111C211B1
:1042F000C31112000001626B410C000E9F6F040E8F
:104300009E6F040CAA37AB37AC37AD3712000001F3
:10431000656F666F050C0001626B400C0001A96FB0
:10432000FACCE8FF010A02E1DBEC59F0340EE8CFE9
:10433000FEFCE2D872EC6DF0000EB5D8CFD8C5D82F
:10434000E8CFDEFCE8CFDFFCA5D8B6D8E8CFDCFCB0
:10435000E8CFDDFC010EE8CFE5FC000EE8CFE6FC7F
:10436000E8CFDAFCE8CFDBFCE8CFF8FCE8CFF9FCDB
:10437000ACD82BEEF9F0DF9496D8E8CFF6FBE8CF77
:10438000F7FB070EE8CFE1FC000EE8CFE0FC010EE2
:10439000E8CFE3FCE8CFE2FCFF0EE8CFEAFC2CEE2E
:1043A0009EF0A9C0DFFF000EE8CF08FC100EE8CF9A
:1043B000F7FCE80E000162D850EC24F000EC57F056
:1043C000020EE8CF12FCC00EE8CF0EFC720EE8CF52
:1043D0000FFCEB0EE8CF10FC360EE8CF11FC010EFF
:1043E000E8CFEBFC020EE8CFE9FC77EC48F0000EDA
:1043F000E8CF9FFCE8CFA0FC130E606F0C0E68ECBA
:1044000065F0690E646F65EC67F06FD8D00EE8CF89
:1044100090FC070EE8CF91FC880EE8CF92FC130EBB
:10442000E8CF93FC700EE8CF94FC170EE8CF95FC14
:10443000D00EE8CF9AFC070EE8CF9BFC200EE8CF09
:104440009DFC400EE8CF9CFC000EE8CF96FC400E91
:10445000E8CF97FC000EE8CF98FC400EE8CF99FC1F
:10446000000EE8CFFFFC9F6B9E6BD2EC2DF02BEE85
:10447000FAF0DF862BEEFAF0DF881200796F090E72
:104480007A6FC00E7B6F720E7C6FEB0E7D6F360EF7
:104490007E6F360CE8CF00FCE8CF01FCE8CF02FCD1
:1044A000E8CF03FC1200E8CFF8FBE8CFF9FBE8CF38
:1044B000FAFBE8CFFBFB1200E8CFFCFBE8CFFDFBEB
:1044C000E8CFFEFBE8CFFFFB1200E8CFD2FCE8CF3D
:1044D000D3FCE8CFD4FCE8CFD5FC1200FF0EE8CF28
:1044E000E7FC000EE8CFE8FC000CE80EE8CF8EFCFD
:1044F000030EE8CF8FFC030C2CEEFEF0DF50120011
:104500009E96C6AEC7D0C69E0101D36BC7EC62F0C3
:10451000DECF04F0DDCF05F004C0D9FF05C0DAFF1F
:10452000010EDF6EC36BC46B120036B2120034C0D2
:10453000C3F135C0C4F134C0D9FF35C0DAFFDF5054
:10454000D26F20EE01F03450D9263550DA22DECF7A
:10455000C5F1DDCFC6F1050E3426000E3522EC0E76
:10456000341807E1020E351804E1E70E346E020E2E
:10457000356E36903250341804E13350351801E16D
:104580003682C580020ED36F020CC5AC04D014D0A5
:10459000040EB3EF62F0D890DD31056EDC31046EAD
:1045A0000450C96EDCA103D00B0ED36F0B0C030EAD
:1045B000D36F030CC5AC02D0382AEAD7C582DD51CF
:1045C000060B046E056AF00E0410DC6F0550DD6FFB
:1045D000DC81010ED06FD6D7D00514E0C5C1D9FF5C
:1045E000C6C1DAFFDECFDCF1DDCFDDF120EE03F076
:1045F0006CD8DECF92F2DDCF93F220EE02F065D8D8
:10460000DF50D16FDCC1C9FFDCA1D1D7050ED36F5C
:10461000050CC5AC05D0382AC59C050EB3EF62F079
:10462000D107D12907E17EEC6AF0D22F01D02BD03F
:10463000C582A8D74FD8DF50C96E0201924B932B89
:104640001200C5AC06D0382A040EB3EC62F0C59C4B
:104650001200C586080ED36F080C080ED36FC586EE
:10466000080C38D8C9CFDFFF0201924B932B010110
:10467000D10704E0C59A060ED36F03D0C58A75EC46
:104680006AF0C5881200000EB3EF62F0382A060EF9
:10469000B3EF62F00101D35101E147D7010AC8E04D
:1046A000030A9AE0010AB5E0070AEDE0010AC9E051
:1046B000030AD3E0010AE7E00F0AD3E0020A01E1AE
:1046C00064D7010A01E176D7E1D7C551D926C65191
:1046D000DA22120092C2D9FF93C2DAFF120002015D
:1046E000B9A506D0800E0001A96F030EA86F030CB8
:1046F000B9C2ABF0030E0001AB1705E0800EA96F45
:10470000040EA86F040C0201AE5109E1400E000135
:10471000AA6505D0800EA96F020EA86F020C8A86CA
:104720000201BD5183EC6CF07DEC21F09EEC0BF0AE
:104730000201AE051EE1AAC062F0220EE6EC69F0AD
:104740000A0E64EC68F0B76FF00EB717B787B7C002
:1047500062F00A0EE6EC69F0400E0001626FE6ECD2
:1047600069F07AEC21F0E6EC69F094D84AEC38F084
:1047700008D08BEC21F0E6EC69F07AEC21F0E6EC65
:1047800069F00201AE5105E1AAC062F0000EE6EC4C
:1047900069F025EC6EF0800E77EC6DF00001B86BDF
:1047A0000BD0B851A825D96E000EA921DA6EDF50C2
:1047B00077EC6DF00001B82BAA51B85DF2E323EC61
:1047C0006EF00201B981E70EB9177EEC65F0030EB9
:1047D0004AEC38F000016D6B6E6B0A0E6F6F706BF8
:1047E0000201BD51F5EC61F00201BD51D6EC51F072
:1047F00074EC21F045E0C35103E16EEC21F00BE3D2
:1048000056EC21F02CEC38F01AEC4DF00C0E3CD8A4
:10481000E82EFDD71DD0C0C2ABF0C1C2ACF0C2C201
:10482000ADF0C3C2AEF00C0ED8900001AB37AC3780
:10483000AD37AE37E82EF8D7ABC060F0ACC061F052
:10484000ADC062F0AEC063F0EEEC15F01AEC4DF0C6
:1048500060C0B3F061C0B4F062C0B5F063C0B6F040
:10486000B3C06DF0B4C06EF0B5C06FF0B6C070F0FC
:104870000201BF51F5EC61F00201BF51D6EC51F0DD
:104880000001A86BA96B1200D890603761376237BE
:1048900063371200AEC265F0010E0001666F010CB5
:1048A0007BC096F27CC097F27DC098F27EC099F2F0
:1048B000A80E02019A6F610E9B6F9C6B9D6B500E50
:1048C0009E6FC30E9F6FA06BA16B010EAE6F070EA4
:1048D000B06F010EB16FB76FB86BA36B080EA26F0C
:1048E0000C0EAF6F010EB26FB36FB66BC10EA56F3A
:1048F000940EA66FC10EA76F030EAD6F340EA46F9A
:10490000B96BBA6B79C0BBF27AC0BCF2B46BB56B51
:10491000800EC86FC96F980EC06F3A0EC16FC26B20
:10492000C36B020ECA6F0B0ECB6F120ECC6FC56B32
:10493000C66BC45123E193EC5FF00201BD6F93ECB1
:104940005FF00201BE6F93EC5FF00201BF6FFA0EE1
:104950000001606FC40E616F626B0201BE5114EC06
:1049600061F07A0E606FC30E616F626B0201BF511E
:1049700014EC61F0010E0201C46F0BD0BD5183EC49
:104980006CF00201BE5183EC6CF00201BF5183EC6C
:104990006CF06AEC64F0000E0001656F010E666F4A
:1049A0004AEC38F04FD89DEC36F0420EA4EC0DF0F6
:1049B000E6EC69F03B0E64EC68F07F6F7FBBFAD7E2
:1049C000230E626F0C0EE6EC69F01E0E0001626FA2
:1049D0000D0EE6EC69F0AA0E0001626F1F0EE6EC08
:1049E00069F08F0E0001626F350EE6EC69F0000190
:1049F0006269320EE6EC69F0400E0001626F310E22
:104A0000E6EC69F0010E0001656F666F000E4AEC7E
:104A100038F093866186F19E0001806B05D081A6F7
:104A200002D0939603D0802B80AFF9D76196F18E98
:104A30006269230EE6EC69F0420E64EC68F0020154
:104A4000C76F120096C26DF097C26EF098C26FF0F9
:104A500099C270F01200EFC0D9FFF0C0DAFFDECFCC
:104A6000F3F0DDCFF4F0000120EE02F0C7D8DECF86
:104A7000F6F0DDCFF7F0010EF56FF969F3C0C5F080
:104A8000F4C0C6F04AEC3AF0F86FF6C0AEF0F7C0EA
:104A9000AFF0010EB06FAAEC3AF0C9EC4DF000098E
:104AA00008E0F6C066F0F7C067F075EC42F06651BA
:104AB000F96FF8AFF9BF92D0F56B6CD0F95102E104
:104AC00089908CD089808AD0F95102E1899286D070
:104AD000898284D0F95102E1899480D089847ED082
:104AE000F95102E189967AD0898678D0F95102E1AC
:104AF000899874D0898872D0F95102E1899A6ED070
:104B0000898A6CD0F95102E18D9068D08D8066D091
:104B1000F95102E18D9262D08D8260D0F95102E1AB
:104B20008C945CD08C845AD0F95102E18D9456D08B
:104B30008D8454D0F95102E18B9A50D08B8A4ED09B
:104B4000F95102E18C9A4AD08C8A48D0F95102E19D
:104B50008C9E44D08C8E42D0F95102E18C9C3ED088
:104B60008C8C3CD0F95102E1899E38D0898E36D0A8
:104B7000F95102E1899C32D0898C30D0F95102E19F
:104B80008A9C2CD08A8C2AD0F95102E18A9E26D0A8
:104B90008A8E24D0F85192E0010A96E0030A9AE046
:104BA000010A9EE0070AA2E0010AA6E0030AAAE0C1
:104BB000010AAEE00F0AB2E0010AB6E0030ABAE069
:104BC000010ABEE0070AC2E0010AC6E0030ACAE021
:104BD000010ACEE01F0AD2E0010AD6E0F551B3EC9B
:104BE00026F0DECFF1F0DDCFF2F020EE06F006D8B1
:104BF000F1C0DEFFF2C0DEFFDD6A1200EF51D92600
:104C0000F051DA221200EFC0D9FFF0C0DAFFDECF98
:104C1000F3F0DDCFF4F0010E0001F56FF769F3C09A
:104C2000C5F0F4C0C6F04AEC3AF0F66FF6BF80D09B
:104C30005AD0000E80B0010EF76F79D0000E80B20E
:104C4000010EF76F74D0000E80B4010EF76F6FD0B5
:104C5000000E80B6010EF76F6AD0000E80B8010E0C
:104C6000F76F65D0000E80BA010EF76F60D0000EAE
:104C700084B0010EF76F5BD0000E84B2010EF76FA7
:104C800056D0000E83B4010EF76F51D0000E84B4DD
:104C9000010EF76F4CD0000E82BA010EF76F47D0AD
:104CA000000E83BA010EF76F42D0000E83BE010ED4
:104CB000F76F3DD0000E83BC010EF76F38D0000EA9
:104CC00080BE010EF76F33D0000E80BC010EF76F6F
:104CD0002ED0000E81BC010EF76F29D0000E81BED0
:104CE000010EF76F24D0F651A4E0010AA7E0030AF1
:104CF000AAE0010AADE0070AB0E0010AB3E0030A46
:104D0000B6E0010AB9E00F0ABCE0010ABFE0030AFD
:104D1000C2E0010AC5E0070AC8E0010ACBE0030AC5
:104D2000CEE0010AD1E01F0AD4E0010AD7E0F56B1A
:104D3000F55109E0F55117D8DECFF1F0DDCFF2F0F3
:104D40001FD8DD6A120017D8F751A76FA86BA7BF4D
:104D5000A80721D8FEEC43F0A60EF16F060EF26F05
:104D60000FD8AAEF3DF0020D4E0EF324D96E020EBD
:104D7000F420DA6E1200A60EA56F060EA66F1200C2
:104D800020EE06F0EF51D926F051DA22F1C0DEFF15
:104D9000F2C0DEFF1200AA6B0A0EA96F0A0CA7D898
:104DA000DF50A66F9E4B9F2BA2D8FF0EDE14A26F82
:104DB000FF0EDE14A36FFF0EDE14A46F000EDE14D0
:104DC000A56FA2C092F0A3C093F0A4C094F0A5C0B8
:104DD00095F0640E2DEC09F0D4EC5BF092C0A2F0DB
:104DE00093C0A3F094C0A4F095C0A5F0030E9E2735
:104DF000000E9F237CD8DF50A16F9E4B9F2B606BD2
:104E0000A651C8EC69F000091DE1A2C060F0A3C082
:104E100061F0A4C062F0A5C063F0C3EC35F00009F6
:104E200002E06AD805E19AEC18F079EC18F0DF8E10
:104E3000A151ECEC63F0000905E19AEC18F079EC73
:104E400018F0DF8C9AEC18F079EC18F0DFAE40D057
:104E50009AEC18F079EC18F0DFAC3AD02CEEE4F0D4
:104E6000100EDF6018D048D811E037D8D2EC63F0CC
:104E7000A1C060F0A651DEEC3BF043D87CEC66F0BC
:104E8000010E606FA65179EC3BF021D0656BA65105
:104E900098EC62F01CD030D815E01FD8100FD2EC7F
:104EA00063F0A1C060F0A651100FDEEC3BF029D8F2
:104EB000100F7CEC66F0010E606FA651100F79ECBC
:104EC0003BF005D0656BA651100F98EC62F01ED830
:104ED0009EC09EF09FC09FF01200A2C060F0A3C0D1
:104EE00061F0A4C062F0A5C063F0A65112009EC09C
:104EF000D9FF9FC0DAFF1200A251A311A411A5117E
:104F00001200616B630E606FA65112002BEEF9F078
:104F1000DF861200B2D89E4B9F2BAD5189EC68F012
:104F2000F9E2A96BAA6BAB6BAC6BA86B2D0EAD193C
:104F300006E1010EA86FA1D89E4B9F2B03D02B0E2C
:104F4000AD19F9E0300EAD191DE197D89E4B9F2B9E
:104F5000A251A31104E0100EA219A3110DE1780EC5
:104F6000AD1903E0580EAD1907E1A36B100EA26F47
:104F700084D89E4B9F2B06D0A251A31103E1A36BB3
:104F8000080EA26FA251A31103E1A36B0A0EA26F38
:104F9000AD5105EC68F006E3AD5150EC6BF0C90F74
:104FA000AD6F06D0AD51AAEC69F031E3300EAD5FC4
:104FB000AD51A46FA56BA251A45DA551800AA66F47
:104FC000A351800AA65923E2A2C092F0A3C093F095
:104FD000000E93BFFF0E946F956FA9C096F0AAC004
:104FE00097F0ABC098F0ACC099F0D4EC5BF0AD5149
:104FF0009225A96F000E9321AA6F000E9421AB6F2A
:10500000000E9521AC6F39D89E4B9F2BC1D7A05174
:10501000A1110EE0FF0E9E25A46FFF0E9F21A56F2C
:10502000A0C0D9FFA1C0DAFFA4C0DEFFA5C0DDFF8C
:10503000A8511AE0A9C0A4F0AAC0A5F0ABC0A6F080
:10504000ACC0A7F0A41FA51FA61FA71FA42B000E6E
:10505000A523A623A723A4C09EF0A5C09FF0A6C0A9
:10506000A0F0A7C0A1F0000CA9C09EF0AAC09FF0BC
:10507000ABC0A0F0ACC0A1F012009EC0D9FF9FC091
:10508000DAFFDF50AD6F12000001B46FE9CCB3F06E
:10509000B40528E19ED8D3EC40F0B56FB55153E18B
:1050A0006DD8DFA8000E666F00016605D8A403D096
:1050B000020E686F01D0686B4DD8616F90D8D8B080
:1050C00002D0615101D06051676F91D8616F8BD868
:1050D000D8B002D0615101D060518CD866D8D6ECDE
:1050E0005CF031D0020EE8CFE9FC73D8D3EC40F08D
:1050F000B56F0A0ECCEC6DF0070E68EC6DF0000198
:10510000B55121E13BD8DFA8000E666F00016605AE
:10511000D8A403D0020E686F01D0686B1BD8616FF2
:105120005ED8D8B002D0615101D06051676F5FD8AE
:10513000616F59D8D8B002D0615101D060515AD8AE
:1051400034D8D6EC5CF02CEEE9F0B3C0DFFF000100
:10515000B55112002CEEF9F0DF50626F636BF20E66
:105160006225D96E030E6321DA6EDF50646FE9CCDD
:1051700065F06451655D606F685112002CEEE4F0DB
:10518000B6C0DFFFB651120DBC0EF324D96E080E67
:10519000F420DA6EDECF09FCDECF0AFCDECF0BFC9A
:1051A000DDCF0CFC2BEEFAF0010CB651120DB80E4F
:1051B000F324D96E080EF420DA6EDECF73F0DECF62
:1051C00074F0DECF75F0DECF76F02CEEE9F0DF5034
:1051D0001200B4C0A7F0B60EA86FA96B100C0001A6
:1051E0006151605D120000016051615D120067C095
:1051F00060F0050C626F62C00DFC1200A26F210E00
:105200000001A219D8A41200020EA76FA86BA36B0D
:10521000A46BA56BA66BA30E606F616BA851030D09
:105220009EC0A0F09FC0A1F0F350A027F450A1238E
:105230000D0EA025626F000EA121636FD2EC51F01C
:1052400081EC56F0A3C092F0A4C093F0A5C094F0F6
:10525000A6C095F0640E2DEC09F0D4EC5BF092C082
:10526000A3F093C0A4F094C0A5F095C0A6F0A351FC
:10527000A411A511A61146E0A3C060F0A4C061F07E
:10528000A5C062F0A6C063F0C3EC35F000093FE1B1
:1052900052D8F35044D8A3C0DEFFA4C0DEFFA5C09F
:1052A000DEFFA6C0DEFF47D8040EA027000EA12314
:1052B000F35035D84DD83FD845D831D8DF500F0BF3
:1052C0005009DF6E38D83ED82AD8F00EDF1633D812
:1052D0000A0EA027000EA123F35021D8630EDE6E24
:1052E000DD6A29D8110EA027000EA123F35017D88C
:1052F000DF68010E656FA851A72598EC62F086EC77
:1053000027F005D0656BA851A72598EC62F0A82B73
:10531000040EA8657CD72BEEF9F0DF86040CA027DD
:10532000F450A123A751120DF350A025D96EF450CB
:10533000A121DA6E1200A851120DB80EA06F080E4E
:10534000A16F1200090EA027000EA123F350120036
:10535000DE6ADE6ADE6ADD6A1200050EE126000EF4
:10536000E2222BEEF9F0DFB027D02BEEF9F0DFA42C
:1053700023D0FF0EE36A09D0FF0EE35086EC20F045
:10538000020EDE1807E0FF0EE32A2CEEA1F0FF0E5E
:105390007CD8F2E32CEEA1F0FF0EE350DE180CE116
:1053A0009AEC18F086EC20F0020EDF6E30EC1CF068
:1053B000DF6002D025EC1CF02BEEF9F0DFA434D036
:1053C0005FD802E157D80FE34CD87D0E00012CECDA
:1053D00038F01AEC4DF031EC38F00C0E50EC1EF0B9
:1053E000E82EFCD707D023D82CEC38F01AEC4DF07F
:1053F00031EC38F0FB0E50C0E3FFFC0E51C0E3FF70
:10540000FD0E52C0E3FFFE0E53C0E3FFE150FB0F61
:10541000D96EE2503AEC38F052EC2EF0F5EC61F037
:1054200052EC2EF0D6EC51F0FA0E46EF38F0D6CC16
:1054300050F0D7CC51F0D8CC52F0D9CC53F00C0E60
:10544000D8905036513652365336E82EF9D750C0E0
:1054500060F051C061F052C062F053C063F00001CF
:105460007D0CD6CC60F0D7CC61F0D8CC62F0D9CC32
:1054700063F01200DE28FF0EDE580F0EDE58120019
:105480002CEED6F0030EDB501200E3CF48F0DE50D6
:10549000485C1200E6522BEEF9F0DFB08BD008CC5E
:1054A000E8FF020A02E1AAEC6AF088D861E3DFECC7
:1054B0004CF0536E0D0E5326FF0E53C0E3FF2CEE3F
:1054C000DEF0E350496E4A6ADE50495CDE504A58CD
:1054D0003DE3010E44EC28F0000934E1D9EC4EF034
:1054E0006FEC23F0E0EC4EF02DE1F4EC15F0010947
:1054F000DF6EE3CCE8FF010FE8CFE3FC2CEEE3F036
:10550000DFB095EF62F02CEEE9F0DF5002E195EFAD
:1055100062F02CEEE3F0DF50496E4A6A2CEEE1F0C7
:10552000DF50526E536A522A000E532249505218CD
:1055300005E14A50531802E195EF62F0E3EC44F0C4
:1055400095EF62F0D4EC53F095EF62F05FEC6CF005
:105550000101BB51BC1102E195EF62F0F9EC15F0CD
:10556000040EC56F02D895EF62F00500FA6E1AD0EE
:1055700025D802E395EF62F02BEEF9F0DFB095EF5E
:1055800062F05FEC6CF00101BB51BC1102E195EFE0
:1055900062F0000EF9EC15F0C56B02D895EF62F0E1
:1055A0000500FA6E0101BB51FD6EBC51FE6EFF6A33
:1055B000FA5012005FEC6CF095EF62F02CEEE3F025
:1055C0000CEEE1F0DE50EE5C1200EFC0D9FFF0C04F
:1055D000DAFFDECFF3F0DDCFF4F0010E0001F56F5E
:1055E000F3C0C5F0F4C0C6F04AEC3AF0F66FF6BF6F
:1055F0005DD0710EF62577EC11F034EC49F0F5A48E
:1056000055D00001F56B38D0000E36EC63F02FD08A
:10561000010E36EC63F02BD0020E36EC63F027D08F
:10562000030E36EC63F023D0040E36EC63F01FD08B
:10563000050E36EC63F01BD0060E36EC63F017D087
:10564000160E36EC63F013D0070E36EC63F00FD075
:10565000110E36EC63F00BD0190E36EC63F007D068
:105660001B0E36EC63F003D01A0E36EC63F065C007
:10567000F7F066C0F8F01AD0F651C6E0010AC8E0AB
:10568000030ACAE0010ACCE0060ACEE0030AD0E031
:10569000010AD2E00F0AD4E0010AD6E0030AD8E0FA
:1056A000010ADAE0070ADCE0010ADEE00001F55158
:1056B0000AE0F551B3EC26F0DECFF1F0DDCFF2F0E9
:1056C00013D8DD6A1200BBEC26F0F7C0A7F0F8C0D3
:1056D000A8F0CBEC26F0FEEC43F0A60EF16F060E20
:1056E000F26F02D8AAEF3DF020EE06F0EF51D92676
:1056F000F051DA22F1C0DEFFF2C0DEFF1200010E2F
:105700000001F36F89D85ED884EC63F0000949E0AA
:105710006CD858D884EC63F0000943E07DD8DECF24
:105720009EF055D88AEC27F09E51F46F20EE02F0DF
:105730006AD8D0EC37F04BD88AEC27F09E51F56F41
:105740006BD8DECFF1F058D84AD840EC5DF0020EAD
:105750006019611126E1F45108E163D85DD857D88A
:105760003EEC49F0605161111CE13FD8DECFF1F011
:1057700043D835D840EC5DF0020E6019611111E19B
:10578000F55108E14ED831D842D83EEC49F060518D
:10579000611107E1F5C062F0F451E6EC69F0000137
:1057A000F36BF3516AEC48F0DECFF1F0DDCFF2F0AD
:1057B00020EE06F028D8DA22F1C0DEFFF2C0DEFFCC
:1057C000DD6A1200DECF66F0DDCF67F01200DDCFBC
:1057D0009FF0A06BA16BA36B100EA26F100C605119
:1057E0006111D8A4200E626F120020EE02F0EF517A
:1057F000D926F051DA221200DDCFF2F0F1C060F0CC
:10580000F2C061F01200EF51D926F0511200DECF44
:1058100062F0DDCF63F01200EFC0D9FFF0C0DAFF15
:105820001200490E606FFF0E616F12000EEC66F001
:10583000D8EC6DF0D00E0001646FC50E656F8EEC74
:105840005CF0C4EC6DF0F28EF28C010E0001616F21
:10585000B70E606FB7EC6AF004015A6F5B6B010E14
:105860000001616FB80E606FB7EC6AF00401596F08
:1058700059515B275A2902E15B292DE0B3EC0DF069
:10588000AAC055F4ABC056F4040155515A1903E1AE
:1058900056515B192CE0020E8EEC21F053D874ECBB
:1058A00052F04AD8B3EC64F052D86DEC6DF00401BC
:1058B0005C6B5D6B5CC460F05DC461F000016269AB
:1058C00036EC5FF004015C4B5D2BB90E5C5D010EA4
:1058D0005D590DE2EFD7020E8EEC21F033D874EC57
:1058E00052F02AD8B3EC64F032D86DEC6DF01ED8CB
:1058F00097EC44F0C1EC1AF040EC5DF060C057F456
:1059000061C058F4FCEC1AF0D8A4200E686F57C49C
:1059100069F058C46AF02DEC4CF048EC60F0CEEC25
:1059200062F003EC3DF040EC52F0F7D7A60E000118
:105930006B6F060E6C6F1200450E00016B6F040E4C
:105940006C6F1200450E6F6F040E706F1200616B6A
:10595000010E606F010CB46BB56BA2390F0BB36F06
:10596000AA51010DF350AB27F450AC23010EB46FD4
:105970002FD057D823EC3FF064D83EEC68F00001FC
:10598000B56BB451AE6FAF6BAE3BAF3BF00EAF1724
:10599000AE510F0BAF13F00EAE17A0C0B0F0A1C008
:1059A000B1F0AE51B027AF51B123B551B027000EC1
:1059B000B123F00EB025D96EFF0EB121DA6EDF50A3
:1059C000B26F51D8B21946D80F0EB565DAD7B42BDD
:1059D000B451B35DCEE24FD8D8B40F0C22D823EC2B
:1059E0003FF02FD83EEC68F00001B56B15D0B351F5
:1059F000100DA0C0AEF0A1C0AFF0F350AE27F45030
:105A0000AF23B551AE25D96E000EAF21DA6EDF504F
:105A1000B06F29D8B0191ED82ED8AE51B55DE7E3C6
:105A20001200A4C06BF0A5C06CF0A6C06DF0A7C0BA
:105A30006EF0B4C06FF0010E706FADC071F0A35185
:105A40001200CD0E8C6F020E8D6FA8C08EF0A9C013
:105A50008FF01200ABC0D9FFACC0DAFFDF6EAB4BEA
:105A6000AC2BB52B1200CD0EB525D96EDA6A020E1D
:105A7000DA22DF501200A2C0AEF00F0EAE170F0CEC
:105A80006051D96EDA6A0D0E60D8635186D80E0E59
:105A90005CD8D92A635181D80F0E57D8020ED92667
:105AA00063517BD80C0E51D8030ED926635175D89B
:105AB0004550DF1A7F0E45640CD01B0E45C061F0C7
:105AC000626BD890613762376119646F6251656F9C
:105AD00005D0D8904534646F656B653764C045F078
:105AE0006051D96EDA6A53D8040E43D8D92A4FD8F8
:105AF000050E3FD8020E44D8060E3BD8030E40D800
:105B0000070E37D8040E3CD8080E33D8050E38D807
:105B1000090E2FD8060E34D80A0E2BD8070E30D80F
:105B20000B0E27D8080E2CD80C0E23D8090E28D817
:105B30000D0E1FD80A0E24D80E0E1BD80B0E20D81F
:105B40000F0ED9266151DF1A1200D926DF50616F7E
:105B5000626B710E6125F66EF50E6221F76EF86AC2
:105B6000000EF8220800F5CF63F06051D96EDA6AB2
:105B70001200D9266151DF1A6051D96EDA6A12001B
