:040000000CD0000020
:020008007FD1A6
:100018007FD194908B80730ED36EF86A030EF76EBF
:10002800000EF66EFC0E0B6EFE0E0A6E15EC01F05D
:10003800FE0EF66EFF0EF76E0900F550001804E18B
:100048000900F55001184AE03CD80400ACA2FDD7DD
:10005800B880B8A005D0B8AEFCD7B890B89EF5D790
:10006800AE50AE5000EE09F0090E026E22D80550CF
:10007800EE6EE9500B0A0BE10950020A06E009503E
:10008800050A03E00950070A02E10A500226022E77
:10009800EDD726D8026E550E07D800EE09F0EE50BF
:1000A80003D8022EFCD7D1D704009EA8FDD7AD6E89
:1000B80012000400ABB2FF009EAAFED7AE50056E38
:1000C80012008B8C948C948E0F013A9D3A9F900E5F
:1000D800AB6E260EAC6E080EB86E12008B900CD16B
:1000E8000E50F66EA96E0F50F76E10C0F8FF00EEB6
:1000F80012F00A50026E0950090803E2FF0E096E59
:10010800010CFB6A010EFA6E09441A0FD8B0FA2ADC
:10011800F96E09D044D04BD05AD064D06DD03FD0BE
:1001280076D07FD0FF00010E126E010E136E146A96
:10013800156A166A176A3F0EF86EFF0EF76EFE0E06
:10014800F66E0900F5CF18F00900F5CF19F01A6A14
:100158001B6A400E1C6E400E1D6E200EF86EF76A6C
:10016800F66A0900F5CF1EF009001E38F5101E6E5C
:100178000900F5CF1FF009001F38F5101F6E0900A0
:10018800F5CF20F009002038F510206E0900F5CFD2
:1001980021F009002138F510216E190E120009000E
:1001A800F5CFEEFF022EFBD70A50090F1200EECF53
:1001B800F5FF0D00024E03D0F6503F0BF8E10A00A0
:1001C800840EA66E49D809000252F1E141D0940E7E
:1001D800A66E42D8400EF626E86AF722F822022ECA
:1001E800F6D736D0A66AA680A8CFEEFFA92A022E97
:1001F800F9D70A50090F1200EECFA8FF040EA66E19
:100208002BD8A6B2FED7A92A022EF6D721D0C40E23
:10021800A66EEECFF5FF0C001FD80900022EF7D707
:1002280017D0006A016A0A900A52D8A40B2A09005A
:10023800F55000260900F5500122020E0A5EF7E18A
:100248000B2EF5D700C0EEFF01C0EEFF0B0E12001B
:10025800010E126E0A0E120004000C50A76E0D500B
:08026800A76EA682000012003F
:10030000D7EF01F0FFFFFFFF5A82FACF2AF0FBCFB1
:100310002BF0D9CF2CF0DACF2DF0F3CF2EF0F4CF95
:100320002FF0F2BC9DA005D09EA003D048EC74F045
:1003300030D0F2BC9DAA05D09EAA03D03AEC5DF065
:1003400028D0F2BC9DA805D09EA803D000EC70F088
:1003500020D0F0B6F0A003D04DEC75F01AD0F0B874
:10036000F0A203D04AEC75F014D0F2B6F2A003D09C
:100370001CEC74F00ED0F2BC9DA605D09EA603D056
:1003800053EC25F006D0F2BCA0A603D0A1B68EECAB
:1003900075F02FC0F4FF2EC0F3FF2DC0DAFF2CC084
:1003A000D9FF2BC0FBFF2AC0FAFF5A9211007AEF47
:1003B0003EF0020113BFF1EF05F00001C66BC76B01
:1003C000C86BC96BCA6BCF69D069D169D2690201A8
:1003D000D66B1351F10B0409136FBFC2D3F011A5F3
:1003E000B6D1290E2325F66EF76AF80EF722F86AC1
:1003F000000EF8220800F5CFA4F080510001A425DA
:10040000A56F000EA4BFFF0E020181210001A66F9F
:10041000A76BA86B0C0ED890A537A637A737A837BF
:10042000E82EF9D7A5C060F0A6C061F0A7C062F0C1
:10043000A8C063F07D0E646F656B666B676B15EC2F
:100440005AF060C06DF061C06EF062C06FF063C0C2
:1004500070F00201C751BAEC68F0290E020128259C
:10046000F66EF76AF80EF722F86A000EF822080016
:10047000F5CFA4F082510001A425A56F000EA4BF02
:10048000FF0E020183210001A66FA76BA86B0C0E63
:10049000D890A537A637A737A837E82EF9D7A5C033
:1004A00060F0A6C061F0A7C062F0A8C063F07D0E46
:1004B000646F656B666B676B15EC5AF060C06DF02E
:1004C00061C06EF062C06FF063C070F00201C8518D
:1004D000BAEC68F00201C7515FEC56F00201C85156
:1004E0005FEC56F0D3510E0D060EF324D96E050EB7
:1004F000F420DA6EDE50DE1001E18FD0A2C0A4F04D
:10050000A3C0A5F00201C0510001A66F0201C151B4
:100510000001A76FA86BA96BD60EA603F3CFAAF0B4
:10052000F4CFABF0AC6BAD6BA703F350AB27F4503B
:10053000AC23000EAD230B0EA603F350AB27F450F3
:10054000AC23000EAD23D60EA803F350AC27F45015
:10055000AD230B0EA703F350AC27F450AD23000ED0
:10056000A603F350AC27F450AD23D60EA903F350E5
:10057000AD270B0EA803F350AD27000EA703F350D1
:10058000AD27000EA603F350AD27FF0EAA25AE6FD0
:10059000FF0EAB21AF6FFF0EAC21B06FFF0EAD2190
:1005A000B16FAE51A403F3CFB2F0F4CFB3F0B46B9C
:1005B000B56BA503F350B327F450B423000EB52355
:1005C000AF51A403F350B327F450B423000EB52366
:1005D000AF51A503F350B427F450B523B051A40391
:1005E000F350B427F450B523B051A503F350B52709
:1005F000B151A403F350B527D3510E0D080EF324C7
:10060000D96E050EF420DA6EB2C0DEFFB3C0DEFF95
:10061000B4C0DEFFB5C0DEFF1CD1A2C0A4F0A3C0F1
:10062000A5F022EEC0F0DECFA6F0DDCFA7F0D351CB
:100630000E0D060EF324D96E050EF420DA6EDECF11
:10064000A8F0DDCFA9F0A851AA6FA951AB6FAC6B90
:10065000AD6BAA29AE6F000EAB21AF6F000EAC21BF
:10066000B06F000EAD21B16FAE51A603F3CFB2F063
:10067000F4CFB3F0B46BB56BA703F350B327F450CA
:10068000B423000EB523AF51A603F350B327F450A3
:10069000B423000EB523AF51A703F350B427F45091
:1006A000B523B051A603F350B427F450B523B0518D
:1006B000A703F350B527B151A603F350B527FF0E9A
:1006C000B225B66FFF0EB321B76FFF0EB421B86F1E
:1006D000FF0EB521B96FB651A403F3CFBAF0F4CF32
:1006E000BBF0BC6BBD6BA503F350BB27F450BC2320
:1006F000000EBD23B751A403F350BB27F450BC2315
:10070000000EBD23B751A503F350BC27F450BD2301
:10071000B851A403F350BC27F450BD23B851A5032E
:10072000F350BD27B951A403F350BD27D3510E0D8B
:10073000080EF324D96E050EF420DA6EBAC0DEFF7F
:10074000BBC0DEFFBCC0DEFFBDC0DEFF82D0290E15
:100750002325F66EF76AF80EF722F86A000EF822E3
:100760000800F5CFA4F07C510001A425A56F000E70
:10077000A4BFFF0E02017D210001A66FA76BA86B2D
:100780000C0ED890A537A637A737A837E82EF9D78B
:10079000A5C060F0A6C061F0A7C062F0A8C063F079
:1007A0007D0E646F656B666B676B15EC5AF060C00D
:1007B0006DF061C06EF062C06FF063C070F0020156
:1007C000C951BAEC68F0290E02012825F66EF76AC5
:1007D000F80EF722F86A000EF8220800F5CFA4F010
:1007E0007E510001A425A56F000EA4BFFF0E0201DB
:1007F0007F210001A66FA76BA86B0C0ED890A537C0
:10080000A637A737A837E82EF9D7A5C060F0A6C04D
:1008100061F0A7C062F0A8C063F07D0E646F656BE5
:10082000666B676B15EC5AF060C06DF061C06EF0DE
:1008300062C06FF063C070F00201CA51BAEC68F098
:100840000201C9515FEC56F00201CA515FEC56F04B
:10085000E4D60201CE5144EC71F0000901E1C8D0A8
:100860000201CE51F8EC71F00201CE5139EC69F081
:1008700089C0CBF08AC0CCF08BC0CDF08CC0CEF05C
:10088000CE5107E11F0ECB5DAC0ECC59DF0ECD591A
:100890004AE3CBC0A4F0CCC0A5F0CDC0A6F0CEC03A
:1008A000A7F00D0E05D0D890A733A633A533A433F7
:1008B000E82EF9D77D0EA403F3CFA8F0F4CFA9F06A
:1008C000AA6BAB6BA503F350A927F450AA23000E23
:1008D000AB23A403F350A927F450AA23000EAB23A3
:1008E0007D0EA603F350AA27F450AB23000EA503F8
:1008F000F350AA27F450AB23000EA403F350AA2709
:10090000F450AB237D0EA703F350AB27000EA603D4
:10091000F350AB27000EA503F350AB27000EA40342
:10092000F350AB2749D0CBC0A4F0CCC0A5F0CDC0CC
:10093000A6F0CEC0A7F07D0EA403F3CFA8F0F4CFAD
:10094000A9F0AA6BAB6BA503F350A927F450AA2317
:10095000000EAB23A403F350A927F450AA23000EE2
:10096000AB237D0EA603F350AA27F450AB23000E51
:10097000A503F350AA27F450AB23000EA403F350B1
:10098000AA27F450AB237D0EA703F350AB27000E2C
:10099000A603F350AB27000EA503F350AB27000EC0
:1009A000A403F350AB270D0E05D0D890AB33AA3378
:1009B000A933A833E82EF9D7A8C0BEF0A9C0BFF06C
:1009C000AAC0C0F0ABC0C1F0BE510201AD5D0001D4
:1009D000C76FBF510201AE590001C86FC05102017B
:1009E000AF590001C96FC1510201B0590001CA6F6E
:1009F000D36BD3510E0D040EF324D96E050EF420E3
:100A0000DA6EDE0401E087D0D3510E0D080EF32418
:100A1000D96E050EF420DA6EDE50DE10DE10DE1028
:100A20007AE0D3510E0D080EF324D96E050EF42092
:100A3000DA6EDE50C75DDE50C859DE50C959DE504F
:100A4000CA592DE2D3510E0D080EF324D96E050EAE
:100A5000F420DA6EDECFA4F0DECFA5F0DECFA6F074
:100A6000DECFA7F0C751A45DA86FC851A559A96FE3
:100A7000C951A659AA6FCA51A759AB6FD3510E0DD0
:100A8000080EF324D96E050EF420DA6EA8C0DEFF3E
:100A9000A9C0DEFFAAC0DEFFABC0DEFF0CD0D35181
:100AA0000E0D080EF324D96E050EF420DA6EDE6A00
:100AB000DE6ADE6ADD6AD3510E0D080EF324D96EAC
:100AC000050EF420DA6EDE50CF5DDE50D059DE50D8
:100AD000D159DE50D2591FE3D3510E0D080EF32425
:100AE000D96E050EF420DA6EDE50DE10DE10DE1058
:100AF00012E0D3510E0D080EF324D96E050EF4202A
:100B0000DA6EDECFCFF0DECFD0F0DECFD1F0DECFA9
:100B1000D2F0010EC66FD32B0F0ED3656AD7C60570
:100B2000D8A41200CFC0ADF2D0C0AEF2D1C0AFF2A7
:100B3000D2C0B0F2D25106E1CF29FF0ED0590F0E2C
:100B4000D15918E3CFC060F0D0C061F0D1C062F0DD
:100B5000D2C063F07D0E646F656B666B676B15ECDE
:100B60005AF00C0ED8906037613762376337E82E41
:100B7000F9D71FD0CFC0A4F0D0C0A5F0D1C0A6F047
:100B8000D2C0A7F00C0ED890A437A537A637A73748
:100B9000E82EF9D7A4C060F0A5C061F0A6C062F04D
:100BA000A7C063F07D0E646F656B666B676B15ECB9
:100BB0005AF060C0C2F061C0C3F062C0C4F063C04C
:100BC000C5F0C2C06DF0C3C06EF0C4C06FF0C5C048
:100BD00070F00201CE51BAEC68F00201CE515FEF25
:100BE00056F044EC75F00001A46FA4A90FD0906BEF
:100BF000916B926B020E936F0500FA6E0101B45176
:100C0000FD6EB551FE6EFF6AFA5012000101B4513B
:100C1000B511D8B412000001906B916B926B030E6A
:100C2000936F0500FA6E0101B451FD6EB551FE6E71
:100C3000FF6AFA5012003EEC75F0020113BF97D321
:100C400066C1D9FF67C1DAFFDF500101726F7239E7
:100C5000E832070BE80601E0C4D00201295101E0A7
:100C6000C0D001016805786F1FD06851662500016A
:100C7000E96F000E010167210001EA6F010178515F
:100C80000001E95D8C6FEA51D8A0EA058D6F4E0E28
:100C90008E6F020E8F6FECEC6FF0100E0101786515
:100CA00002D0785F01D0786B7851DFE14E0E000101
:100CB000D66F020ED76F66C1D8F067C1D9F00101B7
:100CC0006851FC0F0001DA6F6AEC63F0D6C074F172
:100CD000D7C075F1D8C076F1D9C077F166C16BF095
:100CE00067C16CF068C16DF078EC68F06BC06BF1B7
:100CF0006CC06CF16DC06DF16EC06EF1010174518C
:100D00006B1909E175516C1906E176516D1903E112
:100D100077516E1911E002011331070B050A02E148
:100D2000BCEF70F01331070B030AD8A41200D651A0
:100D3000D8B41200BCEF70F002011331070B030AA4
:100D400003E1C851F8EC71F066C17AF167C17BF13B
:100D5000010120EE07F07A51D9267B51DA22DECF4D
:100D60002AF2DECF2BF2DECF2CF2DECF2DF220EEF8
:100D70000CF07A51D9267B51DA22DF500F0B11EC9F
:100D800065F0010120EE0BF07A51D9267B51DA2271
:100D9000DF38070B0001606F010120EE0BF07A5184
:100DA000D9267B51DA22DF500F0BB6EC72F07AC1F4
:100DB0006CF07BC16DF0010168513CEC29F07AC107
:100DC000A0F07BC1A1F02BEC58F0BAEC42F002018C
:100DD000176B186B196B1A6B1B6B1C6B1D6B1E6BE7
:100DE000120001017239E832070B030A07E0723979
:100DF000E832070B050A02E070EF62F002018C6B2B
:100E000066C17CF167C17DF1010120EE01F07C51EA
:100E1000D9267D51DA2202012A51DE1809E12B512F
:100E2000DE1806E12C51DE1803E12D51DE1802E038
:100E300070EF62F0010120EE06F07C51D9267D5161
:100E4000DA22DECFE9F0DDCFEAF0E9C06BF0EAC0EC
:100E50006CF000016D6B6E6B01016851FC0F0001BD
:100E60006F6F490E706F010E80EC54F03A0E606F98
:100E70000A0E616F980E626F030E636F656B100E42
:100E8000646F2DEC60F04A0E606F0A0E616F66C1F0
:100E900062F067C163F0FC0E010168250001646F18
:100EA000656BFF0E65232DEC60F02E0EC86F020EF1
:100EB000C96F980ECA6F030ECB6F3A0ECC6F0A0E35
:100EC000CD6F010168510C0F0001CE6F50EC19F08D
:100ED000740E606F010E616F980E626F030E636F88
:100EE000656B040E646F2DEC60F066C16BF067C13A
:100EF0006CF068C16DF078EC68F06BC06BF16CC0A1
:100F00006CF16DC06DF16EC06EF101016B51741921
:100F10008FE16C5175198CE16D51761989E16E5133
:100F2000771902E070EF62F020EE06F07C51D926CE
:100F30007D51DA2202011B51DE5C1C51DE5846E372
:100F4000010120EE06F07C51D9267D51DA22DECF58
:100F5000E9F0DDCFEAF002011B510001E95F020177
:100F60001C510001EA5BE9510201845D0001EA5174
:100F7000020185591FE21191F10E13170101B451BD
:100F8000B51114E00201119B000E0001906B916BF2
:100F9000926B936B01D80AD00500FA6E0101B4512F
:100FA000FD6EB551FE6EFF6AFA50120002011491F7
:100FB00015811200010120EE06F07C51D9267D51E9
:100FC000DA22DECF1BF2DDCF1CF221D0010120EEB0
:100FD00006F07C51D9267D51DA22DE50DE1002E087
:100FE00070EF62F002011B2902E11C29D8A470EF06
:100FF00062F0010120EE06F07C51D9267D51DA2203
:10100000DECF1BF2DDCF1CF202011D4B1E2B0101B6
:10101000C56BC46B02011B2906E11C2904E11D29D3
:1010200002E11E29C5E01331070B030A03E1CA518F
:10103000F8EC71F0010E0201BD6F7CC160F07DC162
:1010400061F08DEC5EF0010120EE05F07C51D926B7
:101050007D51DA22DF500F0B34E020EE05F07C5199
:10106000D9267D51DA22DF500F0B7C250001E96F74
:10107000000E01017D210001EA6F080EE925D96EFD
:10108000000EEA21DA6EDF5020E0080E01017C2517
:101090000001766F000E01017D210001776F0101D3
:1010A00020EE05F07C51D9267D51DA22DF500F0B5E
:1010B0000001786F4DEC27F076C066F177C067F1DC
:1010C00004D0080E6627000E672301016851000155
:1010D000E96FEA6B010120EE05F07C51D9267D51C4
:1010E000DA22DF500F0B0001EB6FEC6B0C0EEB27DD
:1010F000000EEC23E951EB1904E1EA51EC1901E18E
:101100009BD066C1D9FF67C1DAFFDF500101696F6B
:10111000664B672B20EE05F07C51D9267D51DA22F3
:10112000DF500F0B0001E96FE9510101685DF40F19
:10113000796F20EE05F07C51D9267D51DA22DF50FF
:101140000F0B190F6A6F695125E066C1A0F067C1E6
:10115000A1F079050001A26F010EA36F1BC2A4F0DC
:101160001CC2A5F01DC2A6F01EC2A7F03E0EA86FBD
:10117000020EA96F6AC1AAF03A0EAB6F0A0EAC6FED
:1011800015EC34F0FF0E01016625706FFF0E67212C
:10119000716F56D068510001E96FEA6B010120EED2
:1011A00005F07C51D9267D51DA22DF500F0B00016A
:1011B000EB6FEC6B0D0EEB27000EEC23E951EB5DB2
:1011C000EC51800AED6FEA51800AED5935E266C1B3
:1011D000A0F067C1A1F0010179050001A26F010E25
:1011E000A36F1BC2A4F01CC2A5F01DC2A6F01EC2B4
:1011F000A7F02E0EA86F020EA96F6AC1AAF03A0ED0
:10120000AB6F0A0EAC6F15EC34F0010120EE05F067
:101210007C51D9267D51DA22DF500F0B0DE166C1DA
:1012200076F067C177F079050001786F4DEC27F013
:1012300076C066F177C067F10101796B706B716BF5
:10124000010E0201BD6FB56BB66BD36B11991481A2
:1012500011A14ED0010120EE05F07C51D9267D511F
:10126000DA22DFAAD3EF5BF002011191010E010136
:101270006F6FF10E020113170101B451B51116E0A1
:101280000201119B70C190F071C191F079C192F08F
:101290006FC193F001D80AD00500FA6E0101B45174
:1012A000FD6EB551FE6EFF6AFA50120002011491F4
:1012B00013B911BB120011B302D011A71200010E15
:1012C0000001756F730E766F010E776F0201D251B8
:1012D0002BEC43F0000902E0F6EF35F0000EE26F70
:1012E000E36FE46FE56FACEC4BF002011197120075
:1012F000010E01016F6FF10E020113170101B451CC
:10130000B51116E00201119B70C190F071C191F00E
:1013100079C192F06FC193F001D80AD00500FA6E3E
:101320000101B451FD6EB551FE6EFF6AFA50120014
:10133000020113B911BB120011B302D011A71200A0
:10134000010E0001756F730E766F010E776F02014B
:10135000D2512BEC43F0000902E0F6EF35F0000E1D
:10136000E26FE36FE46FE56FACEC4BF0BED70101C9
:10137000B451B511D8B4120044EC75F00001E96F16
:10138000E9B712D066C190F067C191F068C192F0E0
:10139000030E936F0500FA6E0101B451FD6EB55155
:1013A000FE6EFF6AFA50120066C190F067C191F0BC
:1013B00068C192F0020E936F0500FA6E0101B451FC
:1013C000FD6EB551FE6EFF6AFA5012003C6A3D6A2E
:1013D0000001616B606BD0EC72F00101BE6F3C4AA2
:1013E0003D2ABEC10BF202010C6B0101BE51C3ECE0
:1013F00032F03CC060F03DC061F0D0EC72F0010111
:10140000BE6F3C4A3D2ABE5102010B27000E0C2341
:101410000101B86BB96BB9511EE1040EB85D1BE256
:10142000B851300FD96EDA6A3CC060F03DC061F04F
:10143000D0EC72F0DF6E3C4A3D2A0101B851300F0A
:10144000D96EDA6ADF5002010B27000E0C2301016E
:10145000B84BB92BE0D730C065F031C066F032C070
:1014600067F033C068F0BEC169F058EC66F03CC06C
:1014700060F03DC061F0D0EC72F00101BE6F3C4AFB
:101480003D2ABE5102010B27000E0C230101BE5163
:10149000B9EC74F0BEC1A4F00101B86BB96BB951DD
:1014A0001EE1040EB85D1BE2B851300FD96EDA6A46
:1014B0003CC060F03DC061F0D0EC72F0DF6E3C4AA1
:1014C0003D2A0101B851300FD96EDA6ADF500201AE
:1014D0000B27000E0C230101B84BB92BE0D730C00D
:1014E00060F031C061F032C062F033C063F0F2EC02
:1014F00073F00101B86BB96BB9511EE1040EB85D10
:101500001BE2B851300FD96EDA6A3CC060F03DC0C2
:1015100061F0D0EC72F0DF6E3C4A3D2A0101B85117
:10152000300FD96EDA6ADF5002010B27000E0C2350
:101530000101B84BB92BE0D730C060F031C061F089
:1015400032C062F033C063F0FBEC73F00101B86BA2
:10155000B96BB95122E1080EB85D1FE2880EB825BB
:10156000D96E030EB921DA6E3CC060F03DC061F067
:10157000D0EC72F0DF6E3C4A3D2A880E0101B8259E
:10158000D96E030EB921DA6EDF5002010B27000E6F
:101590000C230101B84BB92BDCD70001A4A106D064
:1015A000880E6B6F030E6C6F32EC6FF00101B86B3D
:1015B000B96BB95122E1080EB85D1FE2880EB8255B
:1015C000D96E030EB921DA6E3CC060F03DC061F007
:1015D000D0EC72F0DF6E3C4A3D2A880E0101B8253E
:1015E000D96E030EB921DA6EDF5002010B27000E0F
:1015F0000C230101B84BB92BDCD70001A4A306D002
:10160000880E6B6F030E6C6F71EC6FF00101B86B9D
:10161000B96BB95122E1100EB85D1FE2880EB825F2
:10162000D96E030EB921DA6E3CC060F03DC061F0A6
:10163000D0EC72F0DF6E3C4A3D2A880E0101B825DD
:10164000D96E030EB921DA6EDF5002010B27000EAE
:101650000C230101B84BB92BDCD70001A4A506D09F
:10166000880E6B6F030E6C6F5CEC6FF00101B86B52
:10167000B96BB95122E1100EB85D1FE2880EB82592
:10168000D96E030EB921DA6E3CC060F03DC061F046
:10169000D0EC72F0DF6E3C4A3D2A880E0101B8257D
:1016A000D96E030EB921DA6EDF5002010B27000E4E
:1016B0000C230101B84BB92BDCD70001A4A906D03B
:1016C000880E6B6F030E6C6F1DEC6FF00101B86B31
:1016D000B96BB95122E1100EB85D1FE2880EB82532
:1016E000D96E030EB921DA6E3CC060F03DC061F0E6
:1016F000D0EC72F0DF6E3C4A3D2A880E0101B8251D
:10170000D96E030EB921DA6EDF5002010B27000EED
:101710000C230101B84BB92BDCD70001A4AB06D0D8
:10172000880E6B6F030E6C6F47EC6FF0306A316A96
:10173000326A336A0101B86BB96BB9511EE1040E0C
:10174000B85D1BE2B851300FD96EDA6A3CC060F068
:101750003DC061F0D0EC72F0DF6E3C4A3D2A0101E1
:10176000B851300FD96EDA6ADF5002010B27000E34
:101770000C230101B84BB92BE0D70001A4A70AD074
:1017800030C060F031C061F032C062F033C063F04D
:1017900026EC73F0446A020E446401D05DD03CC074
:1017A00060F03DC061F0D0EC72F00101BE6F3C4AC8
:1017B0003D2ABE5102010B27000E0C230101BE5130
:1017C000010ED8B4000E0001646F445099EC68F02B
:1017D0003CC060F03DC061F0D0EC72F00101BE6F22
:1017E0003C4A3D2ABE5102010B27000E0C23BEC10C
:1017F00066F044508DEC6CF0306A316A326A336ABC
:101800000101B86BB96BB9511EE1040EB85D1BE262
:10181000B851300FD96EDA6A3CC060F03DC061F05B
:10182000D0EC72F0DF6E3C4A3D2A0101B851300F16
:10183000D96EDA6ADF5002010B27000E0C2301017A
:10184000B84BB92BE0D730C063F031C064F04450DE
:10185000B2EC6EF0442A9FD7446A1C0E446401D057
:101860008ED0306A316A326A336A0101B86BB96B63
:10187000B9511EE1040EB85D1BE2B851300FD96EAC
:10188000DA6A3CC060F03DC061F0D0EC72F0DF6E0F
:101890003C4A3D2A0101B851300FD96EDA6ADF5057
:1018A00002010B27000E0C230101B84BB92BE0D726
:1018B00030C065F031C066F032C067F033C068F008
:1018C0004450030F6FEC67F0306A316A326A336A52
:1018D0000101B86BB96BB9511EE1040EB85D1BE292
:1018E000B851300FD96EDA6A3CC060F03DC061F08B
:1018F000D0EC72F0DF6E3C4A3D2A0101B851300F46
:10190000D96EDA6ADF5002010B27000E0C230101A9
:10191000B84BB92BE0D730C063F031C064F044500D
:10192000030FB2EC6EF03CC060F03DC061F0D0EC53
:1019300072F00101BE6F3C4A3D2ABE5102010B27E5
:10194000000E0C23BEC166F04450030F8DEC6CF00A
:101950003CC060F03DC061F0D0EC72F00101BE6FA0
:101960003C4A3D2ABE5102010B27000E0C23BEC18A
:1019700064F04450030F99EC68F0442A6ED73CC0E1
:1019800060F03DC061F0D0EC72F00101BE6F3C4AE6
:101990003D2ABE5102010B27000E0C230101BE514E
:1019A000CFEC6DF03CC060F03DC061F0D0EC72F067
:1019B0000101BE6F3C4A3D2ABE5102010B27000EB9
:1019C0000C230101BE51C3EC72F00B2904E10C2978
:1019D00002E10B6B0C6B0BC2A2F00CC2A3F0120065
:1019E0007E6B7F6B766B776B010E0001616F890EEA
:1019F000606F62691AEC69F0010E0001616F8A0E76
:101A0000606F62691AEC69F032EC75F001017D6F6C
:101A10007D517627000E77230001616B606B7DC1DD
:101A200062F01AEC69F001017E4B7F2B790E000108
:101A3000606F010E616F7D0E626F010E636FF3ECDC
:101A40006EF001017D517627000E77237EC160F094
:101A50007FC161F07DC162F01AEC69F001017E4B3B
:101A60007F2B806B790E8025D96EDA6A010EDA221F
:101A7000DF507627000E77237EC160F07FC161F0D2
:101A8000790E8025D96EDA6A010EDA22DF50000164
:101A9000626F1AEC69F001017E4B7F2B802B030EE5
:101AA0008065E0D7C0C17DF17D517627000E772398
:101AB0007EC160F07FC161F07DC162F01AEC69F017
:101AC00001017E4B7F2BC5EC73F060C079F161C0E2
:101AD0007AF162C07BF163C07CF1806B790E802566
:101AE000D96EDA6A010EDA22DF507627000E7723EC
:101AF0007EC160F07FC161F0790E8025D96EDA6A0F
:101B0000010EDA22DF500001626F1AEC69F0010168
:101B10007E4B7F2B802B030E8065E0D7CEEC73F0DD
:101B200060C079F161C07AF162C07BF163C07CF181
:101B3000806B790E8025D96EDA6A010EDA22DF50C9
:101B40007627000E77237EC160F07FC161F0790EA9
:101B50008025D96EDA6A010EDA22DF500001626F49
:101B60001AEC69F001017E4B7F2B802B030E806500
:101B7000E0D7660E00016B6F010E6C6F8FEC72F098
:101B80000101806B660E8025D96EDA6A010EDA22B9
:101B9000DF507627000E77237EC160F07FC161F0B1
:101BA000660E8025D96EDA6A010EDA22DF50000156
:101BB000626F1AEC69F001017E4B7F2B802B070EC0
:101BC0008065E0D7660E00016B6F010E6C6F9CECB8
:101BD00072F00101806B660E8025D96EDA6A010E03
:101BE000DA22DF507627000E77237EC160F07FC1B6
:101BF00061F0660E8025D96EDA6A010EDA22DF50B6
:101C00000001626F1AEC69F001017E4B7F2B802B83
:101C1000070E8065E0D7660E00016B6F010E6C6FDA
:101C200082EC72F00101806B660E8025D96EDA6A53
:101C3000010EDA22DF507627000E77237EC160F096
:101C40007FC161F0660E8025D96EDA6A010EDA2254
:101C5000DF500001626F1AEC69F001017E4B7F2BAF
:101C6000802B0F0E8065E0D7660E00016B6F010EB2
:101C70006C6F68EC72F00101806B660E8025D96E86
:101C8000DA6A010EDA22DF507627000E77237EC152
:101C900060F07FC161F0660E8025D96EDA6A010EB0
:101CA000DA22DF500001626F1AEC69F001017E4B0D
:101CB0007F2B802B0F0E8065E0D7660E00016B6FC7
:101CC000010E6C6F75EC72F00101806B660E802561
:101CD000D96EDA6A010EDA22DF507627000E7723FA
:101CE0007EC160F07FC161F0660E8025D96EDA6A30
:101CF000010EDA22DF500001626F1AEC69F0010177
:101D00007E4B7F2B802B0F0E8065E0D7D7EC73F0D6
:101D100060C079F161C07AF162C07BF163C07CF18F
:101D2000806B790E8025D96EDA6A010EDA22DF50D7
:101D30007627000E77237EC160F07FC161F0790EB7
:101D40008025D96EDA6A010EDA22DF500001626F57
:101D50001AEC69F001017E4B7F2B802B030E80650E
:101D6000E0D7786B020E786501D055D0785186ECBB
:101D70006EF001017D6F7D517627000E77237EC1C5
:101D800060F07FC161F07DC162F01AEC69F0010181
:101D90007E4B7F2B785170EC6EF001017D6F7D5191
:101DA0007627000E77237EC160F07FC161F07DC190
:101DB00062F01AEC69F001017E4B7F2B785168ECE0
:101DC0006BF063C079F164C07AF101017B6B7C6BCD
:101DD000806B790E8025D96EDA6A010EDA22DF5027
:101DE0007627000E77237EC160F07FC161F0790E07
:101DF0008025D96EDA6A010EDA22DF500001626FA7
:101E00001AEC69F001017E4B7F2B802B030E80655D
:101E1000E0D7782BA7D7786B1C0E786501D086D0D9
:101E20007851030F4DEC70F060C079F161C07AF128
:101E300062C07BF163C07CF10101806B790E80256B
:101E4000D96EDA6A010EDA22DF507627000E772388
:101E50007EC160F07FC161F0790E8025D96EDA6AAB
:101E6000010EDA22DF500001626F1AEC69F0010105
:101E70007E4B7F2B802B030E8065E0D77851030FBC
:101E800068EC6BF063C079F164C07AF101017B6B9F
:101E90007C6B806B790E8025D96EDA6A010EDA22AE
:101EA000DF507627000E77237EC160F07FC161F09E
:101EB000790E8025D96EDA6A010EDA22DF50000130
:101EC000626F1AEC69F001017E4B7F2B802B030EB1
:101ED0008065E0D77851030F70EC6EF001017D6FE3
:101EE0007D517627000E77237EC160F07FC161F0BF
:101EF0007DC162F01AEC69F001017E4B7F2B7851B5
:101F0000030F86EC6EF001017D6F7D517627000E88
:101F100077237EC160F07FC161F07DC162F01AEC71
:101F200069F001017E4B7F2B782B76D735EC75F06D
:101F300001017D6F7D517627000E77237EC160F011
:101F40007FC161F07DC162F01AEC69F001017E4B46
:101F50007F2BF4EC74F001017D6F7D517627000E2C
:101F600077237EC160F07FC161F07DC162F01AEC21
:101F700069F001017E4B7F2B762904E1772902E18C
:101F8000766B776B7EC160F07FC161F076C162F0E5
:101F90001AEC69F001017E4B7F2B7EC160F07FC19E
:101FA00061F077C162F01AEC69F001017E4B7F2B82
:101FB000000120EE06F0EB51D926EC51DA22DAC20C
:101FC000DEFFDBC2DEFFDD6A1200DEC165F0000E5F
:101FD000666FE2EC44F0C6C16DF0C7C16EF0C8C1D7
:101FE0006FF0C9C170F008EC44F00101E151F4EC6C
:101FF00046F00101DE0501E0B6D1D4C162F0390E30
:10200000BDEC71F0E8C17BF0010E00017B1701010E
:10201000D890E73500017C6F0101E039F00B000139
:102020007C117B11626F1D0EBDEC71F07AC07BF0EC
:10203000030E00017B17E2C17CF0010E7C17D890E3
:102040007C37D8907C370101DF39F00B00017C111F
:102050007B11626F1E0EBDEC71F00101E451E511C0
:1020600060E0E4C17EF0E5C17FF00001806B816B30
:1020700042D07EC060F07FC061F080C062F081C05D
:1020800063F07D0E0001646F656B666B676BE6EC59
:1020900056F022D07EC060F07FC061F080C062F058
:1020A00081C063F0FA0E0001646F656B666B676B4D
:1020B000E6EC56F011D07EC060F07FC061F080C0C9
:1020C00062F081C063F0F40E0001646F010E656F71
:1020D000666B676BE6EC56F060C07EF061C07FF027
:1020E00062C080F063C081F00FD000017E6B7F6B17
:1020F000806B816B09D00101E051070ABAE00F0A39
:10210000C9E0010AD8E0F1D70101DF2900017B6FA6
:1021100005D0D890813380337F337E337B2FF9D73E
:1021200005D000017E6B7F6B806B816B7EC062F09F
:10213000240EBDEC71F079C062F01F0EBDEC71F0A1
:10214000260E73EC70F0826F0C0E0101DF1906E1B0
:10215000070EE01909E0080EE01906E00B0EDF1982
:1021600006E1070EE01903E10001828702D00001B9
:102170008297828582C062F0260EBDEC71F0310E2E
:1021800073EC70F0826FF80E8217030E821382C018
:1021900062F0310EBDEC71F00A0E0001626F370E75
:1021A000BDEC71F0120E0101F71929E1070EE019DB
:1021B00003E0080EE01915E1310E73EC70F0826F48
:1021C000829F82C062F0310EBDEC71F0400E0001C2
:1021D000626F2F0EBDEC71F00001626B300EBDEC32
:1021E00071F0090E0101E0190AE1310E73EC70F093
:1021F000826F828F82C062F0310EBDEC71F0330EBF
:1022000073EC70F0826F829D8281E6C17BF0010EDB
:102210007B17060E7C6FD8907B377C2FFCD77B51C9
:10222000821382C062F0330EBDEC71F0E6C17BF028
:10223000010E00017B17D8907B37D8907B35FF0AC1
:102240001D0B826F82C062F03B0EBDEC71F001018C
:10225000D3510001626F200EBDEC71F0D2C162F06B
:10226000210EBDEC71F00001626B0D0EBDEC71F042
:102270000001626B0E0EBDEC71F00001626B0F0E7F
:10228000BDEC71F0120E0101F71968E1090EE019B9
:102290001EE1800EC65D130EC759610EC859330E7C
:1022A000C95915E3C605F70EC759CB0EC8593C0EE0
:1022B000C9590DE2020E0001626F360EBDEC71F0DD
:1022C000640E0001626F3A0EBDEC71F028D0090E69
:1022D000E0191FE1800EC65D1A0EC759700EC8596D
:1022E000180EC95916E3410EC65DDD0EC7594A0ED8
:1022F000C8591F0EC9590DE2020E0001626F360E59
:10230000BDEC71F07F0E0001626F3A0EBDEC71F012
:1023100006D0030E0001626F360EBDEC71F0090E9F
:102320000101E0190FE1E6050DE1650E0001626FA4
:102330003A0EBDEC71F0190E0001626F3B0EBDEC60
:1023400071F00CD0650E0001626F3A0EBDEC71F0B9
:102350001D0E0001626F3B0EBDEC71F00001626961
:10236000120EBDEF71F0CAC16DF0CBC16EF0CCC1E1
:102370006FF0CDC170F008EC5DF0CEC16DF0CFC153
:102380006EF0D0C16FF0D1C170F09DEC5DF0010135
:10239000D3510001626F250EBDEC71F0D2C162F025
:1023A000260EBDEC71F00A0E73EC70F0826F9F0E7A
:1023B00082170101F939E846E00B0001821382C05F
:1023C00062F00A0EBDEC71F0C80E0001826F0101CF
:1023D000E25102E00001828982C062F0300EBDEC61
:1023E00071F000017D6B0ED0D50E7D25D96EDA6AB5
:1023F000010EDA22DF50626F7D51280FBDEC71F0C3
:1024000000017D2B0101DD5100017D5DEDE3010146
:10241000DD5108E0DD0510090001626F270EBDECFB
:1024200071F005D00001626B270EBDEC71F0000168
:1024300062693E0EBDEC71F0000162693F0EBDEFB6
:1024400071F0E0D100019E699F69A069A169E8D19E
:1024500011A598D0C75139EC69F08C5107E11F0ED6
:10246000895DAC0E8A59DF0E8B5946E30201C751D4
:1024700039EC69F00D0E05D0D8908C338B338A334C
:102480008933E82EF9D77D0E8903F3CF96F0F4CF88
:1024900097F0986B996B8A03F3509727F450982321
:1024A000000E99238903F3509727F4509823000EC8
:1024B00099237D0E8B03F3509827F4509923000E37
:1024C0008A03F3509827F4509923000E8903F350A0
:1024D0009827F45099237D0E8C03F3509927000E12
:1024E0008B03F3509927000E8A03F3509927000EAF
:1024F0008903F3509927A7D00201C75139EC69F03D
:102500007D0E8903F3CF96F0F4CF97F0986B996B1B
:102510008A03F3509727F4509823000E99238903D8
:10252000F3509727F4509823000E99237D0E8B03C8
:10253000F3509827F4509923000E8A03F3509827FC
:10254000F4509923000E8903F3509827F4509923EF
:102550007D0E8C03F3509927000E8B03F3509927BF
:10256000000E8A03F3509927000E8903F350992730
:102570000D0E05D0D8909933983397339633E82EC3
:10258000F9D761D013A14CD1C95139EC69F08C5104
:1025900007E11F0E895DAC0E8A59DF0E8B590EE3E1
:1025A0000201C95139EC69F00D0E05D0D8908C3379
:1025B0008B338A338933E82EF9D765D70201C951A5
:1025C00039EC69F07D0E8903F3CF96F0F4CF97F0E4
:1025D000986B996B8A03F3509727F4509823000E59
:1025E00099238903F3509727F4509823000E9923D9
:1025F0007D0E8B03F3509827F4509923000E8A0325
:10260000F3509827F4509923000E8903F35098272C
:10261000F45099237D0E8C03F3509927000E8B0301
:10262000F3509927000E8A03F3509927000E89036F
:10263000F35099270D0E05D0D890993398339733DE
:102640009633E82EF9D796C09EF097C09FF098C0B9
:10265000A0F099C0A1F0E4D011A504D0C85139EC84
:1026600069F005D013A10BD0CA5139EC69F089C0CB
:102670009EF08AC09FF08BC0A0F08CC0A1F000013A
:10268000A15107E11F0E9E5DAC0E9F59DF0EA059B0
:102690004AE39EC096F09FC097F0A0C098F0A1C0FA
:1026A00099F00D0E05D0D89099339833973396331F
:1026B000E82EF9D77D0E9603F3CF9AF0F4CF9BF076
:1026C0009C6B9D6B9703F3509B27F4509C23000E4B
:1026D0009D239603F3509B27F4509C23000E9D23CB
:1026E0007D0E9803F3509C27F4509D23000E970312
:1026F000F3509C27F4509D23000E9603F3509C2723
:10270000F4509D237D0E9903F3509D27000E9803EE
:10271000F3509D27000E9703F3509D27000E96035C
:10272000F3509D2749D09EC096F09FC097F0A0C05F
:1027300098F0A1C099F07D0E9603F3CF9AF0F4CFF4
:102740009BF09C6B9D6B9703F3509B27F4509C234D
:10275000000E9D239603F3509B27F4509C23000EFC
:102760009D237D0E9803F3509C27F4509D23000E6B
:102770009703F3509C27F4509D23000E9603F350CB
:102780009C27F4509D237D0E9903F3509D27000E46
:102790009803F3509D27000E9703F3509D27000EDA
:1027A0009603F3509D270D0E05D0D8909D339C3392
:1027B0009B339A33E82EF9D79AC09EF09BC09FF0C6
:1027C0009CC0A0F09DC0A1F02BD0CD5139EC69F098
:1027D00089C09EF08AC09FF08BC0A0F08CC0A1F091
:1027E000A15109E11F0E9E5DAC0E9F59DF0EA0594D
:1027F00001E34FD798D74DD700019E6B9F6BA06B1D
:10280000A16B0ED002011331070B01E11BD6020AA6
:1028100001E11ED6060A01E11FD7020AD6E0ECD775
:102820000001A151A0119F1103E1C80E9E5D09E3B3
:10283000CE0E9E27FF0E9F23A023A1230201138FFC
:1028400006D09E6B9F6BA06BA16B0201139F9EC075
:1028500092F09FC093F0A0C094F0A1C095F0120038
:10286000EBC0D9FFECC0DAFFDECFF0F0DDCFF1F046
:10287000000120EE02F0EB51D926EC51DA22DECF36
:10288000F2F0DDCFF3F0010EF46FF569F0C091F0D6
:10289000F1C092F0B9EC45F0F56FF5BF90D1F66B51
:1028A000070EF66501D08BD1F651020D2A0EF324E6
:1028B000D96E030EF420DA6EDECF60F0DDCF61F06A
:1028C000F2C062F0F3C063F0F6EC3EF060516111CB
:1028D00001E072D10F0EF525F66EF76AF80EF722B9
:1028E000F86A000EF8220800F5CFEDF0F6C0EEF021
:1028F000010EEF6FEE2B02D0D890EF37EE2FFCD702
:102900000001EF51ED1501E157D1F46B26D10F0114
:102910003891929051D10F01389192804DD192808F
:102920000F01388149D1F651F2E0010AF4E0030ABF
:10293000F6E012D00F01389392923ED10F013893F6
:1029400092823AD192820F01388336D1F651F2E069
:10295000010AF4E0030AF6E0010A2ED10F013895CE
:1029600092942AD10F013895928426D192840F0136
:10297000388522D1F651F2E0010AF4E0030AF6E0CC
:10298000EBD70F013897929617D10F01389792869F
:1029900013D192860F0138870FD1F651F2E0010A68
:1029A000F4E0030AF6E0D8D7929806D1928804D1D1
:1029B000F651FAE0010AFAE0020AFED00F01389B54
:1029C000929AFAD00F01389B928AF6D0928A0F0120
:1029D000388BF2D0F651F2E0010AF4E0030AF6E097
:1029E000BBD70F013C919690E7D00F013C919680A8
:1029F000E3D096800F013C81DFD0F651F2E0010A6E
:102A0000F4E0030AF6E0A8D70F013C939692D4D0E5
:102A10000F013C939682D0D096820F013C83CCD09C
:102A2000F651F2E0010AF4E0030AF6E095D70F014F
:102A30003B959594C1D00F013B959584BDD095846D
:102A40000F013B85B9D0F651F2E0010AF4E0030A28
:102A5000F6E082D70F013C959694AED00F013C95DD
:102A60009684AAD096840F013C85A6D0F651F2E058
:102A7000010AF4E0030AF6E06FD70F013A9B949A3B
:102A80009BD00F013A9B948A97D0948A0F013A8B7E
:102A900093D0F651F2E0010AF4E0030AF6E05CD7C5
:102AA0000F013B9B959A88D00F013B9B958A84D060
:102AB000958A0F013B8B80D0F651F2E0010AF4E0D9
:102AC000030AF6E049D70F013B9F959E75D00F0191
:102AD0003B9F958E71D0958E0F013B8F6DD0F65137
:102AE000F2E0010AF4E0030AF6E036D70F013B9D5D
:102AF000959C62D00F013B9D958C5ED0958C0F010B
:102B00003B8D5AD0F651F2E0010AF4E0030AF6E0F8
:102B100023D7929E51D0928E4FD0F651FAE0010AFF
:102B2000FAE04AD7929C48D0928C46D0F651FAE00F
:102B3000010AFAE041D7939C3FD0938C3DD0F651E7
:102B4000FAE0010AFAE038D7939E36D0938E34D05B
:102B5000F651FAE0010AFAE02FD7F55101E1E3D688
:102B6000010A01E1F3D6030A01E104D7010A01E1F8
:102B700014D7070A01E11CD7010A01E12BD7030A88
:102B800001E13BD7010A01E14BD70F0A01E15BD715
:102B9000010A01E16BD7030A01E17BD7010A8CE04E
:102BA000070A9DE0010AAEE0030AB7E0010ABEE0B1
:102BB0001F0AC5E0010ACCE00001F62B71D6F451E2
:102BC000020DF60EF324D96E020EF420DA6EDECF7B
:102BD000EDF0DDCFEEF020EE06F0EB51D926EC5112
:102BE000DA22EDC0DEFFEEC0DEFFDD6A120000017A
:102BF0007A6F796B7B6B080E7A194BE128EE24F023
:102C0000DE50DE10D8B4120028EE24F0DECF70F0D3
:102C1000DDCF71F0DF0E7025D96E050E7121DA6EF1
:102C2000DF502CE123C8E8FFFF0FE8CF23F828EEA0
:102C300023F0DF50020D060EF324D96E080EF420A7
:102C4000DA6EDECF26F8DDCF27F828EE23F0DF504E
:102C5000020D060EF324D96E080EF420DA6EDE6A39
:102C6000DD6A28EE23F0DF50020D140EF324D96E36
:102C7000080EF420DA6EDE6ADD6A05D028EE26F052
:102C8000DE06000EDD5A28EE24F0DE06000EDD5AC8
:102C9000000C28EE24F0250EDE5C020EDE5859E210
:102CA000200E7A1958E128EE23F0060EDF6051D08D
:102CB00028EE24F0DECF70F0DDCF71F0E00E70254D
:102CC000D96E050E7121DA6E000EDF6A28EE24F04F
:102CD000DE2ADD2228EE26F018EE23F0E750020D62
:102CE000060EF324E16E080EF420E26EDECFE6FF5E
:102CF000DDCFE5FF7069716928EE26F0DECF72F056
:102D0000DDCF73F028EE24F0DECF74F0DDCF75F068
:102D10007251745F7351755B7051742771517523D3
:102D200028EE23F0DF50020D140EF324D96E080EA6
:102D3000F420DA6E74C0DEFF75C0DDFF23C8E8FF43
:102D4000010FE8CF23F8000EE8CF26F8E8CF27F8E8
:102D5000D8D07969D6D028EE24F0DECF70F0DDCF60
:102D600071F0E00E7025D96E050E7121DA6E7AC011
:102D7000DFFF28EE24F0DE2A000EDD2228EE26F00A
:102D8000DE2ADD22E40E606FFF0E616F6011D8A4B1
:102D9000000E626F56EC64F028EE24F06051DE5CA9
:102DA0006151DE584AE3010E7B6FE40E606FFF0E47
:102DB000616F6011D8A4000E626F56EC64F0605130
:102DC0007C6F37D028EE24F0DECF70F0DDCF71F0CD
:102DD000E00E726F050E736F7C51725F000E735BB5
:102DE00070517225D96E71517321DA6EDF50746F94
:102DF000E40E606FFF0E616F6011D8A4000E626F69
:102E000056EC64F0E40E756FFF0E766F6051752717
:102E1000615176237C51755F000E765B75C0F6FFBD
:102E200076C0F7FFF86A0800F550741901E07B6B73
:102E30007C077C5102E07B51C5E17B5162E028EECA
:102E400024F0DECF70F0DDCF71F0E40E606FFF0E86
:102E5000616F6011D8A4000E626F56EC64F0E00E52
:102E6000726F050E736F6051725F6151735B7051C9
:102E70007225D96E71517321DA6EDF6AE40E606FCC
:102E8000FF0E616F6011D8A4000E626F56EC64F003
:102E900028EE26F0DECF70F0DDCF71F06051705F6C
:102EA0006151715B28EE23F0DF50020D060EF32412
:102EB000D96E080EF420DA6E70C0DEFF71C0DDFF3F
:102EC00028EE26F0DECF70F0DDCF71F028EE24F092
:102ED000DECF72F0DDCF73F07051725F7151735BB2
:102EE00028EE23F0DF50020D140EF324D96E080EE5
:102EF000F420DA6E72C0DEFF73C0DDFF010EE8CF92
:102F000022F87929D8A41200ECEC65F046C360F0F1
:102F100047C361F060516111D8A4000E626F56EC96
:102F200064F060C077F061C078F046C366F047C3D4
:102F300067F066516711D8A4000E686F77C069F01A
:102F400078C06AF08BEF52F0DD6F100E0001E16F78
:102F5000DF6BDE0E606F616B636B626B656B010E26
:102F6000646F86EC6FF0490E606F0B0E616F636BE0
:102F7000626B010E656F0F0E646F86EC6FF0980E3A
:102F8000606F030E616F636B626B656B100E646F35
:102F900086EC6FF0DD0507E1DE511F0B8009DE6F67
:102FA0000201118104D0DE511F0B4009DE6FFC0EBF
:102FB0000001DE17E30EDE17490EE125D96EDA6A4D
:102FC0000B0EDA22DEC0DFFFE12B490EE125606F38
:102FD000616B0B0E61232A0E626F020E636F656BCD
:102FE000040E646F2DEC60F0040EE127E06B02012B
:102FF00013AB30D00001E08F0201C451D05D29E253
:103000000001E08D02011189B54BB62B8851B5192D
:10301000B61102E1D36B1AD088510001DB6FDC6B73
:103020000201B5510001DB5D0201B6510001DC591E
:103030000EE20201D32B8951D35D0CE3D36B5BEC21
:103040004DF0000907E10201B56BB66B0001E09D90
:1030500002011199020111A304D00001E08B0201C9
:1030600011930001E09902018C5104E00001D95153
:10307000DA111CE1F00E0001E0170101C5510BE06F
:103080000001E0510F0BDB6F020EDB27E051DB1973
:10309000F00BDB19E06F0101C4510FE00001E051BA
:1030A0000F0BDB6FDB2BE051DB1904D07EEC48F01B
:1030B000DB6FE019F00BDB19E06F490E0001E12531
:1030C000D96EDA6A0B0EDA22E0C0DFFFE12B490E7F
:1030D000E125606F616B0B0E6123170E626F020EAC
:1030E000636F656B020E646F2DEC60F0020EE127DA
:1030F00002018C510FE00001D951DA110BE0490EA9
:10310000606F0B0E616FE10E626F010E636FDEEC9C
:103110001AF01BD002018C5118E10101C55109E0E0
:10312000490E0001606F0B0E616FE10E626FA2EC41
:103130006AF00101C45109E0490E0001606F0B0EF5
:10314000616FE10E626FD8EC6FF0490E0001E1256E
:10315000D96EDA6A0B0EDA22D6C0DFFFE12BD95125
:10316000DA112DE0490EE125606F616B0B0E6123D2
:10317000D7C062F0D8C063F0D9C064F0DAC065F09F
:103180002DEC60F0D7C0A0F0D8C0A1F0D9C0A2F05B
:10319000A36B17C2A4F018C2A5F019C2A6F01AC2F8
:1031A000A7F03E0EA86F020EA96FE1C0AAF0490E6B
:1031B000AB6F0B0EAC6F15EC34F0D95129D0020176
:1031C0008C5127E03A0E0001606F0A0E616FDF0E2E
:1031D000626F636BDEEC1AF03A0EA06F0A0EA16FFD
:1031E000DFC0A2F0A36B17C2A4F018C2A5F019C2E9
:1031F000A6F01AC2A7F02E0EA86F020EA96FE1C0AA
:10320000AAF0490EAB6F0B0EAC6F15EC34F0DF512A
:10321000E12717C26BF018C26CF019C26DF01AC228
:103220006EF00001E151F00F6F6F490E706F000EEC
:1032300080EC54F0490E606F0B0E616F980E626F58
:10324000030E636F656B100E646F2DEC60F02E0E35
:10325000C86F020EC96F980ECA6F030ECB6F490E6E
:10326000CC6F0B0ECD6FE1C0CEF050EC19F0490ED3
:10327000E125606F616B0B0E6123980E626F030E88
:10328000636F656B040E646F2DEC60F0040EE12734
:10329000F00EE1250201B96FBA6BFF0EBA23FF0CE5
:1032A0000101656B646B626B606B616BC8C0A0F001
:1032B000C9C0A1F0100E0001A26F010EA36F000E95
:1032C000A46F010EA56F7DEC3CF0CE51CF6FD06B9B
:1032D0000F0ECF27000ED023040ED16FD035D03380
:1032E000CF33D12FFBD7CF510101636F635104E17D
:1032F000010E636F626B0AD0CEC0CFF00F0E0001DB
:10330000CF17010ED8A4000E0101626F620541E1E2
:10331000646B6351100DF350F00F656F1ED0200EDB
:1033200001016425D96EDA6A010EDA22100E6425D5
:10333000E16EE26A010EE222E7500001CF6F010167
:1033400065510001CC25E16E000ECD21E26EE75003
:10335000CF19DF6E0101642B652B63510001CF6F24
:10336000D06BCF3BD03BF00ED017CF510F0BD0130B
:10337000F00ECF17010165510001D16FD26BCF5113
:10338000D15DD251800AD36FD051800AD35963E204
:10339000C6D70001CE51CC25CF6F000ECD21D06F06
:1033A000CE510F0BCF5D0101606F0001D051D8A04D
:1033B000D0050101616F656B0001CE510F0B01015A
:1033C00065610FD065516025D96E000E6121DA6EFE
:1033D000300E6525E16EE26A010EE222DFCFE7FFE3
:1033E00016D00001CE510F0B0101651909E1300E15
:1033F0006525D96EDA6A010EDA22800EDF6E07D0FB
:10340000300E6525D96EDA6A010EDA22DF6A652B85
:103410000F0E6565D1D7656B200E6525D96EDA6A0A
:10342000010EDA22000E6525E16EE26A010EE2224B
:10343000E7500001CF6F300E01016525E16EE26AB1
:10344000010EE222E7500001CF19DF6E0101652B6A
:103450000F0E6565E1D7500E0001606F010E616FC0
:10346000636B626B656B100E646F86EC6FF001012D
:10347000656B51D00101646B400E6425D96EDA6A28
:10348000010EDA2265510001CF6FD06BCF3BD03BEC
:10349000F00ED017CF510F0BD013F00ECF17CCC0BA
:1034A000D1F0CDC0D2F0CF51D127D051D2230101DC
:1034B00064510001D125E16E000ED221E26EE75089
:1034C000D36F500E01016425E16EE26A010EE22223
:1034D000E7500001D319DF6E0101642B0F0E646504
:1034E000CBD7500E0001606F010E616F400E626F0E
:1034F000010E636F656B100E646F2DEC60F0500E63
:103500008C6F010E8D6FC8C08EF0C9C08FF0ECECCF
:103510006FF00101652B0001CF69D0690101635192
:103520000001D16FD26BCF51D127D051D2230101ED
:1035300065510001D36FD46BD151D35DD451800A52
:10354000D56FD251800AD55995E30101656B400EC4
:103550006525D96EDA6A010EDA22200E6525E16E44
:10356000E26A010EE222E7500001CF6F500E010126
:103570006525E16EE26A010EE222E7500001CF19F3
:10358000DF6E0101652B0F0E6565E1D7400E00016E
:103590008C6F010E8D6FC8C08EF0C9C08FF0ECEC3F
:1035A0006FF0CAC060F0CBC061F0400E626F010ED8
:1035B000636F656B100E646F2DEF60F06251D96E12
:1035C000DA6ADF506B6F6A6B79D1635101E15BD1CD
:1035D0006A51020D8D0EF324D96E020EF420DA6EBC
:1035E000DE2801E150D1FE0E646F65696A51020D5B
:1035F0008D0EF324D96E020EF420DA6EDF50666F62
:10360000676B64516627655167234F0E6625F66E1A
:10361000F80E6721F76EF86A000EF8220800F550E0
:103620006BC068F0696B6827000E69236251D96E20
:10363000DA6ADF50685F000E695B69BF24D16951A7
:1036400005E1100E685D01E33FD11DD13DD16B5105
:103650006025D96E000E6121DA6E030EDF6E6B2BD2
:103660006B516025D96E000E6121DA6EDF6A6A51F6
:10367000020D8E0EF324D96E020EF420DA6EDFA056
:1036800009D000016B516025D96E000E6121DA6E00
:10369000000EDB8000016A51020D8E0EF324D96EFC
:1036A000020EF420DA6EDFA208D06B516025D96ECD
:1036B000000E6121DA6E000EDB8200016A51020DFC
:1036C0008E0EF324D96E020EF420DA6EDFA408D039
:1036D0006B516025D96E000E6121DA6E000EDB841D
:1036E00000016B2BEAD06B516025D96E000E612171
:1036F000DA6E050EDF6E6B2B6B516025D96E000EF6
:103700006121DA6EDF6A6A51020D8E0EF324D96EE2
:10371000020EF420DA6EDFA609D000016B5160259D
:10372000D96E000E6121DA6E000EDB8000016A5155
:10373000020D8E0EF324D96E020EF420DA6EDFA88D
:1037400008D06B516025D96E000E6121DA6E000E33
:10375000DB8200016A51020D8E0EF324D96E020E37
:10376000F420DA6EDFAA08D06B516025D96E000E06
:103770006121DA6E000EDB8400016B516025D96E89
:10378000000E6121DA6EDF50516EAAD76B516025B1
:10379000D96E000E6121DA6E060EDF6E6B2B6B5157
:1037A0006025D96E000E6121DA6EC5C2DFFF6B2B7A
:1037B00041EC75F0800AA00F05E341EC75F0800A3A
:1037C000600F09E300016B516025D96E000E612185
:1037D000DA6E200E0AD000016B516025D96E000E02
:1037E0006121DA6E41EC75F03F0BDF6E79D76B51DA
:1037F0006025D96E000E6121DA6E070EDF6E6B2B2D
:103800006B516025D96E000E6121DA6EDF6A6A5154
:10381000020D8E0EF324D96E020EF420DA6EDFAEA6
:1038200009D000016B516025D96E000E6121DA6E5E
:10383000000EDB8000016A51020D8E0EF324D96E5A
:10384000020EF420DA6EDFAC4BD76B516025D96ED7
:10385000000E6121DA6E000EDB8242D70201C269DE
:10386000C36B00016A51020D8D0EF324D96E020E56
:10387000F420DA6E6B516025E16E000E6121E26E7C
:10388000DFCFE7FF2DD76A51020D8D0EF324D96EDD
:10389000020EF420DA6EDF50020AE0E0010A01E1D4
:1038A000D6D6070ADEE0010A01E11DD7030A01E1CD
:1038B0006DD7010A9CE00F0AD4E06A2B02018C51FB
:1038C00000016A5D01E281D66251D96EDA6A6BC08D
:1038D000DFFF12008A6B50C39DF151C39EF19D51D1
:1038E0009E11D8A4000E9F6F8D6B3DD08D51090D98
:1038F000F35081250001FA6FF4500101822100018B
:10390000FB6F000E010183210001FC6FFAC0F6FF7E
:10391000FBC0F7FFFCC0F8FF21EE8EF0080E090097
:10392000F5CFDEFFE806FBE28EC160F08FC161F0EB
:1039300001018551020D140EF324D96E080EF420F6
:10394000DA6EDECFFAF0DDCFFBF0E00E0001FA25F3
:10395000626F050EFB21636FF6EC3EF06051611162
:1039600005E001018D2B84518D5DC0E3010184517F
:103970008D5D01E311D190519111921101E001D1BE
:103980009351941101E108D196510001FA6FFB6B3C
:103990000101855123C8FCF0FCC0FDF00001FE6B65
:1039A000FD5F000EFE5BFA51FD1903E1FB51FE19AC
:1039B000D8A4F2D0010185298C6F8B6B965114E04D
:1039C0008C2B8C05020D060EF324D96E080EF42004
:1039D000DA6EDE50DE1003E1010E8B6F05D028EEAB
:1039E00023F08C51DE5CECE28B5101E0D5D0970ED8
:1039F0000001606F010E616F636B626B656B090E96
:103A0000646F86EC6FF0010185510001FA6FFB6B6A
:103A1000FA2B000EFB23FB512FE1070EFA5D2CE27F
:103A2000010185510001FA6FFB6BD890FA37FB3723
:103A3000080EFA25D96E080EFB21DA6EDE50DE1074
:103A40001BE0010185510001FA6FFB6BD890FA373A
:103A5000FB37160EFA25D96E080EFB21DA6EDECF83
:103A6000FCF0DDCFFDF0E00EFC250101976F050EA7
:103A70000001FD210101986F010185510001FA6FDC
:103A8000FB6B020EFA27000EFB23FB512FE1070E02
:103A9000FA5D2CE2010185510001FA6FFB6BD890B1
:103AA000FA37FB370A0EFA25D96E080EFB21DA6EBB
:103AB000DE50DE101BE0010185510001FA6FFB6B47
:103AC000D890FA37FB37180EFA25D96E080EFB216D
:103AD000DA6EDECFFCF0DDCFFDF0E00EFC2501015B
:103AE000996F050E0001FD2101019A6F01018551B9
:103AF0000001FA6FFB6B030EFA27000EFB23FB514C
:103B00002FE1070EFA5D2CE2010185510001FA6FE9
:103B1000FB6BD890FA37FB370C0EFA25D96E080EDE
:103B2000FB21DA6EDE50DE101BE001018551000141
:103B3000FA6FFB6BD890FA37FB371A0EFA25D96E5D
:103B4000080EFB21DA6EDECFFCF0DDCFFDF0E00EDB
:103B5000FC2501019B6F050E0001FD2101019C6FF9
:103B6000970E0001EB6F010EEC6F01D815D0050028
:103B7000FA6E01019351FD6E9451FE6EFF6AFA5088
:103B80001200010E8A6F86C1D9FF87C1DAFF8DC18D
:103B9000DFFF9D6B9E6B9F6B01019D519E119F11DD
:103BA00018E09DC160F09EC161F09FC162F056ECCB
:103BB00064F060C088F161C089F19DC166F09EC16A
:103BC00067F09FC168F088C169F089C16AF08BEC29
:103BD00052F001018A5112008B6B68518B25D96E0E
:103BE000DA6A8B51710FE16EE26ADFCFE7FF8B2B50
:103BF0000F0E8B65F2D70A0E4F6E010E4E6E8B6B59
:103C00008B51710FD96EDA6ADF50696F8B5166255F
:103C1000D96E000E6721DA6E6951DF1A8B2B0F0EF9
:103C20008B65EED78B6B8B516625D96E000E6721A5
:103C3000DA6EDF50696F6A6B0F0E6925F66EF70E4C
:103C40006A21F76EF86A000EF8228B516625D96E4C
:103C5000000E6721DA6E0800F5CFDFFF8B2B0F0E09
:103C60008B65E1D766C060F067C061F064EC31F04D
:103C70004F0401E111D18B6B8B516625696F000EEA
:103C800067216A6F6929D96E000E6A21DA6EDF50EA
:103C90006B6F8B516625D96E000E6721DA6EDF508F
:103CA0006B19896F8B516625696F000E67216A6FEA
:103CB000030E6925D96E000E6A21DA6EDF506B6F34
:103CC0008B5166256C6F000E67216D6F020E6C259F
:103CD000D96E000E6D21DA6EDF506B198A6F89196B
:103CE000876F8B516625696F000E67216A6F69299E
:103CF000D96E000E6A21DA6EDF506B6F8B5166252C
:103D00006C6F000E67216D6F020E6C25D96E000E70
:103D10006D21DA6EDF506B19886F7F0E89650CD0CC
:103D20001B0E89C069F06A6BD89069376A376919C8
:103D3000816F6A51826F05D0D8908935816F826B0F
:103D4000823781C089F07F0E88650CD01B0E88C039
:103D500069F06A6BD89069376A376919836F6A515D
:103D6000846F05D0D8908835836F846B843783C087
:103D700088F07F0E8A650CD01B0E8AC069F06A6BD2
:103D8000D89069376A376919856F6A51866F05D08F
:103D9000D8908A35856F866B863785C08AF08B51BF
:103DA0006625D96E000E6721DA6E8B516625E16EAD
:103DB000000E6721E26EE75087198919DF6E8B517B
:103DC0006625696F000E67216A6F6929D96E000E3A
:103DD0006A21DA6E8B5166256B6F000E67216C6F5E
:103DE0006B29E16E000E6C21E26EE750871988198D
:103DF000DF6E8B516625696F000E67216A6F020EB8
:103E00006925D96E000E6A21DA6E8B5166256B6FBB
:103E1000000E67216C6F020E6B25E16E000E6C21A7
:103E2000E26EE75087198A19DF6E8B516625696F3C
:103E3000000E67216A6F030E6925D96E000E6A2194
:103E4000DA6E8B5166256B6F000E67216C6F020E68
:103E50006B25E16E000E6C21E26EE7506D6F8B51A9
:103E600066256E6F000E67216F6F6E29E16E000E82
:103E70006F21E26EE750706F8B516625E16E000E88
:103E80006721E26EE75070196D198719DF6E040E15
:103E90008B270F0E8B65F0D6710E606F1FEC22F032
:103EA0008B6B8B51710FD96EDA6ADF50696F8B5152
:103EB0006625D96E000E6721DA6E6951DF1A8B2BE9
:103EC0000F0E8B65EED74F064F5001E0ABD61200B8
:103ED00060D1925101E197D0280E606F080E616F9A
:103EE00016C362F017C363F0B7EC6DF0280E606F75
:103EF000080E616F6011D8A4200E626F56EC64F05A
:103F000060C0A0F061C0A1F0280EA0257C6F080E53
:103F1000A1217D6F90C0D9FF91C0DAFFDF507E6F85
:103F20007F6B816B0A0E806FA0EC6BF0280E606FC8
:103F3000080E616F6011D8A4200E626F56EC64F019
:103F400060C0A0F061C0A1F0280EA025D96E080EB7
:103F5000A121DA6E200EDF6EA04BA12B946995692A
:103F60009251966F976B9451962795519723120E05
:103F7000986F020E996FA051985FA151995BD890EC
:103F800099319B6F98319A6F96519A5D97519B59D1
:103F900010E2120E946F020E956FA051945FA15122
:103FA000955BD8909531966F94319C6F96C09DF03B
:103FB00006D0FF0E92259C6F9D6BFF0E9D239029CE
:103FC000846F000E9121856F280EA025866F080E44
:103FD000A121876F9C5123EC46F0280E606F080EDC
:103FE000616F6011D8A4200E626F56EC64F060C05F
:103FF0009EF061C09FF0280E666F080E676F661115
:10400000D8A4200E14D012C360F013C361F0605125
:104010006111D8A4000E626F56EC64F060C09EF08F
:1040200061C09FF012C366F013C367F0ADD0686F34
:104030009EC069F09FC06AF08BEF52F0925155E03C
:10404000280E606F080E616F14C362F015C363F031
:10405000B7EC6DF0280E606F080E616F6011D8A488
:10406000200E626F56EC64F060C0A0F061C0A1F059
:10407000280EA025D96E080EA121DA6E200EDF6E63
:10408000A04BA12B120E946F020E956FA051945F5E
:10409000A151955BD8909531976F9431966F92515D
:1040A000965D000E975910E2120E946F020E956FF6
:1040B000A051945FA151955BD8909531966F943142
:1040C0009C6F96C09DF003D092C09CF09D6B90C0F9
:1040D00084F091C085F0280EA025866F080EA121DE
:1040E000876F9C5123EC46F078D710C360F011C362
:1040F00061F060516111D8A4000E626F56EC64F05B
:1041000060C09EF061C09FF010C366F011C367F0FD
:104110003BD018C360F019C361F060516111D8A49D
:10412000000E626F56EC64F060C09EF061C09FF0BC
:1041300018C366F019C367F027D01AC360F01BC319
:1041400061F060516111D8A4000E626F56EC64F00A
:1041500060C09EF061C09FF01AC366F01BC367F099
:1041600013D01CC360F01DC361F060516111D8A46D
:10417000000E626F56EC64F060C09EF061C09FF06C
:104180001CC366F01DC367F066516711D8A4000E0A
:104190004ED700019351D1E0010A01E19AD6030AFA
:1041A000B8E0010A01E14AD7070ADBE0120000018A
:1041B000A769A869A969AA69020113BF2BD11331A4
:1041C000070B030A05E11351F10B0809136F1200E5
:1041D00011B5BCEF70F013A1120011A14DD0BE516A
:1041E000BC5D34E31351F10B0C09136F86510001D0
:1041F000A36F020187510001A46FA56BA66B0C0E83
:10420000D890A337A437A537A637E82EF9D7A3C08F
:1042100060F0A4C061F0A5C062F0A6C063F07D0E9E
:10422000646F656B666B676B15EC5AF060C06DF080
:1042300061C06EF062C06FF063C070F00201CD51DA
:10424000BAEC68F00201CD515FEF56F03AEC74F031
:104250000101B451B511D8B412000001906B916BFB
:10426000926B936B0500FA6A0101B451FD6EB55172
:10427000FE6EFF6AFA501200BD51BB5D01E2B3D081
:104280001351F10B0C09136F010EFFEC5DF00009E7
:1042900015E1590E926F0B0E936FB9C294F045EC75
:1042A00028F09251931103E10201BD2B120033EC6F
:1042B00074F00101B451B511D0E11200AB6B5BD0C9
:1042C0000001AB510E0D040EF324D96E050EF4203F
:1042D000DA6EDE044EE1AB510E0D080EF324D96EFA
:1042E000050EF420DA6EDE50DE10DE10DE1041E046
:1042F000AB510E0D080EF324D96E050EF420DA6EC4
:10430000DE50A75DDE50A859DE50A959DE50AA59EB
:1043100030E3AB510E0D050EF324D96E050EF420DB
:10432000DA6EDF500F0BA36FA3510201C45D21E3CE
:104330000001AB510E0D050EF324D96E050EF420CD
:10434000DA6EDF380F0BA36F0201C4510001A35DC9
:1043500010E3AB510E0D080EF324D96E050EF420B8
:10436000DA6EDECFA7F0DECFA8F0DECFA9F0DECF89
:10437000AAF00001AB2BAB510201D25DA1E2A7C0B4
:10438000A3F0A8C0A4F0A9C0A5F0AAC0A6F00C0E86
:10439000D8900001A337A437A537A637E82EF8D761
:1043A000000EA325606F200EA421616F030EA521CE
:1043B000626F000EA621636F7D0E646F656B666B86
:1043C000676B15EC5AF060C06DF061C06EF062C0B2
:1043D0006FF063C070F00201CF51BAEC68F00201D7
:1043E000CF515FEF56F033EC74F00101B451B511C9
:1043F000D8B412000001906B916B926B010E936F19
:104400000500FA6E0101B451FD6EB551FE6EFF6AF2
:10441000FA5012000101B451B511D8B412000001D4
:10442000906B916B926B020E936F0500FA6E010117
:10443000B451FD6EB551FE6EFF6AFA501200605124
:10444000D96EDA6A0D0ED926DF50616F626B0F0EDE
:104450006125F66EF70E6221F76EF86A000EF822FB
:104460000800F5CF63F06051D96EDA6A6351DF1A44
:104470006051D96EDA6A0E0ED926DF50616F626B19
:104480000F0E6125F66EF70E6221F76EF86A000EC8
:10449000F8220800F5CF63F06051D96EDA6AD92AA4
:1044A0006351DF1A6051D96EDA6A0F0ED926DF50D8
:1044B000616F626B0F0E6125F66EF70E6221F76E6B
:1044C000F86A000EF8220800F5CF63F06051D96E4B
:1044D000DA6A020ED9266351DF1A6051D96EDA6AA0
:1044E0000C0ED926DF50616F626B0F0E6125F66EE0
:1044F000F70E6221F76EF86A000EF8220800F5CF79
:1045000063F06051D96EDA6A030ED9266351DF1A5F
:104510006051D96EDA6A4E50DF1A7F0E4E640CD0AD
:104520001B0E4EC061F0626BD89061376237611923
:10453000646F6251656F05D0D8904E34646F656BBF
:10454000653764C04EF06051D96EDA6ADF50616F32
:104550006051D96EDA6A040ED9266151DF1A6051B2
:10456000D96EDA6AD92ADF50616F6051D96EDA6A82
:10457000050ED9266151DF1A6051D96EDA6A020E32
:10458000D926DF50616F6051D96EDA6A060ED926DE
:104590006151DF1A6051D96EDA6A030ED926DF50F5
:1045A000616F6051D96EDA6A070ED9266151DF1A40
:1045B0006051D96EDA6A040ED926DF50616F6051FE
:1045C000D96EDA6A080ED9266151DF1A6051D96EA8
:1045D000DA6A050ED926DF50616F6051D96EDA6A4A
:1045E000090ED9266151DF1A6051D96EDA6A060EBA
:1045F000D926DF50616F6051D96EDA6A0A0ED9266A
:104600006151DF1A6051D96EDA6A070ED926DF5080
:10461000616F6051D96EDA6A0B0ED9266151DF1ACB
:104620006051D96EDA6A080ED926DF50616F605189
:10463000D96EDA6A0C0ED9266151DF1A6051D96E33
:10464000DA6A090ED926DF50616F6051D96EDA6AD5
:104650000D0ED9266151DF1A6051D96EDA6A0A0E41
:10466000D926DF50616F6051D96EDA6A0E0ED926F5
:104670006151DF1A6051D96EDA6A0B0ED926DF500C
:10468000616F6051D96EDA6A0F0ED9266151DF1A57
:1046900012009F69A069A169A2699E6BA36BA351D7
:1046A0000E0D040EF324D96E050EF420DA6EDE042E
:1046B00001E093D0A3510E0D080EF324D96E050E20
:1046C000F420DA6EDE50DE10DE10DE1001E185D05F
:1046D000A3510E0D080EF324D96E050EF420DA6EE8
:1046E000DE500201AD5DDE50AE59DE50AF59DE50F6
:1046F000B05936E20001A3510E0D080EF324D96E15
:10470000050EF420DA6EDECF92F0DECF93F0DECF2E
:1047100094F0DECF95F00201AD510001925D966FED
:104720000201AE5100019359976F0201AF51000190
:104730009459986F0201B05100019559996FA35196
:104740000E0D080EF324D96E050EF420DA6E96C015
:10475000DEFF97C0DEFF98C0DEFF99C0DEFF0DD000
:104760000001A3510E0D080EF324D96E050EF4209E
:10477000DA6EDE6ADE6ADE6ADD6AA3510E0D080EAD
:10478000F324D96E050EF420DA6EDE509F5DDE5004
:10479000A059DE50A159DE50A2591FE3A3510E0DBE
:1047A000080EF324D96E050EF420DA6EDE50DE100A
:1047B000DE10DE1012E0A3510E0D080EF324D96EA8
:1047C000050EF420DA6EDECF9FF0DECFA0F0DECF54
:1047D000A1F0DECFA2F0010E9E6FA32B0F0EA365FA
:1047E0005ED79E05D8A412009FC0ADF2A0C0AEF265
:1047F000A1C0AFF2A2C0B0F2A25106E19F29FF0E04
:10480000A0590F0EA15918E39FC060F0A0C061F03D
:10481000A1C062F0A2C063F07D0E646F656B666B31
:10482000676B15EC5AF00C0ED89060376137623721
:104830006337E82EF9D71FD09FC092F0A0C093F045
:10484000A1C094F0A2C095F00C0ED8909237933787
:1048500094379537E82EF9D792C060F093C061F095
:1048600094C062F095C063F07D0E646F656B666BFB
:10487000676B15EC5AF060C09AF061C09BF062C0A3
:104880009CF063C09DF09AC06DF09BC06EF09CC020
:104890006FF09DC070F00201CE51BAEC68F00201D9
:1048A000CE515FEF56F00101E9A506D0800E000160
:1048B000936F030E926F030CE9C194F0030E000195
:1048C000941705E0800E936F040E926F040C9251C2
:1048D000931107E1000E7A6F040E796FE5EC0FF08B
:1048E00006D092C079F093C07AF0E5EC0FF00101A8
:1048F000DE0511E1010E0001626F220EBDEC71F0C8
:104900000001626B400EBDEC71F00001626B410E64
:10491000BDEC71F014D0FAC162F0120EBDEC71F072
:10492000FBC162F0130EBDEC71F00001626B400E32
:10493000BDEC71F00001626B410EBDEC71F0010144
:10494000E983E70EE91700019251931108E1DEC1F6
:1049500065F0000E666F050EE2EC44F041D00101F7
:10496000DE0509E1010E0001656F000E666F060E9F
:10497000E2EC44F035D0000E0001656F666F050E65
:10498000E2EC44F000019251946F9351956F966B55
:10499000976B0C0ED8909437953796379737E82E4B
:1049A000F9D794C060F095C061F096C062F097C0EE
:1049B00063F07D0E646F656B666B676B15EC5AF088
:1049C00060C06DF061C06EF062C06FF063C070F0E7
:1049D0000101EE51BAEC68F00101EE515FEC56F0C6
:1049E0000101F051F111F211F31159E0F35106E117
:1049F000F029FF0EF1590F0EF25919E3F0C160F0E2
:104A0000F1C161F0F2C162F0F3C163F07D0E00010B
:104A1000646F656B666B676B15EC5AF00C0ED89083
:104A20006037613762376337E82EF9D720D0F0C19D
:104A300094F0F1C195F0F2C196F0F3C197F00C0E2D
:104A4000D89000019437953796379737E82EF8D7E6
:104A500094C060F095C061F096C062F097C063F0BA
:104A60007D0E646F656B666B676B15EC5AF060C00A
:104A700098F061C099F062C09AF063C09BF098C052
:104A80006DF099C06EF09AC06FF09BC070F001019C
:104A9000EF51BAEC68F00101EF515FEC56F0000104
:104AA000926B936B12009E96C6AEE2D0C69E4D6A84
:104AB000010120EE03F0BA51D926BB51DA22DECF34
:104AC00004F0DDCF05F004C0D9FF05C0DAFF010E08
:104AD000DF6EBA6BBB6B1200020104B3120002C29C
:104AE000BAF103C2BBF102C2D9FF03C2DAFFDF5041
:104AF0004C6E20EE01F00251D9260351DA22DECFAE
:104B0000BCF1DDCFBDF1050E0227000E0323B70E69
:104B1000021907E1030E031904E1B20E026F030E3E
:104B2000036F04910051021904E10151031901E1DD
:104B30000483C580020E4D6E020CC5AC04D015D0A6
:104B4000040E2DEF6AF0D8900101FD31056EFC31A5
:104B5000046E0450C96EFCA103D00B0E4D6E0B0CFD
:104B6000030E4D6E030CC5AC03D00201062BE8D733
:104B7000C5820101FD51060B046E056AF00E04109A
:104B8000FC6F0550FD6FFC81010E4A6ED3D74A04BD
:104B90001BE0BCC1D9FFBDC1DAFFDECFFCF1DDCF28
:104BA000FDF1010120EE03F0BC51D926BD51DA22FE
:104BB000DECF0DF2DDCF0EF220EE02F0BC51D92691
:104BC000BD51DA22DF504B6EFCC1C9FF0101FCA1CF
:104BD000C7D7050E4D6E050CC5AC06D00201062BDD
:104BE000C59C050E2DEF6AF04B064B280AE1050E19
:104BF0000101BC27000EBD234C2E01D031D0C5824F
:104C000099D70DC2D9FF0EC2DAFFDF50C96E02017B
:104C10000D4B0E2B1200C5AC07D00201062B040E63
:104C20002DEC6AF0C59C1200C586080E4D6E080C6E
:104C3000080E4D6EC586080C0DC2D9FF0EC2DAFFF4
:104C4000C9CFDFFF02010D4B0E2B4B0604E0C59AC6
:104C5000060E4D6E03D0C58ADDEC72F0C5881200D9
:104C6000000E2DEF6AF00201062B060E2DEF6AF002
:104C70004D5001E131D7010AC2E0030A88E0010A80
:104C8000ABE0070AEDE0010AC6E0030AD1E0010A41
:104C9000E7E00F0AD1E0020A01E14FD7010A01E182
:104CA00062D7E1D766C0D9FF67C0DAFFDF50796FFE
:104CB000664B672B795198EC70F0F4E2756B766B6C
:104CC000776B786B746B2D0E79190BE1010E746F95
:104CD00066C0D9FF67C0DAFFDF50796F664B672B7C
:104CE00003D02B0E7919F4E0300E791927E166C054
:104CF000D9FF67C0DAFFDF50796F664B672B6A51C7
:104D00006B1104E0100E6A196B1112E1780E79191B
:104D100003E0580E79190CE16B6B100E6A6F66C0D8
:104D2000D9FF67C0DAFFDF50796F664B672B06D07B
:104D30006A516B1103E16B6B080E6A6F6A516B115C
:104D400003E16B6B0A0E6A6F79513AEC70F006E37F
:104D500079513DEC73F0C90F796F06D0795190EC21
:104D600071F065E3300E795F79516C6F6D6B6A514C
:104D70006C5D6D51800A6E6F6B51800A6E5957E2FF
:104D80006AC06CF06BC06DF0000E6DBFFF0E6E6FF1
:104D90006F6F6C517503F3CF70F0F4CF71F0726BDD
:104DA000736B7603F3507127F4507223000E732354
:104DB0006D517503F3507127F4507223000E732365
:104DC0006C517703F3507227F45073236D517603BF
:104DD000F3507227F45073236E517503F35072270A
:104DE000F450732378516C03F35073276D5177039C
:104DF000F35073276E517603F35073276F51750389
:104E0000F350732779517025756F000E7121766FFD
:104E1000000E7221776F000E7321786F66C0D9FF84
:104E200067C0DAFFDF50796F664B672B8DD768510B
:104E300069110EE0FF0E66256C6FFF0E67216D6F26
:104E400068C0D9FF69C0DAFF6CC0DEFF6DC0DDFF4E
:104E500074511AE075C06CF076C06DF077C06EF0DA
:104E600078C06FF06C1F6D1F6E1F6F1F6C2B000ED4
:104E70006D236E236F236CC066F06DC067F06EC04B
:104E800068F06FC069F0000C75C066F076C067F01E
:104E900077C068F078C069F012007B6B76C07CF058
:104EA00077C07DF0DED002018C51020D8E0EF3240E
:104EB000D96E020EF420DA6EDF908C51020D8E0E48
:104EC000F324D96E020EF420DA6EDF928C51020DBB
:104ED0008E0EF324D96E020EF420DA6EDF948C511C
:104EE000020D8E0EF324D96E020EF420DA6EDF96D8
:104EF0008C51020D8E0EF324D96E020EF420DA6E60
:104F0000DF988C51020D8E0EF324D96E020EF42020
:104F1000DA6EDF9A8C51020D8E0EF324D96E020EDA
:104F2000F420DA6EDF9C8C51020D8E0EF324D96EC4
:104F3000020EF420DA6EDF9E7CC0D9FF7DC0DAFF5E
:104F40008C51020D8D0EF324E16E020EF420E26E00
:104F5000DFCFE7FF60D07CC060F07DC061F0F4EC93
:104F60006CF060C07CF061C07DF002018C51020DDC
:104F70008D0EF324D96E020EF420DA6EDF6862D053
:104F80007CC06DF07DC06EF0E0EC2BF06DC07CF06D
:104F90006EC07DF057D07CC060F07DC061F0E2EC67
:104FA00063F060C07CF061C07DF04CD07CC06CF0E0
:104FB0007DC06DF06EEC33F06CC07CF06DC07DF0A8
:104FC00041D07CC060F07DC061F0A5EC74F060C0A1
:104FD0007CF061C07DF036D07CC06CF07DC06DF09F
:104FE0001FEC2AF06CC07CF06DC07DF02BD07CC033
:104FF00065F07DC066F008EC6FF065C07CF066C0BF
:105000007DF020D0010E7B6F785176257C6F000EED
:1050100077217D6FAAD77CC0D9FF7DC0DAFF000160
:105020007C4B7D2BDF50020A96E0010AA9E0070ABB
:10503000B2E0010ABBE0030AC4E0010ACDE00F0AB6
:10504000D6E0E0D702018C51020D8D0EF324D96E0B
:10505000020EF420DA6EDE2804E0100E8C6101D01E
:105060008C2B000178517625796F000E77217A6FAD
:1050700079517C5D7A517D5903E27B5101E113D76F
:105080007CC076F07DC077F012000101E9A506D062
:10509000800E0001936F030E926F030CE9C195F02F
:1050A000030E0001951705E0800E936F040E926FBA
:1050B000040C0101DE5109E1400E0001946505D0A8
:1050C000800E936F020E926F020C0101ED51F8EC0D
:1050D00071F0000E7A6F040E796FE5EC0FF00101AC
:1050E000DE0523E194C062F0220EBDEC71F00A0EE1
:1050F00073EC70F0A16FF00EA117A187A1C062F050
:105100000A0EBDEC71F0400E0001626FBDEC71F053
:105110000001626B410EBDEC71F0DEC165F0010E65
:105120000001666FE2EC44F00AD00001626B400EB1
:10513000BDEC71F00001626B410EBDEC71F001013C
:10514000DE5105E194C062F0000EBDEC71F079EC27
:1051500075F0800EC3EC74F00001A26B0BD0A2516D
:105160009225D96E000E9321DA6EDF50C3EC74F0F5
:105170000001A22B9451A25DF2E377EC75F00101DE
:10518000E981E70EE917DEC165F0000E0001666FE8
:10519000030EE2EC44F000016D6B6E6B0A0E6F6F54
:1051A000706B0101ED51BAEC68F00101ED515FEC5B
:1051B00056F00101F051F111F211F31159E0F351E0
:1051C00006E1F029FF0EF1590F0EF25919E3F0C173
:1051D00060F0F1C161F0F2C162F0F3C163F07D0EE5
:1051E0000001646F656B666B676B15EC5AF00C0E13
:1051F000D8906037613762376337E82EF9D720D00F
:10520000F0C195F0F1C196F0F2C197F0F3C198F0BA
:105210000C0ED89000019537963797379837E82EBF
:10522000F8D795C060F096C061F097C062F098C062
:1052300063F07D0E646F656B666B676B15EC5AF0FF
:1052400060C09DF061C09EF062C09FF063C0A0F09E
:105250009DC06DF09EC06EF09FC06FF0A0C070F05A
:105260000101EF51BAEC68F00101EF515FEC56F02B
:105270000001926B936B12000001706F210E701988
:10528000D8A41200030E756F766B716B726B736B23
:10529000746B710E606F616B7651030D6CC06EF0B4
:1052A0006DC06FF0F3506E27F4506F230D0E6E2516
:1052B000626F000E6F21636F656B030E646F2DECE0
:1052C00060F071C060F072C061F073C062F074C0D1
:1052D00063F0640E646F656B666B676BE6EC56F0AB
:1052E00060C071F061C072F062C073F063C074F0AE
:1052F000715172117311741101E194D071C060F099
:1053000072C061F073C062F074C063F0BCEC5EF018
:10531000000901E08CD076510E0D000E6E6F050E67
:105320006F6FF3506E27F4506F2375510E0DF350CD
:105330006E25D96EF4506F21DA6E71C0DEFF72C037
:10534000DEFF73C0DEFF74C0DEFF76510E0D000E6F
:105350006E6F050E6F6F050E6E27000E6F23F350F4
:105360006E27F4506F2375510E0DF3506E25D96ED4
:10537000F4506F21DA6EDF500F0B5009DF6E000121
:1053800076510E0D000E6E6F050E6F6F050E6E27B7
:10539000000E6F23F3506E27F4506F2375510E0DDE
:1053A000F3506E25D96EF4506F21DA6EF00EDF16D1
:1053B00076510E0D000E6E6F050E6F6F060E6E2786
:1053C000000E6F23F3506E27F4506F2375510E0DAE
:1053D000F3506E25D96EF4506F21DA6EE70EDE6E53
:1053E000030EDD6E76510E0D000E6E6F050E6F6FA3
:1053F0000D0E6E27000E6F23F3506E27F4506F23AF
:1054000075510E0DF3506E25D96EF4506F21DA6E82
:10541000DF68010E646F7651752599EC68F0020122
:10542000148505D0646B7651752599EC68F0000100
:10543000762B040E766529D702011485040C6CC006
:10544000D9FF6DC0DAFFDF50736F6C4B6D2B6CC0F2
:10545000D9FF6DC0DAFFFF0EDE146F6FFF0EDE1492
:10546000706FFF0EDE14716F000EDE14726F6FC06E
:1054700060F070C061F071C062F072C063F0640EE1
:10548000646F656B666B676BE6EC56F060C06FF03F
:1054900061C070F062C071F063C072F0030E6C27DF
:1054A000000E6D236CC0D9FF6DC0DAFFDF506E6F48
:1054B0006C4B6D2B606B7351AEEC71F000092BE1FE
:1054C0006FC060F070C061F071C062F072C063F0D4
:1054D000BCEC5EF0000905E06F51701171117211A2
:1054E0000AE102018C51020D8E0EF324D96E020ED8
:1054F000F420DA6EDF8E00016E51A7EC6CF000092B
:105500000AE102018C51020D8E0EF324D96E020EB7
:10551000F420DA6EDF8C02018C51020D8E0EF32422
:10552000D96E020EF420DA6EDFAE65D08C51020D1A
:105530008E0EF324D96E020EF420DA6EDFAC5BD04F
:10554000100EBF6129D000016F51701171117211DD
:105550001EE06FC060F070C061F071C062F072C098
:1055600063F07351BFEC6AF06EC060F0735172EC7F
:105570003FF0010E0001616F2E0E606F73510DEC54
:105580006DF0010E606F735178EC3BF032D0646BBC
:10559000735199EC68F02DD000016F5170117111A9
:1055A000721122E06FC060F070C061F071C062F0F3
:1055B00072C063F07351100FBFEC6AF06EC060F000
:1055C0007351100F72EC3FF0010E0001616F2E0E4F
:1055D000606F7351100F0DEC6DF0010E606F735121
:1055E000100F78EC3BF005D0646B7351100F99EC01
:1055F00068F0020114856CC06CF06DC06DF0120093
:10560000EBC0D9FFECC0DAFFDECFEFF0DDCFF0F07A
:10561000000120EE02F0EB51D926EC51DA22DECF68
:10562000F2F0DDCFF3F0010EF16FF569EFC091F00C
:10563000F0C092F0B9EC45F0F46FF2C07AF0F3C02C
:105640007BF0010E7C6F7D6F7E6B7F6B806B6AECF5
:1056500058F0000908E0F2C063F0F3C064F0DCEC3D
:1056600048F06351F56FF4AFF5BF92D0F16B6CD099
:10567000F55102E189908CD089808AD0F55102E100
:10568000899286D0898284D0F55102E1899480D0B4
:1056900089847ED0F55102E189967AD0898678D0C6
:1056A000F55102E1899874D0898872D0F55102E1F0
:1056B000899A6ED0898A6CD0F55102E18D9068D0BC
:1056C0008D8066D0F55102E18D9262D08D8260D0DE
:1056D000F55102E18C945CD08C845AD0F55102E1F2
:1056E0008D9456D08D8454D0F55102E18B9A50D0D0
:1056F0008B8A4ED0F55102E18C9A4AD08C8A48D0E0
:10570000F55102E18C9E44D08C8E42D0F55102E1DD
:105710008C9C3ED08C8C3CD0F55102E1899E38D0D7
:10572000898E36D0F55102E1899C32D0898C30D0F7
:10573000F55102E18A9C2CD08A8C2AD0F55102E1E5
:105740008A9E26D08A8E24D0F45192E0010A96E0F7
:10575000030A9AE0010A9EE0070AA2E0010AA6E015
:10576000030AAAE0010AAEE00F0AB2E0010AB6E0BD
:10577000030ABAE0010ABEE0070AC2E0010AC6E075
:10578000030ACAE0010ACEE01F0AD2E0010AD6E00D
:10579000F151020DF60EF324D96E020EF420DA6EEA
:1057A000DECFEDF0DDCFEEF020EE06F0EB51D926A6
:1057B000EC51DA22EDC0DEFFEEC0DEFFDD6A120042
:1057C0006DC0D9FF6EC0DAFFDF500F0B726F6DC076
:1057D000D9FF6EC0DAFFDF506F6F6F390F0B756F37
:1057E0006D4B6E2B6DC0D9FF6EC0DAFFDECF70F04F
:1057F000DDCF71F0020E6D27000E6E236DC073F0C9
:105800006EC074F06D4B6E2B020113AB92D073C05F
:10581000D9FF74C0DAFF0001DF38070B1AEC73F010
:10582000000912E170C060F071C061F084EC6BF0AF
:1058300000090AE102018C51020D8E0EF324D96E8B
:10584000020EF420DA6EDF800001755172EC73F005
:10585000000912E10201D0510001755D0DE375519F
:105860000201D15D09E38C51020D8E0EF324D96E35
:10587000020EF420DA6EDF820001725112EC71F038
:1058800000090AE102018C51020D8E0EF324D96E3B
:10589000020EF420DA6EDF8402018C51020D8E0EAE
:1058A000F324D96E020EF420DA6EDFA45DD08C51A1
:1058B000020D8E0EF324D96E020EF420DA6EDFA2F2
:1058C00053D08C51020D8E0EF324D96E020EF420AB
:1058D000DA6EDFA049D070C06AF071C06BF073C09F
:1058E000D9FF74C0DAFF0001DF38070B6C6F48EC9A
:1058F00073F07251FCEC74F00201148700017551D1
:1059000010EC75F073C0D9FF74C0DAFF0001DF50EE
:105910000F0B03E10201BB6B0AD073C0D9FF74C047
:10592000DAFFDF500F0B6F6F6F050201BB6F148939
:105930001BD08C51020D8E0EF324D96E020EF42072
:10594000DA6EDF908C51020D8E0EF324D96E020EAA
:10595000F420DA6EDF928C51020D8E0EF324D96E94
:10596000020EF420DA6EDF946DC06DF06EC06EF042
:105970001200EBC0D9FFECC0DAFFDECFEFF0DDCFD5
:10598000F0F0010E0001F16FF369EFC091F0F0C08B
:1059900092F0B9EC45F0F26FF2BF80D05AD0000E11
:1059A00080B0010EF36F79D0000E80B2010EF36F5C
:1059B00074D0000E80B4010EF36F6FD0000E80B66D
:1059C000010EF36F6AD0000E80B8010EF36F65D040
:1059D000000E80BA010EF36F60D0000E84B0010E8D
:1059E000F36F5BD0000E84B2010EF36F56D0000E41
:1059F00083B4010EF36F51D0000E84B4010EF36F27
:105A00004CD0000E82BA010EF36F47D0000E83BA5D
:105A1000010EF36F42D0000E83BE010EF36F3DD036
:105A2000000E83BC010EF36F38D0000E80BE010E55
:105A3000F36F33D0000E80BC010EF36F2ED0000E3A
:105A400081BC010EF36F29D0000E81BE010EF36FF1
:105A500024D0F251A4E0010AA7E0030AAAE0010A57
:105A6000ADE0070AB0E0010AB3E0030AB6E0010ABC
:105A7000B9E00F0ABCE0010ABFE0030AC2E0010A74
:105A8000C5E0070AC8E0010ACBE0030ACEE0010A3C
:105A9000D1E01F0AD4E0010AD7E0F16BF15118E020
:105AA000F151020DF60EF324D96E020EF420DA6ED7
:105AB000DECFEDF0DDCFEEF020EE06F0EB51D92693
:105AC000EC51DA22EDC0DEFFEEC0DEFFDD6A12002F
:105AD000280E736F080E746FF351756F766B75BF78
:105AE0007607786B0A0E776F2AEC50F0280EED6F70
:105AF000080EEE6F20EE06F0EB51D926EC51DA22BB
:105B0000EDC0DEFFEEC0DEFF200EDF6E200C9251F6
:105B1000946F9351956F966B976BE80E9403F3CF48
:105B200098F0F4CF99F09A6B9B6B9503F3509927FB
:105B3000F4509A23000E9B23030E9403F3509927ED
:105B4000F4509A23000E9B23E80E9603F3509A27F5
:105B5000F4509B23030E9503F3509A27F4509B2394
:105B6000000E9403F3509A27F4509B23E80E9703FA
:105B7000F3509B27030E9603F3509B27000E9503CB
