:040000008FEF00F08E
:10000800FACF15F0FBCF16F0E1CF17F0E2CF18F0DA
:10001800D9CF19F0DACF1AF0F3CF1BF0F4CF1CF0D8
:100028004EC01DF04FC01EF050C01FF051C020F050
:1000380052C021F053C022F054C023F055C024F020
:1000480056C025F057C026F058C027F059C028F0F0
:100058001DEE46F0F2BC9DA005D09EA003D084EC16
:1000680076F030D0F2BC9DAA05D09EAA03D062ECEF
:100078003DF028D0F2BC9DA805D09EA803D0FBEC8B
:1000880070F020D0F0B6F0A003D0C4EC77F01AD00E
:10009800F0B8F0A203D0C1EC77F014D0F2B6F2A019
:1000A80003D052EC76F00ED0F2BC9DA605D09EA6E9
:1000B80003D056EC26F006D0F2BCA0A603D0A1B619
:1000C800F5EC77F028C059F027C058F026C057F053
:1000D80025C056F024C055F023C054F022C053F078
:1000E80021C052F020C051F01FC050F01EC04FF088
:1000F8001DC04EF01CC0F4FF1BC0F3FF1AC0DAFF8E
:1001080019C0D9FF18C0E2FF17C0E1FF16C0FBFFF6
:1001180015C0FAFF11001CEE4DF0D0EF37F0BBEC24
:1001280077F003010BB13FEF06F0E9C0D9FFEAC051
:10013800DAFFDF500101696F6939E832070BE80619
:1001480001E0D1D00301255101E0CDD00001EB053C
:1001580001016F6F1DD00001EB51E925EC6F000E16
:10016800EA21ED6F01016F510001EC5D8C6FED51DB
:10017800D8A0ED058D6F4A0E8E6F030E8F6F60EC61
:1001880071F0100E01016F6502D06F5F01D06F6BC7
:100198006F51E1E14A0E0001D66F030ED76FE9C037
:1001A800D8F0EAC0D9F0EB51FC0FDA6FDCEC64F060
:1001B800D6C072F1D7C073F1D8C074F1D9C075F147
:1001C800E9C06BF0EAC06CF0EBC06DF002EC6AF0CD
:1001D8006BC06AF16CC06BF16DC06CF16EC06DF1F3
:1001E800010172516A1909E173516B1906E17451E1
:1001F8006C1903E175516D191EE003010A510F0BCB
:10020800050A06E00A510F0B030A09E1EB5107E062
:100218000AB903D085EC72F002D0F00E0A17020E6C
:1002280003011A19D8A4120003010A51F00B090995
:100238000A6FF5EF5DF003010A510F0B030A03E1A2
:10024800DD5160EC6FF0E9C076F1EAC077F10101A9
:1002580020EE07F07651D9267751DA22DECF26F341
:10026800DECF27F3DECF28F3DECF29F320EE0CF024
:100278007651D9267751DA22DF500F0B77EC6BF0E5
:10028800010120EE0BF07651D9267751DA22DF38BA
:10029800070B0001606F010120EE0BF07651D926A3
:1002A8007751DA22DF500F0BD9EC72F076C160F08B
:1002B80077C161F0EB51EEEC77F076C1A0F077C131
:1002C800A1F0C7EC58F0E66A95EC35F003010E6B27
:1002D8000F6B106B116B126B136B146B156B020E9B
:1002E8001A19A2E0120001016939E832070B030A62
:1002F80007E06939E832070B050A02E03CEF06F02F
:100308000301A06BE9C07DF1EAC07EF1020E1A1963
:1003180001E0B0D1010120EE01F07D51D9267E51D6
:10032800DA2203016A51DE1809E16B51DE1806E191
:100338006C51DE1803E16D51DE18D8A49BD10CA5D1
:1003480099D17DC160F07EC161F0E5EC5AF00009F9
:1003580001E16AD7010120EE06F07D51D9267E51D0
:10036800DA22DECF79F1DDCF7AF1030116510101EE
:10037800795D0301175101017A5905E318C37BF12F
:1003880019C37CF10AD0010E0301182501017B6F06
:10039800000E0301192101017C6F79C16BF07AC14C
:1003A8006CF07BC16DF07CC16EF00001EB51FC0F6D
:1003B8006F6F490E706F010E716F59EC4AF03E0E67
:1003C800606F0B0E616F560E626F020E636F656B86
:1003D800100E646F41EC61F04E0E606F0B0E616F92
:1003E800E9C062F0EAC063F0FC0EEB25646F656B50
:1003F800FF0E652341EC61F06E0EC86F030EC96FE6
:10040800560ECA6F020ECB6F3E0ECC6F0B0ECD6F21
:10041800EB510C0FCE6F09EC1AF0720E606F010EE3
:10042800616F560E626F020E636F656B040E646F28
:1004380041EC61F0E9C06BF0EAC06CF0EBC06DF024
:1004480002EC6AF06BC06AF16CC06BF16DC06CF1C4
:100458006EC06DF101016A5172190BE16B5173198C
:1004680008E16C51741905E16D51751901E0DCD68C
:1004780001D0DAD620EE06F07D51D9267E51DA2257
:1004880003011651DE5C1751DE5836E3010120EEF8
:1004980006F07D51D9267E51DA22DECFECF0DDCF91
:1004A800EDF0030116510001EC5F03011751000143
:1004B800ED5BEC510301985D0001ED510301995981
:1004C8000FE23050311001E1AFD60001996B9A6B01
:1004D8009B6B060E9C6F01D8A7D60500FA6EC3D099
:1004E800010120EE06F07D51D9267E51DA22DECFB9
:1004F80016F3DDCF17F32AD0010120EE06F07D5167
:10050800D9267E51DA22DECFECF0DDCFEDF0030103
:10051800161D0001EE6F0301171D0001EF6FEC516E
:10052800EE27ED51EF23030198510001EE5D030121
:1005380099510001EF5906E20301166B176B184B2E
:10054800192B04D030503110C0E16ED603011629A2
:1005580007E1172905E1182903E1192901E1F2D773
:100568000A510F0B080A08E1DE5160EC6FF0030135
:10057800DF5160EC6FF007D00A510F0B030A03E15B
:10058800DF5160EC6FF0080E0001E927000EEA2346
:10059800EB51EC6FED6B010120EE05F07D51D92692
:1005A8007E51DA22DF500F0B0001EE6FEF6B0C0E5D
:1005B800EE27000EEF23EC51EE1903E1ED51EF1990
:1005C80039E0E9C0D9FFEAC0DAFFDF500101666F00
:1005D8000001E94BEA2BEB51F40F0101786F190E7A
:1005E8006E6FE9C0A0F0EAC0A1F078050001A26F23
:1005F800010EA36F16C3A4F017C3A5F018C3A6F085
:1006080019C3A7F07E0EA86F030EA96F6EC1AAF0DA
:100618003E0EAB6F0B0EAC6F010EAD6F98EC30F069
:10062800FF0EE9250101706FFF0E0001EA210101AB
:10063800716F04D00101786B706B716B03010B83D0
:10064800F00E0A173050311001E1EED570C199F063
:1006580071C19AF078C19BF0010E00019C6F01D81E
:10066800E3D50500FA6E3050FD6E3150FE6EFF6A1C
:10067800FA501200010120EE01F07D51D9267E5179
:10068800DA2203012651DE1809E12751DE1806E1B6
:100698002851DE1803E12951DE1801E0E9D20101F1
:1006A80020EE06F07D51D9267E51DA22DECF79F18F
:1006B800DDCF7AF1030112510101795D0301135174
:1006C80001017A5905E314C37BF115C37CF10AD003
:1006D800010E0301142501017B6F000E0301152192
:1006E80001017C6F79C16BF07AC16CF07BC16DF050
:1006F8007CC16EF00001EB51FC0F6F6F490E706FFB
:10070800716B010E59EC4AF03E0E606F0B0E616F73
:10071800560E626F020E636F656B100E646F41ECCC
:1007280061F04E0E606F0B0E616FE9C062F0EAC0B7
:1007380063F0FC0EEB25646F656BFF0E652341ECDF
:1007480061F02A0EC86F030EC96F560ECA6F020EEB
:10075800CB6F3E0ECC6F0B0ECD6FEB510C0FCE6FE7
:1007680009EC1AF0720E606F010E616F560E626F1F
:10077800020E636F656B040E646F41EC61F0E9C0B3
:100788006BF0EAC06CF0EBC06DF002EC6AF06BC085
:100798006AF16CC06BF16DC06CF16EC06DF1010156
:1007A8006A51721909E16B51731906E16C51741998
:1007B80003E16D51751901E05BD220EE06F07D5121
:1007C800D9267E51DA2203011251DE5C1351DE581C
:1007D80042E3010120EE06F07D51D9267E51DA224E
:1007E800DECFECF0DDCFEDF0030112510001EC5F3C
:1007F800030113510001ED5BEC510301965D00010B
:10080800ED51030197591BE20891F00E0A17305079
:10081800311012E0089B000E0001996B9A6B9B6BDC
:100828009C6B01D809D00500FA6E3050FD6E31502E
:10083800FE6EFF6AFA50120003010B9364D00101A7
:1008480020EE06F07D51D9267E51DA22DECF12F352
:10085800DDCF13F34BD096510001EC6F0301975194
:100868000001ED6FEE6BEF6B010120EE06F07D519C
:10087800D9267E51DA22DECFF0F0DDCFF1F0030188
:1008880012510001F05DF26F030113510001F1599B
:10089800F36FF46BD8A0F407F451F56FFF0EF2254F
:1008A800F66FFF0EF321F76F000EF421F86F000EBC
:1008B800F521F96FEC51F65DED51F759EE51F85904
:1008C800F951800AFA6FEF51800AFA5901E3D0D141
:1008D800010120EE06F07D51D9267E51DA22DECFC5
:1008E80012F3DDCF13F30301144B152B496A486A41
:1008F80002011D6B0301122908E1132906E11429DD
:1009080004E1152902E10C83EAD40A510F0B030A0A
:1009180003E1DF5160EC6FF0010E0301D26F7DC17E
:1009280060F07EC161F046EC5FF0010120EE05F059
:100938007D51D9267E51DA22DF500F0B34E020EEAC
:1009480005F07D51D9267E51DA22DF500F0B7D2527
:100958000001EC6F000E01017E210001ED6F080E11
:10096800EC25D96E000EED21DA6EDF5021E0080E7D
:1009780001017D2500018A6F000E01017E21000121
:100988008B6F010120EE05F07D51D9267E51DA22C8
:10099800DF500F0B00018C6F5AEC23F08AC0E9F08E
:1009A8008BC0EAF005D0080E0001E927000EEA2303
:1009B800EB51EC6FED6B010120EE05F07D51D9266E
:1009C8007E51DA22DF500F0B0001EE6FEF6B0C0E39
:1009D800EE27000EEF23EC51EE1904E1ED51EF196B
:1009E80001E1A1D0E9C0D9FFEAC0DAFFDF50010177
:1009F800666F0001E94BEA2B010120EE05F07D51FD
:100A0800D9267E51DA22DF500F0B0001EC6FEC5132
:100A1800EB5DF40F0101786F20EE05F07D51D926CA
:100A28007E51DA22DF500F0B190F6E6F665128E0E6
:100A3800E9C0A0F0EAC0A1F078050001A26F010E9C
:100A4800A36F12C3A4F013C3A5F014C3A6F015C373
:100A5800A7F03A0EA86F030EA96F6EC1AAF03E0E5A
:100A6800AB6F0B0EAC6FAD6B98EC30F0FF0EE92559
:100A78000101706FFF0E0001EA210101716F57D06B
:100A88000001EB51EC6FED6B010120EE05F07D519B
:100A9800D9267E51DA22DF500F0B0001EE6FEF6B83
:100AA8000D0EEE27000EEF23EC51EE5DEF51800A9C
:100AB800F06FED51800AF05936E2E9C0A0F0EAC0C3
:100AC800A1F0010178050001A26F010EA36F12C306
:100AD800A4F013C3A5F014C3A6F015C3A7F02A0EFB
:100AE800A86F030EA96F6EC1AAF03E0EAB6F0B0E76
:100AF800AC6FAD6B98EC30F0010120EE05F07D5144
:100B0800D9267E51DA22DF500F0B0DE1E9C08AF0B9
:100B1800EAC08BF0780500018C6F5AEC23F08AC08C
:100B2800E9F08BC0EAF00101786B706B716B010E14
:100B38000301D26FCA6BCB6BE86B08990B8308A1D2
:100B480050D0010120EE05F07D51D9267E51DA22E0
:100B5800DFAA44D003010891010E0101676FF00E6E
:100B680003010A173050311014E0089B70C199F046
:100B780071C19AF078C19BF067C19CF001D809D087
:100B88000500FA6E3050FD6E3150FE6EFF6AFA5065
:100B9800120003010B930ABB08BB5DD008B302D057
:100BA80008A759D0010E00017E6F680E7F6F010EF5
:100BB800806F0301E751FFEC40F000090CE1000EE3
:100BC800E26BE36BE46BE56B77EC47F0000943E11C
:100BD8000301089740D0EFEC77F03DD0F5EC5BF0DF
:100BE8003AD0010E0101676FF00E03010A17305069
:100BF800311014E0089B70C199F071C19AF078C166
:100C08009BF067C19CF001D809D00500FA6E3050FE
:100C1800FD6E3150FE6EFF6AFA50120003010ABBE6
:100C280008BB19D008B302D008A715D0010E0001DF
:100C38007E6F680E7F6F010E806F0301E751FFEC36
:100C480040F00009C8E1000EE26BE36BE46BE56B72
:100C580077EC47F0BDD7020E03011A19D8A4120089
:100C6800BFEC73F00001EC6FECB1120018EF01F06B
:100C7800000EC7EF5CF030503110D8B41200BFEC52
:100C880073F00001EC6FECB711D0E9C099F0EAC03D
:100C98009AF0EBC09BF0030E9C6F0500FA6E305083
:100CA800FD6E3150FE6EFF6AFA501200E9C099F0ED
:100CB800EAC09AF0EBC09BF0020E9C6F0500FA6E3A
:100CC8003050FD6E3150FE6EFF6AFA501200806B94
:100CD800816B796B7A6B010E0001616F120E606F88
:100CE8006269C1EC6AF0010E0001616F130E606F5A
:100CF8006269C1EC6AF014C27CF115C27DF1010190
:100D08007E6B7F6B7D517927000E7A230001616B22
:100D1800606B7DC162F0C1EC6AF00101804B812BF0
:100D28007C517927000E7A2380C160F081C161F07F
:100D38007CC162F0C1EC6AF00101804B812B7C0E12
:100D48000001606F010E616F7B0E626F010E636FB1
:100D58003EEC70F00101826B7C0E8225D96EDA6A56
:100D6800010EDA22DF507927000E7A2380C160F065
:100D780081C161F07C0E8225D96EDA6A010EDA2211
:100D8800DF500001626FC1EC6AF00101804B812BDA
:100D9800822B030E8265E0D77B517927000E7A23D8
:100DA80080C160F081C161F07BC162F0C1EC6AF082
:100DB8000101804B812BB2EC77F001017B6F7B51F5
:100DC8007927000E7A2380C160F081C161F07BC170
:100DD80062F0C1EC6AF00101804B812BCFEC75F019
:100DE80060C07CF161C07DF162C07EF163C07FF1BB
:100DF800826B7C0E8225D96EDA6A010EDA22DF5008
:100E08007927000E7A2380C160F081C161F07C0EE1
:100E18008225D96EDA6A010EDA22DF500001626F8C
:100E2800C1EC6AF00101804B812B822B030E826595
:100E3800E0D7EAEC75F060C07CF161C07DF162C07A
:100E48007EF163C07FF1826B7C0E8225D96EDA6AEF
:100E5800010EDA22DF507927000E7A2380C160F074
:100E680081C161F07C0E8225D96EDA6A010EDA2220
:100E7800DF500001626FC1EC6AF00101804B812BE9
:100E8800822B030E8265E0D7660E00016B6F010EA0
:100E98006C6F61EC74F00101826B660E8225D96E6D
:100EA800DA6A010EDA22DF507927000E7A2380C130
:100EB80060F081C161F0660E8225D96EDA6A010E92
:100EC800DA22DF500001626FC1EC6AF00101804B49
:100ED800812B822B070E8265E0D7660E00016B6FAF
:100EE800010E6C6F6EEC74F00101826B660E822548
:100EF800D96EDA6A010EDA22DF507927000E7A23DA
:100F080080C160F081C161F0660E8225D96EDA6A0F
:100F1800010EDA22DF500001626FC1EC6AF00101B4
:100F2800804B812B822B070E8265E0D7660E00016D
:100F38006B6F010E6C6F47EC74F00101826B660EEB
:100F48008225D96EDA6A010EDA22DF507927000E7F
:100F58007A2380C160F081C161F0660E8225D96E66
:100F6800DA6A010EDA22DF500001626FC1EC6AF022
:100F78000101804B812B822B0F0E8265E0D7660E14
:100F880000016B6F010E6C6F2DEC74F00101826B28
:100F9800660E8225D96EDA6A010EDA22DF507927C9
:100FA800000E7A2380C160F081C161F0660E82254F
:100FB800D96EDA6A010EDA22DF500001626FC1ECE5
:100FC8006AF00101804B812B822B0F0E8265E0D7DE
:100FD800660E00016B6F010E6C6F3AEC74F0010144
:100FE800826B660E8225D96EDA6A010EDA22DF502C
:100FF8007927000E7A2380C160F081C161F0660E06
:101008008225D96EDA6A010EDA22DF500001626F9A
:10101800C1EC6AF00101804B812B822B0F0E826597
:10102800E0D7F3EC75F060C07CF161C07DF162C07F
:101038007EF163C07FF1826B7C0E8225D96EDA6AFD
:10104800010EDA22DF507927000E7A2380C160F082
:1010580081C161F07C0E8225D96EDA6A010EDA222E
:10106800DF500001626FC1EC6AF00101804B812BF7
:10107800822B030E8265E0D7660E00016B6F010EAE
:101088006C6F63EC72F00101826B660E8225D96E7B
:10109800DA6A010EDA22DF507927000E7A2380C13E
:1010A80060F081C161F0660E8225D96EDA6A010EA0
:1010B800DA22DF500001626FC1EC6AF00101804B57
:1010C800812B822B0F0E8265E0D7660E00016B6FB5
:1010D800010E6C6F52EC72F00101826B660E822574
:1010E800D96EDA6A010EDA22DF507927000E7A23E8
:1010F80080C160F081C161F0660E8225D96EDA6A1E
:10110800010EDA22DF500001626FC1EC6AF00101C2
:10111800804B812B822B0F0E8265E0D7E1EC75F0B6
:1011280060C07CF161C07DF162C07EF163C07FF177
:10113800826B7C0E8225D96EDA6A010EDA22DF50C4
:101148007927000E7A2380C160F081C161F07C0E9E
:101158008225D96EDA6A010EDA22DF500001626F49
:10116800C1EC6AF00101804B812B822B030E826552
:10117800E0D7D8EC75F060C07CF161C07DF162C049
:101188007EF163C07FF1826B7C0E8225D96EDA6AAC
:10119800010EDA22DF507927000E7A2380C160F031
:1011A80081C161F07C0E8225D96EDA6A010EDA22DD
:1011B800DF500001626FC1EC6AF00101804B812BA6
:1011C800822B030E8265E0D757EC77F001017B6F25
:1011D8007B517927000E7A2380C160F081C161F0CC
:1011E8007BC162F0C1EC6AF00101804B812B786B06
:1011F800470E786501D02AD0785124EC71F00101AE
:101208007B6F7B517927000E7A2380C160F081C102
:1012180061F07BC162F0C1EC6AF00101804B812B67
:10122800785110EC71F001017B6F7B517927000E2A
:101238007A2380C160F081C161F07BC162F0C1ECAA
:101248006AF00101804B812B782BD2D7AFEC77F075
:1012580001017B6F7B517927000E7A2380C160F0F2
:1012680081C161F07BC162F0C1EC6AF00101804B81
:10127800812B5FEC77F001017B6F7B517927000EA2
:101288007A2380C160F081C161F07BC162F0C1EC5A
:101298006AF00101804B812B9AEC77F001017B6F9A
:1012A8007B517927000E7A2380C160F081C161F0FB
:1012B8007BC162F0C1EC6AF00101804B812BEEEC3E
:1012C80076F060C076F161C077F1826B760E822588
:1012D800D96EDA6A010EDA22DF507927000E7A23F6
:1012E80080C160F081C161F0760E8225D96EDA6A1C
:1012F800010EDA22DF500001626FC1EC6AF00101D1
:10130800804B812B822B010E8265E0D7792904E17D
:101318007A2902E1796B7A6B80C160F081C161F052
:1013280079C162F0C1EC6AF00101804B812B80C168
:1013380060F081C161F07AC162F0C1EC6AF001012C
:10134800804B812B000120EE06F0EB51D926EC51A1
:10135800DA2277C2DEFF78C2DEFFDD6A1200000102
:101368008D6B8E6B946B956B616B606BBCEC74F0E2
:1013780000018F6F944B952B8F518D27000E8E2374
:101388008FC086F0876B8651876F866B94C060F03C
:1013980095C061F0BCEC74F000018F6F944B952BF5
:1013A8008F518D27000E8E238F518627000E87239D
:1013B80086517DEC76F086C08BF087C08CF00001FA
:1013C800966B9651900FD96EDA6A94C060F095C00A
:1013D80061F0BCEC74F0DF6E0001944B952B9651D4
:1013E800900FD96EDA6ADF508D27000E8E23962B68
:1013F800030E9665E6D794C060F095C061F0BCEC2A
:1014080074F000018F6F944B952B8F518D27000E30
:101418008E2390C06EF091C06FF092C070F093C0B0
:1014280071F08FC072F0C7EC67F094C060F095C09F
:1014380061F0BCEC74F000018F6F944B952B8F51C9
:101448008D27000E8E238F5163EC6AF00001966B96
:101458009651900FD96EDA6A94C060F095C061F029
:10146800BCEC74F0DF6E0001944B952B9651900FF5
:10147800D96EDA6ADF508D27000E8E23962B030E65
:101488009665E6D790C060F091C061F092C062F0B6
:1014980093C063F00EEC76F0966B9651900FD96E70
:1014A800DA6A94C060F095C061F0BCEC74F0DF6E4D
:1014B8000001944B952B9651900FD96EDA6ADF5044
:1014C8008D27000E8E23962B030E9665E6D790C0C7
:1014D80060F091C061F092C062F093C063F020ECBC
:1014E80076F0966B9651760FD96EDA6A94C060F0F2
:1014F80095C061F0BCEC74F0DF6E0001944B952B45
:101508009651760FD96EDA6ADF508D27000E8E233A
:10151800962B070E9665E6D78BA105D0760E6B6FD6
:101528006C6B92EC70F00001966B9651760FD96E49
:10153800DA6A94C060F095C061F0BCEC74F0DF6EBC
:101548000001944B952B9651760FD96EDA6ADF50CD
:101558008D27000E8E23962B070E9665E6D78BA354
:1015680005D0760E6B6F6C6BE6EC70F00001966B35
:101578009651760FD96EDA6A94C060F095C061F022
:10158800BCEC74F0DF6E0001944B952B9651760FEE
:10159800D96EDA6ADF508D27000E8E23962B0F0E38
:1015A8009665E6D78BA505D0760E6B6F6C6BD1EC84
:1015B80070F00001966B9651760FD96EDA6A94C076
:1015C80060F095C061F0BCEC74F0DF6E0001944BE4
:1015D800952B9651760FD96EDA6ADF508D27000E5B
:1015E8008E23962B0F0E9665E6D78BA905D0760E1F
:1015F8006B6F6C6B7DEC70F00001966B9651760FFB
:10160800D96EDA6A94C060F095C061F0BCEC74F0F1
:10161800DF6E0001944B952B9651760FD96EDA6ADE
:10162800DF508D27000E8E23962B0F0E9665E6D77A
:101638008BAB05D0760E6B6F6C6BBCEC70F0000159
:10164800906B916B926B936B966B9651900FD96ED2
:10165800DA6A94C060F095C061F0BCEC74F0DF6E9B
:101668000001944B952B9651900FD96EDA6ADF5092
:101678008D27000E8E23962B030E9665E6D78BA733
:101688000AD090C060F091C061F092C062F093C03F
:1016980063F0F9EC74F00001966B9651760FD96EF1
:1016A800DA6A94C060F095C061F0BCEC74F0DF6E4B
:1016B8000001944B952B9651760FD96EDA6ADF505C
:1016C8008D27000E8E23962B0F0E9665E6D78BAFCF
:1016D80005D0760E6B6F6C6BF9EC72F00001966BAF
:1016E8009651760FD96EDA6A94C060F095C061F0B1
:1016F800BCEC74F0DF6E0001944B952B9651760F7D
:10170800D96EDA6ADF508D27000E8E23962B0F0EC6
:101718009665E6D78CA105D0760E6B6F6C6BE9ECFD
:1017280072F00001906B916B926B936B966B965174
:10173800900FD96EDA6A94C060F095C061F0BCEC85
:1017480074F0DF6E0001944B952B9651900FD96E73
:10175800DA6ADF508D27000E8E23962B030E9665CE
:10176800E6D78BAD0AD090C060F091C061F092C00E
:1017780062F093C063F04AEC75F00001966B9651E5
:10178800900FD96EDA6A94C060F095C061F0BCEC35
:1017980074F0DF6E0001944B952B9651900FD96E23
:1017A800DA6ADF508D27000E8E23962B030E96657E
:1017B800E6D790C060F091C061F092C062F093C02B
:1017C80063F017EC76F094C060F095C061F0BCEC63
:1017D80074F000018F6F944B952B8F518D27000E5D
:1017E8008E238F5112EC70F000018A6B470E8A65C8
:1017F80001D02BD094C060F095C061F0BCEC74F0BF
:1018080000018F6F944B952B8F518D27000E8E23DF
:101818008F51010ED8B4000E646F8A51E6EC71F056
:1018280094C060F095C061F0BCEC74F000018F6F5B
:10183800944B952B8F518D27000E8E238FC067F008
:101848008A51A7EC70F08A2BD1D794C060F095C06C
:1018580061F0BCEC74F000018F6F944B952B8F51A5
:101868008D27000E8E238F5177EC6FF094C060F0B7
:1018780095C061F0BCEC74F000018F6F944B952B10
:101888008F518D27000E8E238F51AFEC74F094C0CA
:1018980060F095C061F0BCEC74F000018F6F944B60
:1018A800952B8F518D27000E8E238F516BEC77F07F
:1018B8000001886B896B966B9651880FD96EDA6A2E
:1018C80094C060F095C061F0BCEC74F0DF6E00016C
:1018D800944B952B9651880FD96EDA6ADF508D2775
:1018E800000E8E23962B010E9665E6D788C060F011
:1018F80089C061F0EDEC74F000018D2904E18E29B6
:1019080002E18D6B8E6B8DC074F08EC075F0120085
:10191800070E816F826B010E786F796F756B766B2E
:101928006C07D8A06D076DD2050E6C25706F000E80
:101938006D21716F6E51705D6F51715920E220EE0B
:1019480005F06C51D9266D51DA22030EDE1817E125
:10195800782B040E6C25836F000E6D21846F83C075
:10196800D9FF84C0DAFFDF38070B88EC74F0000970
:1019780001E0796B050E6C27000E6D2342D26C4B8B
:101988006D2B6CC0D9FF6DC0DAFFDF500F0B776F7E
:101998006CC0D9FF6DC0DAFFDF50706F70390F0B64
:1019A8007C6F6C4B6D2B6CC0D9FF6DC0DAFFDECF3E
:1019B8007DF0DDCF7EF07DC07FF07EC080F0020E2E
:1019C8006C27000E6D236CC083F06DC084F06C4BE7
:1019D8006D2B03010AAD82D10001795101E104D1D7
:1019E80083C0D9FF84C0DAFFDF38070B88EC74F0B6
:1019F800000901E19FD0F8D083C0D9FF84C0DAFF85
:101A0800DF38070B706F7039F00B746F7451100F5B
:101A1800726F74C085F042D08551020D010EF32417
:101A2800D96E050EF420DA6EDF500F0B0001706FCF
:101A38008151705D11E27FB103D07F5180110CE1BB
:101A48008551020D010EF324D96E050EF420DA6ECD
:101A5800DF500F0B0001816F8551020D010EF32439
:101A6800D96E050EF420DA6EDF380F0B00018261A3
:101A780011D07FB103D07F5180110CE18551020D47
:101A8800010EF324D96E050EF420DA6EDF380F0B41
:101A98000001826FD89080337F33852B7251855D2A
:101AA80060E2BAD7040E826F5CD0040E816F826F39
:101AB8007D517E1156E1796B54D0856B3F0E85655B
:101AC80001D034D08551020D010EF324D96E050ED4
:101AD800F420DA6EDF500F0B0001706F8151705DDA
:101AE8000BE28551020D010EF324D96E050EF42088
:101AF800DA6EDF500F0B816F8551020D010EF32452
:101B0800D96E050EF420DA6EDF380F0B0001826102
:101B18000BD08551020D010EF324D96E050EF42069
:101B2800DA6EDF380F0B826F852BC8D77D517E1197
:101B3800B9E117D083C0D9FF84C0DAFFDF38070BBB
:101B480001E15AD7010A01E157D7030A01E154D745
:101B5800010A01E151D7070AA5E0020AAEE0010A2D
:101B6800A4E0856B460E856501D03ED08551020DF7
:101B7800000EF324D96E050EF420DA6EDE0432E18D
:101B88008551020D010EF324D96E050EF420DA6E8C
:101B9800DF500F0B0001706F8151705D0BE28551B2
:101BA800020D010EF324D96E050EF420DA6EDF5013
:101BB8000F0B816F8551020D010EF324D96E050EAE
:101BC800F420DA6EDF380F0B000182610BD08551EB
:101BD800020D010EF324D96E050EF420DA6EDF38FB
:101BE8000F0B826F852BBED77C517DEC75F00009F9
:101BF80008E181517C5D05E37C51825D02E3010EC1
:101C0800766F0A0E776109D0010E756F050E776140
:101C180002D0736F02D077C073F0755148E07651E7
:101C280046E0795144E078C060F0616B6369FB0E6F
:101C3800626FADEC71F060516C257A6F61516D2166
:101C48007B6F23D07A4B7B2B7A4B7B2B7AC0D9FFC7
:101C58007BC0DAFFDECF7DF0DDCF7EF0020E7A2783
:101C6800000E7B237AC083F07BC084F07A4B7B2BF9
:101C78007DC067F07EC068F083C0D9FF84C0DAFFFA
:101C8800DF38070B696F80EC59F000016C517A5D01
:101C98006D517B59D7E303010B870001735167EC42
:101CA80077F003010B8900017C516FEC77F083C05A
:101CB800D9FF84C0DAFF0001DF500F0B03E10301F5
:101CC800D06B0AD083C0D9FF84C0DAFFDF500F0B76
:101CD800706F70050301D06F0B8B8ED00001796B8C
:101CE8008BD00301A051020DA30EF324D96E030E6D
:101CF800F420DA6E000179B103D00301DF9002D03D
:101D08000301DF80A051020DA30EF324D96E030E48
:101D1800F420DA6E000176B103D00301DF9202D01D
:101D28000301DF82A051020DA30EF324D96E030E26
:101D3800F420DA6E000175B103D00301DF9402D0FC
:101D48000301DF84100EA06157D00001785154E0E0
:101D58000301A02BA051020DA30EF324D96E030E8C
:101D6800F420DA6EDF90A051020DA30EF324D96E91
:101D7800030EF420DA6EDF92A051020DA30EF324B5
:101D8800D96E030EF420DA6EDF94A051020DA30E73
:101D9800F324D96E030EF420DA6EDF96A051020DFB
:101DA800A30EF324D96E030EF420DA6EDF98A05147
:101DB800020DA30EF324D96E030EF420DA6EDF9A17
:101DC800A051020DA30EF324D96E030EF420DA6E8F
:101DD800DF9CA051020DA30EF324D96E030EF4204C
:101DE800DA6EDF9EA051020DA20EF324D96E030E07
:101DF800F420DA6E030EDF6E00017807782907E019
:101E080070D76E516C5D6F516D5901E28DD56CC004
:101E18006CF06DC06DF0120036C265F0000E666F92
:101E2800D8EC41F01EC26DF01FC26EF020C26FF0F8
:101E380021C270F091EC40F00201395156EC44F0A7
:101E48000201360501E0B6D12CC262F0390EA2ECCF
:101E580073F040C27BF0010E00017B170201D8909D
:101E68003F3500017C6F02013839F00B00017C110D
:101E78007B11626F1D0EA2EC73F07AC07BF0030E2B
:101E880000017B173AC27CF0010E7C17D8907C3792
:101E9800D8907C3702013739F00B00017C117B1197
:101EA800626F1E0EA2EC73F002013C513D1160E01E
:101EB8003CC27EF03DC27FF00001806B816B42D056
:101EC8007EC069F07FC06AF080C06BF081C06CF0A2
:101ED8007D0E00016D6F6E6B6F6B706BA2EC65F021
:101EE80022D07EC069F07FC06AF080C06BF081C0EC
:101EF8006CF0FA0E00016D6F6E6B6F6B706BA2EC7D
:101F080065F011D07EC069F07FC06AF080C06BF0C8
:101F180081C06CF0F40E00016D6F010E6E6F6F6B77
:101F2800706BA2EC65F069C07EF06AC07FF06BC090
:101F380080F06CC081F00FD000017E6B7F6B806BEE
:101F4800816B09D002013851070ABAE00F0AC9E0CB
:101F5800010AD8E0F1D70201372900017B6F05D0CB
:101F6800D890813380337F337E337B2FF9D705D0E8
:101F780000017E6B7F6B806B816B7EC062F0240EEC
:101F8800A2EC73F079C062F01F0EA2EC73F0260E7B
:101F9800D3EC71F0826F0C0E0201371906E1070EBF
:101FA800381909E0080E381906E00B0E371906E152
:101FB800070E381903E10001828702D000018297D9
:101FC800828582C062F0260EA2EC73F0310ED3EC4B
:101FD80071F0826FF80E8217030E821382C062F0CE
:101FE800310EA2EC73F00A0E0001626F370EA2ECFC
:101FF80073F0120E02014F1929E1070E381903E098
:10200800080E381915E1310ED3EC71F0826F829FFA
:1020180082C062F0310EA2EC73F0400E0001626FD4
:102028002F0EA2EC73F00001626B300EA2EC73F07D
:10203800090E020138190AE1310ED3EC71F0826FF2
:10204800828F82C062F0310EA2EC73F0330ED3ECB3
:1020580071F0826F829D82813EC27BF0010E7B17F8
:10206800060E7C6FD8907B377C2FFCD77B51821370
:1020780082C062F0330EA2EC73F03EC27BF0010E18
:1020880000017B17D8907B37D8907B35FF0A1D0B52
:10209800826F82C062F03B0EA2EC73F002012B51FA
:1020A8000001626F200EA2EC73F02AC262F0210ECA
:1020B800A2EC73F00001626B0D0EA2EC73F000014C
:1020C800626B0E0EA2EC73F00001626B0F0EA2ECB5
:1020D80073F0120E02014F1968E1090E38191EE15A
:1020E800800E1E5D130E1F59610E2059330E2159A3
:1020F80015E31E05F70E1F59CB0E20593C0E21592A
:102108000DE2020E0001626F360EA2EC73F0640E4F
:102118000001626F3A0EA2EC73F028D0090E38194C
:102128001FE1800E1E5D1A0E1F59700E2059180EE1
:10213800215916E3410E1E5DDD0E1F594A0E205926
:102148001F0E21590DE2020E0001626F360EA2EC3D
:1021580073F07F0E0001626F3A0EA2EC73F006D0A6
:10216800030E0001626F360EA2EC73F0090E020135
:1021780038190FE13E050DE1650E0001626F3A0E58
:10218800A2EC73F0190E0001626F3B0EA2EC73F023
:102198000CD0650E0001626F3A0EA2EC73F01D0EB2
:1021A8000001626F3B0EA2EC73F000016269120E2F
:1021B800A2EF73F022C26DF023C26EF024C26FF05A
:1021C80025C270F092EC5DF026C26DF027C26EF069
:1021D80028C26FF029C270F026EC5EF002012B5184
:1021E8000001626F250EA2EC73F02AC262F0260E7F
:1021F800A2EC73F00A0ED3EC71F0826F9F0E821777
:1022080002015339E846E00B0001821382C062F0F4
:102218000A0EA2EC73F0C80E0001826F02013A5157
:1022280002E00001828982C062F0300EA2EC73F0F5
:1022380000017D6B0ED02D0E7D25D96EDA6A020E57
:10224800DA22DF50626F7D51280FA2EC73F0000193
:102258007D2B0201355100017D5DEDE30201355111
:1022680008E0350510090001626F270EA2EC73F033
:1022780005D00001626B270EA2EC73F000016269C1
:102288003E0EA2EC73F0000162693F0EA2EF73F0FC
:10229800A1C36DF06251D96EDA6ADF506E6F00012A
:1022A80063513EE06D51020DA20EF324D96E030E68
:1022B800F420DA6EDE2834E0FE0E646F65696D5135
:1022C800020DA20EF324D96E030EF420DA6EDF504D
:1022D800666F676B64516627655167232A0E66250A
:1022E800F66EF70E6721F76EF86A000EF8220800FE
:1022F800F5506EC068F0696B6827000E692362515B
:10230800D96EDA6ADF50685F000E695B69BF77D102
:10231800695105E1100E685D01E395D170D193D143
:10232800635101E06CD16D51020DA20EF324D96EF8
:10233800030EF420DA6EDE2801E161D1FE0E646F2F
:1023480065696D51020DA20EF324D96E030EF420B7
:10235800DA6EDF50666F676B6451662765516723D5
:102368002A0E6625F66EF70E6721F76EF86A000EDC
:10237800F8220800F5506EC068F0696B6827000EF7
:1023880069236251D96EDA6ADF50685F000E695BB3
:10239800030E0301D925F66EF76AF70EF722F86ADD
:1023A800000EF8220800F55000016A6F6B6B685147
:1023B8006A5D6B51800A6C6F6951800A6C5901E241
:1023C80042D11DD16E516025D96E000E6121DA6EA1
:1023D800030EDF6E6E2B6E516025D96E000E6121E3
:1023E800DA6EDF6A6D51020DA30EF324D96E030E67
:1023F800F420DA6EDFA009D000016E516025D96E95
:10240800000E6121DA6E000EDB8000016D51020DB5
:10241800A30EF324D96E030EF420DA6EDFA208D0DF
:102428006E516025D96E000E6121DA6E000EDB82D6
:1024380000016D51020DA30EF324D96E030EF42092
:10244800DA6EDFA408D06E516025D96E000E6121C6
:10245800DA6E000EDB8400016E2BEBD06E51602526
:10246800D96E000E6121DA6E050EDF6E6E2B6E518D
:102478006025D96E000E6121DA6EDF6A6D51020D9A
:10248800A30EF324D96E030EF420DA6EDFA609D06A
:1024980000016E516025D96E000E6121DA6E000EC2
:1024A800DB8000016D51020DA30EF324D96E030EDB
:1024B800F420DA6EDFA808D06E516025D96E000EC0
:1024C8006121DA6E000EDB8200016D51020DA30E50
:1024D800F324D96E030EF420DA6EDFAA08D06E5109
:1024E8006025D96E000E6121DA6E000EDB840001D2
:1024F8006E516025D96E000E6121DA6EDF5002013F
:102508001C6FA9D76E516025D96E000E6121DA6E55
:10251800060EDF6E6E2B6E516025D96E000E61219E
:10252800DA6EDAC3DFFF6E2BB8EC77F0800AA00F03
:1025380005E3B8EC77F0800A600F09E300016E51FB
:102548006025D96E000E6121DA6E200E0AD00001D6
:102558006E516025D96E000E6121DA6EB8EC77F005
:102568003F0BDF6E78D76E516025D96E000E612162
:10257800DA6E070EDF6E6E2B6E516025D96E000E77
:102588006121DA6EDF6A6D51020DA30EF324D96E54
:10259800030EF420DA6EDFAE09D000016E5160251B
:1025A800D96E000E6121DA6E000EDB8000016D51DC
:1025B800020DA30EF324D96E030EF420DA6EDFACFD
:1025C8004AD76E516025D96E000E6121DA6E000E71
:1025D800DB8241D70301D769D86B00016D51020D29
:1025E800A20EF324D96E030EF420DA6E6E51602524
:1025F800E96E000E6121EA6EDFCFEFFF2CD76D5137
:10260800020DA20EF324D96E030EF420DA6EDF5009
:10261800020AE0E0010A01E1D5D6070ADEE0010A74
:1026280001E11CD7030A01E16DD7010A9CE00F0AFA
:10263800D4E06D2B100E6D1901E16D6B6D51030126
:10264800A01901E02CD66DC0A1F300016251D96E2A
:10265800DA6A6EC0DFFF1200DD6F100E0001E16F55
:10266800DF6BDE0E606F616B636B626B656B010E17
:10267800646F68EC70F02F0E606F0A0E616F636B09
:10268800626B010E656F0F0E646F68EC70F0560E8A
:10269800606F020E616F636B626B656B100E646F27
:1026A80068EC70F0DD0507E1DE511F0B8009DE6F75
:1026B8000301088104D0DE511F0B4009DE6FFC0EB8
:1026C8000001DE17E30EDE172F0EE125D96EDA6A58
:1026D8000A0EDA22DEC0DFFFE12B2F0EE125606F44
:1026E800616B0A0E6123260E626F030E636F656BC2
:1026F800040E646F41EC61F0040EE127E06B030106
:102708000AAD30D00001E08F0301D951E55D29E21F
:102718000001E08D03010889CA4BCB2B9C51CA19D3
:10272800CB1102E1E86B1AD09C510001DB6FDC6B26
:102738000301CA510001DB5D0301CB510001DC59E3
:102748000EE20301E82B9D51E85D0CE3E86B0AEC0F
:102758004BF0000907E10301CA6BCB6B0001E09D58
:1027680003010899030108A304D00001E08B0301C9
:1027780008930001E0990301A151A01907E10001A4
:10278800D951DA1103E1F00EE01735D00301A15158
:10279800A01926E1F00E0001E01749500AE0E051C7
:1027A8000F0BDB6F020EDB27E051DB19F00BDB1997
:1027B800E06F485009E0E0510F0BDB6FDB2BE05175
:1027C800DB19F00BDB19E06F02011D5114E0000169
:1027D800E0510F0BDB6F020EDB27E051DB1908D04D
:1027E8000001D951DA1107E0BDEC44F0DB6FE019C4
:1027F800F00BDB19E06F2F0E0001E125D96EDA6AC4
:102808000A0EDA22E0C0DFFFE12B2F0EE125606F10
:10281800616B0A0E61230E0E626F030E636F656BA8
:10282800020E646F41EC61F0020EE1270301A15131
:10283800A0190FE00001D951DA110BE02F0E606FDB
:102848000A0E616FE10E626F010E636F4CEC11F0BE
:102858001AD00301A151A01916E1495009E02F0E21
:102868000001606F0A0E616FE10E626F28EC6CF078
:10287800485009E02F0E0001606F0A0E616FE10EEB
:10288800626F4CEC71F00301A05104E10001D951D1
:10289800DA110AE02F0E0001E125D96EDA6A0A0E74
:1028A800DA22D6C0DFFFE12BD951DA112EE02F0E44
:1028B800E125606F616B0A0E6123D7C062F0D8C052
:1028C80063F0D9C064F0DAC065F041EC61F0D7C0BC
:1028D800A0F0D8C0A1F0D9C0A2F0A36B0EC3A4F099
:1028E8000FC3A5F010C3A6F011C3A7F03A0EA86F46
:1028F800030EA96FE1C0AAF02F0EAB6F0A0EAC6FE2
:10290800AD6B98EC30F0D9512BD00301A151A0192F
:1029180028E03E0E0001606F0B0E616FDF0E626FE4
:10292800636B4CEC11F03E0EA06F0B0EA16FDFC075
:10293800A2F0A36B0EC3A4F00FC3A5F010C3A6F0BA
:1029480011C3A7F02A0EA86F030EA96FE1C0AAF061
:102958002F0EAB6F0A0EAC6FAD6B98EC30F0DF51F9
:10296800E1270EC36BF00FC36CF010C36DF011C3F9
:102978006EF00001E151F00F6F6F490E706F000E9D
:10298800716B59EC4AF02F0E606F0A0E616F560E8C
:10299800626F020E636F656B100E646F41EC61F03D
:1029A8002A0EC86F030EC96F560ECA6F020ECB6F80
:1029B8002F0ECC6F0A0ECD6FE1C0CEF009EC1AF0E5
:1029C8002F0EE125606F616B0A0E6123560E626F50
:1029D800020E636F656B040E646F41EC61F0040EC8
:1029E800E127F00EE1250301CE6FCF6BFF0ECF2359
:1029F800FF0CEBC0D9FFECC0DAFFDECFF0F0DDCF83
:102A0800F1F0000120EE02F0EB51D926EC51DA2268
:102A1800DECFF2F0DDCFF3F0010EF46FF569F0C010
:102A28009CF0F1C09DF019EC43F0F56FF5BF90D123
:102A3800F66B070EF66501D08BD1F651020DDC0E50
:102A4800F324D96E040EF420DA6EDECF60F0DDCF09
:102A580061F0F2C062F0F3C063F09FEC52F0605195
:102A6800611101E072D1D50EF525F66EF76AF60E02
:102A7800F722F86A000EF8220800F5CFEDF0F6C04C
:102A8800EEF0010EEF6FEE2B02D0D890EF37EE2F5D
:102A9800FCD70001EF51ED1501E157D1F46B26D1B8
:102AA8000F013891929051D10F01389192804DD1F8
:102AB80092800F01388149D1F651F2E0010AF4E021
:102AC800030AF6E012D00F01389392923ED10F011B
:102AD800389392823AD192820F01388336D1F651D7
:102AE800F2E0010AF4E0030AF6E0010A2ED10F0130
:102AF800389592942AD10F013895928426D19284E0
:102B08000F01388522D1F651F2E0010AF4E0030AF8
:102B1800F6E0EBD70F013897929617D10F01389747
:102B2800928613D192860F0138870FD1F651F2E0C1
:102B3800010AF4E0030AF6E0D8D7929806D1928801
:102B480004D1F651FAE0010AFAE0020AFED00F01B8
:102B5800389B929AFAD00F01389B928AF6D0928AC3
:102B68000F01388BF2D0F651F2E0010AF4E0030AC3
:102B7800F6E0BBD70F013C919690E7D00F013C914E
:102B88009680E3D096800F013C81DFD0F651F2E0C9
:102B9800010AF4E0030AF6E0A8D70F013C939692E5
:102BA800D4D00F013C939682D0D096820F013C83FB
:102BB800CCD0F651F2E0010AF4E0030AF6E095D72A
:102BC8000F013B959594C1D00F013B959584BDD0DD
:102BD80095840F013B85B9D0F651F2E0010AF4E083
:102BE800030AF6E082D70F013C959694AED00F0108
:102BF8003C959684AAD096840F013C85A6D0F651C0
:102C0800F2E0010AF4E0030AF6E06FD70F013A9BFD
:102C1800949A9BD00F013A9B948A97D0948A0F017B
:102C28003A8B93D0F651F2E0010AF4E0030AF6E099
:102C38005CD70F013B9B959A88D00F013B9B958AE7
:102C480084D0958A0F013B8B80D0F651F2E0010ABF
:102C5800F4E0030AF6E049D70F013B9F959E75D033
:102C68000F013B9F958E71D0958E0F013B8F6DD0D4
:102C7800F651F2E0010AF4E0030AF6E036D70F0154
:102C88003B9D959C62D00F013B9D958C5ED0958CA9
:102C98000F013B8D5AD0F651F2E0010AF4E0030A25
:102CA800F6E023D7929E51D0928E4FD0F651FAE09B
:102CB800010AFAE04AD7929C48D0928C46D0F65145
:102CC800FAE0010AFAE041D7939E3FD0938E3DD0B7
:102CD800F651FAE0010AFAE038D7939C36D0938C83
:102CE80034D0F651FAE0010AFAE02FD7F55101E1A4
:102CF800E3D6010A01E1F3D6030A01E104D7010A88
:102D080001E114D7070A01E11CD7010A01E12BD719
:102D1800030A01E13BD7010A01E14BD70F0A01E1A0
:102D28005BD7010A01E16BD7030A01E17BD7010AEE
:102D38008CE0070A9DE0010AAEE0030AB7E0010A49
:102D4800BEE01F0AC5E0010ACCE00001F62B71D6EF
:102D5800F451020DB90EF324D96E020EF420DA6E86
:102D6800DECFEDF0DDCFEEF020EE06F0EB51D92608
:102D7800EC51DA22EDC0DEFFEEC0DEFFDD6A1200A4
:102D880000017B6F796B7A6B080E7B194BE128EE9B
:102D980019F0DE50DE10D8B4120028EE19F0DECF9C
:102DA80070F0DDCF71F0D40E7025D96E050E71214B
:102DB800DA6EDF502CE118C8E8FFFF0FE8CF18F8EB
:102DC80028EE18F0DF50020DFB0EF324D96E070E23
:102DD800F420DA6EDECF1BF8DDCF1CF828EE18F0F1
:102DE800DF50020DFB0EF324D96E070EF420DA6EC5
:102DF800DE6ADD6A28EE18F0DF50020D090EF324B2
:102E0800D96E080EF420DA6EDE6ADD6A05D028EE87
:102E18001BF0DE06000EDD5A28EE19F0DE06000E65
:102E2800DD5A000C28EE19F0250EDE5C020EDE5885
:102E380059E2200E7B1958E128EE18F0060EDF60E3
:102E480051D028EE19F0DECF70F0DDCF71F0D50E3D
:102E58007025D96E050E7121DA6E000EDF6A28EE34
:102E680019F0DE2ADD2228EE1BF008EE18F0EF50EC
:102E7800020DFB0EF324E96E070EF420EA6EDECF96
:102E8800EEFFDDCFEDFF7069716928EE1BF0DECF34
:102E980072F0DDCF73F028EE19F0DECF74F0DDCFDD
:102EA80075F07251745F7351755B7051742771516D
:102EB800752328EE18F0DF50020D090EF324D96EA1
:102EC800080EF420DA6E74C0DEFF75C0DDFF18C886
:102ED800E8FF010FE8CF18F8000EE8CF1BF8E8CF9D
:102EE8001CF8D8D07969D6D028EE19F0DECF70F06A
:102EF800DDCF71F0D50E7025D96E050E7121DA6E11
:102F08007BC0DFFF28EE19F0DE2A000EDD2228EE56
:102F18001BF0DE2ADD22E70E606FFF0E616F601185
:102F2800D8A4000E626FC8EC65F028EE19F0605165
:102F3800DE5C6151DE584AE3010E7A6FE70E606F7E
:102F4800FF0E616F6011D8A4000E626FC8EC65F0C7
:102F580060517C6F37D028EE19F0DECF70F0DDCFEE
:102F680071F0D50E726F050E736F7C51725F000E93
:102F7800735B70517225D96E71517321DA6EDF500F
:102F8800746FE70E606FFF0E616F6011D8A4000EBA
:102F9800626FC8EC65F0E70E756FFF0E766F6051D3
:102FA8007527615176237C51755F000E765B75C07D
:102FB800F6FF76C0F7FFF86A0800F550741901E0CB
:102FC8007A6B7C077C5102E07A51C5E17A5162E064
:102FD80028EE19F0DECF70F0DDCF71F0E70E606FEC
:102FE800FF0E616F6011D8A4000E626FC8EC65F027
:102FF800D50E726F050E736F6051725F6151735B0E
:1030080070517225D96E71517321DA6EDF6AE70E3D
:10301800606FFF0E616F6011D8A4000E626FC8EC7C
:1030280065F028EE1BF0DECF70F0DDCF71F0605157
:10303800705F6151715B28EE18F0DF50020DFB0ED6
:10304800F324D96E070EF420DA6E70C0DEFF71C06B
:10305800DDFF28EE1BF0DECF70F0DDCF71F028EE3B
:1030680019F0DECF72F0DDCF73F07051725F7151DD
:10307800735B28EE18F0DF50020D090EF324D96EA9
:10308800080EF420DA6E72C0DEFF73C0DDFF010E99
:10309800E8CF17F87929D8A4120016EC67F0B7C260
:1030A80060F0B8C261F060516111D8A4000E626F7F
:1030B800C8EC65F060C077F061C078F0B7C266F020
:1030C800B8C267F066516711D8A4000E686F77C060
:1030D80069F078C06AF034EF53F0BE6BC7C2D1F123
:1030E800C8C2D2F1D151D211D8A4000ED36FC16B8E
:1030F80053D0C151090DF35083250001FA6FF450E4
:10310800010184210001FB6F000E010185210001EE
:10311800FC6FFAC0F6FFFBC0F7FFFCC0F8FF21EE1A
:10312800C2F0080E0900F5CFDEFFE806FBE28A0EC2
:10313800606F010E616F01018751020D090EF324C2
:10314800D96E080EF420DA6EDECFFAF0DDCFFBF090
:10315800D50E0001FA25626F050EFB21636FA4EC02
:1031680067F0A30E0001606F010E616FC2C162F0CB
:10317800C3C163F0A4EC67F0A30E0001606F010EF9
:10318800616F8A0E626F010E636F9FEC52F060519F
:10319800611105E00101C12B8651C15DAAE301015E
:1031A8008651C15D01E311D1C451C511C61101E0B9
:1031B80001D1C751C81101E108D1CA510001FA6F04
:1031C800FB6B0101875118C8FCF0FCC0FDF0000141
:1031D800FE6BFD5F000EFE5BFA51FD1903E1FB512A
:1031E800FE19D8A4F2D001018729C06FBF6BCA515C
:1031F80014E0C02BC005020DFB0EF324D96E070E98
:10320800F420DA6EDE50DE1003E1010EBF6F05D048
:1032180028EE18F0C051DE5CECE2BF5101E0D5D0D9
:10322800CB0E0001606F010E616F636B626B656BA3
:10323800090E646F68EC70F0010187510001FA6FA4
:10324800FB6BFA2B000EFB23FB512FE1070EFA5DF7
:103258002CE2010187510001FA6FFB6BD890FA3715
:10326800FB37FD0EFA25D96E070EFB21DA6EDE500C
:10327800DE101BE0010187510001FA6FFB6BD8904B
:10328800FA37FB370B0EFA25D96E080EFB21DA6EDA
:10329800DECFFCF0DDCFFDF0D50EFC250101CB6FB4
:1032A800050E0001FD210101CC6F010187510001CC
:1032B800FA6FFB6B020EFA27000EFB23FB512FE17E
:1032C800070EFA5D2CE2010187510001FA6FFB6BD2
:1032D800D890FA37FB37FF0EFA25D96E070EFB2177
:1032E800DA6EDE50DE101BE0010187510001FA6F33
:1032F800FB6BD890FA37FB370D0EFA25D96E080EFE
:10330800FB21DA6EDECFFCF0DDCFFDF0D50EFC251B
:103318000101CD6F050E0001FD210101CE6F0101F4
:1033280087510001FA6FFB6B030EFA27000EFB238F
:10333800FB512FE1070EFA5D2CE2010187510001D4
:10334800FA6FFB6BD890FA37FB37010EFA25D96E66
:10335800080EFB21DA6EDE50DE101BE001018751FA
:103368000001FA6FFB6BD890FA37FB370F0EFA257E
:10337800D96E080EFB21DA6EDECFFCF0DDCFFDF052
:10338800D50EFC250101CF6F050E0001FD210101BD
:10339800D06FCB0E0001EB6F010EEC6F01D815D08A
:1033A8000500FA6E0101C751FD6EC851FE6EFF6A35
:1033B800FA501200010EBE6F88C1D9FF89C1DAFF29
:1033C800C1C1DFFFD16BD26BD36B0101D151D211D7
:1033D800D31118E0D1C160F0D2C161F0D3C162F05D
:1033E800C8EC65F060C0BCF161C0BDF1D1C166F048
:1033F800D2C167F0D3C168F0BCC169F0BDC16AF041
:1034080034EC53F00101BE5112000101656B646B8D
:10341800626B606B616BC8C0A0F0C9C0A1F0100EF0
:103428000001A26F010EA36F000EA46F010EA56F1D
:103438006CEC3BF0CE51CF6FD06B0F0ECF27000E48
:10344800D023040ED16FD035D033CF33D12FFBD753
:10345800CF510101636F635104E1010E636F626B29
:103468000AD0CEC0CFF00F0E0001CF17010ED8A49E
:10347800000E0101626F620541E1646B6351100D3A
:10348800F350F00F656F1ED0200E01016425D96E30
:10349800DA6A010EDA22100E6425E96EEA6A010E74
:1034A800EA22EF500001CF6F010165510001CC25E0
:1034B800E96E000ECD21EA6EEF50CF19DF6E0101E3
:1034C800642B652B63510001CF6FD06BCF3BD03B92
:1034D800F00ED017CF510F0BD013F00ECF170101FC
:1034E80065510001D16FD26BCF51D15DD251800AA5
:1034F800D36FD051800AD35963E2C6D70001CE51A9
:10350800CC25CF6F000ECD21D06FCE510F0BCF5DE4
:103518000101606F0001D051D8A0D0050101616F91
:10352800656B0001CE510F0B010165610FD065512C
:103538006025D96E000E6121DA6E300E6525E96EC0
:10354800EA6A010EEA22DFCFEFFF16D00001CE5162
:103558000F0B0101651909E1300E6525D96EDA6A8C
:10356800010EDA22800EDF6E07D0300E6525D96E87
:10357800DA6A010EDA22DF6A652B0F0E6565D1D78C
:10358800656B200E6525D96EDA6A010EDA22000E07
:103598006525E96EEA6A010EEA22EF500001CF6F55
:1035A800300E01016525E96EEA6A010EEA22EF5044
:1035B8000001CF19DF6E0101652B0F0E6565E1D79C
:1035C800500E0001606F010E616F636B626B656B7B
:1035D800100E646F68EC70F00101656B51D0010149
:1035E800646B400E6425D96EDA6A010EDA226551E1
:1035F8000001CF6FD06BCF3BD03BF00ED017CF512F
:103608000F0BD013F00ECF17CCC0D1F0CDC0D2F035
:10361800CF51D127D051D223010164510001D125C6
:10362800E96E000ED221EA6EEF50D36F500E010101
:103638006425E96EEA6A010EEA22EF500001D31907
:10364800DF6E0101642B0F0E6465CBD7500E0001AD
:10365800606F010E616F400E626F010E636F656BE4
:10366800100E646F41EC61F0500E8C6F010E8D6F7F
:10367800C8C08EF0C9C08FF060EC71F00101652BF5
:103688000001CF69D069010163510001D16FD26B8C
:10369800CF51D127D051D223010165510001D36FF9
:1036A800D46BD151D35DD451800AD56FD251800AE1
:1036B800D55995E30101656B400E6525D96EDA6A27
:1036C800010EDA22200E6525E96EEA6A010EEA2269
:1036D800EF500001CF6F500E01016525E96EEA6ACF
:1036E800010EEA22EF500001CF19DF6E0101652BB0
:1036F8000F0E6565E1D7400E00018C6F010E8D6FCE
:10370800C8C08EF0C9C08FF060EC71F0CAC060F01C
:10371800CBC061F0400E626F010E636F656B100ED7
:10372800646F41EF61F076D1010E9B6598D01D0E54
:10373800606F080E616F99C262F09AC263F0A4ECE0
:1037480067F01D0E0001606F080E616F6011D8A44C
:10375800200E626FC8EC65F060C0A9F061C0AAF0E5
:103768001D0EA925856F080EAA21866F99C0D9FF5D
:103778009AC0DAFFDF50876F886B8A6B0A0E896FF1
:1037880025EC6DF01D0E606F080E616F6011D8A4F6
:10379800200E626FC8EC65F060C0A9F061C0AAF0A5
:1037A8001D0EA925D96E080EAA21DA6E200EDF6E2D
:1037B800A94BAA2B9D699E699B519F6FA06B9D5138
:1037C8009F279E51A023120EA16F020EA26FA9512E
:1037D800A15FAA51A25BD890A231A46FA131A36FB7
:1037E8009F51A35DA051A45910E2120E9D6F020EC5
:1037F8009E6FA9519D5FAA519E5BD8909E319F6F85
:103808009D31A56F9FC0A6F006D0FF0E9B25A56F22
:10381800A66BFF0EA62399298D6F000E9A218E6F35
:103828001D0EA9258F6F080EAA21906FA551EDECEA
:1038380043F01D0E606F080E616F6011D8A4200E52
:10384800626FC8EC65F060C0A7F061C0A8F01D0EFB
:10385800666F080E676F6611D8A4200E14D095C243
:1038680060F096C261F060516111D8A4000E626FD9
:10387800C8EC65F060C0A7F061C0A8F095C266F01A
:1038880096C267F0C2D0686FA7C069F0A8C06AF096
:1038980034EF53F09B5156E01D0E606F080E616FB8
:1038A80097C262F098C263F0A4EC67F01D0E0001A5
:1038B800606F080E616F6011D8A4200E626FC8ECAB
:1038C80065F060C0A9F061C0AAF01D0EA925D96EE7
:1038D800080EAA21DA6E200EDF6EA94BAA2B120E53
:1038E8009D6F020E9E6FA9519D5FAA519E5BD89055
:1038F8009E31A06F9D319F6F9B519F5D000EA05917
:1039080010E2120E9D6F020E9E6FA9519D5FAA5183
:103918009E5BD8909E319F6F9D31A56F9FC0A6F08A
:1039280003D09BC0A5F0A66B99C08DF09AC08EF00D
:103938001D0EA9258F6F080EAA21906FA551EDECD9
:1039480043F077D793C260F094C261F0605161117F
:10395800D8A4000E626FC8EC65F060C0A7F061C023
:10396800A8F093C266F094C267F04FD09BC260F093
:103978009CC261F060516111D8A4000E626FC8EC5E
:1039880065F060C0A7F061C0A8F09BC266F09CC259
:1039980067F03BD09DC260F09EC261F0605161113A
:1039A800D8A4000E626FC8EC65F060C0A7F061C0D3
:1039B800A8F09DC266F09EC267F027D09FC260F053
:1039C800A0C261F060516111D8A4000E626FC8EC0A
:1039D80065F060C0A7F061C0A8F09FC266F0A0C201
:1039E80067F013D0A1C260F0A2C261F0605161110A
:1039F800D8A4000E626FC8EC65F060C0A7F061C083
:103A0800A8F0A1C266F0A2C267F066516711D8A4F7
:103A1800000E39D700019C51BDE0010A01E184D6AE
:103A2800030AA4E0010A01E135D7070AC7E0010A41
:103A3800D9E012008B6B68518B25D96EDA6A8B51ED
:103A4800710FE96EEA6ADFCFEFFF8B2B0F0E8B65E4
:103A5800F2D70A0E446E010E436E8B6B8B51710FB9
:103A6800D96EDA6ADF50696F8B516625D96E000E00
:103A78006721DA6E6951DF1A8B2B0F0E8B65EED733
:103A88008B6B8B516625D96E000E6721DA6EDF507D
:103A9800696F6A6BD50E6925F66EF50E6A21F76EA9
:103AA800F86A000EF8228B516625D96E000E672140
:103AB800DA6E0800F5CFDFFF8B2B0F0E8B65E1D791
:103AC80066C060F067C061F08DEC2EF0440401E13F
:103AD80011D18B6B8B516625696F000E67216A6F58
:103AE8006929D96E000E6A21DA6EDF506B6F8B512F
:103AF8006625D96E000E6721DA6EDF506B19896F63
:103B08008B516625696F000E67216A6F030E692560
:103B1800D96E000E6A21DA6EDF506B6F8B51662505
:103B28006C6F000E67216D6F020E6C25D96E000E4A
:103B38006D21DA6EDF506B198A6F8919876F8B5187
:103B48006625696F000E67216A6F6929D96E000EB4
:103B58006A21DA6EDF506B6F8B5166256C6F000E31
:103B680067216D6F020E6C25D96E000E6D21DA6E1D
:103B7800DF506B19886F7F0E89650CD01B0E89C0CA
:103B880069F06A6BD89069376A376919816F6A5129
:103B9800826F05D0D8908935816F826B823781C05A
:103BA80089F07F0E88650CD01B0E88C069F06A6B9F
:103BB800D89069376A376919836F6A51846F05D05D
:103BC800D8908835836F846B843783C088F07F0EE4
:103BD8008A650CD01B0E8AC069F06A6BD890693769
:103BE8006A376919856F6A51866F05D0D8908A350A
:103BF800856F866B863785C08AF08B516625D96EAE
:103C0800000E6721DA6E8B516625E96E000E67217A
:103C1800EA6EEF5087198919DF6E8B516625696F37
:103C2800000E67216A6F6929D96E000E6A21DA6E63
:103C38008B5166256B6F000E67216C6F6B29E96EDF
:103C4800000E6C21EA6EEF5087198819DF6E8B51D0
:103C58006625696F000E67216A6F020E6925D96EA5
:103C6800000E6A21DA6E8B5166256B6F000E672194
:103C78006C6F020E6B25E96E000E6C21EA6EEF5038
:103C880087198A19DF6E8B516625696F000E6721C7
:103C98006A6F030E6925D96E000E6A21DA6E8B51A0
:103CA80066256B6F000E67216C6F020E6B25E96E3F
:103CB800000E6C21EA6EEF506D6F8B5166256E6FAA
:103CC800000E67216F6F6E29E96E000E6F21EA6E94
:103CD800EF50706F8B516625E96E000E6721EA6E12
:103CE800EF5070196D198719DF6E040E8B270F0EB0
:103CF8008B65F0D6710E606F17EC21F08B6B8B51D2
:103D0800710FD96EDA6ADF50696F8B516625D96EEB
:103D1800000E6721DA6E6951DF1A8B2B0F0E8B6547
:103D2800EED74406445001E0ABD6120010D1000192
:103D38007D697E697F69806918D108A546D0DC5104
:103D480043EC6AF0635107E11F0E605DAC0E6159E8
:103D5800DF0E62591DE30301DC5143EC6AF00D0EDE
:103D680005D0D8906333623361336033E82EF9D7D6
:103D780060C069F061C06AF062C06BF063C06CF04B
:103D88007D0E6D6F6E6B6F6B706BA2EC65F0BBD0C8
:103D98000301DC5143EC6AF060C069F061C06AF06D
:103DA80062C06BF063C06CF07D0E6D6F6E6B6F6BF5
:103DB800706BA2EC65F00D0E05D0D8906C336B33A8
:103DC8006A336933E82EF9D79ED00AA9CED0DE51DE
:103DD80043EC6AF0635107E11F0E605DAC0E615958
:103DE800DF0E62591DE30301DE5143EC6AF00D0E4C
:103DF80005D0D8906333623361336033E82EF9D746
:103E080060C069F061C06AF062C06BF063C06CF0BA
:103E18007D0E6D6F6E6B6F6B706BA2EC65F073D07F
:103E28000301DE5143EC6AF060C069F061C06AF0DA
:103E380062C06BF063C06CF07D0E6D6F6E6B6F6B64
:103E4800706BA2EC65F00D0E05D0D8906C336B3317
:103E58006A336933E82EF9D756D008A504D0DD5166
:103E680043EC6AF005D00AA90BD0DF5143EC6AF0A5
:103E780060C07DF061C07EF062C07FF063C080F0FA
:103E88000001805107E11F0E7D5DAC0E7E59DF0EEB
:103E98007F5921E37DC079F07EC07AF07FC07BF046
:103EA80080C07CF00D0E05D0D8907C337B337A33FC
:103EB8007933E82EF9D779C069F07AC06AF07BC007
:103EC8006BF07CC06CF07D0E6D6F6E6B6F6B706B02
:103ED800A2EC65F018D07DC069F07EC06AF07FC0A2
:103EE8006BF080C06CF07D0E6D6F6E6B6F6B706BDE
:103EF800A2EC65F00D0E05D0D8906C336B336A33A5
:103F08006933E82EF9D769C07DF06AC07EF06BC0CE
:103F18007FF06CC080F029D0E25143EC6AF060C0B9
:103F28007DF061C07EF062C07FF063C080F0805198
:103F3800B1E11F0E7D5DAC0E7E59DF0E7F59AAE2FE
:103F4800CAD700017D6B7E6B7F6B806B0ED003013F
:103F58000A510F0B01E1EBD6020A01E1EED6060A7F
:103F680001E17BD7020AD8E0ECD7000180517F112C
:103F78007E1103E1C80E7D5D09E3CE0E7D27FF0E9D
:103F88007E237F23802303010B8106D07D6B7E6B0C
:103F98007F6B806B03010B917DC075F07EC076F05E
:103FA8007FC077F080C078F0120003010BB115D103
:103FB800EB6B0A51F00B02090A6F08A582D0F50EC7
:103FC8001F25F66EF76AF60EF722F86A000EF82239
:103FD8000800F5CFADF092510001AD25AE6F000E8F
:103FE800ADBFFF0E030193210001AF6FB06BB16B42
:103FF8000C0ED890AE37AF37B037B137E82EF9D7B7
:10400800AEC060F0AFC061F0B0C062F0B1C063F0A4
:104018007D0E646F656B666B676B35EC5AF060C03C
:104028006DF061C06EF062C06FF063C070F00301A4
:10403800DC5137EC64F0F50E03012425F66EF76ABF
:10404800F60EF722F86A000EF8220800F5CFADF058
:1040580094510001AD25AE6F000EADBFFF0E0301F8
:1040680095210001AF6FB06BB16B0C0ED890AE37D5
:10407800AF37B037B137E82EF9D7AEC060F0AFC070
:1040880061F0B0C062F0B1C063F07D0E646F656B23
:10409800666B676B35EC5AF060C06DF061C06EF00E
:1040A80062C06FF063C070F00301DD5137EC64F05B
:1040B8000301DC5189EC50F00301DD5189EC50F02B
:1040C80081D0F50E1F25F66EF76AF60EF722F86A0C
:1040D800000EF8220800F5CFADF08E510001AD2595
:1040E800AE6F000EADBFFF0E03018F210001AF6F51
:1040F800B06BB16B0C0ED890AE37AF37B037B13765
:10410800E82EF9D7AEC060F0AFC061F0B0C062F081
:10411800B1C063F07D0E646F656B666B676B35ECE1
:104128005AF060C06DF061C06EF062C06FF063C09D
:1041380070F00301DE5137EC64F0F50E030124251D
:10414800F66EF76AF60EF722F86A000EF8220800F3
:10415800F5CFADF090510001AD25AE6F000EADBFAB
:10416800FF0E030191210001AF6FB06BB16B0C0E14
:10417800D890AE37AF37B037B137E82EF9D7AEC0E1
:1041880060F0AFC061F0B0C062F0B1C063F07D0E06
:10419800646F656B666B676B35EC5AF060C06DF0E9
:1041A80061C06EF062C06FF063C070F00301DF5150
:1041B80037EC64F00301DE5189EC50F00301DF5164
:1041C80089EC50F0020E03011A19D8A412000A5102
:1041D800F00B08090A6FF5EF5DF0BFEC73F0000112
:1041E800AD6FADA90ED0996B9A6B9B6B020E9C6F4D
:1041F8000500FA6E3050FD6E3150FE6EFF6AFA50BF
:10420800120030503110D8B41200996B9A6B9B6B26
:10421800030E9C6F0500FA6E3050FD6E3150FE6E35
:10422800FF6AFA5012006051D96EDA6A0D0ED9266B
:10423800DF50616F626BD50E6125F66EF50E622157
:10424800F76EF86A000EF8220800F5CF63F06051A7
:10425800D96EDA6A6351DF1A6051D96EDA6A0E0EC6
:10426800D926DF50616F626BD50E6125F66EF50EAB
:104278006221F76EF86A000EF8220800F5CF63F0A5
:104288006051D96EDA6AD92A6351DF1A6051D96E42
:10429800DA6A0F0ED926DF50616F626BD50E612581
:1042A800F66EF50E6221F76EF86A000EF822080025
:1042B800F5CF63F06051D96EDA6A020ED9266351E0
:1042C800DF1A6051D96EDA6A0C0ED926DF50616F99
:1042D800626BD50E6125F66EF50E6221F76EF86AEF
:1042E800000EF8220800F5CF63F06051D96EDA6A43
:1042F800030ED9266351DF1A6051D96EDA6A43502A
:10430800DF1A7F0E43640CD01B0E43C061F0626B52
:10431800D890613762376119646F6251656F05D053
:10432800D8904334646F656B653764C043F060515F
:10433800D96EDA6ADF50616F6051D96EDA6A040E9D
:10434800D9266151DF1A6051D96EDA6AD92ADF504D
:10435800616F6051D96EDA6A050ED9266151DF1A8C
:104368006051D96EDA6A020ED926DF50616F60514A
:10437800D96EDA6A060ED9266151DF1A6051D96EF4
:10438800DA6A030ED926DF50616F6051D96EDA6A96
:10439800070ED9266151DF1A6051D96EDA6A040E08
:1043A800D926DF50616F6051D96EDA6A080ED926B6
:1043B8006151DF1A6051D96EDA6A050ED926DF50CD
:1043C800616F6051D96EDA6A090ED9266151DF1A18
:1043D8006051D96EDA6A060ED926DF50616F6051D6
:1043E800D96EDA6A0A0ED9266151DF1A6051D96E80
:1043F800DA6A070ED926DF50616F6051D96EDA6A22
:104408000B0ED9266151DF1A6051D96EDA6A080E8F
:10441800D926DF50616F6051D96EDA6A0C0ED92641
:104428006151DF1A6051D96EDA6A090ED926DF5058
:10443800616F6051D96EDA6A0D0ED9266151DF1AA3
:104448006051D96EDA6A0A0ED926DF50616F605161
:10445800D96EDA6A0E0ED9266151DF1A6051D96E0B
:10446800DA6A0B0ED926DF50616F6051D96EDA6AAD
:104478000F0ED9266151DF1A1200060EE126000E32
:10448800E2229BEC54F04EC004F24FC005F250C03B
:1044980006F251C007F24A0401E0BDD04A6ACD389D
:1044A800030B05E1FE0EE36AFF0EE36A0AD0CD387E
:1044B800030B4F6E506AFE0E4FC0E3FFFF0E50C055
:1044C800E3FFCD38030B05E1FC0EE36AFD0EE36A5A
:1044D8000AD0CD38030B4F6E506AFC0E4FC0E3FF75
:1044E800FD0E50C0E3FFCD38030B05E1FA0EE36A79
:1044F800FB0EE36A0AD0CD38030B4F6E506AFA0EF2
:104508004FC0E3FFFB0E50C0E3FFFE0EE3CF59F0B0
:1045180052685368546A556A592A05D0D890523659
:10452800533654365536592EF9D702010C515214C8
:10453800566E0D515314576E0E515414586E0F5138
:104548005514596EFC0EE3CF55F04E684F68506A0B
:10455800516A552A05D0D8904E364F3650365136C6
:10456800552EF9D734504E14526E35504F14536EA1
:1045780036505014546E37505114556E4E6A4F6A67
:10458800010E506E516AFA0EE350E82A05D0D89011
:104598004E364F3650365136E82EF9D752504E5EC9
:1045A80053504F5A5450505A5550515A56504E5CC9
:1045B800526E57504F58536E58505058546E595069
:1045C8005158556E04515224566E05515320576E5A
:1045D80006515420586E07515520596E10515624D3
:1045E800086F11515720096F125158200A6F135143
:1045F80059200B6F04C20CF205C20DF206C20EF26E
:1046080007C20FF2106B116B126B136B346A356AA9
:10461800366A376A3ED034C056F035C057F036C0D7
:1046280058F037C059F0561E571E581E591E562AA4
:10463800000E57225822592202010C51565C526E24
:104648000D515758536E0E515858546E0F515958B2
:10465800556E04515224566E05515320576E06511B
:104668005420586E07515520596E10515624086F22
:1046780011515720096F125158200A6F13515920B0
:104688000B6F08510C2709510D230A510E230B51AA
:104698000F2308C24EF009C24FF00AC250F00BC2F5
:1046A80051F0FA0EE126FF0EE222FF0C8F6B8AC052
:1046B80090F08BC091F0E8D00301A051020DA30E39
:1046C800F324D96E030EF420DA6EDF90A051020DA8
:1046D800A30EF324D96E030EF420DA6EDF92A051F4
:1046E800020DA30EF324D96E030EF420DA6EDF94C4
:1046F800A051020DA30EF324D96E030EF420DA6E36
:10470800DF96A051020DA30EF324D96E030EF420F8
:10471800DA6EDF98A051020DA30EF324D96E030EB2
:10472800F420DA6EDF9AA051020DA30EF324D96E9D
:10473800030EF420DA6EDF9CA051020DA30EF324C1
:10474800D96E030EF420DA6EDF9E90C0D9FF91C0B7
:10475800DAFFA051020DA20EF324E96E030EF42035
:10476800EA6EDFCFEFFF66D090C060F091C061F0D5
:1047780044EC6EF060C090F061C091F00301A0516C
:10478800020DA20EF324D96E030EF420DA6EDF6850
:1047980068D090C06CF091C06DF08C518A256E6F16
:1047A800000E8B216F6F8CEC0CF06CC090F06DC01C
:1047B80091F057D090C060F091C061F096EC72F023
:1047C80060C090F061C091F04CD090C075F091C07D
:1047D80076F0EBEC31F075C090F076C091F041D0F6
:1047E80090C060F091C061F0FDEC76F060C090F090
:1047F80061C091F036D090C082F091C083F042EC55
:1048080031F082C090F083C091F02BD090C067F057
:1048180091C068F038EC71F067C090F068C091F012
:1048280020D0010E8F6F8C518A25906F000E8B213E
:10483800916FA4D790C0D9FF91C0DAFF0001904BC7
:10484800912BDF50020A90E0010AA3E0070AB2E0C8
:10485800010ABBE0030AC4E0010ACDE00F0AD6E072
:10486800E0D70301A051020DA20EF324D96E030E66
:10487800F420DA6EDE2804E0100EA06101D0A02B2F
:10488800100EA01901E1A06B00018C518A258D6FD3
:10489800000E8B218E6F8D51905D8E51915903E2E0
:1048A8008F5101E109D790C08AF091C08BF01200B6
:1048B800020141A506D0800E0001896F030E886FA2
:1048C800030C41C28AF0030E00018A1705E0800E2E
:1048D800896F040E886F040C8A868851891107E154
:1048E800000E7A6F040E796F10EC0FF006D088C0B6
:1048F80079F089C07AF010EC0FF00201360511E169
:10490800010E0001626F220EA2EC73F00001626BCF
:10491800400EA2EC73F00001626B410EA2EC73F042
:1049280014D054C262F0120EA2EC73F055C262F0B9
:10493800130EA2EC73F00001626B400EA2EC73F050
:104948000001626B410EA2EC73F002014183E70E95
:10495800411700018851891108E136C265F0000E3F
:10496800666F050ED8EC41F041D00201360509E129
:10497800010E0001656F000E666F060ED8EC41F05F
:1049880035D0000E0001656F666F050ED8EC41F05A
:10499800000188518A6F89518B6F8C6B8D6B0C0E5F
:1049A800D8908A378B378C378D37E82EF9D78AC05D
:1049B80060F08BC061F08CC062F08DC063F07D0E3A
:1049C800646F656B666B676B35EC5AF060C06DF0B1
:1049D80061C06EF062C06FF063C070F002014651B2
:1049E80037EC64F00201465189EC50F0020148515D
:1049F80049114A114B1159E04B5106E14829FF0E64
:104A080049590F0E4A5919E348C260F049C261F08A
:104A18004AC262F04BC263F07D0E0001646F656BA1
:104A2800666B676B35EC5AF00C0ED89060376137BF
:104A380062376337E82EF9D720D048C28AF049C2D6
:104A48008BF04AC28CF04BC28DF00C0ED89000014E
:104A58008A378B378C378D37E82EF8D78AC060F0C5
:104A68008BC061F08CC062F08DC063F07D0E646F06
:104A7800656B666B676B35EC5AF060C08EF061C091
:104A88008FF062C090F063C091F08EC06DF08FC05F
:104A98006EF090C06FF091C070F00201475137EC92
:104AA80064F00201475189EC50F00001886B896B72
:104AB8001200020141A506D0800E0001896F030E85
:104AC800886F030C41C28BF0030E00018B1705E0C1
:104AD800800E896F040E886F040C0201365109E1BB
:104AE800400E00018A6505D0800E896F020E886F1E
:104AF800020C8A860201455160EC6FF0000E00013D
:104B08007A6F040E796F10EC0FF00201360523E17D
:104B18008AC062F0220EA2EC73F00A0ED3EC71F098
:104B2800976FF00E9717978797C062F00A0EA2EC5E
:104B380073F0400E0001626FA2EC73F00001626B2B
:104B4800410EA2EC73F036C265F0010E0001666FEB
:104B5800D8EC41F00AD00001626B400EA2EC73F071
:104B68000001626B410EA2EC73F00201365105E1BF
:104B78008AC062F0000EA2EC73F0E1EC77F0800ED0
:104B88002AEC77F00001986B0BD098518825D96EE4
:104B9800000E8921DA6EDF502AEC77F00001982B9D
:104BA8008A51985DF2E3DFEC77F002014181E70E6C
:104BB800411736C265F0000E0001666F030ED8EC8F
:104BC80041F000016D6B6E6B0A0E6F6F706B020126
:104BD800455137EC64F00201455189EC50F002016F
:104BE800485149114A114B1159E04B5106E14829E6
:104BF800FF0E49590F0E4A5919E348C260F049C2DD
:104C080061F04AC262F04BC263F07D0E0001646F2E
:104C1800656B666B676B35EC5AF00C0ED890603795
:104C2800613762376337E82EF9D720D048C28BF056
:104C380049C28CF04AC28DF04BC28EF00C0ED8904F
:104C480000018B378C378D378E37E82EF8D78BC01D
:104C580060F08CC061F08DC062F08EC063F07D0E94
:104C6800646F656B666B676B35EC5AF060C093F0E8
:104C780061C094F062C095F063C096F093C06DF087
:104C880094C06EF095C06FF096C070F00201475165
:104C980037EC64F00201475189EC50F00001886B51
:104CA800896B12009E96C6AEDAD0C69E426A020191
:104CB80020EE03F01851D9261951DA22DECF04F07C
:104CC800DDCF05F004C0D9FF05C0DAFF010EDF6EA5
:104CD800186B196B12002DB212002BC018F22CC0E1
:104CE80019F22BC0D9FF2CC0DAFFDF50416E20EE3D
:104CF80001F02B50D9262C50DA22DECF1AF2DDCF64
:104D08001BF2050E2B26000E2C22750E2B1807E120
:104D1800020E2C1804E1700E2B6E020E2C6E2D90D4
:104D280029502B1804E12A502C1801E12D82C58046
:104D3800020E426E020CC5AC04D014D0040EB3EFC0
:104D48006BF0D8904C30056E4B30046E0450C96E31
:104D58004BA003D00B0E426E0B0C030E426E030CDD
:104D6800C5AC02D02F2AEAD7C5824C50060B046E78
:104D7800056AF00E04104B6E05504C6E4B80010E08
:104D88003F6ED6D73F041BE01AC2D9FF1BC2DAFF19
:104D9800DECF4BF0DDCF4CF0020120EE03F01A51CC
:104DA800D9261B51DA22DECF16F2DDCF17F220EE1C
:104DB80002F01A51D9261B51DA22DF50406E4BC03F
:104DC800C9FF4BA0CAD7050E426E050CC5AC05D06D
:104DD8002F2AC59C050EB3EF6BF0400640280AE168
:104DE800050E02011A27000E1B23412E01D030D0D8
:104DF800C5829ED716C2D9FF17C2DAFFDF50C96E27
:104E08000201164B172B1200C5AC06D02F2A040E30
:104E1800B3EC6BF0C59C1200C586080E426E080CF8
:104E2800080E426EC586080C16C2D9FF17C2DAFFF3
:104E3800C9CFDFFF0201164B172B400604E0C59AC5
:104E4800060E426E03D0C58A1DEC75F0C5881200A7
:104E5800000EB3EF6BF02F2A060EB3EF6BF0425043
:104E680001E139D7010AC4E0030A8CE0010AAEE087
:104E7800070AEEE0010AC8E0030AD2E0010AE8E006
:104E88000F0AD2E0020A01E156D7010A01E168D708
:104E9800E2D7765106E17329FF0E74590F0E755942
:104EA80005E373517411751176112BE173C077F016
:104EB80074C078F075C079F076C07AF00C0ED8908E
:104EC8007737783779377A37E82EF9D777C060F0AF
:104ED80078C061F079C062F07AC063F07D0E646FCB
:104EE800656B666B676B35EC5AF060C06DF061C03E
:104EF8006EF062C06FF063C070F05E5037EC64F023
:104F0800A9D07F6B806B866B816B73C07BF074C09C
:104F18007CF075C07DF076C07EF017D0D8907633DF
:104F280075337433733386C077F0010E786F796BFD
:104F3800772B03D0D89078377937772FFBD70001B4
:104F480078517F1379518013862B7651E7E1100E43
:104F5800755DE4E273C077F074C078F075C079F0DD
:104F680076C07AF00C0ED8907737783779377A3759
:104F7800E82EF9D777C060F078C061F079C062F0A8
:104F88007AC063F07D0E646F656B666B676B35EC9A
:104F98005AF060C082F061C083F062C084F063C0E0
:104FA80085F0060E866515D08651200882C077F0F8
:104FB80083C078F084C079F085C07AF0E82A05D0FB
:104FC800D8907A33793378337733E82EF9D7775115
:104FD800816F81C060F05E5013EC74F0862905D0B3
:104FE800D8908237833784378537E82EF9D7000180
:104FF8007F517B15776F80517C15786F796B7A6B51
:105008000C0ED8907737783779377A37E82EF9D772
:1050180077C060F078C061F079C062F07AC063F060
:105028007D0E646F656B666B676B35EC5AF060518B
:10503800822761518323625184236351852382C06F
:105048006DF083C06EF084C06FF085C070F05E5064
:1050580037EC64F0020EFCEF75F0EBC0D9FFECC042
:10506800DAFFDECFEFF0DDCFF0F0000120EE02F046
:10507800EB51D926EC51DA22DECFF2F0DDCFF3F096
:10508800010EF16FF569EFC09CF0F0C09DF019ECCE
:1050980043F0F46FF2C085F0F3C086F0010E876F1D
:1050A800886F896B8A6B8B6B89EC58F0000908E074
:1050B800F2C066F0F3C067F038EC48F06651F56F5F
:1050C800F4AFF5BF92D0F16B6CD0F55102E1899045
:1050D8008CD089808AD0F55102E1899286D0898264
:1050E80084D0F55102E1899480D089847ED0F5512D
:1050F80002E189967AD0898678D0F55102E18998BB
:1051080074D0898872D0F55102E1899A6ED0898A63
:105118006CD0F55102E18D9068D08D8066D0F55144
:1051280002E18D9262D08D8260D0F55102E18C94BB
:105138005CD08C845AD0F55102E18D9456D08D8480
:1051480054D0F55102E18B9A50D08B8A4ED0F5514C
:1051580002E18C9A4AD08C8A48D0F55102E18C9EA3
:1051680044D08C8E42D0F55102E18C9C3ED08C8C80
:105178003CD0F55102E1899E38D0898E36D0F55160
:1051880002E1899C32D0898C30D0F55102E18A9EA7
:105198002CD08A8E2AD0F55102E18A9C26D08A8C9E
:1051A80024D0F45192E0010A96E0030A9AE0010A39
:1051B8009EE0070AA2E0010AA6E0030AAAE0010AA3
:1051C800AEE00F0AB2E0010AB6E0030ABAE0010A4B
:1051D800BEE0070AC2E0010AC6E0030ACAE0010A03
:1051E800CEE01F0AD2E0010AD6E0F151020DB90E55
:1051F800F324D96E020EF420DA6EDECFEDF0DDCFA7
:10520800EEF020EE06F0EB51D926EC51DA22EDC093
:10521800DEFFEEC0DEFFDD6A12007BC01EF27CC03E
:105228001FF27DC020F27EC021F2A80E0201226F7B
:10523800610E236F246B256B500E266FC30E276FEC
:10524800286B296B010E366F070E386F020E396F07
:10525800010E3F6F406B2B6B080E2A6F0C0E376FD9
:10526800010E3A6F3B6B3E6BC10E2D6F940E2E6F85
:10527800C10E2F6F030E356F340E2C6F416B426BCE
:1052880079C043F27AC044F23C6B3D6B800E506F9C
:105298005269516F980E486F3A0E496F4A6B4B6BC3
:1052A800020E536F0B0E546F120E556F4D6B4E6BF3
:1052B8004C5123E1C0EC5BF00201456FC0EC5BF0A0
:1052C8000201466FC0EC5BF00201476FDA0E000185
:1052D800606FD90E616F626B020146512BEC6EF064
:1052E8006E0E606FD10E616F626B020147512BEC3D
:1052F8006EF0010E02014C6F0BD0455160EC6FF05F
:105308000201465160EC6FF00201475160EC6FF00A
:10531800F8EC6DF0000E0001656F010E666FD8ECB9
:1053280041F01EC26DF01FC26EF020C26FF021C2A4
:1053380070F091EC40F0420E0001626F3B0EA2EC5F
:1053480073F03B0ED3EC71F07F6F7FBBFAD7230E5F
:10535800626F0C0EA2EC73F01E0E0001626F0D0E50
:10536800A2EC73F0AA0E0001626F1F0EA2EC73F09C
:105378008F0E0001626F350EA2EC73F000016269B6
:10538800320EA2EC73F0400E0001626F310EA2ECF7
:1053980073F0010E0001656F666F000ED8EC41F0E6
:1053A80093866186F19E0001806B05D081A602D0AC
:1053B800939603D0802B80AFF9D76196F18E6269FE
:1053C800230EA2EC73F0420ED3EC71F002014F6F82
:1053D80012000001936F0301EF511BEC77F0D9C362
:1053E80091F00001930522E193C07EF0940E7F6F47
:1053F800806B0301E751FFEC40F0926FE70E030169
:10540800D925F66EF76AF60EF722F86A000EF8222A
:105418000800F55011EC77F00301E951D95D0A0F46
:105428001F6F0D0E1F6549D01F6F47D0030108BDC0
:1054380016D0D96B93C07EF0940E00017F6F806BFD
:10544800400EFFEC40F0926F0A0E11EC77F003016A
:10545800E9510A081F6F070E25EC77F01AD0040EE1
:10546800D96F93C07EF0940E00017F6F806B080E99
:10547800FFEC40F0926F080E11EC77F00301E95150
:105488000E081F6F0D0E1F6501D01F6F090E25EC4A
:1054980077F0030108BD04D000018C6B8C2B02D07F
:1054A80000018C6B8C3B8C478C4703010851000131
:1054B8008C19BF0B8C190301086F91C0D9F3000137
:1054C800925160E1400E94611DD09451A7EC66F0B2
:1054D80075C08DF076C08EF077C08FF078C090F0F0
:1054E800070E25EC77F01F0E0301DB25F66EF76A31
:1054F800F70EF722F86A000EF8220800F55002ECC1
:1055080077F02ED0945160EC5DF075C08DF076C0C8
:105518008EF077C08FF078C090F0090E25EC77F008
:105528001F0E0301DB25F66EF76AF70EF722F86AFD
:10553800000EF8220800F550800A650F0EE21F0ED3
:10554800DB25F66EF76AF70EF722F86A000EF822E6
:105558000800F55002EC77F003D01A0E02EC77F051
:105568008DC060F08EC061F08FC062F090C063F0B3
:1055780055EC54F0010E0CEC77F0000E07EC77F0C8
:1055880094C0D4F3000192511200EBC0D9FFECC0D3
:10559800DAFFDECFEFF0DDCFF0F0010E0001F16FA2
:1055A800F369EFC09CF0F0C09DF019EC43F0F26F86
:1055B800F2BF80D05AD0000E80B0010EF36F79D0C0
:1055C800000E80B2010EF36F74D0000E80B4010E8D
:1055D800F36F6FD0000E80B6010EF36F6AD0000E25
:1055E80080B8010EF36F65D0000E80BA010EF36F1C
:1055F80060D0000E84B0010EF36F5BD0000E84B251
:10560800010EF36F56D0000E83B4010EF36F51D024
:10561800000E84B4010EF36F4CD0000E82BA010E56
:10562800F36F47D0000E83BA010EF36F42D0000E1D
:1056380083BE010EF36F3DD0000E83BC010EF36FE5
:1056480038D0000E80BE010EF36F33D0000E80BC40
:10565800010EF36F2ED0000E81BE010EF36F29D01C
:10566800000E81BC010EF36F24D0F251A4E0010AB0
:10567800A7E0030AAAE0010AADE0070AB0E0010AC0
:10568800B3E0030AB6E0010AB9E00F0ABCE0010A78
:10569800BFE0030AC2E0010AC5E0070AC8E0010A40
:1056A800CBE0030ACEE0010AD1E01F0AD4E0010AE8
:1056B800D7E0F16BF15118E0F151020DB90EF32466
:1056C800D96E020EF420DA6EDECFEDF0DDCFEEF00B
:1056D80020EE06F0EB51D926EC51DA22EDC0DEFFC0
:1056E800EEC0DEFFDD6A12001D0E7C6F080E7D6FB6
:1056F800F3517E6F7F6B7EBF7F07816B0A0E806FD1
:105708003AEC50F01D0EED6F080EEE6F20EE06F02D
:10571800EB51D926EC51DA22EDC0DEFFEEC0DEFFF8
:10572800200EDF6E200C75C0D9FF76C0DAFFDF507F
:10573800846F754B762B84512FEC72F0F4E2806BFA
:10574800816B826B836B7F6B2D0E84190BE1010ECD
:105758007F6F75C0D9FF76C0DAFFDF50846F754B55
:10576800762B03D02B0E8419F4E0300E841927E130
:1057780075C0D9FF76C0DAFFDF50846F754B762B82
:1057880079517A1104E0100E79197A1112E1780E24
:10579800841903E0580E84190CE17A6B100E796FA6
:1057A80075C0D9FF76C0DAFFDF50846F754B762B52
:1057B80006D079517A1103E17A6B080E796F795125
:1057C8007A1103E17A6B0A0E796F84519AEC71F0C1
:1057D80006E3845134EC75F0C90F846F06D0845108
:1057E80084EC73F036E3300E845F84517B6F7C6BFE
:1057F80079517B5D7C51800A7D6F7A51800A7D5991
:1058080028E279C069F07AC06AF0000E6ABFFF0E1C
:105818006B6F6C6F80C06DF081C06EF082C06FF0EE
:1058280083C070F0A2EC65F084516925806F000E8A
:105838006A21816F000E6B21826F000E6C21836FCD
:1058480075C0D9FF76C0DAFFDF50846F754B762BB1
:10585800BCD7775178110EE0FF0E75257B6FFF0ED0
:1058680076217C6F77C0D9FF78C0DAFF7BC0DEFF76
:105878007CC0DDFF7F511AE080C07BF081C07CF0E6
:1058880082C07DF083C07EF07B1F7C1F7D1F7E1F42
:105898007B2B000E7C237D237E237BC075F07CC090
:1058A80076F07DC077F07EC078F0000C80C075F08F
:1058B80081C076F082C077F083C078F01200090EBC
:1058C800E126000EE2225668576858685968F70EB4
:1058D80056C0E3FFF80E57C0E3FFF90E58C0E3FFC8
:1058E800FA0E59C0E3FF41EC22F0FB0E4EC0E3FF75
:1058F800FC0E4FC0E3FFFD0E50C0E3FFFE0E51C08B
:10590800E3FFFF0EE36A81D0FF0EE350080D040E9B
:10591800F324D96E040EF420DA6EDE0474E1FF0E6F
:10592800E350080D000EF324D96E040EF420DA6E4D
:10593800FB0EE3CF4EF0DE504E5CFC0EE3CF4EF094
:10594800DE504E58FD0EE3CF4EF0DE504E58FE0EA0
:10595800E3CF4EF0DE504E580EE3FF0EE350080D35
:10596800000EF324D96E040EF420DA6EDE6ADE6AC5
:10597800DE6ADD6A48D0FF0EE350080D000EF324FE
:10598800D96E040EF420DA6EFB0EE350DE5EFC0ED8
:10599800E350DE5AFD0EE350DE5AFE0EE350DE5AA7
:1059A800FF0EE350080D000EF324D96E040EF42008
:1059B800DA6EF70EE350DE5CF80EE350DE58F90EAF
:1059C800E350DE58FA0EE350DE581DE2FF0EE350B6
:1059D800080D000EF324D96E040EF420DA6EDECF23
:1059E80056F0DECF57F0DECF58F0DECF59F0F70E85
:1059F80056C0E3FFF80E57C0E3FFF90E58C0E3FFA7
:105A0800FA0E59C0E3FFFF0EE32AFF0EE3CF4EF074
:105A180046504E5C01E278D7F70EE3CF4EF0F80E11
:105A2800E3CF4FF0F90EE3CF50F0FA0EE3CF51F089
:105A3800F70EE126FF0EE222FF0C010E0001EF6FC8
:105A4800EBC0D9FFECC0DAFFDECF66F0DDCF67F040
:105A5800D1EC6CF0000901E192D020EE02F0EB519C
:105A6800D926EC51DA22DECF66F0DDCF67F0D1EC33
:105A78006CF0000901E183D0EBC0D9FFECC0DAFF7C
:105A8800DECF75F0DDCF76F0776B786B7A6B100E22
:105A9800796F97EC2BF07551F06F20EE02F0EB5117
:105AA800D926EC51DA22DECF75F0DDCF76F0776BB0
:105AB800786B7A6B100E796F97EC2BF07551F16F4C
:105AC800EBC0D9FFECC0DAFFDECFEDF0DDCFEEF0B2
:105AD800EDC060F0EEC061F060516111D8A4200EF5
