:040000000CD0000020
:020008007FD1A6
:100018007FD194908B80730ED36EF86A030EF76EBF
:10002800000EF66EFC0E0B6EFE0E0A6E15EC01F05D
:10003800FE0EF66EFF0EF76E0900F550001804E18B
:100048000900F55001184AE03CD80400ACA2FDD7DD
:10005800B880B8A005D0B8AEFCD7B890B89EF5D790
:10006800AE50AE5000EE09F0090E026E22D80550CF
:10007800EE6EE9500B0A0BE10950020A06E009503E
:10008800050A03E00950070A02E10A500226022E77
:10009800EDD726D8026E550E07D800EE09F0EE50BF
:1000A80003D8022EFCD7D1D704009EA8FDD7AD6E89
:1000B80012000400ABB2FF009EAAFED7AE50056E38
:1000C80012008B8C948C948E0F013A9D3A9F900E5F
:1000D800AB6E260EAC6E080EB86E12008B900CD16B
:1000E8000E50F66EA96E0F50F76E10C0F8FF00EEB6
:1000F80012F00A50026E0950090803E2FF0E096E59
:10010800010CFB6A010EFA6E09441A0FD8B0FA2ADC
:10011800F96E09D044D04BD05AD064D06DD03FD0BE
:1001280076D07FD0FF00010E126E010E136E146A96
:10013800156A166A176A3F0EF86EFF0EF76EFE0E06
:10014800F66E0900F5CF18F00900F5CF19F01A6A14
:100158001B6A400E1C6E400E1D6E200EF86EF76A6C
:10016800F66A0900F5CF1EF009001E38F5101E6E5C
:100178000900F5CF1FF009001F38F5101F6E0900A0
:10018800F5CF20F009002038F510206E0900F5CFD2
:1001980021F009002138F510216E190E120009000E
:1001A800F5CFEEFF022EFBD70A50090F1200EECF53
:1001B800F5FF0D00024E03D0F6503F0BF8E10A00A0
:1001C800840EA66E49D809000252F1E141D0940E7E
:1001D800A66E42D8400EF626E86AF722F822022ECA
:1001E800F6D736D0A66AA680A8CFEEFFA92A022E97
:1001F800F9D70A50090F1200EECFA8FF040EA66E19
:100208002BD8A6B2FED7A92A022EF6D721D0C40E23
:10021800A66EEECFF5FF0C001FD80900022EF7D707
:1002280017D0006A016A0A900A52D8A40B2A09005A
:10023800F55000260900F5500122020E0A5EF7E18A
:100248000B2EF5D700C0EEFF01C0EEFF0B0E12001B
:10025800010E126E0A0E120004000C50A76E0D500B
:08026800A76EA682000012003F
:10030000D7EF01F0FFFFFFFF5A82FACF2AF0FBCFB1
:100310002BF0D9CF2CF0DACF2DF0F3CF2EF0F4CF95
:100320002FF0F2BC9DA005D09EA003D092EC6DF002
:1003300030D0F2BC9DAA05D09EAA03D011EC57F094
:1003400028D0F2BC9DA805D09EA803D0FEEC68F092
:1003500020D0F0B6F0A003D0BBEC6EF01AD0F0B80D
:10036000F0A203D0B8EC6EF014D0F2B6F2A003D035
:1003700066EC6DF00ED0F2BC9DA605D09EA603D013
:10038000F9EC20F006D0F2BCA0A603D0A1B6EEECAA
:100390006EF02FC0F4FF2EC0F3FF2DC0DAFF2CC08B
:1003A000D9FF2BC0FBFF2AC0FAFF5A921100D4EFED
:1003B00039F0D7EC6EF002BF3CEF06F066C1D9FF12
:1003C00067C1DAFFDF500101736F7339E832070B41
:1003D000E80601E0C4D00201185101E0C0D00101DB
:1003E0006805786F1FD0685166250001ED6F000E1B
:1003F000010167210001EE6F010178510001ED5DFF
:10040000906FEE51D8A0EE05916F3D0E926F020EE7
:10041000936FD6EC68F0100E0101786502D0785F1A
:1004200001D0786B7851DFE13D0E0001DA6F020EEA
:10043000DB6F66C1DCF067C1DDF001016851FC0FC4
:100440000001DE6F17EC5DF0DAC07DF1DBC07EF1FC
:10045000DCC07FF1DDC080F166C16EF067C16FF076
:1004600068C170F0E9EC61F06EC074F16FC075F1B5
:1004700070C076F171C077F101017D51741909E105
:100480007E51751906E17F51761903E18051771984
:1004900011E002010231070B050A02E1CEEF69F01B
:1004A0000231070B030AD8A41200B651D8B41200C7
:1004B000CEEF69F002010231070B030A03E1A851F4
:1004C0001BEC6BF066C182F167C183F1010120EE84
:1004D00007F08251D9268351DA22DECF19F2DECF1E
:1004E0001AF2DECF1BF2DECF1CF220EE0CF08251AE
:1004F000D9268351DA22DF500F0BE5EC5EF00101C3
:1005000020EE0BF08251D9268351DA22DF38070B17
:100510000001646F010120EE0BF08251D926835156
:10052000DA22DF500F0B75EC6AF082C164F083C1F0
:1005300065F001016851E7EC6EF082C1A4F083C15F
:10054000A5F0F6EC51F0C0EC3AF00201066B076B37
:10055000086B096B0A6B0B6B0C6B0D6B12000101C6
:100560007339E832070B030A06E07339E832070BE8
:10057000050A01E07ED302016C6B66C184F167C19C
:1005800085F1010120EE01F08451D9268551DA224E
:1005900002011951DE1809E11A51DE1806E11B515A
:1005A000DE1803E11C51DE1801E063D30AC279F1C1
:1005B0000BC27AF10CC27BF10DC27CF1BB5101E19F
:1005C00017D1010120EE06F08451D9268551DA2297
:1005D00002010A51DE1879E10B51DE1876E179C18A
:1005E0006EF07AC16FF07BC170F07CC171F00101D7
:1005F0006851FC0F0001726F490E736F010E8EEC93
:100600004EF0F90E646F0A0E656FB30E666F030E3F
:10061000676F696B100E686FF1EC5BF0090E646F29
:100620000B0E656F66C166F067C167F0FC0E0101D5
:1006300068250001686F696BFF0E6923F1EC5BF0C0
:100640001D0ECC6F020ECD6FB30ECE6F030ECF6FAB
:10065000F90ED06F0A0ED16F010168510C0F000125
:10066000D26F1DEC16F07D0E646F010E656FB30E38
:10067000666F030E676F696B040E686FF1EC5BF0D9
:1006800066C16EF067C16FF068C170F0E9EC61F0AF
:100690006EC074F16FC075F170C076F171C077F102
:1006A000010174517D1910E175517E190DE17651EA
:1006B0007F190AE17751801901E0DBD284C164F02F
:1006C00085C165F094EC58F0D4D2010120EE06F01B
:1006D0008451D9268551DA22DE5002010A5DDE50AE
:1006E0000B5929E2010120EE06F08451D9268551EB
:1006F000DA22DECFEDF0DDCFEEF002010A5100018B
:10070000ED5F02010B510001EE5BED510201655DF1
:100710000001EE510201665902E2048177D0010125
:1007200020EE06F08451D9268551DA22DECF79F108
:10073000DDCF7AF16BD0010120EE06F08451D9268D
:100740008551DA22DF500001ED6F100EED27010E0A
:1007500002010C250001EE6F000E02010D210001C7
:10076000EF6FF06BF16BED2B05D0D890EE37EF37D4
:10077000F037F137ED2FF9D7EEC069F1EFC06AF12C
:10078000F0C06BF1F1C06CF1020165510A25000166
:10079000ED6F020166510B210001EE6F000E0201A8
:1007A0000C210001EF6F000E02010D210001F06F1E
:1007B000010169510001ED5D01016A510001EE592D
:1007C00001016B510001EF5901016C510001F05919
:1007D00001E24FD2010120EE06F08451D926855165
:1007E000DA22DECF79F1DDCF7AF17B4B7C2B0ED094
:1007F000010120EE06F08451D9268551DA22DECFA0
:1008000079F1DDCF7AF1010E0201BB6F020104A183
:1008100004D0AA511BEC6BF087D079C16EF07AC17D
:100820006FF07BC170F07CC171F001016851FC0F69
:100830000001726F490E736F010E8EEC4EF0F90ECF
:10084000646F0A0E656FB30E666F030E676F696B98
:10085000100E686FF1EC5BF0090E646F0B0E656FA4
:1008600066C166F067C167F0FC0E010168250001F2
:10087000686F696BFF0E6923F1EC5BF01D0ECC6FA6
:10088000020ECD6FB30ECE6F030ECF6FF90ED06F89
:100890000A0ED16F010168510C0F0001D26F1DECDF
:1008A00016F07D0E646F010E656FB30E666F030E5A
:1008B000676F696B040E686FF1EC5BF066C16EF0F8
:1008C00067C16FF068C170F0E9EC61F06EC074F15F
:1008D0006FC075F170C076F171C077F1010174518C
:1008E0007D1909E175517E1906E176517F1903E101
:1008F0007751801901E0BDD1CA6BCB6B79C10AF287
:100900007AC10BF27BC10CF27CC10DF202010A2903
:100910000EE10B290CE10C290AE10D2908E1AA518D
:100920001BEC6BF002010481050ED7EF59F0023188
:10093000070B030A03E1AA511BEC6BF0010E020145
:100940009D6F84C164F085C165F094EC58F001019D
:1009500020EE05F08451D9268551DA22DF500F0BA5
:1009600034E020EE05F08451D9268551DA22DF509B
:100970000F0B84250001ED6F000E010185210001A0
:10098000EE6F080EED25D96E000EEE21DA6EDF5007
:1009900020E0080E010184250001816F000E010195
:1009A00085210001826F010120EE05F08451D926D6
:1009B0008551DA22DF500F0B0001836FF1EC22F03A
:1009C00081C066F182C067F104D0080E6627000E70
:1009D0006723010168510001ED6FEE6B010120EE0C
:1009E00005F08451D9268551DA22DF500F0B000122
:1009F000EF6FF06B0C0EEF27000EF023ED51EF19A7
:100A000004E1EE51F01901E19BD066C1D9FF67C145
:100A1000DAFFDF5001016D6F664B672B20EE05F0AA
:100A20008451D9268551DA22DF500F0B0001ED6F7A
:100A3000ED510101685DF40F816F20EE05F08451E6
:100A4000D9268551DA22DF500F0B190F6E6F6D51C9
:100A500025E066C1A4F067C1A5F081050001A66F7D
:100A6000010EA76F0AC2A8F00BC2A9F00CC2AAF02F
:100A70000DC2ABF02D0EAC6F020EAD6F6EC1AEF0BD
:100A8000F90EAF6F0A0EB06FB0EC2EF0FF0E010141
:100A90006625706FFF0E6721716F56D06851000197
:100AA000ED6FEE6B010120EE05F08451D9268551E2
:100AB000DA22DF500F0B0001EF6FF06B0D0EEF2706
:100AC000000EF023ED51EF5DF051800AF16FEE5111
:100AD000800AF15935E266C1A4F067C1A5F00101B1
:100AE00081050001A66F010EA76F0AC2A8F00BC214
:100AF000A9F00CC2AAF00DC2ABF01D0EAC6F020E35
:100B0000AD6F6EC1AEF0F90EAF6F0A0EB06FB0EC04
:100B10002EF0010120EE05F08451D9268551DA220C
:100B2000DF500F0B0DE166C181F067C182F08105D6
:100B30000001836FF1EC22F081C066F182C067F1A1
:100B40000101816B706B716B010E02019D6F956BE2
:100B5000966BB36B0099038100A14DD0010120EE8B
:100B600005F08451D9268551DA22DFAA74EF55F0B9
:100B700002010091010E01016F6FF10E02010217D7
:100B80000101B751B81116E00201009B70C194F049
:100B900071C195F081C196F06FC197F001D80AD06C
:100BA0000500FA6E0101B751FD6EB851FE6EFF6A85
:100BB000FA5012000201039102B900BB120000B307
:100BC00002D000A71200010E0001796F720E7A6F39
:100BD000010E7B6F0201B2510DEC3CF00009D8A46C
:100BE0001200000EE66FE76FE86FE96F9DEC44F0CE
:100BF000020100971200010E01016F6FF10E020158
:100C000002170101B751B81116E00201009B70C133
:100C100094F071C195F081C196F06FC197F001D841
:100C20000AD00500FA6E0101B751FD6EB851FE6E93
:100C3000FF6AFA501200020102B900BB120000B3B1
:100C400002D000A71200010E0001796F720E7A6FB8
:100C5000010E7B6F0201B2510DEC3CF00009D8A4EB
:100C60001200000EE66FE76FE86FE96F9DEC44F04D
:100C7000BFD7000ED7EF59F00101B751B811D8B462
:100C80001200B5EC6EF00001ED6FEDB712D066C149
:100C900094F067C195F068C196F0030E976F050058
:100CA000FA6E0101B751FD6EB851FE6EFF6AFA503F
:100CB000120066C194F067C195F068C196F0020E0B
:100CC000976F0500FA6E0101B751FD6EB851FE6EC7
:100CD000FF6AFA501200D4C269F0000E6A6FE6ECA7
:100CE0003CF0BCC271F0BDC272F0BEC273F0BFC2B4
:100CF00074F09FEC3BF00201D75135EC40F002015B
:100D0000D40501E0B6D1CAC266F0390EE0EC6AF053
:100D1000DEC27FF0010E00017F170201D890DD35A1
:100D20000001806F0201D639F00B000180117F11A4
:100D3000666F1D0EE0EC6AF07EC07FF0030E0001CE
:100D40007F17D8C280F0010E8017D8908037D890D6
:100D500080370201D539F00B000180117F11666FD9
:100D60001E0EE0EC6AF00201DA51DB1160E0DAC23B
:100D700082F0DBC283F00001846B856B42D082C0BD
:100D800064F083C065F084C066F085C067F07D0EB6
:100D90000001686F696B6A6B6B6BAFEC50F022D02F
:100DA00082C064F083C065F084C066F085C067F0DF
:100DB000FA0E0001686F696B6A6B6B6BAFEC50F0F9
:100DC00011D082C064F083C065F084C066F085C035
:100DD00067F0F40E0001686F010E696F6A6B6B6B50
:100DE000AFEC50F064C082F065C083F066C084F060
:100DF00067C085F00FD00001826B836B846B856BBD
:100E000009D00201D651070ABAE00F0AC9E0010A67
:100E1000D8E0F1D70201D52900017F6F05D0D89025
:100E200085338433833382337F2FF9D705D0000194
:100E3000826B836B846B856B82C066F0240EE0EC62
:100E40006AF07DC066F01F0EE0EC6AF0260E72ECD0
:100E500069F0866F0C0E0201D51906E1070ED6194E
:100E600009E0080ED61906E00B0ED51906E1070EAB
:100E7000D61903E10001868702D000018697868596
:100E800086C066F0260EE0EC6AF0310E72EC69F076
:100E9000866FF80E8617030E861386C066F0310E35
:100EA000E0EC6AF00A0E0001666F370EE0EC6AF0C3
:100EB000120E0201ED1929E1070ED61903E0080E02
:100EC000D61915E1310E72EC69F0866F869F86C0E7
:100ED00066F0310EE0EC6AF0400E0001666F2F0EF6
:100EE000E0EC6AF00001666B300EE0EC6AF0090E8F
:100EF0000201D6190AE1310E72EC69F0866F868F15
:100F000086C066F0310EE0EC6AF0330E72EC69F0E8
:100F1000866F869D8681DCC27FF0010E7F17060EEC
:100F2000806FD8907F37802FFCD77F51861386C083
:100F300066F0330EE0EC6AF0DCC27FF0010E0001D7
:100F40007F17D8907F37D8907F35FF0A1D0B866FAB
:100F500086C066F03B0EE0EC6AF00201C951000168
:100F6000666F200EE0EC6AF0C8C266F0210EE0EC7D
:100F70006AF00001666B0D0EE0EC6AF00001666B32
:100F80000E0EE0EC6AF00001666B0F0EE0EC6AF00A
:100F9000120E0201ED1968E1090ED6191EE1800E4C
:100FA000BC5D130EBD59610EBE59330EBF5915E31A
:100FB000BC05F70EBD59CB0EBE593C0EBF590DE214
:100FC000020E0001666F360EE0EC6AF0640E00015E
:100FD000666F3A0EE0EC6AF028D0090ED6191FE1D0
:100FE000800EBC5D1A0EBD59700EBE59180EBF5949
:100FF00016E3410EBC5DDD0EBD594A0EBE591F0EF3
:10100000BF590DE2020E0001666F360EE0EC6AF089
:101010007F0E0001666F3A0EE0EC6AF006D0030E18
:101020000001666F360EE0EC6AF0090E0201D61977
:101030000FE1DC050DE1650E0001666F3A0EE0EC94
:101040006AF0190E0001666F3B0EE0EC6AF00CD0FE
:10105000650E0001666F3A0EE0EC6AF01D0E0001AD
:10106000666F3B0EE0EC6AF000016669120EE0EF7D
:101070006AF0C0C271F0C1C272F0C2C273F0C3C2E2
:1010800074F0DFEC56F0C4C271F0C5C272F0C6C293
:1010900073F0C7C274F074EC57F00201C95100013B
:1010A000666F250EE0EC6AF0C8C266F0260EE0EC32
:1010B0006AF00A0E72EC69F0866F9F0E86170201C5
:1010C000EF39E846E00B0001861386C066F00A0E91
:1010D000E0EC6AF0C80E0001866F0201D85102E010
:1010E0000001868986C066F0300EE0EC6AF00001EF
:1010F000816B0ED0CB0E8125D96EDA6A020EDA2210
:10110000DF50666F8151280FE0EC6AF00001812BFF
:101110000201D3510001815DEDE30201D35108E0EA
:10112000D30510090001666F270EE0EC6AF005D0C8
:101130000001666B270EE0EC6AF0000166693E0E66
:10114000E0EC6AF0000166693F0EE0EF6AF0000132
:10115000FA6BFB6B656B646B1AEC6CF00101CC6F86
:101160000001FA4BFB2B0101CC51C327000EC42315
:10117000CC512CEC6EF0CCC17AF00101BF6BC06B8E
:10118000C0511DE1040EBF5D1AE2BF51300FD96E90
:10119000DA6AFAC064F0FBC065F01AEC6CF0DF6E3E
:1011A0000001FA4BFB2B0101BF51300FD96EDA6AF7
:1011B000DF50C327000EC423BF4BC02BE1D7FAC0BA
:1011C00064F0FBC065F01AEC6CF00101CC6F00011B
:1011D000FA4BFB2B0101CC51C327000EC42330C0B6
:1011E00072F031C073F032C074F033C075F0CCC10E
:1011F00076F02CEC60F00101BF6BC06BC0511DE1BB
:10120000040EBF5D1AE2BF51300FD96EDA6AFAC020
:1012100064F0FBC065F01AEC6CF0DF6E0001FA4B75
:10122000FB2B0101BF51300FD96EDA6ADF50C327A3
:10123000000EC423BF4BC02BE1D730C064F031C0D7
:1012400065F032C066F033C067F03CEC6DF0010130
:10125000BF6BC06BC0511DE1040EBF5D1AE2BF51F0
:10126000300FD96EDA6AFAC064F0FBC065F01AEC90
:101270006CF0DF6E0001FA4BFB2B0101BF51300F08
:10128000D96EDA6ADF50C327000EC423BF4BC02BD0
:10129000E1D730C064F031C065F032C066F033C0D1
:1012A00067F045EC6DF00101BF6BC06BC05121E1EF
:1012B000080EBF5D1EE2C30EBF25D96E030EC0210E
:1012C000DA6EFAC064F0FBC065F01AEC6CF0DF6E09
:1012D0000001FA4BFB2BC30E0101BF25D96E030E93
:1012E000C021DA6EDF50C327000EC423BF4BC02BD2
:1012F000DDD700017AA106D0C30E6E6F030E6F6FAB
:1013000031EC68F00101BF6BC06BC05121E1080EE8
:10131000BF5D1EE2C30EBF25D96E030EC021DA6E7B
:10132000FAC064F0FBC065F01AEC6CF0DF6E0001EF
:10133000FA4BFB2BC30E0101BF25D96E030EC02152
:10134000DA6EDF50C327000EC423BF4BC02BDDD79E
:1013500000017AA306D0C30E6E6F030E6F6F70ECA0
:1013600068F00101BF6BC06BC05121E1100EBF5D81
:101370001EE2C30EBF25D96E030EC021DA6EFAC07D
:1013800064F0FBC065F01AEC6CF0DF6E0001FA4B04
:10139000FB2BC30E0101BF25D96E030EC021DA6EEF
:1013A000DF50C327000EC423BF4BC02BDDD7000185
:1013B0007AA506D0C30E6E6F030E6F6F5BEC68F0FC
:1013C0000101BF6BC06BC05121E1100EBF5D1EE279
:1013D000C30EBF25D96E030EC021DA6EFAC064F0C9
:1013E000FBC065F01AEC6CF0DF6E0001FA4BFB2BD2
:1013F000C30E0101BF25D96E030EC021DA6EDF5086
:10140000C327000EC423BF4BC02BDDD700017AA930
:1014100006D0C30E6E6F030E6F6F1CEC68F00101F7
:10142000BF6BC06BC05121E1100EBF5D1EE2C30E49
:10143000BF25D96E030EC021DA6EFAC064F0FBC07E
:1014400065F01AEC6CF0DF6E0001FA4BFB2BC30E5B
:101450000101BF25D96E030EC021DA6EDF50C3270C
:10146000000EC423BF4BC02BDDD700017AAB06D0E2
:10147000C30E6E6F030E6F6F46EC68F0306A316A10
:10148000326A336A0101BF6BC06BC0511DE1040EAB
:10149000BF5D1AE2BF51300FD96EDA6AFAC064F04C
:1014A000FBC065F01AEC6CF0DF6E0001FA4BFB2B11
:1014B0000101BF51300FD96EDA6ADF50C327000E29
:1014C000C423BF4BC02BE1D700017AA70AD030C09C
:1014D00064F031C065F032C066F033C067F057EC9D
:1014E0006CF0506A470E506401D030D0FAC064F0FE
:1014F000FBC065F01AEC6CF00101CC6F0001FA4BF7
:10150000FB2B0101CC51C327000EC423CC51010E8B
:10151000D8B4000E0001686F505085EC69F0FAC035
:1015200064F0FBC065F01AEC6CF00101CC6F0001B7
:10153000FA4BFB2B0101CC51C327000EC423CCC1B5
:101540006BF05050EAEC68F0502ACCD7FAC064F047
:10155000FBC065F01AEC6CF00101CC6F0001FA4B96
:10156000FB2B0101CC51C327000EC423CC51D2EC7C
:1015700066F0FAC064F0FBC065F01AEC6CF0010193
:10158000CC6F0001FA4BFB2B0101CC51C327000E9D
:10159000C423CC510DEC6CF00101C32904E1C42932
:1015A00002E1C36BC46BC3C178F0C4C179F012000F
:1015B0007E6B7F6B776B786B0001656BE40E646FFD
:1015C000666989EC62F00001656BE50E646F66691F
:1015D00089EC62F0C7C17DF101017D517727000ED2
:1015E00078230001656B646B7DC166F089EC62F065
:1015F00001017E4B7F2B790E0001646F010E656F38
:101600007D0E666F010E676F9EEC67F00101806BC7
:10161000790E8025D96EDA6A010EDA22DF5077273B
:10162000000E78237EC164F07FC165F0790E8025BD
:10163000D96EDA6A010EDA22DF500001666F89EC9A
:1016400062F001017E4B7F2B802B030E8065E0D77B
:101650007D517727000E78237EC164F07FC165F04D
:101660007DC166F089EC62F001017E4B7F2B0FECAF
:101670006DF064C079F165C07AF166C07BF167C036
:101680007CF1806B790E8025D96EDA6A010EDA2240
:10169000DF507727000E78237EC164F07FC165F0AC
:1016A000790E8025D96EDA6A010EDA22DF50000148
:1016B000666F89EC62F001017E4B7F2B802B030E5D
:1016C0008065E0D718EC6DF064C079F165C07AF1FF
:1016D00066C07BF167C07CF1806B790E8025D96E86
:1016E000DA6A010EDA22DF507727000E78237EC1F6
:1016F00064F07FC165F0790E8025D96EDA6A010E3B
:10170000DA22DF500001666F89EC62F001017E4B46
:101710007F2B802B030E8065E0D7660E00016E6F75
:10172000010E6F6FB2EC6BF00101806B660E8025CD
:10173000D96EDA6A010EDA22DF507727000E78239D
:101740007EC164F07FC165F0660E8025D96EDA6ACD
:10175000010EDA22DF500001666F89EC62F00101B0
:101760007E4B7F2B802B070E8065E0D7660E000135
:101770006E6F010E6F6FBFEC6BF00101806B660E38
:101780008025D96EDA6A010EDA22DF507727000E43
:1017900078237EC164F07FC165F0660E8025D96E26
:1017A000DA6A010EDA22DF500001666F89EC62F01E
:1017B00001017E4B7F2B802B070E8065E0D7660EE4
:1017C00000016E6F010E6F6FA5EC6BF00101806B75
:1017D000660E8025D96EDA6A010EDA22DF5077278D
:1017E000000E78237EC164F07FC165F0660E80250F
:1017F000D96EDA6A010EDA22DF500001666F89ECD9
:1018000062F001017E4B7F2B802B0F0E8065E0D7AD
:10181000660E00016E6F010E6F6F8BEC6BF00101B5
:10182000806B660E8025D96EDA6A010EDA22DF50EF
:101830007727000E78237EC164F07FC165F0660EC5
:101840008025D96EDA6A010EDA22DF500001666F58
:1018500089EC62F001017E4B7F2B802B0F0E80659F
:10186000E0D7660E00016E6F010E6F6F98EC6BF0A3
:101870000101806B660E8025D96EDA6A010EDA22CC
:10188000DF507727000E78237EC164F07FC165F0BA
:10189000660E8025D96EDA6A010EDA22DF50000169
:1018A000666F89EC62F001017E4B7F2B802B0F0E5F
:1018B0008065E0D721EC6DF064C079F165C07AF104
:1018C00066C07BF167C07CF1806B790E8025D96E94
:1018D000DA6A010EDA22DF507727000E78237EC104
:1018E00064F07FC165F0790E8025D96EDA6A010E49
:1018F000DA22DF500001666F89EC62F001017E4B55
:101900007F2B802B030E8065E0D7766B470E7665C4
:1019100001D02AD07651AEEC68F001017D6F7D5187
:101920007727000E78237EC164F07FC165F07DC10A
:1019300066F089EC62F001017E4B7F2B76519AECC8
:1019400068F001017D6F7D517727000E78237EC1FD
:1019500064F07FC165F07DC166F089EC62F0010141
:101960007E4B7F2B762BD2D7A6EC6EF001017D6FDC
:101970007D517727000E78237EC164F07FC165F02A
:101980007DC166F089EC62F001017E4B7F2B5DEC3E
:101990006EF001017D6F7D517727000E78237EC1A7
:1019A00064F07FC165F07DC166F089EC62F00101F1
:1019B0007E4B7F2B772904E1782902E1776B786BE6
:1019C0007EC164F07FC165F077C166F089EC62F09A
:1019D00001017E4B7F2B7EC164F07FC165F078C131
:1019E00066F089EC62F001017E4B7F2B000120EE56
:1019F00006F0EF51D926F051DA22D5C1DEFFD6C16B
:101A0000DEFFDD6A1200D8D10001A269A369A469D2
:101A1000A569E0D100A598D0A751A8EC62F090513B
:101A200007E11F0E8D5DAC0E8E59DF0E8F5946E318
:101A30000201A751A8EC62F00D0E05D0D8909033AA
:101A40008F338E338D33E82EF9D77D0E8D03F3CF90
:101A50009AF0F4CF9BF09C6B9D6B8E03F3509B2709
:101A6000F4509C23000E9D238D03F3509B27F450CC
:101A70009C23000E9D237D0E8F03F3509C27F45072
:101A80009D23000E8E03F3509C27F4509D23000EDF
:101A90008D03F3509C27F4509D237D0E9003F3504B
:101AA0009D27000E8F03F3509D27000E8E03F350E9
:101AB0009D27000E8D03F3509D27A7D00201A7514B
:101AC000A8EC62F07D0E8D03F3CF9AF0F4CF9BF07B
:101AD0009C6B9D6B8E03F3509B27F4509C23000E50
:101AE0009D238D03F3509B27F4509C23000E9D23D0
:101AF0007D0E8F03F3509C27F4509D23000E8E0320
:101B0000F3509C27F4509D23000E8D03F3509C2727
:101B1000F4509D237D0E9003F3509D27000E8F03FC
:101B2000F3509D27000E8E03F3509D27000E8D036A
:101B3000F3509D270D0E05D0D8909D339C339B33D9
:101B40009A33E82EF9D761D002A144D1A951A8EC6B
:101B500062F0905107E11F0E8D5DAC0E8E59DF0EC5
:101B60008F590EE30201A951A8EC62F00D0E05D0C9
:101B7000D89090338F338E338D33E82EF9D765D7D5
:101B80000201A951A8EC62F07D0E8D03F3CF9AF00B
:101B9000F4CF9BF09C6B9D6B8E03F3509B27F4500E
:101BA0009C23000E9D238D03F3509B27F4509C2310
:101BB000000E9D237D0E8F03F3509C27F4509D2330
:101BC000000E8E03F3509C27F4509D23000E8D03CE
:101BD000F3509C27F4509D237D0E9003F3509D27D6
:101BE000000E8F03F3509D27000E8E03F3509D27A8
:101BF000000E8D03F3509D270D0E05D0D8909D3318
:101C00009C339B339A33E82EF9D79AC0A2F09BC03D
:101C1000A3F09CC0A4F09DC0A5F0DCD000A504D02A
:101C2000A851A8EC62F005D002A10BD0AA51A8ECF3
:101C300062F08DC0A2F08EC0A3F08FC0A4F090C05F
:101C4000A5F00001A55107E11F0EA25DAC0EA3593E
:101C5000DF0EA4594AE3A2C09AF0A3C09BF0A4C02F
:101C60009CF0A5C09DF00D0E05D0D8909D339C33FF
:101C70009B339A33E82EF9D77D0E9A03F3CF9EF06B
:101C8000F4CF9FF0A06BA16B9B03F3509F27F45000
:101C9000A023000EA1239A03F3509F27F450A02302
:101CA000000EA1237D0E9C03F350A027F450A12326
:101CB000000E9B03F350A027F450A123000E9A03BB
:101CC000F350A027F450A1237D0E9D03F350A127CC
:101CD000000E9C03F350A127000E9B03F350A12795
:101CE000000E9A03F350A12749D0A2C09AF0A3C0D6
:101CF0009BF0A4C09CF0A5C09DF07D0E9A03F3CF8D
:101D00009EF0F4CF9FF0A06BA16B9B03F3509F2735
:101D1000F450A023000EA1239A03F3509F27F45000
:101D2000A023000EA1237D0E9C03F350A027F450A6
:101D3000A123000E9B03F350A027F450A123000E13
:101D40009A03F350A027F450A1237D0E9D03F35076
:101D5000A127000E9C03F350A127000E9B03F35014
:101D6000A127000E9A03F350A1270D0E05D0D8909D
:101D7000A133A0339F339E33E82EF9D79EC0A2F043
:101D80009FC0A3F0A0C0A4F0A1C0A5F023D0AD5186
:101D9000A8EC62F08DC0A2F08EC0A3F08FC0A4F0BA
:101DA00090C0A5F0A55101E14FD755D70001A26B16
:101DB000A36BA46BA56B0ED002010231070B01E1EE
:101DC00023D6020A01E126D6060A01E127D7020A34
:101DD000DEE0ECD70001A551A411A31103E1C80E68
:101DE000A25D09E3CE0EA227FF0EA323A423A52301
:101DF0000201028F06D0A26BA36BA46BA56B02013C
:101E0000029FA2C096F0A3C097F0A4C098F0A5C00E
:101E100099F01200070E7C6F7D6B70C0D9FF71C006
:101E2000DAFFDF500F0B766F70C0D9FF71C0DAFF99
:101E3000DF50726F72390F0B776F704B712B70C060
:101E4000D9FF71C0DAFFDECF7AF0DDCF7BF07AC048
:101E500078F07BC079F0020E7027000E712370C0FD
:101E60007EF071C07FF0704B712B020102AB9FD1ED
:101E70007AC064F07BC065F07EC0D9FF7FC0DAFF16
:101E80000001DF38070BD9EC6BF0000901E009D144
:101E900002016C51020D6E0EF324D96E020EF42075
:101EA000DA6EDF80A4D07EC0D9FF7FC0DAFFDF38D2
:101EB000070B726F7239F00B756F7551100F736FDE
:101EC00075C080F042D08051020D010EF324D96E0E
:101ED000050EF420DA6EDF500F0B0001726F7C519B
:101EE000725D11E278B103D0785179110CE1805123
:101EF000020D010EF324D96E050EF420DA6EDF50C8
:101F00000F0B00017C6F8051020D010EF324D96E7E
:101F1000050EF420DA6EDF380F0B00017D6111D061
:101F200078B103D0785179110CE18051020D010E86
:101F3000F324D96E050EF420DA6EDF380F0B0001A2
:101F40007D6FD89079337833802B7351805D67E251
:101F5000BAD7040E7C6F7D6F7A517B1160E102016C
:101F60006C51020D6E0EF324D96E020EF420DA6E5F
:101F7000DF9055D0806B8051020D010EF324D96E95
:101F8000050EF420DA6EDF500F0B0001726F7C51EA
:101F9000725D0BE28051020D010EF324D96E050E25
:101FA000F420DA6EDF500F0B7C6F8051020D010EB2
:101FB000F324D96E050EF420DA6EDF380F0B000122
:101FC0007D610BD08051020D010EF324D96E050EF8
:101FD000F420DA6EDF380F0B7D6F802B3F0E8065AB
:101FE000CAD77A517B111BE0040E7D6F18D07EC0DA
:101FF000D9FF7FC0DAFF0001DF38070B01E153D7BB
:10200000010A01E150D7030A01E14DD7010A01E1BC
:102010004AD7070A9EE0020AADE0010A9AE00001F1
:10202000806B8051020D000EF324D96E050EF42052
:10203000DA6EDE0432E18051020D010EF324D96E16
:10204000050EF420DA6EDF500F0B0001726F7C5129
:10205000725D0BE28051020D010EF324D96E050E64
:10206000F420DA6EDF500F0B7C6F8051020D010EF1
:10207000F324D96E050EF420DA6EDF380F0B000161
:102080007D610BD08051020D010EF324D96E050E37
:10209000F420DA6EDF380F0B7D6F802B460E8065E3
:1020A000C0D77751C6EC6CF0000914E17C51775D24
:1020B00011E377517D5D0EE302016C51020D6E0E4E
:1020C000F324D96E020EF420DA6EDF82000177511C
:1020D00069EC6EF00B0E000176611AD0060E7619CF
:1020E00017E002016C51020D6E0EF324D96E020E40
:1020F000F420DA6EDF84050E0001766102D0746F81
:1021000002D076C074F0745165EC6EF00201038762
:1021100002016C51020D6E0EF324D96E020EF420F2
:10212000DA6EDFA00ED07AC06BF07BC06CF07EC0A0
:10213000D9FF7FC0DAFF0001DF38070B6D6F69EC54
:1021400053F002016C51020D6E0EF324D96E020E93
:10215000F420DA6EDFB414D06C51020D6E0EF3244D
:10216000D96E020EF420DA6EDFB20AD06C51020D85
:102170006E0EF324D96E020EF420DA6EDFA032D098
:102180007EC0D9FF7FC0DAFF0001DF500F0B03E1F3
:1021900002019B6B0AD07EC0D9FF7FC0DAFFDF50FF
:1021A0000F0B726F720502019B6F03891BD06C517C
:1021B000020D6E0EF324D96E020EF420DA6EDF905B
:1021C0006C51020D6E0EF324D96E020EF420DA6EFD
:1021D000DF926C51020D6E0EF324D96E020EF420C4
:1021E000DA6EDF9470C070F071C071F01200EFC051
:1021F000D9FFF0C0DAFFDECF66F1DDCF67F1000175
:1022000020EE02F0EF51D926F051DA22DECF68F14C
:10221000DDCF69F1010E01016A6F6B6966C195F04E
:1022200067C196F0BDEC3DF001016B6F6BBF93D1C0
:102230006C6B070E6C6501D08ED16C51020D810E56
:10224000F324D96E030EF420DA6EDECF64F0DDCF16
:1022500065F068C166F069C167F077EC37F06451EA
:10226000651101E075D1D10E01016B25F66EF76A9B
:10227000F70EF722F86A000EF8220800F5CFF1F009
:102280006CC1F2F0010E0001F36FF22B02D0D89076
:10229000F337F22FFCD70001F351F11501E158D1CA
:1022A00001016A6B26D10F013891929051D10F0133
:1022B000389192804DD192800F01388149D16C5173
:1022C000F2E0010AF4E0030AF6E0ECD00F013893E3
:1022D00092923ED10F01389392823AD192820F01AD
:1022E000388336D16C51F2E0010AF4E0030AF6E0DB
:1022F000D9D00F01389592942BD10F013895928443
:1023000027D192840F01388523D16C51F2E0010A64
:10231000F4E0030AF6E0C6D00F013897929618D180
:102320000F013897928614D192860F01388710D109
:102330006C51F2E0010AF4E0030AF6E0B3D092989F
:1023400007D1928805D16C51FAE0010AFAE0CFD0AA
:102350000F01389B929AFCD00F01389B928AF8D0DB
:10236000928A0F01388BF4D06C51F2E0010AF4E04C
:10237000030AF6E097D00F013C919690E9D00F0147
:102380003C919680E5D096800F013C81E1D06C5164
:10239000F2E0010AF4E0030AF6E084D00F013C9376
:1023A0009692D6D00F013C939682D2D096820F019E
:1023B0003C83CED06C51F2E0010AF4E0030AF6E06F
:1023C00071D00F013B959594C3D00F013B95958437
:1023D000BFD095840F013B85BBD06C51F2E0010A60
:1023E000F4E0030AF6E05ED00F013C959694B0D07D
:1023F0000F013C959684ACD096840F013C85A8D003
:102400006C51F2E0010AF4E0030AF6E04BD00F0150
:102410003A9B949A9DD00F013A9B948A99D0948AC2
:102420000F013A8B95D06C51F2E0010AF4E0030AF7
:10243000F6E038D00F013B9B959A8AD00F013B9B69
:10244000958A86D0958A0F013B8B82D06C51F2E041
:10245000010AF4E0030AF6E025D00F013B9F959EA8
:1024600077D00F013B9F958E73D0958E0F013B8FD8
:102470006FD06C51F2E0010AF4E0030AF6E012D0EA
:102480000F013B9D959C64D00F013B9D958C60D0C6
:10249000958C0F013B8D5CD06C51F2E0010AF4E0A9
:1024A000030AF6E0010A54D0929E52D0928E50D088
:1024B0006C51FAE0010AFAE01AD0929C49D0928C51
:1024C00047D06C51FAE0010AFAE011D0939E40D057
:1024D000938E3ED06C51FAE0010AFAE008D0939C4A
:1024E00037D0938C35D06C51FAE0010AFAE0020A39
:1024F0002FD06B5101E1E3D6010A01E1F3D6030AC3
:1025000001E103D7010A01E113D7070A01E11BD753
:10251000010A01E129D7030A01E139D7010A01E1E2
:1025200049D70F0A01E159D7010A01E169D7030A26
:1025300001E179D7010A8AE0070A9BE0010AACE0D1
:10254000030AB6E0010ABDE01F0AC4E0010ACBE0BD
:1025500001016C2B6ED66A51020DF10EF324D96E77
:10256000010EF420DA6EDECFF1F0DDCFF2F00001E3
:1025700020EE06F0EF51D926F051DA22F1C0DEFF4D
:10258000F2C0DEFFDD6A120000017F6F7D6B7E6BA3
:10259000080E7F194BE127EED4F0DE50DE10D8B4E0
:1025A000120027EED4F0DECF74F0DDCF75F08F0E81
:1025B0007425D96E050E7521DA6EDF502CE1D3C774
:1025C000E8FFFF0FE8CFD3F727EED3F0DF50020D7F
:1025D000B60EF324D96E070EF420DA6EDECFD6F7EE
:1025E000DDCFD7F727EED3F0DF50020DB60EF32480
:1025F000D96E070EF420DA6EDE6ADD6A27EED3F0BC
:10260000DF50020DC40EF324D96E070EF420DA6EEB
:10261000DE6ADD6A05D027EED6F0DE06000EDD5A52
:1026200027EED4F0DE06000EDD5A000C27EED4F0C3
:10263000250EDE5C020EDE5859E2200E7F1958E1AD
:1026400027EED3F0060EDF6051D027EED4F0DECFB8
:1026500074F0DDCF75F0900E7425D96E050E7521DE
:10266000DA6E000EDF6A27EED4F0DE2ADD2227EED6
:10267000D6F017EED3F0E750020DB60EF324E16E5C
:10268000070EF420E26EDECFE6FFDDCFE5FF7469D2
:10269000756927EED6F0DECF76F0DDCF77F027EE46
:1026A000D4F0DECF78F0DDCF79F07651785F7751D6
:1026B000795B745178277551792327EED3F0DF5079
:1026C000020DC40EF324D96E070EF420DA6E78C022
:1026D000DEFF79C0DDFFD3C7E8FF010FE8CFD3F7F6
:1026E000000EE8CFD6F7E8CFD7F7D8D07D69D6D09F
:1026F00027EED4F0DECF74F0DDCF75F0900E7425A8
:10270000D96E050E7521DA6E7FC0DFFF27EED4F09B
:10271000DE2A000EDD2227EED6F0DE2ADD22E40ED0
:10272000646FFF0E656F6411D8A4000E666F2AEC0B
:102730005EF027EED4F06451DE5C6551DE584AE36A
:10274000010E7E6FE40E646FFF0E656F6411D8A4F6
:10275000000E666F2AEC5EF06451806F37D027EE72
:10276000D4F0DECF74F0DDCF75F0900E766F050EED
:10277000776F8051765F000E775B74517625D96E46
:1027800075517721DA6EDF50786FE40E646FFF0EBB
:10279000656F6411D8A4000E666F2AEC5EF0E40E3B
:1027A000796FFF0E7A6F6451792765517A238051D2
:1027B000795F000E7A5B79C0F6FF7AC0F7FFF86A9E
:1027C0000800F550781901E07E6B8007805102E027
:1027D0007E51C5E17E5162E027EED4F0DECF74F089
:1027E000DDCF75F0E40E646FFF0E656F6411D8A441
:1027F000000E666F2AEC5EF0900E766F050E776F16
:102800006451765F6551775B74517625D96E755149
:102810007721DA6EDF6AE40E646FFF0E656F641174
:10282000D8A4000E666F2AEC5EF027EED6F0DECF5D
:1028300074F0DDCF75F06451745F6551755B27EE00
:10284000D3F0DF50020DB60EF324D96E070EF4203C
:10285000DA6E74C0DEFF75C0DDFF27EED6F0DECF86
:1028600074F0DDCF75F027EED4F0DECF76F0DDCF5B
:1028700077F07451765F7551775B27EED3F0DF50B8
:10288000020DC40EF324D96E070EF420DA6E76C062
:10289000DEFF77C0DDFF010EE8CFD2F77D29D8A497
:1028A0001200E4EC5FF099C364F09AC365F06451E0
:1028B0006511D8A4000E666F2AEC5EF064C07BF050
:1028C00065C07CF099C36AF09AC36BF06A516B11D2
:1028D000D8A4000E6C6F7BC06DF07CC06EF0E0EF92
:1028E0004CF0E16F100E0001E56FE36BE20E646FD8
:1028F000656B676B666B696B010E686FF2EC67F076
:10290000EA0E646F090E656F676B666B010E696F87
:102910000F0E686FF2EC67F0B30E646F030E656F15
:10292000676B666B696B100E686FF2EC67F0E10520
:1029300007E1E2511F0B8009E26F0201008104D020
:10294000E2511F0B4009E26FFC0E0001E217E30E9B
:10295000E217EA0EE525D96EDA6A090EDA22E2C03C
:10296000DFFFE52BEA0EE525646F656B090E652335
:10297000190E666F020E676F696B040E686FF1ECDB
:102980005BF0040EE527E46B020102AB30D00001DE
:10299000E48F0201A451B05D29E20001E48D02013F
:1029A0000089954B962B69519519961102E1B36BED
:1029B0001AD069510001DF6FE06B020195510001EF
:1029C000DF5D020196510001E0590EE20201B32BD6
:1029D0006A51B35D0CE3B36BF7EC47F0000907E114
:1029E0000201956B966B0001E49D020100990201C2
:1029F00000A304D00001E48B020100930001E499DC
:102A000002016C5104E00001DD51DE111CE1F00E09
:102A10000001E4170101CA510BE00001E4510F0B62
:102A2000DF6F020EDF27E451DF19F00BDF19E46FCF
:102A30000101CB510FE00001E4510F0BDF6FDF2BE1
:102A4000E451DF1904D0C7EC41F0DF6FE419F00B5B
:102A5000DF19E46FEA0E0001E525D96EDA6A090E86
:102A6000DA22E4C0DFFFE52BEA0EE525646F656B33
:102A7000090E6523060E666F020E676F696B020E04
:102A8000686FF1EC5BF0020EE52702016C510FE07C
:102A90000001DD51DE110BE0EA0E646F090E656F77
:102AA000E50E666F010E676FABEC17F01BD00201ED
:102AB0006C5118E10101CA5109E0EA0E0001646F8E
:102AC000090E656FE50E666F2FEC64F00101CB51C6
:102AD00009E0EA0E0001646F090E656FE50E666F8E
:102AE000C2EC68F0EA0E0001E525D96EDA6A090E3B
:102AF000DA22DAC0DFFFE52BDD51DE112DE0EA0E30
:102B0000E525646F656B090E6523DBC066F0DCC0EC
:102B100067F0DDC068F0DEC069F0F1EC5BF0DBC0AF
:102B2000A4F0DCC0A5F0DDC0A6F0A76B06C2A8F03B
:102B300007C2A9F008C2AAF009C2ABF02D0EAC6F13
:102B4000020EAD6FE5C0AEF0EA0EAF6F090EB06FCA
:102B5000B0EC2EF0DD5129D002016C5127E0F90EC6
:102B60000001646F0A0E656FE30E666F676BABEC76
:102B700017F0F90EA46F0A0EA56FE3C0A6F0A76BBD
:102B800006C2A8F007C2A9F008C2AAF009C2ABF0B9
:102B90001D0EAC6F020EAD6FE5C0AEF0EA0EAF6F6A
:102BA000090EB06FB0EC2EF0E351E52706C26EF0CF
:102BB00007C26FF008C270F009C271F00001E55160
:102BC000F00F726F490E736F000E8EEC4EF0EA0E2E
:102BD000646F090E656FB30E666F030E676F696BE6
:102BE000100E686FF1EC5BF01D0ECC6F020ECD6F16
:102BF000B30ECE6F030ECF6FEA0ED06F090ED16FFA
:102C0000E5C0D2F01DEC16F0EA0EE525646F656BA9
:102C1000090E6523B30E666F030E676F696B040EB2
:102C2000686FF1EC5BF0040EE527F00EE52502017C
:102C3000996F9A6BFF0E9A23FF0C0101656B646B11
:102C4000626B606B616BCCC0A4F0CDC0A5F0100EC0
:102C50000001A66F010EA76F000EA86F010EA96FED
:102C60007AEC35F0D251D36FD46B0F0ED327000E10
:102C7000D423040ED56FD435D433D333D52FFBD71B
:102C8000D3510101636F635104E1010E636F626B05
:102C90000AD0D2C0D3F00F0E0001D317010ED8A472
:102CA000000E0101626F620541E1646B6351100D1A
:102CB000F350F00F656F1ED0200E01016425D96E10
:102CC000DA6A010EDA22100E6425E16EE26A010E64
:102CD000E222E7500001D36F010165510001D025C8
:102CE000E16E000ED121E26EE750D319DF6E0101D3
:102CF000642B652B63510001D36FD46BD33BD43B62
:102D0000F00ED417D3510F0BD413F00ED3170101CB
:102D100065510001D56FD66BD351D55DD651800A70
:102D2000D76FD451800AD75963E2C6D70001D25178
:102D3000D025D36F000ED121D46FD2510F0BD35DAC
:102D40000101606F0001D451D8A0D4050101616F69
:102D5000656B0001D2510F0B010165610FD0655108
:102D60006025D96E000E6121DA6E300E6525E16EA8
:102D7000E26A010EE222DFCFE7FF16D00001D25156
:102D80000F0B0101651909E1300E6525D96EDA6A6C
:102D9000010EDA22800EDF6E07D0300E6525D96E67
:102DA000DA6A010EDA22DF6A652B0F0E6565D1D76C
:102DB000656B200E6525D96EDA6A010EDA22000EE7
:102DC0006525E16EE26A010EE222E7500001D36F51
:102DD000300E01016525E16EE26A010EE222E75044
:102DE0000001D319DF6E0101652B0F0E6565E1D778
:102DF000500E0001646F010E656F676B666B696B47
:102E0000100E686FF2EC67F00101656B51D00101A3
:102E1000646B400E6425D96EDA6A010EDA226551C0
:102E20000001D36FD46BD33BD43BF00ED417D351F6
:102E30000F0BD413F00ED317D0C0D5F0D1C0D6F0FD
:102E4000D351D527D451D623010164510001D52592
:102E5000E16E000ED621E26EE750D76F500E0101F1
:102E60006425E16EE26A010EE222E7500001D71903
:102E7000DF6E0101642B0F0E6465CBD7500E00018D
:102E8000646F010E656F400E666F010E676F696BB0
:102E9000100E686FF1EC5BF0500E906F010E916FA9
:102EA000CCC092F0CDC093F0D6EC68F00101652B58
:102EB0000001D369D469010163510001D56FD66B5C
:102EC000D351D527D451D623010165510001D76FC5
:102ED000D86BD551D75DD851800AD96FD651800AA9
:102EE000D95995E30101656B400E6525D96EDA6A03
:102EF000010EDA22200E6525E16EE26A010EE22261
:102F0000E7500001D36F500E01016525E16EE26AC2
:102F1000010EE222E7500001D319DF6E0101652B9B
:102F20000F0E6565E1D7400E0001906F010E916FA5
:102F3000CCC092F0CDC093F0D6EC68F0CEC064F077
:102F4000CFC065F0400E666F010E676F696B100EA3
:102F5000686FF1EF5BF06651D96EDA6ADF506F6F20
:102F60006E6B79D1675101E15BD16E51020D6D0E2F
:102F7000F324D96E020EF420DA6EDE2801E150D17E
:102F8000FE0E686F69696E51020D6D0EF324D96EE5
:102F9000020EF420DA6EDF506A6F6B6B68516A279D
:102FA00069516B23260E6A25F66EF80E6B21F76EBB
:102FB000F86A000EF8220800F5506FC06CF06D6BD7
:102FC0006C27000E6D236651D96EDA6ADF506C5F94
:102FD000000E6D5B6DBF24D16D5105E1100E6C5D6F
:102FE00001E33FD11DD13DD16F516425D96E000E53
:102FF0006521DA6E030EDF6E6F2B6F516425D96E7B
:10300000000E6521DA6EDF6A6E51020D6E0EF3243A
:10301000D96E020EF420DA6EDFA009D000016F51E4
:103020006425D96E000E6521DA6E000EDB8000018A
:103030006E51020D6E0EF324D96E020EF420DA6E7C
:10304000DFA208D06F516425D96E000E6521DA6EBB
:10305000000EDB8200016E51020D6E0EF324D96E5C
:10306000020EF420DA6EDFA408D06F516425D96E09
:10307000000E6521DA6E000EDB8400016F2BEAD0B2
:103080006F516425D96E000E6521DA6E050EDF6E74
:103090006F2B6F516425D96E000E6521DA6EDF6AE1
:1030A0006E51020D6E0EF324D96E020EF420DA6E0C
:1030B000DFA609D000016F516425D96E000E65218D
:1030C000DA6E000EDB8000016E51020D6E0EF324ED
:1030D000D96E020EF420DA6EDFA808D06F51642595
:1030E000D96E000E6521DA6E000EDB8200016E5192
:1030F000020D6E0EF324D96E020EF420DA6EDFAAF2
:1031000008D06F516425D96E000E6521DA6E000E6D
:10311000DB8400016F516425D96E000E6521DA6EE3
:10312000DF50516EAAD76F516425D96E000E65210C
:10313000DA6E060EDF6E6F2B6F516425D96E000EAE
:103140006521DA6EA5C2DFFF6F2BAFEC6EF0800A4F
:10315000A00F05E3AFEC6EF0800A600F09E30001F9
:103160006F516425D96E000E6521DA6E200E0AD0EB
:1031700000016F516425D96E000E6521DA6EAFEC47
:103180006EF03F0BDF6E79D76F516425D96E000E5C
:103190006521DA6E070EDF6E6F2B6F516425D96ED5
:1031A000000E6521DA6EDF6A6E51020D6E0EF32499
:1031B000D96E020EF420DA6EDFAE09D000016F5135
:1031C0006425D96E000E6521DA6E000EDB800001E9
:1031D0006E51020D6E0EF324D96E020EF420DA6EDB
:1031E000DFAC4BD76F516425D96E000E6521DA6EC6
:1031F000000EDB8242D70201A269A36B00016E516F
:10320000020D6D0EF324D96E020EF420DA6E6F51AA
:103210006425E16E000E6521E26EDFCFE7FF2DD75A
:103220006E51020D6D0EF324D96E020EF420DA6E8B
:10323000DF50020AE0E0010A01E1D6D6070ADEE02B
:10324000010A01E11DD7030A01E16DD7010A9CE0E3
:103250000F0AD4E06E2B02016C5100016E5D01E299
:1032600081D66651D96EDA6A6FC0DFFF120074D161
:10327000965101E197D0D80E646F070E656F5BC35E
:1032800066F05CC367F0BAEC66F0D80E646F070EA8
:10329000656F6411D8A4200E666F2AEC5EF064C0DE
:1032A000A4F065C0A5F0D80EA425806F070EA52157
:1032B000816F94C0D9FF95C0DAFFDF50826F836BB6
:1032C000856B0A0E846FD8EC64F0D80E646F070E1D
:1032D000656F6411D8A4200E666F2AEC5EF064C09E
:1032E000A4F065C0A5F0D80EA425D96E070EA521BF
:1032F000DA6E200EDF6EA44BA52B98699969965162
:103300009A6F9B6B98519A2799519B23120E9C6F31
:10331000020E9D6FA4519C5FA5519D5BD8909D317D
:103320009F6F9C319E6F9A519E5D9B519F5910E2F9
:10333000120E986F020E996FA451985FA551995B78
:10334000D89099319A6F9831A06F9AC0A1F006D0A9
:10335000FF0E9625A06FA16BFF0EA1239429886F05
:10336000000E9521896FD80EA4258A6F070EA5211E
:103370008B6FA05164EC3FF0D80E646F070E656F41
:103380006411D8A4200E666F2AEC5EF064C0A2F02F
:1033900065C0A3F0D80E6A6F070E6B6F6A11D8A4D0
:1033A000200E14D057C364F058C365F06451651102
:1033B000D8A4000E666F2AEC5EF064C0A2F065C06F
:1033C000A3F057C36AF058C36BF0C1D06C6FA2C0B2
:1033D0006DF0A3C06EF0E0EF4CF0965155E0D80EC2
:1033E000646F070E656F59C366F05AC367F0BAEC95
:1033F00066F0D80E646F070E656F6411D8A4200EB6
:10340000666F2AEC5EF064C0A4F065C0A5F0D80E2B
:10341000A425D96E070EA521DA6E200EDF6EA44B0F
:10342000A52B120E986F020E996FA451985FA551AB
:10343000995BD89099319B6F98319A6F96519A5DAC
:10344000000E9B5910E2120E986F020E996FA45154
:10345000985FA551995BD89099319A6F9831A06F78
:103460009AC0A1F003D096C0A0F0A16B94C088F0E0
:1034700095C089F0D80EA4258A6F070EA5218B6F01
:10348000A05164EC3FF078D755C364F056C365F0A3
:1034900064516511D8A4000E666F2AEC5EF064C01A
:1034A000A2F065C0A3F055C36AF056C36BF04FD0CD
:1034B0005DC364F05EC365F064516511D8A4000E6D
:1034C000666F2AEC5EF064C0A2F065C0A3F05DC335
:1034D0006AF05EC36BF03BD05FC364F060C365F01D
:1034E00064516511D8A4000E666F2AEC5EF064C0CA
:1034F000A2F065C0A3F05FC36AF060C36BF027D091
:1035000061C364F062C365F064516511D8A4000E14
:10351000666F2AEC5EF064C0A2F065C0A3F061C3E0
:103520006AF062C36BF013D063C364F064C365F0E8
:1035300064516511D8A4000E666F2AEC5EF064C079
:10354000A2F065C0A3F063C36AF064C36BF06A5174
:103550006B11D8A4000E3AD700019751BDE0010AC3
:1035600001E186D6030AA4E0010A01E136D7070A81
:10357000C7E0010AD9E012008F6B6C518F25D96E1C
:10358000DA6A8F51750FE16EE26ADFCFE7FF8F2BAA
:103590000F0E8F65F2D70A0E476E010E466E8F6BC7
:1035A0008F51750FD96EDA6ADF506D6F8F516A25B2
:1035B000D96E000E6B21DA6E6D51DF1A8F2B0F0E54
:1035C0008F65EED78F6B8F516A25D96E000E6B21F8
:1035D000DA6EDF506D6F6E6BD10E6D25F66EF60EE6
:1035E0006E21F76EF86A000EF8228F516A25D96EA7
:1035F000000E6B21DA6E0800F5CFDFFF8F2B0F0E68
:103600008F65E1D76AC064F06BC065F059EC2BF0B0
:10361000470401E111D18F6B8F516A256D6F000E48
:103620006B216E6F6D29D96E000E6E21DA6EDF5040
:103630006F6F8F516A25D96E000E6B21DA6EDF50E5
:103640006F198D6F8F516A256D6F000E6B216E6F34
:10365000030E6D25D96E000E6E21DA6EDF506F6F8E
:103660008F516A25706F000E6B21716F020E7025ED
:10367000D96E000E7121DA6EDF506F198E6F8D19C1
:103680008B6F8F516A256D6F000E6B216E6F6D29E8
:10369000D96E000E6E21DA6EDF506F6F8F516A2582
:1036A000706F000E6B21716F020E7025D96E000EC7
:1036B0007121DA6EDF506F198C6F7F0E8D650CD023
:1036C0001B0E8DC06DF06E6BD8906D376E376D1917
:1036D000856F6E51866F05D0D8908D35856F866B5E
:1036E000863785C08DF07F0E8C650CD01B0E8CC08C
:1036F0006DF06E6BD8906D376E376D19876F6E51A8
:10370000886F05D0D8908C35876F886B883787C0D5
:103710008CF07F0E8E650CD01B0E8EC06DF06E6B24
:10372000D8906D376E376D19896F6E518A6F05D0DD
:10373000D8908E35896F8A6B8A3789C08EF08F5109
:103740006A25D96E000E6B21DA6E8F516A25E16E03
:10375000000E6B21E26EE7508B198D19DF6E8F51D1
:103760006A256D6F000E6B216E6F6D29D96E000E8C
:103770006E21DA6E8F516A256F6F000E6B21706FAC
:103780006F29E16E000E7021E26EE7508B198C19E3
:10379000DF6E8F516A256D6F000E6B216E6F020E0A
:1037A0006D25D96E000E6E21DA6E8F516A256F6F0E
:1037B000000E6B21706F020E6F25E16E000E7021FE
:1037C000E26EE7508B198E19DF6E8F516A256D6F8F
:1037D000000E6B216E6F030E6D25D96E000E6E21EB
:1037E000DA6E8F516A256F6F000E6B21706F020EBB
:1037F0006F25E16E000E7021E26EE750716F8F5100
:103800006A25726F000E6B21736F7229E16E000ED4
:103810007321E26EE750746F8F516A25E16E000EDE
:103820006B21E26EE750741971198B19DF6E040E6B
:103830008F270F0E8F65F0D6750E646FCEEC1EF0DD
:103840008F6B8F51750FD96EDA6ADF506D6F8F51A4
:103850006A25D96E000E6B21DA6E6D51DF1A8F2B3F
:103860000F0E8F65EED74706475001E0ABD612002A
:103870008F6B91C3A2F192C3A3F1A251A311D8A45B
:10388000000EA46F926B39D09251090DF35081252F
:10389000886FF4508221896F000E83218A6F88C15E
:1038A000F6FF89C1F7FF8AC1F8FF21EE93F0080EF9
:1038B0000900F5CFDEFFE806FBE293C164F094C196
:1038C00065F08551020DC40EF324D96E070EF42065
:1038D000DA6EDECF88F1DDCF89F1900E8825000108
:1038E000666F050E010189210001676F77EC37F0E3
:1038F0006451651105E00101922B8451925DC4E38E
:1039000001018451925D01E3F3D095519611971115
:1039100001E0E3D09851991101E1EAD09B51886F01
:10392000896B8551D3C78AF18AC18BF18C6B8B5F10
:10393000000E8C5B88518B1903E189518C19D8A436
:10394000D7D08529916F906B9B5114E0912B9105F5
:10395000020DB60EF324D96E070EF420DA6EDE5097
:10396000DE1003E1010E906F05D027EED3F09151E8
:10397000DE5CECE2905101E0BBD09C0E0001646F74
:10398000010E656F676B666B696B090E686FF2EC11
:1039900067F001018551886F896B882B000E8923A0
:1039A000895128E1070E885D25E28551886F896B72
:1039B000D89088378937B80E8825D96E070E8921A7
:1039C000DA6EDE50DE1016E08551886F896BD89074
:1039D00088378937C60E8825D96E070E8921DA6E99
:1039E000DECF8AF1DDCF8BF1900E8A259C6F050E1C
:1039F0008B219D6F8551886F896B020E8827000E81
:103A00008923895128E1070E885D25E28551886F59
:103A1000896BD89088378937BA0E8825D96E070EFA
:103A20008921DA6EDE50DE1016E08551886F896BD1
:103A3000D89088378937C80E8825D96E070E892116
:103A4000DA6EDECF8AF1DDCF8BF1900E8A259E6F84
:103A5000050E8B219F6F8551886F896B030E882718
:103A6000000E8923895128E1070E885D25E28551E2
:103A7000886F896BD89088378937BC0E8825D96EB6
:103A8000070E8921DA6EDE50DE1016E08551886F50
:103A9000896BD89088378937CA0E8825D96E070E6A
:103AA0008921DA6EDECF8AF1DDCF8BF1900E8A2587
:103AB000A06F050E8B21A16F9C0E0001EF6F010E10
:103AC000F06F01D815D00500FA6E01019851FD6E16
:103AD0009951FE6EFF6AFA501200010E8F6F86C177
:103AE000D9FF87C1DAFF92C1DFFFA26BA36BA46B82
:103AF0000101A251A311A41118E0A2C164F0A3C155
:103B000065F0A4C166F02AEC5EF064C08DF165C07A
:103B10008EF1A2C16AF0A3C16BF0A4C16CF08DC19B
:103B20006DF08EC16EF0E0EC4CF001018F5112008F
:103B3000020102BF09D1B66B0251F10B0409026FF9
:103B400000A581D0F10E1225F66EF76AF70EF72266
:103B5000F86A000EF8220800F5CFA8F061510001C4
:103B6000A825A96F000EA8BFFF0E02016221000167
:103B7000AA6FAB6BAC6B0C0ED890A937AA37AB37DA
:103B8000AC37E82EF9D7A9C064F0AAC065F0ABC085
:103B900066F0ACC067F07D0E686F696B6A6B6B6B2B
:103BA0005AEC54F064C071F065C072F066C073F0F6
:103BB00067C074F00201A7510AEC62F0F10E020135
:103BC0001725F66EF76AF70EF722F86A000EF8224C
:103BD0000800F5CFA8F063510001A825A96F000ED9
:103BE000A8BFFF0E020164210001AA6FAB6BAC6B92
:103BF0000C0ED890A937AA37AB37AC37E82EF9D7D7
:103C0000A9C064F0AAC065F0ABC066F0ACC067F0B4
:103C10007D0E686F696B6A6B6B6B5AEC54F064C015
:103C200071F065C072F066C073F067C074F0020195
:103C3000A8510AEC62F00201A75128EC50F00201F1
:103C4000A85128EF50F0F10E1225F66EF76AF70E24
:103C5000F722F86A000EF8220800F5CFA8F05D51AF
:103C60000001A825A96F000EA8BFFF0E02015E216A
:103C70000001AA6FAB6BAC6B0C0ED890A937AA37BA
:103C8000AB37AC37E82EF9D7A9C064F0AAC065F00D
:103C9000ABC066F0ACC067F07D0E686F696B6A6B95
:103CA0006B6B5AEC54F064C071F065C072F066C082
:103CB00073F067C074F00201A9510AEC62F0F10ED2
:103CC00002011725F66EF76AF70EF722F86A000E62
:103CD000F8220800F5CFA8F05F510001A825A96FD0
:103CE000000EA8BFFF0E020160210001AA6FAB6B9E
:103CF000AC6B0C0ED890A937AA37AB37AC37E82E8F
:103D0000F9D7A9C064F0AAC065F0ABC066F0ACC03A
:103D100067F07D0E686F696B6A6B6B6B5AEC54F0E1
:103D200064C071F065C072F066C073F067C074F073
:103D30000201AA510AEC62F00201A95128EC50F0EC
:103D40000201AA5128EF50F0B5EC6EF00001A86F07
:103D5000A8A90FD0946B956B966B020E976F050018
:103D6000FA6E0101B751FD6EB851FE6EFF6AFA504E
:103D700012000101B751B811D8B412000001946BC0
:103D8000956B966B030E976F0500FA6E0101B751A4
:103D9000FD6EB851FE6EFF6AFA5012006451D96E82
:103DA000DA6A0D0ED926DF50656F666BD10E652578
:103DB000F66EF60E6621F76EF86A000EF82208001D
:103DC000F5CF67F06451D96EDA6A6751DF1A645132
:103DD000D96EDA6A0E0ED926DF50656F666BD10E8A
:103DE0006525F66EF60E6621F76EF86A000EF8226B
:103DF0000800F5CF67F06451D96EDA6AD92A6751A5
:103E0000DF1A6451D96EDA6A0F0ED926DF50656F5A
:103E1000666BD10E6525F66EF60E6621F76EF86AB2
:103E2000000EF8220800F5CF67F06451D96EDA6A07
:103E3000020ED9266751DF1A6451D96EDA6A0C0E68
:103E4000D926DF50656F666BD10E6525F66EF60ECE
:103E50006621F76EF86A000EF8220800F5CF67F0C9
:103E60006451D96EDA6A030ED9266751DF1A64519C
:103E7000D96EDA6A4650DF1A7F0E46640CD01B0EEC
:103E800046C065F0666BD890653766376519686F10
:103E90006651696F05D0D8904634686F696B693791
:103EA00068C046F06451D96EDA6ADF50656F6451BC
:103EB000D96EDA6A040ED9266551DF1A6451D96EBB
:103EC000DA6AD92ADF50656F6451D96EDA6A050E55
:103ED000D9266551DF1A6451D96EDA6A020ED926E5
:103EE000DF50656F6451D96EDA6A060ED9266551C6
:103EF000DF1A6451D96EDA6A030ED926DF50656F76
:103F00006451D96EDA6A070ED9266551DF1A6451F9
:103F1000D96EDA6A040ED926DF50656F6451D96E06
:103F2000DA6A080ED9266551DF1A6451D96EDA6A49
:103F3000050ED926DF50656F6451D96EDA6A090E15
:103F4000D9266551DF1A6451D96EDA6A060ED92670
:103F5000DF50656F6451D96EDA6A0A0ED926655151
:103F6000DF1A6451D96EDA6A070ED926DF50656F01
:103F70006451D96EDA6A0B0ED9266551DF1A645185
:103F8000D96EDA6A080ED926DF50656F6451D96E92
:103F9000DA6A0C0ED9266551DF1A6451D96EDA6AD5
:103FA000090ED926DF50656F6451D96EDA6A0D0E9D
:103FB000D9266551DF1A6451D96EDA6A0A0ED926FC
:103FC000DF50656F6451D96EDA6A0E0ED9266551DD
:103FD000DF1A6451D96EDA6A0B0ED926DF50656F8D
:103FE0006451D96EDA6A0F0ED9266551DF1A1200B4
:103FF0000201DFA506D0800E0001976F030E966FB9
:10400000030CDFC298F0030E0001981705E0800E44
:10401000976F040E966F040C8A869651971107E1EC
:10402000000E7E6F040E7D6F6BEC06F006D096C01E
:104030007DF097C07EF06BEC06F00201D40511E133
:10404000010E0001666F220EE0EC6AF00001666B63
:10405000400EE0EC6AF00001666B410EE0EC6AF0A5
:1040600014D0F0C266F0120EE0EC6AF0F1C266F015
:10407000130EE0EC6AF00001666B400EE0EC6AF0B3
:104080000001666B410EE0EC6AF00201DF83E70E8F
:10409000DF1700019651971108E1D4C269F0000EB4
:1040A0006A6F050EE6EC3CF041D00201D40509E14F
:1040B000010E0001696F000E6A6F060EE6EC3CF01F
:1040C00035D0000E0001696F6A6F050EE6EC3CF01A
:1040D00000019651986F9751996F9A6B9B6B0C0EDC
:1040E000D890983799379A379B37E82EF9D798C0E8
:1040F00064F099C065F09AC066F09BC067F07D0ED1
:10410000686F696B6A6B6B6B5AEC54F064C071F04A
:1041100065C072F066C073F067C074F00201E451CC
:104120000AEC62F00201E45128EC50F00201E65181
:10413000E711E811E91159E0E95106E1E629FF0E1E
:10414000E7590F0EE85919E3E6C264F0E7C265F0DB
:10415000E8C266F0E9C267F07D0E0001686F696B26
:104160006A6B6B6B5AEC54F00C0ED8906437653761
:1041700066376737E82EF9D720D0E6C298F0E7C255
:1041800099F0E8C29AF0E9C29BF00C0ED8900001B9
:10419000983799379A379B37E82EF8D798C064F04C
:1041A00099C065F09AC066F09BC067F07D0E686F9D
:1041B000696B6A6B6B6B5AEC54F064C09CF065C021
:1041C0009DF066C09EF067C09FF09CC071F09DC0DE
:1041D00072F09EC073F09FC074F00201E5510AECCA
:1041E00062F00201E55128EC50F00001966B976BEC
:1041F00012009E96C6AEE0D0C69E4E6A010120EE29
:1042000003F0C151D926C251DA22DECF04F0DDCF4E
:1042100005F004C0D9FF05C0DAFF010EDF6EC16BE7
:10422000C26B12000101B0B31200AEC1C1F1AFC147
:10423000C2F1AEC1D9FFAFC1DAFFDF504F6E20EE41
:1042400001F0AE51D926AF51DA22DECF40F0DDCFFA
:1042500041F0040EAE27000EAF23D10EAE1907E1D8
:10426000010EAF1904E1CD0EAE6F010EAF6FB0912C
:10427000AC51AE1904E1AD51AF1901E1B083C58075
:10428000020E4E6E020CC5AC04D015D0040EBAEF6F
:1042900063F0D8900101D231056ED131046E045023
:1042A000C96ED1A103D00B0E4E6E0B0C030E4E6ED9
:1042B000030CC5AC03D00101B22BE8D7C5820101C4
:1042C000D251060B046E056AF00E0410D16F055032
:1042D000D26FD181010E446ED3D744041AE040C09E
:1042E000D9FF41C0DAFFDECFD1F1DDCFD2F120EE30
:1042F00003F04050D9264150DA22DECFBBF1DDCFAA
:10430000BCF120EE02F04050D9264150DA22DF50B5
:10431000456ED1C1C9FF0101D1A1C8D7050E4E6EAE
:10432000050CC5AC06D00101B22BC59C050EBAEF39
:1043300063F04506452809E1050E4026000E41229E
:104340004F2E01D031D0C5829BD7BBC1D9FFBCC194
:10435000DAFFDF50C96E0101BB4BBC2B1200C5ACAC
:1043600007D00101B22B040EBAEC63F0C59C120019
:10437000C586080E4E6E080C080E4E6EC586080CDB
:10438000BBC1D9FFBCC1DAFFC9CFDFFF0101BB4B05
:10439000BC2B450604E0C59A060E4E6E03D0C58AB6
:1043A0007BEC6CF0C5881200000EBAEF63F00101DF
:1043B000B22B060EBAEF63F04E5001E133D7010A7B
:1043C000C2E0030A8AE0010AACE0070AEDE0010A54
:1043D000C6E0030AD1E0010AE7E00F0AD1E0020AD1
:1043E00001E151D7010A01E164D7E1D76AC0D9FFE1
:1043F0006BC0DAFFDF507D6F6A4B6B2B7D51AAECEF
:1044000069F0F4E2796B7A6B7B6B7C6B786B2D0EC9
:104410007D190BE1010E786F6AC0D9FF6BC0DAFF1E
:10442000DF507D6F6A4B6B2B03D02B0E7D19F4E0B0
:10443000300E7D1927E16AC0D9FF6BC0DAFFDF506B
:104440007D6F6A4B6B2B6E516F1104E0100E6E196D
:104450006F1112E1780E7D1903E0580E7D190CE101
:104460006F6B100E6E6F6AC0D9FF6BC0DAFFDF5042
:104470007D6F6A4B6B2B06D06E516F1103E16F6B32
:10448000080E6E6F6E516F1103E16F6B0A0E6E6F47
:104490007D514CEC69F006E37D5192EC6CF0C90F54
:1044A0007D6F06D07D51C2EC6AF065E3300E7D5F12
:1044B0007D51706F716B6E51705D7151800A726FBA
:1044C0006F51800A725957E26EC070F06FC071F080
:1044D000000E71BFFF0E726F736F70517903F3CFCF
:1044E00074F0F4CF75F0766B776B7A03F350752721
:1044F000F4507623000E772371517903F35075271A
:10450000F4507623000E772370517B03F350762707
:10451000F450772371517A03F3507627F4507723C0
:1045200072517903F3507627F45077237C5170034E
:10453000F350772771517B03F350772772517A0339
:10454000F350772773517903F35077277D51742502
:10455000796F000E75217A6F000E76217B6F000E49
:1045600077217C6F6AC0D9FF6BC0DAFFDF507D6FA7
:104570006A4B6B2B8DD76C516D110EE0FF0E6A25C7
:10458000706FFF0E6B21716F6CC0D9FF6DC0DAFFC9
:1045900070C0DEFF71C0DDFF78511AE079C070F0A5
:1045A0007AC071F07BC072F07CC073F0701F711F15
:1045B000721F731F702B000E71237223732370C040
:1045C0006AF071C06BF072C06CF073C06DF0000CDB
:1045D00079C06AF07AC06BF07BC06CF07CC06DF083
:1045E0001200866B81C087F082C088F0DED00201A5
:1045F0006C51020D6E0EF324D96E020EF420DA6EA9
:10460000DF906C51020D6E0EF324D96E020EF42071
:10461000DA6EDF926C51020D6E0EF324D96E020E2B
:10462000F420DA6EDF946C51020D6E0EF324D96E15
:10463000020EF420DA6EDF966C51020D6E0EF3243A
:10464000D96E020EF420DA6EDF986C51020D6E0EF8
:10465000F324D96E020EF420DA6EDF9A6C51020D4B
:104660006E0EF324D96E020EF420DA6EDF9C6C51CC
:10467000020D6E0EF324D96E020EF420DA6EDF9E68
:1046800087C0D9FF88C0DAFF6C51020D6D0EF3248C
:10469000E16E020EF420E26EDFCFE7FF60D087C04C
:1046A00064F088C065F011EC66F064C087F065C006
:1046B00088F002016C51020D6D0EF324D96E020ECA
:1046C000F420DA6EDF6862D087C070F088C071F0C5
:1046D0000AEC0FF070C087F071C088F057D087C027
:1046E00064F088C065F013EC6AF064C087F065C0C0
:1046F00088F04CD087C072F088C073F009EC2EF0BF
:1047000072C087F073C088F041D087C064F088C061
:1047100065F004EC6EF064C087F065C088F036D0B8
:1047200087C075F088C076F0B8EC2CF075C087F0C3
:1047300076C088F02BD087C069F088C06AF0DDECC5
:1047400067F069C087F06AC088F020D0010E866FDC
:1047500083518125876F000E8221886FAAD787C079
:10476000D9FF88C0DAFF0001874B882BDF50020A8F
:1047700096E0010AA9E0070AB2E0010ABBE0030AD9
:10478000C4E0010ACDE00F0AD6E0E0D702016C5187
:10479000020D6D0EF324D96E020EF420DA6EDE28BF
:1047A00004E0100E6C6101D06C2B00018351812557
:1047B000846F000E8221856F8451875D85518859F1
:1047C00003E2865101E113D787C081F088C082F0EF
:1047D00012000201DFA506D0800E0001976F030EC4
:1047E000966F030CDFC299F0030E0001991705E0E4
:1047F000800E976F040E966F040C0201D45109E1EC
:10480000400E0001986505D0800E976F020E966FDE
:10481000020C8A860201E3511BEC6BF0000E7E6FE6
:10482000040E7D6F6BEC06F00201D40523E198C005
:1048300066F0220EE0EC6AF00A0E72EC69F0A56FE9
:10484000F00EA517A587A5C066F00A0EE0EC6AF089
:10485000400E0001666FE0EC6AF00001666B410EED
:10486000E0EC6AF0D4C269F0010E00016A6FE6EC78
:104870003CF00AD00001666B400EE0EC6AF00001EB
:10488000666B410EE0EC6AF00201D45105E198C07C
:1048900066F0000EE0EC6AF0DBEC6EF0800E27ECC8
:1048A0006EF00001A66B0BD0A6519625D96E000EB6
:1048B0009721DA6EDF5027EC6EF00001A62B98519D
:1048C000A65DF2E3D9EC6EF00201DF81E70EDF179F
:1048D000D4C269F0000E00016A6F030EE6EC3CF0F2
:1048E0000001716B726B0A0E736F746B0201E351FE
:1048F0000AEC62F00201E35128EC50F00201E651AB
:10490000E711E811E91159E0E95106E1E629FF0E46
:10491000E7590F0EE85919E3E6C264F0E7C265F003
:10492000E8C266F0E9C267F07D0E0001686F696B4E
:104930006A6B6B6B5AEC54F00C0ED8906437653789
:1049400066376737E82EF9D720D0E6C299F0E7C27C
:104950009AF0E8C29BF0E9C29CF00C0ED8900001DE
:1049600099379A379B379C37E82EF8D799C064F06F
:104970009AC065F09BC066F09CC067F07D0E686FC2
:10498000696B6A6B6B6B5AEC54F064C0A1F065C044
:10499000A2F066C0A3F067C0A4F0A1C071F0A2C0ED
:1049A00072F0A3C073F0A4C074F00201E5510AECE8
:1049B00062F00201E55128EC50F00001966B976B14
:1049C0001200EFC0D9FFF0C0DAFFDECFF3F0DDCF89
:1049D000F4F0000120EE02F0EF51D926F051DA2276
:1049E000DECFF6F0DDCFF7F0010EF56FF969F3C019
:1049F00095F0F4C096F0BDEC3DF0F86FF6C07EF097
:104A0000F7C07FF0010E806F816F826B836B846BC8
:104A100035EC52F0000908E0F6C067F0F7C068F026
:104A200025EC42F06751F96FF8AFF9BF92D0F56B02
:104A30006CD0F95102E189908CD089808AD0F951EB
:104A400002E1899286D0898284D0F95102E1899469
:104A500080D089847ED0F95102E189967AD0898606
:104A600078D0F95102E1899874D0898872D0F951CF
:104A700002E1899A6ED0898A6CD0F95102E18D9059
:104A800068D08D8066D0F95102E18D9262D08D821E
:104A900060D0F95102E18C945CD08C845AD0F951E9
:104AA00002E18D9456D08D8454D0F95102E18B9A55
:104AB00050D08B8A4ED0F95102E18C9A4AD08C8A20
:104AC00048D0F95102E18C9E44D08C8E42D0F951ED
:104AD00002E18C9C3ED08C8C3CD0F95102E1899E45
:104AE00038D0898E36D0F95102E1899C32D0898C38
:104AF00030D0F95102E18A9E2CD08A8E2AD0F95109
:104B000002E18A9C26D08A8C24D0F85192E0010AD6
:104B100096E0030A9AE0010A9EE0070AA2E0010A71
:104B2000A6E0030AAAE0010AAEE00F0AB2E0010A19
:104B3000B6E0030ABAE0010ABEE0070AC2E0010AD1
:104B4000C6E0030ACAE0010ACEE01F0AD2E0010A69
:104B5000D6E0F551020DF10EF324D96E010EF420CA
:104B6000DA6EDECFF1F0DDCFF2F020EE06F0EF519D
:104B7000D926F051DA22F1C0DEFFF2C0DEFFDD6A95
:104B8000120000018E6F0201BA5113EC6EF0A4C244
:104B90008CF000018E0522E18EC079F08F0E7A6FC5
:104BA0007B6B0201B2510DEC3CF08D6F0D0E0201DA
:104BB000A425F66EF76AF80EF722F86A000EF822BE
:104BC0000800F55009EC6EF00201B451A45D0A0F23
:104BD000126F0D0E126549D0126F47D0020100BD51
:104BE00016D0A46B8EC079F08F0E00017A6F7B6BAC
:104BF000400E0DEC3CF08D6F0A0E09EC6EF00201D8
:104C0000B4510A08126F070E22EC6EF01AD0040E8F
:104C1000A46F8EC079F08F0E00017A6F7B6B080E47
:104C20000DEC3CF08D6F080E09EC6EF00201B451F2
:104C30000E08126F0D0E126501D0126F090E22ECD4
:104C40006EF0020100BD04D00001876B872B02D0FB
:104C50000001876B873B87478747020100510001AE
:104C60008719BF0B87190201006F8CC0A4F20001E5
:104C70008D5160E1400E8F611DD08F51A2EC47F045
:104C800064C088F065C089F066C08AF067C08BF0A8
:104C9000070E22EC6EF01B0E0201A625F66EF76AD7
:104CA000F80EF722F86A000EF8220800F5500EEC14
:104CB0006EF02ED08F51ECEC43F064C088F065C0EC
:104CC00089F066C08AF067C08BF0090E22EC6EF0A6
:104CD0001B0E0201A625F66EF76AF80EF722F86A97
:104CE000000EF8220800F550800A650F0EE21B0E38
:104CF000A625F66EF76AF80EF722F86A000EF8227B
:104D00000800F5500EEC6EF003D01A0E0EEC6EF0AB
:104D100088C064F089C065F08AC066F08BC067F017
:104D200048EC4EF0010E1DEC6EF0000E18EC6EF02B
:104D30008FC09FF200018D5112007FC0BCF280C075
:104D4000BDF281C0BEF282C0BFF2A80E0201C06FE8
:104D5000610EC16FC26BC36B500EC46FC30EC56FC3
:104D6000C66BC76B010ED46F070ED66F020ED76FDE
:104D7000010EDD6FDE6BC96B080EC86F0C0ED56FB0
:104D8000010ED86FD96BDC6BC10ECB6F940ECC6F5C
:104D9000C10ECD6F030ED36F340ECA6FDF6BE06BA5
:104DA0007DC0E1F27EC0E2F2DA6BDB6B800EEE6F6B
:104DB000980EE66F3A0EE76FE86BE96B020EEF6F45
:104DC0000B0EF06F120EF16FEB6BEC6BEA5123E1FF
:104DD000CFEC54F00201E36FCFEC54F00201E46F2A
:104DE000CFEC54F00201E56F660E0001646FCF0E48
:104DF000656F666B0201E451F8EC65F0380E646F84
:104E0000C70E656F666B0201E551F8EC65F0010EA7
:104E10000201EA6F0BD0E3511BEC6BF00201E4518D
:104E20001BEC6BF00201E5511BEC6BF0ABEC65F099
:104E3000000E0001696F010E6A6FE6EC3CF0BCC227
:104E400071F0BDC272F0BEC273F0BFC274F09FECCD
:104E50003BF0420E0001666F3B0EE0EC6AF03B0E49
:104E600072EC69F0836F83BBFAD7230E666F0C0E6A
:104E7000E0EC6AF01E0E0001666F0D0EE0EC6AF0C9
:104E8000AA0E0001666F1F0EE0EC6AF08F0E0001A3
:104E9000666F350EE0EC6AF000016669320EE0ECF8
:104EA0006AF0400E0001666F310EE0EC6AF0010E10
:104EB0000001696F6A6F000EE6EC3CF09386618634
:104EC000F19E0001846B05D081A602D0939603D099
:104ED000842B84AFF9D76196F18E6669230EE0ECDE
:104EE0006AF0420E72EC69F00201ED6F1200EFC041
:104EF000D9FFF0C0DAFFDECFF3F0DDCFF4F0010E22
:104F00000001F56FF769F3C095F0F4C096F0BDECC1
:104F10003DF0F66FF6BF80D05AD0000E80B0010E83
:104F2000F76F79D0000E80B2010EF76F74D0000ECB
:104F300080B4010EF76F6FD0000E80B6010EF76FD0
:104F40006AD0000E80B8010EF76F65D0000E80BAEF
:104F5000010EF76F60D0000E84B0010EF76F5BD0CA
:104F6000000E84B2010EF76F56D0000E83B4010E0E
:104F7000F76F51D0000E84B4010EF76F4CD0000EC5
:104F800082BA010EF76F47D0000E83BA010EF76F99
:104F900042D0000E83BE010EF76F3DD0000E83BCE1
:104FA000010EF76F38D0000E80BE010EF76F33D0C0
:104FB000000E80BC010EF76F2ED0000E81BE010ED8
:104FC000F76F29D0000E81BC010EF76F24D0F65187
:104FD000A4E0010AA7E0030AAAE0010AADE0070A7B
:104FE000B0E0010AB3E0030AB6E0010AB9E00F0A33
:104FF000BCE0010ABFE0030AC2E0010AC5E0070AFB
:10500000C8E0010ACBE0030ACEE0010AD1E01F0AA2
:10501000D4E0010AD7E0F56BF55118E0F551020D27
:10502000F10EF324D96E010EF420DA6EDECFF1F02A
:10503000DDCFF2F020EE06F0EF51D926F051DA2262
:10504000F1C0DEFFF2C0DEFFDD6A1200D80E776F1E
:10505000070E786FF751796F7A6B79BF7A077C6B9F
:105060000A0E7B6FC7EC4AF0D80EF16F070EF26F95
:1050700020EE06F0EF51D926F051DA22F1C0DEFF22
:10508000F2C0DEFF200EDF6E200C9651986F975114
:10509000996F9A6B9B6BE80E9803F3CF9CF0F4CF5B
:1050A0009DF09E6B9F6B9903F3509D27F4509E23B8
:1050B000000E9F23030E9803F3509D27F4509E2368
:1050C000000E9F23E80E9A03F3509E27F4509F236F
:1050D000030E9903F3509E27F4509F23000E98036C
:1050E000F3509E27F4509F23E80E9B03F3509F2715
:1050F000030E9A03F3509F27000E9903F3509F2746
:10510000000E9803F3509F279CC091F29DC092F22D
:105110009EC093F29FC094F29651971127E102012D
:10512000AC511BEC6BF0020103930001A46B18D08F
:10513000A451020D6D0EF324D96E020EF420DA6E26
:10514000020EDE180BE1A451020D6D0EF324D96E90
:10515000020EF420DA6EDF6802016C070001A42B56
:1051600002016C510001A45DE3E31200020103831C
:1051700002A11200945106E19129FF0E92590F0EDF
:10518000935919E391C264F092C265F093C266F03C
:1051900094C267F07D0E0001686F696B6A6B6B6B80
:1051A0005AEC54F00C0ED890643765376637673781
:1051B000E82EF9D720D091C298F092C299F093C20C
:1051C0009AF094C29BF00C0ED89000019837993752
:1051D0009A379B37E82EF8D798C064F099C065F0ED
:1051E0009AC066F09BC067F07D0E686F696B6A6B52
:1051F0006B6B5AEC54F064C0A0F065C0A1F066C0BF
:10520000A2F067C0A3F0A0C071F0A1C072F0A2C06C
:1052100073F0A3C074F00201AC510AEC62F0020119
:10522000AC5128EF50F00201E5511BEC6BF08A966F
:10523000080E666F120EE0EC6AF0D4C269F0000E40
:1052400000016A6FE6EC3CF00201DF91DFB9120069
:10525000E351A8EC62F0905107E11F0E8D5DAC0E9A
:105260008E59DF0E8F5946E30201E351A8EC62F03C
:105270000D0E05D0D89090338F338E338D33E82EBA
:10528000F9D77D0E8D03F3CFADF0F4CFAEF0AF6B59
:10529000B06B8E03F350AE27F450AF23000EB02353
:1052A0008D03F350AE27F450AF23000EB0237D0ED4
:1052B0008F03F350AF27F450B023000E8E03F3504A
:1052C000AF27F450B023000E8D03F350AF27F450F6
:1052D000B0237D0E9003F350B027000E8F03F350E0
:1052E000B027000E8E03F350B027000E8D03F3504D
:1052F000B02745D00201E351A8EC62F07D0E8D038A
:10530000F3CFADF0F4CFAEF0AF6BB06B8E03F350D4
:10531000AE27F450AF23000EB0238D03F350AE2719
:10532000F450AF23000EB0237D0E8F03F350AF2750
:10533000F450B023000E8E03F350AF27F450B02387
:10534000000E8D03F350AF27F450B0237D0E900371
:10535000F350B027000E8F03F350B027000E8E03DA
:10536000F350B027000E8D03F350B0270D0E05D07B
:10537000D890B033AF33AE33AD33E82EF9D7ADC0EC
:10538000B5F0AEC0B6F0AFC0B7F0B0C0B8F0B55130
:105390002008B16F4E0EB655B26F000EB755B36F01
:1053A000000EB855B46FB1C0A6F0B2C0A7F098EF28
:1053B0001DF03F0E72EC69F0B96FB9A71200D4C2AC
:1053C00069F0000E6A6FE6EC3CF00201DF91E551F6
:1053D0001BEC6BF08A960201DFB91200E351A8ECD6
:1053E00062F0905107E11F0E8D5DAC0E8E59DF0EFD
:1053F0008F5946E30201E351A8EC62F00D0E05D08F
:10540000D89090338F338E338D33E82EF9D77D0EBD
:105410008D03F3CFADF0F4CFAEF0AF6BB06B8E0376
:10542000F350AE27F450AF23000EB0238D03F3509A
:10543000AE27F450AF23000EB0237D0E8F03F35040
:10544000AF27F450B023000E8E03F350AF27F45073
:10545000B023000E8D03F350AF27F450B0237D0E20
:105460009003F350B027000E8F03F350B027000EC7
:105470008E03F350B027000E8D03F350B02745D0B4
:105480000201E351A8EC62F07D0E8D03F3CFADF085
:10549000F4CFAEF0AF6BB06B8E03F350AE27F45089
:1054A000AF23000EB0238D03F350AE27F450AF238B
:1054B000000EB0237D0E8F03F350AF27F450B023BE
:1054C000000E8E03F350AF27F450B023000E8D036F
:1054D000F350AF27F450B0237D0E9003F350B02764
:1054E000000E8F03F350B027000E8E03F350B02749
:1054F000000E8D03F350B0270D0E05D0D890B033B9
:10550000AF33AE33AD33E82EF9D7ADC0B5F0AEC092
:10551000B6F0AFC0B7F0B0C0B8F0B5512008B16F69
:105520004E0EB655B26F000EB755B36F000EB8559C
:10553000B46FB1C0A6F0B2C0A7F098EF1DF0010E95
:105540000001F36FEFC0D9FFF0C0DAFFDECF6AF0E1
:10555000DDCF6BF0A0EC64F0000901E192D020EE09
:1055600002F0EF51D926F051DA22DECF6AF0DDCF1A
:105570006BF0A0EC64F0000901E183D0EFC0D9FF2B
:10558000F0C0DAFFDECF6AF0DDCF6BF06C6B6D6BD5
:105590006F6B100E6E6FF6EC21F06A51F46F20EE17
:1055A00002F0EF51D926F051DA22DECF6AF0DDCFDA
:1055B0006BF06C6B6D6B6F6B100E6E6FF6EC21F019
:1055C0006A51F56FEFC0D9FFF0C0DAFFDECFF1F01E
:1055D000DDCFF2F0F1C064F0F2C065F06451651106
:1055E000D8A4200E666F2AEC5EF0020E64196511D5
:1055F00048E1F45111E14D0E646FFF0E656FEFC08D
:10560000D9FFF0C0DAFFDECF66F0DDCF67F077ECD0
:1056100037F06451651135E120EE02F0EF51D926E3
:10562000F051DA22DECFF1F0DDCFF2F0F1C064F01C
:10563000F2C065F064516511D8A4200E666F2AECA3
:105640005EF0020E641965111CE1F55113E14D0E77
:10565000646FFF0E656F20EE02F0EF51D926F05116
:10566000DA22DECF66F0DDCF67F077EC37F06451F9
:10567000651107E1F5C066F0F451E0EC6AF0000155
:10568000F36BF351020DE90EF324D96E010EF420F1
:10569000DA6EDECFF1F0DDCFF2F020EE06F0EF5162
:1056A000D926F051DA22F1C0DEFFF2C0DEFFDD6A5A
:1056B000120020EE01F06451D9266551DA22DF5044
:1056C000666F20EE05F06451D9266551DA2210EE9E
:1056D00001F06451E1266551E222DFCFE7FF20EEC1
:1056E00009F06451D9266551DA2210EE05F06451B3
:1056F000E1266551E222DFCFE7FF20EE0DF0645195
:10570000D9266551DA2210EE09F06451E12665517F
:10571000E222DFCFE7FF20EE0DF06451D92665517C
:10572000DA2266C0DFFF20EE02F06451D92665510F
:10573000DA22DF50666F20EE0AF06451D9266551F7
:10574000DA2210EE02F06451E1266551E222DFCF49
:10575000E7FF20EE0AF06451D9266551DA2266C0CF
:10576000DFFF20EE0EF06451D9266551DA22DF50BA
:10577000666F20EE06F06451D9266551DA2210EEEC
:105780000EF06451E1266551E222DFCFE7FF20EE03
:1057900006F06451D9266551DA2266C0DFFF20EE9B
:1057A00003F06451D9266551DA22DF50666F20EE8E
:1057B0000FF06451D9266551DA2210EE03F06451DE
:1057C000E1266551E222DFCFE7FF20EE0BF06451C6
:1057D000D9266551DA2210EE0FF06451E1266551A9
:1057E000E222DFCFE7FF20EE07F06451D9266551B2
:1057F000DA2210EE0BF06451E1266551E222DFCF90
:10580000E7FF20EE07F06451D9266551DA2266C021
:10581000DFFF1200EFC0D9FFF0C0DAFFDECFF3F0F8
:10582000DDCFF4F0010E0001F56FF3C095F0F4C088
:1058300096F0BDEC3DF0F66FF6BF61D0D10EF625C7
:10584000F66EF76AF70EF722F86A000EF8220800E3
:10585000F5A455D00001F56B38D0000E84EC64F04F
:105860002FD0010E84EC64F02BD0020E84EC64F097
:1058700027D0030E84EC64F023D0040E84EC64F093
:105880001FD0050E84EC64F01BD0060E84EC64F08F
:1058900017D0160E84EC64F013D0070E84EC64F07D
:1058A0000FD0110E84EC64F00BD0190E84EC64F070
:1058B00007D01B0E84EC64F003D01A0E84EC64F065
:1058C00069C0F7F06AC0F8F01AD0F651C6E0010AD4
:1058D000C8E0030ACAE0010ACCE0060ACEE0030AE7
:1058E000D0E0010AD2E00F0AD4E0010AD6E0030AB0
:1058F000D8E0010ADAE0070ADCE0010ADEE0000194
:10590000F55118E0F551020DF10EF324D96E010E98
:10591000F420DA6EDECFF1F0DDCFF2F020EE06F00B
:10592000EF51D926F051DA22F1C0DEFFF2C0DEFFDE
:10593000DD6A1200D80E776F070E786FF7C079F026
:10594000F8C07AF07C6B0A0E7B6FC7EC4AF0D80E79
:10595000F16F070EF26F20EE06F0EF51D926F051ED
:10596000DA22F1C0DEFFF2C0DEFF200EDF6E200C77
:1059700075C0D9FF76C0DAFFDF507C6F754B762B90
:1059800075C0D9FF76C0DAFFFF0EDE14786FFF0E08
:10599000DE14796FFF0EDE147A6F000EDE147B6F5B
:1059A00078C064F079C065F07AC066F07BC067F0BB
:1059B000640E686F696B6A6B6B6BAFEC50F064C020
:1059C00078F065C079F066C07AF067C07BF0030EAE
:1059D0007527000E762375C0D9FF76C0DAFFDF5039
:1059E000776F754B762B7C51BCEC6CF000093FE077
:1059F0007C51A2EC47F07851641909E1795165199D
:105A000006E17A51661903E17B51671914E07C5174
:105A1000ECEC43F07851641909E17951651906E11C
:105A20007A51661903E17B51671905E078517911C4
:105A30007A117B110AE102016C51020D6E0EF32402
:105A4000D96E020EF420DA6EDF8E77C066F00001A8
:105A50007C51A9EC55F000090AE102016C51020DDC
:105A60006E0EF324D96E020EF420DA6EDF8C020182
:105A70006C51020D6E0EF324D96E020EF420DA6E14
:105A8000DFAE1AD06C51020D6E0EF324D96E020EE9
:105A9000F420DA6EDFAC10D00001785179117A1160
:105AA0007B1105E1686B7C5185EC69F005D077C00E
:105AB0006BF07C51EAEC68F075C075F076C076F05A
:105AC0001200010E666FEFC0D9FFF0C0DAFFDECF23
:105AD000F1F0DDCFF2F0F1C064F0F2C065F000014A
:105AE00064516511D8A4200E666F2AEC5EF064C084
:105AF0006CF165C06DF1EFC0D9FFF0C0DAFFDECF09
:105B000067F0DDCF68F025EC42F067C068F168C04F
:105B100069F1EFC0D9FFF0C0DAFFDECF6AF1DDCF67
:105B20006BF101016D515BE1040E6C5D58E2140EE6
:105B3000681969110EE069BF05D0695150E1120E74
:105B4000685D4DE269BF4BD0695103E1020E685DAB
:105B500046E36AC1D9FF6BC1DAFF2B0EDE1814E0F1
:105B60006AC1D9FF6BC1DAFF2D0EDE1805E16D5158
:105B70000BE1020E6C5D08E26AC1D9FF6BC1DAFF6E
