:100300000FEF02F0FFFFFFFFFACF06F0FBCF07F081
:10031000E1CF08F0E2CF09F0D9CF0AF0DACF0BF045
:10032000F3CF0CF0F4CF0DF037C00EF038C00FF063
:1003300039C010F03AC011F03BC012F03CC013F0CD
:100340003DC014F03EC015F03FC016F040C017F09D
:1003500041C018F042C019F01DEE18F0F2BC9DA08B
:1003600005D09EA003D01EEC61F030D0F2BC9DAA57
:1003700005D09EAA03D034EC47F028D0F2BC9DA84B
:1003800005D09EA803D018EC59F020D0F0B6F0A00C
:1003900003D03CEC62F01AD0F0B8F0A203D039ECF4
:1003A00062F014D0F2B6F2A003D008EC61F00ED0E7
:1003B000F2BC9DA605D09EA603D0A9EC1AF006D0EB
:1003C000F2BCA0A603D0A1B681EC62F019C042F045
:1003D00018C041F017C040F016C03FF015C03EF005
:1003E00014C03DF013C03CF012C03BF011C03AF015
:1003F00010C039F00FC038F00EC037F00DC0F4FF58
:100400000CC0F3FF0BC0DAFF0AC0D9FF09C0E2FF3E
:1004100008C0E1FF07C0FBFF06C0FAFF11001CEE99
:1004200008F02AEF28F033EC62F0030103B14FD358
:10043000FDDB686F6839E832070BE80601E09AD007
:1004400003011D5101E096D00001E50501016F6F28
:100450001AD00001E551E325E66F000EE421E76FB5
:1004600001016F510001E65D866FE751D8A0E705F5
:1004700006EC49F0DDEC5BF0100E01016F6502D077
:100480006F5F01D06F6B6F51E4E1420E0001D06FDE
:10049000030ED16FE3C0D2F0E4C0D3F0E551FC0FFE
:1004A000D46FA6EC4DF0D0C072F1D1C073F1D2C0C0
:1004B00074F1D3C075F1B3DBE5EC54F055DB725148
:1004C0006B1909E173516C1906E174516D1903E15F
:1004D00075516E190FE048EC45F002E18DEF5BF0CD
:1004E00002510F0B030AD8A41200E351D8B4120032
:1004F0008DEF5BF0030102510F0B030A03E1D551AD
:10050000F0EC60F0E3C076F1E4C077F1010120EE99
:1005100007F0BADBDECF1EF3DECF1FF3DECF20F312
:10052000DECF21F320EE0CF0AFDBDF500F0BBEEC83
:1005300053F0010120EE0BF0A7DBDF38070B1A6E3A
:1005400020EE0BF0A1DBDF500F0B11EC5EF076C15B
:100550001AF077C11BF00001E5517AEC62F076C128
:100560009AF077C19BF0D9EC48F0AFEC2DF0030185
:10057000D9DBD3D301016839E832070B030A06E05F
:100580006839E832070B050A01E09ED2E3C07DF12D
:10059000E4C07EF1020E0301121901E002D170DB0A
:1005A000D2DA03016251DE1809E16351DE1806E177
:1005B0006451DE1803E16551DE18D8A4F2D004A519
:1005C000F0D07DC11AF07EC11BF0CFEC4DF00009D8
:1005D00004E1030177DB1EEF4BF0A5DA7EDB0E5161
:1005E0000101795D03010F5101017A5905E310C33F
:1005F0007BF111C37CF107D0010E030110259CDBB8
:10060000112101017C6FCADA010E6B6F97EC37F094
:10061000E8DAA3DA100E1E6E85EC4CF0AFDA85EC4A
:100620004CF0660E0001C26F030EC36FCA0EECDA07
:1006300050EC11F0DADA91DA040E1E6E85EC4CF013
:10064000EEDAE5EC54F090DA6B517219C2E16C51BC
:100650007319BFE16D517419BCE16E517519B9E19F
:1006600001D0B7D768DA0E51DE5C0F51DE5822E3B5
:100670005ADA2DDB0E510001E65F03010F5157DB03
:10068000905D0001E751030191590EE20001F7511D
:10069000F8119FE0946B956B966B060E976F01D8DF
:1006A00098D70500FA6E76D03EDADECF0EF3DDCFB6
:1006B0000FF313D038DADE50DE100AE103010E2901
:1006C00007E10F2905E10E6B0F6B104B112B05D0C5
:1006D0000001F751F811DEE17CD703010E2907E193
:1006E0000F2905E1102903E1112901E1F1D7025198
:1006F0000F0B080A08E1D651F0EC60F00301D75166
:10070000F0EC60F007D002510F0B030A03E1D75160
:10071000F0EC60F0E8DA1CDAFDD98FDA03E1E7519A
:10072000E91925E083DA666F0001E34BE42BE5511C
:10073000F40F0101786F190E6A6FE3C09AF0B1DA15
:100740009C6F010E9D6F0EC39EF00FC39FF010C3F0
:10075000A0F011C3A1F0760EA26F030E2EDA010EE7
:10076000A76F5FEC24F0FF0EE32593DA01D0CBDA1C
:1007700003010383F00E7FDA01E12BD770C194F0FF
:1007800071C195F078C196F0010E976F01D821D70D
:100790000500FA6EF751FD6EF851FE6EFF6AFA50D1
:1007A00012006EDAD0D903011E51DE1809E11F5183
:1007B000DE1806E12051DE1803E12151DE1809E0C0
:1007C000000E16EC45F0020E0301121901E101D7EB
:1007D0001200A9D982DA0A510101795D03010B5196
:1007E00001017A5905E30CC37BF10DC37CF107D0FD
:1007F000010E03010C25A0DA0D2101017C6FCED979
:100800006B6B010E97EC37F0ECD9A7D9100E1E6E6A
:1008100085EC4CF0B3D985EC4CF091EC0FF0F4D9A9
:1008200050EC11F0E2D999D9040E1E6E85EC4CF013
:10083000F6D9E5EC54F098D96B51721909E16C5175
:10084000731906E16D51741903E16E51751904E0D5
:10085000000E16EC45F0B7D76ED90A51DE5C0B518D
:10086000DE5827E360D933DA0A510001E65F03015D
:100870000B515DDA8E5D0001E75103018F5916E2DD
:100880000091F00EF8D90FE044EC45F0FFEC3CF09D
:1008900001D809D00500FA6EF751FD6EF851FE6ED1
:1008A000FF6AFA5012000301039323D03CD921DAE6
:1008B00013D039D9DE50DE100BE103010A2908E11B
:1008C0000B2906E130D915DA03010C4B0D2B04D0AE
:1008D000000E16EC45F077D7336A326A0101B96B26
:1008E00003010A2909E10B2907E10C2905E10D297A
:1008F00003E10483020E69D702510F0B030A03E1DF
:10090000D751F0EC60F0010E0301CA6F7DC11AF0FF
:100910007EC11BF011EC58F00101FCD81DE0FAD8A3
:100920007D250001E66FF4D9E76F080EE625D96E44
:10093000000EE721DA6EDF5010E0080E01017D2580
:100940000001866FE5D9876F0101E4D80001886F47
:100950001CEC1EF0D3D901D0C6D9FAD8DBD86DD99A
:1009600003E1E751E9194FE061D9666F0001E34BFC
:10097000E42B0101CFD80001E66FE651E55DF40FED
:100980000101786FC7D8190F6A6F66510EE0E3C096
:100990009AF087D91AD9B3EC0FF00FD9A76B5FEC97
:1009A00024F0FF0EE32575D92FD00001D1D8B2D89D
:1009B0000001E86FE96B0D0EE827000EE923E65110
:1009C000E85DE951800AEA6FE751800AEA591BE2C3
:1009D000E3C09AF0E4C09BF0010178050001F5D86E
:1009E000AFEC0FF0EAD8A76B5FEC24F0010192D8CE
:1009F0000AE1E3C086F0E4C087F078050001886F63
:100A00001CEC1EF07BD97FD9010E0301CA6FC26BAB
:100A1000C36BE06B0099038300A133D0010120EE8A
:100A200005F091D8DFAA2AD0030100911AD90DE070
:100A3000E0D801D80AD00500FA6E0001F751FD6E2A
:100A4000F851FE6EFF6AFA5012000301039302BBD5
:100A500000BBB9D600B302D000A7B5D6F8D876EC63
:100A600034F0000908E1000E21D933EC32F000091E
:100A700001E0A9D665D17BEC62F0A5D6D7EC4BF0AE
:100A8000A2D6EFD80DE0B5D801D80AD00500FA6E8D
:100A90000001F751FD6EF851FE6EFF6AFA50120028
:100AA000030102BB00BB8FD600B302D000A78BD6D8
:100AB000CED876EC34F00009DEE1000EF7D833EC46
:100AC00032F00009D7E07FD6000E16EF45F00001A6
:100AD000F751F811D8B4120030EC62F00001E66F63
:100AE000E6B70CD0E8D8030E976F0500FA6EF75101
:100AF000FD6EF851FE6EFF6AFA501200DCD8020E4D
:100B0000976F0500FA6EF751FD6EF851FE6EFF6AA1
:100B1000FA50120020EE05F07D51D9267E51DA22DE
:100B2000DF500F0B1200010120EE06F07D51D92697
:100B30007E51DA22120020EE06F07D51D9267E5138
:100B4000DA22030112007D51D9267E51DA221200E9
:100B5000E551E66FE76B010112001B6ECA0E1C6EB9
:100B6000020E1D6E1F6A120065C06BF166C06CF14B
:100B700067C06DF168C06EF101011200090E1A6EB6
:100B80000B0E1B6EE3C01CF0E4C01DF0FC0E000158
:100B9000E5251E6E1F6AFF0E1F22FF0C79C165F04E
:100BA0007AC166F07BC167F07CC168F00001E55155
:100BB000FC0F696F490E6A6F490CA36F6AC1A4F0FC
:100BC000F90EA56F0A0EA66F12009C6F010E9D6FA5
:100BD0000AC39EF00BC39FF00CC3A0F00DC3A1F09D
:100BE000010CF90E1A6E0A0E1200720E1A6E010E28
:100BF00012000301009B70C194F071C195F078C19F
:100C000096F067C197F01200C46F020EC56FF90E1F
:100C1000C66F0A0EC76FE5510C0FC86F1200E3C014
:100C200065F0E4C066F0E5C067F01200E3C0D9FFEC
:100C3000E4C0DAFFDF50010112000001E86FE96B48
:100C40000C0EE827000EE923E651E8191200010E08
:100C50000001796F690E7A6F010E7B6F0301DF511E
:100C60001200010E0101676FF00E0301021700016F
:100C7000F751F811120002170001F751F811120094
:100C8000010120EE01F012007651D9267751DA22C7
:100C900012000101706FFF0E0001E4210101716F6C
:100CA0001200E4C09BF0780500011200DC6BDD6BE4
:100CB000DE6BDF6B1200E3C094F0E4C095F0E5C09A
:100CC00096F012000251F00B0909026F1200DECFFC
:100CD000E6F0DDCFE7F003011200DECF79F1DDCFE2
:100CE0007AF103011200080E0001E327000EE4234D
:100CF000000CDECF0AF3DDCF0BF3120086C0E3F069
:100D000087C0E4F012000101786B706B716B120008
:100D1000000E01017E21000112000A6B0B6B0C6BAF
:100D20000D6B1200066B076B086B096B120000015C
:100D3000E75BE6510301120001017B6F0301000C28
:100D400003010097120093EC36F060EC2FF0F1D91C
:100D50001EEC2EF00101D55133EC30F00101D2052B
:100D600001E06FD1C8C11CF0390E62EC5FF0DCC14C
:100D700076F0010E000176170101D890DB350001F5
:100D8000776F0101D439DED91D0E62EC5FF075C0BA
:100D900076F0030E00017617D6C177F0010E7717B3
:100DA000D8907737D89077370101D339CBD91E0E39
:100DB00062EC5FF00101D851D9113FE0D8C179F060
:100DC000D9C17AF000017B6B7C6B21D0A9D97D0E53
:100DD0000001A1D959EC51F00FD0A2D9FA0E0001AF
:100DE0009AD959EC51F008D09BD9F40E0001696FE3
:100DF000010EBDD959EC51F065C079F066C07AF0AA
:100E000067C07BF068C07CF00BD0A2D909D001018B
:100E1000D451070ADBE00F0AE0E0010AE5E0F5D76C
:100E20000101D3290001766F05D0D8907C337B3344
:100E30007A337933762FF9D701D08AD979C01CF06B
:100E4000240E62EC5FF074C01CF01F0E62EC5FF0C9
:100E5000260E3EEC5EF000017D6F0C0E0101D319F1
:100E600006E1070ED41909E0080ED41906E00B0EAE
:100E7000D31906E1070ED41903E100017D8702D0E2
:100E800000017D977D857DC01CF0260E62EC5FF031
:100E9000310E3EEC5EF000017D6FF80E7D17030E03
:100EA0007D135CD962EC5FF00A0E1C6E370E62ECAB
:100EB0005FF0120E0101EB1925E1070ED41903E0D2
:100EC000080ED41912E1310E3EEC5EF000017D6F88
:100ED0007D9F44D962EC5FF0400E1C6E2F0E62ECD9
:100EE0005FF01C6A300E62EC5FF0090E0101D4194C
:100EF00009E1310E3EEC5EF000017D6F7D8F2ED951
:100F000062EC5FF0330E3EEC5EF000017D6F7D9D84
:100F10007D81DAC176F0010E7617060E776FD890D4
:100F20007637772FFCD776517D137DC01CF0330EBA
:100F300062EC5FF0DAC176F0010E00017617D8900E
:100F40007637D8907635FF0A1D0B7D6F7DC01CF07B
:100F50003B0E62EC5FF00101C7511C6E200E62EC8B
:100F60005FF0C6C11CF0210E62EC5FF01C6A0D0E32
:100F700062EC5FF01C6A0E0E62EC5FF01C6A0F0EF2
:100F800062EC5FF0120E0101EB1957E1090ED41962
:100F90001AE1800EBA5D130EBB59610EBC59330EB7
:100FA000BD5911E3BA05F70EBB59CB0EBC593C0E27
:100FB000BD5909E2D6D862EC5FF0640E1C6E3A0EA1
:100FC00062EC5FF023D0090ED4191BE1800EBA5DEC
:100FD0001A0EBB59700EBC59180EBD5912E3410EC2
:100FE000BA5DDD0EBB594A0EBC591F0EBD5909E250
:100FF000B8D862EC5FF07F0E1C6E3A0E62EC5FF0C8
:1010000005D0030E1C6E360E62EC5FF0090E010176
:10101000D4190BE1DA0509E1A7D862EC5FF0190EEB
:101020001C6E3B0E62EC5FF008D09ED862EC5FF065
:101030001D0E1C6E3B0E62EC5FF01C68120E62EF20
:101040005FF0BEC168F0BFC169F0C0C16AF0C1C144
:101050006BF04DEC4BF0C2C168F0C3C169F0C4C184
:101060006AF0C5C16BF032EC4AF00101C7511C6E49
:10107000250E62EC5FF0C6C11CF0260E62EC5FF03C
:101080000A0E3EEC5EF000017D6F9F0E7D170101A0
:10109000EF39E846E00B00017D137DC01CF00A0E1D
:1010A00062EC5FF0C80E00017D6F0101D65102E0D5
:1010B00000017D897DC01CF0300E62EC5FF0000104
:1010C000786B0ED0C90E7825D96EDA6A010EDA2255
:1010D000DF501C6E7851280F62EC5FF00001782B16
:1010E0000101D1510001785DEDE30101D15107E02B
:1010F000D10510091C6E270E62EC5FF004D01C6A4B
:10110000270E62EC5FF01C683E0E62EC5FF01C681C
:101110003F0E62EF5FF0696F6A6B6B6B6C6B120076
:1011200079C065F07AC066F07BC067F07CC068F07B
:101130001200BAC168F0BBC169F0BCC16AF0BDC1A0
:101140006BF01200F00B0001771176111C6E12008B
:101150000001796B7A6B7B6B7C6B12007DC01CF09D
:10116000310C020E1C6E360C650E1C6E3A0C6A6F4A
:101170006B6B6C6B1200070E7D6F7E6B010E746FD4
:10118000766F716B726B6707D8A068079AD1050EEE
:1011900067256B6F000E68216C6F69516B5D6A513A
:1011A0006C5921E220EE05F06751D9266851DA2208
:1011B000DF506D6F030E6D1910E1742B040E67255F
:1011C0007F6F000E6821806F97D9DF38070B3EECE8
:1011D0005FF0000902E00001766B050E0001672751
:1011E000000E68236ED194D9DF500F0B736F67C068
:1011F000D9FF68C0DAFFDF506B6F6B390F0B756F6B
:1012000087D98DD977C079F078C07AF0020E672738
:10121000000E682367C07FF068C080F0674B682BC2
:10122000030102AD02D10001765101E18FD064D9F2
:10123000DF38070B3EEC5FF000095CE087D05CD93B
:10124000DF38070B6B6F6B39F00B706F7051100F3D
:101250006E6F70C081F023D0815146D952D90BE214
:1012600079B103D079517A1106E181513DD9DF502E
:101270000F0B00017D6F815137D95AD97E610BD098
:1012800079B103D079517A1106E181512DD9DF3836
:101290000F0B00017E6FD8907A337933812B6E511A
:1012A000815D39E2D9D7040E7E6F35D0040E7D6F93
:1012B0007E6F775178112FE1766B2DD0816B3F0EC9
:1012C000816501D013D081510FD91BD903E281511F
:1012D0000BD92AD9815108D9DF380F0B00017E6163
:1012E00003D0815101D928D9812BE9D777517811C1
:1012F000DAE111D001D90001DF38070BA0E0010AC3
:101300009EE0030A9CE0010A9AE0070ACCE0020A88
:10131000D5E0010ACBE0816B460E816501D016D085
:10132000815166EC44F0DE040FE18151DDD8E9D84B
:1013300003E28151D9D8F8D88151D6D8F9D87E6145
:1013400003D08151D1D8F8D8812BE6D7000175514F
:10135000C6EC60F0000909E100017D51755D05E30F
:1013600075517E5D02E3010E726F0B0E0001736119
:1013700009D0010E716F050E736102D06F6F02D03C
:1013800073C06FF0715140E072513EE076513CE025
:1013900074C01AF01B6A1D68FB0E1C6EC8EC5CF072
:1013A0001A50000167257B6F1B5068217C6F1DD090
:1013B0007B4B7C2B7B4B7C2B7BC0D9FF7CC0DAFF2B
:1013C000AED8020E7B27000E7C237BC07FF07CC052
:1013D00080F07B4B7C2B77C062F078C063F08CD8B8
:1013E000DF38070B646F63EC42F0000167517B5DEF
:1013F00068517C59DDE36F51DCEC61F00301038936
:101400000001755100EC62F077D80001DF500F0B3E
:1014100003E10301C86B07D06FD8DF500F0B6B6F70
:101420006B050301C86F038B47D00001766B44D076
:101430000301985151D8000176B103D00301DF9028
:1014400002D00301DF80985147D8000172B103D068
:101450000301DF9202D00301DF8298513DD80001E1
:1014600071B103D00301DF9402D00301DF84100EB9
:10147000986122D0000174511FE00301982B98510C
:101480002BD8DF90985128D8DF92985125D8DF9437
:10149000985122D8DF9698511FD8DF9898511CD8C0
:1014A000DF9A985119D8DF9C985116D8DF9E985131
:1014B0007BEC18F0030EDF6E00017407742907E05F
:1014C000B7D76951675D6A51685901E260D667C054
:1014D00067F068C068F01200020D9B0EF324D96E0D
:1014E000030EF420DA6E1200020D010EF324D96E01
:1014F000050EF420DA6E12007FC0D9FF80C0DAFF3B
:101500001200DF500F0B00016B6F7D516B5D1200FD
:10151000674B682B67C0D9FF68C0DAFF1200DECFC7
:1015200077F0DDCF78F01200DF500F0B7D6F1200E7
:10153000DF380F0B00011200DF380F0B7E6F120037
:10154000E5C0D9FFE6C0DAFFDECFEAF0DDCFEBF091
:10155000000120EE02F0AFD9DECFECF0DDCFEDF0F0
:10156000010EEE6FEF69EAC098F0EBC099F059EC0C
:1015700033F0EF6FEFBF8BD1F06B070EF06501D04A
:1015800086D1F051020D480EF324D96E020EF420DC
:10159000DA6EDECF1AF0DDCF1BF0ECC01CF0EDC030
:1015A0001DF077EC40F01A501B1001E06DD1F50EE4
:1015B000EF257DD96AEC20F0F5CFE7F0F0C0E8F038
:1015C000010EE96FE82B02D0D890E937E82FFCD75D
:1015D0000001E951E71501E157D1EE6B26D10F016A
:1015E0003891929051D10F01389192804DD19280D3
:1015F0000F01388149D1F051F2E0010AF4E0030A09
:10160000F6E012D00F01389392923ED10F01389339
:1016100092823AD192820F01388336D1F051F2E0B2
:10162000010AF4E0030AF6E0010A2ED10F01389511
:1016300092942AD10F013895928426D192840F0179
:10164000388522D1F051F2E0010AF4E0030AF6E015
:10165000EBD70F013897929617D10F0138979286E2
:1016600013D192860F0138870FD1F051F2E0010AB1
:10167000F4E0030AF6E0D8D7929806D1928804D114
:10168000F051FAE0010AFAE0020AFED00F01389B9D
:10169000929AFAD00F01389B928AF6D0928A0F0163
:1016A000388BF2D0F051F2E0010AF4E0030AF6E0E0
:1016B000BBD70F013C919690E7D00F013C919680EB
:1016C000E3D096800F013C81DFD0F051F2E0010AB7
:1016D000F4E0030AF6E0A8D70F013C939692D4D029
:1016E0000F013C939682D0D096820F013C83CCD0E0
:1016F000F051F2E0010AF4E0030AF6E095D70F0199
:101700003B959594C1D00F013B959584BDD09584B0
:101710000F013B85B9D0F051F2E0010AF4E0030A71
:10172000F6E082D70F013C959694AED00F013C9520
:101730009684AAD096840F013C85A6D0F051F2E0A1
:10174000010AF4E0030AF6E06FD70F013A9B949A7E
:101750009BD00F013A9B948A97D0948A0F013A8BC1
:1017600093D0F051F2E0010AF4E0030AF6E05CD70E
:101770000F013B9B959A88D00F013B9B958A84D0A3
:10178000958A0F013B8B80D0F051F2E0010AF4E022
:10179000030AF6E049D70F013B9F959E75D00F01D4
:1017A0003B9F958E71D0958E0F013B8F6DD0F05180
:1017B000F2E0010AF4E0030AF6E036D70F013B9DA0
:1017C000959C62D00F013B9D958C5ED0958C0F014E
:1017D0003B8D5AD0F051F2E0010AF4E0030AF6E042
:1017E00023D7929E51D0928E4FD0F051FAE0010A49
:1017F000FAE04AD7929C48D0928C46D0F051FAE059
:10180000010AFAE041D7939E3FD0938E3DD0F0512C
:10181000FAE0010AFAE038D7939C36D0938C34D0A2
:10182000F051FAE0010AFAE02FD7EF5101E1E3D6D7
:10183000010A01E1F3D6030A01E104D7010A01E13B
:1018400014D7070A01E11CD7010A01E12BD7030ACB
:1018500001E13BD7010A01E14BD70F0A01E15BD758
:10186000010A01E16BD7030A01E17BD7010A8CE091
:10187000070A9DE0010AAEE0030AB7E0010ABEE0F4
:101880001F0AC5E0010ACCE00001F02B76D6EE512C
:101890009AEC1FF0DECFE7F0DDCFE8F020EE06F0A7
:1018A0000AD8E7C0DEFFE8C0DEFFDD6A1200F66E90
:1018B000F76AF60E1200E551D926E651DA22120037
:1018C0007E6B7F6B776B786B010E1B6E0B0E1A6E47
:1018D0001C68A6EC56F0010E1B6E0C0E1A6E1C68EE
:1018E000A6EC56F0C4C27AF1C5C27BF101017C6B53
:1018F0007D6B7B517727000E78231B6A1A6A7BC1A8
:101900001CF0A6EC56F001017E4B7F2B7A516FD96B
:101910007AC11CF0A6EC56F001017E4B7F2B7A0EAB
:101920001A6E010E1B6E790E1C6E010E1D6E8FEC71
:101930005CF00101806B63D95AD961D91C6EA6ECA9
:1019400056F070D9030E8065F6D7795150D979C118
:101950001CF0A6EC56F001017E4B7F2B27EC62F0C9
:1019600056D945D979C11CF0A6EC56F001017E4B41
:101970007F2B75EC60F01AC07AF11BC07BF11CC0A4
:101980007CF11DC07DF1806B3AD931D938D91C6EFC
:10199000A6EC56F047D9030E8065F6D790EC60F0C0
:1019A0001AC07AF11BC07BF11CC07CF11DC07DF117
:1019B000806B25D91CD923D91C6EA6EC56F032D9E0
:1019C000030E8065F6D7660E0001656F010E666F27
:1019D0000EEC5FF00101806BF3D8A6EC56F022D933
:1019E000070E8065F9D7660E0001656F010E666F00
:1019F000E4EC5DF00101806BE3D8A6EC56F012D95F
:101A0000070E8065F9D7660E0001656F010E666FDF
:101A10009CEC5FF00101806BD3D8A6EC56F002D9A4
:101A20000F0E8065F9D7660E0001656F010E666FB7
:101A300086EC5FF00101806BC3D8A6EC56F0F2D8BB
:101A40000F0E8065F9D7660E0001656F010E666F97
:101A500091EC5FF00101806BB3D8A6EC56F0E2D8B0
:101A60000F0E8065F9D799EC60F01AC07AF11BC0AF
:101A70007BF11CC07CF11DC07DF1806BC0D8B7D854
:101A8000BED81C6EA6EC56F0CDD8030E8065F6D7F6
:101A9000660E0001656F010E666FD5EC5DF0010109
:101AA000806B8ED8A6EC56F0BDD80F0E8065F9D7A6
:101AB000660E0001656F010E666FC6EC5DF00101F8
:101AC000806B7ED8A6EC56F0ADD80F0E8065F9D7A6
:101AD00087EC60F01AC07AF11BC07BF11CC07CF16E
:101AE0001DC07DF1806B8BD882D889D81C6EA6EC86
:101AF00056F098D8030E8065F6D7C4EC61F087D80D
:101B000076D879C11CF0A6EC56F001017E4B7F2BF4
:101B1000766B470E766501D01AD0765178EC5EF080
:101B200076D865D879C11CF0A6EC56F001017E4B41
:101B30007F2B76516AEC5EF06AD859D879C11CF0D7
:101B4000A6EC56F001017E4B7F2B762BE2D724ECDE
:101B500062F05DD84CD879C11CF0A6EC56F00101BA
:101B60007E4B7F2BCCEC61F052D841D879C11CF070
:101B7000A6EC56F001017E4B7F2B772904E17829F2
:101B800002E1776B786B7EC11AF07FC11BF077C1E1
:101B90001CF0A6EC56F001017E4B7F2B7EC11AF0A3
:101BA0007FC11BF078C11CF0A6EC56F001017E4B02
:101BB0007F2B000120EE06F0E551D926E6512BD00F
:101BC000660E8025D96EDA6A010EDA22DF50772799
:101BD000000E78237EC11AF07FC11BF0660E8025AF
:101BE000D96EDA6A010EDA22DF501C6E12007727F6
:101BF000000E78237EC11AF07FC11BF0000C7A0E14
:101C00008025D96EDA6A010EDA22DF501200010156
:101C1000796F79511200DA2200C2DEFF01C2DEFFC5
:101C2000DD6A120001017E4B7F2B802B1200D76FE3
:101C3000100E0001DB6FD96B010E9DEC52F0D80E37
:101C4000D56FD5C0E6FFE66AEAEC41F055D9EAEC7B
:101C500041F0100E9DEC52F0E6EC37F0EAEC41F06A
:101C60000001D70507E1D8511F0B8009D86F030188
:101C7000008104D0D8511F0B4009D86FFC0E000121
:101C8000D817E30ED817EA0E5CD9D8C0DFFFDB2BDC
:101C9000EA0E2CD9DBEC37F0CBEC37F085EC4CF0CE
:101CA000040E0001DB27DA6B030102AD30D0000126
:101CB000DA8F0301D151DD5D29E20001DA8D0301E4
:101CC0000089C24BC32B9451C219C31102E1E06BCE
:101CD0001AD094510001D56FD66B0301C251000197
:101CE000D55D0301C3510001D6590EE20301E02B7B
:101CF0009551E05D0CE3E06BB4EC3FF0000907E1C7
:101D00000301C26BC36B0001DA9D0301009903015B
:101D100000A304D00001DA8B030100930001DA99DB
:101D200003019951981907E10001D351D41103E13E
:101D3000F00EDA1723D003019951981916E1F00E2D
:101D40000001DA17335002E002D911D9325007E00E
:101D5000DA510F0BD56FD52BDA51D51908D90101FE
:101D6000B9510CE00001F3D808D00001D351D411CF
:101D700005E052EC3BF0D56FDA19F9D8EA0E000114
:101D8000E0D8DAC0DFFFDB2BEA0EB0D8060E1C6EFF
:101D9000030E1D6E1F6A020E1E6E85EC4CF0020EC5
:101DA0000001DB270301995198190FE00001D3517D
:101DB000D4110BE0EA0E1A6E090E1B6EDB0E1C6EC0
:101DC000010E1D6E96EC17F018D003019951981969
:101DD00014E1335008E0EA0E1A6E090E1B6EDB0E9A
:101DE0001C6EE4EC58F0325008E0EA0E1A6E090E50
:101DF0001B6EDB0E1C6EC9EC5BF0EA0E0001A1D875
:101E0000D0C0DFFFDB2BD351D4111AE0EA0E6ED81D
:101E1000D1C01CF0D2C01DF0D3C01EF0D4C01FF042
:101E200085EC4CF0D1C09AF0D2C09BF0D3C09CF0AE
:101E300000016DD898D87CD85FEC24F0D3511AD02B
:101E400003019951981917E0F90E1A6E0A0E1B6ECC
:101E5000D90E1C6E1D6A96EC17F0F90E00019A6FF0
:101E60000A0E9B6FD9C09CF052D879D861D85FEC2C
:101E700024F0D951DB2706C365F007C366F008C319
:101E800067F009C368F00001DB51F00F696F490E7C
:101E90006A6F000E6B6B97EC37F0EA0E1A6E090E44
:101EA000ADEC05F0100E1E6E85EC4CF03AD8C46F08
:101EB000020EC56FEA0EC66F090EC76FDBC0C8F011
:101EC00050EC11F0EA0E000111D8CBEC4DF0CBEC48
:101ED00037F085EC4CF0040E0001DB27F00EDB251B
:101EE0000301C66FC76BFF0EC723FF0CDB251A6EFD
:101EF0001B6A090E1B2212000F0EE66E010EE66E23
:101F0000E66AE66AEA0EE66E090EE66E12009D6B60
:101F100006C39EF007C39FF008C3A0F009C3A1F059
:101F20001200220E0001C26F030EC36FCA0E120010
:101F3000A36FDBC0A4F0EA0EA56F090EA66FA76B16
:101F40001200DB25D96EDA6A090EDA221200DA51A4
:101F50000F0BD56F020ED527DA51D5191200220EBC
:101F6000A26F030E1200320EA26F030E1200F00BCE
:101F7000D519DA6F12000001866B876B8F6B906B3F
:101F80001B6A1A6A7AEC5FF069D98EC083F0846BA1
:101F90008351846F836B78D97AEC5FF05FD98E516F
:101FA0008327000E8423835155EC61F083C088F0B1
:101FB00084C089F00001916B91518A0F5ED97AEC4F
:101FC0005FF045D93CD9030E9165F6D75DD97AEC1F
:101FD0005FF044D98AC06CF08BC06DF08CC06EF09D
:101FE0008DC06FF08EC070F056EC53F04DD97AEC86
:101FF0005FF034D98E51DAEC55F00001916B9151BC
:102000008A0F3BD97AEC5FF022D919D9030E91657A
:10201000F6D78AC01AF08BC01BF08CC01CF08DC0A4
:102020001DF0B4EC60F0916B91518A0F26D97AECD7
:102030005FF00DD904D9030E9165F6D78AC01AF066
:102040008BC01BF08CC01CF08DC01DF0BDEC60F08F
:10205000916B9151730F11D97AEC5FF0DF6E07D954
:10206000EED8070E9165F5D788A105D0730E656F80
:10207000666BF1EC5BF00001916B9151730FFDD831
:102080007AEC5FF0DF6EF3D8DAD8070E9165F5D7FA
:1020900088A305D0730E656F666B55EC5CF000018C
:1020A000916B9151730FE9D87AEC5FF0DF6EDFD856
:1020B000C6D80F0E9165F5D788A505D0730E656F4C
:1020C000666B41EC5CF00001916B9151730FD5D8B8
:1020D0007AEC5FF0DF6ECBD8B2D80F0E9165F5D7F2
:1020E00088A905D0730E656F666B62EC5AF000012B
:1020F000916B9151730FC1D87AEC5FF0DF6EB7D856
:102100009ED80F0E9165F5D788AB05D0730E656F1D
:10211000666B2DEC5CF0BDD891518A0FAED87AEC8D
:102120005FF095D88CD8030E9165F6D788A70AD0B2
:102130008AC01AF08BC01BF08CC01CF08DC01DF043
:1021400056EC5FF00001916B9151730F96D87AECC9
:102150005FF0DF6E8CD873D80F0E9165F5D788AF1E
:1021600005D0730E656F666B2FEC5EF00001916B0E
:102170009151730F82D87AEC5FF0DF6E78D85FD818
:102180000F0E9165F5D789A105D0730E656F666B4B
:1021900020EC5EF07ED891518A0F6FD87AEC5FF018
:1021A00056D84DD8030E9165F6D788AD0AD08AC0AF
:1021B0001AF08BC01BF08CC01CF08DC01DF0C8EC59
:1021C0005FF062D87AEC5FF049D88E51DBEC5CF0BE
:1021D0000001856B470E856501D017D055D87AEC84
:1021E0005FF03CD88E51010ED8B4000E1E6E8551A2
:1021F00050EC5BF049D87AEC5FF030D88EC01EF01E
:1022000085513BEC5BF0852BE5D73ED87AEC5FF04F
:1022100025D88E5105EC5CF037D87AEC5FF01ED8EB
:102220008E516EEC5FF00001862904E1872902E1FE
:10223000866B876B86C071F087C072F01200D96E12
:10224000DA6ADF508627000E8723912B000CDF6EA1
:1022500000018F4B902B91518A0F120000018E6F5D
:102260008F4B902B8E518627000E8723000C000188
:102270008F4B902B9151730F1200D96EDA6A8FC079
:102280001AF090C01BF012008FC01AF090C01BF023
:10229000120000018A6B8B6B8C6B8D6B916B120043
:1022A0000101656B646B626B606B616BC2C09AF01D
:1022B000C3C09BF0100E00019C6F010E9D6F000EBD
:1022C0009E6F010E9F6F7CEC2BF0C851C96FCA6BDB
:1022D0000F0EC927000ECA23040ECB6FCA35CA33AE
:1022E000C933CB2FFBD7C9510101636F635104E19F
:1022F000010E636F626B0AD0C8C0C9F00F0E0001F7
:10230000C917010ED8A4000E0101626F62052EE10B
:10231000646B6351100DF350F00F656F18D0200EF1
:102320000101642516D9100E6425E96EEA6A010ED2
:10233000FAD8010165510001C625E96E000EC721DA
:10234000EA6EEF50C919DF6E0101642B652B6351F2
:10235000C6D8010165510CD9C951CB5DCC51800A59
:10236000CD6FCA51800ACD5940E2D9D70001C8517A
:10237000C625C96F000EC721CA6FC8510F0BC95DB2
:102380000101606F0001CA51D8A0CA050101616F47
:10239000656BE4D865610CD065516025D96E000E7F
:1023A0006121DA6E300EC4D8EA22DFCFEFFF09D008
:1023B000D5D8651904E1B0D8800EDF6E02D0ACD854
:1023C000DF6A652B0F0E6565E4D7656B200E65250A
:1023D000C0D8000E6525E96EEA6A010EA4D8300E59
:1023E0000101A6D889D86565F1D7100E9DEC52F091
:1023F000500EE66E010EE66EEAEC41F00101656BEF
:1024000034D00101646B400E6425ADD8655167D8A6
:10241000C6C0CBF0C7C0CCF090D864510001CB252A
:10242000E96E000ECC21EA6EEF50CD6F500E010127
:1024300064256ED8EA22EF500001CD19DF6E01014C
:10244000642B0F0E6465DFD7500E1A6E010E1B6EE3
:102450005BD840D885EC4CF0500E0001866F010E21
:1024600072D8DDEC5BF00101652B0001C969CA6916
:10247000010163517DD861D865510001CD6FCE6BEC
:10248000CB51CD5DCE51800ACF6FCC51800ACF5950
:10249000B8E30101656B400E652565D8200E652502
:1024A000E96EEA6A010E3FD8500E0101652530D869
:1024B00023D86565F0D7400E0001866F010E43D822
:1024C000DDEC5BF0C4C01AF0C5C01BF01DD802D80B
:1024D00085EF4CF01D6E1F6A100E1E6E100C000171
:1024E000C96FCA6BC93BCA3BF00ECA17C9510F0B63
:1024F000CA13F00EC917F00CEA22EF500001C919F7
:10250000DF6E0101652B0F0C400E1C6E010E1200D8
:10251000E96EEA6A010E1200300E6525D96EDA6A9C
:10252000010EDA221200EA22EF500001C96F1200F8
:102530006525E96EEA6A010E1200C951CB27CA511E
:10254000CC2301011200876FC2C088F0C3C089F09C
:102550001200D96EDA6A010EDA2212000001C851A7
:102560000F0B01011200D96EDA6A010EDA22120095
:102570000001CB6FCC6B12000001746F736B756B35
:10258000080E74192EE127EED4F0DE50DE10D8B418
:10259000120026D98F0E6A25D96E050E6B21DA6ED0
:1025A000DF5014E1D3C7E8FFFF0FE8CFD3F70DD911
:1025B000DECFD6F7DDCFD7F708D9DE6ADD6A27EEA2
:1025C000D3F0DF5014D9DE6ADD6A05D027EED6F0ED
:1025D000DE06000EDD5A27EED4F0DE06000EDD5AD0
:1025E000000C27EED4F0250EDE5C020EDE5844E22D
:1025F000200E741943E127EED3F0060EDF603CD0C5
:10260000EFD810D9000EDF6A27EED4F0DE2ADD22E3
:1026100027EED6F007EED3F0EF50020DB60EF324FE
:10262000E96E070EF420EA6EDECFEEFFDDCFEDFFA0
:102630006A696B6927EED6F0FCD827EED4F0DECFBE
:102640006EF0DDCF6FF06C516E5F6D516F5B6A5154
:102650006E276B516F2327EED3F0DF50C8D86EC0C2
:10266000DEFF6FC0DDFFD3C7E8FF010FE8CFD3F770
:10267000000EA2EC52F083D0736981D0B1D8D2D8C9
:1026800074C0DFFF27EED4F0DE2A000EDD2227EE35
:10269000D6F0DE2ADD2290D864EC54F027EED4F098
:1026A0001A50DE5C1B50DE5834E3010E0001756FDA
:1026B00083D864EC54F01A500001766F26D090D87D
:1026C000900E6C6F050E6D6F76516C5F000EA2D888
:1026D000DF506E6F71D864EC54F0E50E00016F6F3F
:1026E000FF0E706F1A506F271B50702376516F5F6B
:1026F000000E705B6FC0F6FF70C0F7FFF86A08004D
:10270000F5506E1901E0756B7607765102E0755150
:10271000D6E10001755133E063D84ED864EC54F033
:10272000900E00016C6F050E6D6F1A506C5F1B50A0
:1027300071D8DF6A41D864EC54F027EED6F05FD848
:102740001A5000016A5F1B506B5B3FD86AC0DEFF06
:102750006BC0DDFF27EED6F052D827EED4F069D853
:102760006A516C5F6B516D5B27EED3F0DF503FD841
:102770006CC0DEFF6DC0DDFF010EE8CFD2F773291C
:10278000D8A4120083EC52F064C21AF065C21BF0A8
:102790000EEC15F064EC54F01AC071F01BC072F02E
:1027A00064C260F065C261F000012ED871C063F0B0
:1027B00072C064F0B6EF40F0E50E1A6EFF0E1B6EAD
:1027C0001A10D8A4000E1C6E120027EED3F0DF50B2
:1027D000020DB60EF324D96E070EF420DA6E120045
:1027E00027EED4F0DECF6AF0DDCF6BF01200020DE1
:1027F000C40EF324D96E070EF420DA6E1200DECF79
:102800006AF0DDCF6BF0120060516111D8A4000EA8
:10281000626F12006D5B6A516C25D96E6B516D2130
:10282000DA6E1200900E6A25D96E050E6B21DA6EF3
:102830001200DECF6CF0DDCF6DF01200D8D0010EAB
:10284000966554D025D922C21CF023C21DF0A9ECF4
:1028500059F0DBD864EC54F0F7D8806F070EA32151
:10286000816F94C0D9FF95C0DAFFDF50826FDCEC36
:1028700035F089EC57F0C9D864EC54F0E5D8FBD8B2
:10288000A24BA32B9869996996519A6F9B6B9851AB
:102890009A2799519B23120E9C6F020E9D6FA25195
:1028A0009C5FA3519D5BD8909D319F6F9C319E6F23
:1028B0009A519E5D9B519F5903E2B6D8E3D806D04A
:1028C000FF0E9625A06FA16BFF0EA1239429886FA0
:1028D000000E9521896FC0D83DEC38F096D864EC95
:1028E00054F0ADD8C1D8D8A4200E0DD01EC21AF015
:1028F0001FC21BF093D864EC54F0A1D81EC260F044
:102900001FC261F06ED0626FA4C063F0A5C064F016
:10291000B6EF40F0965125E0BBD820C21CF021C292
:102920001DF0A9EC59F071D864EC54F08DD8A3D8FF
:10293000A24BA32B79D89B6F98319A6F96519A5DD1
:10294000000E9B5903E270D89DD803D096C0A0F02A
:10295000A16B94C088F095C089F07ED83DEC38F02A
:10296000BDD71CC21AF01DC21BF058D864EC54F03D
:1029700066D81CC260F01DC261F033D024C21AF0C8
:1029800025C21BF04BD864EC54F059D824C260F037
:1029900025C261F026D026C21AF027C21BF03ED80D
:1029A00064EC54F04CD826C260F027C261F019D014
:1029B00028C21AF029C21BF031D864EC54F03FD879
:1029C00028C260F029C261F00CD02AC21AF02BC2D2
:1029D0001BF024D864EC54F032D82AC260F02BC229
:1029E00061F0000160516111D8A4000E8CD797519D
:1029F000D2E0010A01E123D7030AC0E0010A8AE01C
:102A0000070AD6E0010AE1E01200D80E1A6E070E9E
:102A10001B6E1A10D8A4200E1C6E12001A501B1028
:102A2000D8A4000E1C6E1200120E986F020E996F41
:102A3000A251985FA351995BD890993112001AC0A6
:102A4000A4F01BC0A5F012001AC0A2F01BC0A3F096
:102A5000D80E0001A2251200D80EA2258A6F070EFB
:102A6000A3218B6FA0511200D80E0001606F070EDA
:102A7000616F60111200D96E070EA321DA6E200E6D
:102A8000DF6E200C9A6F9831A06F9AC0A1F01200EF
:102A9000D80E1A6E070E1B6E12008F6B74C2A2F155
:102AA00075C2A3F1A251A311D8A4000EA46F926B1A
:102AB0002ED09251090DF3508125886FF450822158
:102AC000896F000E83218A6F88C1F6FF89C1F7FFE5
:102AD0008AC1F8FF21EE93F0080E03D9FEE293C1FC
:102AE0001AF094C11BF08551F7EC13F0DECF88F19A
:102AF000DDCF89F1900E88251C6E050E89211D6E93
:102B000077EC40F01A501B1005E00101922B845124
:102B1000925DCFE301018451925D01E3ADD0955107
:102B20009611971101E09DD09851991101E1A4D01F
:102B30009B51886F896B8551D3C78AF18AC18BF10C
:102B40008C6B8B5F000E8C5B88518B1903E1895174
:102B50008C19D8A491D08529916F906B9B5114E06A
:102B6000912B9105020DB60EF324D96E070EF420B9
:102B7000DA6EDE50DE1003E1010E906F05D027EE15
:102B8000D3F09151DE5CECE2905176E1090E9DECC0
:102B900052F09C0EE66E010EE66EEAEC41F0010189
:102BA0008551886F896B882B000E8923895114E128
:102BB000070E885D11E280D8B80E8825D96E070E01
:102BC0008BD80AE079D8C60E8825D96E070E7BD837
:102BD0009C6F050E8B219D6F8551886F896B020E4E
:102BE00085D814E1070E885D11E266D8BA0E8825F3
:102BF000D96E070E71D80AE05FD8C80E8825D96E45
:102C0000070E61D89E6F050E8B219F6F8551886FCF
:102C1000896B030E6BD814E1070E885D11E24CD866
:102C2000BC0E8825D96E070E57D80AE045D8CA0EC3
:102C30008825D96E070E47D8A06F050E8B21A16F8E
:102C40009C0E0001E56F010EE66F01D815D005005E
:102C5000FA6E01019851FD6E9951FE6EFF6AFA50AD
:102C60001200010E8F6F86C1D9FF87C1DAFF92C1B2
:102C7000DFFFA26BA36BA46B0101A251A311A411EE
:102C800018E0A2C11AF0A3C11BF0A4C11CF064ECAF
:102C900054F01AC08DF11BC08EF1A2C160F0A3C127
:102CA00061F0A4C162F08DC163F08EC164F0B6EC36
:102CB00040F001018F5112008551886F896BD890C7
:102CC0008837893712008921DA6EDECF8AF1DDCFAD
:102CD0008BF1900E8A2512008921DA6EDE50DE100B
:102CE00012000900F5CFDEFFE80612008827000E6B
:102CF000892389511200856B62518525D96EDA6A64
:102D000085516B0FE96EEA6ADFCFEFFF852B0F0E5F
:102D10008565F2D70A0E2F6E010E2E6E856BC4D814
:102D2000B5D800D98565FBD7856BB0D8DF50636F08
:102D3000646BF50E6325F66EF50E6421F76EF86A86
:102D4000000EF822A3D80800F5CFDFFF852B0F0E69
:102D50008565EBD760C01AF061C01BF0CEEC31F096
:102D60002F0401E184D0856B98D86329D96EBDD832
:102D7000656F8CD8DF506519836F8FD8CFD8B5D8E1
:102D8000A4D8846F8319816F88D86329D96EADD890
:102D90009CD8826F7F0E836508D01B0E83C063F0C2
:102DA000AFD87B6F64517C6F05D0D89083357B6F33
:102DB0007C6B7C377BC083F07F0E826508D01B0E56
:102DC00082C063F09DD87D6F64517E6F05D0D8902E
:102DD00082357D6F7E6B7E377DC082F07F0E84658D
:102DE00008D01B0E84C063F08BD87F6F6451806F56
:102DF00005D0D89084357F6F806B80377FC084F09A
:102E000045D884D881198319DF6E47D86329D96ED4
:102E100052D865296FD881198219DF6E3ED8020E0B
:102E20006325D96E48D8020E652564D881198419A6
:102E3000DF6E33D873D83FD8020E65255BD8676F35
:102E400085516025686F000E6121696F6829E96E00
:102E5000000E6921EA6EEF506A6F58D86A19671937
:102E60008119DF6E040E85270F0E85657DD76B0EE9
:102E70001A6ECDEC23F0856B17D808D853D885652A
:102E8000FBD72F062F5001E04FD712008551602548
:102E9000D96E000E6121DA6E120085516025636FD4
:102EA000000E6121646F120085516B0FD96EDA6AD2
:102EB000DF50636F1200000E6421DA6E85516025C9
:102EC000656F000E6121666F1200656F8551602588
:102ED000666F000E6121676F020E6625D96E000EC7
:102EE0006721DA6EDF5065191200000E6421DA6E78
:102EF000DF501200E96E000E6621EA6EEF501200FC
:102F0000646BD8906337643763191200855160256C
:102F1000E96E000E6121EA6EEF501200030E632588
:102F2000D96E12006351DF1A852B0F0C99C31EF066
:102F30001C50D96EDA6ADF501F6E1D5014E01E500F
:102F4000DAD8DE2810E0E6D8D6D8EAD883EC3BF011
:102F5000F5D865BFACD0655105E1100E645D01E3A5
:102F6000C2D0A5D0C0D01D5001E0A1D01E50C3D802
:102F7000DE2801E19CD0CED8BED8D2D883EC3BF07D
:102F8000DDD8230E03012FEC47F06AEC20F0F5505A
:102F90000001666F676B6451665D6751800A686FF8
:102FA0006551800A685901E29ED081D0ACD8030EE9
:102FB000DF6E1F2AA8D8DF6A1E506CEC0AF0DFA073
:102FC00003D0A1D8000EDB801E506CEC0AF0DFA20B
:102FD00003D099D8000EDB821E506CEC0AF0DFA4FF
:102FE00003D091D8000EDB841F2A73D08CD8050E35
:102FF000DF6E1F2A88D8DF6A1E506CEC0AF0DFA64D
:1030000003D081D8000EDB801E506CEC0AF0DFA8E4
:1030100003D079D8000EDB821E506CEC0AF0DFAAD8
:1030200003D071D8000EDB846ED8DF500101B86F79
:10303000DBD769D8060EDF6E1F2A65D8D2C3DFFF43
:103040001F2A2DEC62F0800AA00F05E32DEC62F040
:10305000800A600F03E357D8200E04D054D82DEC1B
:1030600062F03F0BDF6EC0D74ED8070EDF6E1F2A0F
:103070004AD8DF6A1E506CEC0AF0DFAE03D043D8AA
:10308000000EDB801E506CEC0AF0DFACADD73BD8F5
:10309000000EDB82A9D70301CF69D06B1E502BD85D
:1030A0001F501A24E96E000E1B2056D89DD71E50C3
:1030B00022D8DF50020AEFE0010A01E177D7070AC0
:1030C000EDE0010A93E0030AB4E0010ACDE00F0A43
:1030D000E5E01E2A100E1E1801E11E6A1E500301B3
:1030E000981901E02AD71EC099F31C50D96EDA6AEC
:1030F0001FC0DFFF1200020D9A0EF324D96E030EDB
:10310000F420DA6E12001F501A24D96E000E1B2014
:10311000DA6E1200FE0E0001606F61691E5012002F
:10312000DF50626F636B60516227615163234A0E07
:103130006225F66EF70E6321F76E12001FC064F071
:10314000656B6427000E65231C50D96EDA6ADF5068
:10315000645F000E655B000CEA6EDFCFEFFF1200CC
:103160009FD0000179697A697B697C69A6D000A546
:1031700021D0D4512CEC58F01D5002E1CFD80DE3F2
:103180000301D4512CEC58F00D0E01D0D4D8E82E08
:10319000FDD7B0D859EC51F06ED00301D4512CECCE
:1031A00058F0A8D859EC51F00D0E01D0BED8E82E39
:1031B000FDD761D002A981D0D6512CEC58F01D501A
:1031C00002E1ACD80DE30301D6512CEC58F00D0E02
:1031D00001D0B1D8E82EFDD78DD859EC51F04BD0A5
:1031E0000301D6512CEC58F085D859EC51F00D0E56
:1031F00001D09BD8E82EFDD73ED000A504D0D551F4
:103200002CEC58F005D002A904D0D7512CEC58F082
:1032100098D800017C5102E19DD81DE379C075F07A
:103220007AC076F07BC077F07CC078F00D0E05D0C8
:10323000D8907833773376337533E82EF9D775C065
:1032400065F076C066F077C067F078C068F060D847
:1032500059EC51F010D079C065F07AC066F07BC0AF
:1032600067F07CC068F054D859EC51F00D0E01D0D5
:103270005CD8E82EFDD765C079F066C07AF067C0EB
:103280007BF068C07CF019D0DA512CEC58F059D89A
:103290007C51C4E15FD8C2E2DED7000162D80DD014
:1032A000030102510F0B01E15CD7020A01E15FD774
:1032B000060AA3E0020AE8E0F0D700017C517B1186
:1032C0007A1103E1C80E795D09E3CE0E7927FF0E6E
:1032D0007A237B237C230301038103D042D803019B
:1032E000039179C071F07AC072F07BC073F07CC03A
:1032F00074F012001AC065F01BC066F01CC067F0C5
:103300001DC068F07D0E696F6A6B6B6B6C6B7D0C1A
:103310007D0E696F6A6B6B6B6C6B7D0C1F0E1A5C9C
:10332000AC0E1B58DF0E1C581200D8906833673360
:10333000663365331200D8901D321C321B321A32AC
:1033400012001AC079F01BC07AF01CC07BF01DC0BF
:103350007CF012001F0E795DAC0E7A59DF0E7B599E
:103360001200796B7A6B7B6B7C6B12000101DDA51F
:1033700006D0800E00017F6F030E7E6F030CDDC14F
:1033800080F0030E0001801705E0800E7F6F040EB1
:103390007E6F040C8A867E517F1107E1000E756FE7
:1033A000040E746FA3EC06F006D07EC074F07FC0EC
:1033B00075F0A3EC06F00101D2050EE1010E1C6EC2
:1033C000220E62EC5FF01C6A400E62EC5FF01C6A39
:1033D000410E62EC5FF012D0F0C11CF0120E62ECF4
:1033E0005FF0F1C11CF0130E62EC5FF01C6A400E3E
:1033F00062EC5FF01C6A410E62EC5FF00101DD835C
:10340000E70EDD1700017E517F1106E193EC36F0E7
:10341000050E60EC2FF030D00101D20509E1010E5C
:103420000001606F000E616F060E60EC2FF024D07B
:10343000000E86D860EC2FF000017E51806F7F5126
:10344000816F826B836B0C0ED8907ED8E82EFCD7F0
:1034500062D851D89FEC42F060C068F061C069F05A
:1034600062C06AF063C06BF00101E2516DEC57F08D
:103470000101E2514DEC45F05DD839E0E75102E140
:1034800053D80BE33ED809EC2EF09FEC42F00C0E23
:1034900024EC28F0E82EFCD712D0E4C180F0E5C17E
:1034A00081F0E6C182F0E7C183F00C0ED8900001F4
:1034B0004BD8E82EFBD72FD81ED89FEC42F060C027
:1034C00084F061C085F062C086F063C087F084C07C
:1034D00068F085C069F086C06AF087C06BF00101B2
:1034E000E3516DEC57F00101E3514DEC45F0000163
:1034F0007E6B7F6B12007D0E646F656B666B676B16
:103500007D0CE4C160F0E5C161F0E6C162F0E7C1A5
:1035100063F000017D0C80C060F081C061F082C06A
:1035200062F083C063F01200E429FF0EE5590F0E2C
:10353000E65912000101E451E511E611E71112000C
:103540000001606F616F050C8037813782378337E8
:1035500012009E96C6AEC7D0C69E2D6A01015BECD6
:1035600058F0DECF04F0DDCF05F004C0D9FF05C070
:10357000DAFF010EDF6EAD6BAE6B120024B21200EB
:1035800022C0ADF123C0AEF122C0D9FF23C0DAFFC3
:10359000DF502C6E20EE01F02250D9262350DA2283
:1035A000DECFAFF1DDCFB0F1050E2226000E2322D3
:1035B000E90E221807E1020E231804E1E40E226E40
:1035C000020E236E24902050221804E1215023186B
:1035D00001E12482C580020E2D6E020CC5AC04D020
:1035E00014D0040E47EF58F0D8903630056E3530C1
:1035F000046E0450C96E35A003D00B0E2D6E0B0C5B
:10360000030E2D6E030CC5AC02D0262AEAD7C58264
:103610003650060B046E056AF00E0410356E055028
:10362000366E3580010E2A6ED6D72A0415E0AFC15A
:10363000D9FFB0C1DAFFDECF35F0DDCF36F00101C2
:1036400020EE03F06AD8DECFC6F2DDCFC7F220EE5F
:1036500002F063D8DF502B6E35C0C9FF35A0D0D73C
:10366000050E2D6E050CC5AC05D0262AC59C050E91
:1036700047EF58F02B062B2807E156EC5EF02C2E76
:1036800001D02AD0C582A7D74DD8DF50C96E02011C
:10369000C64BC72B1200C5AC06D0262A040E47EC39
:1036A00058F0C59C1200C586080E2D6E080C080E39
:1036B0002D6EC586080C36D8C9CFDFFF0201C64B78
:1036C000C72B2B0604E0C59A060E2D6E03D0C58AC3
:1036D0004DEC5EF0C5881200000E47EF58F0262A28
:1036E000060E47EF58F02D5001E148D7010ACAE015
:1036F000030A9BE0010AB7E0070AEEE0010ACBE00B
:10370000030AD5E0010AE8E00F0AD5E0020A01E168
:1037100065D7010A01E177D7E2D7AF51D926B05179
:10372000DA221200C6C2D9FFC7C2DAFF12000101B5
:10373000DDA506D0800E00017F6F030E7E6F030CA7
:10374000DDC181F0030E0001811705E0800E7F6F5F
:10375000040E7E6F040C0101D25109E1400E0001FC
:10376000806505D0800E7F6F020E7E6F020C8A8608
:103770000101E151F0EC60F0B3D8A3EC06F00101D7
:10378000D20522E180C01CF0220E62EC5FF00A0E2E
:103790003EEC5EF000018D6FF00E8D178D878DC0B1
:1037A0001CF00A0E62EC5FF0400E1C6E62EC5FF0E3
:1037B0001C6A410E62EC5FF0D2C160F0010E0001A4
:1037C000616F60EC2FF008D01C6A400E62EC5FF075
:1037D0001C6A410E62EC5FF00101D25105E180C02C
:1037E0001CF0000E62EC5FF06EEC62F0800E04ECF8
:1037F00062F000018E6B0BD08E517E25D96E000ECB
:103800007F21DA6EDF5004EC62F000018E2B8051D4
:103810008E5DF2E36CEC62F00101DD81E70EDD17F5
:10382000DFEC54F0030E60EC2FF00001686B696B65
:103830000A0E6A6F6B6B0101E1516DEC57F00101EB
:10384000E1514DEC45F09AEC1AF046E0E75103E106
:1038500094EC1AF00CE381EC1AF009EC2EF09FECDA
:1038600042F00C0E24EC28F0E82EFCD71DD0E4C169
:1038700081F0E5C182F0E6C183F0E7C184F00C0E6F
:10388000D89000018137823783378437E82EF8D704
:1038900081C060F082C061F083C062F084C063F0D8
:1038A0007BEC1AF09FEC42F060C089F061C08AF0B6
:1038B00062C08BF063C08CF089C068F08AC069F088
:1038C0008BC06AF08CC06BF00101E3516DEC57F0D6
:1038D0000101E3514DEC45F000017E6B7F6B12005E
:1038E000000E0001756F040E746F040CE5C0D9FF63
:1038F000E6C0DAFFDECFE9F0DDCFEAF0000120EE2E
:1039000002F0C7D8DECFECF0DDCFEDF0010EEB6FAB
:10391000EF69E9C098F0EAC099F059EC33F0EE6F26
:10392000ECC081F0EDC082F0010E836F6AEC3CF0D8
:103930004EEC43F0000908E0ECC060F0EDC061F02F
:10394000EBEC37F06051EF6FEEAFEFBF92D0EB6B67
:103950006CD0EF5102E189908CD089808AD0EF51F0
:1039600002E1899286D0898284D0EF5102E1899464
:1039700080D089847ED0EF5102E189967AD0898601
:1039800078D0EF5102E1899874D0898872D0EF51D4
:1039900002E1899A6ED0898A6CD0EF5102E18D9054
:1039A00068D08D8066D0EF5102E18D9262D08D8219
:1039B00060D0EF5102E18C945CD08C845AD0EF51EE
:1039C00002E18D9456D08D8454D0EF5102E18B9A50
:1039D00050D08B8A4ED0EF5102E18C9A4AD08C8A1B
:1039E00048D0EF5102E18C9E44D08C8E42D0EF51F2
:1039F00002E18C9C3ED08C8C3CD0EF5102E1899E40
:103A000038D0898E36D0EF5102E1899C32D0898C32
:103A100030D0EF5102E18A9E2CD08A8E2AD0EF510D
:103A200002E18A9C26D08A8C24D0EE5192E0010AD1
:103A300096E0030A9AE0010A9EE0070AA2E0010A62
:103A4000A6E0030AAAE0010AAEE00F0AB2E0010A0A
:103A5000B6E0030ABAE0010ABEE0070AC2E0010AC2
:103A6000C6E0030ACAE0010ACEE01F0AD2E0010A5A
:103A7000D6E0EB519AEC1FF0DECFE7F0DDCFE8F0B7
:103A800020EE06F006D8E7C0DEFFE8C0DEFFDD6A04
:103A90001200E551D926E651DA22120076C0BAF1B9
:103AA00077C0BBF178C0BCF179C0BDF1A80E0101AF
:103AB000BE6F610EBF6FC06BC16B500EC26FC30E85
:103AC000C36FC46BC56B010ED26F070ED46F020EAD
:103AD000D56F010EDB6FDC6BC76B080EC66F0C0E6B
:103AE000D36F010ED66FD76BDA6BC10EC96F940E10
:103AF000CA6FC10ECB6F030ED16F340EC86FDD6B72
:103B0000DE6B74C0DFF175C0E0F1D86BD96B800E4D
:103B1000EC6FEE69ED6F980EE46F3A0EE56FE66BB1
:103B2000E76B020EEF6F0B0EF06F120EF16FE96B89
:103B3000EA6BE85121E114EC52F00101E16F14EC61
:103B400052F00101E26F14EC52F00101E36F6A0ED2
:103B50001A6EB90E1B6E1C6AE25194EC5EF08A0E6E
:103B60001A6EA90E1B6E1C6A0101E35194EC5EF003
:103B7000010E0101E86F0BD0E151F0EC60F00101A2
:103B8000E251F0EC60F00101E351F0EC60F0BBECCD
:103B90005AF0000E0001606F010E616F60EC2FF0B3
:103BA00099EC08F01EEC2EF0420E1C6E3B0E62ECFF
:103BB0005FF03B0E3EEC5EF01F6E1FBAFAD7230E8D
:103BC0001C6E0C0E62EC5FF01E0E1C6E0D0E62EC95
:103BD0005FF0AA0E1C6E1F0E62EC5FF08F0E1C6E63
:103BE000350E62EC5FF01C68320E62EC5FF0400E46
:103BF0001C6E310E62EC5FF0010E0001606F616FB0
:103C0000000E60EC2FF093866186F19E00017A6BC6
:103C100005D081A602D0939603D07A2B7AAFF9D73C
:103C20006196F18E1C68230E62EC5FF0420E3EEC52
:103C30005EF00101EB6F12008B6B86C08CF087C0C9
:103C40008DF0AFD0030198516CEC0AF0DF909851E1
:103C50006CEC0AF0DF9298516CEC0AF0DF9498510A
:103C60006CEC0AF0DF9698516CEC0AF0DF989851F2
:103C70006CEC0AF0DF9A98516CEC0AF0DF9C9851DA
:103C80006CEC0AF0DF9EA1D89851020D9A0EF32435
:103C9000E96E030EF420ACEC18F061D08CC01AF081
:103CA0008DC01BF0B5EC5BF01AC08CF01BC08DF022
:103CB000030198517BEC18F0DF6865D08CC067F089
:103CC0008DC068F088518625696F000E87216A6F64
:103CD000BBEC08F067C08CF068C08DF054D08CC08D
:103CE0001AF08DC01BF058EC5DF01AC08CF01BC0B0
:103CF0008DF049D08CC071F08DC072F021EC27F0AE
:103D000071C08CF072C08DF03ED08CC01AF08DC0A6
:103D10001BF08DEC61F01AC08CF01BC08DF033D01D
:103D20008CC07EF08DC07FF07FEC25F07EC08CF0E3
:103D30007FC08DF028D08CC061F08DC062F0A1EC06
:103D40005BF061C08CF062C08DF01DD0010E8B6FF6
:103D5000885186258C6F000E87218D6FA9D735D8A5
:103D600000018C4B8D2BDF50020A98E0010AA6E07F
:103D7000070AB5E0010ABEE0030AC7E0010AD0E085
:103D80000F0AD9E0E3D7030198517BEC18F0DE2845
:103D900004E0100E986101D0982B100E981901E1E3
:103DA000986B000188518625896F000E87218A6FE4
:103DB00089518C5D8A518D5903E28B5101E142D7C3
:103DC0008CC086F08DC087F012008CC0D9FF8DC0EA
:103DD000DAFF1200E5C0D9FFE6C0DAFFDECFE9F076
:103DE000DDCFEAF0010E0001EB6FED69E9C098F05C
:103DF000EAC099F059EC33F0EC6FECBF80D05AD0A8
:103E0000000E80B0010EED6F79D0000E80B2010E71
:103E1000ED6F74D0000E80B4010EED6F6FD0000E08
:103E200080B6010EED6F6AD0000E80B8010EED6F06
:103E300065D0000E80BA010EED6F60D0000E84B028
:103E4000010EED6F5BD0000E84B2010EED6F56D007
:103E5000000E83B4010EED6F51D0000E84B4010E3C
:103E6000ED6F4CD0000E82BA010EED6F47D0000E00
:103E700083BA010EED6F42D0000E83BE010EED6FCE
:103E80003DD0000E83BC010EED6F38D0000E80BE19
:103E9000010EED6F33D0000E80BC010EED6F2ED001
:103EA000000E81BE010EED6F29D0000E81BC010E07
:103EB000ED6F24D0EC51A4E0010AA7E0030AAAE0C8
:103EC000010AADE0070AB0E0010AB3E0030AB6E078
:103ED000010AB9E00F0ABCE0010ABFE0030AC2E030
:103EE000010AC5E0070AC8E0010ACBE0030ACEE0F8
:103EF000010AD1E01F0AD4E0010AD7E0EB6BEB51D5
:103F000009E0EB5117D8DECFE7F0DDCFE8F01FD89E
:103F1000DD6A120017D8ED51796F7A6B79BF7A0795
:103F200021D8B9EC3AF0D80EE76F070EE86F0FD83A
:103F300044EF33F0020D660EF324D96E020EF42026
:103F4000DA6E1200D80E776F070E786F120020EE2F
:103F500006F0E551D926E651DA22E7C0DEFFE8C0D7
:103F6000DEFF12007C6B0A0E7B6F0A0C00018D6F66
:103F70000301E751F8EC61F0D1C387F000018D0532
:103F80001DE18DC079F08E0E7A6F7B6B0301DF51DE
:103F900076EC34F08C6F070E0301D125A1EC51F0C3
:103FA00099D8F550F0EC61F00301E151D15D0A0FB1
:103FB000176F0D0E17653BD0176F39D0030100BD89
:103FC00011D0D16B92D8400E76EC34F08C6F0A0E83
:103FD000F0EC61F00301E1510A08176F070EFCECE9
:103FE00061F015D0040ED16F80D8080E76EC34F055
:103FF0008C6F080EF0EC61F00301E1510E08176FB1
:104000000D0E176501D0176F090EFCEC61F003016E
:1040100000BD03D01F6A1F2A01D01F6A1F3A1F4626
:104020001F46030100511F18BF0B1F18006F87C0E8
:10403000D1F300018C514BE1400E8E6116D08E51B0
:10404000C0EC50F071C088F072C089F073C08AF083
:1040500074C08BF0070EFCEC61F03F0E030140D8FA
:1040600039D8F550E0EC61F020D08E51A5EC48F045
:1040700071C088F072C089F073C08AF074C08BF090
:10408000090EFCEC61F03F0E03012AD823D8F5504D
:10409000800A650F07E23F0E23D81CD8F550E0ECEC
:1040A00061F003D01A0EE0EC61F088C01AF089C00C
:1040B0001BF08AC01CF08BC01DF062EC3EF0010EBC
:1040C000ECEC61F0000EE8EC61F08EC0CCF3000186
:1040D0008C511200F722F86A000EF8220800120034
:1040E000D325F66EF76AF70E12008DC079F08E0EAA
:1040F00000017A6F7B6B1200030103B163D0E36BA5
:104100000251F00B0209026F00A52AD0150E1725E7
:104110009FD86AEC20F0F5CFA8F08A519DD88B216A
:1041200073D89FEC42F08AD8D4516DEC57F09CD8EC
:104130008FD86AEC20F0F5CFA8F08C518DD88D2166
:1041400063D89FEC42F07AD8D5516DEC57F003015B
:10415000D4514DEC45F00301D5514DEC45F029D03B
:10416000150E172575D86AEC20F0F5CFA8F086510A
:1041700073D8872149D89FEC42F060D8D6516DECB6
:1041800057F072D865D86AEC20F0F5CFA8F08851C6
:1041900063D8892139D89FEC42F050D8D7516DECC3
:1041A00057F00301D6514DEC45F00301D7514DECCA
:1041B00045F064D8D8A412000251F00B0809026F30
:1041C0001EEF4BF030EC62F00001A86FA8A90AD0F6
:1041D0004FD80500FA6EF751FD6EF851FE6EFF6A7A
:1041E000FA501200F751F811D8B41200946B956B85
:1041F000966B030E976F0500FA6EF751FD6EF8513E
:10420000FE6EFF6AFA5012000001AA6FAB6BAC6B36
:104210000C0ED890A937AA37AB37AC37E82EF9D7B0
:10422000A9C060F0AAC061F0ABC062F0ACC063F09E
:104230007D0E646F656B666B676B7D0C60C068F0AC
:1042400061C069F062C06AF063C06BF003011200E4
:10425000F66EF76AF70E12000001A825A96F000E8E
:10426000A8BFFF0E03011200150E03011C2512004A
:10427000946B956B966B020E976F020C020E030106
:104280001219120071C0D9FF72C0DAFFDF500001AD
:10429000806F714B722B805147EC5DF0F3E20001AF
:1042A0007C6B7D6B7E6B7F6B7B6B2D0E801906E1CB
:1042B000010E7B6FA3D8714B722B03D02B0E80198C
:1042C000F9E0300E80191DE199D8714B722B7551B0
:1042D000761104E0100E751976110DE1780E801933
:1042E00003E0580E801907E1766B100E756F86D8C3
:1042F000714B722B06D07551761103E1766B080E67
:10430000756F7551761103E1766B0A0E756F8051EA
:1043100000EC5DF008E300018051FCEC5FF0C90F98
:104320000001806F08D00001805186EC5EF02FE321
:10433000300E0001805F8051776F786B7551775D2B
:104340007851800A796F7651800A795920E275C0D8
:1043500065F076C066F0D3EC48F07CC069F07DC0B3
:104360006AF07EC06BF07FC06CF059EC51F0805168
:1043700065257C6F000E66217D6F000E67217E6FC4
:10438000000E68217F6F3AD8714B722BC0D70001A5
:10439000735174110EE0FF0E7125776FFF0E7221BD
:1043A000786F73C0D9FF74C0DAFF77C0DEFF78C0C2
:1043B000DDFF7B511AE07CC077F07DC078F07EC0D5
:1043C00079F07FC07AF0771F781F791F7A1F772BDB
:1043D000000E782379237A2377C071F078C072F0C9
:1043E00079C073F07AC074F0000C7CC071F07DC0AD
:1043F00072F07EC073F07FC074F0120071C0D9FFFC
:1044000072C0DAFFDF50806F1200010E0001E96F09
:104410008CD861D851EC57F000094BE06FD85BD8CD
:1044200051EC57F0000945E080D8DECF71F05ED83E
:1044300042EC21F07151EA6F20EE02F06DD851ECA0
:104440002FF054D842EC21F07151EB6F6ED8DECFD3
:10445000E7F05BD845D864EC54F0020E1A181B1034
:1044600028E10001EA5108E165D85FD859D877EC16
:1044700040F01A501B101DE141D8DECFE7F045D8BF
:104480002FD864EC54F0020E1A181B1012E1000130
:10449000EB5108E14FD832D843D877EC40F01A50AE
:1044A0001B1007E1EBC01CF0EA5162EC5FF0000169
:1044B000E96B0001E95110EC3EF0DECFE7F0DDCF13
:1044C000E8F020EE06F028D8DA22E7C0DEFFE8C0E8
:1044D000DEFFDD6A1200DECF60F0DDCF61F012009A
:1044E0001A501B10D8A4200E1C6E1200DDCF72F0E3
:1044F000736B746B766B100E756F100C20EE02F000
:10450000E551D926E651DA221200DDCFE8F0E7C006
:104510001AF0E8C01BF01200E551D926E65112004E
:10452000DECF1CF0DDCF1DF01200E5C0D9FFE6C0E4
:10453000DAFF12004E0E1A6EFF0E1B6E1200E5C05F
:10454000D9FFE6C0DAFFDECFE9F0DDCFEAF0010EF9
:104550000001EB6FE9C098F0EAC099F059EC33F034
:10456000EC6FECBF5DD0F50EEC2557EC0CF06AEC6F
:1045700020F0F5A455D00001EB6B38D0000E96EC7E
:1045800058F02FD0010E96EC58F02BD0020E96EC7E
:1045900058F027D0030E96EC58F023D0040E96EC7A
:1045A00058F01FD0050E96EC58F01BD0060E96EC76
:1045B00058F017D0160E96EC58F013D0070E96EC64
:1045C00058F00FD0110E96EC58F00BD0190E96EC57
:1045D00058F007D01B0E96EC58F003D01A0E96EC4C
:1045E00058F060C0EDF061C0EEF01AD0EC51C6E0BA
:1045F000010AC8E0030ACAE0010ACCE0060ACEE0DC
:10460000030AD0E0010AD2E00F0AD4E0010AD6E0A2
:10461000030AD8E0010ADAE0070ADCE0010ADEE07A
:104620000001EB510AE0EB519AEC1FF0DECFE7F00E
:10463000DDCFE8F013D8DD6A1200A2EC1FF0EDC068
:1046400079F0EEC07AF0B2EC1FF0B9EC3AF0D80E87
:10465000E76F070EE86F02D844EF33F020EE06F064
:10466000E551D926E651DA22E7C0DEFFE8C0DEFFD9
:104670001200090EE126000EE2223F684068416800
:10468000426870D8A3EC29F0FB0E37C0E3FF4FEC73
:1046900053F0FE0E3AC0E3FFFF0EE36A47D0FF0E71
:1046A000E350A7EC3CF0DE043FE1FF0EE35052D8AC
:1046B000FB0EE3CF37F0DE50375CFC0E60D8FD0E0A
:1046C0005ED8FE0E5CD805E3FF0EE35043D85CD8FD
:1046D0002BD0FF0EE3503ED8FB0EE350DE5EFC0E07
:1046E000E350DE5AFD0EE350DE5AFE0EE350DE5A72
:1046F000FF0EE3502FD8F70EE350DE5CF80EE350C8
:10470000DE58F90EE350DE58FA0EE350DE580CE2A4
:10471000FF0EE3501FD8DECF3FF0DECF40F0DECFFC
:1047200041F0DECF42F01ED8FF0EE32AFF0EE3CFAA
:1047300037F03050375CB3E3F70EE3CF37F0F80EC5
:10474000E3CF38F0F90EE3CF39F0FA0EE3CF3AF0C9
:10475000F70E1FD0080D000EF324D96E040EF420BE
:10476000DA6E1200F70E3FC0E3FFF80E40C0E3FF21
:10477000F90E41C0E3FFFA0E42C0E3FFFA0CE3CFAB
:1047800037F0DE5037581200DE6ADE6ADE6ADD6A14
:104790001200E126FF0EE222FF0C1A50D96EDA6AEF
:1047A0000D0E60D81D5086D80E0E5CD8D92A1D502B
:1047B00081D80F0E57D8020ED9261D507BD80C0E6B
:1047C00051D8030ED9261D5075D82E50DF1A7F0EF2
:1047D0002E640CD01B0E2EC01BF01C6AD8901B360A
:1047E0001C361B181E6E1C501F6E05D0D8902E3420
:1047F0001E6E1F6A1F361EC02EF01A50D96EDA6A5E
:1048000053D8040E43D8D92A4FD8050E3FD8020EEC
:1048100044D8060E3BD8030E40D8070E37D8040EF6
:104820003CD8080E33D8050E38D8090E2FD8060EFE
:1048300034D80A0E2BD8070E30D80B0E27D8080E06
:104840002CD80C0E23D8090E28D80D0E1FD80A0E0E
:1048500024D80E0E1BD80B0E20D80F0ED9261B50B5
:10486000DF1A1200D926DF501B6E1C6AF50E1B24BE
:10487000F66EF50E1C20F76EF86A000EF82208009E
:10488000F5CF1DF01A50D96EDA6A1200D9261B50E6
:10489000DF1A1A50D96EDA6A1200D926DF501B6E61
:1048A0001A50D96EDA6A1200DF501B6E1A50D96E98
:1048B000DA6A1200DF1A1A50D96EDA6A1200AE6B89
:1048C000AF6B9C390F0BAD6F010EAE6F31D05BD863
:1048D00097EC37F068D8DDEC5BF0AF6B75D8AE5174
:1048E000A86FA96BA83BA93BF00EA917A8510F0B05
:1048F000A913F00EA8179AC0AAF09BC0ABF0A8515C
:10490000AA27A951AB23AF51AA27000EAB23F00E63
:10491000AA25E96EFF0EAB21EA6EEF50AC6F4CD8C2
:10492000AC19DF6EA42BAF2B0F0EAF65D7D7AE2B14
:10493000AE51AD5DCCE24FD8D8B40F0C24D897EC73
:1049400037F031D8DDEC5BF0AF6B18D03DD8AD510E
:10495000100D9AC0A8F09BC0A9F0F350A827F450FE
:10496000A923AF51A825E96E000EA921EA6EEF50E8
:10497000AA6F22D8AA19DF6EA42BAF2B2CD8A8516E
:10498000AF5DE4E312009EC065F09FC066F0A0C07A
:1049900067F0A1C068F0AEC069F0010E6A6FA7C0F1
:1049A0006BF09D511200CA0E866F020E876FA2C077
:1049B00088F0A3C089F01200CA0EAF25E96EEA6A3A
:1049C000020EEA22EF501200A451A525D96E000E66
:1049D000A621DA6E12009CC0A8F00F0EA8170F0CCB
:1049E000000120EE04F081D885D8E7C01AF0E8C0B5
:1049F0001BF070EC22F064EC54F01AC0EEF01BC017
:104A0000EFF0D8900001EF31E76FEE31EA6FE7C0C9
:104A1000EBF0030EED6FE5C0D9FFE6C0DAFF49EC1D
:104A200043F08EC265F08FC266F08CC267F08DC213
:104A300068F0EFEC51F0E96F20EE02F056D8B0ECE0
:104A40003AF0EC0E696FF6EC3FF000092AE0EB0556
:104A500028E2020EE96125D020EE04F046D86BEC86
:104A600022F051EC57F000091CE0EEC068F0EFC0F6
:104A700069F020EE04F039D8BEEC2CF007EC2BF0F6
:104A8000EEA102D0EA4BEB2BECC0DCF0D80EDD6FD0
:104A9000070EDE6FEAC0DFF0E95133EC32F00001BF
:104AA000ED6FED5141EC43F025D820EE06F01DD816
:104AB000E7C0DEFFE8C0DEFFDD6A070EED19D8A40F
:104AC00012000301E951D8B41200000E000156ECA7
:104AD00006F033EC32F0000120EE06F006D814C2E6
:104AE000DEFF15C2DEFFDD6A1200E551D926E65170
:104AF000DA221200DECFE7F0DDCFE8F0120084D832
:104B0000DF50856F7E4B7F2B7FD8FF0EDE14816FC9
:104B1000FF0EDE14826FFF0EDE14836F000EDE14B4
:104B2000846F81C065F082C066F083C067F084C086
:104B300068F0640E8BEC08F059EC51F065C081F020
:104B400066C082F067C083F068C084F0030E7E27E1
:104B5000000E7F2359D8DF50806F7E4B7F2B85510D
:104B6000ABEC60F0000933E000018551C0EC50F07F
:104B70008151711909E18251721906E1835173194A
:104B800003E18451741911E08551A5EC48F081517D
:104B9000711909E18251721906E18351731903E118
:104BA0008451741902E035D805E1030198516CEC89
:104BB0000AF0DF8E80C01CF000018551DEEC44F06D
:104BC000000905E1030198516CEC0AF0DF8C030148
:104BD00098516CEC0AF0DFAE12D098516CEC0AF0F0
:104BE000DFAC0DD0000115D805E11E6A855150ECEF
:104BF0005BF005D080C01EF085513BEC5BF07EC0C1
:104C00007EF07FC07FF012007EC0D9FF7FC0DAFF48
:104C100012008151821183118411120079EC5AF033
:104C20000CEC62F04A0E1E6EAF0E1F6EE0EC53F0FD
:104C3000D0EC61F0F28EF28C010E1B6E0B0E1A6E30
:104C40007AEC5FF00401FA6FFB6B010E1B6E0C0E29
:104C50001A6E7AEC5FF00401F96FF951FB27FA291B
:104C600002E1FB292BE0BBEC0FF071C0F5F472C040
:104C7000F6F40401F551FA1903E1F651FB1929E0A4
:104C80009AEC26F051D80CEC49F048D8F1EC5BF0E6
:104C9000010E55EC61F00401FC6BFD6BFCC41AF0D5
:104CA000FDC41BF01C68A6EC56F00401FC4BFD2B68
:104CB0000D0EFC5D010EFD590CE2F0D79AEC26F0CA
:104CC00033D80CEC49F02AD8F1EC5BF0010E55EC2E
:104CD00061F01ED831EC39F005EC15F064EC54F0BD
:104CE0001AC0F7F41BC0F8F434EC15F0D8A4200E69
:104CF000626FF7C463F0F8C464F0B6EC40F0C3EC44
:104D000056F062EC58F09BEC30F009EC48F0F7D725
:104D1000D80E0001656F070E666F1200E50E0001E8
:104D2000656F040E666F1200E50E00016D6F040ED4
:104D30006E6F12000301E20502E199EC50F0340EAF
:104D40000301E76FE751F8EC61F0030170D8CF6918
:104D5000D06B72D8C66BC76B8DEC06F092EC06F088
:104D6000C46BC56BCE6B010ECD6FC26BC36BE06BBA
:104D7000E16B62D8986B996B039559D8006B016B06
:104D8000070EC96FC86B010ECB6FCA6FD269126B69
:104D900040D84EEC1DF0CAEC58F0050ED36FA00EB3
:104DA000186F700E196F080E1A6F370E1B6F080EF2
:104DB0001C6FD16B35EC44F0966B690E9DEC52F094
:104DC0001D0EE66E030EE66EEAEC41F0DAEC53F0EF
:104DD000070E896FD00E886F130E8B6F880E8A6F47
:104DE000170E8D6F700E8C6F070E936FD00E926F33
:104DF000200E956F400E946F8F6F8E6B916F906B3E
:104E0000E86B0001726B716BA6EC27F0010ED4EF1A
:104E100061F0090E0001746F0B0E756FA00E766FB6
:104E2000700E776F080E786F370E796F370C026B44
:104E3000036B046B056B1200BA6BBB6BBC6BBD6B79
:104E400012007FD8DF50776F714B722B7AD8FF0E2C
:104E5000DE14736FFF0EDE14746FFF0EDE14756FB9
:104E6000000EDE14766F73C065F074C066F075C016
:104E700067F076C068F0640E8BEC08F059EC51F0E6
:104E800065C073F066C074F067C075F068C076F0F6
:104E9000030E7127000E722373C068F074C069F0AE
:104EA00075C06AF076C06BF0A0EC49F0000905E12E
:104EB000030198516CEC0AF0DF86000177510F0B6B
:104EC0004AEC5FF0000905E1030198516CEC0AF02F
:104ED000DF8800017739070BE8EC60F0000905E195
:104EE000030198516CEC0AF0DF8A030198516CECD5
:104EF0000AF0DFA81FD098516CEC0AF0DFA61AD098
:104F000098516CEC0AF0DFAA15D000017739070B35
:104F10000301E16F73C01AF074C01BF075C01CF080
:104F200076C01DF0000177510F0B1E6EBDEC5FF0D7
:104F30000301038F010E336E71C071F072C072F005
:104F4000010C71C0D9FF72C0DAFF120071C065F0A8
:104F500072C066F0676B686BE80E696F030EB7ECA2
:104F600008F059EC51F065C0BEF366C0BFF367C0EE
:104F7000C0F368C0C1F3715172111DE10301D95131
:104F8000F0EC60F00301039500017B6B0ED07B51C8
:104F90007BEC18F0020EDE1806E17B517BEC18F07A
:104FA000DF680301980700017B2B03019851000182
:104FB0007B5DEDE312000301038502A91200C151DC
:104FC00003E118EC2EF00BE30EEC2EF009EC2EF0C2
:104FD0009FEC42F00C0E38D8E82EFDD71DD0BEC392
:104FE00073F0BFC374F0C0C375F0C1C376F00C0E8C
:104FF000D89000017337743775377637E82EF8D7B5
:1050000073C060F074C061F075C062F076C063F088
:105010007BEC1AF09FEC42F060C077F061C078F052
:1050200062C079F063C07AF077C068F078C069F048
:1050300079C06AF07AC06BF00301D9516DEC57F07A
:105040000301D9514DEF45F0D89060376137623791
:1050500063371200F20EF66EA60EF76E000EF86EB3
:1050600004EEA0F020EE45F00900F5CFEEFFDD5094
:10507000D950FAE10C0EF66E760EF76E000EF86E51
:1050800002EE00F020EE98F00900F5CFEEFFDD50C3
:10509000D950FAE12E0EF66EC30EF76E000EF86EC2
:1050A00001EEF3F020EE09F00900F5CFEEFFDD5040
:1050B000D950FAE1040EF66EC50EF76E000EF86ECA
:1050C0000900F5CFFFF0840EF66EC40EF76E000EE9
:1050D000F86E00EE43F020EE04F00900F5CFEEFF8D
:1050E000DD50D950FAE105EE90F026EE78F0EE6A48
:1050F000DD50D950FCE1DA50FAE105EE00F0900EF7
:10510000EE6AE806FDE104EE00F0A00EEE6AE806A5
:10511000FDE103EE00F0EA0EEE6AE806FDE102EEC4
:1051200098F0530EEE6AE806FDE101EEA5F04E0E92
:10513000EE6AE806FDE100EEF7F0080EEE6AE8061A
:10514000FDE100EE20F0170EEE6AE806FDE1000139
:105150000EEF26F0030103B1F8EF60F0020E121912
:1051600002E1F5EC5EF00301CB51C95D52E3FEECC8
:1051700046F00D0FAA6FAA51A66FA76B0301C65187
:105180000001A65D0301C7510001A7592FE3010EDD
:10519000B6EC1FF0000902E0D7EF4BF04FD897ECC8
:1051A0001BF07E517F1102E0D7EF4BF0030191EC31
:1051B00032F0CB2BCBB11200D151D8B41200CB516D
:1051C0000001A66FA76B0301C9510001A86FA96B6D
:1051D000A82B000EA923A651A81902E0B4EF3FF0B6
:1051E000A751A919D8B41200B4EF3FF0F8EC60F061
:1051F0002CD8D8B41200946B956B966B040E976FF5
:105200000500FA6EF751FD6EF851FE6EFF6AFA5016
:105210001200CB51C95DD8A003B11200F8EC60F0C8
:1052200014D8D8B41200FFEC3CF00500FA6AF7512C
:10523000FD6EF851FE6EFF6AFA501200FA0E7E6F94
:10524000090E7F6FC6C380F012000001F751F811FC
:1052500012000001E06B7CEC0FF0EAEC41F01F0E55
:105260000001DF17FC0EDF17E30EDF1729EEEAF06F
:10527000DFC0DFFFE02BE16BE1515908D96E000E72
:10528000D8A0E82A030847D8E165F6D7080EE0273A
:10529000E16BE1516108D96E000ED8A0E82A03083D
:1052A0003AD8E165F6D7080EE0277869776969ECA6
:1052B0005DF077C0C4F378C0C5F3EA0EE0253ED8B0
:1052C00029EC44F085EC4CF0020E0001E027420E80
:1052D000D06F030ED16FEA0ED26F090ED36FE0C00C
:1052E000D4F0A6EC4DF0D0C0DBF0D1C0DCF0D2C0E1
:1052F000DDF0D3C0DEF0EA0E0001E0251FD8DB0EA2
:105300001C6E1D6AD7EC37F085EC4CF0040E0001E2
:10531000E027E0511200DA6EEA0ED96F090EDA6F5B
:10532000E051D927000EDA23E151D925E96E000EAC
:10533000DA21EA6EDFCFEFFFE12B070C1A6E1B6A52
:10534000090E1B22120033EC53F037C0B3F138C002
:10535000B4F134042CE1346A65D8D8A04106415038
:10536000426E51D83F6EAA513C20406EAB513D2059
:10537000416EAC513E20426E000E3F240201C06FD0
:10538000000E4020C16F010E4120C26F000E42206E
:10539000C36FB3C1A5F1B4C1A6F10101A76BA86B9E
:1053A000A96BAA6BAB6BAC6B276A286A23D03AD87F
:1053B000426A29D80201C06F0101AA513C200201B2
:1053C000C16F0101AB513D200201C26F0101AC511F
:1053D0003E200201C36FC0510101A5270201C15146
:1053E0000101A6230201C2510101A7230201C351F9
:1053F0000101A823C0C237F0C1C238F0C2C239F0DF
:10540000C3C23AF01200A5513F5C3B6EA651405812
:105410003C6EA75141583D6EA85142583E6EA9516D
:105420003B24120027500101B35D3F6E2850B45950
:10543000406E416A1200120E3EEC5EF00001EB6F0E
:10544000700E1C6E120E62EC5FF00001EB51500BFF
:10545000500AD8A412000101E351F0EC60F08A96E2
:105460001C0E3EEC5EF00001ED6F0101D65104E030
:105470000001EBABEDAD4AD0130E3EEC5EF0010146
:10548000DE6F1C6A0D0E62EC5FF06EEC62F0000ED7
:1054900004EC62F00001ED6B08D0ED5123EC39F023
:1054A00004EC62F0DF6E0001ED2B0101DE51000122
:1054B000ED5DF3E36CEC62F00101DD85190E3EEC6D
:1054C0005EF00101EC6F040E1A6EEC5138EC4FF0F7
:1054D0000101EC6F1A0E3EEC5EF00001EC6F630E02
:1054E000EC250101ED6FEE6BFF0EEE23ECAF06D065
:1054F000EC51ED27000EECBFFF0E06D00001EC3999
:105500000F0B0101ED27000EEE2302D00101DD8714
:10551000DFEC54F060EC2FF00101DD932AEC39F060
:1055200013EF02F01A6A030E1B6E1C6A1D6AB0ECC0
:1055300058F0200E0001E76F290EE82EFED7E72F66
:10554000FCD700D0200E0001E76F290EE82EFED711
:10555000E72FFCD700D0200E0001E76F290EE82EC0
:10556000FED7E72FFCD700D0200E0001E76F290EF1
:10557000E82EFED7E72FFCD700D0200E0001E76F02
:10558000290EE82EFED7E72FFCD700D0200E000111
:10559000E76F290EE82EFED7E72FFCD700D0200EAC
:1055A0000001E76F290EE82EFED7E72FFCD700D0C9
:1055B000200E0001E76F290EE82EFED7E72FFCD75B
:1055C00000D0200E0001E76F290EE82EFED7E72F4E
:1055D000FCD700D0200E0001E76F290EE82EFED781
:1055E000E72FFCD700D0200E0001E76F290EE82E30
:1055F000FED7E72FFCD700D0200E0001E76F290E61
:10560000E82EFED7E72FFCD700D0FF0012006AC0BB
:105610001AF06BC01BF070EC22F064EC54F01AC06E
:1056200078F01BC079F00001766B776BD8907931F8
:105630006E6F7831716F6EC072F0706B78B103D09D
:105640007107D8A07207785168193EE1795169193C
:1056500036E03AD0795103E1020E785D13E37851D8
:105660006A256E6F79516B216F6FFE0E6E25D96EB4
:10567000FF0E6F21DA6EDF5029D8020E785F000E20
:10568000795B05D0300E22D87807D8A07907764B01
:10569000772B7651730FD96EDA6ADF6A730E606FFB
:1056A000BAEC33F071516C25D96E72516D21DA6EFE
:1056B00060C0DFFF766B776B7107D8A072077851F7
:1056C0007911C8E1010E706F70511200736F764B43
:1056D000772B78516A256E6F79516B216F6FFF0EB2
:1056E0006E25D96EFF0E6F21DA6E7651730FE96E5B
:1056F000EA6ADFCFEFFF120022EE2CF000EEA1F0FD
:105700000F0EDBCFEBFFE806FCE2100E9DEC52F033
:10571000B10EA06FA0C0E6FFE66AEAEC41F0B10E60
:105720000001866F876B9AC088F09BC089F0DDEC22
:105730005BF0B1BF04D04BD839EC52F016D047D84B
:1057400039EC52F0C16BC151A10FD96EDA6ADF504A
:10575000A06FC1519C25D96E000E9D21DA6EA0511B
:10576000DF1AC12B0F0EC165EED79CC0D9FF9DC0BB
:10577000DAFFDFBE03D020D839EF52F01DD839EC64
:1057800052F0C16BC1519E25D96E000E9F21DA6E79
:10579000C151A10FE96EEA6AEF50A06FC1519E2579
:1057A000E96E000E9F21EA6EEF50A019DF6EC12B4B
:1057B0000F0EC165E7D70F0C9CC01AF09DC01BF0FF
:1057C0009EC01CF09FC01DF0100E1E6E100CB10E7E
:1057D0001A6E1B6A9CC01CF09DC01DF0100E1E6E40
:1057E000100C6AC070F06BC071F06CC072F06DC0CC
:1057F00073F070C060F071C061F072C062F073C08D
:1058000063F051D89FEC42F060C070F061C071F05D
:1058100062C072F063C073F0684B692B70517111F4
:1058200072117311E6E149D8DF6A6807D8A06907E9
:105830006AC060F06BC061F06CC062F06DC063F074
:105840006EC064F06FC065F0000E65BFFF0E666F3E
:10585000676FD1EC49F06051746F6AC060F06BC043
:1058600061F06CC062F06DC063F01DD89FEC42F037
:1058700060C06AF061C06BF062C06CF063C06DF034
:10588000090E746502D0070E7427300E742715D8E0
:1058900074C0DFFF6807D8A069076A516B116C11EB
:1058A0006D11C6E112006EC064F06FC065F0000EAD
:1058B00065BFFF0E666F676F120068C0D9FF69C0D1
:1058C000DAFF120064D868D8E7C01AF0E8C01BF00D
:1058D00070EC22F064EC54F01AC0EDF01BC0EEF056
:1058E000010E0001EB6FD890EE31E76FED31E96FFB
:1058F000E7C0EAF00FEC62F00001EC6FEC5105E15B
:10590000EE5103E1110EED5D06E3EC0527E1020E19
:10591000ED19EE1123E13BD86BEC22F051EC57F07E
:1059200000091CE0EDC068F0EEC069F030D826D860
:1059300007EC2BF0EDA102D0E94BEA2BEC0505E1D9
:105940002DEC35F0F8EC61F007D0D80E656F070E3E
:10595000666FE951A5EC5AF00001EB6BEB5110ECCE
:105960003EF01AD820EE06F0E551D926E651DA22AB
:10597000E7C0DEFFE8C0DEFFDD6A1200DECF6AF0BE
:10598000DDCF6BF0D80E6C6F070E6D6F1200E5C0A7
:10599000D9FFE6C0DAFF1200DECFE7F0DDCFE8F096
:1059A0001200030E0001EF6F66D86BEC22F051EC91
:1059B00057F0000943E0696B080E686F5CD8DECFD2
:1059C0006AF0DDCF6BF0EB0E6C6F6D6B07EC2BF0BC
:1059D000000934E0EE51F06FF16BF26BF36BEDC048
:1059E000E7F0E86BE96BEA6BE9C0EAF0E8C0E9F0E0
:1059F000E7C0E8F036D8ECC0E7F0E86BE96BEA6B9B
:105A0000E8C0EAF0E7C0E9F0E86B2BD8EBC0E7F0BC
:105A1000E86BE96BEA6BE7C0EAF0E96BE86B21D869
:105A2000F0C01AF0F1C01BF0F2C01CF0F3C01DF082
:105A3000C8EC5FF00201C48D0001EF6BEF5141EC47
:105A400043F0DECFE7F0DDCFE8F020EE06F0E551E1
:105A5000D926E651DA22E7C0DEFFE8C0DEFFDD6AC4
:105A60001200E76BE751F027E851F123E951F223E7
:105A7000EA51F3231200E5C0D9FFE6C0DAFF1200B5
:105A8000030E0001EF6F66D86BEC22F051EC57F07B
:105A9000000943E0696B080E686F5CD8DECF6AF0DE
:105AA000DDCF6BF0EB0E6C6F6D6B07EC2BF000092C
:105AB00034E0EE51F06FF16BF26BF36BEDC0E7F099
:105AC000E86BE96BEA6BE9C0EAF0E8C0E9F0E7C02F
:105AD000E8F036D8ECC0E7F0E86BE96BEA6BE8C0B9
:105AE000EAF0E7C0E9F0E86B2BD8EBC0E7F0E86B31
:105AF000E96BEA6BE7C0EAF0E96BE86B21D8F0C02C
:105B00001AF0F1C01BF0F2C01CF0F3C01DF056EC0F
:105B10005FF00201C4870001EF6BEF5141EC43F0ED
:105B2000DECFE7F0DDCFE8F020EE06F0E551D92634
:105B3000E651DA22E7C0DEFFE8C0DEFFDD6A1200D0
:105B4000E76BE751F027E851F123E951F223EA51DD
:105B5000F3231200E5C0D9FFE6C0DAFF120003010B
:105B600000950289F00E0217C26BC36BE06B03A5B0
:105B700043D0C15102E15CD80AE350D84AD89FEC27
:105B800042F00C0E24EC28F0E82EFCD71DD0BEC34A
:105B900070F0BFC371F0C0C372F0C1C373F00C0EDC
:105BA000D89000017037713772377337E82EF8D705
:105BB00070C060F071C061F072C062F073C063F0D9
:105BC0007BEC1AF09FEC42F060C074F061C075F09D
:105BD00062C076F063C077F074C068F075C069F099
:105BE00076C06AF077C06BF00301D9516DEC57F0C5
:105BF0000301D9514DEC45F09DEC5BF0D8B4120097
:105C00000500FA6EF951FD6EFA51FE6EFF6AFA5008
:105C1000010C646F656B666B676B1200BEC360F04E
:105C2000BFC361F0C0C362F0C1C363F000017D0C6B
:105C3000BE29FF0EBF590F0EC059120068C060F098
:105C400069C061F06AC062F06BC063F0090E0001C8
:105C50005BD89FEC42F060C070F061C071F062C030
:105C600072F063C073F068C060F069C061F06AC030
:105C700062F06BC063F0090E646F3D0E656F666B7A
:105C8000676BD1EC49F060C06CF061C06DF062C030
:105C90006EF063C06FF072C073F071C072F070C0CC
:105CA00071F0706B6EC06FF06DC06EF06CC06DF017
:105CB0006C6B6CC060F06DC061F06EC062F06FC064
:105CC00063F0090E21D89FEC42F060C06CF061C017
:105CD0006DF062C06EF063C06FF06C5170276D5153
:105CE00071236E5172236F51732372C01CF0060E24
:105CF00062EC5FF071C01CF0070E62EC5FF070C0E8
:105D00001CF0080E62EF5FF0646F3D0E656F666B0E
:105D1000676B3D0C60D864D8E7C01AF0E8C01BF090
:105D200070EC22F064EC54F01AC0EEF01BC0EFF0FF
:105D3000010E0001ED6FD890EF31E76FEE31EB6FA0
:105D4000E7C0ECF0EE29010EEF5935E244D86BECD8
:105D500022F051EC57F000092EE0EEC068F0EFC0E1
:105D600069F039D8BEEC2CF007EC2BF0EEA102D094
:105D7000EB4BEC2BD80E7E6F070E7F6FEBC080F0E5
:105D800097EC1BF07EC0E9F07FC0EAF005D0ED6B28
:105D900012D0030EED6F0FD0E9C0E7F0EAC0E8F0D3
:105DA000E85103E0800A04E0F4D7E751F0E0F1D7CE
:105DB000E751020AEEE1ED5110EC3EF011D820EE71
:105DC00006F0E551D926E651DA22E7C0DEFFE8C049
:105DD000DEFFDD6A1200E5C0D9FFE6C0DAFF12007F
