:020000040000FA
:020000000CD022
:020002000000FC
:020008007FD1A6
:080018007FD194908B80730EE0
:10002000D36EF86A030EF76E000EF66EFC0E0B6EC2
:10003000FE0E0A6E15EC01F0FE0EF66EFF0EF76E68
:100040000900F550001804E10900F55001184AE0D4
:100050003CD80400ACA2FDD7B880B8A005D0B8AE9B
:10006000FCD7B890B89EF5D7AE50AE5000EE09F070
:10007000090E026E22D80550EE6EE9500B0A0BE114
:100080000950020A06E00950050A03E00950070A70
:1000900002E10A500226022EEDD726D8026E550E36
:1000A00007D800EE09F0EE5003D8022EFCD7D1D7C6
:1000B00004009EA8FDD7AD6E12000400ABB2FF0095
:1000C0009EAAFED7AE50056E12008B8C948C948E37
:1000D0000F013A9D3A9F900EAB6E260EAC6E080E45
:1000E000B86E12008B900CD10E50F66EA96E0F50A8
:1000F000F76E10C0F8FF00EE12F00A50026E0950C1
:10010000090803E2FF0E096E010CFB6A010EFA6E8C
:1001100009441A0FD8B0FA2AF96E09D044D04BD04E
:100120005AD064D06DD03FD076D07FD0FF00010E82
:10013000126E010E136E146A156A166A176A3F0E64
:10014000F86EFF0EF76EFE0EF66E0900F5CF18F092
:100150000900F5CF19F01A6A1B6A400E1C6E400E9A
:100160001D6E200EF86EF76AF66A0900F5CF1EF0D4
:1001700009001E38F5101E6E0900F5CF1FF00900AA
:100180001F38F5101F6E0900F5CF20F00900203848
:10019000F510206E0900F5CF21F009002138F51087
:1001A000216E190E12000900F5CFEEFF022EFBD7CB
:1001B0000A50090F1200EECFF5FF0D00024E03D0DA
:1001C000F6503F0BF8E10A00840EA66E49D80900EC
:1001D0000252F1E141D0940EA66E42D8400EF626AE
:1001E000E86AF722F822022EF6D736D0A66AA68051
:1001F000A8CFEEFFA92A022EF9D70A50090F120044
:10020000EECFA8FF040EA66E2BD8A6B2FED7A92A61
:10021000022EF6D721D0C40EA66EEECFF5FF0C004D
:100220001FD80900022EF7D717D0006A016A0A907A
:100230000A52D8A40B2A0900F55000260900F550EF
:100240000122020E0A5EF7E10B2EF5D700C0EEFF89
:1002500001C0EEFF0B0E1200010E126E0A0E12000C
:1002600004000C50A76E0D50A76EA682000012006D
:020000040030CA
:0100010008F6
:010002001DE0
:010003003CC0
:01000500BF3B
:010006008574
:0100080000F7
:0100090000F6
:01000A000FE6
:01000B00E014
:01000C000FE4
:01000D0040B2
:00000001FF
