:040000000CD0000020
:020008007FD1A6
:100018007FD194908B80730ED36EF86A030EF76EBF
:10002800000EF66EFC0E0B6EFE0E0A6E15EC01F05D
:10003800FE0EF66EFF0EF76E0900F550001804E18B
:100048000900F55001184AE03CD80400ACA2FDD7DD
:10005800B880B8A005D0B8AEFCD7B890B89EF5D790
:10006800AE50AE5000EE09F0090E026E22D80550CF
:10007800EE6EE9500B0A0BE10950020A06E009503E
:10008800050A03E00950070A02E10A500226022E77
:10009800EDD726D8026E550E07D800EE09F0EE50BF
:1000A80003D8022EFCD7D1D704009EA8FDD7AD6E89
:1000B80012000400ABB2FF009EAAFED7AE50056E38
:1000C80012008B8C948C948E0F013A9D3A9F900E5F
:1000D800AB6E260EAC6E080EB86E12008B900CD16B
:1000E8000E50F66EA96E0F50F76E10C0F8FF00EEB6
:1000F80012F00A50026E0950090803E2FF0E096E59
:10010800010CFB6A010EFA6E09441A0FD8B0FA2ADC
:10011800F96E09D044D04BD05AD064D06DD03FD0BE
:1001280076D07FD0FF00010E126E010E136E146A96
:10013800156A166A176A3F0EF86EFF0EF76EFE0E06
:10014800F66E0900F5CF18F00900F5CF19F01A6A14
:100158001B6A400E1C6E400E1D6E200EF86EF76A6C
:10016800F66A0900F5CF1EF009001E38F5101E6E5C
:100178000900F5CF1FF009001F38F5101F6E0900A0
:10018800F5CF20F009002038F510206E0900F5CFD2
:1001980021F009002138F510216E190E120009000E
:1001A800F5CFEEFF022EFBD70A50090F1200EECF53
:1001B800F5FF0D00024E03D0F6503F0BF8E10A00A0
:1001C800840EA66E49D809000252F1E141D0940E7E
:1001D800A66E42D8400EF626E86AF722F822022ECA
:1001E800F6D736D0A66AA680A8CFEEFFA92A022E97
:1001F800F9D70A50090F1200EECFA8FF040EA66E19
:100208002BD8A6B2FED7A92A022EF6D721D0C40E23
:10021800A66EEECFF5FF0C001FD80900022EF7D707
:1002280017D0006A016A0A900A52D8A40B2A09005A
:10023800F55000260900F5500122020E0A5EF7E18A
:100248000B2EF5D700C0EEFF01C0EEFF0B0E12001B
:10025800010E126E0A0E120004000C50A76E0D500B
:08026800A76EA682000012003F
:10030000DFEF01F0FFFFFFFFFACF2AF0FBCF2BF06A
:10031000E1CF2CF0E2CF2DF0D9CF2EF0DACF2FF0B5
:10032000F3CF30F0F4CF31F01DEEA8F0F2BC9DA079
:1003300005D09EA003D0CFEC6BF030D0F2BC9DAACC
:1003400005D09EAA03D018EC51F028D0F2BC9DA88D
:1003500005D09EA803D06CEC63F020D0F0B6F0A0DE
:1003600003D01AEC6DF01AD0F0B8F0A203D017EC5D
:100370006DF014D0F2B6F2A003D0B9EC6BF00ED051
:10038000F2BC9DA605D09EA603D0C4EC21F006D0F9
:10039000F2BCA0A603D0A1B649EC6DF031C0F4FFC9
:1003A00030C0F3FF2FC0DAFF2EC0D9FF2DC0E2FF0F
:1003B0002CC0E1FF2BC0FBFF2AC0FAFF11001CEE8E
:1003C000DEF084EF34F011EC6DF02BEED4F0DFB002
:1003D000C2D392EC06F001017C6F7C39E832070B46
:1003E000E80601E0B3D02BEEEEF0DF5001E0AED036
:1003F0000001F1050101826F1DD00001F151EF25CF
:100400000101666F000E0001F0210101676F82514A
:10041000665D00018C6F01016751D8A0670500017E
:1004200046EC52F040EC67F0100E826502D0825F1D
:1004300001D0826B8251E1E1130E0001D76F0C0EE7
:10044000D86FEFC0D9F0F0C0DAF0F151FC0FDB6FDC
:1004500069EC56F0D7C085F1D8C086F1D9C087F1D4
:10046000DAC088F16BEC06F043EC5EF0C1DB85513D
:100470007D1909E186517E1906E187517F1903E153
:10048000885180191DE0A8DB050A07E0A5DB030AF7
:100490000CE12CEED6F0DF5008E02BEED3F0DFB805
:1004A00003D09DEC64F001D092DBE3CBE8FF020ABD
:1004B000D8A4120041EC16F00909DF6EB5EF51F037
:1004C0008BDB030A04E180EC09F090EC6BF0EFC0E9
:1004D00089F1F0C08AF1010120EE07F0A0EC06F0EE
:1004E000DECFEFFBDECFF0FBDECFF1FBDDCFF2FBAB
:1004F00020EE0CF0A0EC06F0DF500F0B78EC5AF079
:1005000098EC06F0DF38070B0001606F98EC06F0FE
:10051000DF500F0BE3EC67F089C19EF08AC19FF0BA
:10052000F15125EC29F089C1A0F08AC1A1F01AECA3
:1005300052F0E66A77EC37F0000E72EC1DF057ECE3
:100540001DF0E3CBE8FF020AB5E012007C39E83287
:10055000070B030A07E07C39E832070B050A02E0C3
:10056000CBEF48F0000EE8CF7CFCEFC090F1F0C07C
:1005700091F1E3CBE8FF020A01E011D12CEE33F058
:1005800000EE01F091DBEE1809E1DE50EE1806E115
:10059000DE50EE1803E1DE50EE18D8A400D12BEEA9
:1005A000D5F0DFA4FCD090C160F091C161F0E4EC23
:1005B00054F0000901E17ED70101FDDAFEDB2BEEEC
:1005C000DFF0ECDB05E3E1CB8EF1E2CB8FF104D081
:1005D0002BEEE1F087DBD7DB2EDB010E716FC3EC76
:1005E0003EF04EDBFEDA100E646FBFEC55F014DB0C
:1005F000BFEC55F0370EC86F0C0EC96FCB0E2ADB5F
:100600008DEC13F041DBEDDA040E646FBFEC55F0B6
:1006100062DB43EC5EF0ECDA7D5185190BE17E5133
:10062000861908E17F51871905E18051881901E099
:1006300041D701D03FD72BEEDFF000EE06F034DBE0
:10064000EE5CDE50EE581CE32BEEDFF04BDBB3DA52
:1006500060DB2CEE73F0ACDB0DE2BB51BC1101E1B1
:1006600029D746EC16F0050EC56F01D823D7050033
:10067000FA6E8DD0A0DADECFDFFBDDCFE0FB2DD030
:100680002CEE73F000EE06F09051E9269151EA222B
:10069000EECF68F1EDCF69F10BEEDFF0EECF6AF14E
:1006A000EDCF6BF16A1D6C6F6B1D6D6F68516C2720
:1006B00069516D23DE506C5DDE506D590AE2000E0B
:1006C000E8CFDFFBE8CFE0FB2BEEE1F0DE2ADD2216
:1006D00004D0BB51BC11C5E1EDD62BEEDFF0DE2816
:1006E00007E1DE2805E1DE2803E1DE2801E1F1D79C
:1006F00073DA080A08E1BAEC1FF090EC6BF02DDB1E
:1007000090EC6BF006D068DA030A03E126DB90EC8C
:100710006BF033DB57DA46DAF3DA03E16751691934
:1007200020E000DB796F0001EF4BF02BF151F40F6B
:1007300001018B6F190E816F65DADFCBA4F0E0CB7E
:10074000A5F0E1CBA6F0E2CBA7F0470EA86F0C0E08
:100750008FDA010EAD6FD3EC2CF0FF0EEF25F5DA3A
:1007600001D030DB2BEED4F0DF8231DABB51BC118B
:1007700001E1A0D683C1C2F084C1C3F08BC1C4F033
:10078000010E0001C56F01D895D60500FA6E010172
:10079000BB51FD6EBC51FE6EFF6AFA5012002BEE8B
:1007A000EFF000EE01F080DAEE1809E1DE50EE180D
:1007B00006E1DE50EE1803E1DE50EE1802E0CBEF6A
:1007C00048F0F9D9FADA2BEEDBF0E8DA05E3DDCB15
:1007D0008EF1DECB8FF104D02BEEDDF083DAD3DAAD
:1007E0002ADA716B010EC3EC3EF04ADAFAD9100E28
:1007F000646FBFEC55F010DABFEC55F05CEC13F011
:1008000029DA8DEC13F040DAECD9040E646FBFECFA
:1008100055F061DA43EC5EF0EBD97D5185190CE1BE
:100820007E51861909E17F51871906E180518819A7
:1008300002E0CBEF48F002D0CBEF48F02BEEDBF03C
:1008400000EE06F031DAEE5CDE50EE5826E32BEED9
:10085000DBF048DAB0D95DDA2CEE71F0A9DA1AE2F1
:1008600000EC49F0B4D9BB51BC1111E0FCEC48F0EC
:1008700046EC16F0C56B01D80AD00500FA6E0101EE
:10088000BB51FD6EBC51FE6EFF6AFA50120008ECBF
:1008900049F051D090D97DDA41D02CEE71F022DAB6
:1008A0006651686F6751696F6A6B6B6B2BEEDBF09B
:1008B000DECF6CF1DDCF6DF17ED9DECF6EF1DDCF15
:1008C0006FF16C516E5D706F6D516F59716F726B1E
:1008D000D8A072077251736FFF0E7025746FFF0EF0
:1008E0007121756F000E7221766F000E7321776F84
:1008F0006851745D695175596A5176597751800A0A
:10090000786F6B51800A785902E3CBEF48F053D9E6
:1009100040DA2BEEDDF0DE2A000EDD22DC6BDB6B35
:10092000DA6B2BEEDBF0DE280AE1DE2808E1DE28B8
:1009300006E1DE2804E12BEED5F0DF8202D64CD9A9
:10094000030A03E10ADA90EC6BF0010EE8CFBDFC7C
:1009500090C160F091C161F0F3EC58F0010122D92F
:100960001FE020D99025666F000E9121676F080E59
:100970006625D96E000E6721DA6EDF5012E0080E90
:1009800090250001A76F000E010191210001A86FC1
:10099000010108D90001A96FB3EC22F004DA01D0FB
:1009A000ECD900010FD9FED8ABD903E16751691921
:1009B00047E0B8D9796F0001EF4BF02B0101F2D875
:1009C000666F66510001F15DF40F01018B6FEAD88B
:1009D000190F816F79510CE015D989D97DEC13F08D
:1009E00047D9AD6BD3EC2CF0FF0EEF25AED929D053
:1009F0000001E8D8D7D8686F696B0D0E6827000E24
:100A000069236651685D6951800A6A6F6751800A7F
:100A10006A5915E2F7D86BD979EC13F029D9AD6B87
:100A2000D3EC2CF00101BED80AE1EFC0A7F0F0C072
:100A3000A8F08B050001A96FB3EC22F0B4D9010135
:100A4000C1D999EC6AF036D9E8CFD3FC2BEED1F0BE
:100A5000DF982BEED4F0DF822BEED1F0DFA043D075
:100A600020EE05F09051D9269151DA22DFAA38D034
:100A70002BEED1F0DF90010E7B6FA9D8BB51BC11DA
:100A80000CE006D901D809D00500FA6EBB51FD6E05
:100A9000BC51FE6EFF6AFA5012002BEED4F0DF92CA
:100AA0002BEED3F0DFAA4BD02BEED1F0DFBA47D03C
:100AB0002BEED1F0DFB204D02BEED1F0DFA63FD089
:100AC000FFD812EC3EF0000908E1000E51D91AECF3
:100AD00039F02BEED1F0DF9632D08AEC2FF02FD008
:100AE000AEEC52F02CD0010E7B6F71D8BB51BC1113
:100AF0000CE0CED801D809D00500FA6EBB51FD6ECE
:100B0000BC51FE6EFF6AFA5012002BEED3F0DFAA42
:100B100016D02BEED1F0DFBA12D02BEED1F0DFB22F
:100B200004D02BEED1F0DFA60AD0CAD812EC3EF0EA
:100B30000009D3E1000E1CD91AEC39F0CAD7E3CB77
:100B4000E8FF020AD8A412000EEC6DF00101666FF6
:100B500066B11200AFD40101BB51BC11D8B4120070
:100B60000EEC6DF00101666F66B70ED0FAD8030E79
:100B70000001C56F0500FA6E0101BB51FD6EBC514D
:100B8000FE6EFF6AFA501200ECD8020E0001C56F2B
:100B90000500FA6E0101BB51FD6EBC51FE6EFF6A8D
:100BA000FA50120020EE05F09051D9269151DA2228
:100BB000DF500F0B120020EE06F09051D926915114
:100BC000DA221200F1510101666F676B12002BEE01
:100BD000D3F0F00EDF16F00C2BEED3F0DF500F0B3E
:100BE0001200616FCB0E626F020E636F656B1200B5
:100BF0006BC07DF16CC07EF16DC07FF16EC080F185
:100C000001011200EFC0A0F0F0C0A1F08B050001BF
:100C1000A26F010EA36F010CC30E606F090E616F0E
:100C2000EFC062F0F0C063F0FC0EF125646F656BFD
:100C3000FF0E6523FF0C8CC16BF08DC16CF08EC173
:100C40006DF08FC16EF00001F151FC0F6F6F490E16
:100C5000706F490CCA6F020ECB6FB30ECC6F090ECA
:100C6000CD6F0C0EF125CE6FCF6B000ECF23000C95
:100C7000A96F81C1AAF0B30EAB6F090EAC6F120061
:100C8000B30E606F090E1200850E606F010E120028
:100C90002BEED1F0DF9A83C1C2F084C1C3F08BC1C7
:100CA000C4F07BC1C5F012009051E9269151EA22AF
:100CB000DE501200000EE8CFB5FCE8CFB6FC000C09
:100CC000010E0001A76F7A0EA86F010EA96F2CEE1E
:100CD000D2F0DF501200EFC06BF0F0C06CF0F1C04A
:100CE0006DF01200DECF66F1DDCF67F11200DBCBD5
:100CF000A4F0DCCBA5F0DDCBA6F0DECBA7F0120094
:100D0000686F696B0C0E6827000E692366516819BD
:100D10001200DECF68F1DDCF69F16651685F67517F
:100D2000695B1200EFC0D9FFF0C0DAFFDF5012009C
:100D3000010120EE0BF08951D9268A51DA221200E6
:100D40008951D9268A51DA2212000101836FFF0EE0
:100D50000001F0210101846F12002CEECAF0DF5077
:100D60001200EFC0C2F0F0C0C3F0F1C0C4F0120036
:100D7000E56FE66FE76FE86F1200080E0001EF27DE
:100D8000000EF023000C66298E6F000E67218F6F16
:100D90001200DECFDBFBDDCFDCFB1200DE508C5D12
:100DA000DE508D591200A7C0EFF0A8C0F0F012007D
:100DB0006851DE5C6951DE581200DECF8CF1DDCF68
:100DC0008DF112008B6B836B846B12002BEED4F0D1
:100DD000DFB0D1D10001E76BE86BE96BEA6BEB6B3D
:100DE000F069F169F269F369000EE8CFD6FC41ECD5
:100DF00016F00209DF6EBFCCF8F02BEED1F0DFA4C5
:100E000069D02CEE6DF016DA2BEEE8F0DCD92BEC85
:100E10004CF015DABEEC1FF0AAEC60F02CEE6FF08F
:100E200009DA2BEEEDF0CFD92BEC4CF008DA68DACA
:100E3000AAEC60F0BEEC1FF0E3EC50F061DAE3ECFA
:100E400050F0F851120D47DA080EAAEC46F02CE0EB
:100E50002CEEDCF0DF500DE12CEEC0F0EBD945DAE2
:100E60002F0ED6EC0DF0C4EC5AF01ADAC4EC5AF09E
:100E700026D02CEEDCF00B0EDF600BD02CEEC0F099
:100E8000D9D933DAD60E966F0B0E3EDAC4EC5AF08F
:100E9000ECD72CEEC0F0CED928DA530E966F760E32
:100EA00033DAC4EC5AF0E1D7F851120D14DAD0D984
:100EB000C1D9D8D9C4EC5AF0F3D9C4EC5AF0F851DE
:100EC000B1D992C0DEFF93C0DEFF94C0DEFF95C0B3
:100ED000DEFF2BD02CEE69F0ADD92BEEE8F073D904
:100EE0002BEC4CF0ACD9BAEC1FF0AAEC60F02CEE75
:100EF0006BF0A0D92BEEEDF066D92BEC4CF09FD91E
:100F0000ADEC06F0AAEC60F0BAEC1FF0E3EC50F0A8
:100F1000ADEC06F0E3EC50F0F851120DDCD998D9A5
:100F200089D9A0D9C4EC5AF0A0D7E6D987EC6AF0E9
:100F3000000961E0E1D990EC6BF0DED9A2EC62F03F
:100F400089C0ECF08AC0EDF08BC0EEF08CC0EFF001
:100F5000EF5107E11F0EEC5DAC0EED59DF0EEE59BF
:100F60001DE3ECC0D6F0EDC0D7F0EEC0D8F0EFC076
:100F7000D9F00D0E05D0D890D933D833D733D63326
:100F8000E82EF9D7D6C092F0D7C093F0D8C094F02D
:100F9000D9C095F061D9C4EC5AF011D0ECC092F0F0
:100FA000EDC093F0EEC094F0EFC095F055D9C4ECCD
:100FB0005AF00D0E02D097EC1FF0E82EFCD792C02D
:100FC000DFF093C0E0F094C0E1F095C0E2F0ADCC6A
:100FD000D6F0AECCD7F0AFCCD8F0B0CCD9F0DF5152
:100FE000D65DE86FE051D759E96FE151D859EA6F02
:100FF000E251D959EB6FF86BF851ABEC1EF0B8EC3D
:101000003EF056E1F8510ED98BEC1EF051E02CEE7B
:10101000BFF0F851DE1830E0F85104D9DE50E85D39
:10102000DE50E959DE50EA59DE50EB5921E2F85121
:10103000F9D8DECFD6F0DECFD7F0DECFD8F0DECFD6
:10104000D9F0E851D65DDA6FE951D759DB6FEA5133
:10105000D859DC6FEB51D959DD6FF851E3D8DAC0BC
:10106000DEFFDBC0DEFFDCC0DEFFDDC0DEFF04D064
:10107000F851D8D8D0EC29F0F851D4D8DE50F05D32
:10108000DE50F159DE50F259DE50F35911E3F851B8
:10109000C9D88BEC1EF00CE0F851C4D8DECFF0F0CC
:1010A000DECFF1F0DECFF2F0DECFF3F0010EE76F2E
:1010B000F82B0F0EF865A0D7E70553E1F0C0ADFCA3
:1010C000F1C0AEFCF2C0AFFCF3C0B0FCF35106E1DE
:1010D000F029FF0EF1590F0EF25911E3F0C060F044
:1010E000F1C061F0F2C062F0F3C063F090EC27F061
:1010F0002BEC4CF00C0EF3D8E82EFDD71CD0F0C032
:10110000D6F0F1C0D7F0F2C0D8F0F3C0D9F00C0E91
:10111000D890D637D737D837D937E82EF9D7D6C0B1
:1011200060F0D7C061F0D8C062F0D9C063F090EC35
:1011300027F02BEC4CF060C0E3F061C0E4F062C03B
:10114000E5F063C0E6F0E3C06DF0E4C06EF0E5C02A
:101150006FF0E6C070F0D0D8AAEC60F0CDD8E3EC28
:1011600050F004EC49F0D8A4120041EC16F0080944
:10117000DF6EB5EF51F00EEC6DF00001D66FD6A921
:1011800011D0C6D8D8B4120046EC16F0020EC56FC6
:101190000500FA6E0101BB51FD6EBC51FE6EFF6A87
:1011A000FA501200B5D8D8B4120046EC16F0030E6F
:1011B000C56F0500FA6E0101BB51FD6EBC51FE6E9C
:1011C000FF6AFA501200DF50D86FD96B560ED8253F
:1011D000F66EF70ED921F76EF86A000EF8220800B5
:1011E000F5CFDAF0D651DA25DB6F000EDABFFF0E4D
:1011F000D721DC6FDD6BDE6B0C0ED890DB37DC3774
:10120000DD37DE37E82EF9D7DBC060F0DCC061F0F7
:10121000DDC062F0DEC063F07D0E646F656B666BEF
:10122000676B7D0C120D9F0EF324D96E080EF4200F
:10123000DA6E1200DECFD6F0DDCFD7F0120060C03C
:101240006DF061C06EF062C06FF063C070F01200AC
:10125000080EF420DA6E12007D0E966F976B986B75
:10126000996B7D0CD651D86FD751D96FDA6BDB6B88
:10127000D829926F000ED921936F000EDA21946F56
:10128000000EDB21956F2CEEC0F0DECFDCF0DDCF61
:10129000DDF0DCC096F0DDC097F0986B996B120022
:1012A000FF0E9225F46FFF0E9321F56FFF0E942130
:1012B000F66FFF0E9521F76FF4C092F0F5C093F032
:1012C000F6C094F0F7C095F0D4C096F0D5C097F072
:1012D000986B996B12009D0EF324D96E1200D89072
:1012E00060376137623763371200D6C092F0D7C0DB
:1012F00093F0946B956B12002CEECEF0DF50120041
:101300002CEEC8F0DF501200976F986B996B1200AB
:101310000101BB51BC111200806B816B796B7A6B40
:10132000010E0001616FB30E606F626924EC5EF024
:10133000010E0001616FB40E606F626924EC5EF013
:10134000BFEC6CF01EDA7927000E7A230001616B86
:10135000606B7BC162F024EC5EF00101804B812B5D
:101360007C0E0001606F010E616F7B0E626F010EDB
:10137000636F13EC66F001017B51F2D924EC5EF04F
:101380000101804B812B826B030E826501D005D059
:10139000B7D924EC5EF0F9D9F7D790C27CF191C2AD
:1013A0007DF17E6B7F6B7D517927E4D97DC162F041
:1013B00024EC5EF00101804B812B7C517927DAD936
:1013C0007CC162F024EC5EF00101804B812BC7EC04
:1013D0006CF07B6F7B51C4D924EC5EF00101804B33
:1013E000812B2DEC6BF060C07CF161C07DF162C09F
:1013F0007EF163C07FF1826B030E826501D005D060
:101400007FD924EC5EF0C1D9F7D748EC6BF060C00F
:101410007CF161C07DF162C07EF163C07FF1826BBF
:10142000030E826501D005D06BD924EC5EF0ADD9F6
:10143000F7D7660E00016B6F010E6C6FD9EC69F087
:101440000101826B070E826501D005D071D924ECB1
:101450005EF09BD9F7D7660E00016B6F010E6C6FC3
:10146000CDEC68F00101826B070E826501D005D0DA
:101470005FD924EC5EF089D9F7D7660E00016B6F57
:10148000010E6C6F66EC6AF00101826B0F0E8265D3
:1014900001D005D04DD924EC5EF077D9F7D7660E90
:1014A00000016B6F010E6C6F50EC6AF00101826BF2
:1014B0000F0E826501D005D03BD924EC5EF065D9D2
:1014C000F7D7660E00016B6F010E6C6F5BEC6AF074
:1014D0000101826B0F0E826501D005D029D924EC61
:1014E0005EF053D9F7D751EC6BF060C07CF161C06E
:1014F0007DF162C07EF163C07FF1826B030E826575
:1015000001D005D0FDD824EC5EF03FD9F7D7660EA8
:1015100000016B6F010E6C6F91EC68F00101826B42
:101520000F0E826501D005D003D924EC5EF02DD9D1
:10153000F7D7660E00016B6F010E6C6F82EC68F0DE
:101540000101826B0F0E826501D005D0F1D824EC29
:101550005EF01BD9F7D73FEC6BF060C07CF161C047
:101560007DF162C07EF163C07FF1826B030E826504
:1015700001D005D0C5D824EC5EF007D9F7D755ECDB
:101580006CF07B6F7B51ECD824EC5EF00101804B5A
:10159000812B786B020E786501D01DD07851B9ECA3
:1015A00066F0EFD8DDD824EC5EF00CD9D2EC67F011
:1015B000E8D8D6D824EC5EF005D958EC64F0F1D820
:1015C000030E826501D005D09BD824EC5EF0DDD8F7
:1015D000F7D7782BDFD7786B1C0E786501D03AD01F
:1015E0007851030F27EC69F060C07CF161C07DF198
:1015F00062C07EF163C07FF10101826B030E8265E0
:1016000001D005D07DD824EC5EF0BFD8F7D7785153
:10161000030F58EC64F0C5D8030E826501D005D0E5
:101620006FD824EC5EF0B1D8F7D77851030FD2EC25
:1016300067F0A7D895D824EC5EF0C4D8030FB9ECB6
:1016400066F09FD88DD824EC5EF00101804B812B91
:10165000782BC2D7C3EC6CF07B6F7B5181D824EC24
:101660005EF00101804B812B5FEC6CF07B6F7B5156
:1016700077D824EC5EF00101804B812BA3EC6CF059
:101680007B6F7B516DD824EC5EF00101804B812B88
:101690004BEC6CF060C076F161C077F1826B010EAB
:1016A000826501D00AD086D8792764D883D8000112
:1016B000626F24EC5EF069D8F2D7792904E17A29C7
:1016C00002E1796B7A6B80C160F081C161F079C110
:1016D00062F024EC5EF00101804B812B80C160F050
:1016E00081C161F07AC162F024EC5EF00101804BAF
:1016F000812B000120EE06F0EF51D926F0514AD09F
:101700007C0E8225D96EDA6A010EDA22DF50792743
:10171000000E7A2380C160F081C161F07C0E8225C9
:10172000D96EDA6A010EDA22DF500001626F120010
:10173000660E8225D96EDA6A010EDA22DF50792729
:10174000000E7A2380C160F081C161F0660E8225AF
:10175000D96EDA6A010EDA22DF500001626F1200E0
:101760007927000E7A2380C160F081C161F07BC1CE
:1017700062F0000C000E7A2380C160F081C161F03C
:10178000000C01017B6F7B5112000101804B812B0A
:10179000822B1200DA2200C2DEFF01C2DEFFDD6A08
:1017A000120063C07CF164C07DF101017E6B7F6B30
:1017B000826B1200760E8225D96EDA6A010EDA2269
:1017C000DF5012000101804B812B785112009FECF9
:1017D00021F04BEC38F019EC26F0CAEC35F00201A0
:1017E000AF5180EC39F00201AC0501E068D1A2C232
:1017F00062F0390EFAEC68F0B6C2A0F0010E0001FA
:10180000A0170201D890B5350001A16F0201AE39D1
:10181000D9D91D0EFAEC68F09FC0A0F0030E0001AC
:10182000A017B0C2A1F0010EA117D890A137D8908F
:10183000A1370201AD39C6D91E0EFAEC68F00201DB
:10184000B251B3113DE0B2C2A3F0B3C2A4F00001A3
:10185000A56BA66B1FD0A1D97D0E000199D9C4EC50
:101860005AF00DD09AD9FA0E000192D9C4EC5AF070
:1018700006D093D9F40E000199D9C4EC5AF092C065
:10188000A3F093C0A4F094C0A5F095C0A6F00BD02F
:1018900093D909D00201AE51070ADDE00F0AE2E058
:1018A000010AE7E0F5D70201AD290001A06F05D0DC
:1018B000D890A633A533A433A333A02FF9D701D0F2
:1018C0007BD9A3C062F0240EFAEC68F09EC062F0EF
:1018D0001F0EFAEC68F0260E79EC67F0A76F0C0E7D
:1018E0000201AD1906E1070EAE1909E0080EAE19A6
:1018F00006E00B0EAD1906E1070EAE1903E100017B
:10190000A78702D00001A797A785A7C062F0260E7F
:10191000FAEC68F0310E79EC67F0A76FF80EA717B4
:10192000030EA71363D9FAEC68F00A0E0001626F88
:10193000370EFAEC68F0120E0201C51925E1070E08
:10194000AE1903E0080EAE1913E1310E79EC67F021
:10195000A76FA79F4BD9FAEC68F0400E0001626FA9
:101960002F0EFAEC68F00001626B300EFAEC68F0B2
:10197000090E0201AE1908E1310E79EC67F0A76F8C
:10198000A78F34D9FAEC68F0330E79EC67F0A76FC3
:10199000A79DA781B4C2A0F0010EA017060EA16FEB
:1019A000D890A037A12FFCD7A051A713A7C062F0F1
:1019B000330EFAEC68F0B4C2A0F0010E0001A017DB
:1019C000D890A037D890A035FF0A1D0BA76FA7C0ED
:1019D00062F03B0EFAEC68F001D9200EFAEC68F0E8
:1019E000A0C262F0210EFAEC68F006D9FAEC68F0B9
:1019F0000001626B0E0EFAEC68F00001626B0F0ED4
:101A0000FAEC68F0120E0201C51956E1090EAE1982
:101A10001AE1800E945D130E9559610E9659330E9E
:101A2000975911E39405F70E9559CB0E96593C0E34
:101A3000975909E2020ECFD8FAEC68F0640EC8D8C4
:101A4000FAEC68F022D0090EAE191BE1800E945D0D
:101A50001A0E9559700E9659180E975912E3410EA9
:101A6000945DDD0E95594A0E96591F0E975909E25D
:101A7000020EB1D8FAEC68F07F0EAAD8FAEC68F042
:101A800004D0030EA8D8FAEC68F0090E0201AE19D2
:101A90000BE1B40509E1650E9BD8FAEC68F0190E6C
:101AA000A2D8FAEC68F008D0650E92D8FAEC68F08B
:101AB0001D0E99D8FAEC68F09CD8FAEF68F098C23D
:101AC0006DF099C26EF09AC26FF09BC270F0FFEC9D
:101AD00053F09CC26DF09DC26EF09EC26FF09FC22B
:101AE00070F0DFEC52F07AD8250EFAEC68F0A0C264
:101AF00062F0260EFAEC68F00A0E79EC67F0A76F38
:101B00009F0EA7170201C839E846E00B0001A71392
:101B1000A7C062F00A0EFAEC68F0C80E0001A76FC9
:101B20000201B05102E00001A789A7C062F0300EA7
:101B3000FAEC68F00001A26B0ED0A30EA225D96EBC
:101B4000DA6A020EDA22DF50626FA251280FFAEC35
:101B500068F00001A22B0201AB510001A25DEDE390
:101B60000201AB5108E0AB0510090001626F270EBE
:101B7000FAEC68F005D00001626B270EFAEC68F011
:101B8000000162693E0EFAEC68F039D8FAEF68F0AD
:101B9000966F976B986B996B1200A3C092F0A4C0DC
:101BA00093F0A5C094F0A6C095F01200966F010EB8
:101BB000976F986B996B010C0001A36BA46BA56BDD
:101BC000A66B1200F00B0001A111A011626F1200B0
:101BD0000001626F3A0C0001626F360C0201A151E4
:101BE0000001626F12000001626F3B0CA7C062F03F
:101BF000310C00016269120C0001626B0D0C0001D6
:101C000062693F0C0001CA6BCB6B616B606BCCEC03
:101C100069F00001C56FCA4BCB2BC5C0C2F0C36BC6
:101C2000C55175EC1CF0E5D9CCEC69F0C9D9CC6B89
:101C3000D0D9CCEC69F0A1D9CC65FAD7C6C065F093
:101C4000C7C066F0C8C067F0C9C068F0C5C069F019
:101C500054EC5CF0CED9CCEC69F0B2D9C5C0BCF084
:101C6000BD6BBC51BD6FBC6BC4D9CCEC69F0A8D9BD
:101C7000C551BC27000EBD23BCC060F0BDC061F0E3
:101C800078EC6CF0BCC0C0F0BDC0C1F0B2D9CCECF7
:101C900069F096D9C55177EC5CF00001CC6B99D90D
:101CA000CCEC69F06AD9CC65FAD7C6C060F0C7C081
:101CB00061F0C8C062F0C9C063F075EC6BF0CC6B2A
:101CC00088D9CCEC69F059D9CC65FAD7C6C060F098
:101CD000C7C061F0C8C062F0C9C063F07EEC6BF0B1
:101CE000CC6BCC51AC0F7ED9CCEC69F0DF6E53D904
:101CF000CC65F7D7C0A105D0AC0E6B6F6C6BB5ECA3
:101D000063F0CC6BCC51AC0F6DD9CCEC69F0DF6ECD
:101D100042D9CC65F7D7C0A305D0AC0E6B6F6C6B06
:101D200052EC66F0CC6BCC51AC0F5CD9CCEC69F0CA
:101D3000DF6E000169D93CD9CC65F5D7C0A505D0C7
:101D4000AC0E6B6F6C6B3DEC66F0CC6BCC51AC0F9A
:101D500049D9CCEC69F0DF6E000156D929D9CC65A0
:101D6000F5D7C0A905D0AC0E6B6F6C6B9DEC63F022
:101D7000CC6BCC51AC0F36D9CCEC69F0DF6E0001E6
:101D800043D916D9CC65F5D7C0AB05D0AC0E6B6F77
:101D90006C6B28EC66F032D91CD9CCEC69F0EDD82C
:101DA000CC65FAD7C0A70AD0C6C060F0C7C061F042
:101DB000C8C062F0C9C063F0BFEC69F0CC6BCC5115
:101DC000AC0F10D9CCEC69F0DF6E00011DD9F0D852
:101DD000CC65F5D7C0AF05D0AC0E6B6F6C6B45EC26
:101DE00068F0CC6BCC51AC0FFDD8CCEC69F0DF6E59
:101DF00000010AD9DDD8CC65F5D7C1A105D0AC0E5C
:101E00006B6F6C6B35EC68F0F9D8E3D8CCEC69F00B
:101E1000B4D8CC65FAD7C0AD0AD0C6C060F0C7C090
:101E200061F0C8C062F0C9C063F015EC6AF0E1D897
:101E3000CCEC69F0C5D8C55164EC5DF00001C46B11
:101E4000020EC46501D021D0D4D8CCEC69F0B8D84A
:101E5000C551010ED8B4000E656FC45168EC61F035
:101E6000C8D8CCEC69F0ACD8C5C066F0C4513AEC27
:101E700063F0C4D8AED8CCEC69F07FD8CC65FAD783
:101E8000C8D867EC65F0C42BDBD7C46B1C0EC465E7
:101E900001D034D0B3D89DD8CCEC69F06ED8CC65E5
:101EA000FAD7C6C065F0C7C066F0C8C067F0C9C041
:101EB00068F0C451030FBCEC5CF0A0D88AD8CCEC1D
:101EC00069F05BD8CC65FAD7A4D8030F67EC65F04E
:101ED00090D8CCEC69F074D8C5C066F0C451030F3B
:101EE0003AEC63F086D8CCEC69F06AD8C5C065F0EE
:101EF000C451030F68EC61F0C42BC8D77AD8CCEC7E
:101F000069F05ED8C551CDEC63F073D8CCEC69F0C4
:101F100057D8C551EBEC68F06CD8CCEC69F050D8D0
:101F2000C55112EC6CF00001BE6BBF6BCC6BCC5199
:101F3000BE0F58D8CCEC69F0DF6E0001CA4BCB2B3A
:101F4000CC51BE0FD96EDA6ADF50C227000EC32310
:101F5000CC2B010ECC65EBD7BEC060F0BFC061F0EA
:101F6000E2EC64F0C22904E1C32902E1C26BC36B55
:101F7000C2C0AAF0C3C0ABF01200DF6E0001CA4BB2
:101F8000CB2BCC51C60FD96EDA6ADF50C227000EB8
:101F9000C323CC2B030C0001CA4BCB2BCC51AC0F71
:101FA000D96EDA6ADF50C227000EC323CC2B070C90
:101FB000D96EDA6ADF50C227000EC323CC2B0F0C78
:101FC0000001C56FCA4BCB2BC551C227000EC323DE
:101FD000000CCC51C60FD96EDA6ACAC060F0CBC013
:101FE00061F01200D96EDA6ACAC060F0CBC061F04D
:101FF0001200CAC060F0CBC061F01200C66BC76BA4
:10200000C86BC96BCC6B1200CA4BCB2BCC51AC0F3D
:102010001200C6C063F0C7C064F0C4511200EFC024
:10202000D9FFF0C0DAFFDECFF4F0DDCFF5F000012C
:1020300020EE02F0B0D9DECFF6F0DDCFF7F0010EE2
:10204000F86FF969F4C0C5F0F5C0C6F0B1EC3AF02C
:10205000F96FF9BF8BD1FA6B070EFA6501D086D103
:10206000FA51020D340EF324D96E020EF420DA6E0A
:10207000DECF60F0DDCF61F0F6C062F0F7C063F054
:102080008AEC48F06051611101E06DD12B0EF92509
:102090007DD980EC48F0F5CFF1F0FAC0F2F0010EF6
:1020A000F36FF22B02D0D890F337F22FFCD7000158
:1020B000F351F11501E157D1F86B26D10F01389199
:1020C000929051D10F01389192804DD192800F01A1
:1020D000388149D1FA51F2E0010AF4E0030AF6E04E
:1020E00012D00F01389392923ED10F013893928211
:1020F0003AD192820F01388336D1FA51F2E0010AC7
:10210000F4E0030AF6E0010A2ED10F01389592940B
:102110002AD10F013895928426D192840F013885F7
:1021200022D1FA51F2E0010AF4E0030AF6E0EBD71B
:102130000F013897929617D10F013897928613D1D5
:1021400092860F0138870FD1FA51F2E0010AF4E0CC
:10215000030AF6E0D8D7929806D1928804D1FA51B2
:10216000FAE0010AFAE0020AFED00F01389B929AC7
:10217000FAD00F01389B928AF6D0928A0F01388BE1
:10218000F2D0FA51F2E0010AF4E0030AF6E0BBD71C
:102190000F013C919690E7D00F013C919680E3D0DF
:1021A00096800F013C81DFD0FA51F2E0010AF4E0A1
:1021B000030AF6E0A8D70F013C939692D4D00F0102
:1021C0003C939682D0D096820F013C83CCD0FA51BA
:1021D000F2E0010AF4E0030AF6E095D70F013B951F
:1021E0009594C1D00F013B959584BDD095840F0186
:1021F0003B85B9D0FA51F2E0010AF4E0030AF6E0B7
:1022000082D70F013C959694AED00F013C959684F1
:10221000AAD096840F013C85A6D0FA51F2E0010ABB
:10222000F4E0030AF6E06FD70F013A9B949A9BD033
:102230000F013A9B948A97D0948A0F013A8B93D0DE
:10224000FA51F2E0010AF4E0030AF6E05CD70F016C
:102250003B9B959A88D00F013B9B958A84D0958AA9
:102260000F013B8B80D0FA51F2E0010AF4E0030A3F
:10227000F6E049D70F013B9F959E75D00F013B9F1C
:10228000958E71D0958E0F013B8F6DD0FA51F2E093
:10229000010AF4E0030AF6E036D70F013B9D959C56
:1022A00062D00F013B9D958C5ED0958C0F013B8DCC
:1022B0005AD0FA51F2E0010AF4E0030AF6E023D71B
:1022C000929E51D0928E4FD0FA51FAE0010AFAE074
:1022D0004AD7929C48D0928C46D0FA51FAE0010A33
:1022E000FAE041D7939C3FD0938C3DD0FA51FAE06D
:1022F000010AFAE038D7939E36D0938E34D0FA5143
:10230000FAE0010AFAE02FD7F95101E1E3D6010A18
:1023100001E1F3D6030A01E104D7010A01E114D770
:10232000070A01E11CD7010A01E12BD7030A01E1E9
:102330003BD7010A01E14BD70F0A01E15BD7010A44
:1023400001E16BD7030A01E17BD7010A8CE0070AA0
:102350009DE0010AAEE0030AB7E0010ABEE01F0AF1
:10236000C5E0010ACCE00001FA2B76D6F851D2EC98
:1023700026F0DECFF1F0DDCFF2F020EE06F00BD844
:10238000F1C0DEFFF2C0DEFFDD6A1200F66EF76A12
:10239000F70EF7221200EF51D926F051DA2212007F
:1023A000E06F100E0001E46FE26BE10E606F616B95
:1023B000636B626B656B010E646F67EC66F06ED9E0
:1023C00065D967EC66F008EC3FF0FBEC3EF067EC9B
:1023D00066F0E00506E1E1511F0B8009E16F99D934
:1023E00004D0E1511F0B4009E16FFC0EE117E30E31
:1023F000E117C20E70D9E1C0DFFFE42B40D90DEC2C
:102400003FF0F6EC3EF0BFEC55F0040EE427E36B32
:102410002BEED3F0DFAC3FD0E38F6FEC44F017E24C
:10242000E38D2BEED1F0DF882CEEB5F0DE2A000E26
:10243000DD222CEEB5F0DECFDCF0DDCFDDF02CEED2
:1024400077F0DF50DC19DD1106E15FD9E39D2BEE5B
:10245000D1F0DF9820D02CEEB5F00CEE77F0EF50F5
:10246000DE6FDF6BDE50DE5DDE50DF59EFE2D3CC96
:10247000E8FF010FE8CFD3FC2CEE78F00CEED3F0A0
:10248000DE50EE5C08E341D92DEC44F0000903E195
:102490005AEC06F0DBD72BEED1F0DFA204D0E38BB1
:1024A0002BEED1F0DF92E3992CEE7CF0DF5003E0CD
:1024B000DA51DB1119E1F00EE3170101DC5103E001
:1024C00000010FD91ED90101DB5108E00001E351E1
:1024D0000F0BDC6FDC2BE351DC1913D90101DA514E
:1024E00008E00001FED804D0CBEC49F0DC6FE31922
:1024F00008D9C20E0001EFD8E3C0DFFFE42BBFD83C
:10250000D70E626F0B0E636F656B020E646FBFECCC
:1025100055F0020EE4272CEE7CF0DF500EE0DA518D
:10252000DB110BE0C20E606F0A0E616FE40E626F8A
:10253000010E636FC7EC1FF028D02CEE7CF0DF504B
:1025400024E10101DA5109E0C20E0001606F0A0EB8
:10255000616FE40E626F88EC62F00101DC5109E00A
:10256000C20E0001606F0A0E616FE40E626F6EECC6
:1025700062F00101DB5109E0C20E0001606F0A0E3A
:10258000616FE40E626FCDEC66F0C20E0001A3D85D
:10259000D7C0DFFFE42BDA51DB1118E070D8D8C0C8
:1025A00062F0D9C063F0DAC064F0DBC065F0BFEC64
:1025B00055F0D8C0A0F0D9C0A1F0DAC0A2F072D80E
:1025C0009CD880D8D3EC2CF0DA5119D02CEE7CF0CA
:1025D000DF5016E0B30E606F090E616FE20E626F9E
:1025E000636BC7EC1FF0B30EA06F090EA16FE2C0C2
:1025F000A2F058D87ED866D8D3EC2CF0E251E4276C
:10260000D7CB6BF0D8CB6CF0D9CB6DF0DACB6EF0CA
:10261000E451F00F6F6F490E706F000E716BC3ECD9
:102620003EF0C20E606F0A0EF1EC05F0100E646F02
:10263000BFEC55F041D8CA6F020ECB6FC20ECC6F03
:102640000A0ECD6FE4C0CEF0CF6B8DEC13F017D82F
:102650008FEC56F0F6EC3EF0BFEC55F0040EE4279C
:10266000F00EDC6FDD69E451DE6FDF6BDC51DE27DD
:10267000DD51DF23DEC0B9FCDFC0BAFC1200C20EA0
:10268000E425606F616B0A0E61231200616F636B5A
:10269000626B010E656F0F0E646F0F0CC20E606FE0
:1026A0000A0E1200A36BD7CBA4F0D8CBA5F0D9CBE0
:1026B000A6F0DACBA7F01200F30EC86F0B0EC96FAD
:1026C000CB0E1200A96FE4C0AAF0C20EAB6F0A0EC7
:1026D000AC6FAD6B1200E425D96EDA6A0A0EDA220D
:1026E0001200E3510F0BDC6F020EDC27E351DC1903
:1026F0001200F30EA86F0B0E1200030EA86F0C0E43
:102700001200F00BDC19E36F1200000EE8CFD3FCCF
:10271000000C2BEED1F0DF8012000101656B646BC1
:10272000626B606B616BC8C0A0F0C9C0A1F0100EF5
:102730000001A26F010EA36F000EA46F010EA56F22
:1027400054EC32F00F0ECE25D06F000ECF21D16F9A
:10275000040ED26FD890D133D033D22FFBD7D051C3
:102760000101636F635104E1010E636F626B0AD074
:10277000CEC0D0F00F0E0001D017010ED8A4000E6D
:102780000101626F62052DE1646B6351100DF3501E
:10279000F00F656F18D0200E0101642526D9100EA8
:1027A0006425E96EEA6A010EF6D80101655100015F
:1027B000CC25E96E000ECD21EA6EEF50D019DF6E08
:1027C0000101642B652B6351C6D80101655108D9FD
:1027D000D25DD351800AD46FD151800AD45940E2DE
:1027E000DAD70F0E0001CE15D06FD16BD9D8D25FDA
:1027F000D151D35BCE51D2250101606F0001CF5181
:10280000D3210101616F656BE1D865610CD0655121
:102810006025D96E000E6121DA6E300EC7D8EA222B
:10282000DFCFEFFF09D0D2D8651904E1A9D8800E17
:10283000DF6E02D0A5D8DF6A652B0F0E6565E4D781
:10284000656B200E6525D1D8000E6525E96EEA6A14
:10285000010EA1D8300E0101A9D88AD86565F1D73B
:10286000500E0001606F010E616FFBEC3EF067ECF3
:1028700066F00101656B32D00101646B400E642586
:10288000AAD8655168D88CD89CD864510001D2254B
:10289000E96E000ED321EA6EEF50D46F500E0101A5
:1028A000642575D8EA22EF500001D419DF6E0101CA
:1028B000642B0F0E6465E2D7500E0001606F010EAD
:1028C000616F400E626F010E41D8BFEC55F0500EA3
:1028D0008C6F010E70D840EC67F0652B0001D06959
:1028E000D169010163517CD86CD865510001D46F66
:1028F000D56BD251D45DD551800AD66FD351800AA1
:10290000D659BAE30101656B400E652564D8200EE7
:102910006525E96EEA6A010E3ED8500E0101652573
:1029200036D826D86565F0D7400E00018C6F010EB1
:1029300042D840EC67F0CAC060F0CBC061F0400EF6
:102940000001626F010E02D8BFEF55F0636F656B37
:10295000100E646F100C0001D06FD16BD03BD13BD7
:10296000F00ED117D0510F0BD113F00ED017F00C81
:10297000EA22EF500001D019DF6E0101652B0F0C28
:10298000300E6525D96EDA6A010EDA221200E96E80
:10299000EA6A010E1200EA22EF500001D06F120025
:1029A000CCC0D2F0CDC0D3F0D05112006525E96E75
:1029B000EA6A010E12008D6FC8C08EF0C9C08FF098
:1029C0001200D227D151D323010112000001CE51B0
:1029D0000F0B01011200D96EDA6A010EDA22120021
:1029E0000001D26FD36BD0511200D96EDA6A010E9A
:1029F000DA2212000001DA69DB69DC69DD692BEE9D
:102A0000D4F0DFB02DD1ECEC05F0030A2FE139D979
:102A10000409DF6E2BEED3F0DFA81200E3CBE8FF52
:102A2000020AD8A412002BEED1F0DFB0120039D97F
:102A3000D8B012002CEEB9F0010EDB5004E10E0EFE
:102A4000DE5CD8A0120092EC6AF088EC09F0D8B4F1
:102A500012001CD9010EC56F0500FA6E0101BB51B1
:102A6000FD6EBC51FE6EFF6AFA5012002BEED1F0E3
:102A7000DFB49DEF64F02BEED3F0DFA8E8D02BEEAF
:102A8000D1F0DFA043D006EC2BF02AE3FAD8DAEC41
:102A900052F0DECFD4F0DDCFD5F0D451D66FD55182
:102AA000D76FD86BD96B0C0ED890D637D737D837AD
:102AB000D937E82EF9D7D6C060F0D7C061F0D8C0BA
:102AC00062F0D9C063F090EC27F02BEC4CF01FECD7
:102AD00009F0EED8AAEC60F0EBD8E3EC50F0B7D0F8
:102AE0006CEC6BF00101BB51BC1101E1B0D0000EE8
:102AF000CDD8C56B01D8ABD00500FA6E0101BB5132
:102B0000FD6EBC51FE6EFF6AFA501200CAD801E297
:102B100085D0B7D80609DF6E010E5EEC42F00009E1
:102B200013E1E6EC4DF0A1EC23F0A851A91105E169
:102B3000B2D8A7D80109DF6E8AD092EC6AF0010101
:102B4000BB51BC11D4E183D0DE6B3AD0DE51ABEC8B
:102B50001EF0B8EC3EF033E1DE5112EC09F08BECE4
:102B60001EF02DE0DE5112EC09F0DE50DA5DDE5091
:102B7000DB59DE50DC59DE50DD5921E3DE51B0EC8B
:102B80003EF0DF500F0BD46F2CEEC4F0D451DE5C5E
:102B900016E32CEEC4F0DE51F7EC2FF0EF380F0BFC
:102BA000D56FDE50D55D0BE3DE5112EC09F0DECFC0
:102BB000DAF0DECFDBF0DECFDCF0DECFDDF0DE2BD7
:102BC0002CEED2F0DE51DE5CC1E2DAC0D4F0DBC024
:102BD000D5F0DCC0D6F0DDC0D7F00C0ED890D437DD
:102BE000D537D637D737E82EF9D7000ED425606F02
:102BF000200ED521616F030ED621626F000ED72102
:102C0000636F90EC27F02BEC4CF01FEC09F054D8DC
:102C1000AAEC60F051D8E3EC50F019D0E3CBE8FF18
:102C2000020A15E092EC6AF00101BB51BC110FE001
:102C30002DD8010EC56F01D80AD00500FA6E01012A
:102C4000BB51FD6EBC51FE6EFF6AFA50120004ECDF
:102C500049F0D8A4120015D80909DF6EB5EF51F07C
:102C600088EC09F0D8B4120011D8020EC56F050027
:102C7000FA6E0101BB51FD6EBC51FE6EFF6AFA5047
:102C800012002BEED3F0DF50F00B12000001C26BEC
:102C9000C36BC46B1200BDCCE8FF010FE8CFBDFCD5
:102CA00012002CEEBDF00CEEBBF0DE50EE5C12001C
:102CB0002CEECDF0DF5012002CEECFF0DF501200E2
:102CC00000017B6F796B7A6B080E7B192EE126EE83
:102CD0007DF0DE50DE10D8B412001BD9380E7025FE
:102CE000D96E040E7121DA6EDF5014E17CC6E8FF64
:102CF000FF0FE8CF7CF602D9DECF7FF6DDCF80F67E
:102D0000FDD8DE6ADD6A26EE7CF0DF5009D9DE6A86
:102D1000DD6A05D026EE7FF0DE06000EDD5A26EED7
:102D20007DF0DE06000EDD5A000C26EE7DF0250E4D
:102D3000DE5C020EDE5846E2200E7B1945E126EEEF
:102D40007CF0060EDF603ED0E4D805D9000EDF6AC5
:102D500026EE7DF0DE2ADD2226EE7FF006EE7CF008
:102D6000EF50020D5F0EF324E96E060EF420EA6EBA
:102D7000DECFEEFFDDCFEDFF7069716926EE7FF0EB
:102D8000F1D826EE7DF0DECF74F0DDCF75F0725114
:102D9000745F7351755B705174277151752326EE02
:102DA0007CF0DF50BDD874C0DEFF75C0DDFF7CC68F
:102DB000E8FF010FE8CF7CF6000EE8CF7FF6E8CF02
:102DC00080F677D0796975D0A4D8C5D87BC0DFFFED
:102DD00026EE7DF0DE2A000EDD2226EE7FF0DE2AD2
:102DE000DD2283D831EC5CF026EE7DF06051DE5CB4
:102DF0006151DE582EE3010E7A6F77D831EC5CF02A
:102E000060517C6F22D085D8B2D87C51725F000EA1
:102E10009AD8DF50746F69D831EC5CF0E40E756FAE
:102E2000FF0E766F60517527615176237C51755F77
:102E3000000E765B75C0F6FF76C0F7FFF86A0800F3
:102E4000F550741901E07A6B7C077C5102E07A51ED
:102E5000DAE17A512EE05DD848D831EC5CF087D8C1
:102E60006051725F61516FD8DF6A3FD831EC5CF01E
:102E700026EE7FF05DD86051705F6151715B3ED886
:102E800070C0DEFF71C0DDFF26EE7FF051D826EE68
:102E90007DF068D87051725F7151735B26EE7CF0E3
:102EA000DF503ED872C0DEFF73C0DDFF010EE8CFF9
:102EB0007BF67929D8A412006FEC64F050C260F060
:102EC00051C261F016EC1BF031EC5CF060C077F0A1
:102ED00061C078F050C266F051C267F02ED877C05A
:102EE00069F078C06AF0FFEF4AF0E40E606FFF0E01
:102EF000616F6011D8A4000E626F120026EE7CF0A4
:102F0000DF50020D5F0EF324D96E060EF420DA6E48
:102F1000120026EE7DF0DECF70F0DDCF71F01200F2
:102F2000020D6D0EF324D96E060EF420DA6E120037
:102F3000DECF70F0DDCF71F0120066516711D8A4BA
:102F4000000E686F1200735B70517225D96E71515B
:102F50007321DA6E1200390E7025D96E040E7121BC
:102F6000DA6E1200DECF72F0DDCF73F01200390E90
:102F7000726F040E736F1200010E756F7B6F766BAC
:102F8000776B6E07D8A06F07F6D0050E6E25726FAF
:102F9000000E6F21736F7051725D715173591BE296
:102FA00020EE05F06E51D9266F51DA22030EDE189D
:102FB00012E1752B040E6E257C6F000E6F217D6F64
:102FC0000AD909EC6AF0000901E07B6B050E6E2757
:102FD000000E6F23D0D006D9030EDE1801E0CBD04F
:102FE0006E4B6F2BFFD8DF500F0B746FFBD8DF5089
:102FF000726F72390F0B7A6F6E4B6F2BF3D8DECF77
:1030000078F0DDCF79F0020E6E27000E6F236EC0D0
:103010007CF06FC07DF06E4B6F2B2BEED3F0DFACEE
:1030200063D07B5112E0D7D809EC6AF0000902E0C6
:103030007B6B0BD0D0D8060A08E078C060F079C06E
:1030400061F0CBEC64F00009F3E17A51DAEC6AF05C
:10305000000911E1080E7A610ED078C060F079C0E5
:1030600061F07AC062F0B7D8636FCBEC58F000091A
:1030700002E1010E776F745143EC69F0000902E13F
:10308000010E766F760572E1770570E17B056EE1E2
:1030900078C06BF079C06CF09ED86D6F7CEC6AF0F4
:1030A00074510CEC6CF02BEED4F0DF8800017A51F7
:1030B00018EC6CF07CC0D9FF7DC0DAFF0001DF5056
:1030C0000F0B04E1000EE8CFBBFC0AD07CC0D9FF97
:1030D0007DC0DAFFDF500F0B726F720772C0BBFC4E
:1030E0002BEED4F0DF8A42D07B6B40D070D84ED824
:1030F0007BB102D0DF9001D0DF8069D847D80001D2
:1031000077B102D0DF9201D0DF8261D83FD80001D1
:1031100076B102D0DF9401D0DF849EEC23F0DF6033
:1031200025D00001755122E093EC23F050D82ED821
:10313000DF904DD82BD8DF924AD828D82FD826D860
:1031400032D824D835D822D838D820D83BD81ED861
:10315000DF9E3DD86FEC30F0DF9039D86FEC30F067
:10316000DF9235D8BDEC20F0030EDF6E000175074D
:10317000752907E0BBD770516E5D71516F5901E23F
:1031800004D76EC06EF06FC06FF01200030D7E0E9C
:10319000F324D96E0C0EF420DA6E1200DF942CEEBC
:1031A0007CF0DF501200DF962CEE7CF0DF50120036
:1031B000DF982CEE7CF0DF501200DF9A2CEE7CF0D2
:1031C000DF501200DF9C2CEE7CF0DF5012002CEE62
:1031D0007CF0DF5012007CC0D9FF7DC0DAFFDF3801
:1031E000070B12006EC0D9FF6FC0DAFF1200916B9F
:1031F00060C2A4F161C2A5F1A451A511D8A4000E2A
:10320000A66F946B31D09451090DF35083258A6FCA
:10321000F45084218B6F000E85218C6F8AC1F6FFDC
:103220008BC1F7FF8CC1F8FF21EE95F0080E05D990
:10323000FEE295C160F096C161F0875190EC17F005
:10324000DECF8AF1DDCF8BF1390E8A250001626F66
:10325000040E01018B210001636F8AEC48F060517C
:10326000611105E00101942B8651945DCCE30101CD
:103270008651945D01E3ACD097519811991101E00A
:103280009CD09A519B1101E1A3D09D518A6F8B6B09
:1032900087517CC68CF18CC18DF18E6B8D5F000ED9
:1032A0008E5B8A518D1903E18B518E19D8A490D071
:1032B0008729936F926B9D5112E0932B9305020D1A
:1032C0005F0EF324D96E060EAAEC46F003E1010E60
:1032D000926F05D026EE7CF09351DE5CEEE29251C7
:1032E00077E19E0E0001606F010E81EC64F0090E23
:1032F000646F67EC66F0010187518A6F8B6B8A2BD4
:10330000000E8B238B5114E1070E8A5D11E280D8E9
:10331000610E8A25D96E060E8BD80AE079D86F0E19
:103320008A25D96E060E7BD89E6F040E8D219F6F65
:1033300087518A6F8B6B020E85D814E1070E8A5D68
:1033400011E266D8630E8A25D96E060E71D80AE09E
:103350005FD8710E8A25D96E060E61D8A06F040E53
:103360008D21A16F87518A6F8B6B030E6BD814E18F
:10337000070E8A5D11E24CD8650E8A25D96E060EBD
:1033800057D80AE045D8730E8A25D96E060E47D85D
:10339000A26F040E8D21A36F9E0E0001EF6F010E30
:1033A000F06F01D815D00500FA6E01019A51FD6E3B
:1033B0009B51FE6EFF6AFA501200010E916F88C198
:1033C000D9FF89C1DAFF94C1DFFFA46BA56BA66B9F
:1033D0000101A451A511A61118E0A4C160F0A5C176
:1033E00061F0A6C162F031EC5CF060C08FF161C0A9
:1033F00090F1A4C166F0A5C167F0A6C168F08FC1C5
:1034000069F090C16AF0FFEC4AF00101915112009D
:1034100087518A6F8B6BD8908A378B3712008B213C
:10342000DA6EDECF8CF1DDCF8DF1390E8C251200F6
:103430008B21DA6EDE50DE1012000900F5CFDEFFC0
:10344000E80612008A27000E8B238B511200D6D07B
:10345000C45154E023D91EC262F01FC263F085EC50
:1034600063F0DBD831EC5CF0F7D8AE6F060ED321F9
:10347000AF6FC2C0D9FFC3C0DAFFDF50B06F07EC37
:103480003EF08EEC60F0C9D831EC5CF0E5D8F3D8B2
:10349000D24BD32BC669C769C451C86FC96BC6511B
:1034A000C827C751C923120ECA6F020ECB6FD25163
:1034B000CA5FD351CB5BD890CB31CD6FCA31CC6FC3
:1034C000C851CC5DC951CD5903E2B6D8DBD806D07E
:1034D000FF0EC425CE6FCF6BFF0ECF23C229B66F70
:1034E000000EC321B76FBFD81CEC41F096D831EC69
:1034F0005CF0ADD8CDD8D8A4200E0DD01AC260F0A3
:103500001BC261F093D831EC5CF0A1D81AC266F00E
:103510001BC267F06ED0686FD0C069F0D1C06AF08E
:10352000FFEF4AF0C45125E0B9D81CC262F01DC2B9
:1035300063F085EC63F071D831EC5CF08DD89BD8EA
:10354000D24BD32B79D8C96FC631C86FC451C85D6F
:10355000000EC95903E270D895D803D0C4C0CEF08C
:10356000CF6BC2C0B6F0C3C0B7F07DD81CEC41F041
:10357000BDD718C260F019C261F058D831EC5CF0C8
:1035800066D818C266F019C267F033D020C260F066
:1035900021C261F04BD831EC5CF059D820C266F002
:1035A00021C267F026D022C260F023C261F03ED86B
:1035B00031EC5CF04CD822C266F023C267F019D01F
:1035C00024C260F025C261F031D831EC5CF03FD804
:1035D00024C266F025C267F00CD026C260F027C274
:1035E00061F024D831EC5CF032D826C266F027C2F4
:1035F00067F066516711D8A4000E8DD70001C55140
:10360000D2E0010A01E124D7030AC0E0010A8AE0FE
:10361000070AD6E0010AE1E01200810E606F060E93
:10362000616F6011D8A4200E626F120060516111A9
:10363000D8A4000E626F1200120EC66F020EC76F82
:10364000D251C65FD351C75BD890C731120060C05A
:10365000D0F061C0D1F0120060C0D2F061C0D3F0F0
:10366000810ED2251200810ED225B86F060ED3210D
:10367000B96FCE511200D96E060ED321DA6E200E2C
:10368000DF6E200CC86FC631CE6FC8C0CFF01200FD
:10369000810E666F060E676F66111200810E606FF5
:1036A000060E616F12008B6B68518B25D96EDA6A3A
:1036B0008B51710FE96EEA6ADFCFEFFF8B2B0F0E94
:1036C0008B65F2D70A0E0101D66F010E456E00011F
:1036D0008B6BC9D8C1D805D98B65FBD700018B6B23
:1036E000BBD8DF50696F6A6B2B0E6925F66EF60E3C
:1036F0006A21F76EF86A000EF822AED80800F5CFFE
:10370000DFFF8B2B0F0E8B65EBD766C060F067C0B9
:1037100061F07BEC3BF00101D60501E185D00001B1
:103720008B6B93D86929D96EBFD86B6F95D8DF5052
:103730006B19896F8AD8D1D8B7D8A6D88A6F89195A
:10374000876F83D86929D96EAFD89ED8886F7F0ECE
:10375000896508D01B0E89C069F0B1D8816F6A51A4
:10376000826F05D0D8908935816F826B823781C096
:1037700089F07F0E886508D01B0E88C069F09FD83D
:10378000836F6A51846F05D0D8908835836F846BBE
:10379000843783C088F07F0E8A6508D01B0E8AC0EC
:1037A00069F08DD8856F6A51866F05D0D8908A35BB
:1037B000856F866B863785C08AF04ED886D8871984
:1037C0008919DF6E42D86929D96E54D86B2971D80E
:1037D00087198819DF6E39D8020E6925D96E4AD843
:1037E000020E6B2566D887198A19DF6E2ED875D818
:1037F00041D8020E6B255DD86D6F8B5166256E6FBB
:10380000000E67216F6F6E29E96E000E6F21EA6E60
:10381000EF50706F5AD870196D198719DF6E040E4A
:103820008B270F0E8B657DD7710E0001606F68ECE2
:103830002DF08B6B18D810D854D88B65FBD70101AD
:10384000D607D65101E04AD712008B516625696F21
:10385000000E67216A6F12008B516625D96E000E2B
:103860006721DA6E12008B51710FD96EDA6ADF5060
:10387000696F1200000E6A21DA6E8B5166256B6F3C
:10388000000E67216C6F12006B6F8B5166256C6F99
:10389000000E67216D6F020E6C25D96E000E6D2132
:1038A000DA6EDF506B191200000E6A21DA6EDF50FB
:1038B0001200E96E000E6C21EA6EEF5012006A6B86
:1038C000D89069376A37691912008B516625E96EFD
:1038D000000E6721EA6EEF501200030E6925D96EC3
:1038E00012006951DF1A8B2B0F0C0001A96FD5CC88
:1038F000E8FF010A02E13DEC55F0340EE8CFD9FCB7
:1039000011D97DEC6CF0000EDBD8FED8F4D8E8CFEE
:10391000B9FCE8CFBAFCCBD8E5D8E8CFB7FCE8CF04
:10392000B8FC010EE8CFC0FC000EE8CFC1FCE8CF28
:10393000B5FCE8CFB6FCE8CFD3FCE8CFD4FCDBD8AD
:10394000E8CFDDFCE8CFDCFC2BEED4F0DF94B8D878
:10395000E8CFD1FBE8CFD2FB070EE8CFBCFC000ECE
:10396000E8CFBBFC010EE8CFBEFCE8CFBDFCFF0EEC
:10397000E8CFC5FC2CEE79F0A9C0DFFF000EE8CF40
:10398000E3FB100EE8CFD2FC0001A9511DE1C30EEC
:1039900082D855EC25F0E5EC5FF0000EE8CFEDFBAA
:1039A000080EE8CFE9FBE60EE8CFEAFBD30EE8CF3E
:1039B000EBFB330EE8CFECFB8CD8AAEC60F0E1EC2B
:1039C0005DF0E3EC50F01FD0C30E796F090E7A6FF3
:1039D000200E7B6FA20E7C6FD30E7D6F190E7E6F53
:1039E00055EC25F071EC53F0000EE8CFEDFB280EFE
:1039F000E8CFE9FB760EE8CFEAFBE80EE8CFEBFB79
:103A0000190EE8CFECFB010EE8CFC6FC000EE8CFA4
:103A1000C4FC05EC48F0000EE8CF7AFCE8CF7BFC54
:103A2000EE0E606F0B0E81EC64F0690E646F67EC54
:103A300066F071D8D00EE8CF6BFC070EE8CF6CFCB7
:103A4000880EE8CF6DFC130EE8CF6EFC700EE8CF49
:103A50006FFC170EE8CF70FCD00EE8CF75FC070E98
:103A6000E8CF76FC200EE8CF78FC400EE8CF77FC5C
:103A7000000EE8CF71FC400EE8CF72FC000EE8CFDC
:103A800073FC400EE8CF74FC000EE8CFDAFC9F6BAD
:103A90009E6B05EF2FF0796F090E7A6FA00E7B6F8A
:103AA000270E7C6FBE0E7D6F330E7E6F330CE8CF1A
:103AB000DBFBE8CFDCFBE8CFDDFBE8CFDEFB120071
:103AC000E8CFD3FBE8CFD4FBE8CFD5FBE8CFD6FBDC
:103AD00012006D6B6E6B1E0E6F6F706B2CEEDBF059
:103AE000DF501200E8CFD7FBE8CFD8FBE8CFD9FBF7
:103AF000E8CFDAFB1200E8CFADFCE8CFAEFCE8CFB0
:103B0000AFFCE8CFB0FC1200FF0EE8CFC2FC000E05
:103B1000E8CFC3FC000CE80EE8CF69FC030EE8CF49
:103B20006AFC030C2CEED9F0DF5012000A0EE126DD
:103B3000000EE2225068516852685368FDD8FE0EAC
:103B4000E36AFE0EE35007D9B8EC3EF06AE1FE0EE0
:103B5000E35012EC09F0DFD864E0FE0EE35012EC03
:103B600009F00CEEADF0DE50EE5CDE50EE58DE50AB
:103B7000EE58DE50EE582DE2ADCC50F0AECC51F008
:103B8000AFCC52F0B0CC53F0FE0EE35012EC09F083
:103B9000DECF4CF0DECF4DF0DECF4EF0DECF4FF07B
:103BA00050504C5C486E51504D58496E52504E58D2
:103BB0004A6E53504F584B6EFE0EE35012EC09F014
:103BC00048C0DEFF49C0DEFF4AC0DEFF4BC0DEFF5B
:103BD00006D0FE0EE35012EC09F0D0EC29F0FE0EF8
:103BE000E35012EC09F0FA0E6DEC2AF0FB0EB8D897
:103BF000FC0EB6D8FD0EB4D814E3FE0EE35012EC62
:103C000009F089D80EE0FE0EE35012EC09F0DECF89
:103C100050F0DECF51F0DECF52F0DECF53F08CD833
:103C2000E32AFE0EE32AE3CF48F00F0E486489D75B
:103C3000FF0EE3046DE1E150FA0F72D8DECFADFC68
:103C4000DECFAEFCDECFAFFCDDCFB0FCFD0EE3502F
:103C50000DE1FA0EE328FB0EE3CF48F0FF0E485AC1
:103C6000FC0EE3CF48F00F0E485A18E3E150FA0F6C
:103C700057D8DECF60F0DECF61F0DECF62F0DECF6E
:103C800063F07D0E0001C4EC37F02BEC4CF0C9EC76
:103C900037F00C0E4BD8E82EFDD720D0FA0EE3CF2C
:103CA00050F0FB0EE3CF51F0FC0EE3CF52F0FD0ECF
:103CB000E3CF53F00C0E3AD8E82EFDD750C060F099
:103CC00051C061F052C062F053C063F07D0E00013C
:103CD000C4EC37F02BEC4CF0C9EC37F0F60E50C0CA
:103CE000E3FFF70E51C0E3FFF80E52C0E3FFF90EF9
:103CF00053C0E3FFE150F60FD96EE250D2EC37F03B
:103D00007CEC09F0AAEC60F07CEC09F0E3EC50F0FC
:103D1000F50EDEEF37F0DE50DE10DE10DE101200A2
:103D2000D96EE250DA6EFF0EDA22FF0CD8905036D0
:103D30005136523653361200FA0E50C0E3FFFB0ED6
:103D400051C0E3FFFC0E52C0E3FFFD0E53C0E3FF82
:103D5000FF0EE36A1200120D9B0EF324D96E1200BF
:103D6000E3CF48F0DE5048581200A8D00001A66901
:103D7000A769A869A969AED02BEED1F0DFA41FD046
:103D8000FDD8A2EC62F08C5102E1D7D80CE3F6D852
:103D9000A2EC62F00D0E01D0D7D8E82EFDD7B9D82D
:103DA000C4EC5AF075D0EAD8A2EC62F0B2D8C4ECF8
:103DB0005AF00D0E01D0BBD8E82EFDD769D02BEEFE
:103DC000D3F0DFA887D0D6D8A2EC62F08C5102E104
:103DD000B4D80CE3CFD8A2EC62F00D0E01D0B4D869
:103DE000E82EFDD796D8C4EC5AF052D0C3D8A2EC36
:103DF00062F08FD8C4EC5AF00D0E01D098D8E82E9E
:103E0000FDD746D02BEED1F0DFA405D080EC09F031
:103E1000A2EC62F008D02BEED3F0DFA805D0ADEC19
:103E200006F0A2EC62F096D80001A95102E19BD8FD
:103E30001EE3A6C0A2F0A7C0A3F0A8C0A4F0A9C02A
:103E4000A5F00D0E05D0D890A533A433A333A2332B
:103E5000E82EF9D7A2C092F0A3C093F0A4C094F0CA
:103E6000A5C095F02CEC09F0C4EC5AF011D0A6C016
:103E700092F0A7C093F0A8C094F0A9C095F02CECE4
:103E800009F0C4EC5AF00D0E01D051D8E82EFDD740
:103E900092C0A6F093C0A7F094C0A8F095C0A9F076
:103EA00019D058EC16F0A2EC62F054D8A951C1E137
:103EB0005AD8BFE2DCD7000165D80CD0ECEC05F095
:103EC00001E154D7020A01E157D7060A9BE0020A32
:103ED000E8E0F1D70001A951A811A71103E1C80E2C
:103EE000A65D0AE3CE0EA627FF0EA723A823A923CB
:103EF0002BEED4F0DF8004D045D82BEED4F0DF9049
:103F0000A6C09EF0A7C09FF0A8C0A0F0A9C0A1F0D5
:103F1000120089C092F08AC093F08BC094F08CC0DC
:103F200095F07D0E966F976B986B996B7D0CD89082
:103F3000953394339333923312001F0E895DAC0E88
:103F40008A59DF0E8B591200D8908C338B338A3309
:103F50008933120089C0A6F08AC0A7F08BC0A8F0F0
:103F60008CC0A9F012001F0EA65DAC0EA759DF0E83
:103F7000A85912002CEEC9F0DF5012002CEEC7F049
:103F8000DF501200A66BA76BA86BA96B120006D9B5
:103F90006B6F6A6BDFD0635101E1C6D06A51EDD817
:103FA000DE2801E1C1D0FE0E646F65696A51E5D873
:103FB000DF50666F676B64516627655167233D0E5E
:103FC0006625F66EF70E6721B3EC5AF0F5506BC01C
:103FD00068F0696B6827000E6923E0D8685F000EFF
:103FE000695B69BFA1D0695105E1100E685D01E30D
:103FF000B7D09AD0B5D0BAD8030EDF6E6B2BB6D837
:10400000DF6A6A51C6EC18F0DFA003D0AFD8000E0B
:10401000DB806A51C6EC18F0DFA203D0A7D8000EEF
:10402000DB826A51C6EC18F0DFA403D09FD8000EE3
:10403000DB8400016B2B8DD099D8050EDF6E6B2BC6
:1040400095D8DF6A6A51C6EC18F0DFA603D08ED887
:10405000000EDB806A51C6EC18F0DFA803D086D8CA
:10406000000EDB826A51C6EC18F0DFAA03D07ED8BE
:10407000000EDB847BD8DF500101D96FDAD776D808
:10408000060EDF6E6B2B2CEEC5F07FD86B2B0BEC86
:104090006DF0800AA00F05E30BEC6DF0800A600F55
:1040A00004E3000163D8200E05D000015FD80BECBB
:1040B0006DF03F0BDF6EBDD759D8070EDF6E6B2B4F
:1040C00055D8DF6A6A51C6EC18F0DFAE03D04ED87F
:1040D000000EDB806A51C6EC18F0DFACAAD746D8D8
:1040E000000EDB82A6D784EC1DF06A5146D84DD86D
:1040F000A0D73CD80A0EDF6E6B2B38D8DF6A6A5126
:104100006FEC30F0DFA003D031D8000EDB806A51B5
:104110006FEC30F0DFA203D029D8000EDB8226D866
:10412000DF500101D86F85D76A5127D8DF50020AC6
:10413000DAE0010A01E15FD7070AD7E0010A01E1ED
:104140007BD7030A9CE0010AB7E00F0ACEE0020A1F
:10415000D0E06A2B2CEE7CF0DE506A5D01E21BD7CA
:104160006251D96EDA6A6BC0DFFF12006B516025B5
:10417000D96E000E6121DA6E1200030D7D0EF3245C
:10418000D96E0C0EF420DA6E12006B516025E96EC8
:10419000000E6121EA6EDFCFEFFF12006251D96E8F
:1041A000DA6ADF5012000201B7A506D0800E0001C6
:1041B000A96F030EA86F030CB7C2AAF0030E00018B
:1041C000AA1705E0800EA96F040EA86F040CA85171
:1041D000A91104E1C8D8E7EC0BF006D0A8C09EF006
:1041E000A9C09FF0E7EC0BF00201AC050DE1010E58
:1041F0000001626F220EFAEC68F0C3D8FAEC68F0A6
:10420000AFD8FAEC68F010D0C9C262F0120EFAEC26
:1042100068F0CAC262F0130EFAEC68F0B2D8FAEC99
:1042200068F09ED8FAEC68F00201B783E70EB71782
:104230000001A851A91105E182D8050E4BEC38F018
:104240002BD00201AC0509E1010E0001656F000EE3
:10425000666F060E4BEC38F01FD0000E8ED84BEC7C
:1042600038F00001A851AA6FA951AB6FAC6BAD6BD0
:104270000C0ED8907DD8E82EFCD758D890EC27F0BB
:104280002BEC4CF01FEC09F00201BC51AAEC60F0E1
:104290000201BC51E3EC50F057D83AE0C15102E1C1
:1042A00059D80BE339D8C4EC37F02BEC4CF00C0E9A
:1042B0006FEC09F0E82EFCD713D0BEC2AAF0BFC243
:1042C000ABF0C0C2ACF0C1C2ADF00C0ED890000192
:1042D0004FD8E82EFBD72AD890EC27F02BEC4CF0E7
:1042E00060C0AEF061C0AFF062C0B0F063C0B1F0CA
:1042F000AEC06DF0AFC06EF0B0C06FF0B1C070F086
:104300000201BD51AAEC60F00201BD51E3EC50F096
:104310000001A86BA96B1200BEC260F0BFC261F0C1
:10432000C0C262F0C1C263F000017D0CAAC060F09F
:10433000ABC061F0ACC062F0ADC063F01200ACC2C3
:1043400065F0000E666F000C0201BE51BF11C01176
:10435000C1111200BE29FF0EBF590F0EC059120025
:104360000001626B410C000E9F6F040E9E6F040CE7
:10437000AA37AB37AC37AD3712000001656F666FF7
:10438000050C0001626B400C9E96C6AEC7D0C69E5F
:104390000101D56B97EC61F0DECF04F0DDCF05F0C5
:1043A00004C0D9FF05C0DAFF010EDF6EC36BC46B1A
:1043B000120036B2120034C0C3F135C0C4F134C0AB
:1043C000D9FF35C0DAFFDF50D46F20EE01F0345052
:1043D000D9263550DA22DECFC5F1DDCFC6F1050E84
:1043E0003426000E3522EA0E341807E1020E351885
:1043F00004E1E50E346E020E356E369032503418FC
:1044000004E13350351801E13682C580020ED56FC4
:10441000020CC5AC04D014D0040E83EF61F0D89028
:10442000DE31056EDD31046E0450C96EDDA103D0AE
:104430000B0ED56F0B0C030ED56F030CC5AC02D061
:10444000382AEAD7C582DE51060B046E056AF00EE3
:104450000410DD6F0550DE6FDD81010ED26FD6D7FF
:10446000D20514E0C5C1D9FFC6C1DAFFDECFDDF148
:10447000DDCFDEF120EE03F06CD8DECF92F2DDCF9F
:1044800093F220EE02F065D8DF50D36FDDC1C9FF93
:10449000DDA1D1D7050ED56F050CC5AC05D0382AE6
:1044A000C59C050E83EF61F0D307D32907E1A0EC8B
:1044B00069F0D42F01D02BD0C582A8D74FD8DF50B8
:1044C000C96E0201924B932B1200C5AC06D0382A5C
:1044D000040E83EC61F0C59C1200C586080ED56FF2
:1044E000080C080ED56FC586080C38D8C9CFDFFF79
:1044F0000201924B932B0101D30704E0C59A060EEB
:10450000D56F03D0C58A97EC69F0C5881200000EFC
:1045100083EF61F0382A060E83EF61F00101D55177
:1045200001E147D7010AC8E0030A9AE0010AB5E0B1
:10453000070AEDE0010AC9E0030AD3E0010AE7E057
:104540000F0AD3E0020A01E164D7010A01E176D73C
:10455000E1D7C551D926C651DA22120092C2D9FF3D
:1045600093C2DAFF1200AC6BA7C0ADF0A8C0AEF0EA
:10457000C6D0E7EC18F0C6EC18F0DF90E7EC18F0C6
:10458000C6EC18F0DF92E7EC18F0C6EC18F0CEECB1
:1045900018F0C6EC18F0D3EC18F0C6EC18F0D8EC14
:1045A00018F0C6EC18F0DDEC18F0C6EC18F0E2ECF0
:1045B00018F0C6EC18F0DF9EE7EC18F06FEC30F066
:1045C000DF90E7EC18F06FEC30F0DF92B2D80CEE31
:1045D0007CF0EF50030D7D0EF324E96E0C0EF420F9
:1045E000EA6EDFCFEFFF6CD0ADC060F0AEC061F01F
:1045F0003BEC65F060C0ADF061C0AEF0E7EC18F0E8
:10460000BDEC20F0DF6871D0ADC06EF0AEC06FF0D1
:10461000A951A725706F000EA821716FBCEC17F08F
:104620006EC0ADF06FC0AEF060D0ADC060F0AEC097
:1046300061F0B2EC57F060C0ADF061C0AEF055D0A3
:10464000ADC09EF0AEC09FF0FAEC2DF09EC0ADF074
:104650009FC0AEF04AD0ADC060F0AEC061F064EC77
:104660006CF060C0ADF061C0AEF03FD0ADC09EF068
:10467000AEC09FF0AFEC27F09EC0ADF09FC0AEF093
:1046800034D0ADC06BF0AEC06CF0B4EC64F06BC075
:10469000ADF06CC0AEF029D0ADC09EF0AEC09FF0C2
:1046A00003EC30F09EC0ADF09FC0AEF01ED0010E06
:1046B000AC6FA951A725AD6F000EA821AE6F9ED794
:1046C00038D8AD4BAE2BDF50020A8EE0010A9CE0D9
:1046D000070AABE0010AB4E0030ABDE0010AC6E044
:1046E0000F0ACFE0020AD8E0E2D7E7EC18F0BDEC01
:1046F00020F0DE2804E022D8DF6001D014D80001C9
:10470000A951A725AA6F000EA821AB6FAA51AD5DD4
:10471000AB51AE5903E2AC5101E12BD7ADC0A7F0CC
:10472000AEC0A8F012007CCCE8FF010FE8CF7CFC03
:104730001200ADC0D9FFAEC0DAFF12002CEE7CF043
:10474000100C0201B7A506D0800E0001A96F030E60
:10475000A86F030CB7C2ABF0030E0001AB1705E066
:10476000800EA96F040EA86F040C0201AC5109E180
:10477000400E0001AA6505D0800EA96F020EA86F39
:10478000020C0201BB5190EC6BF0B3EC21F0E7ECB2
:104790000BF00201AC051EE1AAC062F0220EFAEC99
:1047A00068F00A0E79EC67F0B76FF00EB717B787AD
:1047B000B7C062F00A0EFAEC68F0400E0001626FBA
:1047C000FAEC68F0B0EC21F0FAEC68F08FD84BEC22
:1047D00038F008D0C1EC21F0FAEC68F0B0EC21F030
:1047E000FAEC68F00201AC5105E1AAC062F0000EDB
:1047F000FAEC68F034EC6DF0800E82EC6CF00001A5
:10480000B86B0BD0B851A825D96E000EA921DA6E6D
:10481000DF5082EC6CF00001B82BAA51B85DF2E3D6
:1048200032EC6DF00201B781E70EB71735EC65F099
:10483000030E4BEC38F000016D6B6E6B0A0E6F6F60
:10484000706B0201BB51AAEC60F00201BB51E3ECBA
:1048500050F0A4EC21F046E0C15103E1AAEC21F0B4
:104860000CE38CEC21F0C4EC37F02BEC4CF00C0E8C
:104870006FEC09F0E82EFCD71DD0BEC2ABF0BFC272
:10488000ACF0C0C2ADF0C1C2AEF00C0ED8900001C9
:10489000AB37AC37AD37AE37E82EF8D7ABC060F0EA
:1048A000ACC061F0ADC062F0AEC063F090EC27F038
:1048B0002BEC4CF060C0B3F061C0B4F062C0B5F056
:1048C00063C0B6F0B3C06DF0B4C06EF0B5C06FF0A9
:1048D000B6C070F00201BD51AAEC60F00201BD51FA
:1048E000E3EC50F00001A86BA96B1200ACC265F0BC
:1048F000010E0001666F010CEFC0D9FFF0C0DAFFB6
:10490000DECFF3F0DDCFF4F0000120EE02F0C8D8E6
:10491000DECFF6F0DDCFF7F0010EF56FF969F3C0E9
:10492000C5F0F4C0C6F0B1EC3AF0F86FF6C0AEF0E6
:10493000F7C0AFF0010EB06FB16F12EC3BF0DAECE4
:104940004CF0000908E0F6C066F0F7C067F0BFEC75
:1049500041F06651F96FF8AFF9BF92D0F56B6CD0AA
:10496000F95102E189908CD089808AD0F95102E115
:10497000899286D0898284D0F95102E1899480D0CD
:1049800089847ED0F95102E189967AD0898678D0DF
:10499000F95102E1899874D0898872D0F95102E105
:1049A000899A6ED0898A6CD0F95102E18D9068D0D5
:1049B0008D8066D0F95102E18D9262D08D8260D0F7
:1049C000F95102E18C945CD08C845AD0F95102E107
:1049D0008D9456D08D8454D0F95102E18B9A50D0E9
:1049E0008B8A4ED0F95102E18C9A4AD08C8A48D0F9
:1049F000F95102E18C9E44D08C8E42D0F95102E1F3
:104A00008C9C3ED08C8C3CD0F95102E1899E38D0F0
:104A1000898E36D0F95102E1899C32D0898C30D010
:104A2000F95102E18A9C2CD08A8C2AD0F95102E1FA
:104A30008A9E26D08A8E24D0F85192E0010A96E010
:104A4000030A9AE0010A9EE0070AA2E0010AA6E032
:104A5000030AAAE0010AAEE00F0AB2E0010AB6E0DA
:104A6000030ABAE0010ABEE0070AC2E0010AC6E092
:104A7000030ACAE0010ACEE01F0AD2E0010AD6E02A
:104A8000F551D2EC26F0DECFF1F0DDCFF2F020EEE2
:104A900006F006D8F1C0DEFFF2C0DEFFDD6A1200CC
:104AA000EF51D926F051DA2212007BC094F27CC07B
:104AB00095F27DC096F27EC097F2A80E0201986F23
:104AC000610E996F9A6B9B6B500E9C6FC30E9D6F1E
:104AD0009E6B9F6B010EAC6F070EAE6F010EAF6F3A
:104AE000B56FB66BA16B080EA06F0C0EAD6F010E0B
:104AF000B06FB16BB46BC10EA36F940EA46FC10EF7
:104B0000A56F030EAB6F340EA26FB76BB86B79C095
:104B1000B9F27AC0BAF2B26BB36B800EC66FC76FD0
:104B2000980EBE6F3A0EBF6FC06BC16B020EC86F9E
:104B30000B0EC96F120ECA6FC36BC46BC25123E157
:104B400081EC5EF00201BB6F81EC5EF00201BC6F94
:104B500081EC5EF00201BD6FA80E0001606FC40E13
:104B6000616F626B0201BC5193EC65F0640E606F83
:104B7000C20E616F626B0201BD5193EC65F0010ED4
:104B80000201C26F0BD0BB5190EC6BF00201BC5123
:104B900090EC6BF00201BD5190EC6BF053EC63F0C4
:104BA000000E0001656F010E666F4BEC38F041D8C6
:104BB000CAEC35F0420EF3EC0DF0FAEC68F03B0E67
:104BC00079EC67F07F6F7FBBFAD7230E626F0C0E14
:104BD000FAEC68F01E0E0001626F0D0EFAEC68F040
:104BE000AA0E0001626F1F0EFAEC68F08F0E000132
:104BF000626F350EFAEC68F000016269320EFAEC71
:104C000068F0400E0001626F310EFAEC68F0010EA0
:104C10000001656F666F000E4BEC38F000016269B1
:104C2000230EFAEC68F0420E79EC67F00201C56FD2
:104C3000120094C26DF095C26EF096C26FF097C2EA
:104C400070F01200EFC0D9FFF0C0DAFFDECFF3F052
:104C5000DDCFF4F0010E0001F56FF769F3C0C5F088
:104C6000F4C0C6F0B1EC3AF0F66FF6BF80D05AD07F
:104C7000000E80B0010EF76F79D0000E80B2010EE9
:104C8000F76F74D0000E80B4010EF76F6FD0000E76
:104C900080B6010EF76F6AD0000E80B8010EF76F74
:104CA00065D0000E80BA010EF76F60D0000E84B0A0
:104CB000010EF76F5BD0000E84B2010EF76F56D075
:104CC000000E83B4010EF76F51D0000E84B4010EB4
:104CD000F76F4CD0000E82BA010EF76F47D0000E6E
:104CE00083BA010EF76F42D0000E83BE010EF76F3C
:104CF0003DD0000E83BC010EF76F38D0000E80BE91
:104D0000010EF76F33D0000E80BC010EF76F2ED06E
:104D1000000E81BC010EF76F29D0000E81BE010E7E
:104D2000F76F24D0F651A4E0010AA7E0030AAAE035
:104D3000010AADE0070AB0E0010AB3E0030AB6E0F9
:104D4000010AB9E00F0ABCE0010ABFE0030AC2E0B1
:104D5000010AC5E0070AC8E0010ACBE0030ACEE079
:104D6000010AD1E01F0AD4E0010AD7E0F56BF55142
:104D700009E0F55117D8DECFF1F0DDCFF2F01FD802
:104D8000DD6A120017D8F751A76FA86BA7BFA80755
:104D900021D848EC43F0810EF16F060EF26F0FD868
:104DA00049EF3DF0020D520EF324D96E020EF420AD
:104DB000DA6E1200810EA56F060EA66F120020EEAD
:104DC00006F0EF51D926F051DA22F1C0DEFFF2C031
:104DD000DEFF1200AA6B0A0EA96F0A0C826B836BAE
:104DE000896B846B795111E17629FF0E77590F0E8B
:104DF00078590BE29BD894D82BEC4CF01FEC09F0BF
:104E00000101EA51AAEC60F088D076C07EF077C04C
:104E10007FF078C080F079C081F017D0D8907933D6
:104E200078337733763389C07AF0010E7B6F7C6BF1
:104E30007A2B03D0D8907B377C377A2FFBD70001B1
:104E40007B5182137C518313892B7951E7E1100E3A
:104E5000785DE4E26BD864D82BEC4CF060C085F050
:104E600061C086F062C087F063C088F0060E896575
:104E700015D08951200885C07AF086C07BF087C0A4
:104E80007CF088C07DF0E82A05D0D8907D337C3353
:104E90007B337A33E82EF9D77A51846F84C060F07F
:104EA0000101EA5199EC6BF0892905D0D89085373A
:104EB000863787378837E82EF9D7000182517E156B
:104EC0007A6F83517F157B6F7C6B7D6B0C0ED89056
:104ED0007A377B377C377D37E82EF9D77AC060F098
:104EE0007BC061F07CC062F07DC063F019D82BEC10
:104EF0004CF06051852761518623625187236351AD
:104F0000882385C06DF086C06EF087C06FF088C0C2
:104F100070F00101EA51AAEC60F0020E5AEF6BF05A
:104F20007D0E646F656B666B676B7D0C76C07AF087
:104F300077C07BF078C07CF079C07DF00C0ED89003
:104F40007A377B377C377D37E82EF9D77AC060F027
:104F50007BC061F07CC062F07DC063F01200ACD811
:104F6000DF50A66F9E4B9F2BA7D8FF0EDE14A26FBB
:104F7000FF0EDE14A36FFF0EDE14A46F000EDE140E
:104F8000A56FA2C092F0A3C093F0A4C094F0A5C0F6
:104F900095F0640EC8EC0DF0C4EC5AF092C0A2F08B
:104FA00093C0A3F094C0A4F095C0A5F0030E9E2773
:104FB000000E9F2381D8DF50A16F9E4B9F2B606B0B
:104FC000A651DCEC68F000091DE1A2C060F0A3C0AE
:104FD00061F0A4C062F0A5C063F05CEC54F000097D
:104FE00002E065D805E1E7EC18F0C6EC18F0DF8EBA
:104FF000A151BCEC62F0000905E1E7EC18F0C6EC49
:1050000018F0DF8CE7EC18F0C6EC18F0DFAE40D0FB
:10501000E7EC18F0C6EC18F0DFAC3AD02CEEBFF09D
:10502000100EDF6018D043D811E037D866EC67F077
:10503000A1C060F0A6516BEC3EF043D87DEC65F06A
:10504000010E606FA651E6EC39F021D0656BA651D8
:1050500068EC61F01CD02BD815E01FD8100F66EC5F
:1050600067F0A1C060F0A651100F6BEC3EF029D89C
:10507000100F7DEC65F0010E606FA651100FE6EC8D
:1050800039F005D0656BA651100F68EC61F01FD8A0
:105090009EC09EF09FC09FF01200A2C060F0A3C00F
:1050A00061F0A4C062F0A5C063F0A6511200A25145
:1050B000A311A411A51112009EC0D9FF9FC0DAFF51
:1050C0001200010E616F2E0E606FA65112002BEEC2
:1050D000D4F0DF861200B2D89E4B9F2BAD519EECD0
:1050E00067F0F9E2A96BAA6BAB6BAC6BA86B2D0EEA
:1050F000AD1906E1010EA86FA1D89E4B9F2B03D0DE
:105100002B0EAD19F9E0300EAD191DE197D89E4B6D
:105110009F2BA251A31104E0100EA219A3110DE1BF
:10512000780EAD1903E0580EAD1907E1A36B100E10
:10513000A26F84D89E4B9F2B06D0A251A31103E1EE
:10514000A36B080EA26FA251A31103E1A36B0A0E79
:10515000A26FAD5107EC67F006E3AD5171EC6AF058
:10516000C90FAD6F06D0AD51BEEC68F031E3300E23
:10517000AD5FAD51A46FA56BA251A45DA551800A8E
:10518000A66FA351800AA65923E2A2C092F0A3C041
:1051900093F0000E93BFFF0E946F956FA9C096F029
:1051A000AAC097F0ABC098F0ACC099F0C4EC5AF02C
:1051B000AD519225A96F000E9321AA6F000E942184
:1051C000AB6F000E9521AC6F39D89E4B9F2BC1D78A
:1051D000A051A1110EE0FF0E9E25A46FFF0E9F218E
:1051E000A56FA0C0D9FFA1C0DAFFA4C0DEFFA5C093
:1051F000DDFFA8511AE0A9C0A4F0AAC0A5F0ABC079
:10520000A6F0ACC0A7F0A41FA51FA61FA71FA42B24
:10521000000EA523A623A723A4C09EF0A5C09FF03F
:10522000A6C0A0F0A7C0A1F0000CA9C09EF0AAC023
:105230009FF0ABC0A0F0ACC0A1F012009EC0D9FF9F
:105240009FC0DAFFDF50AD6F1200A26F210E000188
:10525000A219D8A41200030EA76FA86BA36BA46BAE
:10526000A56BA66BA30E606F616BA851030D9EC06A
:10527000A0F09FC0A1F0F350A027F450A1230D0E81
:10528000A025626F000EA121636FDFEC50F0BFEC30
:1052900055F0A3C092F0A4C093F0A5C094F0A6C0AE
:1052A00095F0640EC8EC0DF0C4EC5AF092C0A3F077
:1052B00093C0A4F094C0A5F095C0A6F0A351A4118A
:1052C000A511A61147E0A3C060F0A4C061F0A5C07D
:1052D00062F0A6C063F05CEC54F0000940E153D8E2
:1052E000F35045D8A3C0DEFFA4C0DEFFA5C0DEFF9B
:1052F000A6C0DEFF48D8040EA027000EA123F3505D
:1053000036D84ED840D846D832D8DF500F0B500987
:10531000DF6E39D83FD82BD8F00EDF1634D80A0EFE
:10532000A027000EA123F35022D8E70EDE6E030E55
:10533000DD6E29D8110EA027000EA123F35017D837
:10534000DF68010E656FA851A72568EC61F067EC76
:1053500028F005D0656BA851A72568EC61F0A82B53
:10536000040EA8657BD72BEED4F0DF86040CA027B3
:10537000F450A123A751120DF350A025D96EF4507B
:10538000A121DA6E1200A851120D930EA06F080E23
:10539000A16F1200090EA027000EA123F3501200E6
:1053A000DE6ADE6ADE6ADD6A1200050EE126000EA4
:1053B000E2222BEED4F0DFB027D02BEED4F0DFA426
:1053C00023D0FF0EE36A09D0FF0EE350BDEC20F0BE
:1053D000020EDE1807E0FF0EE32A2CEE7CF0FF0E33
:1053E0007CD8F2E32CEE7CF0FF0EE350DE180CE1EB
:1053F000E7EC18F0BDEC20F0020EDF6E9EEC23F01F
:10540000DF6002D093EC23F02BEED4F0DFA434D095
:105410005FD802E157D80FE34CD87D0E0001C4ECF1
:1054200037F02BEC4CF0C9EC37F00C0E96EC1EF07C
:10543000E82EFCD707D023D8C4EC37F02BEC4CF087
:10544000C9EC37F0FB0E50C0E3FFFC0E51C0E3FF88
:10545000FD0E52C0E3FFFE0E53C0E3FFE150FB0F11
:10546000D96EE250D2EC37F086EC2FF0AAEC60F067
:1054700086EC2FF0E3EC50F0FA0EDEEF37F0B1CC13
:1054800050F0B2CC51F0B3CC52F0B4CC53F00C0E7F
:10549000D8905036513652365336E82EF9D750C090
:1054A00060F051C061F052C062F053C063F000017F
:1054B0007D0CB1CC60F0B2CC61F0B3CC62F0B4CC76
:1054C00063F01200DE28FF0EDE580F0EDE581200C9
:1054D0002CEEB1F0030EDB501200E3CF48F0DE50AB
:1054E000485C1200E6522BEED4F0DFB08BD0E3CB59
:1054F000E8FF020A02E121EC6AF088D861E39EEC41
:105500005AF0536E0D0E5326FF0E53C0E3FF2CEEE0
:10551000B9F0E350496E4A6ADE50495CDE504A58A1
:105520003DE3010E5EEC42F0000934E1E6EC4DF0A3
:10553000A1EC23F0EDEC4DF02DE141EC16F001096A
:10554000DF6EBECCE8FF010FE8CFBEFC2CEEBEF054
:10555000DFB06BEF62F02CEEC4F0DF5002E16BEFD6
:1055600062F02CEEBEF0DF50496E4A6A2CEEBCF0C1
:10557000DF50526E536A522A000E5322495052187D
:1055800005E14A50531802E16BEF62F02DEC44F054
:105590006BEF62F0AEEC52F06BEF62F06CEC6BF024
:1055A0000101BB51BC1102E16BEF62F046EC16F059
:1055B000040EC56F02D86BEF62F00500FA6E1AD0C8
:1055C00025D802E36BEF62F02BEED4F0DFB06BEF87
:1055D00062F06CEC6BF00101BB51BC1102E16BEFAE
:1055E00062F0000E46EC16F0C56B02D86BEF62F06D
:1055F0000500FA6E0101BB51FD6EBC51FE6EFF6AE3
:10560000FA5012006CEC6BF06BEF62F02CEEBEF017
:105610000CEEBCF0DE50EE5C1200EFC0D9FFF0C023
:10562000DAFFDECFF3F0DDCFF4F0010E0001F56F0D
:10563000F3C0C5F0F4C0C6F0B1EC3AF0F66FF6BFB7
:105640005DD02B0EF625C6EC11F080EC48F0F5A4E9
:1056500055D00001F56B38D0000EECEC61F02FD086
:10566000010EECEC61F02BD0020EECEC61F027D0D7
:10567000030EECEC61F023D0040EECEC61F01FD0D3
:10568000050EECEC61F01BD0060EECEC61F017D0CF
:10569000160EECEC61F013D0070EECEC61F00FD0BD
:1056A000110EECEC61F00BD0190EECEC61F007D0B0
:1056B0001B0EECEC61F003D01A0EECEC61F065C04F
:1056C000F7F066C0F8F01AD0F651C6E0010AC8E05B
:1056D000030ACAE0010ACCE0060ACEE0030AD0E0E1
:1056E000010AD2E00F0AD4E0010AD6E0030AD8E0AA
:1056F000010ADAE0070ADCE0010ADEE00001F55108
:105700000AE0F551D2EC26F0DECFF1F0DDCFF2F079
:1057100013D8DD6A1200DAEC26F0F7C0A7F0F8C063
:10572000A8F0EAEC26F048EC43F0810EF16F060E8B
:10573000F26F02D849EF3DF020EE06F0EF51D92686
:10574000F051DA22F1C0DEFFF2C0DEFF1200010EDE
:105750000001F36F89D85ED83AEC62F0000949E0A5
:105760006CD858D83AEC62F0000943E07DD8DECF1F
:105770009EF055D86BEC28F09E51F46F20EE02F0AD
:105780006AD868EC37F04BD86BEC28F09E51F56F77
:105790006BD8DECFF1F058D84AD831EC5CF0020E6D
:1057A0006019611126E1F45108E163D85DD857D83A
:1057B0008AEC48F0605161111CE13FD8DECFF1F076
:1057C00043D835D831EC5CF0020E6019611111E15B
:1057D000F55108E14ED831D842D88AEC48F06051F2
:1057E000611107E1F5C062F0F451FAEC68F00001D4
:1057F000F36BF351F8EC47F0DECFF1F0DDCFF2F0D0
:1058000020EE06F028D8DA22F1C0DEFFF2C0DEFF7B
:10581000DD6A1200DECF66F0DDCF67F01200DDCF6B
:105820009FF0A06BA16BA36B100EA26F100C6051C8
:105830006111D8A4200E626F120020EE02F0EF5129
:10584000D926F051DA221200DDCFF2F0F1C060F07B
:10585000F2C061F01200EF51D926F0511200DECFF4
:1058600062F0DDCF63F01200EFC0D9FFF0C0DAFFC5
:105870001200410E606FFF0E616F1200F9EC64F0D0
:10588000E7EC6CF03C0E0001646FC30E656FA3EC97
:105890005BF0CFEC6CF0F28EF28C010E0001616FC8
:1058A000B30E606FCCEC69F00401356F366B010EFE
:1058B0000001616FB40E606FCCEC69F00401346FCD
:1058C00034513627352902E136292DE002EC0EF05D
:1058D000AAC030F4ABC031F404013051351903E1F2
:1058E000315136192CE0000E75EC1CF053D881ECC8
:1058F00051F04AD8B5EC63F052D878EC6CF0040162
:10590000376B386B37C460F038C461F000016269EE
:1059100024EC5EF00401374B382BB50E375D010ED9
:1059200038590DE2EFD7000E75EC1CF033D881EC3E
:1059300051F02AD8B5EC63F032D878EC6CF01ED870
:10594000E1EC43F00DEC1BF031EC5CF060C032F4A4
:1059500061C033F448EC1BF0D8A4200E686F32C449
:1059600069F033C46AF0FFEC4AF036EC5FF0D6EC35
:1059700062F0A2EC3CF04DEC51F0F7D7810E000143
:105980006B6F060E6C6F1200200E00016B6F040E21
:105990006C6F1200200E6F6F040E706F1200616B3F
:1059A000010E606F010CB46BB56BA2390F0BB36FB6
:1059B000AA51010DF350AB27F450AC23010EB46F84
:1059C0002FD057D8C3EC3EF06DD840EC67F0000103
:1059D000B56BB451AE6FAF6BAE3BAF3BF00EAF17D4
:1059E000AE510F0BAF13F00EAE17A0C0B0F0A1C0B8
:1059F000B1F0AE51B027AF51B123B551B027000E71
:105A0000B123F00EB025D96EFF0EB121DA6EDF5052
:105A1000B26F51D8B2193DD80F0EB565DAD7B42B95
:105A2000B451B35DCEE24FD8D8B40F0C22D8C3EC3A
:105A30003EF038D840EC67F00001B56B15D0B3519B
:105A4000100DA0C0AEF0A1C0AFF0F350AE27F450DF
:105A5000AF23B551AE25D96E000EAF21DA6EDF50FF
:105A6000B06F29D8B01915D82ED8AE51B55DE7E37F
:105A70001200A4C06BF0A5C06CF0A6C06DF0A7C06A
:105A80006EF0B4C06FF0010E706FADC071F0A35135
:105A90001200ABC0D9FFACC0DAFFDF6EAB4BAC2B52
:105AA000B52B1200CB0E8C6F020E8D6FA8C08EF03E
:105AB000A9C08FF01200CB0EB525D96EDA6A020E9E
:105AC000DA22DF501200A2C0AEF00F0EAE170F0C9C
:105AD0006051D96EDA6A0D0E60D8635186D80E0E09
:105AE0005CD8D92A635181D80F0E57D8020ED92617
:105AF00063517BD80C0E51D8030ED926635175D84B
:105B00004550DF1A7F0E45640CD01B0E45C061F076
:105B1000626BD890613762376119646F6251656F4B
:105B200005D0D8904534646F656B653764C045F027
:105B30006051D96EDA6A53D8040E43D8D92A4FD8A7
:105B4000050E3FD8020E44D8060E3BD8030E40D8AF
:105B5000070E37D8040E3CD8080E33D8050E38D8B7
:105B6000090E2FD8060E34D80A0E2BD8070E30D8BF
:105B70000B0E27D8080E2CD80C0E23D8090E28D8C7
