:040000000CD0000020
:020008007FD1A6
:100018007FD194908B80730ED36EF86A030EF76EBF
:10002800000EF66EFC0E0B6EFE0E0A6E15EC01F05D
:10003800FE0EF66EFF0EF76E0900F550001804E18B
:100048000900F55001184AE03CD80400ACA2FDD7DD
:10005800B880B8A005D0B8AEFCD7B890B89EF5D790
:10006800AE50AE5000EE09F0090E026E22D80550CF
:10007800EE6EE9500B0A0BE10950020A06E009503E
:10008800050A03E00950070A02E10A500226022E77
:10009800EDD726D8026E550E07D800EE09F0EE50BF
:1000A80003D8022EFCD7D1D704009EA8FDD7AD6E89
:1000B80012000400ABB2FF009EAAFED7AE50056E38
:1000C80012008B8C948C948E0F013A9D3A9F900E5F
:1000D800AB6E260EAC6E080EB86E12008B900CD16B
:1000E8000E50F66EA96E0F50F76E10C0F8FF00EEB6
:1000F80012F00A50026E0950090803E2FF0E096E59
:10010800010CFB6A010EFA6E09441A0FD8B0FA2ADC
:10011800F96E09D044D04BD05AD064D06DD03FD0BE
:1001280076D07FD0FF00010E126E010E136E146A96
:10013800156A166A176A3F0EF86EFF0EF76EFE0E06
:10014800F66E0900F5CF18F00900F5CF19F01A6A14
:100158001B6A400E1C6E400E1D6E200EF86EF76A6C
:10016800F66A0900F5CF1EF009001E38F5101E6E5C
:100178000900F5CF1FF009001F38F5101F6E0900A0
:10018800F5CF20F009002038F510206E0900F5CFD2
:1001980021F009002138F510216E190E120009000E
:1001A800F5CFEEFF022EFBD70A50090F1200EECF53
:1001B800F5FF0D00024E03D0F6503F0BF8E10A00A0
:1001C800840EA66E49D809000252F1E141D0940E7E
:1001D800A66E42D8400EF626E86AF722F822022ECA
:1001E800F6D736D0A66AA680A8CFEEFFA92A022E97
:1001F800F9D70A50090F1200EECFA8FF040EA66E19
:100208002BD8A6B2FED7A92A022EF6D721D0C40E23
:10021800A66EEECFF5FF0C001FD80900022EF7D707
:1002280017D0006A016A0A900A52D8A40B2A09005A
:10023800F55000260900F5500122020E0A5EF7E18A
:100248000B2EF5D700C0EEFF01C0EEFF0B0E12001B
:10025800010E126E0A0E120004000C50A76E0D500B
:08026800A76EA682000012003F
:100300000FEF02F0FFFFFFFFFACF15F0FBCF16F063
:10031000E1CF17F0E2CF18F0D9CF19F0DACF1AF009
:10032000F3CF1BF0F4CF1CF04EC01DF04FC01EF0F9
:1003300050C01FF051C020F052C021F053C022F035
:1003400054C023F055C024F056C025F057C026F005
:1003500058C027F059C028F01DEE2EF0F2BC9DA029
:1003600005D09EA003D0C8EC76F030D0F2BC9DAA98
:1003700005D09EAA03D00CEC57F028D0F2BC9DA863
:1003800005D09EA803D049EC71F020D0F0B6F0A0C3
:1003900003D004EC78F01AD0F0B8F0A203D001EC4E
:1003A00078F014D0F2B6F2A003D096EC76F00ED02E
:1003B000F2BC9DA605D09EA603D0CDEC27F006D0BA
:1003C000F2BCA0A603D0A1B634EC78F028C059F056
:1003D00027C058F026C057F025C056F024C055F06D
:1003E00023C054F022C053F021C052F020C051F07D
:1003F0001FC050F01EC04FF01DC04EF01CC0F4FFD7
:100400001BC0F3FF1AC0DAFF19C0D9FF18C0E2FF02
:1004100017C0E1FF16C0FBFF15C0FAFF11001CEE6C
:1004200028F0ADEF3FF0FBEC77F0030103B1BFEF35
:1004300007F0E9C0D9FFEAC0DAFFDF500101696FB8
:100440006939E832070BE80601E0D1D003011D51FC
:1004500001E0CDD00001EB0501016F6F1DD000015F
:10046000EB51E925EC6F000EEA21ED6F01016F51B0
:100470000001EC5D8C6FED51D8A0ED058D6F420E43
:100480008E6F030E8F6FAEEC71F0100E01016F6571
:1004900002D06F5F01D06F6B6F51E1E1420E00013E
:1004A000D66F030ED76FE9C0D8F0EAC0D9F0EB5190
:1004B000FC0FDA6F35EC65F0D6C072F1D7C073F17E
:1004C000D8C074F1D9C075F1E9C06BF0EAC06CF026
:1004D000EBC06DF038EC6AF06BC06AF16CC06BF188
:1004E0006DC06CF16EC06DF1010172516A1909E1C4
:1004F00073516B1906E174516C1903E175516D1953
:100500001EE0030102510F0B050A06E002510F0B1A
:10051000030A09E1E35107E002B903D0C0EC72F02D
:1005200002D0F00E0217020E03011219D8A4120015
:1005300003010251F00B0909026F4EEF5EF0030157
:1005400002510F0B030A03E1D551AEEC6FF0E9C085
:1005500076F1EAC077F1010120EE07F07651D92655
:100560007751DA22DECF1EF3DECF1FF3DECF20F38A
:10057000DECF21F320EE0CF07651D9267751DA2226
:10058000DF500F0BADEC6BF0010120EE0BF076515C
:10059000D9267751DA22DF38070B0001606F01019D
:1005A00020EE0BF07651D9267751DA22DF500F0B6F
:1005B00014EC73F076C160F077C161F0EB512DEC73
:1005C00078F076C1A0F077C1A1F05BEC59F0E66A53
:1005D00008EC37F00301066B076B086B096B0A6BBD
:1005E0000B6B0C6B0D6B020E1219A2E012000101D5
:1005F0006939E832070B030A07E06939E832070B6B
:10060000050A02E0BCEF07F00301986BE9C07DF139
:10061000EAC07EF1020E121901E0B0D1010120EE14
:1006200001F07D51D9267E51DA2203016251DE1894
:1006300009E16351DE1806E16451DE1803E16551FA
:10064000DE18D8A49BD104A599D17DC160F07EC1EC
:1006500061F03EEC5BF0000901E16AD7010120EE98
:1006600006F07D51D9267E51DA22DECF79F1DDCF39
:100670007AF103010E510101795D03010F5101016E
:100680007A5905E310C37BF111C37CF10AD0010E46
:100690000301102501017B6F000E030111210101EF
:1006A0007C6F79C16BF07AC16CF07BC16DF07CC15D
:1006B0006EF00001EB51FC0F6F6F490E706F010E71
:1006C000716F60EC4AF0190E606F0B0E616FDA0EFD
:1006D000626F020E636F656B100E646F9AEC61F0CF
:1006E000290E606F0B0E616FE9C062F0EAC063F023
:1006F000FC0EEB25646F656BFF0E65239AEC61F0D1
:10070000660EC86F030EC96FDA0ECA6F020ECB6F8A
:10071000190ECC6F0B0ECD6FEB510C0FCE6FEAECB8
:1007200019F0720E606F010E616FDA0E626F020EC9
:10073000636F656B040E646F9AEC61F0E9C06BF057
:10074000EAC06CF0EBC06DF038EC6AF06BC06AF197
:100750006CC06BF16DC06CF16EC06DF101016A513E
:1007600072190BE16B51731908E16C51741905E1B1
:100770006D51751901E0DCD601D0DAD620EE06F015
:100780007D51D9267E51DA2203010E51DE5C0F51D4
:10079000DE5836E3010120EE06F07D51D9267E5168
:1007A000DA22DECFECF0DDCFEDF003010E510001D7
:1007B000EC5F03010F510001ED5BEC510301905D13
:1007C0000001ED51030191590FE23050311001E168
:1007D000AFD60001996B9A6B9B6B060E9C6F01D88C
:1007E000A7D60500FA6EC3D0010120EE06F07D51B8
:1007F000D9267E51DA22DECF0EF3DDCF0FF32AD0D9
:10080000010120EE06F07D51D9267E51DA22DECF9D
:10081000ECF0DDCFEDF003010E1D0001EE6F0301E2
:100820000F1D0001EF6FEC51EE27ED51EF23030197
:1008300090510001EE5D030191510001EF5906E274
:1008400003010E6B0F6B104B112B04D03050311085
:10085000C0E16ED603010E2907E10F2905E1102939
:1008600003E1112901E1F2D702510F0B080A08E157
:10087000D651AEEC6FF00301D751AEEC6FF007D05C
:1008800002510F0B030A03E1D751AEEC6FF0080ED3
:100890000001E927000EEA23EB51EC6FED6B01013B
:1008A00020EE05F07D51D9267E51DA22DF500F0B64
:1008B0000001EE6FEF6B0C0EEE27000EEF23EC51F4
:1008C000EE1903E1ED51EF1939E0E9C0D9FFEAC0B3
:1008D000DAFFDF500101666F0001E94BEA2BEB51B3
:1008E000F40F0101786F190E6E6FE9C0A0F0EAC035
:1008F000A1F078050001A26F010EA36F0EC3A4F052
:100900000FC3A5F010C3A6F011C3A7F0760EA86F11
:10091000030EA96F6EC1AAF0190EAB6F0B0EAC6F70
:10092000010EAD6F0FEC32F0FF0EE9250101706F83
:10093000FF0E0001EA210101716F04D00101786B03
:10094000706B716B03010383F00E0217305031108E
:1009500001E1EED570C199F071C19AF078C19BF0B8
:10096000010E00019C6F01D8E3D50500FA6E3050EE
:10097000FD6E3150FE6EFF6AFA501200010120EE4A
:1009800001F07D51D9267E51DA2203011E51DE1875
:1009900009E11F51DE1806E12051DE1803E1215163
:1009A000DE1801E0E9D2010120EE06F07D51D926E2
:1009B0007E51DA22DECF79F1DDCF7AF103010A51DF
:1009C0000101795D03010B5101017A5905E30CC363
:1009D0007BF10DC37CF10AD0010E03010C2501014E
:1009E0007B6F000E03010D2101017C6F79C16BF05B
:1009F0007AC16CF07BC16DF07CC16EF00001EB51EF
:100A0000FC0F6F6F490E706F716B010E60EC4AF056
:100A1000190E606F0B0E616FDA0E626F020E636F5C
:100A2000656B100E646F9AEC61F0290E606F0B0E0F
:100A3000616FE9C062F0EAC063F0FC0EEB25646F01
:100A4000656BFF0E65239AEC61F0220EC86F030EF2
:100A5000C96FDA0ECA6F020ECB6F190ECC6F0B0E78
:100A6000CD6FEB510C0FCE6FEAEC19F0720E606F88
:100A7000010E616FDA0E626F020E636F656B040E1A
:100A8000646F9AEC61F0E9C06BF0EAC06CF0EBC007
:100A90006DF038EC6AF06BC06AF16CC06BF16DC040
:100AA0006CF16EC06DF101016A51721909E16B516F
:100AB000731906E16C51741903E16D51751901E068
:100AC0005BD220EE06F07D51D9267E51DA22030159
:100AD0000A51DE5C0B51DE5842E3010120EE06F0C4
:100AE0007D51D9267E51DA22DECFECF0DDCFEDF05C
:100AF00003010A510001EC5F03010B510001ED5BA2
:100B0000EC5103018E5D0001ED5103018F591BE291
:100B10000091F00E02173050311012E0009B000ED1
:100B20000001996B9A6B9B6B9C6B01D809D00500F7
:100B3000FA6E3050FD6E3150FE6EFF6AFA501200B0
:100B40000301039364D0010120EE06F07D51D92604
:100B50007E51DA22DECF0AF3DDCF0BF34BD08E517C
:100B60000001EC6F03018F510001ED6FEE6BEF6B35
:100B7000010120EE06F07D51D9267E51DA22DECF2A
:100B8000F0F0DDCFF1F003010A510001F05DF26FEA
:100B900003010B510001F159F36FF46BD8A0F40776
:100BA000F451F56FFF0EF225F66FFF0EF321F76F8C
:100BB000000EF421F86F000EF521F96FEC51F65D8F
:100BC000ED51F759EE51F859F951800AFA6FEF518A
:100BD000800AFA5901E3D0D1010120EE06F07D51DF
:100BE000D9267E51DA22DECF0AF3DDCF0BF30301E3
:100BF0000C4B0D2B496A486A0101CB6B03010A2992
:100C000008E10B2906E10C2904E10D2902E1048326
:100C1000EAD402510F0B030A03E1D751AEEC6FF097
:100C2000010E0301CA6F7DC160F07EC161F09FECCF
:100C30005FF0010120EE05F07D51D9267E51DA22C8
:100C4000DF500F0B34E020EE05F07D51D9267E51A8
:100C5000DA22DF500F0B7D250001EC6F000E010141
:100C60007E210001ED6F080EEC25D96E000EED21FE
:100C7000DA6EDF5021E0080E01017D2500018A6F48
:100C8000000E01017E2100018B6F010120EE05F0B5
:100C90007D51D9267E51DA22DF500F0B00018C6F77
:100CA000D1EC24F08AC0E9F08BC0EAF005D0080E40
:100CB0000001E927000EEA23EB51EC6FED6B010117
:100CC00020EE05F07D51D9267E51DA22DF500F0B40
:100CD0000001EE6FEF6B0C0EEE27000EEF23EC51D0
:100CE000EE1904E1ED51EF1901E1A1D0E9C0D9FFFE
:100CF000EAC0DAFFDF500101666F0001E94BEA2B21
:100D0000010120EE05F07D51D9267E51DA22DF5017
:100D10000F0B0001EC6FEC51EB5DF40F0101786FEC
:100D200020EE05F07D51D9267E51DA22DF500F0BDF
:100D3000190F6E6F665128E0E9C0A0F0EAC0A1F07B
:100D400078050001A26F010EA36F0AC3A4F00BC3C4
:100D5000A5F00CC3A6F00DC3A7F0320EA86F030ECA
:100D6000A96F6EC1AAF0190EAB6F0B0EAC6FAD6B15
:100D70000FEC32F0FF0EE9250101706FFF0E00014C
:100D8000EA210101716F57D00001EB51EC6FED6B5F
:100D9000010120EE05F07D51D9267E51DA22DF5087
:100DA0000F0B0001EE6FEF6B0D0EEE27000EEF2321
:100DB000EC51EE5DEF51800AF06FED51800AF05971
:100DC00036E2E9C0A0F0EAC0A1F001017805000117
:100DD000A26F010EA36F0AC3A4F00BC3A5F00CC34E
:100DE000A6F00DC3A7F0220EA86F030EA96F6EC167
:100DF000AAF0190EAB6F0B0EAC6FAD6B0FEC32F0AF
:100E0000010120EE05F07D51D9267E51DA22DF5016
:100E10000F0B0DE1E9C08AF0EAC08BF07805000104
:100E20008C6FD1EC24F08AC0E9F08BC0EAF00101AC
:100E3000786B706B716B010E0301CA6FC26BC36B71
:100E4000E06B0099038300A150D0010120EE05F072
:100E50007D51D9267E51DA22DFAA44D003010091C8
:100E6000010E0101676FF00E0301021730503110BF
:100E700014E0009B70C199F071C19AF078C19BF0A9
:100E800067C19CF001D809D00500FA6E3050FD6EA4
:100E90003150FE6EFF6AFA5012000301039302BB49
:100EA00000BB5DD000B302D000A759D0010E0001F5
:100EB0007E6F680E7F6F010E806F0301DF516BEC58
:100EC00041F000090CE1000EE26BE36BE46BE56BB3
:100ED0007EEC47F0000943E10301009740D02EEC7F
:100EE00078F03DD04EEC5CF03AD0010E0101676F16
:100EF000F00E030102173050311014E0009B70C156
:100F000099F071C19AF078C19BF067C19CF001D84B
:100F100009D00500FA6E3050FD6E3150FE6EFF6A4A
:100F2000FA501200030102BB00BB19D000B302D07B
:100F300000A715D0010E00017E6F680E7F6F010EB5
:100F4000806F0301DF516BEC41F00009C8E1000E36
:100F5000E26BE36BE46BE56B7EEC47F0BDD7020E12
:100F600003011219D8A41200FAEC73F00001EC6F1F
:100F7000ECB1120098EF02F0000E20EF5DF030505F
:100F80003110D8B41200FAEC73F00001EC6FECB73A
:100F900011D0E9C099F0EAC09AF0EBC09BF0030EC3
:100FA0009C6F0500FA6E3050FD6E3150FE6EFF6A88
:100FB000FA501200E9C099F0EAC09AF0EBC09BF039
:100FC000020E9C6F0500FA6E3050FD6E3150FE6EC1
:100FD000FF6AFA501200806B816B796B7A6B010E9D
:100FE0000001616F120E606F6269F7EC6AF0010E2A
:100FF0000001616F130E606F6269F7EC6AF0C2C1A5
:101000007CF1C3C17DF101017E6B7F6B7D5179273E
:10101000000E7A230001616B606B7DC162F0F7EC1A
:101020006AF00101804B812B7C517927000E7A23D5
:1010300080C160F081C161F07CC162F0F7EC6AF0C0
:101040000101804B812B7C0E0001606F010E616FEE
:101050007B0E626F010E636F8CEC70F00101826B8E
:101060007C0E8225D96EDA6A010EDA22DF507927EA
:10107000000E7A2380C160F081C161F07C0E822570
:10108000D96EDA6A010EDA22DF500001626FF7ECE6
:101090006AF00101804B812B822B030E8265E0D721
:1010A0007B517927000E7A2380C160F081C161F005
:1010B0007BC162F0F7EC6AF00101804B812BF2EC0E
:1010C00077F001017B6F7B517927000E7A2380C175
:1010D00060F081C161F07BC162F0F7EC6AF0010160
:1010E000804B812B0AEC76F060C07CF161C07DF111
:1010F00062C07EF163C07FF1826B7C0E8225D96E67
:10110000DA6A010EDA22DF507927000E7A2380C1D5
:1011100060F081C161F07C0E8225D96EDA6A010E21
:10112000DA22DF500001626FF7EC6AF00101804BB8
:10113000812B822B030E8265E0D725EC76F060C010
:101140007CF161C07DF162C07EF163C07FF1826B92
:101150007C0E8225D96EDA6A010EDA22DF507927F9
:10116000000E7A2380C160F081C161F07C0E82257F
:10117000D96EDA6A010EDA22DF500001626FF7ECF5
:101180006AF00101804B812B822B030E8265E0D730
:10119000660E00016B6F010E6C6F9CEC74F0010128
:1011A000826B660E8225D96EDA6A010EDA22DF5072
:1011B0007927000E7A2380C160F081C161F0660E4C
:1011C0008225D96EDA6A010EDA22DF500001626FE1
:1011D000F7EC6AF00101804B812B822B070E8265B0
:1011E000E0D7660E00016B6F010E6C6FA9EC74F016
:1011F0000101826B660E8225D96EDA6A010EDA224F
:10120000DF507927000E7A2380C160F081C161F040
:10121000660E8225D96EDA6A010EDA22DF500001ED
:10122000626FF7EC6AF00101804B812B822B070E75
:101230008265E0D7660E00016B6F010E6C6F82EC69
:1012400074F00101826B660E8225D96EDA6A010E96
:10125000DA22DF507927000E7A2380C160F081C145
:1012600061F0660E8225D96EDA6A010EDA22DF504D
:101270000001626FF7EC6AF00101804B812B822B39
:101280000F0E8265E0D7660E00016B6F010E6C6F6A
:1012900068EC74F00101826B660E8225D96EDA6A01
:1012A000010EDA22DF507927000E7A2380C160F028
:1012B00081C161F0660E8225D96EDA6A010EDA22EA
:1012C000DF500001626FF7EC6AF00101804B812B67
:1012D000822B0F0E8265E0D7660E00016B6F010E48
:1012E0006C6F75EC74F00101826B660E8225D96E0D
:1012F000DA6A010EDA22DF507927000E7A2380C1E4
:1013000060F081C161F0660E8225D96EDA6A010E45
:10131000DA22DF500001626FF7EC6AF00101804BC6
:10132000812B822B0F0E8265E0D72EEC76F060C009
:101330007CF161C07DF162C07EF163C07FF1826BA0
:101340007C0E8225D96EDA6A010EDA22DF50792707
:10135000000E7A2380C160F081C161F07C0E82258D
:10136000D96EDA6A010EDA22DF500001626FF7EC03
:101370006AF00101804B812B822B030E8265E0D73E
:10138000660E00016B6F010E6C6F9EEC72F0010136
:10139000826B660E8225D96EDA6A010EDA22DF5080
:1013A0007927000E7A2380C160F081C161F0660E5A
:1013B0008225D96EDA6A010EDA22DF500001626FEF
:1013C000F7EC6AF00101804B812B822B0F0E8265B6
:1013D000E0D7660E00016B6F010E6C6F8DEC72F042
:1013E0000101826B660E8225D96EDA6A010EDA225D
:1013F000DF507927000E7A2380C160F081C161F04F
:10140000660E8225D96EDA6A010EDA22DF500001FB
:10141000626FF7EC6AF00101804B812B822B0F0E7B
:101420008265E0D71CEC76F060C07CF161C07DF194
:1014300062C07EF163C07FF1826B7C0E8225D96E23
:10144000DA6A010EDA22DF507927000E7A2380C192
:1014500060F081C161F07C0E8225D96EDA6A010EDE
:10146000DA22DF500001626FF7EC6AF00101804B75
:10147000812B822B030E8265E0D713EC76F060C0DF
:101480007CF161C07DF162C07EF163C07FF1826B4F
:101490007C0E8225D96EDA6A010EDA22DF507927B6
:1014A000000E7A2380C160F081C161F07C0E82253C
:1014B000D96EDA6A010EDA22DF500001626FF7ECB2
:1014C0006AF00101804B812B822B030E8265E0D7ED
:1014D00097EC77F001017B6F7B517927000E7A231F
:1014E00080C160F081C161F07BC162F0F7EC6AF00D
:1014F0000101804B812B786B470E786501D02AD093
:10150000785172EC71F001017B6F7B517927000EED
:101510007A2380C160F081C161F07BC162F0F7EC99
:101520006AF00101804B812B78515EEC71F0010172
:101530007B6F7B517927000E7A2380C160F081C1D7
:1015400061F07BC162F0F7EC6AF00101804B812B06
:10155000782BD2D7EFEC77F001017B6F7B517927A5
:10156000000E7A2380C160F081C161F07BC162F01E
:10157000F7EC6AF00101804B812B9FEC77F00101C1
:101580007B6F7B517927000E7A2380C160F081C187
:1015900061F07BC162F0F7EC6AF00101804B812BB6
:1015A000DAEC77F001017B6F7B517927000E7A230B
:1015B00080C160F081C161F07BC162F0F7EC6AF03C
:1015C0000101804B812B32EC77F060C076F161C075
:1015D00077F1826B760E8225D96EDA6A010EDA22F5
:1015E000DF507927000E7A2380C160F081C161F05D
:1015F000760E8225D96EDA6A010EDA22DF500001FA
:10160000626FF7EC6AF00101804B812B822B010E97
:101610008265E0D7792904E17A2902E1796B7A6B56
:1016200080C160F081C161F079C162F0F7EC6AF0CD
:101630000101804B812B80C160F081C161F07AC1D2
:1016400062F0F7EC6AF00101804B812B000120EE83
:1016500006F0EB51D926EC51DA2200C2DEFF01C2BE
:10166000DEFFDD6A120000018D6B8E6B946B956B53
:10167000616B606BF7EC74F000018F6F944B952BEE
:101680008F518D27000E8E238FC086F0876B865179
:10169000876F866B94C060F095C061F0F7EC74F0D2
:1016A00000018F6F944B952B8F518D27000E8E2349
:1016B0008F518627000E87238651C1EC76F086C0B5
:1016C0008BF087C08CF00001966B9651900FD96E0D
:1016D000DA6A94C060F095C061F0F7EC74F0DF6EE8
:1016E0000001944B952B9651900FD96EDA6ADF501A
:1016F0008D27000E8E23962B030E9665E6D794C099
:1017000060F095C061F0F7EC74F000018F6F944BBE
:10171000952B8F518D27000E8E2390C06EF091C0B7
:101720006FF092C070F093C071F08FC072F0FDEC5A
:1017300067F094C060F095C061F0F7EC74F00001C0
:101740008F6F944B952B8F518D27000E8E238F51C9
:1017500099EC6AF00001966B9651900FD96EDA6A97
:1017600094C060F095C061F0F7EC74F0DF6E00019A
:10177000944B952B9651900FD96EDA6ADF508D27D6
:10178000000E8E23962B030E9665E6D790C060F070
:1017900091C061F092C062F093C063F049EC76F0C2
:1017A000966B9651900FD96EDA6A94C060F095C02E
:1017B00061F0F7EC74F0DF6E0001944B952B9651BD
:1017C000900FD96EDA6ADF508D27000E8E23962B8C
:1017D000030E9665E6D790C060F091C061F092C0AC
:1017E00062F093C063F05BEC76F0966B9651760FE7
:1017F000D96EDA6A94C060F095C061F0F7EC74F0CD
:10180000DF6E0001944B952B9651760FD96EDA6AF4
:10181000DF508D27000E8E23962B070E9665E6D798
:101820008BA105D0760E6B6F6C6BE0EC70F0000155
:10183000966B9651760FD96EDA6A94C060F095C0B7
:1018400061F0F7EC74F0DF6E0001944B952B96512C
:10185000760FD96EDA6ADF508D27000E8E23962B15
:10186000070E9665E6D78BA305D0760E6B6F6C6B73
:1018700034EC71F00001966B9651760FD96EDA6AEE
:1018800094C060F095C061F0F7EC74F0DF6E000179
:10189000944B952B9651760FD96EDA6ADF508D27CF
:1018A000000E8E23962B0F0E9665E6D78BA505D0DE
:1018B000760E6B6F6C6B1FEC71F00001966B96519E
:1018C000760FD96EDA6A94C060F095C061F0F7ECDB
:1018D00074F0DF6E0001944B952B9651760FD96E04
:1018E000DA6ADF508D27000E8E23962B0F0E966539
:1018F000E6D78BA905D0760E6B6F6C6BCBEC70F0D6
:101900000001966B9651760FD96EDA6A94C060F03A
:1019100095C061F0F7EC74F0DF6E0001944B952BED
:101920009651760FD96EDA6ADF508D27000E8E231E
:10193000962B0F0E9665E6D78BAB05D0760E6B6FA8
:101940006C6B0AEC71F00001906B916B926B936B76
:10195000966B9651900FD96EDA6A94C060F095C07C
:1019600061F0F7EC74F0DF6E0001944B952B96510B
:10197000900FD96EDA6ADF508D27000E8E23962BDA
:10198000030E9665E6D78BA70AD090C060F091C091
:1019900061F092C062F093C063F034EC75F0000126
:1019A000966B9651760FD96EDA6A94C060F095C046
:1019B00061F0F7EC74F0DF6E0001944B952B9651BB
:1019C000760FD96EDA6ADF508D27000E8E23962BA4
:1019D0000F0E9665E6D78BAF05D0760E6B6F6C6BEE
:1019E00034EC73F00001966B9651760FD96EDA6A7B
:1019F00094C060F095C061F0F7EC74F0DF6E000108
:101A0000944B952B9651760FD96EDA6ADF508D275D
:101A1000000E8E23962B0F0E9665E6D78CA105D06F
:101A2000760E6B6F6C6B24EC73F00001906B916B16
:101A3000926B936B966B9651900FD96EDA6A94C045
:101A400060F095C061F0F7EC74F0DF6E0001944B2C
:101A5000952B9651900FD96EDA6ADF508D27000EC4
:101A60008E23962B030E9665E6D78BAD0AD090C0D9
:101A700060F091C061F092C062F093C063F085ECB9
:101A800075F00001966B9651900FD96EDA6A94C08A
:101A900060F095C061F0F7EC74F0DF6E0001944BDC
:101AA000952B9651900FD96EDA6ADF508D27000E74
:101AB0008E23962B030E9665E6D790C060F091C0FA
:101AC00061F092C062F093C063F052EC76F094C083
:101AD00060F095C061F0F7EC74F000018F6F944BEB
:101AE000952B8F518D27000E8E238F5160EC70F057
:101AF00000018A6B470E8A6501D02BD094C060F03C
:101B000095C061F0F7EC74F000018F6F944B952B4A
:101B10008F518D27000E8E238F51010ED8B4000EE9
:101B2000646F8A5134EC72F094C060F095C061F03B
:101B3000F7EC74F000018F6F944B952B8F518D272C
:101B4000000E8E238FC067F08A51F5EC70F08A2B5F
:101B5000D1D794C060F095C061F0F7EC74F000014B
:101B60008F6F944B952B8F518D27000E8E238F51A5
:101B7000C5EC6FF094C060F095C061F0F7EC74F0C4
:101B800000018F6F944B952B8F518D27000E8E2364
:101B90008F51EAEC74F094C060F095C061F0F7ECFE
:101BA00074F000018F6F944B952B8F518D27000E91
:101BB0008E238F51ABEC77F00001886B896B966BAD
:101BC0009651880FD96EDA6A94C060F095C061F0C2
:101BD000F7EC74F0DF6E0001944B952B9651880F53
:101BE000D96EDA6ADF508D27000E8E23962B010EF8
:101BF0009665E6D788C060F089C061F028EC75F082
:101C000000018D2904E18E2902E18D6B8E6B8DC060
:101C100074F08EC075F01200070E816F826B010E9A
:101C2000786F796F756B766B6C07D8A06D076DD286
:101C3000050E6C25706F000E6D21716F6E51705D19
:101C40006F51715920E220EE05F06C51D9266D518B
:101C5000DA22030EDE1817E1782B040E6C25836F51
:101C6000000E6D21846F83C0D9FF84C0DAFFDF3896
:101C7000070BC3EC74F0000901E0796B050E6C27CB
:101C8000000E6D2342D26C4B6D2B6CC0D9FF6DC022
:101C9000DAFFDF500F0B776F6CC0D9FF6DC0DAFF32
:101CA000DF50706F70390F0B7C6F6C4B6D2B6CC0FD
:101CB000D9FF6DC0DAFFDECF7DF0DDCF7EF07DC0D5
:101CC0007FF07EC080F0020E6C27000E6D236CC08A
:101CD00083F06DC084F06C4B6D2B030102AD82D19B
:101CE0000001795101E104D183C0D9FF84C0DAFF3A
:101CF000DF38070BC3EC74F0000901E19FD0F8D086
:101D000083C0D9FF84C0DAFFDF38070B706F7039EA
:101D1000F00B746F7451100F726F74C085F042D065
:101D20008551020D210EF324D96E050EF420DA6ED2
:101D3000DF500F0B0001706F8151705D11E27FB1B8
:101D400003D07F5180110CE18551020D210EF32447
:101D5000D96E050EF420DA6EDF500F0B0001816F93
:101D60008551020D210EF324D96E050EF420DA6E92
:101D7000DF380F0B0001826111D07FB103D07F519A
:101D800080110CE18551020D210EF324D96E050E50
:101D9000F420DA6EDF380F0B0001826FD8908033A9
:101DA0007F33852B7251855D60E2BAD7040E826F56
:101DB0005CD0040E816F826F7D517E1156E1796B8C
:101DC00054D0856B3F0E856501D034D08551020D0E
:101DD000210EF324D96E050EF420DA6EDF500F0BBE
:101DE0000001706F8151705D0BE28551020D210E73
:101DF000F324D96E050EF420DA6EDF500F0B816FDD
:101E00008551020D210EF324D96E050EF420DA6EF1
:101E1000DF380F0B000182610BD08551020D210EBE
:101E2000F324D96E050EF420DA6EDF380F0B826FC3
:101E3000852BC8D77D517E11B9E117D083C0D9FF5A
:101E400084C0DAFFDF38070B01E15AD7010A01E14C
:101E500057D7030A01E154D7010A01E151D7070A14
:101E6000A5E0020AAEE0010AA4E0856B460E856596
:101E700001D03ED08551020D200EF324D96E050EFF
:101E8000F420DA6EDE0432E18551020D210EF324D6
:101E9000D96E050EF420DA6EDF500F0B0001706F63
:101EA0008151705D0BE28551020D210EF324D96E34
:101EB000050EF420DA6EDF500F0B816F8551020D95
:101EC000210EF324D96E050EF420DA6EDF380F0BE5
:101ED000000182610BD08551020D210EF324D96ED1
:101EE000050EF420DA6EDF380F0B826F852BBED71C
:101EF0007C51B8EC75F0000908E181517C5D05E387
:101F00007C51825D02E3010E766F0A0E776109D083
:101F1000010E756F050E776102D0736F02D077C026
:101F200073F0755148E0765146E0795144E078C04D
:101F300060F0616B6369FB0E626FFBEC71F06051E6
:101F40006C257A6F61516D217B6F23D07A4B7B2B8F
:101F50007A4B7B2B7AC0D9FF7BC0DAFFDECF7DF0D6
:101F6000DDCF7EF0020E7A27000E7B237AC083F04D
:101F70007BC084F07A4B7B2B7DC067F07EC068F01D
:101F800083C0D9FF84C0DAFFDF38070B696F14EC18
:101F90005AF000016C517A5D6D517B59D7E3030112
:101FA000038700017351A7EC77F003010389000157
:101FB0007C51AFEC77F083C0D9FF84C0DAFF000119
:101FC000DF500F0B03E10301C86B0AD083C0D9FFB8
:101FD00084C0DAFFDF500F0B706F70050301C86F0C
:101FE000038B8ED00001796B8BD003019851020DC9
:101FF0009B0EF324D96E030EF420DA6E000179B142
:1020000003D00301DF9002D00301DF809851020D5D
:102010009B0EF324D96E030EF420DA6E000176B124
:1020200003D00301DF9202D00301DF829851020D39
:102030009B0EF324D96E030EF420DA6E000175B105
:1020400003D00301DF9402D00301DF84100E9861F6
:1020500057D00001785154E00301982B9851020D9C
:102060009B0EF324D96E030EF420DA6EDF909851A4
:10207000020D9B0EF324D96E030EF420DA6EDF926C
:102080009851020D9B0EF324D96E030EF420DA6EE4
:10209000DF949851020D9B0EF324D96E030EF420A9
:1020A000DA6EDF969851020D9B0EF324D96E030E63
:1020B000F420DA6EDF989851020D9B0EF324D96E4E
:1020C000030EF420DA6EDF9A9851020D9B0EF32472
:1020D000D96E030EF420DA6EDF9C9851020D9B0E30
:1020E000F324D96E030EF420DA6EDF9E9851020DB0
:1020F0009A0EF324D96E030EF420DA6E030EDF6E0F
:1021000000017807782907E070D76E516C5D6F5138
:102110006D5901E28DD56CC06CF06DC06DF0120090
:10212000BAC265F0000E666F44EC42F0A2C26DF0D8
:10213000A3C26EF0A4C26FF0A5C270F0FDEC40F037
:102140000201BD51C2EC44F00201BA0501E0B6D172
:10215000B0C262F0390EDDEC73F0C4C27BF0010E48
:1021600000017B170201D890C33500017C6F02018A
:10217000BC39F00B00017C117B11626F1D0EDDEC90
:1021800073F07AC07BF0030E00017B17BEC27CF0B7
:10219000010E7C17D8907C37D8907C370201BB3970
:1021A000F00B00017C117B11626F1E0EDDEC73F0F1
:1021B0000201C051C11160E0C0C27EF0C1C27FF017
:1021C0000001806B816B42D07EC069F07FC06AF0F5
:1021D00080C06BF081C06CF07D0E00016D6F6E6B86
:1021E0006F6B706BFBEC65F022D07EC069F07FC036
:1021F0006AF080C06BF081C06CF0FA0E00016D6F68
:102200006E6B6F6B706BFBEC65F011D07EC069F08C
:102210007FC06AF080C06BF081C06CF0F40E0001EA
:102220006D6F010E6E6F6F6B706BFBEC65F069C0CC
:102230007EF06AC07FF06BC080F06CC081F00FD080
:1022400000017E6B7F6B806B816B09D00201BC51FA
:10225000070ABAE00F0AC9E0010AD8E0F1D7020183
:10226000BB2900017B6F05D0D890813380337F3349
:102270007E337B2FF9D705D000017E6B7F6B806B9F
:10228000816B7EC062F0240EDDEC73F079C062F0E9
:102290001F0EDDEC73F0260E21EC72F0826F0C0E37
:1022A0000201BB1906E1070EBC1909E0080EBC19B2
:1022B00006E00B0EBB1906E1070EBC1903E1000195
:1022C000828702D000018297828582C062F0260E4A
:1022D000DDEC73F0310E21EC72F0826FF80E821794
:1022E000030E821382C062F0310EDDEC73F00A0E31
:1022F0000001626F370EDDEC73F0120E0201D3198C
:1023000029E1070EBC1903E0080EBC1915E1310ED6
:1023100021EC72F0826F829F82C062F0310EDDECA0
:1023200073F0400E0001626F2F0EDDEC73F00001C0
:10233000626B300EDDEC73F0090E0201BC190AE18C
:10234000310E21EC72F0826F828F82C062F0310E0A
:10235000DDEC73F0330E21EC72F0826F829D82818E
:10236000C2C27BF0010E7B17060E7C6FD8907B37C4
:102370007C2FFCD77B51821382C062F0330EDDECE0
:1023800073F0C2C27BF0010E00017B17D8907B373F
:10239000D8907B35FF0A1D0B826F82C062F03B0E26
:1023A000DDEC73F00201AF510001626F200EDDEC35
:1023B00073F0AEC262F0210EDDEC73F00001626BCF
:1023C0000D0EDDEC73F00001626B0E0EDDEC73F0B0
:1023D0000001626B0F0EDDEC73F0120E0201D319D7
:1023E00068E1090EBC191EE1800EA25D130EA3590F
:1023F000610EA459330EA55915E3A205F70EA35992
:10240000CB0EA4593C0EA5590DE2020E0001626FDD
:10241000360EDDEC73F0640E0001626F3A0EDDECF7
:1024200073F028D0090EBC191FE1800EA25D1A0EB0
:10243000A359700EA459180EA55916E3410EA25DBA
:10244000DD0EA3594A0EA4591F0EA5590DE2020E26
:102450000001626F360EDDEC73F07F0E0001626FDB
:102460003A0EDDEC73F006D0030E0001626F360EFB
:10247000DDEC73F0090E0201BC190FE1C2050DE19C
:10248000650E0001626F3A0EDDEC73F0190E00016B
:10249000626F3B0EDDEC73F00CD0650E0001626FD5
:1024A0003A0EDDEC73F01D0E0001626F3B0EDDECA9
:1024B00073F000016269120EDDEF73F0A6C26DF0D9
:1024C000A7C26EF0A8C26FF0A9C270F0EBEC5DF08D
:1024D000AAC26DF0ABC26EF0ACC26FF0ADC270F0CC
:1024E0007FEC5EF00201AF510001626F250EDDEC62
:1024F00073F0AEC262F0260EDDEC73F00A0E21EC32
:1025000072F0826F9F0E82170201D739E846E00B06
:102510000001821382C062F00A0EDDEC73F0C80E77
:102520000001826F0201BE5102E00001828982C077
:1025300062F0300EDDEC73F000017D6B0ED0B10E59
:102540007D25D96EDA6A020EDA22DF50626F7D5184
:10255000280FDDEC73F000017D2B0201B951000161
:102560007D5DEDE30201B95108E0B90510090001F4
:10257000626F270EDDEC73F005D00001626B270E51
:10258000DDEC73F0000162693E0EDDEC73F00001DA
:1025900062693F0EDDEF73F099C36DF06251D96E41
:1025A000DA6ADF506E6F000163513EE06D51020D3B
:1025B0009A0EF324D96E030EF420DA6EDE2834E08E
:1025C000FE0E646F65696D51020D9A0EF324D96E8B
:1025D000030EF420DA6EDF50666F676B6451662776
:1025E00065516723540E6625F66EF70E6721F76E68
:1025F000F86A000EF8220800F5506EC068F0696BAA
:102600006827000E69236251D96EDA6ADF50685F6D
:10261000000E695B69BF77D1695105E1100E685DF5
:1026200001E395D170D193D1635101E06CD16D512B
:10263000020D9A0EF324D96E030EF420DA6EDE2812
:1026400001E161D1FE0E646F65696D51020D9A0E54
:10265000F324D96E030EF420DA6EDF50666F676BD9
:102660006451662765516723540E6625F66EF70E92
:102670006721F76EF86A000EF8220800F5506EC068
:1026800068F0696B6827000E69236251D96EDA6AB7
:10269000DF50685F000E695B2D0E0301D125F66ED9
:1026A000F76AF70EF722F86A000EF8220800F550D4
:1026B00000016A6F6B6B68516A5D6B51800A6C6FC9
:1026C0006951800A6C5901E242D11DD16E516025D9
:1026D000D96E000E6121DA6E030EDF6E6E2B6E5125
:1026E0006025D96E000E6121DA6EDF6A6D51020D30
:1026F0009B0EF324D96E030EF420DA6EDFA009D00E
:1027000000016E516025D96E000E6121DA6E000E57
:10271000DB8000016D51020D9B0EF324D96E030E78
:10272000F420DA6EDFA208D06E516025D96E000E5B
:102730006121DA6E000EDB8200016D51020D9B0EED
:10274000F324D96E030EF420DA6EDFA408D06E51A4
:102750006025D96E000E6121DA6E000EDB84000167
:102760006E2BEBD06E516025D96E000E6121DA6EB2
:10277000050EDF6E6E2B6E516025D96E000E612145
:10278000DA6EDF6A6D51020D9B0EF324D96E030ED3
:10279000F420DA6EDFA609D000016E516025D96EF3
:1027A000000E6121DA6E000EDB8000016D51020D1A
:1027B0009B0EF324D96E030EF420DA6EDFA808D046
:1027C0006E516025D96E000E6121DA6E000EDB823B
:1027D00000016D51020D9B0EF324D96E030EF420FF
:1027E000DA6EDFAA08D06E516025D96E000E612125
:1027F000DA6E000EDB8400016E516025D96E000E8A
:102800006121DA6EDF500101CA6FA9D76E516025D0
:10281000D96E000E6121DA6E060EDF6E6E2B6E51E0
:102820006025D96E000E6121DA6ED2C3DFFF6E2BF8
:10283000F8EC77F0800AA00F05E3F8EC77F0800A57
:10284000600F09E300016E516025D96E000E612111
:10285000DA6E200E0AD000016E516025D96E000E8E
:102860006121DA6EF8EC77F03F0BDF6E78D76E51AE
:102870006025D96E000E6121DA6E070EDF6E6E2BB9
:102880006E516025D96E000E6121DA6EDF6A6D51DE
:10289000020D9B0EF324D96E030EF420DA6EDFAE28
:1028A00009D000016E516025D96E000E6121DA6EEB
:1028B000000EDB8000016D51020D9B0EF324D96EDA
:1028C000030EF420DA6EDFAC4AD76E516025D96E64
:1028D000000E6121DA6E000EDB8241D70301CF6961
:1028E000D06B00016D51020D9A0EF324D96E030EC8
:1028F000F420DA6E6E516025E96E000E6121EA6EF9
:10290000DFCFEFFF2CD76D51020D9A0EF324D96E55
:10291000030EF420DA6EDF50020AE0E0010A01E162
:10292000D5D6070ADEE0010A01E11CD7030A01E15E
:102930006DD7010A9CE00F0AD4E06D2B100E6D19C3
:1029400001E16D6B6D510301981901E02CD66DC04A
:1029500099F300016251D96EDA6A6EC0DFFF12008E
:10296000EBC0D9FFECC0DAFFDECFF0F0DDCFF1F045
:10297000000120EE02F0EB51D926EC51DA22DECF35
:10298000F2F0DDCFF3F0010EF46FF569F0C09CF0CA
:10299000F1C09DF085EC43F0F56FF5BF90D1F66B7B
:1029A000070EF66501D08BD1F651020D480EF324C7
:1029B000D96E020EF420DA6EDECF60F0DDCF61F06A
:1029C000F2C062F0F3C063F0A6EC52F06051611106
:1029D00001E072D1FF0EF525F66EF76AF60EF722CA
:1029E000F86A000EF8220800F5CFEDF0F6C0EEF020
:1029F000010EEF6FEE2B02D0D890EF37EE2FFCD701
:102A00000001EF51ED1501E157D1F46B26D10F0113
:102A10003891929051D10F01389192804DD192808E
:102A20000F01388149D1F651F2E0010AF4E0030ABE
:102A3000F6E012D00F01389392923ED10F013893F5
:102A400092823AD192820F01388336D1F651F2E068
:102A5000010AF4E0030AF6E0010A2ED10F013895CD
:102A600092942AD10F013895928426D192840F0135
:102A7000388522D1F651F2E0010AF4E0030AF6E0CB
:102A8000EBD70F013897929617D10F01389792869E
:102A900013D192860F0138870FD1F651F2E0010A67
:102AA000F4E0030AF6E0D8D7929806D1928804D1D0
:102AB000F651FAE0010AFAE0020AFED00F01389B53
:102AC000929AFAD00F01389B928AF6D0928A0F011F
:102AD000388BF2D0F651F2E0010AF4E0030AF6E096
:102AE000BBD70F013C919690E7D00F013C919680A7
:102AF000E3D096800F013C81DFD0F651F2E0010A6D
:102B0000F4E0030AF6E0A8D70F013C939692D4D0E4
:102B10000F013C939682D0D096820F013C83CCD09B
:102B2000F651F2E0010AF4E0030AF6E095D70F014E
:102B30003B959594C1D00F013B959584BDD095846C
:102B40000F013B85B9D0F651F2E0010AF4E0030A27
:102B5000F6E082D70F013C959694AED00F013C95DC
:102B60009684AAD096840F013C85A6D0F651F2E057
:102B7000010AF4E0030AF6E06FD70F013A9B949A3A
:102B80009BD00F013A9B948A97D0948A0F013A8B7D
:102B900093D0F651F2E0010AF4E0030AF6E05CD7C4
:102BA0000F013B9B959A88D00F013B9B958A84D05F
:102BB000958A0F013B8B80D0F651F2E0010AF4E0D8
:102BC000030AF6E049D70F013B9F959E75D00F0190
:102BD0003B9F958E71D0958E0F013B8F6DD0F65136
:102BE000F2E0010AF4E0030AF6E036D70F013B9D5C
:102BF000959C62D00F013B9D958C5ED0958C0F010A
:102C00003B8D5AD0F651F2E0010AF4E0030AF6E0F7
:102C100023D7929E51D0928E4FD0F651FAE0010AFE
:102C2000FAE04AD7929C48D0928C46D0F651FAE00E
:102C3000010AFAE041D7939E3FD0938E3DD0F651E2
:102C4000FAE0010AFAE038D7939C36D0938C34D05E
:102C5000F651FAE0010AFAE02FD7F55101E1E3D687
:102C6000010A01E1F3D6030A01E104D7010A01E1F7
:102C700014D7070A01E11CD7010A01E12BD7030A87
:102C800001E13BD7010A01E14BD70F0A01E15BD714
:102C9000010A01E16BD7030A01E17BD7010A8CE04D
:102CA000070A9DE0010AAEE0030AB7E0010ABEE0B0
:102CB0001F0AC5E0010ACCE00001F62B71D6F451E1
:102CC000020DDB0EF324D96E010EF420DA6EDECF96
:102CD000EDF0DDCFEEF020EE06F0EB51D926EC5111
:102CE000DA22EDC0DEFFEEC0DEFFDD6A1200DD6F2E
:102CF000100E0001E16FDF6BDE0E606F616B636BC6
:102D0000626B656B010E646FB6EC70F00A0E606F5B
:102D10000A0E616F636B626B010E656F0F0E646F5D
:102D2000B6EC70F0DA0E606F020E616F636B626B6F
:102D3000656B100E646FB6EC70F0DD0507E1DE51D7
:102D40001F0B8009DE6F0301008104D0DE511F0BD1
:102D50004009DE6FFC0E0001DE17E30EDE170A0EDF
:102D6000E125D96EDA6A0A0EDA22DEC0DFFFE12B36
:102D70000A0EE125606F616B0A0E61231E0E626F01
:102D8000030E636F656B040E646F9AEC61F0040EC2
:102D9000E127E06B030102AD30D00001E08F0301B9
:102DA000D151DD5D29E20001E08D03010089C24BB4
:102DB000C32B9451C219C31102E1E06B1AD0945194
:102DC0000001DB6FDC6B0301C2510001DB5D03011D
:102DD000C3510001DC590EE20301E02B9551E05D87
:102DE0000CE3E06B11EC4BF0000907E10301C26B4F
:102DF000C36B0001E09D03010099030100A304D00F
:102E00000001E08B030100930001E0990301995157
:102E1000981907E10001D951DA1103E1F00EE0172A
:102E200035D003019951981926E1F00E0001E01701
:102E300049500AE0E0510F0BDB6F020EDB27E05137
:102E4000DB19F00BDB19E06F485009E0E0510F0B84
:102E5000DB6FDB2BE051DB19F00BDB19E06F0101BD
:102E6000CB5114E00001E0510F0BDB6F020EDB27AA
:102E7000E051DB1908D00001D951DA1107E029EC43
:102E800045F0DB6FE019F00BDB19E06F0A0E000173
:102E9000E125D96EDA6A0A0EDA22E0C0DFFFE12B03
:102EA0000A0EE125606F616B0A0E6123060E626FE8
:102EB000030E636F656B020E646F9AEC61F0020E95
:102EC000E1270301995198190FE00001D951DA1156
:102ED0000BE00A0E606F0A0E616FE10E626F010E69
:102EE000636FCCEC12F01AD003019951981916E1D6
:102EF000495009E00A0E0001606F0A0E616FE10E91
:102F0000626F5EEC6CF0485009E00A0E0001606FE1
:102F10000A0E616FE10E626F9AEC71F00A0E000109
:102F2000E125D96EDA6A0A0EDA22D6C0DFFFE12B7C
:102F3000D951DA112EE00A0EE125606F616B0A0E9D
:102F40006123D7C062F0D8C063F0D9C064F0DAC0A2
:102F500065F09AEC61F0D7C0A0F0D8C0A1F0D9C05C
:102F6000A2F0A36B06C3A4F007C3A5F008C3A6F0A4
:102F700009C3A7F0320EA86F030EA96FE1C0AAF033
:102F80000A0EAB6F0A0EAC6FAD6B0FEC32F0D9517D
:102F90002BD003019951981928E0190E0001606F98
:102FA0000B0E616FDF0E626F636BCCEC12F0190ECB
:102FB000A06F0B0EA16FDFC0A2F0A36B06C3A4F03D
:102FC00007C3A5F008C3A6F009C3A7F0220EA86F97
:102FD000030EA96FE1C0AAF00A0EAB6F0A0EAC6F28
:102FE000AD6B0FEC32F0DF51E12706C36BF007C386
:102FF0006CF008C36DF009C36EF00001E151F00FF1
:103000006F6F490E706F000E716B60EC4AF00A0E24
:10301000606F0A0E616FDA0E626F020E636F656B8E
:10302000100E646F9AEC61F0220EC86F030EC96F28
:10303000DA0ECA6F020ECB6F0A0ECC6F0A0ECD6F7E
:10304000E1C0CEF0EAEC19F00A0EE125606F616B89
:103050000A0E6123DA0E626F020E636F656B040E57
:10306000646F9AEC61F0040EE127F00EE125030194
:10307000C66FC76BFF0EC723FF0C00017B6F796B18
:103080007A6B080E7B194BE127EEF4F0DE50DE1070
:10309000D8B4120027EEF4F0DECF70F0DDCF71F07F
:1030A000AF0E7025D96E050E7121DA6EDF502CE15E
:1030B000F3C7E8FFFF0FE8CFF3F727EEF3F0DF5099
:1030C000020DD60EF324D96E070EF420DA6EDECF91
:1030D000F6F7DDCFF7F727EEF3F0DF50020DD60E4F
:1030E000F324D96E070EF420DA6EDE6ADD6A27EE6D
:1030F000F3F0DF50020DE40EF324D96E070EF42036
:10310000DA6EDE6ADD6A05D027EEF6F0DE06000E26
:10311000DD5A27EEF4F0DE06000EDD5A000C27EE35
:10312000F4F0250EDE5C020EDE5859E2200E7B190B
:1031300058E127EEF3F0060EDF6051D027EEF4F0F1
:10314000DECF70F0DDCF71F0B00E7025D96E050EB8
:103150007121DA6E000EDF6A27EEF4F0DE2ADD223E
:1031600027EEF6F007EEF3F0EF50020DD60EF32443
:10317000E96E070EF420EA6EDECFEEFFDDCFEDFF45
:103180007069716927EEF6F0DECF72F0DDCF73F073
:1031900027EEF4F0DECF74F0DDCF75F07251745F7E
:1031A0007351755B705174277151752327EEF3F0DD
:1031B000DF50020DE40EF324D96E070EF420DA6E10
:1031C00074C0DEFF75C0DDFFF3C7E8FF010FE8CF75
:1031D000F3F7000EE8CFF6F7E8CFF7F7D8D0796924
:1031E000D6D027EEF4F0DECF70F0DDCF71F0B00E68
:1031F0007025D96E050E7121DA6E7BC0DFFF27EED8
:10320000F4F0DE2A000EDD2227EEF6F0DE2ADD22C3
:10321000E50E606FFF0E616F6011D8A4000E626F43
:1032200021EC66F027EEF4F06051DE5C6151DE586F
:103230004AE3010E7A6FE50E606FFF0E616F601159
:10324000D8A4000E626F21EC66F060517C6F37D01D
:1032500027EEF4F0DECF70F0DDCF71F0B00E726FBC
:10326000050E736F7C51725F000E735B7051722597
:10327000D96E71517321DA6EDF50746FE50E606F95
:10328000FF0E616F6011D8A4000E626F21EC66F032
:10329000E50E756FFF0E766F6051752761517623CD
:1032A0007C51755F000E765B75C0F6FF76C0F7FF48
:1032B000F86A0800F550741901E07A6B7C077C51BC
:1032C00002E07A51C5E17A5162E027EEF4F0DECFF8
:1032D00070F0DDCF71F0E50E606FFF0E616F601171
:1032E000D8A4000E626F21EC66F0B00E726F050E6E
:1032F000736F6051725F6151735B70517225D96E4B
:1033000071517321DA6EDF6AE50E606FFF0E616F37
:103310006011D8A4000E626F21EC66F027EEF6F083
:10332000DECF70F0DDCF71F06051705F6151715B85
:1033300027EEF3F0DF50020DD60EF324D96E070E00
:10334000F420DA6E70C0DEFF71C0DDFF27EEF6F00C
:10335000DECF70F0DDCF71F027EEF4F0DECF72F04B
:10336000DDCF73F07051725F7151735B27EEF3F034
:10337000DF50020DE40EF324D96E070EF420DA6E4E
:1033800072C0DEFF73C0DDFF010EE8CFF2F77929CE
:10339000D8A412006FEC67F064C260F065C261F0FF
:1033A00060516111D8A4000E626F21EC66F060C01C
:1033B00077F061C078F064C266F065C267F066516C
:1033C0006711D8A4000E686F77C069F078C06AF002
:1033D00084EF53F00101656B646B626B606B616B32
:1033E000C8C0A0F0C9C0A1F0100E0001A26F010E6C
:1033F000A36F000EA46F010EA56F58EC3CF0CE51E8
:10340000CF6FD06B0F0ECF27000ED023040ED16FDD
:10341000D035D033CF33D12FFBD7CF510101636FDC
:10342000635104E1010E636F626B0AD0CEC0CFF02E
:103430000F0E0001CF17010ED8A4000E0101626F1C
:10344000620541E1646B6351100DF350F00F656F3D
:103450001ED0200E01016425D96EDA6A010EDA222F
:10346000100E6425E96EEA6A010EEA22EF500001AF
:10347000CF6F010165510001CC25E96E000ECD2111
:10348000EA6EEF50CF19DF6E0101642B652B63519B
:103490000001CF6FD06BCF3BD03BF00ED017CF5198
:1034A0000F0BD013F00ECF17010165510001D16F42
:1034B000D26BCF51D15DD251800AD36FD051800AE7
:1034C000D35963E2C6D70001CE51CC25CF6F000E91
:1034D000CD21D06FCE510F0BCF5D0101606F000188
:1034E000D051D8A0D0050101616F656B0001CE51AC
:1034F0000F0B010165610FD065516025D96E000E7B
:103500006121DA6E300E6525E96EEA6A010EEA2263
:10351000DFCFEFFF16D00001CE510F0B010165196F
:1035200009E1300E6525D96EDA6A010EDA22800EC5
:10353000DF6E07D0300E6525D96EDA6A010EDA2209
:10354000DF6A652B0F0E6565D1D7656B200E65258B
:10355000D96EDA6A010EDA22000E6525E96EEA6A92
:10356000010EEA22EF500001CF6F300E01016525F8
:10357000E96EEA6A010EEA22EF500001CF19DF6E10
:103580000101652B0F0E6565E1D7500E0001606FDC
:10359000010E616F636B626B656B100E646FB6EC4E
:1035A00070F00101656B51D00101646B400E642520
:1035B000D96EDA6A010EDA2265510001CF6FD06B45
:1035C000CF3BD03BF00ED017CF510F0BD013F00EE6
:1035D000CF17CCC0D1F0CDC0D2F0CF51D127D05130
:1035E000D223010164510001D125E96E000ED221E0
:1035F000EA6EEF50D36F500E01016425E96EEA6A5E
:10360000010EEA22EF500001D319DF6E0101642B95
:103610000F0E6465CBD7500E0001606F010E616F15
:10362000400E626F010E636F656B100E646F9AEC53
:1036300061F0500E8C6F010E8D6FC8C08EF0C9C046
:103640008FF0AEEC71F00101652B0001CF69D069FC
:10365000010163510001D16FD26BCF51D127D051FD
:10366000D223010165510001D36FD46BD151D35DD9
:10367000D451800AD56FD251800AD55995E3010102
:10368000656B400E6525D96EDA6A010EDA22200ECE
:103690006525E96EEA6A010EEA22EF500001CF6F5C
:1036A000500E01016525E96EEA6A010EEA22EF502B
:1036B0000001CF19DF6E0101652B0F0E6565E1D7A3
:1036C000400E00018C6F010E8D6FC8C08EF0C9C016
:1036D0008FF0AEEC71F0CAC060F0CBC061F0400E6C
:1036E000626F010E636F656B100E646F9AEF61F08D
:1036F00074D1010E9B6597D0F80E606F070E616F55
:1037000022C262F023C263F023EC6FF0F80E606F08
:10371000070E616F6011D8A4200E626F21EC66F075
:1037200060C0A9F061C0AAF0F80EA925856F070E48
:10373000AA21866F99C0D9FF9AC0DAFFDF50876F40
:10374000886B8A6B0A0E896F5BEC6DF0F80E606F08
:10375000070E616F6011D8A4200E626F21EC66F035
:1037600060C0A9F061C0AAF0F80EA925D96E070EB5
:10377000AA21DA6E200EDF6EA94BAA2B9D699E69E5
:103780009B519F6FA06B9D519F279E51A023120EAE
:10379000A16F020EA26FA951A15FAA51A25BD8909E
:1037A000A231A46FA131A36F9F51A35DA051A45971
:1037B00010E2120E9D6F020E9E6FA9519D5FAA51DD
:1037C0009E5BD8909E319F6F9D31A56F9FC0A6F0E4
:1037D00006D0FF0E9B25A56FA66BFF0EA623992989
:1037E0008D6F000E9A218E6FF80EA9258F6F070E30
:1037F000AA21906FA55159EC44F0F80E606F070EA6
:10380000616F6011D8A4200E626F21EC66F060C079
:10381000A7F061C0A8F0F80E666F070E676F66111B
:10382000D8A4200E14D01EC260F01FC261F06051F7
:103830006111D8A4000E626F21EC66F060C0A7F0A1
:1038400061C0A8F01EC266F01FC267F0C1D0686FE9
:10385000A7C069F0A8C06AF084EF53F09B5155E00F
:10386000F80E606F070E616F20C262F021C263F034
:1038700023EC6FF0F80E606F070E616F6011D8A433
:10388000200E626F21EC66F060C0A9F061C0AAF062
:10389000F80EA925D96E070EAA21DA6E200EDF6E6A
:1038A000A94BAA2B120E9D6F020E9E6FA9519D5F10
:1038B000AA519E5BD8909E31A06F9D319F6F9B5106
:1038C0009F5D000EA05910E2120E9D6F020E9E6FBA
:1038D000A9519D5FAA519E5BD8909E319F6F9D31EB
:1038E000A56F9FC0A6F003D09BC0A5F0A66B99C0A2
:1038F0008DF09AC08EF0F80EA9258F6F070EAA21C1
:10390000906FA55159EC44F078D71CC260F01DC2ED
:1039100061F060516111D8A4000E626F21EC66F075
:1039200060C0A7F061C0A8F01CC266F01DC267F0BD
:103930004FD024C260F025C261F060516111D8A45B
:10394000000E626F21EC66F060C0A7F061C0A8F0C5
:1039500024C266F025C267F03BD026C260F027C2C1
:1039600061F060516111D8A4000E626F21EC66F025
:1039700060C0A7F061C0A8F026C266F027C267F059
:1039800027D028C260F029C261F060516111D8A42B
:10399000000E626F21EC66F060C0A7F061C0A8F075
:1039A00028C266F029C267F013D02AC260F02BC289
:1039B00061F060516111D8A4000E626F21EC66F0D5
:1039C00060C0A7F061C0A8F02AC266F02BC267F001
:1039D00066516711D8A4000E3AD700019C51BDE092
:1039E000010A01E186D6030AA4E0010A01E136D703
:1039F000070AC7E0010AD9E012008C6B6EC29FF182
:103A00006FC2A0F19F51A011D8A4000EA16F8F6BBF
:103A10003DD08F51090DF35083250001FA6FF4500A
:103A2000010184210001FB6F000E010185210001CD
:103A3000FC6FFAC0F6FFFBC0F7FFFCC0F8FF21EEF9
:103A400090F0080E0900F5CFDEFFE806FBE290C11A
:103A500060F091C161F001018751020DE40EF32481
:103A6000D96E070EF420DA6EDECFFAF0DDCFFBF070
:103A7000B00E0001FA25626F050EFB21636FA6EC04
:103A800052F06051611105E001018F2B86518F5D6D
:103A9000C0E3010186518F5D01E311D19251931171
:103AA000941101E001D19551961101E108D198518D
:103AB0000001FA6FFB6B01018751F3C7FCF0FCC0FA
:103AC000FDF00001FE6BFD5F000EFE5BFA51FD197B
:103AD00003E1FB51FE19D8A4F2D0010187298E6FB2
:103AE0008D6B985114E08E2B8E05020DD60EF324AB
:103AF000D96E070EF420DA6EDE50DE1003E1010EFF
:103B00008D6F05D027EEF3F08E51DE5CECE28D5127
:103B100001E0D5D0990E0001606F010E616F636BFB
:103B2000626B656B090E646FB6EC70F00101875132
:103B30000001FA6FFB6BFA2B000EFB23FB512FE108
:103B4000070EFA5D2CE2010187510001FA6FFB6B51
:103B5000D890FA37FB37D80EFA25D96E070EFB211D
:103B6000DA6EDE50DE101BE0010187510001FA6FB2
:103B7000FB6BD890FA37FB37E60EFA25D96E070EA5
:103B8000FB21DA6EDECFFCF0DDCFFDF0B00EFC25C0
:103B90000101996F050E0001FD2101019A6F0101DC
:103BA00087510001FA6FFB6B020EFA27000EFB2310
:103BB000FB512FE1070EFA5D2CE201018751000154
:103BC000FA6FFB6BD890FA37FB37DA0EFA25D96E0D
:103BD000070EFB21DA6EDE50DE101BE0010187517B
:103BE0000001FA6FFB6BD890FA37FB37E80EFA2525
:103BF000D96E070EFB21DA6EDECFFCF0DDCFFDF0D3
:103C0000B00EFC2501019B6F050E0001FD21010195
:103C10009C6F010187510001FA6FFB6B030EFA27BD
:103C2000000EFB23FB512FE1070EFA5D2CE2010190
:103C300087510001FA6FFB6BD890FA37FB37DC0E27
:103C4000FA25D96E070EFB21DA6EDE50DE101BE07E
:103C5000010187510001FA6FFB6BD890FA37FB37EF
:103C6000EA0EFA25D96E070EFB21DA6EDECFFCF0E4
:103C7000DDCFFDF0B00EFC2501019D6F050E0001AA
:103C8000FD2101019E6F990E0001EB6F010EEC6F9B
:103C900001D815D00500FA6E01019551FD6E9651BF
:103CA000FE6EFF6AFA501200010E8C6F88C1D9FFB8
:103CB00089C1DAFF8FC1DFFF9F6BA06BA16B010190
:103CC0009F51A011A11118E09FC160F0A0C161F047
:103CD000A1C162F021EC66F060C08AF161C08BF195
:103CE0009FC166F0A0C167F0A1C168F08AC169F008
:103CF0008BC16AF084EC53F001018C5112008B6B84
:103D000068518B25D96EDA6A8B51710FE96EEA6AB8
:103D1000DFCFEFFF8B2B0F0E8B65F2D70A0E446EB1
:103D2000010E436E8B6B8B51710FD96EDA6ADF50C7
:103D3000696F8B516625D96E000E6721DA6E695165
:103D4000DF1A8B2B0F0E8B65EED78B6B8B51662595
:103D5000D96E000E6721DA6EDF50696F6A6BFF0E55
:103D60006925F66EF50E6A21F76EF86A000EF822E4
:103D70008B516625D96E000E6721DA6E0800F5CFEB
:103D8000DFFF8B2B0F0E8B65E1D766C060F067C03D
:103D900061F004EC30F0440401E111D18B6B8B51E4
:103DA0006625696F000E67216A6F6929D96E000E5A
:103DB0006A21DA6EDF506B6F8B516625D96E000E6B
:103DC0006721DA6EDF506B19896F8B516625696F39
:103DD000000E67216A6F030E6925D96E000E6A21F5
:103DE000DA6EDF506B6F8B5166256C6F000E6721AA
:103DF0006D6F020E6C25D96E000E6D21DA6EDF50EC
:103E00006B198A6F8919876F8B516625696F000E50
:103E100067216A6F6929D96E000E6A21DA6EDF5058
:103E20006B6F8B5166256C6F000E67216D6F020EF4
:103E30006C25D96E000E6D21DA6EDF506B19886F1C
:103E40007F0E89650CD01B0E89C069F06A6BD89013
:103E500069376A376919816F6A51826F05D0D890C6
:103E60008935816F826B823781C089F07F0E8865CA
:103E70000CD01B0E88C069F06A6BD89069376A371E
:103E80006919836F6A51846F05D0D8908835836F24
:103E9000846B843783C088F07F0E8A650CD01B0E3C
:103EA0008AC069F06A6BD89069376A376919856F7B
:103EB0006A51866F05D0D8908A35856F866B8637B4
:103EC00085C08AF08B516625D96E000E6721DA6EA7
:103ED0008B516625E96E000E6721EA6EEF50871957
:103EE0008919DF6E8B516625696F000E67216A6F35
:103EF0006929D96E000E6A21DA6E8B5166256B6FC7
:103F0000000E67216C6F6B29E96E000E6C21EA6E62
:103F1000EF5087198819DF6E8B516625696F000E87
:103F200067216A6F020E6925D96E000E6A21DA6E6A
:103F30008B5166256B6F000E67216C6F020E6B252F
:103F4000E96E000E6C21EA6EEF5087198A19DF6E58
:103F50008B516625696F000E67216A6F030E692514
:103F6000D96E000E6A21DA6E8B5166256B6F000EDA
:103F700067216C6F020E6B25E96E000E6C21EA6EF4
:103F8000EF506D6F8B5166256E6F000E67216F6F5E
:103F90006E29E96E000E6F21EA6EEF50706F8B5143
:103FA0006625E96E000E6721EA6EEF5070196D19F3
:103FB0008719DF6E040E8B270F0E8B65F0D6710EFE
:103FC000606FA7EC23F08B6B8B51710FD96EDA6A9F
:103FD000DF50696F8B516625D96E000E6721DA6E4E
:103FE0006951DF1A8B2B0F0E8B65EED744064450B8
:103FF00001E0ABD6120010D100017D697E697F69B6
:10400000806918D100A546D0D45179EC6AF063518B
:1040100007E11F0E605DAC0E6159DF0E62591DE3B2
:104020000301D45179EC6AF00D0E05D0D8906333BA
:10403000623361336033E82EF9D760C069F061C044
:104040006AF062C06BF063C06CF07D0E6D6F6E6BDA
:104050006F6B706BFBEC65F0BBD00301D45179EC56
:104060006AF060C069F061C06AF062C06BF063C062
:104070006CF07D0E6D6F6E6B6F6B706BFBEC65F0B3
:104080000D0E05D0D8906C336B336A336933E82E4C
:10409000F9D79ED002A9CED0D65179EC6AF06351FF
:1040A00007E11F0E605DAC0E6159DF0E62591DE322
:1040B0000301D65179EC6AF00D0E05D0D890633328
:1040C000623361336033E82EF9D760C069F061C0B4
:1040D0006AF062C06BF063C06CF07D0E6D6F6E6B4A
:1040E0006F6B706BFBEC65F073D00301D65179EC0C
:1040F0006AF060C069F061C06AF062C06BF063C0D2
:104100006CF07D0E6D6F6E6B6F6B706BFBEC65F022
:104110000D0E05D0D8906C336B336A336933E82EBB
:10412000F9D756D000A504D0D55179EC6AF005D066
:1041300002A90BD0D75179EC6AF060C07DF061C064
:104140007EF062C07FF063C080F00001805107E123
:104150001F0E7D5DAC0E7E59DF0E7F5921E37DC0C1
:1041600079F07EC07AF07FC07BF080C07CF00D0ECD
:1041700005D0D8907C337B337A337933E82EF9D766
:1041800079C069F07AC06AF07BC06BF07CC06CF0DB
:104190007D0E6D6F6E6B6F6B706BFBEC65F018D006
:1041A0007DC069F07EC06AF07FC06BF080C06CF0AB
:1041B0007D0E6D6F6E6B6F6B706BFBEC65F00D0EB3
:1041C00005D0D8906C336B336A336933E82EF9D756
:1041D00069C07DF06AC07EF06BC07FF06CC080F07B
:1041E00029D0DA5179EC6AF060C07DF061C07EF0D0
:1041F00062C07FF063C080F08051B1E11F0E7D5D31
:10420000AC0E7E59DF0E7F59AAE2CAD700017D6B42
:104210007E6B7F6B806B0ED0030102510F0B01E1AF
:10422000EBD6020A01E1EED6060A01E17BD7020ACB
:10423000D8E0ECD7000180517F117E1103E1C80E58
:104240007D5D09E3CE0E7D27FF0E7E237F23802335
:104250000301038106D07D6B7E6B7F6B806B030156
:1042600003917DC075F07EC076F07FC077F080C08E
:1042700078F01200030103B115D1E36B0251F00B8A
:104280000209026F00A582D01F0E1725F66EF76A8D
:10429000F70EF722F86A000EF8220800F5CFADF00D
:1042A0008A510001AD25AE6F000EADBFFF0E0301B8
:1042B0008B210001AF6FB06BB16B0C0ED890AE3795
:1042C000AF37B037B137E82EF9D7AEC060F0AFC026
:1042D00061F0B0C062F0B1C063F07D0E646F656BD9
:1042E000666B676BC9EC5AF060C06DF061C06EF030
:1042F00062C06FF063C070F00301D45190EC64F0C1
:104300001F0E03011C25F66EF76AF70EF722F86AF6
:10431000000EF8220800F5CFADF08C510001AD255C
:10432000AE6F000EADBFFF0E03018D210001AF6F18
:10433000B06BB16B0C0ED890AE37AF37B037B1372A
:10434000E82EF9D7AEC060F0AFC061F0B0C062F047
:10435000B1C063F07D0E646F656B666B676BC9EC13
:104360005AF060C06DF061C06EF062C06FF063C063
:1043700070F00301D55190EC64F00301D45190EC3E
:1043800050F00301D55190EC50F081D01F0E17254D
:10439000F66EF76AF70EF722F86A000EF8220800A8
:1043A000F5CFADF086510001AD25AE6F000EADBF6B
:1043B000FF0E030187210001AF6FB06BB16B0C0ED4
:1043C000D890AE37AF37B037B137E82EF9D7AEC097
:1043D00060F0AFC061F0B0C062F0B1C063F07D0EBC
:1043E000646F656B666B676BC9EC5AF060C06DF00B
:1043F00061C06EF062C06FF063C070F00301D6510F
:1044000090EC64F01F0E03011C25F66EF76AF70EA0
:10441000F722F86A000EF8220800F5CFADF08851B7
:104420000001AD25AE6F000EADBFFF0E0301892167
:104430000001AF6FB06BB16B0C0ED890AE37AF37D9
:10444000B037B137E82EF9D7AEC060F0AFC061F039
:10445000B0C062F0B1C063F07D0E646F656B666BD7
:10446000676BC9EC5AF060C06DF061C06EF062C05D
:104470006FF063C070F00301D75190EC64F003015A
:10448000D65190EC50F00301D75190EC50F0020E51
:1044900003011219D8A412000251F00B0809026F8F
:1044A0004EEF5EF0FAEC73F00001AD6FADA90ED0E7
:1044B000996B9A6B9B6B020E9C6F0500FA6E3050E5
:1044C000FD6E3150FE6EFF6AFA501200305031100E
:1044D000D8B41200996B9A6B9B6B030E9C6F05000E
:1044E000FA6E3050FD6E3150FE6EFF6AFA501200C7
:1044F000060EE126000EE222EBEC54F04EC0B6F1BF
:104500004FC0B7F150C0B8F151C0B9F14A0401E051
:10451000C5D04A6ACD38030B05E1FE0EE36AFF0EF3
:10452000E36A0AD0CD38030B4F6E506AFE0E4FC0BF
:10453000E3FFFF0E50C0E3FFCD38030B05E1FC0E97
:10454000E36AFD0EE36A0AD0CD38030B4F6E506A62
:10455000FC0E4FC0E3FFFD0E50C0E3FFCD38030B50
:1045600005E1FA0EE36AFB0EE36A0AD0CD38030BCD
:104570004F6E506AFA0E4FC0E3FFFB0E50C0E3FFD0
:10458000FE0EE3CF59F052685368546A556A592AAF
:1045900005D0D8905236533654365536592EF9D761
:1045A0000101BA515214566EBB515314576EBC518F
:1045B0005414586EBD515514596EFC0EE3CF55F08E
:1045C0004E684F68506A516A552A05D0D8904E36C9
:1045D0004F3650365136552EF9D734504E14526E50
:1045E00035504F14536E36505014546E375051148A
:1045F000556E4E6A4F6A010E506E516AFA0EE350C4
:10460000E82A05D0D8904E364F3650365136E82E2F
:10461000F9D752504E5E53504F5A5450505A55503D
:10462000515A56504E5C526E57504F58536E585018
:104630005058546E59505158556EB6515224566EBA
:10464000B7515320576EB8515420586EB951552068
:10465000596EBE51562402019E6F0101BF51572071
:1046600002019F6F0101C05158200201A06F01019A
:10467000C15159200201A16FB6C1BAF1B7C1BBF156
:10468000B8C1BCF1B9C1BDF10101BE6BBF6BC06B5C
:10469000C16B346A356A366A376A4CD034C056F01A
:1046A00035C057F036C058F037C059F0561E571E67
:1046B000581E591E562A000E57225822592201010F
:1046C000BA51565C526EBB515758536EBC51585834
:1046D000546EBD515958556EB6515224566EB7514D
:1046E0005320576EB8515420586EB9515520596E09
:1046F000BE51562402019E6F0101BF515720020195
:104700009F6F0101C05158200201A06F0101C151EA
:1047100059200201A16F9E510101BA2702019F5148
:104720000101BB230201A0510101BC230201A151DF
:104730000101BD239EC24EF09FC24FF0A0C250F0B7
:10474000A1C251F0FA0EE126FF0EE222FF0C6051E9
:10475000D96EDA6A0D0ED926DF50616F626BFF0EDB
:104760006125F66EF50E6221F76EF86A000EF822EA
:104770000800F5CF63F06051D96EDA6A6351DF1A31
:104780006051D96EDA6A0E0ED926DF50616F626B06
:10479000FF0E6125F66EF50E6221F76EF86A000EC7
:1047A000F8220800F5CF63F06051D96EDA6AD92A91
:1047B0006351DF1A6051D96EDA6A0F0ED926DF50C5
:1047C000616F626BFF0E6125F66EF50E6221F76E6A
:1047D000F86A000EF8220800F5CF63F06051D96E38
:1047E000DA6A020ED9266351DF1A6051D96EDA6A8D
:1047F0000C0ED926DF50616F626BFF0E6125F66EDD
:10480000F50E6221F76EF86A000EF8220800F5CF67
:1048100063F06051D96EDA6A030ED9266351DF1A4C
:104820006051D96EDA6A4350DF1A7F0E43640CD0B0
:104830001B0E43C061F0626BD8906137623761191B
:10484000646F6251656F05D0D8904334646F656BB7
:10485000653764C043F06051D96EDA6ADF50616F2A
:104860006051D96EDA6A040ED9266151DF1A60519F
:10487000D96EDA6AD92ADF50616F6051D96EDA6A6F
:10488000050ED9266151DF1A6051D96EDA6A020E1F
:10489000D926DF50616F6051D96EDA6A060ED926CB
:1048A0006151DF1A6051D96EDA6A030ED926DF50E2
:1048B000616F6051D96EDA6A070ED9266151DF1A2D
:1048C0006051D96EDA6A040ED926DF50616F6051EB
:1048D000D96EDA6A080ED9266151DF1A6051D96E95
:1048E000DA6A050ED926DF50616F6051D96EDA6A37
:1048F000090ED9266151DF1A6051D96EDA6A060EA7
:10490000D926DF50616F6051D96EDA6A0A0ED92656
:104910006151DF1A6051D96EDA6A070ED926DF506D
:10492000616F6051D96EDA6A0B0ED9266151DF1AB8
:104930006051D96EDA6A080ED926DF50616F605176
:10494000D96EDA6A0C0ED9266151DF1A6051D96E20
:10495000DA6A090ED926DF50616F6051D96EDA6AC2
:104960000D0ED9266151DF1A6051D96EDA6A0A0E2E
:10497000D926DF50616F6051D96EDA6A0E0ED926E2
:104980006151DF1A6051D96EDA6A0B0ED926DF50F9
:10499000616F6051D96EDA6A0F0ED9266151DF1A44
:1049A00012008F6B8AC090F08BC091F0E8D00301A9
:1049B0009851020D9B0EF324D96E030EF420DA6E8B
:1049C000DF909851020D9B0EF324D96E030EF42054
:1049D000DA6EDF929851020D9B0EF324D96E030E0E
:1049E000F420DA6EDF949851020D9B0EF324D96EF9
:1049F000030EF420DA6EDF969851020D9B0EF3241D
:104A0000D96E030EF420DA6EDF989851020D9B0EDA
:104A1000F324D96E030EF420DA6EDF9A9851020D5A
:104A20009B0EF324D96E030EF420DA6EDF9C9851AE
:104A3000020D9B0EF324D96E030EF420DA6EDF9E76
:104A400090C0D9FF91C0DAFF9851020D9A0EF3245D
:104A5000E96E030EF420EA6EDFCFEFFF66D090C060
:104A600060F091C061F07AEC6EF060C090F061C0CF
:104A700091F003019851020D9A0EF324D96E030EA2
:104A8000F420DA6EDF6868D090C06CF091C06DF0F1
:104A90008C518A256E6F000E8B216F6F0CEC0EF01F
:104AA0006CC090F06DC091F057D090C060F091C094
:104AB00061F0D1EC72F060C090F061C091F04CD028
:104AC00090C075F091C076F062EC33F075C090F054
:104AD00076C091F041D090C060F091C061F041EC9F
:104AE00077F060C090F061C091F036D090C082F055
:104AF00091C083F0B9EC32F082C090F083C091F0A5
:104B00002BD090C067F091C068F086EC71F067C060
:104B100090F068C091F020D0010E8F6F8C518A25E3
:104B2000906F000E8B21916FA4D790C0D9FF91C0D8
:104B3000DAFF0001904B912BDF50020A90E0010A4E
:104B4000A3E0070AB2E0010ABBE0030AC4E0010ADD
:104B5000CDE00F0AD6E0E0D703019851020D9A0E7E
:104B6000F324D96E030EF420DA6EDE2804E0100E72
:104B7000986101D0982B100E981901E1986B0001F3
:104B80008C518A258D6F000E8B218E6F8D51905D1B
:104B90008E51915903E28F5101E109D790C08AF0FB
:104BA00091C08BF012000201C5A506D0800E000155
:104BB000896F030E886F030CC5C28AF0030E0001D3
:104BC0008A1705E0800E896F040E886F040C8A86B0
:104BD0008851891107E1000E7A6F040E796F90EC0D
:104BE00010F006D088C079F089C07AF090EC10F00F
:104BF0000201BA0511E1010E0001626F220EDDEC27
:104C000073F00001626B400EDDEC73F00001626B2B
:104C1000410EDDEC73F014D0D8C262F0120EDDEC60
:104C200073F0D9C262F0130EDDEC73F00001626B19
:104C3000400EDDEC73F00001626B410EDDEC73F0B1
:104C40000201C583E70EC51700018851891108E1EB
:104C5000BAC265F0000E666F050E44EC42F041D01A
:104C60000201BA0509E1010E0001656F000E666FD1
:104C7000060E44EC42F035D0000E0001656F666F01
:104C8000050E44EC42F0000188518A6F89518B6F08
:104C90008C6B8D6B0C0ED8908A378B378C378D3799
:104CA000E82EF9D78AC060F08BC061F08CC062F04A
:104CB0008DC063F07D0E646F656B666B676BC9ECCE
:104CC0005AF060C06DF061C06EF062C06FF063C0FA
:104CD00070F00201CA5190EC64F00201CA5190ECEC
:104CE00050F00201CC51CD11CE11CF1159E0CF516E
:104CF00006E1CC29FF0ECD590F0ECE5919E3CCC2D7
:104D000060F0CDC261F0CEC262F0CFC263F07D0E22
:104D10000001646F656B666B676BC9EC5AF00C0E33
:104D2000D8906037613762376337E82EF9D720D0E3
:104D3000CCC28AF0CDC28BF0CEC28CF0CFC28DF047
:104D40000C0ED89000018A378B378C378D37E82EC0
:104D5000F8D78AC060F08BC061F08CC062F08DC063
:104D600063F07D0E646F656B666B676BC9EC5AF020
:104D700060C08EF061C08FF062C090F063C091F0AF
:104D80008EC06DF08FC06EF090C06FF091C070F06B
:104D90000201CB5190EC64F00201CB5190EC50F049
:104DA0000001886B896B12000201C5A506D0800E38
:104DB0000001896F030E886F030CC5C28BF0030ED0
:104DC00000018B1705E0800E896F040E886F040CBC
:104DD0000201BA5109E1400E00018A6505D0800E3A
:104DE000896F020E886F020C8A860201C951AEECEF
:104DF0006FF0000E00017A6F040E796F90EC10F0E6
:104E00000201BA0523E18AC062F0220EDDEC73F0E4
:104E10000A0E21EC72F0976FF00E9717978797C0E4
:104E200062F00A0EDDEC73F0400E0001626FDDEC03
:104E300073F00001626B410EDDEC73F0BAC265F0F5
:104E4000010E0001666F44EC42F00AD00001626B73
:104E5000400EDDEC73F00001626B410EDDEC73F08F
:104E60000201BA5105E18AC062F0000EDDEC73F078
:104E700021EC78F0800E6EEC77F00001986B0BD08F
:104E800098518825D96E000E8921DA6EDF506EECBC
:104E900077F00001982B8A51985DF2E31FEC78F0CF
:104EA0000201C581E70EC517BAC265F0000E000108
:104EB000666F030E44EC42F000016D6B6E6B0A0EE0
:104EC0006F6F706B0201C95190EC64F00201C9511F
:104ED00090EC50F00201CC51CD11CE11CF1159E020
:104EE000CF5106E1CC29FF0ECD590F0ECE5919E353
:104EF000CCC260F0CDC261F0CEC262F0CFC263F02E
:104F00007D0E0001646F656B666B676BC9EC5AF0D0
:104F10000C0ED8906037613762376337E82EF9D7C7
:104F200020D0CCC28BF0CDC28CF0CEC28DF0CFC2DF
:104F30008EF00C0ED89000018B378C378D378E3762
:104F4000E82EF8D78BC060F08CC061F08DC062F0A5
:104F50008EC063F07D0E646F656B666B676BC9EC2A
:104F60005AF060C093F061C094F062C095F063C0E5
:104F700096F093C06DF094C06EF095C06FF096C03F
:104F800070F00201CB5190EC64F00201CB5190EC37
:104F900050F00001886B896B12009E96C6AEDAD085
:104FA000C69E426A010120EE03F0C651D926C751C0
:104FB000DA22DECF04F0DDCF05F004C0D9FF05C052
:104FC000DAFF010EDF6EC66BC76B12002DB2120046
:104FD0002BC0C6F12CC0C7F12BC0D9FF2CC0DAFF03
:104FE000DF50416E20EE01F02B50D9262C50DA22F2
:104FF000DECFC8F1DDCFC9F1050E2B26000E2C2225
:10500000D10E2B1807E1010E2C1804E1CC0E2B6EEB
:10501000010E2C6E2D9029502B1804E12A502C18CB
:1050200001E12D82C580020E426E020CC5AC04D097
:1050300014D0040EE9EF6BF0D8904C30056E4B3075
:10504000046E0450C96E4BA003D00B0E426E0B0CC5
:10505000030E426E030CC5AC02D02F2AEAD7C582DC
:105060004C50060B046E056AF00E04104B6E055092
:105070004C6E4B80010E3F6ED6D73F041BE0C8C17B
:10508000D9FFC9C1DAFFDECF4BF0DDCF4CF0010113
:1050900020EE03F0C851D926C951DA22DECFC4F17F
:1050A000DDCFC5F120EE02F0C851D926C951DA2270
:1050B000DF50406E4BC0C9FF4BA0CAD7050E426EF1
:1050C000050CC5AC05D02F2AC59C050EE9EF6BF089
:1050D000400640280AE1050E0101C827000EC92339
:1050E000412E01D030D0C5829ED7C4C1D9FFC5C1E1
:1050F000DAFFDF50C96E0101C44BC52B1200C5ACED
:1051000006D02F2A040EE9EC6BF0C59C1200C58670
:10511000080E426E080C080E426EC586080CC4C10B
:10512000D9FFC5C1DAFFC9CFDFFF0101C44BC52BD1
:10513000400604E0C59A060E426E03D0C58A58ECBC
:1051400075F0C5881200000EE9EF6BF02F2A060EED
:10515000E9EF6BF0425001E139D7010AC4E0030ADC
:105160008CE0010AAEE0070AEEE0010AC8E0030A9B
:10517000D2E0010AE8E00F0AD2E0020A01E156D7C4
:10518000010A01E168D7E2D7765106E17329FF0EE3
:1051900074590F0E755905E3735174117511761119
:1051A0002BE173C077F074C078F075C079F076C0E9
:1051B0007AF00C0ED8907737783779377A37E82E2F
:1051C000F9D777C060F078C061F079C062F07AC03A
:1051D00063F07D0E646F656B666B676BC9EC5AF0AC
:1051E00060C06DF061C06EF062C06FF063C070F0BF
:1051F0005E5090EC64F0A9D07F6B806B866B816B06
:1052000073C07BF074C07CF075C07DF076C07EF01A
:1052100017D0D890763375337433733386C077F0F4
:10522000010E786F796B772B03D0D8907837793768
:10523000772FFBD7000178517F1379518013862B8C
:105240007651E7E1100E755DE4E273C077F074C04B
:1052500078F075C079F076C07AF00C0ED890773778
:10526000783779377A37E82EF9D777C060F078C089
:1052700061F079C062F07AC063F07D0E646F656B97
:10528000666B676BC9EC5AF060C082F061C083F056
:1052900062C084F063C085F0060E866515D0865125
:1052A000200882C077F083C078F084C079F085C090
:1052B0007AF0E82A05D0D8907A3379337833773387
:1052C000E82EF9D77751816F81C060F05E504EECC7
:1052D00074F0862905D0D890823783378437853794
:1052E000E82EF9D700017F517B15776F80517C152F
:1052F000786F796B7A6B0C0ED8907737783779376F
:105300007A37E82EF9D777C060F078C061F079C0BD
:1053100062F07AC063F07D0E646F656B666B676BDD
:10532000C9EC5AF060518227615183236251842372
:105330006351852382C06DF083C06EF084C06FF02E
:1053400085C070F05E5090EC64F0020E37EF76F09E
:10535000EBC0D9FFECC0DAFFDECFEFF0DDCFF0F02D
:10536000000120EE02F0EB51D926EC51DA22DECF1B
:10537000F2F0DDCFF3F0010EF16FF569EFC09CF0B4
:10538000F0C09DF085EC43F0F46FF2C085F0F3C0FF
:1053900086F0010E876F886F896B8A6B8B6B1DECB3
:1053A00059F0000908E0F2C066F0F3C067F03FEC86
:1053B00048F06651F56FF4AFF5BF92D0F16B6CD049
:1053C000F55102E189908CD089808AD0F55102E1B3
:1053D000899286D0898284D0F55102E1899480D067
:1053E00089847ED0F55102E189967AD0898678D079
:1053F000F55102E1899874D0898872D0F55102E1A3
:10540000899A6ED0898A6CD0F55102E18D9068D06E
:105410008D8066D0F55102E18D9262D08D8260D090
:10542000F55102E18C945CD08C845AD0F55102E1A4
:105430008D9456D08D8454D0F55102E18B9A50D082
:105440008B8A4ED0F55102E18C9A4AD08C8A48D092
:10545000F55102E18C9E44D08C8E42D0F55102E190
:105460008C9C3ED08C8C3CD0F55102E1899E38D08A
:10547000898E36D0F55102E1899C32D0898C30D0AA
:10548000F55102E18A9E2CD08A8E2AD0F55102E194
:105490008A9C26D08A8C24D0F45192E0010A96E0AE
:1054A000030A9AE0010A9EE0070AA2E0010AA6E0C8
:1054B000030AAAE0010AAEE00F0AB2E0010AB6E070
:1054C000030ABAE0010ABEE0070AC2E0010AC6E028
:1054D000030ACAE0010ACEE01F0AD2E0010AD6E0C0
:1054E000F151020DDB0EF324D96E010EF420DA6EB9
:1054F000DECFEDF0DDCFEEF020EE06F0EB51D92659
:10550000EC51DA22EDC0DEFFEEC0DEFFDD6A1200F4
:105510007BC0A2F27CC0A3F27DC0A4F27EC0A5F243
:10552000A80E0201A66F610EA76FA86BA96B500EA3
:10553000AA6FC30EAB6FAC6BAD6B010EBA6F070EEB
:10554000BC6F020EBD6F010EC36FC46BAF6B080E54
:10555000AE6F0C0EBB6F010EBE6FBF6BC26BC10E88
:10556000B16F940EB26FC10EB36F030EB96F340EEC
:10557000B06FC56BC66B79C0C7F27AC0C8F2C06B9A
:10558000C16B800ED46FD669D56F980ECC6F3A0E72
:10559000CD6FCE6BCF6B020ED76F0B0ED86F120E86
:1055A000D96FD16BD26BD05123E119EC5CF00201C1
:1055B000C96F19EC5CF00201CA6F19EC5CF00201D2
:1055C000CB6F460E0001606FDA0E616F626B0201F5
:1055D000CA5161EC6EF0DA0E606FD10E616F626BD2
:1055E0000201CB5161EC6EF0010E0201D06F0BD0C5
:1055F000C951AEEC6FF00201CA51AEEC6FF002017E
:10560000CB51AEEC6FF02EEC6EF0000E0001656F2A
:10561000010E666F44EC42F0A2C26DF0A3C26EF0C0
:10562000A4C26FF0A5C270F0FDEC40F0420E000184
:10563000626F3B0EDDEC73F03B0E21EC72F07F6F7E
:105640007FBBFAD7230E626F0C0EDDEC73F01E0EDB
:105650000001626F0D0EDDEC73F0AA0E0001626FA7
:105660001F0EDDEC73F08F0E0001626F350EDDEC66
:1056700073F000016269320EDDEC73F0400E000140
:10568000626F310EDDEC73F0010E0001656F666F25
:10569000000E44EC42F093866186F19E0001806B1F
:1056A00005D081A602D0939603D0802B80AFF9D786
:1056B0006196F18E6269230EDDEC73F0420E21ECEF
:1056C00072F00201D36F12000001936F0301E751E2
:1056D0005FEC77F0D1C391F00001930522E193C014
:1056E0007EF0940E7F6F806B0301DF516BEC41F015
:1056F000926F110E0301D125F66EF76AF70EF722AD
:10570000F86A000EF8220800F55055EC77F0030116
:10571000E151D15D0A0F176F0D0E176549D0176F54
:1057200047D0030100BD16D0D16B93C07EF0940E1C
:1057300000017F6F806B400E6BEC41F0926F0A0EA0
:1057400055EC77F00301E1510A08176F070E69EC79
:1057500077F01AD0040ED16F93C07EF0940E000142
:105760007F6F806B080E6BEC41F0926F080E55EC6A
:1057700077F00301E1510E08176F0D0E176501D088
:10578000176F090E69EC77F0030100BD04D000012A
:105790008C6B8C2B02D000018C6B8C3B8C478C4724
:1057A0000301005100018C19BF0B8C190301006F1C
:1057B00091C0D1F30001925160E1400E94611DD07F
:1057C000945100EC67F075C08DF076C08EF077C014
:1057D0008FF078C090F0070E69EC77F0490E030166
:1057E000D325F66EF76AF70EF722F86A000EF82254
:1057F0000800F55046EC77F02ED09451B9EC5DF0EE
:1058000075C08DF076C08EF077C08FF078C090F0C4
:10581000090E69EC77F0490E0301D325F66EF76A9D
:10582000F70EF722F86A000EF8220800F550800AF9
:10583000650F0EE2490ED325F66EF76AF70EF722D2
:10584000F86A000EF8220800F55046EC77F003D015
:105850001A0E46EC77F08DC060F08EC061F08FC0FC
:1058600062F090C063F0A5EC54F0010E50EC77F0BC
:10587000000E4BEC77F094C0CCF300019251120073
:10588000EBC0D9FFECC0DAFFDECFEFF0DDCFF0F0F8
:10589000010E0001F16FF369EFC09CF0F0C09DF0C4
:1058A00085EC43F0F26FF2BF80D05AD0000E80B08A
:1058B000010EF36F79D0000E80B2010EF36F74D039
:1058C000000E80B4010EF36F6FD0000E80B6010E93
:1058D000F36F6AD0000E80B8010EF36F65D0000E32
:1058E00080BA010EF36F60D0000E84B0010EF36F2A
:1058F0005BD0000E84B2010EF36F56D0000E83B45D
:10590000010EF36F51D0000E84B4010EF36F4CD032
:10591000000E82BA010EF36F47D0000E83BA010E5B
:10592000F36F42D0000E83BE010EF36F3DD0000E28
:1059300083BC010EF36F38D0000E80BE010EF36FF2
:1059400033D0000E80BC010EF36F2ED0000E81BE4E
:10595000010EF36F29D0000E81BC010EF36F24D02D
:10596000F251A4E0010AA7E0030AAAE0010AADE0AF
:10597000070AB0E0010AB3E0030AB6E0010AB9E0A1
:105980000F0ABCE0010ABFE0030AC2E0010AC5E059
:10599000070AC8E0010ACBE0030ACEE0010AD1E021
:1059A0001F0AD4E0010AD7E0F16BF15118E0F15180
:1059B000020DDB0EF324D96E010EF420DA6EDECF79
:1059C000EDF0DDCFEEF020EE06F0EB51D926EC51F4
:1059D000DA22EDC0DEFFEEC0DEFFDD6A1200F80E57
:1059E0007C6F070E7D6FF3517E6F7F6B7EBF7F07ED
:1059F000816B0A0E806F41EC50F0F80EED6F070ED0
:105A0000EE6F20EE06F0EB51D926EC51DA22EDC014
:105A1000DEFFEEC0DEFF200EDF6E200C75C0D9FF6A
:105A200076C0DAFFDF50846F754B762B845159ECCA
:105A300072F0F4E2806B816B826B836B7F6B2D0E57
:105A400084190BE1010E7F6F75C0D9FF76C0DAFFB4
:105A5000DF50846F754B762B03D02B0E8419F4E046
:105A6000300E841927E175C0D9FF76C0DAFFDF5008
:105A7000846F754B762B79517A1104E0100E7919E9
:105A80007A1112E1780E841903E0580E84190CE1A2
:105A90007A6B100E796F75C0D9FF76C0DAFFDF50D0
:105AA000846F754B762B06D079517A1103E17A6BAE
:105AB000080E796F79517A1103E17A6B0A0E796FCA
:105AC0008451E8EC71F006E384516FEC75F0C90F76
:105AD000846F06D08451BFEC73F036E3300E845FE0
:105AE00084517B6F7C6B79517B5D7C51800A7D6F2B
:105AF0007A51800A7D5928E279C069F07AC06AF04B
:105B0000000E6ABFFF0E6B6F6C6F80C06DF081C0BE
:105B10006EF082C06FF083C070F0FBEC65F08451D2
:105B20006925806F000E6A21816F000E6B21826FE4
:105B3000000E6C21836F75C0D9FF76C0DAFFDF508D
:105B4000846F754B762BBCD7775178110EE0FF0E22
:105B500075257B6FFF0E76217C6F77C0D9FF78C0EB
:105B6000DAFF7BC0DEFF7CC0DDFF7F511AE080C022
:105B70007BF081C07CF082C07DF083C07EF07B1F13
