:10030000DFEF01F0FFFFFFFFFACF2AF0FBCF2BF06A
:10031000E1CF2CF0E2CF2DF0D9CF2EF0DACF2FF0B5
:10032000F3CF30F0F4CF31F01DEEBEF0F2BC9DA063
:1003300005D09EA003D0B3EC6CF030D0F2BC9DAAE7
:1003400005D09EAA03D004EC52F028D0F2BC9DA8A0
:1003500005D09EA803D0F0EC65F020D0F0B6F0A058
:1003600003D004EC6EF01AD0F0B8F0A203D001EC88
:100370006EF014D0F2B6F2A003D09DEC6CF00ED06B
:10038000F2BC9DA605D09EA603D080EC22F006D03C
:10039000F2BCA0A603D0A1B633EC6EF031C0F4FFDE
:1003A00030C0F3FF2FC0DAFF2EC0D9FF2DC0E2FF0F
:1003B0002CC0E1FF2BC0FBFF2AC0FAFF11001DEE8D
:1003C00000F052EF31F0FBEC6DF02BEEF9F0DFB006
:1003D000C4D394EC06F001017C6F7C39E832070B42
:1003E000E80601E0B3D02CEE13F0DF5001E0AED010
:1003F0000001F1050101826F1DD00001F151EF25CF
:100400000101666F000E0001F0210101676F82514A
:10041000665D00018C6F01016751D8A0670500017E
:1004200065EC53F037EC68F0100E826502D0825F05
:1004300001D0826B8251E1E1380E0001D76F0C0EC2
:10044000D86FEFC0D9F0F0C0DAF0F151FC0FDB6FDC
:10045000CFEC56F0D7C085F1D8C086F1D9C087F16E
:10046000DAC088F16DEC06F04EEC5FF0C3DB85512D
:100470007D1909E186517E1906E187517F1903E153
:10048000885180191DE0AADB050A07E0A7DB030AF3
:100490000CE12CEEFBF0DF5008E02BEEF8F0DFB8BB
:1004A00003D094EC65F001D094DB08CCE8FF020A9D
:1004B000D8A41200F5EC15F00909DF6ED4EF52F064
:1004C0008DDB030A04E137EC09F07CEC6CF0EFC043
:1004D00089F1F0C08AF1010120EE07F0A2EC06F0EC
:1004E000DECF14FCDECF15FCDECF16FCDDCF17FC13
:1004F00020EE0CF0A2EC06F0DF500F0BA7EC5BF047
:100500009AEC06F0DF38070B0001606F9AEC06F0FA
:10051000DF500F0BC7EC68F089C19EF08AC19FF0D5
:10052000F151FFEC28F089C1A0F08AC1A1F039ECAB
:1005300053F0E66A73EC37F0000E5CEC22F04AEC04
:1005400022F008CCE8FF020AB5E012007C39E8325C
:10055000070B030A07E07C39E832070B050A02E0C3
:1005600078EF49F0000EE8CFA1FCEFC090F1F0C0A9
:1005700091F108CCE8FF020A01E012D12CEE58F00C
:1005800000EE01F093DBEE1809E1DE50EE1806E113
:10059000DE50EE1803E1DE50EE18D8A401D12BEEA8
:1005A000FAF0DFA4FDD090C160F091C161F075EC6C
:1005B00055F0000901E17ED70101FFDADFEC06F01A
:1005C0002CEE04F0EDDB05E306CC8EF107CC8FF1C9
:1005D00004D02CEE06F088DBD8DB2FDB010E716F28
:1005E0001CEC3FF04FDBFFDA100E646F7AEC56F034
:1005F00015DB7AEC56F05C0EC86F0C0EC96FCD0E91
:100600002BDB3FEC13F042DBEEDA040E646F7AEC86
:1006100056F063DB4EEC5FF0EDDA7D5185190BE1AE
:100620007E51861908E17F51871905E180518819AB
:1006300001E040D701D03ED72CEE04F000EE06F0EA
:1006400035DBEE5CDE50EE581CE32CEE04F04CDBA8
:10065000B4DA61DB2CEE98F0ADDB0DE2BB51BC11DE
:1006600001E128D7FAEC15F0050EC56F01D822D7A5
:100670000500FA6E8DD0A1DADECF04FCDDCF05FCDB
:100680002DD02CEE98F000EE06F09051E926915115
:10069000EA22EECF68F1EDCF69F10CEE04F0EECF77
:1006A0006AF1EDCF6BF16A1D6C6F6B1D6D6F685158
:1006B0006C2769516D23DE506C5DDE506D590AE286
:1006C000000EE8CF04FCE8CF05FC2CEE06F0DE2A95
:1006D000DD2204D0BB51BC11C5E1ECD62CEE04F0F8
:1006E000DE2807E1DE2805E1DE2803E1DE2801E15E
:1006F000F1D774DA080A08E17CEC1FF07CEC6CF0AE
:100700002EDB7CEC6CF006D069DA030A03E127DB10
:100710007CEC6CF034DB58DA47DAF4DA03E1675149
:10072000691920E001DB796F0001EF4BF02BF151EB
:10073000F40F01018B6F190E816F66DA04CCA4F0FF
:1007400005CCA5F006CCA6F007CCA7F06C0EA86FE0
:100750000C0E90DA010EAD6FACEC2CF0FF0EEF2515
:10076000F6DA01D031DB2BEEF9F0DF8232DABB5161
:10077000BC1101E19FD683C1C2F084C1C3F08BC11B
:10078000C4F0010E0001C56F01D894D60500FA6EC1
:100790000101BB51FD6EBC51FE6EFF6AFA501200A2
:1007A0002CEE14F000EE01F081DAEE1809E1DE50D3
:1007B000EE1806E1DE50EE1803E1DE50EE1802E01E
:1007C00078EF49F0FAD9FBDA2CEE00F0E9DA05E32C
:1007D00002CC8EF103CC8FF104D02CEE02F084DA3F
:1007E000D4DA2BDA716B010E1CEC3FF04BDAFBD93B
:1007F000100E646F7AEC56F011DA7AEC56F00FECCA
:1008000013F02ADA3FEC13F041DAEDD9040E646FED
:100810007AEC56F062DA4EEC5FF0ECD97D51851936
:100820000CE17E51861909E17F51871906E180515B
:10083000881902E078EF49F002D078EF49F02CEE09
:1008400000F000EE06F032DAEE5CDE50EE5826E301
:100850002CEE00F049DAB1D95EDA2CEE96F0AADA85
:100860001AE2ADEC49F0B5D9BB51BC1111E0A9ECCD
:1008700049F0FAEC15F0C56B01D80AD00500FA6E04
:100880000101BB51FD6EBC51FE6EFF6AFA501200B1
:10089000B5EC49F052D091D97EDA41D02CEE96F0E9
:1008A00023DA6651686F6751696F6A6B6B6B2CEE68
:1008B00000F0DECF6CF1DDCF6DF17FD9DECF6EF1D0
:1008C000DDCF6FF16C516E5D706F6D516F59716F4F
:1008D000726BD8A072077251736FFF0E7025746F20
:1008E000FF0E7121756F000E7221766F000E73215D
:1008F000776F6851745D695175596A5176597751AE
:10090000800A786F6B51800A785902E378EF49F0DA
:1009100054D941DA2CEE02F0DE2A000EDD22D96B2A
:10092000D86BDF6BD66B2CEE00F0DE280AE1DE28F8
:1009300008E1DE2806E1DE2804E12BEEFAF0DF8292
:1009400000D64CD9030A03E10ADA7CEC6CF0010E04
:10095000E8CFE2FC90C160F091C161F0ACEC59F0DD
:10096000010122D91FE020D99025666F000E912148
:10097000676F080E6625D96E000E6721DA6EDF50AC
:1009800012E0080E90250001A76F000E01019121D1
:100990000001A86F010108D90001A96F08EC1BF044
:1009A00004DA01D0ECD900010FD9FED8ABD903E1AC
:1009B0006751691947E0B8D9796F0001EF4BF02B07
:1009C0000101F2D8666F66510001F15DF40F01017B
:1009D0008B6FEAD8190F816F79510CE015D989D93D
:1009E0002EEC13F047D9AD6BACEC2CF0FF0EEF25DD
:1009F000AED929D00001E8D8D7D8686F696B0D0E41
:100A00006827000E69236651685D6951800A6A6F24
:100A10006751800A6A5915E2F7D86BD92AEC13F0AE
:100A200029D9AD6BACEC2CF00101BED80AE1EFC0C6
:100A3000A7F0F0C0A8F08B050001A96F08EC1BF02F
:100A4000B4D90101C1D971EC6BF036D9E8CFF8FC0B
:100A50002BEEF6F0DF982BEEF9F0DF822BEEF6F0BE
:100A6000DFA043D020EE05F09051D9269151DA2233
:100A7000DFAA38D02BEEF6F0DF90010E7B6FA9D8FD
:100A8000BB51BC110CE006D901D809D00500FA6EA3
:100A9000BB51FD6EBC51FE6EFF6AFA5012002BEE88
:100AA000F9F0DF922BEEF8F0DFAA4BD02BEEF6F048
:100AB000DFBA47D02BEEF6F0DFB204D02BEEF6F023
:100AC000DFA63FD0FFD8CCEC40F0000908E1000ED3
:100AD00051D9ADEC38F02BEEF6F0DF9632D0E9ECE0
:100AE0002FF02FD0CDEC53F02CD0010E7B6F71D8AE
:100AF000BB51BC110CE0CED801D809D00500FA6E6C
:100B0000BB51FD6EBC51FE6EFF6AFA5012002BEE17
:100B1000F8F0DFAA16D02BEEF6F0DFBA12D02BEEEB
:100B2000F6F0DFB204D02BEEF6F0DFA60AD0CAD87A
:100B3000CCEC40F00009D3E1000E1CD9ADEC38F04C
:100B4000CAD708CCE8FF020AD8A41200F8EC6DF06E
:100B50000101666F66B11200ADD40101BB51BC1139
:100B6000D8B41200F8EC6DF00101666F66B70ED0D4
:100B7000FAD8030E0001C56F0500FA6E0101BB51E2
:100B8000FD6EBC51FE6EFF6AFA501200ECD8020EE8
:100B90000001C56F0500FA6E0101BB51FD6EBC512D
:100BA000FE6EFF6AFA50120020EE05F09051D92631
:100BB0009151DA22DF500F0B120020EE06F0905117
:100BC000D9269151DA221200F1510101666F676B4B
:100BD00012002BEEF8F0F00EDF16F00C2BEEF8F012
:100BE000DF500F0B1200616FCD0E626F020E636F4C
:100BF000656B12006BC07DF16CC07EF16DC07FF142
:100C00006EC080F101011200EFC0A0F0F0C0A1F0B1
:100C10008B050001A26F010EA36F010CE80E606F3F
:100C2000090E616FEFC062F0F0C063F0FC0EF125B9
:100C3000646F656BFF0E6523FF0C8CC16BF08DC17B
:100C40006CF08EC16DF08FC16EF00001F151FC0FA0
:100C50006F6F490E706F490CCA6F020ECB6FD80EC2
:100C6000CC6F090ECD6F0C0EF125CE6FCF6B000E41
:100C7000CF23000CA96F81C1AAF0D80EAB6F090E6B
:100C8000AC6F1200D80E606F090E1200850E606FF7
:100C9000010E12002BEEF6F0DF9A83C1C2F084C180
:100CA000C3F08BC1C4F07BC1C5F012009051E9269E
:100CB0009151EA22DE501200000EE8CFDAFCE8CFB4
:100CC000DBFC000C010E0001A76F7A0EA86F010E6D
:100CD000A96F2CEEF7F0DF501200EFC06BF0F0C000
:100CE0006CF0F1C06DF01200DECF66F1DDCF67F180
:100CF000120000CCA4F001CCA5F002CCA6F003CCED
:100D0000A7F01200686F696B0C0E6827000E69234C
:100D1000665168191200DECF68F1DDCF69F16651C6
:100D2000685F6751695B1200EFC0D9FFF0C0DAFF5E
:100D3000DF501200010120EE0BF08951D9268A51B3
:100D4000DA2212008951D9268A51DA2212000101D1
:100D5000836FFF0E0001F0210101846F12002CEE61
:100D6000EFF0DF501200EFC0C2F0F0C0C3F0F1C0EE
:100D7000C4F01200E56FE66FE76FE86F1200080E2F
:100D80000001EF27000EF023000C66298E6F000E85
:100D900067218F6F1200DECF00FCDDCF01FC120057
:100DA000DE508C5DDE508D591200A7C0EFF0A8C058
:100DB000F0F012006851DE5C6951DE581200DECF9F
:100DC0008CF1DDCF8DF112008B6B836B846B120085
:100DD0002BEEF9F0DFB0D5D10001E76BE86BE96BE2
:100DE000EA6BEB6BF469F569F669F769000EE8CF19
:100DF000FBFCF5EC15F00209DF6E2BEEF6F0DFA43C
:100E000077D02CEE92F01CDA2CEE0DF0E2D913EC38
:100E10004DF01BDA80EC1FF0EEEC61F02CEE94F05C
:100E20000FDA2CEE12F0D5D913EC4DF00EDA1FDAF2
:100E3000EEEC61F080EC1FF0CFEC51F018DACFEC63
:100E400051F028EEC2F0DE50DE102FE02CEEE5F07F
:100E5000F7D915DA946B956B640E00DACDEC5BF084
:100E6000FF0E9225F06FFF0E9321F16FFF0E94217C
:100E7000F26FFF0E9521F36FF0C092F0F1C093F086
:100E8000F2C094F0F3C095F0D4C096F0D5C097F0BE
:100E9000986B996BCDEC5BF092C0C4F893C0C5F829
:100EA00094C0C6F895C0C7F846D028EEC2F0C8D99D
:100EB000D651D86FD751D96FDA6BDB6BD829926FC7
:100EC000000ED921936F000EDA21946F000EDB2102
:100ED000956F2CEEE5F0DECFDCF0DDCFDDF0DCC091
:100EE00096F0DDC097F0986B996BCDEC5BF0B8D7BE
:100EF0002CEE8EF0A5D92CEE0DF06BD913EC4DF045
:100F0000A4D97CEC1FF0EEEC61F02CEE90F098D9B7
:100F10002CEE12F05ED913EC4DF097D9AFEC06F041
:100F2000EEEC61F07CEC1FF0CFEC51F0AFEC06F092
:100F3000CFEC51F0BAD797D95FEC6BF0000960E0C5
:100F400092D97CEC6CF08FD9B1EC63F089C0ECF0F5
:100F50008AC0EDF08BC0EEF08CC0EFF0EF5107E1EE
:100F60001F0EEC5DAC0EED59DF0EEE591BE3ECC02D
:100F7000D6F0EDC0D7F0EEC0D8F0EFC0D9F00D0E2E
:100F800005D0D890D933D833D733D633E82EF9D714
:100F900076D9D8C094F0D9C095F07D0E5FD9CDEC4C
:100FA0005BF012D0ECC092F0EDC093F0EEC094F084
:100FB000EFC095F07D0E52D9CDEC5BF00D0E02D056
:100FC00059EC1FF0E82EFCD792C0DFF093C0E0F0A0
:100FD00094C0E1F095C0E2F0D2CCD6F0D3CCD7F0FB
:100FE000D4CCD8F0D5CCD9F0DF51D65DE86FE05144
:100FF000D759E96FE151D859EA6FE251D959EB6FEE
:10100000F86BF8516BEC1EF026EC3CF056E1F85111
:101010000FD957EC1EF051E02CEEE4F0F851DE1839
:1010200030E0F85105D9DE50E85DDE50E959DE5078
:10103000EA59DE50EB5921E2F851FAD8DECFD6F06A
:10104000DECFD7F0DECFD8F0DECFD9F0E851D65DD5
:10105000DA6FE951D759DB6FEA51D859DC6FEB51A0
:10106000D959DD6FF851E4D8DAC0DEFFDBC0DEFF0E
:10107000DCC0DEFFDDC0DEFF04D0F851D9D8A9EC1A
:1010800029F0F851D5D8DE50F45DDE50F559DE5028
:10109000F659DE50F75911E3F851CAD857EC1EF053
:1010A0000CE0F851C5D8DECFF4F0DECFF5F0DECF9E
:1010B000F6F0DECFF7F0010EE76FF82B0F0EF865B4
:1010C000A0D7E70554E1F4C0D2FCF5C0D3FCF6C0CC
:1010D000D4FCF7C0D5FCF75106E1F429FF0EF55911
:1010E0000F0EF65912E3F4C060F0F5C061F0F6C0DF
:1010F00062F0F7C063F0EFEC15F013EC4DF00C0E5E
:1011000044EC24F0E82EFCD71CD0F4C0D6F0F5C097
:10111000D7F0F6C0D8F0F7C0D9F00C0ED890D6377B
:10112000D737D837D937E82EF9D7D6C060F0D7C02F
:1011300061F0D8C062F0D9C063F0EFEC15F013ECA9
:101140004DF060C0E3F061C0E4F062C0E5F063C060
:10115000E6F0E3C06DF0E4C06EF0E5C06FF0E6C00D
:1011600070F081D8EEEC61F07ED8CFEC51F0B1ECAC
:1011700049F0D8A41200F5EC15F00809DF6ED4EFA1
:1011800052F0F8EC6DF00001D66FD6A911D073D8EB
:10119000D8B41200FAEC15F0020EC56F0500FA6E15
:1011A0000101BB51FD6EBC51FE6EFF6AFA50120088
:1011B00062D8D8B41200FAEC15F0030EC56F050022
:1011C000FA6E0101BB51FD6EBC51FE6EFF6AFA5012
:1011D0001200DF50D86FD96BAF0ED825F66EF60E21
:1011E000D921F76EF86A000EF8220800F5CFDAF080
:1011F000D651DA25DB6F000EDABFFF0ED721DC6F88
:10120000DD6BDE6B0C0ED890DB37DC37DD37DE377D
:10121000E82EF9D7DBC060F0DCC061F0DDC062F021
:10122000DEC063F07D0E646F656B666B676B7D0C73
:10123000120DC40EF324D96E080EF420DA6E1200DB
:10124000DECFD6F0DDCFD7F0120060C06DF061C008
:101250006EF062C06FF063C070F01200966F976B13
:10126000986B996B12002CEEF3F0DF5012002CEE0D
:10127000EDF0DF5012000101BB51BC111200D6C0CD
:1012800092F0D7C093F01200806B816B796B7A6B10
:10129000010E0001616FB70E606F62692FEC5FF0A5
:1012A000010E0001616FB80E606F62692FEC5FF094
:1012B000ADEC6DF01EDA7927000E7A230001616B28
:1012C000606B7BC162F02FEC5FF00101804B812BE2
:1012D0007C0E0001606F010E616F7B0E626F010E6C
:1012E000636F0AEC67F001017B51F2D92FEC5FF0DC
:1012F0000101804B812B826B030E826501D005D0EA
:10130000B7D92FEC5FF0F9D9F7D790C27CF191C231
:101310007DF17E6B7F6B7D517927E4D97DC162F0D1
:101320002FEC5FF00101804B812B7C517927DAD9BA
:101330007CC162F02FEC5FF00101804B812BB5EC9A
:101340006DF07B6F7B51C4D92FEC5FF00101804BB6
:10135000812B19EC6CF060C07CF161C07DF162C042
:101360007EF163C07FF1826B030E826501D005D0F0
:101370007FD92FEC5FF0C1D9F7D734EC6CF060C0A7
:101380007CF161C07DF162C07EF163C07FF1826B50
:10139000030E826501D005D06BD92FEC5FF0ADD97B
:1013A000F7D7660E00016B6F010E6C6FBDEC6AF033
:1013B0000101826B070E826501D005D071D92FEC37
:1013C0005FF09BD9F7D7660E00016B6F010E6C6F53
:1013D000B2EC69F00101826B070E826501D005D085
:1013E0005FD92FEC5FF089D9F7D7660E00016B6FDC
:1013F000010E6C6F3EEC6BF00101826B0F0E82658B
:1014000001D005D04DD92FEC5FF077D9F7D7660E14
:1014100000016B6F010E6C6F28EC6BF00101826BA9
:101420000F0E826501D005D03BD92FEC5FF065D956
:10143000F7D7660E00016B6F010E6C6F33EC6BF02B
:101440000101826B0F0E826501D005D029D92FECE6
:101450005FF053D9F7D73DEC6CF060C07CF161C010
:101460007DF162C07EF163C07FF1826B030E826505
:1014700001D005D0FDD82FEC5FF03FD9F7D7660E2D
:1014800000016B6F010E6C6F76EC69F00101826BED
:101490000F0E826501D005D003D92FEC5FF02DD956
:1014A000F7D7660E00016B6F010E6C6F67EC69F089
:1014B0000101826B0F0E826501D005D0F1D82FECAF
:1014C0005FF01BD9F7D72BEC6CF060C07CF161C0EA
:1014D0007DF162C07EF163C07FF1826B030E826595
:1014E00001D005D0C5D82FEC5FF007D9F7D739EC7C
:1014F0006DF07B6F7B51ECD82FEC5FF00101804BDE
:10150000812B786B010E786501D01DD07851B0EC3D
:1015100067F0EFD8DDD82FEC5FF00CD9B6EC68F0AF
:10152000E8D8D6D82FEC5FF005D938EC65F0F1D8C3
:10153000030E826501D005D09BD82FEC5FF0DDD87B
:10154000F7D7782BDFD7786B1D0E786501D03AD0AE
:101550007851020F0CEC6AF060C07CF161C07DF143
:1015600062C07EF163C07FF10101826B030E826570
:1015700001D005D07DD82FEC5FF0BFD8F7D77851D8
:10158000020F38EC65F0C5D8030E826501D005D096
:101590006FD82FEC5FF0B1D8F7D77851020FB6ECC7
:1015A00068F0A7D895D82FEC5FF0C4D8020FB0EC44
:1015B00067F09FD88DD82FEC5FF00101804B812B15
:1015C000782BC2D7B1EC6DF07B6F7B5181D82FECBB
:1015D0005FF00101804B812B43EC6DF07B6F7B5101
:1015E00077D82FEC5FF00101804B812B91EC6DF0EF
:1015F0007B6F7B516DD82FEC5FF00101804B812B0D
:101600002FEC6DF060C076F161C077F1826B010E56
:10161000826501D00AD086D8792764D883D80001A2
:10162000626F2FEC5FF069D8F2D7792904E17A294B
:1016300002E1796B7A6B80C160F081C161F079C1A0
:1016400062F02FEC5FF00101804B812B80C160F0D4
:1016500081C161F07AC162F02FEC5FF00101804B33
:10166000812B000120EE06F0EF51D926F0514AD02F
:101670007C0E8225D96EDA6A010EDA22DF507927D4
:10168000000E7A2380C160F081C161F07C0E82255A
:10169000D96EDA6A010EDA22DF500001626F1200A1
:1016A000660E8225D96EDA6A010EDA22DF507927BA
:1016B000000E7A2380C160F081C161F0660E822540
:1016C000D96EDA6A010EDA22DF500001626F120071
:1016D0007927000E7A2380C160F081C161F07BC15F
:1016E00062F0000C000E7A2380C160F081C161F0CD
:1016F000000C01017B6F7B5112000101804B812B9B
:10170000822B1200DA2200C2DEFF01C2DEFFDD6A98
:10171000120063C07CF164C07DF101017E6B7F6BC0
:10172000826B1200760E8225D96EDA6A010EDA22F9
:10173000DF5012000101804B812B785112006AECBE
:1017400021F0DEEC37F022EC25F031EC36F002012E
:10175000B15113EC39F00201AE0501E06DD1A4C224
:1017600062F0390EDFEC69F0B8C2A0F0010E0001A2
:10177000A0170201D890B7350001A16F0201B0395E
:10178000D3D91D0EDFEC69F09FC0A0F0030E00015D
:10179000A017B2C2A1F0010EA117D890A137D8901E
:1017A000A1370201AF39C0D91E0EDFEC69F002018A
:1017B000B451B51142E0B4C2A3F0B5C2A4F0000127
:1017C000A56BA66B24D0A1D97D0E00012EEC09F0EB
:1017D000CDEC5BF011D099D9FA0E00012EEC09F096
:1017E000CDEC5BF009D091D9F40E0001966F010E9B
:1017F00057EC2EF0CDEC5BF092C0A3F093C0A4F0B8
:1018000094C0A5F095C0A6F00BD088D909D00201EC
:10181000B051070AD8E00F0ADEE0010AE4E0F5D78C
:101820000201AF290001A06F05D0D890A633A533DF
:10183000A433A333A02FF9D701D070D9A3C062F08D
:10184000240EDFEC69F09EC062F01F0EDFEC69F041
:10185000260E5DEC68F0A76F0C0E0201AF1906E1D1
:10186000070EB01909E0080EB01906E00B0EAF190B
:1018700006E1070EB01903E10001A78702D00001BD
:10188000A797A785A7C062F0260EDFEC69F0310E9E
:101890005DEC68F0A76FF80EA717030EA71358D9D1
:1018A000DFEC69F00A0E0001626F370EDFEC69F0C1
:1018B000120E0201C71925E1070EB01903E0080E48
:1018C000B01913E1310E5DEC68F0A76FA79F40D906
:1018D000DFEC69F0400E0001626F2F0EDFEC69F063
:1018E0000001626B300EDFEC69F0090E0201B019E5
:1018F00008E1310E5DEC68F0A76FA78F29D9DFEC06
:1019000069F0330E5DEC68F0A76FA79DA781B6C2A2
:10191000A0F0010EA017060EA16FD890A037A12F3E
:10192000FCD7A051A713A7C062F0330EDFEC69F01B
:10193000B6C2A0F0010E0001A017D890A037D89031
:10194000A035FF0A1D0BA76FA7C062F03B0EDFECAE
:1019500069F0F6D8200EDFEC69F0A2C262F0210E29
:10196000DFEC69F0FBD8DFEC69F00001626B0E0E72
:10197000DFEC69F00001626B0F0EDFEC69F0120E14
:101980000201C71956E1090EB0191AE1800E965DE1
:10199000130E9759610E9859330E995911E3960514
:1019A000F70E9759CB0E98593C0E995909E2020E41
:1019B000C4D8DFEC69F0640EBDD8DFEC69F022D04A
:1019C000090EB0191BE1800E965D1A0E9759700E24
:1019D0009859180E995912E3410E965DDD0E9759EC
:1019E0004A0E98591F0E995909E2020EA6D8DFEC4B
:1019F00069F07F0E9FD8DFEC69F004D0030E9DD80C
:101A0000DFEC69F0090E0201B0190BE1B60509E13E
:101A1000650E90D8DFEC69F0190E97D8DFEC69F00D
:101A200008D0650E87D8DFEC69F01D0E8ED8DFEC8C
:101A300069F091D8DFEF69F09AC26DF09BC26EF049
:101A40009CC26FF09DC270F0BEEC54F09EC26DF06F
:101A50009FC26EF0A0C26FF0A1C270F0FEEC53F016
:101A60006FD8250EDFEC69F0A2C262F0260EDFEC23
:101A700069F00A0E5DEC68F0A76F9F0EA7170201D0
:101A8000CA39E846E00B0001A713A7C062F00A0EAE
:101A9000DFEC69F0C80E0001A76F0201B25102E04D
:101AA0000001A789A7C062F0300EDFEC69F00001E9
:101AB000A26B0ED0A50EA225D96EDA6A020EDA222A
:101AC000DF50626FA251280FDFEC69F00001A22BFA
:101AD0000201AD510001A25DEDE30201AD5108E04C
:101AE000AD0510090001626F270EDFEC69F005D02B
:101AF0000001626B270EDFEC69F0000162693E0EA7
:101B0000DFEC69F02ED8DFEF69F0A3C092F0A4C03B
:101B100093F0A5C094F0A6C095F012000001A36B4D
:101B2000A46BA56BA66B1200F00B0001A111A01114
:101B3000626F12000001626F3A0C0001626F360C96
:101B40000201A3510001626F12000001626F3B0CA1
:101B5000A7C062F0310C00016269120C0001626BD7
:101B60000D0C000162693F0C0001CA6BCB6B616B0D
:101B7000606BB0EC6AF00001C56FCA4BCB2BC5C0DF
:101B8000C2F0C36BC5518FEC21F0E5D9B0EC6AF01F
:101B9000C9D9CC6BD0D9B0EC6AF0A1D9CC65FAD751
:101BA000C6C065F0C7C066F0C8C067F0C9C068F0BD
:101BB000C5C069F05CEC5DF0CED9B0EC6AF0B2D98A
:101BC000C5C0BCF0BD6BBC51BD6FBC6BC4D9B0EC23
:101BD0006AF0A8D9C551BC27000EBD23BCC060F077
:101BE000BDC061F066EC6DF0BCC0C0F0BDC0C1F01E
:101BF000B2D9B0EC6AF096D9C5517FEC5DF0000126
:101C0000CC6B99D9B0EC6AF06AD9CC65FAD7C6C06A
:101C100060F0C7C061F0C8C062F0C9C063F061EC99
:101C20006CF0CC6B88D9B0EC6AF059D9CC65FAD796
:101C3000C6C060F0C7C061F0C8C062F0C9C063F040
:101C40006AEC6CF0CC6BCC51AC0F7ED9B0EC6AF086
:101C5000DF6E53D9CC65F7D7C0A105D0AC0E6B6F42
:101C60006C6BACEC64F0CC6BCC51AC0F6DD9B0ECC0
:101C70006AF0DF6E42D9CC65F7D7C0A305D0AC0EB1
:101C80006B6F6C6B49EC67F0CC6BCC51AC0F5CD9D3
:101C9000B0EC6AF0DF6E000169D93CD9CC65F5D7AC
:101CA000C0A505D0AC0E6B6F6C6B34EC67F0CC6BE1
:101CB000CC51AC0F49D9B0EC6AF0DF6E000156D9B7
:101CC00029D9CC65F5D7C0A905D0AC0E6B6F6C6B6C
:101CD00094EC64F0CC6BCC51AC0F36D9B0EC6AF01C
:101CE000DF6E000143D916D9CC65F5D7C0AB05D05E
:101CF000AC0E6B6F6C6B1FEC67F032D91CD9B0EC7B
:101D00006AF0EDD8CC65FAD7C0A70AD0C6C060F09B
:101D1000C7C061F0C8C062F0C9C063F096EC6AF059
:101D2000CC6BCC51AC0F10D9B0EC6AF0DF6E000177
:101D30001DD9F0D8CC65F5D7C0AF05D0AC0E6B6F10
:101D40006C6B2AEC69F0CC6BCC51AC0FFDD8B0ECCD
:101D50006AF0DF6E00010AD9DDD8CC65F5D7C1A1E4
:101D600005D0AC0E6B6F6C6B1AEC69F0F9D8E3D848
:101D7000B0EC6AF0B4D8CC65FAD7C0AD0AD0C6C012
:101D800060F0C7C061F0C8C062F0C9C063F0F9EC90
:101D90006AF0E1D8B0EC6AF0C5D8C5518FEC5EF0BE
:101DA0000001C46B010EC46501D021D0D4D8B0ECC1
:101DB0006AF0B8D8C551010ED8B4000E656FC45191
:101DC00091EC62F0C8D8B0EC6AF0ACD8C5C066F04F
:101DD000C4514AEC64F0C4D8AED8B0EC6AF07FD8F5
:101DE000CC65FAD7C8D85FEC66F0C42BDBD7C46BE0
:101DF0001D0EC46501D034D0B3D89DD8B0EC6AF0C4
:101E00006ED8CC65FAD7C6C065F0C7C066F0C8C04A
:101E100067F0C9C068F0C451020FE7EC5DF0A0D8CC
:101E20008AD8B0EC6AF05BD8CC65FAD7A4D8020F98
:101E30005FEC66F090D8B0EC6AF074D8C5C066F07C
:101E4000C451020F4AEC64F086D8B0EC6AF06AD84C
:101E5000C5C065F0C451020F91EC62F0C42BC8D725
:101E60007AD8B0EC6AF05ED8C551C4EC64F073D88F
:101E7000B0EC6AF057D8C551D0EC69F06CD8B0EC32
:101E80006AF050D8C551F6EC6CF00001BE6BBF6B28
:101E9000CC6BCC51BE0F58D8B0EC6AF0DF6E0001AD
:101EA000CA4BCB2BCC51BE0FD96EDA6ADF50C2279A
:101EB000000EC323CC2B010ECC65EBD7BEC060F067
:101EC000BFC061F0D9EC65F0C22904E1C32902E189
:101ED000C26BC36BC2C0AAF0C3C0ABF01200DF6E0E
:101EE0000001CA4BCB2BCC51C60FD96EDA6ADF503A
:101EF000C227000EC323CC2B030C0001CA4BCB2BF3
:101F0000CC51AC0FD96EDA6ADF50C227000EC32362
:101F1000CC2B070CD96EDA6ADF50C227000EC32320
:101F2000CC2B0F0C0001C56FCA4BCB2BC551C22760
:101F3000000EC323000CCC51C60FD96EDA6ACAC09A
:101F400060F0CBC061F01200D96EDA6ACAC060F0EE
:101F5000CBC061F01200CAC060F0CBC061F01200CB
:101F6000C66BC76BC86BC96BCC6B1200CA4BCB2B53
:101F7000CC51AC0F1200C6C063F0C7C064F0C451AE
:101F80001200EFC0D9FFF0C0DAFFDECFF4F0DDCFF2
:101F9000F5F0000120EE02F0B0D9DECFF6F0DDCF93
:101FA000F7F0010EF86FF969F4C0C5F0F5C0C6F09E
:101FB000DEEC39F0F96FF9BF8BD1FA6B070EFA65D9
:101FC00001D086D1FA51020D280EF324D96E020EEB
:101FD000F420DA6EDECF60F0DDCF61F0F6C062F0A3
:101FE000F7C063F037EC49F06051611101E06DD149
:101FF000730EF9257DD92DEC49F0F5CFF1F0FAC03B
:10200000F2F0010EF36FF22B02D0D890F337F22FDB
:10201000FCD70001F351F11501E157D1F86B26D13E
:102020000F013891929051D10F01389192804DD18A
:1020300092800F01388149D1FA51F2E0010AF4E0AF
:10204000030AF6E012D00F01389392923ED10F01AD
:10205000389392823AD192820F01388336D1FA5165
:10206000F2E0010AF4E0030AF6E0010A2ED10F01C2
:10207000389592942AD10F013895928426D1928472
:102080000F01388522D1FA51F2E0010AF4E0030A87
:10209000F6E0EBD70F013897929617D10F013897DA
:1020A000928613D192860F0138870FD1FA51F2E050
:1020B000010AF4E0030AF6E0D8D7929806D1928894
:1020C00004D1FA51FAE0010AFAE0020AFED00F0147
:1020D000389B929AFAD00F01389B928AF6D0928A56
:1020E0000F01388BF2D0FA51F2E0010AF4E0030A52
:1020F000F6E0BBD70F013C919690E7D00F013C91E1
:102100009680E3D096800F013C81DFD0FA51F2E057
:10211000010AF4E0030AF6E0A8D70F013C93969277
:10212000D4D00F013C939682D0D096820F013C838D
:10213000CCD0FA51F2E0010AF4E0030AF6E095D7B8
:102140000F013B959594C1D00F013B959584BDD06F
:1021500095840F013B85B9D0FA51F2E0010AF4E011
:10216000030AF6E082D70F013C959694AED00F019A
:102170003C959684AAD096840F013C85A6D0FA514E
:10218000F2E0010AF4E0030AF6E06FD70F013A9B90
:10219000949A9BD00F013A9B948A97D0948A0F010E
:1021A0003A8B93D0FA51F2E0010AF4E0030AF6E028
:1021B0005CD70F013B9B959A88D00F013B9B958A7A
:1021C00084D0958A0F013B8B80D0FA51F2E0010A4E
:1021D000F4E0030AF6E049D70F013B9F959E75D0C6
:1021E0000F013B9F958E71D0958E0F013B8F6DD067
:1021F000FA51F2E0010AF4E0030AF6E036D70F01E3
:102200003B9D959C62D00F013B9D958C5ED0958C3B
:102210000F013B8D5AD0FA51F2E0010AF4E0030AB3
:10222000F6E023D7929E51D0928E4FD0FA51FAE029
:10223000010AFAE04AD7929C48D0928C46D0FA51D3
:10224000FAE0010AFAE041D7939C3FD0938C3DD04D
:10225000FA51FAE0010AFAE038D7939E36D0938E0D
:1022600034D0FA51FAE0010AFAE02FD7F95101E12E
:10227000E3D6010A01E1F3D6030A01E104D7010A1A
:1022800001E114D7070A01E11CD7010A01E12BD7AC
:10229000030A01E13BD7010A01E14BD70F0A01E133
:1022A0005BD7010A01E16BD7030A01E17BD7010A81
:1022B0008CE0070A9DE0010AAEE0030AB7E0010ADC
:1022C000BEE01F0AC5E0010ACCE00001FA2B76D679
:1022D000F851B4EC26F0DECFF1F0DDCFF2F020EED5
:1022E00006F00BD8F1C0DEFFF2C0DEFFDD6A12009F
:1022F000F66EF76AF60EF7221200EF51D926F0516A
:10230000DA221200E06F100E0001E46FE26BE10EC2
:10231000606F616B636B626B656B010E646F5EEC8B
:1023200067F068D95EEC67F061EC3FF054EC3FF089
:102330005EEC67F0E00506E1E1511F0B8009E16FFB
:102340009AD904D0E1511F0B4009E16FFC0EE1174F
:10235000E30EE117E70E72D9E1C0DFFFE42B43D9AA
:1023600066EC3FF04FEC3FF07AEC56F0040EE427B9
:10237000E36B2BEEF8F0DFAC3FD0E38F1EEC45F0C3
:1023800017E2E38D2BEEF6F0DF882CEEDAF0DE2A92
:10239000000EDD222CEEDAF0DECFDCF0DDCFDDF05A
:1023A0002CEE9CF0DF50DC19DD1106E160D9E39DD5
:1023B0002BEEF6F0DF9820D02CEEDAF00CEE9CF04D
:1023C000EF50DE6FDF6BDE50DE5DDE50DF59EFE297
:1023D000F8CCE8FF010FE8CFF8FC2CEE9DF00CEEF6
:1023E000F8F0DE50EE5C08E342D9DCEC44F0000982
:1023F00003E15CEC06F0DBD72BEEF6F0DFA204D0B5
:10240000E38B2BEEF6F0DF92E3992CEEA1F0DF5098
:1024100003E0DA51DB111AE1F00EE3170101D951A3
:1024200004E020D9020EDC270FD90101D85103E0C6
:1024300019D9DC2B09D90101DF510FE0DF51020D61
:102440000001E351F318F00BF31806D0B3EC48F099
:10245000DC6FE319F00BDC19E36FE70E0001EED837
:10246000E3C0DFFFE42BBFD8FC0E626F0B0E636F7F
:10247000656B020E646F7AEC56F0020EE4272CEEC8
:10248000A1F0DF500EE0DA51DB110BE0E70E606FD8
:102490000A0E616FE40E626F010E636F89EC1FF02C
:1024A00028D02CEEA1F0DF5024E10101DF5109E03A
:1024B000E70E0001606F0A0E616FE40E626F4FEC71
:1024C00056F00101D95109E0E70E0001606F0A0ED4
:1024D000616FE40E626F97EC63F00101D85109E07F
:1024E000E70E0001606F0A0E616FE40E626FC4ECCC
:1024F00067F0E70E0001A2D8D7C0DFFFE42BDA5166
:10250000DB1118E070D8D8C062F0D9C063F0DAC02F
:1025100064F0DBC065F07AEC56F0D8C0A0F0D9C00A
:10252000A1F0DAC0A2F071D899D87FD8ACEC2CF029
:10253000DA5119D02CEEA1F0DF5016E0D80E606F02
:10254000090E616FE20E626F636B89EC1FF0D80EAB
:10255000A06F090EA16FE2C0A2F057D87BD865D852
:10256000ACEC2CF0E251E427FCCB6BF0FDCB6CF033
:10257000FECB6DF0FFCB6EF0E451F00F6F6F490EA4
:10258000706F000E716B1CEC3FF0E70E606F0A0E6F
:10259000F3EC05F0100E646F7AEC56F040D8CA6F79
:1025A000020ECB6FE70ECC6F0A0ECD6FE4C0CEF0FB
:1025B000CF6B3FEC13F017D8F5EC56F04FEC3FF033
:1025C0007AEC56F0040EE427F00EDC6FDD69E4517E
:1025D000DE6FDF6BDC51DE27DD51DF23DEC0DEFC8A
:1025E000DFC0DFFC1200E70EE425606F616B0A0EAE
:1025F00061231200E70E606F0A0E616F636B626BFE
:10260000010E656F0F0E646F0F0CA36BFCCBA4F073
:10261000FDCBA5F0FECBA6F0FFCBA7F01200180E65
:10262000C86F0C0EC96FCD0E1200A96FE4C0AAF0DE
:10263000E70EAB6F0A0EAC6FAD6B1200E425D96EDE
:10264000DA6A0A0EDA221200E351DC19F00BDC1907
:10265000E36F1200180EA86F0C0E1200280EA86F60
:102660000C0E12000001E3510F0BDC6F1200000E84
:10267000E8CFF8FC000C2BEEF6F0DF801200010131
:10268000656B646B626B606B616BC8C0A0F0C9C0A6
:10269000A1F0100E0001A26F010EA36F000EA46F37
:1026A000010EA56F27EC33F00F0ECE25D06F000E74
:1026B000CF21D16F040ED26FD890D133D033D22F27
:1026C000FBD7D0510101636F635104E1010E636FC9
:1026D000626B0AD0CEC0D0F00F0E0001D017010EF1
:1026E000D8A4000E0101626F62052DE1646B635195
:1026F000100DF350F00F656F18D0200E0101642506
:1027000026D9100E6425E96EEA6A010EF6D8010199
:1027100065510001CC25E96E000ECD21EA6EEF5027
:10272000D019DF6E0101642B652B6351C6D80101FE
:10273000655108D9D25DD351800AD46FD151800A36
:10274000D45940E2DAD70F0E0001CE15D06FD16B0D
:10275000D9D8D25FD151D35BCE51D2250101606F60
:102760000001CF51D3210101616F656BE1D8656133
:102770000CD065516025D96E000E6121DA6E300EE5
:10278000C7D8EA22DFCFEFFF09D0D2D8651904E11C
:10279000A9D8800EDF6E02D0A5D8DF6A652B0F0E98
:1027A0006565E4D7656B200E6525D1D8000E6525DB
:1027B000E96EEA6A010EA1D8300E0101A9D88AD8C3
:1027C0006565F1D7500E0001606F010E616F54EC2A
:1027D0003FF05EEC67F00101656B32D00101646B84
:1027E000400E6425AAD8655168D88CD89CD864510D
:1027F0000001D225E96E000ED321EA6EEF50D46FAE
:10280000500E0101642575D8EA22EF500001D41959
:10281000DF6E0101642B0F0E6465E2D7500E0001DC
:10282000606F010E616F400E626F010E41D87AEC4D
:1028300056F0500E8C6F010E70D837EC68F0652B97
:102840000001D069D169010163517CD86CD8655110
:102850000001D46FD56BD251D45DD551800AD66FAB
:10286000D351800AD659BAE30101656B400E652544
:1028700064D8200E6525E96EEA6A010E3ED8500E36
:102880000101652536D826D86565F0D7400E0001D0
:102890008C6F010E42D837EC68F0CAC060F0CBC034
:1028A00061F0400E0001626F010E02D87AEF56F01F
:1028B000636F656B100E646F100C0001D06FD16BED
:1028C000D03BD13BF00ED117D0510F0BD113F00EEE
:1028D000D017F00CEA22EF500001D019DF6E010191
:1028E000652B0F0C300E6525D96EDA6A010EDA22DF
:1028F0001200E96EEA6A010E1200EA22EF500001AE
:10290000D06F1200CCC0D2F0CDC0D3F0D0511200A5
:102910006525E96EEA6A010E12008D6FC8C08EF05F
:10292000C9C08FF01200D227D151D3230101120068
:102930000001CE510F0B01011200D96EDA6A010EAF
:10294000DA2212000001D26FD36BD0511200D96E7F
:10295000DA6A010EDA2212000001DA69DB69DC6949
:10296000DD692BEEF9F0DFB029D1EEEC05F0030ABA
:102970002FE13BD90409DF6E2BEEF8F0DFA812003F
:1029800008CCE8FF020AD8A412002BEEF6F0DFB064
:1029900012003BD9D8B012002CEEDEF0010EDB5055
:1029A00004E10E0EDE5CD8A012006AEC6BF03BEC8A
:1029B00009F0D8B412001ED9010EC56F0500FA6ED9
:1029C0000101BB51FD6EBC51FE6EFF6AFA50120050
:1029D0002BEEF6F0DFB494EF65F02BEEF8F0DFA805
:1029E000E4D02BEEF6F0DFA042D0DFEC2AF029E3B2
:1029F000FCD8F9EC53F0DECFD4F0DDCFD5F0D451D4
:102A0000D66FD551D76FD86BD96B0C0ED890D637FF
:102A1000D737D837D937E82EF9D7D6C060F0D7C026
:102A200061F0D8C062F0D9C063F0D9D813EC4DF092
:102A300025EC09F0F1D8EEEC61F0EED8CFEC51F0D6
:102A4000B4D058EC6CF00101BB51BC1101E1ADD028
:102A5000000ED0D8C56B01D8A8D00500FA6E0101D0
:102A6000BB51FD6EBC51FE6EFF6AFA501200CDD80C
:102A700001E282D0BAD80609DF6E010E45EC28F0DB
:102A8000000913E1D2EC4EF06FEC23F0A851A9112C
:102A900005E1B5D8AAD80109DF6E87D06AEC6BF0E2
:102AA0000101BB51BC11D4E180D0DE6B38D0DE51C6
:102AB0006BEC1EF026EC3CF031E1DE5118EC09F035
:102AC00057EC1EF02BE0DE5118EC09F0DE50DA5D19
:102AD000DE50DB59DE50DC59DE50DD591FE3DE519C
:102AE0001EEC3CF0DF500F0BD46F2CEEE9F0D4510C
:102AF000DE5C14E32CEEE9F0DE5154EC30F0D56FDF
:102B0000DE50D55D0BE3DE5118EC09F0DECFDAF0D4
:102B1000DECFDBF0DECFDCF0DECFDDF0DE2B2CEE27
:102B2000F7F0DE51DE5CC3E2DAC0D4F0DBC0D5F0F2
:102B3000DCC0D6F0DDC0D7F00C0ED890D437D53736
:102B4000D637D737E82EF9D7000ED425606F200E80
:102B5000D521616F030ED621626F000ED721636FFE
:102B60003ED813EC4DF025EC09F05AD8EEEC61F0AC
:102B700057D8CFEC51F019D008CCE8FF020A15E085
:102B80006AEC6BF00101BB51BC110FE033D8010EB0
:102B9000C56F01D80AD00500FA6E0101BB51FD6E68
:102BA000BC51FE6EFF6AFA501200B1EC49F0D8A495
:102BB00012001BD80909DF6ED4EF52F03BEC09F08C
:102BC000D8B4120017D8020EC56F0500FA6E0101C5
:102BD000BB51FD6EBC51FE6EFF6AFA5012007D0EB5
:102BE000646F656B666B676B7D0C2BEEF8F0DF50E6
:102BF000F00B12000001C26BC36BC46B1200E2CC7D
:102C0000E8FF010FE8CFE2FC12002CEEE2F00CEE40
:102C1000E0F0DE50EE5C12002CEEF2F0DF5012001D
:102C20002CEEF4F0DF50120000017B6F796B7A6BB1
:102C3000080E7B192EE126EEA2F0DE50DE10D8B48D
:102C400012001BD95D0E7025D96E040E7121DA6E4B
:102C5000DF5014E1A1C6E8FFFF0FE8CFA1F602D9CB
:102C6000DECFA4F6DDCFA5F6FDD8DE6ADD6A26EE5E
:102C7000A1F0DF5009D9DE6ADD6A05D026EEA4F0A6
:102C8000DE06000EDD5A26EEA2F0DE06000EDD5A4C
:102C9000000C26EEA2F0250EDE5C020EDE5846E2A7
:102CA000200E7B1945E126EEA1F0060EDF603ED036
:102CB000E4D805D9000EDF6A26EEA2F0DE2ADD2276
:102CC00026EEA4F006EEA1F0EF50020D840EF324E0
:102CD000E96E060EF420EA6EDECFEEFFDDCFEDFFEB
:102CE0007069716926EEA4F0F1D826EEA2F0DECF6D
:102CF00074F0DDCF75F07251745F7351755B705174
:102D000074277151752326EEA1F0DF50BDD874C031
:102D1000DEFF75C0DDFFA1C6E8FF010FE8CFA1F619
:102D2000000EE8CFA4F6E8CFA5F677D0796975D084
:102D3000A4D8C5D87BC0DFFF26EEA2F0DE2A000EA5
:102D4000DD2226EEA4F0DE2ADD2283D839EC5DF008
:102D500026EEA2F06051DE5C6151DE582EE3010EDA
:102D60007A6F77D839EC5DF060517C6F22D085D8CE
:102D7000B2D87C51725F000E9AD8DF50746F69D858
:102D800039EC5DF0E40E756FFF0E766F60517527BC
:102D9000615176237C51755F000E765B75C0F6FF3E
:102DA00076C0F7FFF86A0800F550741901E07A6BF5
:102DB0007C077C5102E07A51DAE17A512EE05DD84D
:102DC00048D839EC5DF087D86051725F61516FD897
:102DD000DF6A3FD839EC5DF026EEA4F05DD8605193
:102DE000705F6151715B3ED870C0DEFF71C0DDFF66
:102DF00026EEA4F051D826EEA2F068D87051725F8A
:102E00007151735B26EEA1F0DF503ED872C0DEFF39
:102E100073C0DDFF010EE8CFA0F67929D8A4120017
:102E20004FEC65F04CC260F04DC261F0CBEC1AF093
:102E300039EC5DF060C077F061C078F04CC266F0AC
:102E40004DC267F02ED877C069F078C06AF026EFDF
:102E50004CF0E40E606FFF0E616F6011D8A4000E9D
:102E6000626F120026EEA1F0DF50020D840EF324F3
:102E7000D96E060EF420DA6E120026EEA2F0DECF36
:102E800070F0DDCF71F01200020D920EF324D96EB6
:102E9000060EF420DA6E1200DECF70F0DDCF71F096
:102EA000120066516711D8A4000E686F1200735BA0
:102EB00070517225D96E71517321DA6E12005E0E57
:102EC0007025D96E040E7121DA6E1200DECF72F019
:102ED000DDCF73F012005E0E726F040E736F12007E
:102EE000010E756F7B6F766B776B6E07D8A06F07DF
:102EF000F6D0050E6E25726F000E6F21736F705144
:102F0000725D715173591BE220EE05F06E51D926A6
:102F10006F51DA22030EDE1812E1752B040E6E25B6
:102F20007C6F000E6F217D6F0AD9EDEC6AF000090D
:102F300001E07B6B050E6E27000E6F23D0D006D903
:102F4000030EDE1801E0CBD06E4B6F2BFFD8DF50A5
:102F50000F0B746FFBD8DF50726F72390F0B7A6FE3
:102F60006E4B6F2BF3D8DECF78F0DDCF79F0020E09
:102F70006E27000E6F236EC07CF06FC07DF06E4B2D
:102F80006F2B2BEEF8F0DFAC63D07B5112E0D7D87B
:102F9000EDEC6AF0000902E07B6B0BD0D0D8060A9A
:102FA00008E078C060F079C061F0C2EC65F000091B
:102FB000F3E17A51E9EC68F0000911E1080E7A6159
:102FC0000ED078C060F079C061F07AC062F0B7D8F6
:102FD000636F84EC59F0000902E1010E776F7451C0
:102FE000BCEC6BF0000902E1010E766F760572E130
:102FF000770570E17B056EE178C06BF079C06CF00D
:103000009ED86D6F54EC6BF07451F0EC6CF02BEEBD
:10301000F9F0DF8800017A51FCEC6CF07CC0D9FF3C
:103020007DC0DAFF0001DF500F0B04E1000EE8CF96
:10303000E0FC0AD07CC0D9FF7DC0DAFFDF500F0B67
:10304000726F720772C0E0FC2BEEF9F0DF8A42D09B
:103050007B6B40D070D84ED87BB102D0DF9001D0CE
:10306000DF8069D847D8000177B102D0DF9201D064
:10307000DF8261D83FD8000176B102D0DF9401D061
:10308000DF8431EC1CF0DF6025D00001755122E0B7
:1030900026EC1CF050D82ED8DF904DD82BD8DF92DC
:1030A0004AD828D82FD826D832D824D835D822D8EC
:1030B00038D820D83BD81ED8DF9E3DD845EC31F01B
:1030C000DF9039D845EC31F0DF9235D887EC20F02D
:1030D000030EDF6E00017507752907E0BBD770513D
:1030E0006E5D71516F5901E204D76EC06EF06FC012
:1030F0006FF01200030DA30EF324D96E0C0EF42012
:10310000DA6E1200DF942CEEA1F0DF501200DF9691
:103110002CEEA1F0DF501200DF982CEEA1F0DF5072
:103120001200DF9A2CEEA1F0DF501200DF9C2CEE93
:10313000A1F0DF5012002CEEA1F0DF5012007CC095
:10314000D9FF7DC0DAFFDF38070B12006EC0D9FF50
:103150006FC0DAFF1200916B5CC2A4F15DC2A5F1F1
:10316000A451A511D8A4000EA66F946B31D0945130
:10317000090DF35083258A6FF45084218B6F000E64
:1031800085218C6F8AC1F6FF8BC1F7FF8CC1F8FFD8
:1031900021EE95F0080E05D9FEE295C160F096C1CA
:1031A00061F0875144EC17F0DECF8AF1DDCF8BF16F
:1031B0005E0E8A250001626F040E01018B21000161
:1031C000636F37EC49F06051611105E00101942B08
:1031D0008651945DCCE301018651945D01E3ACD04E
:1031E00097519811991101E09CD09A519B1101E1DE
:1031F000A3D09D518A6F8B6B8751A1C68CF18CC176
:103200008DF18E6B8D5F000E8E5B8A518D1903E1FF
:103210008B518E19D8A490D08729936F926B9D51B2
:1032200012E0932B9305020D840EF324D96E060E43
:1032300059EC47F003E1010E926F05D026EEA1F0A4
:103240009351DE5CEEE2925177E19E0E0001606FD9
:10325000010E61EC65F0090E646F5EEC67F0010130
:1032600087518A6F8B6B8A2B000E8B238B5114E155
:10327000070E8A5D11E280D8860E8A25D96E060E69
:103280008BD80AE079D8940E8A25D96E060E7BD8A1
:103290009E6F040E8D219F6F87518A6F8B6B020E7C
:1032A00085D814E1070E8A5D11E266D8880E8A255A
:1032B000D96E060E71D80AE05FD8960E8A25D96EAF
:1032C000060E61D8A06F040E8D21A16F87518A6F01
:1032D0008B6B030E6BD814E1070E8A5D11E24CD89C
:1032E0008A0E8A25D96E060E57D80AE045D8980E60
:1032F0008A25D96E060E47D8A26F040E8D21A36FC2
:103300009E0E0001EF6F010EF06F01D815D0050081
:10331000FA6E01019A51FD6E9B51FE6EFF6AFA50E2
:103320001200010E916F88C1D9FF89C1DAFF94C1E3
:10333000DFFFA46BA56BA66B0101A451A511A6111B
:1033400018E0A4C160F0A5C161F0A6C162F039EC3B
:103350005DF060C08FF161C090F1A4C166F0A5C1BD
:1033600067F0A6C168F08FC169F090C16AF026ECE1
:103370004CF001019151120087518A6F8B6BD890EC
:103380008A378B3712008B21DA6EDECF8CF1DDCFDE
:103390008DF15E0E8C2512008B21DA6EDE50DE1070
:1033A00012000900F5CFDEFFE80612008A27000EA2
:1033B0008B238B511200D7D0010EC46554D023D972
:1033C0001EC262F01FC263F07CEC64F0DBD839EC03
:1033D0005DF0F7D8AE6F060ED321AF6FC2C0D9FF34
:1033E000C3C0DAFFDF50B06F61EC3EF0D2EC61F0A9
:1033F000C9D839EC5DF0E5D8F3D8D24BD32BC669E8
:10340000C769C451C86FC96BC651C827C751C92302
:10341000120ECA6F020ECB6FD251CA5FD351CB5B73
:10342000D890CB31CD6FCA31CC6FC851CC5DC9516A
:10343000CD5903E2B6D8DBD806D0FF0EC425CE6F37
:10344000CF6BFF0ECF23C229B66F000EC321B76F1B
:10345000BFD8CBEC41F096D839EC5DF0ADD8CDD8E3
:10346000D8A4200E0DD01AC260F01BC261F093D810
:1034700039EC5DF0A1D81AC266F01BC267F06ED0BD
:10348000686FD0C069F0D1C06AF026EF4CF0C4512B
:1034900025E0B9D81CC262F01DC263F07CEC64F078
:1034A00071D839EC5DF08DD89BD8D24BD32B79D81D
:1034B000C96FC631C86FC451C85D000EC95903E257
:1034C00070D895D803D0C4C0CEF0CF6BC2C0B6F0D0
:1034D000C3C0B7F07DD8CBEC41F0BDD718C260F0C7
:1034E00019C261F058D839EC5DF066D818C266F0A0
:1034F00019C267F033D020C260F021C261F04BD80E
:1035000039EC5DF059D820C266F021C267F026D0B0
:1035100022C260F023C261F03ED839EC5DF04CD895
:1035200022C266F023C267F019D024C260F025C21F
:1035300061F031D839EC5DF03FD824C266F025C285
:1035400067F00CD026C260F027C261F024D839ECB5
:103550005DF032D826C266F027C267F06651671167
:10356000D8A4000E8DD70001C551D2E0010A01E1B7
:1035700023D7030AC0E0010A8AE0070AD6E0010A5D
:10358000E1E01200A60E606F060E616F6011D8A414
:10359000200E626F120060516111D8A4000E626F9C
:1035A0001200120EC66F020EC76FD251C65FD35102
:1035B000C75BD890C731120060C0D0F061C0D1F0B5
:1035C000120060C0D2F061C0D3F0A60ED225120066
:1035D000A60ED225B86F060ED321B96FCE511200B8
:1035E000D96E060ED321DA6E200EDF6E200CC86F66
:1035F000C631CE6FC8C0CFF01200A60E666F060EA1
:10360000676F66111200A60E606F060E616F1200E2
:10361000B26BA7C0B4F0A8C0B5F004D19BEC18F011
:103620007AEC18F0DF909BEC18F07AEC18F0DF924F
:103630009BEC18F07AEC18F082EC18F07AEC18F0A9
:1036400087EC18F07AEC18F08CEC18F07AEC18F0A3
:1036500091EC18F07AEC18F096EC18F07AEC18F07F
:10366000DF9E9BEC18F045EC31F0DF909BEC18F0FE
:1036700045EC31F0DF92F0D80CEEA1F0EF50030DE5
:10368000A20EF324E96E0C0EF420EA6EDFCFEFFFFA
:10369000E3D8DF50B36FFE0EAA6FAB69B351AC6FC6
:1036A000AD6BAA51AC27AB51AD23950EAC25F66E90
:1036B000F60EAD21DCEC48F0B425AE6F000EB5215E
:1036C000AF6FA951A725B06F000EA821B16FAE5101
:1036D000B05DAF51B15901E384D0010EB36581D023
:1036E0000B0EB3617ED09BEC18F087EC20F0FF0E40
:1036F000DF68A7D0B4C060F0B5C061F033EC66F00D
:1037000060C0B4F061C0B5F09BEC18F087EC20F01D
:10371000DF687ED0B4C06EF0B5C06FF0A951A725A8
:10372000706F000EA821716F70EC17F06EC0B4F0CE
:103730006FC0B5F06DD0B4C060F0B5C061F06BEC97
:1037400058F060C0B4F061C0B5F062D0B4C09EF073
:10375000B5C09FF05BEC2EF09EC0B4F09FC0B5F0FA
:1037600057D0B4C060F0B5C061F04DEC6DF060C0F2
:10377000B4F061C0B5F04CD0B4C09EF0B5C09FF0BD
:10378000D0EC26F09EC0B4F09FC0B5F041D0B4C0DC
:103790006BF0B5C06CF0ABEC65F06BC0B4F06CC016
:1037A000B5F036D0B4C09EF0B5C09FF0DAEC30F082
:1037B0009EC0B4F09FC0B5F02BD0B4C069F0B5C0C6
:1037C0006AF066EC2FF069C0B4F06AC0B5F020D0A2
:1037D000010EB26FA951A725B46F000EA821B56FD5
:1037E00093D73AD8B44BB52BDF50020A83E0010AD5
:1037F00091E0070AA0E0010AA9E0030AB2E0010A89
:10380000BBE00F0AC4E0010AD8E0030ACBE0E0D72E
:103810009BEC18F087EC20F0DE2804E022D8DF6073
:1038200001D014D80001A951A725AA6F000EA82124
:10383000AB6FAA51B45DAB51B55903E2B25101E18E
:10384000EDD6B4C0A7F0B5C0A8F01200A1CCE8FF37
:10385000010FE8CFA1FC1200B4C0D9FFB5C0DAFF58
:1038600012002CEEA1F0100C8B6B68518B25D96ED9
:10387000DA6A8B51710FE96EEA6ADFCFEFFF8B2BAB
:103880000F0E8B65F2D70A0E0101D46F010E456E43
:1038900000018B6BC9D8C1D805D98B65FBD7000156
:1038A0008B6BBBD8DF50696F6A6B730E6925F66E40
:1038B000F50E6A21F76EF86A000EF822AED80800FD
:1038C000F5CFDFFF8B2B0F0E8B65EBD766C060F05B
:1038D00067C061F0A8EC3AF00101D40501E185D0A0
:1038E00000018B6B93D86929D96EBFD86B6F95D8BF
:1038F000DF506B19896F8AD8D1D8B7D8A6D88A6F0C
:103900008919876F83D86929D96EAFD89ED8886FF7
:103910007F0E896508D01B0E89C069F0B1D8816F10
:103920006A51826F05D0D8908935816F826B82375A
:1039300081C089F07F0E886508D01B0E88C069F0B1
:103940009FD8836F6A51846F05D0D8908835836F74
:10395000846B843783C088F07F0E8A6508D01B0E85
:103960008AC069F08DD8856F6A51866F05D0D8906E
:103970008A35856F866B863785C08AF04ED886D8A3
:1039800087198919DF6E42D86929D96E54D86B29F5
:1039900071D887198819DF6E39D8020E6925D96E5A
:1039A0004AD8020E6B2566D887198A19DF6E2ED881
:1039B00075D841D8020E6B255DD86D6F8B51662589
:1039C0006E6F000E67216F6F6E29E96E000E6F211A
:1039D000EA6EEF50706F5AD870196D198719DF6E43
:1039E000040E8B270F0E8B657DD7710E0001606F63
:1039F00041EC2DF08B6B18D810D854D88B65FBD7C1
:103A00000101D407D45101E04AD712008B51662539
:103A1000696F000E67216A6F12008B516625D96E9F
:103A2000000E6721DA6E12008B51710FD96EDA6ABF
:103A3000DF50696F1200000E6A21DA6E8B51662525
:103A40006B6F000E67216C6F12006B6F8B516625D8
:103A50006C6F000E67216D6F020E6C25D96E000E23
:103A60006D21DA6EDF506B191200000E6A21DA6EDA
:103A7000DF501200E96E000E6C21EA6EEF5012006A
:103A80006A6BD89069376A37691912008B516625BD
:103A9000E96E000E6721EA6EEF501200030E6925F1
:103AA000D96E12006951DF1A8B2B0F0C0A0EE1261A
:103AB000000EE2225068516852685368FDD8FE0E2D
:103AC000E36AFE0EE35007D926EC3CF06AE1FE0EF5
:103AD000E35018EC09F0EBD864E0FE0EE35018EC6C
:103AE00009F00CEED2F0DE50EE5CDE50EE58DE5007
:103AF000EE58DE50EE582DE2D2CC50F0D3CC51F03F
:103B0000D4CC52F0D5CC53F0FE0EE35018EC09F0B3
:103B1000DECF4CF0DECF4DF0DECF4EF0DECF4FF0FB
:103B200050504C5C486E51504D58496E52504E5852
:103B30004A6E53504F584B6EFE0EE35018EC09F08E
:103B400048C0DEFF49C0DEFF4AC0DEFF4BC0DEFFDB
:103B500006D0FE0EE35018EC09F0A9EC29F0FE0E99
:103B6000E35018EC09F0FA0E46EC2AF0FB0EB8D838
:103B7000FC0EB6D8FD0EB4D814E3FE0EE35018ECDC
:103B800009F095D80EE0FE0EE35018EC09F0DECFF8
:103B900050F0DECF51F0DECF52F0DECF53F08CD8B4
:103BA000E32AFE0EE32AE3CF48F00F0E486489D7DC
:103BB000FF0EE3046DE1E150FA0F6DD8DECFD2FCC9
:103BC000DECFD3FCDECFD4FCDDCFD5FCFD0EE35041
:103BD0000DE1FA0EE328FB0EE3CF48F0FF0E485A42
:103BE000FC0EE3CF48F00F0E485A18E3E150FA0FED
:103BF00052D8DECF60F0DECF61F0DECF62F0DECFF4
:103C000063F07D0E0001C0EC37F013EC4DF0C5EC15
:103C100037F00C0E46D8E82EFDD720D0FA0EE3CFB1
:103C200050F0FB0EE3CF51F0FC0EE3CF52F0FD0E4F
:103C3000E3CF53F00C0E35D8E82EFDD750C060F01E
:103C400051C061F052C062F053C063F07D0E0001BC
:103C5000C0EC37F013EC4DF0C5EC37F0F60E50C069
:103C6000E3FFF70E51C0E3FFF80E52C0E3FFF90E79
:103C700053C0E3FFE150F60FD96EE250CEEC37F0BF
:103C800033EC09F0EEEC61F033EC09F0CFEC51F0DD
:103C9000F50EDAEF37F0D96EE250DA6EFF0EDA2267
:103CA000FF0CD89050365136523653361200DE5043
:103CB000DE10DE10DE101200FA0E50C0E3FFFB0E25
:103CC00051C0E3FFFC0E52C0E3FFFD0E53C0E3FF03
:103CD000FF0EE36A1200120DC00EF324D96E12001B
:103CE000E3CF48F0DE5048581200AAD00001A66980
:103CF000A769A869A969B0D02BEEF6F0DFA41FD0A0
:103D0000FFD8B1EC63F08C5102E1D9D80CE3F8D8BC
:103D1000B1EC63F00D0E01D0D9D8E82EFDD7BBD899
:103D2000CDEC5BF077D0ECD8B1EC63F0B4D8CDEC4F
:103D30005BF00D0E01D0BDD8E82EFDD76BD02BEE79
:103D4000F8F0DFA889D0D8D8B1EC63F08C5102E14B
:103D5000B6D80CE3D1D8B1EC63F00D0E01D0B6D8D3
:103D6000E82EFDD798D8CDEC5BF054D0C5D8B1EC97
:103D700063F091D8CDEC5BF00D0E01D09AD8E82E0F
:103D8000FDD748D02BEEF6F0DFA405D037EC09F0D4
:103D9000B1EC63F008D02BEEF8F0DFA805D0AFEC63
:103DA00006F0B1EC63F098D80001A95102E19DD86A
:103DB0001FE3A6C0A2F0A7C0A3F0A8C0A4F0A9C0AA
:103DC000A5F00D0E05D0D890A533A433A333A233AC
:103DD000E82EF9D7A2C092F0A3C093F0A4C094F04B
:103DE000A5C095F07D0E2EEC09F0CDEC5BF012D065
:103DF000A6C092F0A7C093F0A8C094F0A9C095F017
:103E00007D0E2EEC09F0CDEC5BF00D0E01D051D8FB
:103E1000E82EFDD792C0A6F093C0A7F094C0A8F0FA
:103E200095C0A9F019D00CEC16F0B1EC63F054D8A1
:103E3000A951BFE15AD8BDE2DBD7000165D80CD04B
:103E4000EEEC05F001E152D7020A01E155D7060A6E
:103E500099E0020AE8E0F1D70001A951A811A711E1
:103E600003E1C80EA65D0AE3CE0EA627FF0EA72328
:103E7000A823A9232BEEF9F0DF8004D045D82BEE40
:103E8000F9F0DF90A6C09EF0A7C09FF0A8C0A0F0F8
:103E9000A9C0A1F0120089C092F08AC093F08BC033
:103EA00094F08CC095F07D0E966F976B986B996B24
:103EB0007D0CD890953394339333923312001F0EB8
:103EC000895DAC0E8A59DF0E8B591200D8908C3365
:103ED0008B338A338933120089C0A6F08AC0A7F0D9
:103EE0008BC0A8F08CC0A9F012001F0EA65DAC0E0E
:103EF000A759DF0EA85912002CEEEEF0DF50120089
:103F00002CEEECF0DF501200A66BA76BA86BA96B30
:103F100012000ED96B6F6A6BE7D0635101E1CCD010
:103F20006A51F5D8DE2801E1C7D0FE0E646F6569DD
:103F30006A51EDD8DF50666F676B64516627655133
:103F400067239E0E6625F66EF60E6721DCEC48F0C0
:103F50006BC068F0696B6827000E6923E9D8685F59
:103F6000000E695B69BFA8D0695105E1100E685D5C
:103F700001E3C0D0A1D0BED0C3D8030EDF6E6B2B3F
:103F8000BFD8DF6A6A517AEC18F0DFA003D0B8D846
:103F9000000EDB806A517AEC18F0DFA203D0B0D8B3
:103FA000000EDB826A517AEC18F0DFA403D0A8D8A7
:103FB000000EDB8400016B2B96D0A2D8050EDF6EBD
:103FC0006B2B9ED8DF6A6A517AEC18F0DFA603D01B
:103FD00097D8000EDB806A517AEC18F0DFA803D086
:103FE0008FD8000EDB826A517AEC18F0DFAA03D07A
:103FF00087D8000EDB8484D8DF500101D76FDAD771
:104000007FD8060EDF6E6B2B2CEEEAF088D86B2B78
:10401000F5EC6DF0800AA00F05E3F5EC6DF0800A79
:10402000600F04E300016CD8200E05D0000168D8B1
:10403000F5EC6DF03F0BDF6EBDD762D8070EDF6E7B
:104040006B2B5ED8DF6A6A517AEC18F0DFAE03D0D2
:1040500057D8000EDB806A517AEC18F0DFACAAD793
:104060004FD8000EDB82A6D76EEC22F06A514FD8F3
:1040700056D8A0D745D80A0EDF6E6B2B41D8DF6A21
:104080006A5145EC31F0DFA003D03AD8000EDB8056
:104090006A5145EC31F0DFA203D032D8000EDB824A
:1040A0002FD8880E0101D625E96EEA6A020EEA22AF
:1040B000DFCFEFFFD62B7ED76A5129D8DF50020A17
:1040C000D3E0010A01E158D7070AD0E0010A01E173
:1040D00074D7030A95E0010AB0E00F0AC7E0010AAD
:1040E000C5E0030AC7E06A2B2CEEA1F0DE506A5D42
:1040F00001E213D76251D96EDA6A6BC0DFFF12009A
:104100006B516025D96E000E6121DA6E1200030D2D
:10411000A20EF324D96E0C0EF420DA6E12006B514D
:104120006025E96E000E6121EA6EDFCFEFFF12001D
:104130006251D96EDA6ADF5012000201B9A506D0C9
:10414000800E0001A96F030EA86F030CB9C2AAF07C
:10415000030E0001AA1705E0800EA96F040EA86FD8
:10416000040C8A86A851A91104E1C8D89FEC0BF071
:1041700006D0A8C09EF0A9C09FF09FEC0BF00201F2
:10418000AE050DE1010E0001626F220EDFEC69F059
:10419000C3D8DFEC69F0AFD8DFEC69F010D0CBC248
:1041A00062F0120EDFEC69F0CCC262F0130EDFECAD
:1041B00069F0B2D8DFEC69F09ED8DFEC69F002015B
:1041C000B983E70EB9170001A851A91105E182D8FA
:1041D000050EDEEC37F02BD00201AE0509E1010E31
:1041E0000001656F000E666F060EDEEC37F01FD023
:1041F000000E8ED8DEEC37F00001A851AA6FA9514D
:10420000AB6FAC6BAD6B0C0ED8907DD8E82EFCD7A5
:1042100058D8EFEC15F013EC4DF025EC09F0020145
:10422000BE51EEEC61F00201BE51CFEC51F057D817
:104230003AE0C35102E159D80BE339D8C0EC37F06A
:1042400013EC4DF00C0E44EC24F0E82EFCD713D008
:10425000C0C2AAF0C1C2ABF0C2C2ACF0C3C2ADF0E2
:104260000C0ED89000014FD8E82EFBD72AD8EFECDF
:1042700015F013EC4DF060C0AEF061C0AFF062C05D
:10428000B0F063C0B1F0AEC06DF0AFC06EF0B0C0C2
:104290006FF0B1C070F00201BF51EEEC61F00201AD
:1042A000BF51CFEC51F00001A86BA96B1200C0C246
:1042B00060F0C1C261F0C2C262F0C3C263F000012B
:1042C0007D0CAAC060F0ABC061F0ACC062F0ADC0C4
:1042D00063F01200AEC265F0000E666F000C0201C2
:1042E000C051C111C211C3111200C029FF0EC15922
:1042F0000F0EC25912000001626B410C000E9F6F3D
:10430000040E9E6F040CAA37AB37AC37AD371200E2
:104310000001656F666F050C0001626B400C0001C7
:10432000A96FFACCE8FF010A02E1D4EC59F0340E8F
:10433000E8CFFEFCE1D86BEC6DF0000EB4D8CED81F
:10434000C4D8E8CFDEFCE8CFDFFCA4D8B5D8E8CFEE
:10435000DCFCE8CFDDFC010EE8CFE5FC000EE8CF89
:10436000E6FCE8CFDAFCE8CFDBFCE8CFF8FCE8CFEE
:10437000F9FCABD82BEEF9F0DF9495D8E8CFF6FB3B
:10438000E8CFF7FB070EE8CFE1FC000EE8CFE0FC3A
:10439000010EE8CFE3FCE8CFE2FCFF0EE8CFEAFC39
:1043A0002CEE9EF0A9C0DFFF000EE8CF08FC100E37
:1043B000E8CFF7FCE80E000162D850EC24F0F9ECED
:1043C00056F0020EE8CF12FC000EE8CF0EFCEA0E0B
:1043D000E8CF0FFC060EE8CF10FC370EE8CF11FC3B
:1043E000010EE8CFEBFC020EE8CFE9FC70EC48F0E0
:1043F000000EE8CF9FFCE8CFA0FC130E606F0C0E00
:1044000061EC65F0690E646F5EEC67F06ED8D00EFB
:10441000E8CF90FC070EE8CF91FC880EE8CF92FC25
:10442000130EE8CF93FC700EE8CF94FC170EE8CF84
:1044300095FCD00EE8CF9AFC070EE8CF9BFC200E2F
:10444000E8CF9DFC400EE8CF9CFC000EE8CF96FC28
:10445000400EE8CF97FC000EE8CF98FC400EE8CF66
:1044600099FC000EE8CFFFFC9F6B9E6BD3EC2DF008
:104470002BEEFAF0DF862BEEFAF0DF881200796F70
:10448000090E7A6F7B6BEA0E7C6F060E7D6F370E1E
:104490007E6F370CE8CF00FCE8CF01FCE8CF02FCD0
:1044A000E8CF03FC1200E8CFF8FBE8CFF9FBE8CF38
:1044B000FAFBE8CFFBFB1200E8CFFCFBE8CFFDFBEB
:1044C000E8CFFEFBE8CFFFFB1200E8CFD2FCE8CF3D
:1044D000D3FCE8CFD4FCE8CFD5FC1200FF0EE8CF28
:1044E000E7FC000EE8CFE8FC000CE80EE8CF8EFCFD
:1044F000030EE8CF8FFC030C2CEEFEF0DF50120011
:104500009E96C6AEC7D0C69E0101D36BC0EC62F0CA
:10451000DECF04F0DDCF05F004C0D9FF05C0DAFF1F
:10452000010EDF6EC36BC46B120036B2120034C0D2
:10453000C3F135C0C4F134C0D9FF35C0DAFFDF5054
:10454000D26F20EE01F03450D9263550DA22DECF7A
:10455000C5F1DDCFC6F1050E3426000E3522EC0E76
:10456000341807E1020E351804E1E70E346E020E2E
:10457000356E36903250341804E13350351801E16D
:104580003682C580020ED36F020CC5AC04D014D0A5
:10459000040EACEF62F0D890DD31056EDC31046EB4
:1045A0000450C96EDCA103D00B0ED36F0B0C030EAD
:1045B000D36F030CC5AC02D0382AEAD7C582DD51CF
:1045C000060B046E056AF00E0410DC6F0550DD6FFB
:1045D000DC81010ED06FD6D7D00514E0C5C1D9FF5C
:1045E000C6C1DAFFDECFDCF1DDCFDDF120EE03F076
:1045F0006CD8DECF92F2DDCF93F220EE02F065D8D8
:10460000DF50D16FDCC1C9FFDCA1D1D7050ED36F5C
:10461000050CC5AC05D0382AC59C050EACEF62F080
:10462000D107D12907E177EC6AF0D22F01D02BD046
:10463000C582A8D74FD8DF50C96E0201924B932B89
:104640001200C5AC06D0382A040EACEC62F0C59C52
:104650001200C586080ED36F080C080ED36FC586EE
:10466000080C38D8C9CFDFFF0201924B932B010110
:10467000D10704E0C59A060ED36F03D0C58A6EEC4D
:104680006AF0C5881200000EACEF62F0382A060E00
:10469000ACEF62F00101D35101E147D7010AC8E054
:1046A000030A9AE0010AB5E0070AEDE0010AC9E051
:1046B000030AD3E0010AE7E00F0AD3E0020A01E1AE
:1046C00064D7010A01E176D7E1D7C551D926C65191
:1046D000DA22120092C2D9FF93C2DAFF120002015D
:1046E000B9A506D0800E0001A96F030EA86F030CB8
:1046F000B9C2ABF0030E0001AB1705E0800EA96F45
:10470000040EA86F040C0201AE5109E1400E000135
:10471000AA6505D0800EA96F020EA86F020C8A86CA
:104720000201BD517CEC6CF07EEC21F09FEC0BF0B3
:104730000201AE051EE1AAC062F0220EDFEC69F0B4
:104740000A0E5DEC68F0B76FF00EB717B787B7C009
:1047500062F00A0EDFEC69F0400E0001626FDFECE0
:1047600069F07BEC21F0DFEC69F094D8DEEC37F0F7
:1047700008D08CEC21F0DFEC69F07BEC21F0DFEC71
:1047800069F00201AE5105E1AAC062F0000EDFEC53
:1047900069F01EEC6EF0800E70EC6DF00001B86BED
:1047A0000BD0B851A825D96E000EA921DA6EDF50C2
:1047B00070EC6DF00001B82BAA51B85DF2E31CEC6F
:1047C0006EF00201B981E70EB91777EC65F0030EC0
:1047D000DEEC37F000016D6B6E6B0A0E6F6F706B65
:1047E0000201BD51EEEC61F00201BD51CFEC51F080
:1047F0006FEC21F045E0C35103E175EC21F00BE3D0
:1048000057EC21F0C0EC37F013EC4DF00C0E3CD817
:10481000E82EFDD71DD0C0C2ABF0C1C2ACF0C2C201
:10482000ADF0C3C2AEF00C0ED8900001AB37AC3780
:10483000AD37AE37E82EF8D7ABC060F0ACC061F052
:10484000ADC062F0AEC063F0EFEC15F013EC4DF0CC
:1048500060C0B3F061C0B4F062C0B5F063C0B6F040
:10486000B3C06DF0B4C06EF0B5C06FF0B6C070F0FC
:104870000201BF51EEEC61F00201BF51CFEC51F0EB
:104880000001A86BA96B1200D890603761376237BE
:1048900063371200AEC265F0010E0001666F010CB5
:1048A0007BC096F27CC097F27DC098F27EC099F2F0
:1048B000A80E02019A6F610E9B6F9C6B9D6B500E50
:1048C0009E6FC30E9F6FA06BA16B010EAE6F070EA4
:1048D000B06F010EB16FB76FB86BA36B080EA26F0C
:1048E0000C0EAF6F010EB26FB36FB66BC10EA56F3A
:1048F000940EA66FC10EA76F030EAD6F340EA46F9A
:10490000B96BBA6B79C0BBF27AC0BCF2B46BB56B51
:10491000800EC86FC96F980EC06F3A0EC16FC26B20
:10492000C36B020ECA6F0B0ECB6F120ECC6FC56B32
:10493000C66BC45123E18CEC5FF00201BD6F8CECBF
:104940005FF00201BE6F8CEC5FF00201BF6FEC0EF6
:104950000001606FC40E616F626B0201BE510DEC0D
:1049600061F06C0E606FC30E616F626B0201BF512C
:104970000DEC61F0010E0201C46F0BD0BD517CEC57
:104980006CF00201BE517CEC6CF00201BF517CEC7A
:104990006CF063EC64F0000E0001656F010E666F51
:1049A000DEEC37F04FD831EC36F0420EA5EC0DF0CE
:1049B000DFEC69F03B0E5DEC68F07F6F7FBBFAD7F0
:1049C000230E626F0C0EDFEC69F01E0E0001626FA9
:1049D0000D0EDFEC69F0AA0E0001626F1F0EDFEC16
:1049E00069F08F0E0001626F350EDFEC69F0000197
:1049F0006269320EDFEC69F0400E0001626F310E29
:104A0000DFEC69F0010E0001656F666F000EDEECF1
:104A100037F093866186F19E0001806B05D081A6F8
:104A200002D0939603D0802B80AFF9D76196F18E98
:104A30006269230EDFEC69F0420E5DEC68F0020162
:104A4000C76F120096C26DF097C26EF098C26FF0F9
:104A500099C270F01200EFC0D9FFF0C0DAFFDECFCC
:104A6000F3F0DDCFF4F0000120EE02F0C8D8DECF85
:104A7000F6F0DDCFF7F0010EF56FF969F3C0C5F080
:104A8000F4C0C6F0DEEC39F0F86FF6C0AEF0F7C057
:104A9000AFF0010EB06FB16F3FEC3AF0C2EC4DF0E9
:104AA000000908E0F6C066F0F7C067F06EEC42F06F
:104AB0006651F96FF8AFF9BF92D0F56B6CD0F95130
:104AC00002E189908CD089808AD0F95102E18992E3
:104AD00086D0898284D0F95102E1899480D089847A
:104AE0007ED0F95102E189967AD0898678D0F95141
:104AF00002E1899874D0898872D0F95102E1899ACB
:104B00006ED0898A6CD0F95102E18D9068D08D8089
:104B100066D0F95102E18D9262D08D8260D0F95158
:104B200002E18C945CD08C845AD0F95102E18D94CE
:104B300056D08D8454D0F95102E18B9A50D08B8A93
:104B40004ED0F95102E18C9A4AD08C8A48D0F95162
:104B500002E18C9E44D08C8E42D0F95102E18C9CB3
:104B60003ED08C8C3CD0F95102E1899E38D0898EA0
:104B700036D0F95102E1899C32D0898C30D0F9517C
:104B800002E18A9C2CD08A8C2AD0F95102E18A9EBB
:104B900026D08A8E24D0F85192E0010A96E0030ACA
:104BA0009AE0010A9EE0070AA2E0010AA6E0030AD1
:104BB000AAE0010AAEE00F0AB2E0010AB6E0030A79
:104BC000BAE0010ABEE0070AC2E0010AC6E0030A31
:104BD000CAE0010ACEE01F0AD2E0010AD6E0F55190
:104BE000B4EC26F0DECFF1F0DDCFF2F020EE06F0EF
:104BF00006D8F1C0DEFFF2C0DEFFDD6A1200EF5121
:104C0000D926F051DA221200EFC0D9FFF0C0DAFF46
:104C1000DECFF3F0DDCFF4F0010E0001F56FF769A0
:104C2000F3C0C5F0F4C0C6F0DEEC39F0F66FF6BFA5
:104C300080D05AD0000E80B0010EF76F79D0000EF0
:104C400080B2010EF76F74D0000E80B4010EF76FC2
:104C50006FD0000E80B6010EF76F6AD0000E80B8DC
:104C6000010EF76F65D0000E80BA010EF76F60D0AD
:104C7000000E84B0010EF76F5BD0000E84B2010EFF
:104C8000F76F56D0000E83B4010EF76F51D0000EAF
:104C900084B4010EF76F4CD0000E82BA010EF76F8C
:104CA00047D0000E83BA010EF76F42D0000E83BECC
:104CB000010EF76F3DD0000E83BC010EF76F38D0A8
:104CC000000E80BE010EF76F33D0000E80BC010EC7
:104CD000F76F2ED0000E81BC010EF76F29D0000EA9
:104CE00081BE010EF76F24D0F651A4E0010AA7E0BF
:104CF000030AAAE0010AADE0070AB0E0010AB3E046
:104D0000030AB6E0010AB9E00F0ABCE0010ABFE0FD
:104D1000030AC2E0010AC5E0070AC8E0010ACBE0C5
:104D2000030ACEE0010AD1E01F0AD4E0010AD7E06D
:104D3000F56BF55109E0F55117D8DECFF1F0DDCF75
:104D4000F2F01FD8DD6A120017D8F751A76FA86BD1
:104D5000A7BFA80721D8F7EC43F0A60EF16F060E07
:104D6000F26F0FD8A3EF3DF0020D4E0EF324D96E73
:104D7000020EF420DA6E1200A60EA56F060EA66FC4
:104D8000120020EE06F0EF51D926F051DA22F1C0E0
:104D9000DEFFF2C0DEFF1200AA6B0A0EA96F0A0C3A
:104DA000ACD8DF50A66F9E4B9F2BA7D8FF0EDE140A
:104DB000A26FFF0EDE14A36FFF0EDE14A46F000EB1
:104DC000DE14A56FA2C092F0A3C093F0A4C094F02B
:104DD000A5C095F0640E2EEC09F0CDEC5BF092C00E
:104DE000A2F093C0A3F094C0A4F095C0A5F0030E68
:104DF0009E27000E9F2381D8DF50A16F9E4B9F2BD3
:104E0000606BA651C1EC69F000091DE1A2C060F021
:104E1000A3C061F0A4C062F0A5C063F00DEC3BF04C
:104E2000000902E065D805E19BEC18F07AEC18F077
:104E3000DF8EA151E5EC63F0000905E19BEC18F071
:104E40007AEC18F0DF8C9BEC18F07AEC18F0DFAEFF
:104E500040D09BEC18F07AEC18F0DFAC3AD02CEE96
:104E6000E4F0100EDF6018D043D811E037D8CBEC57
:104E700063F0A1C060F0A651D7EC3BF043D875ECCD
:104E800066F0010E606FA65172EC3BF021D0656BAD
:104E9000A65191EC62F01CD02BD815E01FD8100F52
:104EA000CBEC63F0A1C060F0A651100FD7EC3BF043
:104EB00029D8100F75EC66F0010E606FA651100F27
:104EC00072EC3BF005D0656BA651100F91EC62F0CF
:104ED0001ED89EC09EF09FC09FF01200A2C060F03E
:104EE000A3C061F0A4C062F0A5C063F0A651120097
:104EF000A251A311A411A51112009EC0D9FF9FC0F9
:104F0000DAFF1200616B630E606FA65112002BEE88
:104F1000F9F0DF861200B2D89E4B9F2BAD5182EC88
:104F200068F0F9E2A96BAA6BAB6BAC6BA86B2D0EAA
:104F3000AD1906E1010EA86FA1D89E4B9F2B03D09F
:104F40002B0EAD19F9E0300EAD191DE197D89E4B2F
:104F50009F2BA251A31104E0100EA219A3110DE181
:104F6000780EAD1903E0580EAD1907E1A36B100ED2
:104F7000A26F84D89E4B9F2B06D0A251A31103E1B0
:104F8000A36B080EA26FA251A31103E1A36B0A0E3B
:104F9000A26FAD51FEEC67F006E3AD5149EC6BF04A
:104FA000C90FAD6F06D0AD51A3EC69F031E3300EFF
:104FB000AD5FAD51A46FA56BA251A45DA551800A50
:104FC000A66FA351800AA65923E2A2C092F0A3C003
:104FD00093F0000E93BFFF0E946F956FA9C096F0EB
:104FE000AAC097F0ABC098F0ACC099F0CDEC5BF0E4
:104FF000AD519225A96F000E9321AA6F000E942146
:10500000AB6F000E9521AC6F39D89E4B9F2BC1D74B
:10501000A051A1110EE0FF0E9E25A46FFF0E9F214F
:10502000A56FA0C0D9FFA1C0DAFFA4C0DEFFA5C054
:10503000DDFFA8511AE0A9C0A4F0AAC0A5F0ABC03A
:10504000A6F0ACC0A7F0A41FA51FA61FA71FA42BE6
:10505000000EA523A623A723A4C09EF0A5C09FF001
:10506000A6C0A0F0A7C0A1F0000CA9C09EF0AAC0E5
:105070009FF0ABC0A0F0ACC0A1F012009EC0D9FF61
:105080009FC0DAFFDF50AD6F12000001B46FE9CCB2
:10509000B3F0B40528E19ED8CCEC40F0B56FB55123
:1050A00053E16DD8DFA8000E666F00016605D8A435
:1050B00003D0020E686F01D0686B4DD8616F90D835
:1050C000D8B002D0615101D06051676F91D8616F43
:1050D0008BD8D8B002D0615101D060518CD866D83D
:1050E000CFEC5CF031D0020EE8CFE9FC73D8CCEC09
:1050F00040F0B56F0A0EC5EC6DF0070E61EC6DF077
:105100000001B55121E13BD8DFA8000E666F000118
:105110006605D8A403D0020E686F01D0686B1BD857
:10512000616F5ED8D8B002D0615101D06051676F15
:105130005FD8616F59D8D8B002D0615101D06051A9
:105140005AD834D8CFEC5CF02CEEE9F0B3C0DFFFD6
:105150000001B55112002CEEF9F0DF50626F636B65
:10516000F20E6225D96E030E6321DA6EDF50646F92
:10517000E9CC65F06451655D606F685112002CEEFA
:10518000E4F0B6C0DFFFB651120DBC0EF324D96EA9
:10519000080EF420DA6EDECF09FCDECF0AFCDECF8B
:1051A0000BFCDDCF0CFC2BEEFAF0010CB651120D0E
:1051B000B80EF324D96E080EF420DA6EDECF73F049
:1051C000DECF74F0DECF75F0DECF76F02CEEE9F0B6
:1051D000DF501200B4C0A7F0B60EA86FA96B100C78
:1051E00000016151605D120000016051615D1200BB
:1051F00067C060F0050C626F62C00DFC1200A26F08
:10520000210E0001A219D8A41200020EA76FA86BEC
:10521000A36BA46BA56BA66BA30E606F616BA8510B
:10522000030D9EC0A0F09FC0A1F0F350A027F45042
:10523000A1230D0EA025626F000EA121636FCBECA0
:1052400051F07AEC56F0A3C092F0A4C093F0A5C040
:1052500094F0A6C095F0640E2EEC09F0CDEC5BF056
:1052600092C0A3F093C0A4F094C0A5F095C0A6F09E
:10527000A351A411A511A61146E0A3C060F0A4C0DB
:1052800061F0A5C062F0A6C063F00DEC3BF0000930
:105290003FE152D8F35044D8A3C0DEFFA4C0DEFFE4
:1052A000A5C0DEFFA6C0DEFF47D8040EA027000E73
:1052B000A123F35035D84DD83FD845D831D8DF5049
:1052C0000F0B5009DF6E38D83ED82AD8F00EDF1603
:1052D00033D80A0EA027000EA123F35021D8630E65
:1052E000DE6EDD6A29D8110EA027000EA123F3502F
:1052F00017D8DF68010E656FA851A72591EC62F001
:1053000087EC27F005D0656BA851A72591EC62F0DA
:10531000A82B040EA8657CD72BEEF9F0DF86040CD1
:10532000A027F450A123A751120DF350A025D96E48
:10533000F450A121DA6E1200A851120DB80EA06F20
:10534000080EA16F1200090EA027000EA123F35032
:105350001200DE6ADE6ADE6ADD6A1200050EE126F0
:10536000000EE2222BEEF9F0DFB027D02BEEF9F0A1
:10537000DFA423D0FF0EE36A09D0FF0EE35087ECD1
:1053800020F0020EDE1807E0FF0EE32A2CEEA1F05B
:10539000FF0E7CD8F2E32CEEA1F0FF0EE350DE18F6
:1053A0000CE19BEC18F087EC20F0020EDF6E31EC84
:1053B0001CF0DF6002D026EC1CF02BEEF9F0DFA42D
:1053C00034D05FD802E157D80FE34CD87D0E0001EE
:1053D000C0EC37F013EC4DF0C5EC37F00C0E51EC8F
:1053E0001EF0E82EFCD707D023D8C0EC37F013EC22
:1053F0004DF0C5EC37F0FB0E50C0E3FFFC0E51C082
:10540000E3FFFD0E52C0E3FFFE0E53C0E3FFE15089
:10541000FB0FD96EE250CEEC37F053EC2EF0EEECF1
:1054200061F053EC2EF0CFEC51F0FA0EDAEF37F0DA
:10543000D6CC50F0D7CC51F0D8CC52F0D9CC53F0D8
:105440000C0ED8905036513652365336E82EF9D7D6
:1054500050C060F051C061F052C062F053C063F0C0
:1054600000017D0CD6CC60F0D7CC61F0D8CC62F0D6
:10547000D9CC63F01200DE28FF0EDE580F0EDE5886
:1054800012002CEED6F0030EDB501200E3CF48F0F2
:10549000DE50485C1200E6522BEEF9F0DFB08BD004
:1054A00008CCE8FF020A02E1A3EC6AF088D861E3C5
:1054B000D8EC4CF0536E0D0E5326FF0E53C0E3FF95
:1054C0002CEEDEF0E350496E4A6ADE50495CDE5055
:1054D0004A583DE3010E45EC28F0000934E1D2ECD6
:1054E0004EF06FEC23F0D9EC4EF02DE1F5EC15F019
:1054F0000109DF6EE3CCE8FF010FE8CFE3FC2CEEFF
:10550000E3F0DFB08EEF62F02CEEE9F0DF5002E165
:105510008EEF62F02CEEE3F0DF50496E4A6A2CEE1B
:10552000E1F0DF50526E536A522A000E5322495066
:10553000521805E14A50531802E18EEF62F0DCEC9C
:1055400044F08EEF62F0CDEC53F08EEF62F058EC49
:105550006CF00101BB51BC1102E18EEF62F0FAEC7C
:1055600015F0040EC56F02D88EEF62F00500FA6EDA
:105570001AD025D802E38EEF62F02BEEF9F0DFB0FF
:105580008EEF62F058EC6CF00101BB51BC1102E1EE
:105590008EEF62F0000EFAEC15F0C56B02D88EEFBC
:1055A00062F00500FA6E0101BB51FD6EBC51FE6E4A
:1055B000FF6AFA50120058EC6CF08EEF62F02CEE9D
:1055C000E3F00CEEE1F0DE50EE5C1200EFC0D9FF2C
:1055D000F0C0DAFFDECFF3F0DDCFF4F0010E000112
:1055E000F56FF3C0C5F0F4C0C6F0DEEC39F0F66F2D
:1055F000F6BF5DD0730EF62578EC11F02DEC49F076
:10560000F5A455D00001F56B38D0000E2FEC63F0F7
:105610002FD0010E2FEC63F02BD0020E2FEC63F095
:1056200027D0030E2FEC63F023D0040E2FEC63F091
:105630001FD0050E2FEC63F01BD0060E2FEC63F08D
:1056400017D0160E2FEC63F013D0070E2FEC63F07B
:105650000FD0110E2FEC63F00BD0190E2FEC63F06E
:1056600007D01B0E2FEC63F003D01A0E2FEC63F063
:1056700065C0F7F066C0F8F01AD0F651C6E0010A2E
:10568000C8E0030ACAE0010ACCE0060ACEE0030A39
:10569000D0E0010AD2E00F0AD4E0010AD6E0030A02
:1056A000D8E0010ADAE0070ADCE0010ADEE00001E6
:1056B000F5510AE0F551B4EC26F0DECFF1F0DDCF84
:1056C000F2F013D8DD6A1200BCEC26F0F7C0A7F0A8
:1056D000F8C0A8F0CCEC26F0F7EC43F0A60EF16F82
:1056E000060EF26F02D8A3EF3DF020EE06F0EF5168
:1056F000D926F051DA22F1C0DEFFF2C0DEFF12003F
:10570000010E0001F36F89D85ED87DEC63F00009CB
:1057100049E06CD858D87DEC63F0000943E07DD8AF
:10572000DECF9EF055D88BEC27F09E51F46F20EE23
:1057300002F06AD864EC37F04BD88BEC27F09E511E
:10574000F56F6BD8DECFF1F058D84AD839EC5DF060
:10575000020E6019611126E1F45108E163D85DD8A9
:1057600057D837EC49F0605161111CE13FD8DECFCA
:10577000F1F043D835D839EC5DF0020E60196111B3
:1057800011E1F55108E14ED831D842D837EC49F053
:105790006051611107E1F5C062F0F451DFEC69F08E
:1057A0000001F36BF35163EC48F0DECFF1F0DDCF95
:1057B000F2F020EE06F028D8DA22F1C0DEFFF2C0C7
:1057C000DEFFDD6A1200DECF66F0DDCF67F012008B
:1057D000DDCF9FF0A06BA16BA36B100EA26F100C1E
:1057E00060516111D8A4200E626F120020EE02F009
:1057F000EF51D926F051DA221200DDCFF2F0F1C0DC
:1058000060F0F2C061F01200EF51D926F0511200A1
:10581000DECF62F0DDCF63F01200EFC0D9FFF0C041
:10582000DAFF1200490E606FFF0E616F120007EC85
:1058300066F0D1EC6DF0C20E0001646FC50E656FAD
:1058400087EC5CF0BDEC6DF0F28EF28C010E000185
:10585000616FB70E606FB0EC6AF004015A6F5B6B5A
:10586000010E0001616FB80E606FB0EC6AF00401C8
:10587000596F59515B275A2902E15B292DE0B4EC9D
:105880000DF0AAC055F4ABC056F4040155515A1995
:1058900003E156515B192CE0020E8FEC21F053D836
:1058A0006DEC52F04AD8ACEC64F052D866EC6DF076
:1058B00004015C6B5D6B5CC460F05DC461F0000171
:1058C00062692FEC5FF004015C4B5D2BB90E5C5DEF
:1058D000010E5D590DE2EFD7020E8FEC21F033D8A7
:1058E0006DEC52F02AD8ACEC64F032D866EC6DF076
:1058F0001ED890EC44F0C2EC1AF039EC5DF060C0B8
:1059000057F461C058F4FDEC1AF0D8A4200E686F6B
:1059100057C469F058C46AF026EC4CF041EC60F0D2
:10592000C7EC62F0FCEC3CF039EC52F0F7D7A60E75
:1059300000016B6F060E6C6F1200450E00016B6F5D
:10594000040E6C6F1200450E6F6F040E706F120024
:10595000616B010E606F010CB46BB56BA2390F0B5C
:10596000B36FAA51010DF350AB27F450AC23010ED5
:10597000B46F2FD057D81CEC3FF06DD837EC68F0DF
:105980000001B56BB451AE6FAF6BAE3BAF3BF00EE9
:10599000AF17AE510F0BAF13F00EAE17A0C0B0F0A3
:1059A000A1C0B1F0AE51B027AF51B123B551B0276E
:1059B000000EB123F00EB025D96EFF0EB121DA6EC4
:1059C000DF50B26F51D8B2193DD80F0EB565DAD796
:1059D000B42BB451B35DCEE24FD8D8B40F0C22D85B
:1059E0001CEC3FF038D837EC68F00001B56B15D0EF
:1059F000B351100DA0C0AEF0A1C0AFF0F350AE2770
:105A0000F450AF23B551AE25D96E000EAF21DA6E3A
:105A1000DF50B06F29D8B01915D82ED8AE51B55D6A
:105A2000E7E31200A4C06BF0A5C06CF0A6C06DF057
:105A3000A7C06EF0B4C06FF0010E706FADC071F012
:105A4000A3511200ABC0D9FFACC0DAFFDF6EAB4B85
:105A5000AC2BB52B1200CD0E8C6F020E8D6FA8C033
:105A60008EF0A9C08FF01200CD0EB525D96EDA6A7E
:105A7000020EDA22DF501200A2C0AEF00F0EAE17F7
:105A80000F0C6051D96EDA6A0D0E60D8635186D85A
:105A90000E0E5CD8D92A635181D80F0E57D8020E4A
:105AA000D92663517BD80C0E51D8030ED9266351E9
:105AB00075D84550DF1A7F0E45640CD01B0E45C0CB
:105AC00061F0626BD890613762376119646F62511F
:105AD000656F05D0D8904534646F656B653764C0D9
:105AE00045F06051D96EDA6A53D8040E43D8D92AEA
:105AF0004FD8050E3FD8020E44D8060E3BD8030EF1
:105B000040D8070E37D8040E3CD8080E33D8050EFF
:105B100038D8090E2FD8060E34D80A0E2BD8070E07
:105B200030D80B0E27D8080E2CD80C0E23D8090E0F
:105B300028D80D0E1FD80A0E24D80E0E1BD80B0E17
:105B400020D80F0ED9266151DF1A1200D926DF5056
:105B5000616F626B730E6125F66EF50E6221F76E52
:105B6000F86A000EF8220800F5CF63F06051D96E94
:105B7000DA6A1200D9266151DF1A6051D96EDA6AE9
:105B80001200D926DF50616F6051D96EDA6A1200B7
:105B9000DF50616F6051D96EDA6A1200DF1A60510E
:105BA000D96EDA6A12009EC092F09FC093F0946B97
:105BB000956BE80E966F030E7AD8CDEC5BF092C031
:105BC000D6FC93C0D7FC94C0D8FC95C0D9FC9E519C
:105BD0009F111EE168D87CEC6CF02BEEF9F0DF949D
:105BE000A86B10D0A85187EC20F0020EDE1809E156
:105BF000A85187EC20F0DF68A1CCE8FFFF0FE8CFC9
:105C0000A1FCA82B2CEEA1F0DE50A85DEBE3120066
:105C10002BEEF9F0DF842BEEF8F0DFA8120041EC58
:105C20002AF003E13BEC2AF00CE332EC2AF0EFEC33
:105C300015F013EC4DF00C0E44EC24F0E82EFCD7DC
:105C40001CD0D6CCA0F0D7CCA1F0D8CCA2F0D9CC27
:105C5000A3F00C0ED890A037A137A237A337E82EB7
:105C6000F9D7A0C060F0A1C061F0A2C062F0A3C0EB
:105C700063F0EFEC15F013EC4DF060C0A4F061C0E0
:105C8000A5F062C0A6F063C0A7F0A4C06DF0A5C0E7
:105C90006EF0A6C06FF0A7C070F005D8EEEC61F012
:105CA00002D8CFEF51F02CEEF1F0DF501200976FD9
:105CB000986B996B120080D8DF50A56F9E4B9F2B7D
:105CC0007BD8FF0EDE14A16FFF0EDE14A26FFF0E55
:105CD000DE14A36F000EDE14A46FA1C092F0A2C068
:105CE00093F0A3C094F0A4C095F0640E2EEC09F0DC
:105CF000CDEC5BF092C0A1F093C0A2F094C0A3F0F1
:105D000095C0A4F0030E9E27000E9F23A1C060F053
:105D1000A2C061F0A3C062F0A4C063F00DEC3BF040
:105D2000000905E19BEC18F07AEC18F0DF86A5512C
:105D30000F0BE9EC68F0000905E19BEC18F07AEC38
:105D400018F0DF88A539070BB2EC6BF0000905E10C
:105D50009BEC18F07AEC18F0DF8A9BEC18F07AECE8
:105D600018F0DFA821D09BEC18F07AEC18F0DFA631
:105D70001BD09BEC18F07AEC18F0DFAA15D0A539EF
:105D8000070BA06FA0C0F9FCA1C060F0A2C061F039
:105D9000A3C062F0A4C063F0A5510F0B646F89EC3F
:105DA0006AF02BEEF9F0DF8E010E0101D96F9EC073
:105DB0009EF09FC09FF0010C9EC0D9FF9FC0DAFFEC
:105DC0001200010E0001F36F72D87BD8F1C060F0B1
:105DD000F2C061F0F0EC2BF039EC5DF060C0F9F04E
