:040000000CD0000020
:020008007FD1A6
:100018007FD194908B80730ED36EF86A030EF76EBF
:10002800000EF66EFC0E0B6EFE0E0A6E15EC01F05D
:10003800FE0EF66EFF0EF76E0900F550001804E18B
:100048000900F55001184AE03CD80400ACA2FDD7DD
:10005800B880B8A005D0B8AEFCD7B890B89EF5D790
:10006800AE50AE5000EE09F0090E026E22D80550CF
:10007800EE6EE9500B0A0BE10950020A06E009503E
:10008800050A03E00950070A02E10A500226022E77
:10009800EDD726D8026E550E07D800EE09F0EE50BF
:1000A80003D8022EFCD7D1D704009EA8FDD7AD6E89
:1000B80012000400ABB2FF009EAAFED7AE50056E38
:1000C80012008B8C948C948E0F013A9D3A9F900E5F
:1000D800AB6E260EAC6E080EB86E12008B900CD16B
:1000E8000E50F66EA96E0F50F76E10C0F8FF00EEB6
:1000F80012F00A50026E0950090803E2FF0E096E59
:10010800010CFB6A010EFA6E09441A0FD8B0FA2ADC
:10011800F96E09D044D04BD05AD064D06DD03FD0BE
:1001280076D07FD0FF00010E126E010E136E146A96
:10013800156A166A176A3F0EF86EFF0EF76EFE0E06
:10014800F66E0900F5CF18F00900F5CF19F01A6A14
:100158001B6A400E1C6E400E1D6E200EF86EF76A6C
:10016800F66A0900F5CF1EF009001E38F5101E6E5C
:100178000900F5CF1FF009001F38F5101F6E0900A0
:10018800F5CF20F009002038F510206E0900F5CFD2
:1001980021F009002138F510216E190E120009000E
:1001A800F5CFEEFF022EFBD70A50090F1200EECF53
:1001B800F5FF0D00024E03D0F6503F0BF8E10A00A0
:1001C800840EA66E49D809000252F1E141D0940E7E
:1001D800A66E42D8400EF626E86AF722F822022ECA
:1001E800F6D736D0A66AA680A8CFEEFFA92A022E97
:1001F800F9D70A50090F1200EECFA8FF040EA66E19
:100208002BD8A6B2FED7A92A022EF6D721D0C40E23
:10021800A66EEECFF5FF0C001FD80900022EF7D707
:1002280017D0006A016A0A900A52D8A40B2A09005A
:10023800F55000260900F5500122020E0A5EF7E18A
:100248000B2EF5D700C0EEFF01C0EEFF0B0E12001B
:10025800010E126E0A0E120004000C50A76E0D500B
:08026800A76EA682000012003F
:10030000D7EF01F0FFFFFFFF5E82FACF2AF0FBCFAD
:100310002BF0D9CF2CF0DACF2DF0F3CF2EF0F4CF95
:100320002FF0F2BC9DA005D09EA003D087EC6DF00D
:1003300030D0F2BC9DAA05D09EAA03D008EC57F09D
:1003400028D0F2BC9DA805D09EA803D006EC69F089
:1003500020D0F0B6F0A003D094EC6EF01AD0F0B834
:10036000F0A203D091EC6EF014D0F2B6F2A003D05C
:100370005BEC6DF00ED0F2BC9DA605D09EA603D01E
:1003800024EC21F006D0F2BCA0A603D0A1B6D6EC96
:100390006EF02FC0F4FF2EC0F3FF2DC0DAFF2CC08B
:1003A000D9FF2BC0FBFF2AC0FAFF5E9211003BEF82
:1003B0003BF085EC6EF0020113BF3DEF06F066C125
:1003C000D9FF67C1DAFFDF500101736F7339E8327B
:1003D000070BE80601E0C4D00201295101E0C0D0BA
:1003E00001016805786F1FD0685166250001E96F2B
:1003F000000E010167210001EA6F0101785100013F
:10040000E95D8C6FEA51D8A0EA058D6F4E0E8E6FB4
:10041000020E8F6FDEEC68F0100E0101786502D0DD
:10042000785F01D0786B7851DFE14E0E0001D66F16
:10043000020ED76F66C1D8F067C1D9F001016851CB
:10044000FC0F0001DA6F0EEC5DF0D6C07DF1D7C075
:100450007EF1D8C07FF1D9C080F166C16BF067C171
:100460006CF068C16DF0D9EC61F06BC074F16CC0D8
:1004700075F16DC076F16EC077F101017D5174198F
:1004800009E17E51751906E17F51761903E180512A
:10049000771911E002011331070B050A02E1C2EFDF
:1004A00069F01331070B030AD8A41200C751D8B45E
:1004B0001200C2EF69F002011331070B030A03E1D6
:1004C000B9510FEC6BF066C182F167C183F1010194
:1004D00020EE07F08251D9268351DA22DECF2AF2AC
:1004E000DECF2BF2DECF2CF2DECF2DF220EE0CF0A1
:1004F0008251D9268351DA22DF500F0BDDEC5EF0FA
:10050000010120EE0BF08251D9268351DA22DF3827
:10051000070B0001606F010120EE0BF08251D9261C
:100520008351DA22DF500F0B69EC6AF082C160F070
:1005300083C161F001016851CFEC6EF082C1A0F07F
:1005400083C1A1F0FAEC51F0CAEC3AF00201176B4A
:10055000186B196B1A6B1B6B1C6B1D6B1E6B1200DF
:1005600001017339E832070B030A06E07339E832F8
:10057000070B050A01E07ED302017D6B66C184F1A1
:1005800067C185F1010120EE01F08451D926855122
:10059000DA2202012A51DE1809E12B51DE1806E1A8
:1005A0002C51DE1803E12D51DE1801E063D31BC28C
:1005B00079F11CC27AF11DC27BF11EC27CF1CC51D3
:1005C00001E117D1010120EE06F08451D9268551B1
:1005D000DA2202011B51DE1879E11C51DE1876E1A6
:1005E00079C16BF07AC16CF07BC16DF07CC16EF0AB
:1005F00001016851FC0F00016F6F490E706F010E11
:1006000092EC4EF0F90E606F0A0E616FC30E626FCE
:10061000030E636F656B100E646FFAEC59F0090EF0
:10062000606F0B0E616F66C162F067C163F0FC0E14
:10063000010168250001646F656BFF0E6523FAEC0C
:1006400059F02E0EC86F020EC96FC30ECA6F030E8B
:10065000CB6FF90ECC6F0A0ECD6F010168510C0FF4
:100660000001CE6F26EC16F07D0E606F010E616FFB
:10067000C30E626F030E636F656B040E646FFAEC5A
:1006800059F066C16BF067C16CF068C16DF0D9ECD0
:1006900061F06BC074F16CC075F16DC076F16EC025
:1006A00077F1010174517D1910E175517E190DE149
:1006B00076517F190AE17751801901E0DBD284C1BC
:1006C00060F085C161F02DEC58F0D4D2010120EE2C
:1006D00006F08451D9268551DA22DE5002011B5DD5
:1006E000DE501C5929E2010120EE06F08451D92682
:1006F0008551DA22DECFE9F0DDCFEAF002011B51AD
:100700000001E95F02011C510001EA5BE9510201AD
:10071000765D0001EA510201775902E2158177D036
:10072000010120EE06F08451D9268551DA22DECF70
:1007300079F1DDCF7AF16BD0010120EE06F0845122
:10074000D9268551DA22DF500001E96F100EE92722
:10075000010E02011D250001EA6F000E02011E219B
:100760000001EB6FEC6BED6BE92B05D0D890EA370D
:10077000EB37EC37ED37E92FF9D7EAC069F1EBC079
:100780006AF1ECC06BF1EDC06CF1020176511B25F2
:100790000001E96F020177511C210001EA6F000E90
:1007A00002011D210001EB6F000E02011E2100015C
:1007B000EC6F010169510001E95D01016A5100011D
:1007C000EA5901016B510001EB5901016C51000123
:1007D000EC5901E24FD2010120EE06F08451D926F6
:1007E0008551DA22DECF79F1DDCF7AF17B4B7C2B9C
:1007F0000ED0010120EE06F08451D9268551DA226F
:10080000DECF79F1DDCF7AF1010E0201CC6F02016A
:1008100015A104D0BB510FEC6BF087D079C16BF000
:100820007AC16CF07BC16DF07CC16EF00101685142
:10083000FC0F00016F6F490E706F010E92EC4EF0CD
:10084000F90E606F0A0E616FC30E626F030E636F65
:10085000656B100E646FFAEC59F0090E606F0B0EA9
:10086000616F66C162F067C163F0FC0E010168252B
:100870000001646F656BFF0E6523FAEC59F02E0ED4
:10088000C86F020EC96FC30ECA6F030ECB6FF90E8D
:10089000CC6F0A0ECD6F010168510C0F0001CE6FB5
:1008A00026EC16F07D0E606F010E616FC30E626F55
:1008B000030E636F656B040E646FFAEC59F066C14A
:1008C0006BF067C16CF068C16DF0D9EC61F06BC082
:1008D00074F16CC075F16DC076F16EC077F10101F5
:1008E00074517D1909E175517E1906E176517F1920
:1008F00003E17751801901E0BDD1C46BC36B79C1AD
:100900001BF27AC11CF27BC11DF27CC11EF20201F6
:100910001B290EE11C290CE11D290AE11E2908E111
:10092000BB510FEC6BF002011581050ECCEF59F0B5
:100930001331070B030A03E1BB510FEC6BF0010EFF
:100940000201AE6F84C160F085C161F02DEC58F0FA
:10095000010120EE05F08451D9268551DA22DF50BD
:100960000F0B34E020EE05F08451D9268551DA22B0
:10097000DF500F0B84250001E96F000E0101852176
:100980000001EA6F080EE925D96E000EEA21DA6E41
:10099000DF5020E0080E0101842500017D6F000E6C
:1009A0000101852100017E6F010120EE05F08451D7
:1009B000D9268551DA22DF500F0B00017F6F1EEC24
:1009C00023F07DC066F17EC067F104D0080E662773
:1009D000000E6723010168510001E96FEA6B010114
:1009E00020EE05F08451D9268551DA22DF500F0B15
:1009F0000001EB6FEC6B0C0EEB27000EEC23E951C2
:100A0000EB1904E1EA51EC1901E19BD066C1D9FF71
:100A100067C1DAFFDF5001016D6F664B672B20EE77
:100A200005F08451D9268551DA22DF500F0B0001E1
:100A3000E96FE9510101685DF40F816F20EE05F067
:100A40008451D9268551DA22DF500F0B190F6E6FB2
:100A50006D5125E066C1A0F067C1A1F081050001DC
:100A6000A26F010EA36F1BC2A4F01CC2A5F01DC291
:100A7000A6F01EC2A7F03E0EA86F020EA96F6EC1AF
:100A8000AAF0F90EAB6F0A0EAC6F35EC2EF0FF0E2C
:100A900001016625706FFF0E6721716F56D0685196
:100AA0000001E96FEA6B010120EE05F08451D926BF
:100AB0008551DA22DF500F0B0001EB6FEC6B0D0E4E
:100AC000EB27000EEC23E951EB5DEC51800AED6F52
:100AD000EA51800AED5935E266C1A0F067C1A1F084
:100AE000010181050001A26F010EA36F1BC2A4F0DA
:100AF0001CC2A5F01DC2A6F01EC2A7F02E0EA86F44
:100B0000020EA96F6EC1AAF0F90EAB6F0A0EAC6FA0
:100B100035EC2EF0010120EE05F08451D9268551E7
:100B2000DA22DF500F0B0DE166C17DF067C17EF068
:100B3000810500017F6F1EEC23F07DC066F17EC051
:100B400067F10101816B706B716B010E0201AE6F79
:100B5000A66BA76BC46B1199148111A14DD0010133
:100B600020EE05F08451D9268551DA22DFAA9FEFC5
:100B700055F002011191010E01016F6FF10E02019A
:100B800013170101B451B51116E00201119B70C198
:100B900090F071C191F081C192F06FC193F001D8D2
:100BA0000AD00500FA6E0101B451FD6EB551FE6E1A
:100BB000FF6AFA5012000201149113B911BB12001E
:100BC00011B302D011A71200010E0001756F720E51
:100BD000766F010E776F0201C35185EC3CF000097E
:100BE000D8A41200000EE26FE36FE46FE56FF6EC3D
:100BF00044F0020111971200010E01016F6FF10E16
:100C0000020113170101B451B51116E00201119B45
:100C100070C190F071C191F081C192F06FC193F0F9
:100C200001D80AD00500FA6E0101B451FD6EB5512C
:100C3000FE6EFF6AFA501200020113B911BB1200D6
:100C400011B302D011A71200010E0001756F720ED0
:100C5000766F010E776F0201C35185EC3CF00009FD
:100C6000D8A41200000EE26FE36FE46FE56FF6ECBC
:100C700044F0BFD7000ECCEF59F00101B451B511CB
:100C8000D8B412008EEC6EF00001E96FE9B712D013
:100C900066C190F067C191F068C192F0030E936F46
:100CA0000500FA6E0101B451FD6EB551FE6EFF6A8A
:100CB000FA50120066C190F067C191F068C192F0DD
:100CC000020E936F0500FA6E0101B451FD6EB5512D
:100CD000FE6EFF6AFA501200DDC165F0000E666F0D
:100CE0005EEC3DF0C5C16DF0C6C16EF0C7C16FF0DE
:100CF000C8C170F017EC3CF00101E051D9EC3FF0B5
:100D00000101DD0501E0B6D1D3C162F0390ED4ECAA
:100D10006AF0E7C17BF0010E00017B170101D8905A
:100D2000E63500017C6F0101DF39F00B00017C1119
:100D30007B11626F1D0ED4EC6AF07AC07BF0030E5B
:100D400000017B17E1C17CF0010E7C17D8907C3745
:100D5000D8907C370101DE39F00B00017C117B114A
:100D6000626F1E0ED4EC6AF00101E351E41160E001
:100D7000E3C17EF0E4C17FF00001806B816B42D063
:100D80007EC060F07FC061F080C062F081C063F01F
:100D90007D0E0001646F656B666B676BB3EC50F0A2
:100DA00022D07EC060F07FC061F080C062F081C060
:100DB00063F0FA0E0001646F656B666B676BB3ECF2
:100DC00050F011D07EC060F07FC061F080C062F052
:100DD00081C063F0F40E0001646F010E656F666BF5
:100DE000676BB3EC50F060C07EF061C07FF062C012
:100DF00080F063C081F00FD000017E6B7F6B806B51
:100E0000816B09D00101DF51070ABAE00F0AC9E07E
:100E1000010AD8E0F1D70101DE2900017B6F05D07E
:100E2000D890813380337F337E337B2FF9D705D041
:100E300000017E6B7F6B806B816B7EC062F0240E45
:100E4000D4EC6AF079C062F01F0ED4EC6AF0260E82
:100E500066EC69F0826F0C0E0101DE1906E1070EE7
:100E6000DF1909E0080EDF1906E00B0EDE1906E1B6
:100E7000070EDF1903E10001828702D0000182978B
:100E8000828582C062F0260ED4EC6AF0310E66ECE8
:100E900069F0826FF80E8217030E821382C062F02F
:100EA000310ED4EC6AF00A0E0001626F370ED4ECFA
:100EB0006AF0120E0101F61929E1070EDF1903E0AD
:100EC000080EDF1915E1310E66EC69F0826F829F22
:100ED00082C062F0310ED4EC6AF0400E0001626F05
:100EE0002F0ED4EC6AF00001626B300ED4EC6AF085
:100EF000090E0101DF190AE1310E66EC69F0826F1B
:100F0000828F82C062F0310ED4EC6AF0330E66EC50
:100F100069F0826F829D8281E5C17BF0010E7B17B3
:100F2000060E7C6FD8907B377C2FFCD77B518213C9
:100F300082C062F0330ED4EC6AF0E5C17BF0010EA2
:100F400000017B17D8907B37D8907B35FF0A1D0BAB
:100F5000826F82C062F03B0ED4EC6AF00101D25184
:100F60000001626F200ED4EC6AF0D1C162F0210E54
:100F7000D4EC6AF00001626B0D0ED4EC6AF0000153
:100F8000626B0E0ED4EC6AF00001626B0F0ED4ECB3
:100F90006AF0120E0101F61968E1090EDF191EE16F
:100FA000800EC55D130EC659610EC759330EC85960
:100FB00015E3C505F70EC659CB0EC7593C0EC859E7
:100FC0000DE2020E0001626F360ED4EC6AF0640E80
:100FD0000001626F3A0ED4EC6AF028D0090EDF19D6
:100FE0001FE1800EC55D1A0EC659700EC759180E46
:100FF000C85916E3410EC55DDD0EC6594A0EC759E4
:101000001F0EC8590DE2020E0001626F360ED4ECBD
:101010006AF07F0E0001626F3A0ED4EC6AF006D0DF
:10102000030E0001626F360ED4EC6AF0090E010166
:10103000DF190FE1E5050DE1650E0001626F3A0E63
:10104000D4EC6AF0190E0001626F3B0ED4EC6AF02A
:101050000CD0650E0001626F3A0ED4EC6AF01D0EE2
:101060000001626F3B0ED4EC6AF000016269120E5F
:10107000D4EF6AF0C9C16DF0CAC16EF0CBC16FF098
:10108000CCC170F0D6EC56F0CDC16DF0CEC16EF093
:10109000CFC16FF0D0C170F06BEC57F00101D251AD
:1010A0000001626F250ED4EC6AF0D1C162F0260E09
:1010B000D4EC6AF00A0E66EC69F0826F9F0E82171C
:1010C0000101F839E846E00B0001821382C062F0AA
:1010D0000A0ED4EC6AF0C80E0001826F0101E151E2
:1010E00002E00001828982C062F0300ED4EC6AF026
:1010F00000017D6B0ED0D40E7D25D96EDA6A010E0B
:10110000DA22DF50626F7D51280FD4EC6AF00001C3
:101110007D2B0101DC5100017D5DEDE30101DC511E
:1011200008E0DC0510090001626F270ED4EC6AF0BC
:1011300005D00001626B270ED4EC6AF000016269F1
:101140003E0ED4EC6AF0000162693F0ED4EF6AF003
:101150003C6A3D6A0001616B606B0EEC6CF0010152
:10116000BE6F3C4A3D2ABE5102010B27000E0C23E4
:101170000101BE511BEC6EF0BEC176F00101B86BEF
:10118000B96BB9511EE1040EB85D1BE2B851300FC6
:10119000D96EDA6A3CC060F03DC061F00EEC6CF0D4
:1011A000DF6E3C4A3D2A0101B851300FD96EDA6A30
:1011B000DF5002010B27000E0C230101B84BB92BA5
:1011C000E0D73CC060F03DC061F00EEC6CF0010176
:1011D000BE6F3C4A3D2ABE5102010B27000E0C2374
:1011E00030C06EF031C06FF032C070F033C071F0BB
:1011F000BEC172F000EC60F00101B86BB96BB9517F
:101200001EE1040EB85D1BE2B851300FD96EDA6AE8
:101210003CC060F03DC061F00EEC6CF0DF6E3C4A0B
:101220003D2A0101B851300FD96EDA6ADF50020150
:101230000B27000E0C230101B84BB92BE0D730C0AF
:1012400060F031C061F032C062F033C063F031EC65
:101250006DF00101B86BB96BB9511EE1040EB85DB8
:101260001BE2B851300FD96EDA6A3CC060F03DC065
:1012700061F00EEC6CF0DF6E3C4A3D2A0101B85182
:10128000300FD96EDA6ADF5002010B27000E0C23F3
:101290000101B84BB92BE0D730C060F031C061F02C
:1012A00032C062F033C063F03AEC6DF00101B86B0C
:1012B000B96BB95122E1080EB85D1FE2B30EB82533
:1012C000D96E030EB921DA6E3CC060F03DC061F00A
:1012D0000EEC6CF0DF6E3C4A3D2AB30E0101B825DE
:1012E000D96E030EB921DA6EDF5002010B27000E12
:1012F0000C230101B84BB92BDCD7000176A106D035
:10130000B30E6B6F030E6C6F39EC68F00101B86BB4
:10131000B96BB95122E1080EB85D1FE2B30EB825D2
:10132000D96E030EB921DA6E3CC060F03DC061F0A9
:101330000EEC6CF0DF6E3C4A3D2AB30E0101B8257D
:10134000D96E030EB921DA6EDF5002010B27000EB1
:101350000C230101B84BB92BDCD7000176A306D0D2
:10136000B30E6B6F030E6C6F78EC68F00101B86B15
:10137000B96BB95122E1100EB85D1FE2B30EB8256A
:10138000D96E030EB921DA6E3CC060F03DC061F049
:101390000EEC6CF0DF6E3C4A3D2AB30E0101B8251D
:1013A000D96E030EB921DA6EDF5002010B27000E51
:1013B0000C230101B84BB92BDCD7000176A506D070
:1013C000B30E6B6F030E6C6F63EC68F00101B86BCA
:1013D000B96BB95122E1100EB85D1FE2B30EB8250A
:1013E000D96E030EB921DA6E3CC060F03DC061F0E9
:1013F0000EEC6CF0DF6E3C4A3D2AB30E0101B825BD
:10140000D96E030EB921DA6EDF5002010B27000EF0
:101410000C230101B84BB92BDCD7000176A906D00B
:10142000B30E6B6F030E6C6F24EC68F00101B86BA8
:10143000B96BB95122E1100EB85D1FE2B30EB825A9
:10144000D96E030EB921DA6E3CC060F03DC061F088
:101450000EEC6CF0DF6E3C4A3D2AB30E0101B8255C
:10146000D96E030EB921DA6EDF5002010B27000E90
:101470000C230101B84BB92BDCD7000176AB06D0A9
:10148000B30E6B6F030E6C6F4EEC68F0306A316A0E
:10149000326A336A0101B86BB96BB9511EE1040EAF
:1014A000B85D1BE2B851300FD96EDA6A3CC060F00B
:1014B0003DC061F00EEC6CF0DF6E3C4A3D2A01014C
:1014C000B851300FD96EDA6ADF5002010B27000ED7
:1014D0000C230101B84BB92BE0D7000176A70AD045
:1014E00030C060F031C061F032C062F033C063F0F0
:1014F00058EC6CF0446A470E446401D02FD03CC0D5
:1015000060F03DC061F00EEC6CF00101BE6F3C4A32
:101510003D2ABE5102010B27000E0C230101BE51D2
:10152000010ED8B4000E0001646F445079EC69F0EC
:101530003CC060F03DC061F00EEC6CF00101BE6F8C
:101540003C4A3D2ABE5102010B27000E0C23BEC1AE
:1015500067F04450F2EC68F0442ACDD73CC060F00C
:101560003DC061F00EEC6CF00101BE6F3C4A3D2ABB
:10157000BE5102010B27000E0C230101BE51C2EC2B
:1015800066F03CC060F03DC061F00EEC6CF0010113
:10159000BE6F3C4A3D2ABE5102010B27000E0C23B0
:1015A0000101BE5101EC6CF00B2904E10C2902E1B0
:1015B0000B6B0C6B0BC274F00CC275F012007E6BDF
:1015C0007F6B776B786B0001616BE40E606F626913
:1015D00079EC62F00001616BE50E606F626979EC95
:1015E00062F0C0C17DF101017D517727000E7823A3
:1015F0000001616B606B7DC162F079EC62F001010A
:101600007E4B7F2B790E0001606F010E616F7D0EA6
:10161000626F010E636FBBEC67F00101806B790EA6
:101620008025D96EDA6A010EDA22DF507727000EA4
:1016300078237EC160F07FC161F0790E8025D96E7C
:10164000DA6A010EDA22DF500001626F79EC62F093
:1016500001017E4B7F2B802B030E8065E0D77D51EF
:101660007727000E78237EC160F07FC161F07DC1D5
:1016700062F079EC62F001017E4B7F2B04EC6DF09F
:1016800060C079F161C07AF162C07BF163C07CF126
:10169000806B790E8025D96EDA6A010EDA22DF506E
:1016A0007727000E78237EC160F07FC161F0790E4C
:1016B0008025D96EDA6A010EDA22DF500001626FEE
:1016C00079EC62F001017E4B7F2B802B030E80654D
:1016D000E0D70DEC6DF060C079F161C07AF162C0C5
:1016E0007BF163C07CF1806B790E8025D96EDA6A5C
:1016F000010EDA22DF507727000E78237EC160F0DA
:101700007FC161F0790E8025D96EDA6A010EDA2286
:10171000DF500001626F79EC62F001017E4B7F2B9C
:10172000802B030E8065E0D7660E00016B6F010E03
:101730006C6FA6EC6BF00101806B660E8025D96E94
:10174000DA6A010EDA22DF507727000E78237EC195
:1017500060F07FC161F0660E8025D96EDA6A010EF5
:10176000DA22DF500001626F79EC62F001017E4BFA
:101770007F2B802B070E8065E0D7660E00016B6F14
:10178000010E6C6FB3EC6BF00101806B660E80256F
:10179000D96EDA6A010EDA22DF507727000E78233D
:1017A0007EC160F07FC161F0660E8025D96EDA6A75
:1017B000010EDA22DF500001626F79EC62F0010164
:1017C0007E4B7F2B802B070E8065E0D7660E0001D5
:1017D0006B6F010E6C6F99EC6BF00101806B660E04
:1017E0008025D96EDA6A010EDA22DF507727000EE3
:1017F00078237EC160F07FC161F0660E8025D96ECE
:10180000DA6A010EDA22DF500001626F79EC62F0D1
:1018100001017E4B7F2B802B0F0E8065E0D7660E7B
:1018200000016B6F010E6C6F7FEC6BF00101806B40
:10183000660E8025D96EDA6A010EDA22DF5077272C
:10184000000E78237EC160F07FC161F0660E8025B6
:10185000D96EDA6A010EDA22DF500001626F79EC8C
:1018600062F001017E4B7F2B802B0F0E8065E0D74D
:10187000660E00016B6F010E6C6F8CEC6BF001015A
:10188000806B660E8025D96EDA6A010EDA22DF508F
:101890007727000E78237EC160F07FC161F0660E6D
:1018A0008025D96EDA6A010EDA22DF500001626FFC
:1018B00079EC62F001017E4B7F2B802B0F0E80654F
:1018C000E0D716EC6DF060C079F161C07AF162C0CA
:1018D0007BF163C07CF1806B790E8025D96EDA6A6A
:1018E000010EDA22DF507727000E78237EC160F0E8
:1018F0007FC161F0790E8025D96EDA6A010EDA2295
:10190000DF500001626F79EC62F001017E4B7F2BAA
:10191000802B030E8065E0D7766B470E766501D08D
:101920002AD07651B6EC68F001017D6F7D517727A2
:10193000000E78237EC160F07FC161F07DC162F04E
:1019400079EC62F001017E4B7F2B7651A2EC68F0BE
:1019500001017D6F7D517727000E78237EC160F0F5
:101960007FC161F07DC162F079EC62F001017E4BD4
:101970007F2B762BD2D77CEC6EF001017D6F7D51F1
:101980007727000E78237EC160F07FC161F07DC1B2
:1019900062F079EC62F001017E4B7F2B51EC6EF02E
:1019A00001017D6F7D517727000E78237EC160F0A5
:1019B0007FC161F07DC162F079EC62F001017E4B84
:1019C0007F2B772904E1782902E1776B786B7EC160
:1019D00060F07FC161F077C162F079EC62F00101E3
:1019E0007E4B7F2B7EC160F07FC161F078C162F0D9
:1019F00079EC62F001017E4B7F2B000120EE06F0B6
:101A0000EB51D926EC51DA22CFC2DEFFD0C2DEFF85
:101A1000DD6A1200E0D100019E699F69A069A16999
:101A2000E8D111A598D0B85198EC62F08C5107E13B
:101A30001F0E895DAC0E8A59DF0E8B5946E30201F9
:101A4000B85198EC62F00D0E05D0D8908C338B33E2
:101A50008A338933E82EF9D77D0E8903F3CF96F0C8
:101A6000F4CF97F0986B996B8A03F3509727F45053
:101A70009823000E99238903F3509727F450982355
:101A8000000E99237D0E8B03F3509827F450992371
:101A9000000E8A03F3509827F4509923000E89030F
:101AA000F3509827F45099237D0E8C03F350992717
:101AB000000E8B03F3509927000E8A03F3509927E9
:101AC000000E8903F3509927A7D00201B85198EC72
:101AD00062F07D0E8903F3CF96F0F4CF97F0986B08
:101AE000996B8A03F3509727F4509823000E99239B
:101AF0008903F3509727F4509823000E99237D0E05
:101B00008B03F3509827F4509923000E8A03F35067
:101B10009827F4509923000E8903F3509827F45026
:101B200099237D0E8C03F3509927000E8B03F350FD
:101B30009927000E8A03F3509927000E8903F3506A
:101B400099270D0E05D0D890993398339733963353
:101B5000E82EF9D761D013A14CD1BA5198EC62F0BC
:101B60008C5107E11F0E895DAC0E8A59DF0E8B592F
:101B70000EE30201BA5198EC62F00D0E05D0D89038
:101B80008C338B338A338933E82EF9D765D702013A
:101B9000BA5198EC62F07D0E8903F3CF96F0F4CF42
:101BA00097F0986B996B8A03F3509727F45098231A
:101BB000000E99238903F3509727F4509823000EC1
:101BC00099237D0E8B03F3509827F4509923000E30
:101BD0008A03F3509827F4509923000E8903F35099
:101BE0009827F45099237D0E8C03F3509927000E0B
:101BF0008B03F3509927000E8A03F3509927000EA8
:101C00008903F35099270D0E05D0D8909933983356
:101C100097339633E82EF9D796C09EF097C09FF081
:101C200098C0A0F099C0A1F0E4D011A504D0B9519A
:101C300098EC62F005D013A10BD0BB5198EC62F088
:101C400089C09EF08AC09FF08BC0A0F08CC0A1F02C
:101C50000001A15107E11F0E9E5DAC0E9F59DF0EE2
:101C6000A0594AE39EC096F09FC097F0A0C098F09C
:101C7000A1C099F00D0E05D0D890993398339733C1
:101C80009633E82EF9D77D0E9603F3CF9AF0F4CF72
:101C90009BF09C6B9D6B9703F3509B27F4509C2308
:101CA000000E9D239603F3509B27F4509C23000EB7
:101CB0009D237D0E9803F3509C27F4509D23000E26
:101CC0009703F3509C27F4509D23000E9603F35086
:101CD0009C27F4509D237D0E9903F3509D27000E01
:101CE0009803F3509D27000E9703F3509D27000E95
:101CF0009603F3509D2749D09EC096F09FC097F061
:101D0000A0C098F0A1C099F07D0E9603F3CF9AF091
:101D1000F4CF9BF09C6B9D6B9703F3509B27F45083
:101D20009C23000E9D239603F3509B27F4509C2385
:101D3000000E9D237D0E9803F3509C27F4509D23A5
:101D4000000E9703F3509C27F4509D23000E96033A
:101D5000F3509C27F4509D237D0E9903F3509D274B
:101D6000000E9803F3509D27000E9703F3509D2714
:101D7000000E9603F3509D270D0E05D0D8909D338D
:101D80009C339B339A33E82EF9D79AC09EF09BC0C0
:101D90009FF09CC0A0F09DC0A1F02BD0BE5198EC4C
:101DA00062F089C09EF08AC09FF08BC0A0F08CC00A
:101DB000A1F0A15109E11F0E9E5DAC0E9F59DF0EEF
:101DC000A05901E34FD798D74DD700019E6B9F6B69
:101DD000A06BA16B0ED002011331070B01E11BD6E2
:101DE000020A01E11ED6060A01E11FD7020AD6E067
:101DF000ECD70001A151A0119F1103E1C80E9E5D17
:101E000009E3CE0E9E27FF0E9F23A023A1230201EC
:101E1000138F06D09E6B9F6BA06BA16B0201139F6B
:101E20009EC092F09FC093F0A0C094F0A1C095F026
:101E30001200070E786F796B6CC0D9FF6DC0DAFFA6
:101E4000DF500F0B726F6CC0D9FF6DC0DAFFDF502F
:101E50006E6F6E390F0B736F6C4B6D2B6CC0D9FFAF
:101E60006DC0DAFFDECF76F0DDCF77F076C074F0AC
:101E700077C075F0020E6C27000E6D236CC07AF0EF
:101E80006DC07BF06C4B6D2B020113AB9FD176C004
:101E900060F077C061F07AC0D9FF7BC0DAFF000143
:101EA000DF38070BCDEC6BF0000901E009D102012E
:101EB0007D51020D7F0EF324D96E020EF420DA6EEE
:101EC000DF80A4D07AC0D9FF7BC0DAFFDF38070BF0
:101ED0006E6F6E39F00B716F7151100F6F6F71C0B3
:101EE0007CF042D07C51020D010EF324D96E050E18
:101EF000F420DA6EDF500F0B00016E6F78516E5DCB
:101F000011E274B103D0745175110CE17C51020DD2
:101F1000010EF324D96E050EF420DA6EDF500F0B9C
:101F20000001786F7C51020D010EF324D96E050E6D
:101F3000F420DA6EDF380F0B0001796111D074B133
:101F400003D0745175110CE17C51020D010EF32484
:101F5000D96E050EF420DA6EDF380F0B0001796FB1
:101F6000D890753374337C2B6F517C5D67E2BAD7A0
:101F7000040E786F796F7651771160E102017D511F
:101F8000020D7F0EF324D96E020EF420DA6EDF907C
:101F900055D07C6B7C51020D010EF324D96E050ED9
:101FA000F420DA6EDF500F0B00016E6F78516E5D1A
:101FB0000BE27C51020D010EF324D96E050EF420C4
:101FC000DA6EDF500F0B786F7C51020D010EF32497
:101FD000D96E050EF420DA6EDF380F0B000179613F
:101FE0000BD07C51020D010EF324D96E050EF420A6
:101FF000DA6EDF380F0B796F7C2B3F0E7C65CAD70A
:10200000765177111BE0040E796F18D07AC0D9FF92
:102010007BC0DAFF0001DF38070B01E153D7010A6B
:1020200001E150D7030A01E14DD7010A01E14AD786
:10203000070A9EE0020AADE0010A9AE000017C6B0B
:102040007C51020D000EF324D96E050EF420DA6ED9
:10205000DE0432E17C51020D010EF324D96E050E2F
:10206000F420DA6EDF500F0B00016E6F78516E5D59
:102070000BE27C51020D010EF324D96E050EF42003
:10208000DA6EDF500F0B786F7C51020D010EF324D6
:10209000D96E050EF420DA6EDF380F0B000179617E
:1020A0000BD07C51020D010EF324D96E050EF420E5
:1020B000DA6EDF380F0B796F7C2B460E7C65C0D74C
:1020C0007351BBEC6CF0000914E17851735D11E3BE
:1020D0007351795D0EE302017D51020D7F0EF324F1
:1020E000D96E020EF420DA6EDF82000173515DECCE
:1020F0006EF00B0E000172611AD0060E721917E015
:1021000002017D51020D7F0EF324D96E020EF420E0
:10211000DA6EDF84050E0001726102D0706F02D0AA
:1021200072C070F0705159EC6EF002011487020118
:102130007D51020D7F0EF324D96E020EF420DA6E6B
:10214000DFA00ED076C067F077C068F07AC0D9FF04
:102150007BC0DAFF0001DF38070B696F30EC53F00A
:1021600002017D51020D7F0EF324D96E020EF42080
:10217000DA6EDFB414D07D51020D7F0EF324D96ED8
:10218000020EF420DA6EDFB20AD07D51020D7F0E0E
:10219000F324D96E020EF420DA6EDFA032D07AC0BA
:1021A000D9FF7BC0DAFF0001DF500F0B03E1020112
:1021B000AC6B0AD07AC0D9FF7BC0DAFFDF500F0BBF
:1021C0006E6F6E050201AC6F14891BD07D51020D3C
:1021D0007F0EF324D96E020EF420DA6EDF907D516B
:1021E000020D7F0EF324D96E020EF420DA6EDF9218
:1021F0007D51020D7F0EF324D96E020EF420DA6EAB
:10220000DF946CC06CF06DC06DF01200EBC0D9FFB4
:10221000ECC0DAFFDECFF0F0DDCFF1F0000120EE10
:1022200002F0EB51D926EC51DA22DECFF2F0DDCF0D
:10223000F3F0010EF46FF569F0C091F0F1C092F087
:1022400035EC3EF0F56FF5BF90D1F66B070EF665F5
:1022500001D08BD1F651020D710EF324D96E030E0D
:10226000F420DA6EDECF60F0DDCF61F0F2C062F014
:10227000F3C063F082EC37F06051611101E072D17C
:10228000CF0EF525F66EF76AF70EF722F86A000E04
:10229000F8220800F5CFEDF0F6C0EEF0010EEF6F7A
:1022A000EE2B02D0D890EF37EE2FFCD70001EF5184
:1022B000ED1501E157D1F46B26D10F0138919290C1
:1022C00051D10F01389192804DD192800F01388108
:1022D00049D1F651F2E0010AF4E0030AF6E012D027
:1022E0000F01389392923ED10F01389392823AD1E6
:1022F00092820F01388336D1F651F2E0010AF4E000
:10230000030AF6E0010A2ED10F01389592942AD1E2
:102310000F013895928426D192840F01388522D1FD
:10232000F651F2E0010AF4E0030AF6E0EBD70F0100
:102330003897929617D10F013897928613D19286CB
:102340000F0138870FD1F651F2E0010AF4E0030AD9
:10235000F6E0D8D7929806D1928804D1F651FAE0E7
:10236000010AFAE0020AFED00F01389B929AFAD0D5
:102370000F01389B928AF6D0928A0F01388BF2D0E7
:10238000F651F2E0010AF4E0030AF6E0BBD70F01D0
:102390003C919690E7D00F013C919680E3D09680D7
:1023A0000F013C81DFD0F651F2E0010AF4E0030AAC
:1023B000F6E0A8D70F013C939692D4D00F013C933E
:1023C0009682D0D096820F013C83CCD0F651F2E0B9
:1023D000010AF4E0030AF6E095D70F013B959594C6
:1023E000C1D00F013B959584BDD095840F013B85ED
:1023F000B9D0F651F2E0010AF4E0030AF6E082D720
:102400000F013C959694AED00F013C959684AAD0CE
:1024100096840F013C85A6D0F651F2E0010AF4E063
:10242000030AF6E06FD70F013A9B949A9BD00F01F5
:102430003A9B948A97D0948A0F013A8B93D0F651A5
:10244000F2E0010AF4E0030AF6E05CD70F013B9BDF
:10245000959A88D00F013B9B958A84D0958A0F016D
:102460003B8B80D0F651F2E0010AF4E0030AF6E07B
:1024700049D70F013B9F959E75D00F013B9F958ECD
:1024800071D0958E0F013B8F6DD0F651F2E0010AAD
:10249000F4E0030AF6E036D70F013B9D959C62D02D
:1024A0000F013B9D958C5ED0958C0F013B8D5AD0D2
:1024B000F651F2E0010AF4E0030AF6E023D7929E17
:1024C00051D0928E4FD0F651FAE0010AFAE04AD785
:1024D000929C48D0928C46D0F651FAE0010AFAE07C
:1024E00041D7939E3FD0938E3DD0F651FAE0010A3A
:1024F000FAE038D7939C36D0938C34D0F651FAE07A
:10250000010AFAE02FD7F55101E1E3D6010A01E112
:10251000F3D6030A01E104D7010A01E114D7070A3F
:1025200001E11CD7010A01E12BD7030A01E13BD7E6
:10253000010A01E14BD70F0A01E15BD7010A01E172
:102540006BD7030A01E17BD7010A8CE0070A9DE003
:10255000010AAEE0030AB7E0010ABEE01F0AC5E0C7
:10256000010ACCE00001F62B71D6F451020DEB0EFE
:10257000F324D96E020EF420DA6EDECFEDF0DDCF5B
:10258000EEF020EE06F0EB51D926EC51DA22EDC048
:10259000DEFFEEC0DEFFDD6A120000017B6F796BAB
:1025A0007A6B080E7B194BE127EED4F0DE50DE107B
:1025B000D8B4120027EED4F0DECF70F0DDCF71F08A
:1025C0008F0E7025D96E050E7121DA6EDF502CE169
:1025D000D3C7E8FFFF0FE8CFD3F727EED3F0DF50E4
:1025E000020DB60EF324D96E070EF420DA6EDECF9C
:1025F000D6F7DDCFD7F727EED3F0DF50020DB60EBA
:10260000F324D96E070EF420DA6EDE6ADD6A27EE57
:10261000D3F0DF50020DC40EF324D96E070EF42060
:10262000DA6EDE6ADD6A05D027EED6F0DE06000E31
:10263000DD5A27EED4F0DE06000EDD5A000C27EE40
:10264000D4F0250EDE5C020EDE5859E2200E7B1916
:1026500058E127EED3F0060EDF6051D027EED4F01C
:10266000DECF70F0DDCF71F0900E7025D96E050EC3
:102670007121DA6E000EDF6A27EED4F0DE2ADD2249
:1026800027EED6F017EED3F0E750020DB60EF32486
:10269000E16E070EF420E26EDECFE6FFDDCFE5FF50
:1026A0007069716927EED6F0DECF72F0DDCF73F07E
:1026B00027EED4F0DECF74F0DDCF75F07251745F89
:1026C0007351755B705174277151752327EED3F0E8
:1026D000DF50020DC40EF324D96E070EF420DA6E1B
:1026E00074C0DEFF75C0DDFFD3C7E8FF010FE8CF80
:1026F000D3F7000EE8CFD6F7E8CFD7F7D8D079696F
:10270000D6D027EED4F0DECF70F0DDCF71F0900E92
:102710007025D96E050E7121DA6E7BC0DFFF27EEC2
:10272000D4F0DE2A000EDD2227EED6F0DE2ADD22EE
:10273000E40E606FFF0E616F6011D8A4000E626F2F
:1027400022EC5EF027EED4F06051DE5C6151DE5881
:102750004AE3010E7A6FE40E606FFF0E616F601145
:10276000D8A4000E626F22EC5EF060517C6F37D00F
:1027700027EED4F0DECF70F0DDCF71F0900E726FE7
:10278000050E736F7C51725F000E735B7051722582
:10279000D96E71517321DA6EDF50746FE40E606F81
:1027A000FF0E616F6011D8A4000E626F22EC5EF024
:1027B000E40E756FFF0E766F6051752761517623B9
:1027C0007C51755F000E765B75C0F6FF76C0F7FF33
:1027D000F86A0800F550741901E07A6B7C077C51A7
:1027E00002E07A51C5E17A5162E027EED4F0DECF03
:1027F00070F0DDCF71F0E40E606FFF0E616F60115D
:10280000D8A4000E626F22EC5EF0900E726F050E7F
:10281000736F6051725F6151735B70517225D96E35
:1028200071517321DA6EDF6AE40E606FFF0E616F23
:102830006011D8A4000E626F22EC5EF027EED6F095
:10284000DECF70F0DDCF71F06051705F6151715B70
:1028500027EED3F0DF50020DB60EF324D96E070E2B
:10286000F420DA6E70C0DEFF71C0DDFF27EED6F017
:10287000DECF70F0DDCF71F027EED4F0DECF72F056
:10288000DDCF73F07051725F7151735B27EED3F03F
:10289000DF50020DC40EF324D96E070EF420DA6E59
:1028A00072C0DEFF73C0DDFF010EE8CFD2F77929D9
:1028B000D8A41200B8EC5FF08DC360F08EC361F055
:1028C00060516111D8A4000E626F22EC5EF060C00E
:1028D00077F061C078F08DC366F08EC367F0665103
:1028E0006711D8A4000E686F77C069F078C06AF0ED
:1028F000E4EF4CF0DD6F100E0001E16FDF6BDE0ED8
:10290000606F616B636B626B656B010E646F0FECE4
:1029100068F0EA0E606F090E616F636B626B010E07
:10292000656F0F0E646F0FEC68F0C30E606F030EDF
:10293000616F636B626B656B100E646F0FEC68F018
:10294000DD0507E1DE511F0B8009DE6F02011181F9
:1029500004D0DE511F0B4009DE6FFC0E0001DE17B4
:10296000E30EDE17EA0EE125D96EDA6A090EDA22E5
:10297000DEC0DFFFE12BEA0EE125606F616B090E1F
:1029800061232A0E626F020E636F656B040E646F23
:10299000FAEC59F0040EE127E06B020113AB30D0E2
:1029A0000001E08F0201B551C15D29E20001E08D17
:1029B00002011189A64BA72B7A51A619A71102E192
:1029C000C46B1AD07A510001DB6FDC6B0201A65197
:1029D0000001DB5D0201A7510001DC590EE202019A
:1029E000C42B7B51C45D0CE3C46BFAEC47F00009C7
:1029F00007E10201A66BA76B0001E09D020111999E
:102A0000020111A304D00001E08B02011193000127
:102A1000E09902017D5104E00001D951DA111CE175
:102A2000F00E0001E0170101C4510BE00001E0517C
:102A30000F0BDB6F020EDB27E051DB19F00BDB190C
:102A4000E06F0101C3510FE00001E0510F0BDB6F9C
:102A5000DB2BE051DB1904D0CBEC41F0DB6FE0194C
:102A6000F00BDB19E06FEA0E0001E125D96EDA6A9E
:102A7000090EDA22E0C0DFFFE12BEA0EE125606FEC
:102A8000616B090E6123170E626F020E636F656B37
:102A9000020E646FFAEC59F0020EE12702017D513B
:102AA0000FE00001D951DA110BE0EA0E606F090E58
:102AB000616FE10E626F010E636FB4EC17F01BD013
:102AC00002017D5118E10101C45109E0EA0E000143
:102AD000606F090E616FE10E626F1FEC64F001011F
:102AE000C35109E0EA0E0001606F090E616FE10E4B
:102AF000626FCAEC68F0EA0E0001E125D96EDA6A6D
:102B0000090EDA22D6C0DFFFE12BD951DA112DE010
:102B1000EA0EE125606F616B090E6123D7C062F098
:102B2000D8C063F0D9C064F0DAC065F0FAEC59F0AF
:102B3000D7C0A0F0D8C0A1F0D9C0A2F0A36B17C233
:102B4000A4F018C2A5F019C2A6F01AC2A7F03E0E52
:102B5000A86F020EA96FE1C0AAF0EA0EAB6F090ED2
:102B6000AC6F35EC2EF0D95129D002017D5127E010
:102B7000F90E0001606F0A0E616FDF0E626F636B0A
:102B8000B4EC17F0F90EA06F0A0EA16FDFC0A2F02F
:102B9000A36B17C2A4F018C2A5F019C2A6F01AC2FE
:102BA000A7F02E0EA86F020EA96FE1C0AAF0EA0EE0
:102BB000AB6F090EAC6F35EC2EF0DF51E12717C279
:102BC0006BF018C26CF019C26DF01AC26EF0000101
:102BD000E151F00F6F6F490E706F000E92EC4EF0E6
:102BE000EA0E606F090E616FC30E626F030E636FB2
:102BF000656B100E646FFAEC59F02E0EC86F020E62
:102C0000C96FC30ECA6F030ECB6FEA0ECC6F090EED
:102C1000CD6FE1C0CEF026EC16F0EA0EE125606F34
:102C2000616B090E6123C30E626F030E636F656BE8
:102C3000040E646FFAEC59F0040EE127F00EE12562
:102C40000201AA6FAB6BFF0EAB23FF0C0101656B9A
:102C5000646B626B606B616BC8C0A0F0C9C0A1F00F
:102C6000100E0001A26F010EA36F000EA46F010EE3
:102C7000A56F85EC35F0CE51CF6FD06B0F0ECF27FF
:102C8000000ED023040ED16FD035D033CF33D12FE7
:102C9000FBD7CF510101636F635104E1010E636FF4
:102CA000626B0AD0CEC0CFF00F0E0001CF17010E1D
:102CB000D8A4000E0101626F620541E1646B6351AB
:102CC000100DF350F00F656F1ED0200E010164252A
:102CD000D96EDA6A010EDA22100E6425E16EE26A1C
:102CE000010EE222E7500001CF6F010165510001A2
:102CF000CC25E16E000ECD21E26EE750CF19DF6EDC
:102D00000101642B652B63510001CF6FD06BCF3B6A
:102D1000D03BF00ED017CF510F0BD013F00ECF17C2
:102D2000010165510001D16FD26BCF51D15DD251FC
:102D3000800AD36FD051800AD35963E2C6D700010D
:102D4000CE51CC25CF6F000ECD21D06FCE510F0BC1
:102D5000CF5D0101606F0001D051D8A0D005010105
:102D6000616F656B0001CE510F0B010165610FD0E2
:102D700065516025D96E000E6121DA6E300E652531
:102D8000E16EE26A010EE222DFCFE7FF16D000011A
:102D9000CE510F0B0101651909E1300E6525D96E81
:102DA000DA6A010EDA22800EDF6E07D0300E65255A
:102DB000D96EDA6A010EDA22DF6A652B0F0E6565BD
:102DC000D1D7656B200E6525D96EDA6A010EDA223D
:102DD000000E6525E16EE26A010EE222E750000175
:102DE000CF6F300E01016525E16EE26A010EE2222D
:102DF000E7500001CF19DF6E0101652B0F0E6565ED
:102E0000E1D7500E0001606F010E616F636B626B62
:102E1000656B100E646F0FEC68F00101656B51D0AB
:102E20000101646B400E6425D96EDA6A010EDA2264
:102E300065510001CF6FD06BCF3BD03BF00ED01768
:102E4000CF510F0BD013F00ECF17CCC0D1F0CDC0A7
:102E5000D2F0CF51D127D051D223010164510001CA
:102E6000D125E16E000ED221E26EE750D36F500EF5
:102E700001016425E16EE26A010EE222E7500001E1
:102E8000D319DF6E0101642B0F0E6465CBD7500E92
:102E90000001606F010E616F400E626F010E636F83
:102EA000656B100E646FFAEC59F0500E8C6F010ECA
:102EB0008D6FC8C08EF0C9C08FF0DEEC68F00101E4
:102EC000652B0001CF69D069010163510001D16F09
:102ED000D26BCF51D127D051D223010165510001CE
:102EE000D36FD46BD151D35DD451800AD56FD251F9
:102EF000800AD55995E30101656B400E6525D96EB1
:102F0000DA6A010EDA22200E6525E16EE26A010E10
:102F1000E222E7500001CF6F500E01016525E16EFE
:102F2000E26A010EE222E7500001CF19DF6E0101D3
:102F3000652B0F0E6565E1D7400E00018C6F010E09
:102F40008D6FC8C08EF0C9C08FF0DEEC68F0CAC0CB
:102F500060F0CBC061F0400E626F010E636F656B75
:102F6000100E646FFAEF59F06251D96EDA6ADF50D1
:102F70006B6F6A6B79D1635101E15BD16A51020DCC
:102F80007E0EF324D96E020EF420DA6EDE2801E103
:102F900050D1FE0E646F65696A51020D7E0EF324F6
:102FA000D96E020EF420DA6EDF50666F676B6451E3
:102FB000662765516723240E6625F66EF80E672195
:102FC000F76EF86A000EF8220800F5506BC068F042
:102FD000696B6827000E69236251D96EDA6ADF5087
:102FE000685F000E695B69BF24D1695105E1100E6D
:102FF000685D01E33FD11DD13DD16B516025D96E94
:10300000000E6121DA6E030EDF6E6B2B6B516025B3
:10301000D96E000E6121DA6EDF6A6A51020D7F0EF1
:10302000F324D96E020EF420DA6EDFA009D000017D
:103030006B516025D96E000E6121DA6E000EDB80C7
:1030400000016A51020D7F0EF324D96E020EF420A6
:10305000DA6EDFA208D06B516025D96E000E6121B7
:10306000DA6E000EDB8200016A51020D7F0EF3243E
:10307000D96E020EF420DA6EDFA408D06B51602501
:10308000D96E000E6121DA6E000EDB8400016B2B1D
:10309000EAD06B516025D96E000E6121DA6E050E03
:1030A000DF6E6B2B6B516025D96E000E6121DA6EDD
:1030B000DF6A6A51020D7F0EF324D96E020EF420EE
:1030C000DA6EDFA609D000016B516025D96E000EC3
:1030D0006121DA6E000EDB8000016A51020D7F0E65
:1030E000F324D96E020EF420DA6EDFA808D06B51FB
:1030F0006025D96E000E6121DA6E000EDB820001C0
:103100006A51020D7F0EF324D96E020EF420DA6E9E
:10311000DFAA08D06B516025D96E000E6121DA6EEE
:10312000000EDB8400016B516025D96E000E612119
:10313000DA6EDF50516EAAD76B516025D96E000E42
:103140006121DA6E060EDF6E6B2B6B516025D96E36
:10315000000E6121DA6EB6C2DFFF6B2B88EC6EF0D9
:10316000800AA00F05E388EC6EF0800A600F09E387
:1031700000016B516025D96E000E6121DA6E200EC0
:103180000AD000016B516025D96E000E6121DA6E04
:1031900088EC6EF03F0BDF6E79D76B516025D96EEE
:1031A000000E6121DA6E070EDF6E6B2B6B5160250E
:1031B000D96E000E6121DA6EDF6A6A51020D7F0E50
:1031C000F324D96E020EF420DA6EDFAE09D00001CE
:1031D0006B516025D96E000E6121DA6E000EDB8026
:1031E00000016A51020D7F0EF324D96E020EF42005
:1031F000DA6EDFAC4BD76B516025D96E000E6121C2
:10320000DA6E000EDB8242D70201B369B46B0001B3
:103210006A51020D7E0EF324D96E020EF420DA6E8E
:103220006B516025E16E000E6121E26EDFCFE7FF9A
:103230002DD76A51020D7E0EF324D96E020EF420B2
:10324000DA6EDF50020AE0E0010A01E1D6D6070A91
:10325000DEE0010A01E11DD7030A01E16DD7010A91
:103260009CE00F0AD4E06A2B02017D5100016A5DE7
:1032700001E281D66251D96EDA6A6BC0DFFF1200BB
:1032800074D1925101E197D0D80E606F070E616F33
:103290004BC362F04CC363F0AAEC66F0D80E606FCB
:1032A000070E616F6011D8A4200E626F22EC5EF0F1
:1032B00060C0A0F061C0A1F0D80EA0257C6F070E01
:1032C000A1217D6F90C0D9FF91C0DAFFDF507E6FE2
:1032D0007F6B816B0A0E806FC8EC64F0D80E606F54
:1032E000070E616F6011D8A4200E626F22EC5EF0B1
:1032F00060C0A0F061C0A1F0D80EA025D96E070E65
:10330000A121DA6E200EDF6EA04BA12B9469956986
:103310009251966F976B9451962795519723120E61
:10332000986F020E996FA051985FA151995BD89048
:1033300099319B6F98319A6F96519A5D97519B592D
:1033400010E2120E946F020E956FA051945FA1517E
:10335000955BD8909531966F94319C6F96C09DF097
:1033600006D0FF0E92259C6F9D6BFF0E9D2390292A
:10337000846F000E9121856FD80EA025866F070EF1
:10338000A121876F9C5108EC3FF0D80E606F070EAB
:10339000616F6011D8A4200E626F22EC5EF060C0F5
:1033A0009EF061C09FF0D80E666F070E676F6611C2
:1033B000D8A4200E14D047C360F048C361F0605118
:1033C0006111D8A4000E626F22EC5EF060C09EF026
:1033D00061C09FF047C366F048C367F0C1D0686F13
:1033E0009EC069F09FC06AF0E4EF4CF0925155E046
:1033F000D80E606F070E616F49C362F04AC363F075
:10340000AAEC66F0D80E606F070E616F6011D8A449
:10341000200E626F22EC5EF060C0A0F061C0A1F0EF
:10342000D80EA025D96E070EA121DA6E200EDF6E10
:10343000A04BA12B120E946F020E956FA051945FBA
:10344000A151955BD8909531976F9431966F9251B9
:10345000965D000E975910E2120E946F020E956F52
:10346000A051945FA151955BD8909531966F94319E
:103470009C6F96C09DF003D092C09CF09D6B90C055
:1034800084F091C085F0D80EA025866F070EA1218B
:10349000876F9C5108EC3FF078D745C360F046C376
:1034A00061F060516111D8A4000E626F22EC5EF0F1
:1034B00060C09EF061C09FF045C366F046C367F0F0
:1034C0004FD04DC360F04EC361F060516111D8A47C
:1034D000000E626F22EC5EF060C09EF061C09FF053
:1034E0004DC366F04EC367F03BD04FC360F050C38E
:1034F00061F060516111D8A4000E626F22EC5EF0A1
:1035000060C09EF061C09FF04FC366F050C367F08B
:1035100027D051C360F052C361F060516111D8A44B
:10352000000E626F22EC5EF060C09EF061C09FF002
:1035300051C366F052C367F013D053C360F054C355
:1035400061F060516111D8A4000E626F22EC5EF050
:1035500060C09EF061C09FF053C366F054C367F033
:1035600066516711D8A4000E3AD700019351BDE00F
:10357000010A01E186D6030AA4E0010A01E136D777
:10358000070AC7E0010AD9E012008A6B97C39DF1D0
:1035900098C39EF19D519E11D8A4000E9F6F8D6B14
:1035A0003DD08D51090DF35081250001FA6FF45083
:1035B000010182210001FB6F000E01018321000146
:1035C000FC6FFAC0F6FFFBC0F7FFFCC0F8FF21EE6E
:1035D0008EF0080E0900F5CFDEFFE806FBE28EC193
:1035E00060F08FC161F001018551020DC40EF3241A
:1035F000D96E070EF420DA6EDECFFAF0DDCFFBF0E5
:10360000900E0001FA25626F050EFB21636F82ECBC
:1036100037F06051611105E001018D2B84518D5D02
:10362000C0E3010184518D5D01E311D190519111ED
:10363000921101E001D19351941101E108D1965109
:103640000001FA6FFB6B01018551D3C7FCF0FCC090
:10365000FDF00001FE6BFD5F000EFE5BFA51FD19EF
:1036600003E1FB51FE19D8A4F2D0010185298C6F2A
:103670008B6B965114E08C2B8C05020DB60EF32447
:10368000D96E070EF420DA6EDE50DE1003E1010E73
:103690008B6F05D027EED3F08C51DE5CECE28B51C2
:1036A00001E0D5D0970E0001606F010E616F636B72
:1036B000626B656B090E646F0FEC68F00101855158
:1036C0000001FA6FFB6BFA2B000EFB23FB512FE17D
:1036D000070EFA5D2CE2010185510001FA6FFB6BC8
:1036E000D890FA37FB37B80EFA25D96E070EFB21B2
:1036F000DA6EDE50DE101BE0010185510001FA6F29
:10370000FB6BD890FA37FB37C60EFA25D96E070E39
:10371000FB21DA6EDECFFCF0DDCFFDF0900EFC2554
:103720000101976F050E0001FD210101986F010154
:1037300085510001FA6FFB6B020EFA27000EFB2386
:10374000FB512FE1070EFA5D2CE2010185510001CA
:10375000FA6FFB6BD890FA37FB37BA0EFA25D96EA1
:10376000070EFB21DA6EDE50DE101BE001018551F1
:103770000001FA6FFB6BD890FA37FB37C80EFA25B9
:10378000D96E070EFB21DA6EDECFFCF0DDCFFDF047
:10379000900EFC250101996F050E0001FD2101012C
:1037A0009A6F010185510001FA6FFB6B030EFA2736
:1037B000000EFB23FB512FE1070EFA5D2CE2010105
:1037C00085510001FA6FFB6BD890FA37FB37BC0EBE
:1037D000FA25D96E070EFB21DA6EDE50DE101BE0F3
:1037E000010185510001FA6FFB6BD890FA37FB3766
:1037F000CA0EFA25D96E070EFB21DA6EDECFFCF079
:10380000DDCFFDF0900EFC2501019B6F050E000140
:10381000FD2101019C6F970E0001EB6F010EEC6F13
:1038200001D815D00500FA6E01019351FD6E945137
:10383000FE6EFF6AFA501200010E8A6F86C1D9FF30
:1038400087C1DAFF8DC1DFFF9D6B9E6B9F6B01010E
:103850009D519E119F1118E09DC160F09EC161F0C5
:103860009FC162F022EC5EF060C088F161C089F116
:103870009DC166F09EC167F09FC168F088C169F084
:1038800089C16AF0E4EC4CF001018A5112008B6BA3
:1038900068518B25D96EDA6A8B51710FE16EE26A3D
:1038A000DFCFE7FF8B2B0F0E8B65F2D70A0E4F6E23
:1038B000010E4E6E8B6B8B51710FD96EDA6ADF5031
:1038C000696F8B516625D96E000E6721DA6E6951DA
:1038D000DF1A8B2B0F0E8B65EED78B6B8B5166250A
:1038E000D96E000E6721DA6EDF50696F6A6BCF0EFA
:1038F0006925F66EF60E6A21F76EF86A000EF82258
:103900008B516625D96E000E6721DA6E0800F5CF5F
:10391000DFFF8B2B0F0E8B65E1D766C060F067C0B1
:1039200061F086EC2BF04F0401E111D18B6B8B51D0
:103930006625696F000E67216A6F6929D96E000ECE
:103940006A21DA6EDF506B6F8B516625D96E000EDF
:103950006721DA6EDF506B19896F8B516625696FAD
:10396000000E67216A6F030E6925D96E000E6A2169
:10397000DA6EDF506B6F8B5166256C6F000E67211E
:103980006D6F020E6C25D96E000E6D21DA6EDF5060
:103990006B198A6F8919876F8B516625696F000EC5
:1039A00067216A6F6929D96E000E6A21DA6EDF50CD
:1039B0006B6F8B5166256C6F000E67216D6F020E69
:1039C0006C25D96E000E6D21DA6EDF506B19886F91
:1039D0007F0E89650CD01B0E89C069F06A6BD89088
:1039E00069376A376919816F6A51826F05D0D8903B
:1039F0008935816F826B823781C089F07F0E88653F
:103A00000CD01B0E88C069F06A6BD89069376A3792
:103A10006919836F6A51846F05D0D8908835836F98
:103A2000846B843783C088F07F0E8A650CD01B0EB0
:103A30008AC069F06A6BD89069376A376919856FEF
:103A40006A51866F05D0D8908A35856F866B863728
:103A500085C08AF08B516625D96E000E6721DA6E1B
:103A60008B516625E16E000E6721E26EE7508719E3
:103A70008919DF6E8B516625696F000E67216A6FA9
:103A80006929D96E000E6A21DA6E8B5166256B6F3B
:103A9000000E67216C6F6B29E16E000E6C21E26EE7
:103AA000E75087198819DF6E8B516625696F000E04
:103AB00067216A6F020E6925D96E000E6A21DA6EDF
:103AC0008B5166256B6F000E67216C6F020E6B25A4
:103AD000E16E000E6C21E26EE75087198A19DF6EE5
:103AE0008B516625696F000E67216A6F030E692589
:103AF000D96E000E6A21DA6E8B5166256B6F000E4F
:103B000067216C6F020E6B25E16E000E6C21E26E78
:103B1000E7506D6F8B5166256E6F000E67216F6FDA
:103B20006E29E16E000E6F21E26EE750706F8B51CF
:103B30006625E16E000E6721E26EE75070196D197F
:103B40008719DF6E040E8B270F0E8B65F0D6710E72
:103B5000606FF9EC1EF08B6B8B51710FD96EDA6AC6
:103B6000DF50696F8B516625D96E000E6721DA6EC2
:103B70006951DF1A8B2B0F0E8B65EED74F064F5016
:103B800001E0ABD61200020113BF09D1C76B13517C
:103B9000F10B0409136F11A581D0EF0E2325F66EEA
:103BA000F76AF70EF722F86A000EF8220800F5CF40
:103BB000A4F072510001A425A56F000EA4BFFF0E52
:103BC000020173210001A66FA76BA86B0C0ED890A1
:103BD000A537A637A737A837E82EF9D7A5C060F0D4
:103BE000A6C061F0A7C062F0A8C063F07D0E646F4C
:103BF000656B666B676BE5EC53F060C06DF061C0A0
:103C00006EF062C06FF063C070F00201B851FAEC60
:103C100061F0EF0E02012825F66EF76AF70EF72223
:103C2000F86A000EF8220800F5CFA4F074510001E4
:103C3000A425A56F000EA4BFFF0E0201752100018F
:103C4000A66FA76BA86B0C0ED890A537A637A73721
:103C5000A837E82EF9D7A5C060F0A6C061F0A7C0CC
:103C600062F0A8C063F07D0E646F656B666B676B76
:103C7000E5EC53F060C06DF061C06EF062C06FF0B3
:103C800063C070F00201B951FAEC61F00201B85161
:103C90002CEC50F00201B9512CEF50F0EF0E23251F
:103CA000F66EF76AF70EF722F86A000EF82208009F
:103CB000F5CFA4F06E510001A425A56F000EA4BF9E
:103CC000FF0E02016F210001A66FA76BA86B0C0EFF
:103CD000D890A537A637A737A837E82EF9D7A5C0BB
:103CE00060F0A6C061F0A7C062F0A8C063F07D0ECE
:103CF000646F656B666B676BE5EC53F060C06DF0ED
:103D000061C06EF062C06FF063C070F00201BA5122
:103D1000FAEC61F0EF0E02012825F66EF76AF70E55
:103D2000F722F86A000EF8220800F5CFA4F07051CF
:103D30000001A425A56F000EA4BFFF0E0201712192
:103D40000001A66FA76BA86B0C0ED890A537A637FD
:103D5000A737A837E82EF9D7A5C060F0A6C061F054
:103D6000A7C062F0A8C063F07D0E646F656B666BE0
:103D7000676BE5EC53F060C06DF061C06EF062C03F
:103D80006FF063C070F00201BB51FAEC61F0020108
:103D9000BA512CEC50F00201BB512CEF50F08EECDC
:103DA0006EF00001A46FA4A90FD0906B916B926B81
:103DB000020E936F0500FA6E0101B451FD6EB5510C
:103DC000FE6EFF6AFA5012000101B451B511D8B469
:103DD00012000001906B916B926B030E936F0500C4
:103DE000FA6E0101B451FD6EB551FE6EFF6AFA50D4
:103DF00012006051D96EDA6A0D0ED926DF50616F5C
:103E0000626BCF0E6125F66EF60E6221F76EF86AD0
:103E1000000EF8220800F5CF63F06051D96EDA6A1F
:103E20006351DF1A6051D96EDA6A0E0ED926DF505F
:103E3000616F626BCF0E6125F66EF60E6221F76E32
:103E4000F86A000EF8220800F5CF63F06051D96ED1
:103E5000DA6AD92A6351DF1A6051D96EDA6A0F0E15
:103E6000D926DF50616F626BCF0E6125F66EF60EBC
:103E70006221F76EF86A000EF8220800F5CF63F0B1
:103E80006051D96EDA6A020ED9266351DF1A605189
:103E9000D96EDA6A0C0ED926DF50616F626BCF0ED5
:103EA0006125F66EF60E6221F76EF86A000EF822B2
:103EB0000800F5CF63F06051D96EDA6A030ED92697
:103EC0006351DF1A6051D96EDA6A4E50DF1A7F0EE5
:103ED0004E640CD01B0E4EC061F0626BD8906137FF
:103EE00062376119646F6251656F05D0D8904E34A6
:103EF000646F656B653764C04EF06051D96EDA6AE5
:103F0000DF50616F6051D96EDA6A040ED9266151B3
:103F1000DF1A6051D96EDA6AD92ADF50616F6051B9
:103F2000D96EDA6A050ED9266151DF1A6051D96E51
:103F3000DA6A020ED926DF50616F6051D96EDA6AF3
:103F4000060ED9266151DF1A6051D96EDA6A030E66
:103F5000D926DF50616F6051D96EDA6A070ED92613
:103F60006151DF1A6051D96EDA6A040ED926DF502A
:103F7000616F6051D96EDA6A080ED9266151DF1A75
:103F80006051D96EDA6A050ED926DF50616F605133
:103F9000D96EDA6A090ED9266151DF1A6051D96EDD
:103FA000DA6A060ED926DF50616F6051D96EDA6A7F
:103FB0000A0ED9266151DF1A6051D96EDA6A070EEE
:103FC000D926DF50616F6051D96EDA6A0B0ED9269F
:103FD0006151DF1A6051D96EDA6A080ED926DF50B6
:103FE000616F6051D96EDA6A0C0ED9266151DF1A01
:103FF0006051D96EDA6A090ED926DF50616F6051BF
:10400000D96EDA6A0D0ED9266151DF1A6051D96E68
:10401000DA6A0A0ED926DF50616F6051D96EDA6A0A
:104020000E0ED9266151DF1A6051D96EDA6A0B0E75
:10403000D926DF50616F6051D96EDA6A0F0ED9262A
:104040006151DF1A12000101E8A506D0800E0001BF
:10405000936F030E926F030CE8C194F0030E0001FE
:10406000941705E0800E936F040E926F040C8A86FD
:104070009251931107E1000E7A6F040E796F6CEC88
:1040800006F006D092C079F093C07AF06CEC06F09E
:104090000101DD0511E1010E0001626F220ED4EC79
:1040A0006AF00001626B400ED4EC6AF00001626BB2
:1040B000410ED4EC6AF014D0F9C162F0120ED4ECC7
:1040C0006AF0FAC162F0130ED4EC6AF00001626B80
:1040D000400ED4EC6AF00001626B410ED4EC6AF041
:1040E0000101E883E70EE81700019251931108E1FE
:1040F000DDC165F0000E666F050E5EEC3DF041D04F
:104100000101DD0509E1010E0001656F000E666F1A
:10411000060E5EEC3DF035D0000E0001656F666F57
:10412000050E5EEC3DF000019251946F9351956F36
:10413000966B976B0C0ED8909437953796379737C8
:10414000E82EF9D794C060F095C061F096C062F097
:1041500097C063F07D0E646F656B666B676BE5EC13
:1041600053F060C06DF061C06EF062C06FF063C06C
:1041700070F00101ED51FAEC61F00101ED512CEC10
:1041800050F00101EF51F011F111F21159E0F2512B
:1041900006E1EF29FF0EF0590F0EF15919E3EFC1B7
:1041A00060F0F0C161F0F1C162F0F2C163F07D0E28
:1041B0000001646F656B666B676BE5EC53F00C0E8A
:1041C000D8906037613762376337E82EF9D720D04F
:1041D000EFC194F0F0C195F0F1C196F0F2C197F003
:1041E0000C0ED89000019437953796379737E82E04
:1041F000F8D794C060F095C061F096C062F097C0A7
:1042000063F07D0E646F656B666B676BE5EC53F076
:1042100060C098F061C099F062C09AF063C09BF0F2
:1042200098C06DF099C06EF09AC06FF09BC070F0AE
:104230000101EE51FAEC61F00101EE512CEC50F06D
:104240000001926B936B12009E96C6AEE2D0C69EA2
:104250004D6A010120EE03F0BA51D926BB51DA2292
:10426000DECF04F0DDCF05F004C0D9FF05C0DAFFD2
:10427000010EDF6EBA6BBB6B1200020104B31200B9
:1042800002C2BAF103C2BBF102C2D9FF03C2DAFF14
:10429000DF504C6E20EE01F00251D9260351DA2294
:1042A000DECFBCF1DDCFBDF1050E0227000E0323EA
:1042B000E20E021907E1030E031904E1DD0E026F9D
:1042C000030E036F04910051021904E10151031917
:1042D00001E10483C580020E4D6E020CC5AC04D012
:1042E00015D0040EAAEF63F0D8900101FC31056EE1
:1042F000FB31046E0450C96EFBA103D00B0E4D6E52
:104300000B0C030E4D6E030CC5AC03D00201062B43
:10431000E8D7C5820101FC51060B046E056AF00E58
:104320000410FB6F0550FC6FFB81010E4A6ED3D762
:104330004A041BE0BCC1D9FFBDC1DAFFDECFFBF1EF
:10434000DDCFFCF1010120EE03F0BC51D926BD51B7
:10435000DA22DECF0DF2DDCF0EF220EE02F0BC51FC
:10436000D926BD51DA22DF504B6EFBC1C9FF0101D6
:10437000FBA1C7D7050E4D6E050CC5AC06D00201DA
:10438000062BC59C050EAAEF63F04B064B280AE1ED
:10439000050E0101BC27000EBD234C2E01D031D0EB
:1043A000C58299D70DC2D9FF0EC2DAFFDF50C96EA0
:1043B00002010D4B0E2B1200C5AC07D00201062BDB
:1043C000040EAAEC63F0C59C1200C586080E4D6E63
:1043D000080C080E4D6EC586080C0DC2D9FF0EC222
:1043E000DAFFC9CFDFFF02010D4B0E2B4B0604E0B5
:1043F000C59A060E4D6E03D0C58A1BEC6CF0C588BD
:104400001200000EAAEF63F00201062B060EAAEFBF
:1044100063F04D5001E131D7010AC2E0030A88E0A0
:10442000010AABE0070AEDE0010AC6E0030AD1E0A9
:10443000010AE7E00F0AD1E0020A01E14FD7010AC1
:1044400001E162D7E1D766C0D9FF67C0DAFFDF506C
:10445000796F664B672B79519EEC69F0F4E2756BCE
:10446000766B776B786B746B2D0E79190BE1010EFF
:10447000746F66C0D9FF67C0DAFFDF50796F664B93
:10448000672B03D02B0E7919F4E0300E791927E150
:1044900066C0D9FF67C0DAFFDF50796F664B672BC4
:1044A0006A516B1104E0100E6A196B1112E1780E5B
:1044B000791903E0580E79190CE16B6B100E6A6FD5
:1044C00066C0D9FF67C0DAFFDF50796F664B672B94
:1044D00006D06A516B1103E16B6B080E6A6F6A516B
:1044E0006B1103E16B6B0A0E6A6F795140EC69F056
:1044F00006E3795187EC6CF0C90F796F06D07951DA
:10450000C5EC6AF065E3300E795F79516C6F6D6BC5
:104510006A516C5D6D51800A6E6F6B51800A6E59E5
:1045200057E26AC06CF06BC06DF0000E6DBFFF0EFD
:104530006E6F6F6F6C517503F3CF70F0F4CF71F045
:10454000726B736B7603F3507127F4507223000E75
:1045500073236D517503F3507127F4507223000ECD
:1045600073236C517703F3507227F45073236D510A
:104570007603F3507227F45073236E517503F35092
:104580007227F450732378516C03F35073276D51E5
:104590007703F35073276E517603F35073276F51EF
:1045A0007503F350732779517025756F000E7121D3
:1045B000766F000E7221776F000E7321786F66C0E0
:1045C000D9FF67C0DAFFDF50796F664B672B8DD755
:1045D000685169110EE0FF0E66256C6FFF0E6721B2
:1045E0006D6F68C0D9FF69C0DAFF6CC0DEFF6DC0B7
:1045F000DDFF74511AE075C06CF076C06DF077C0C5
:104600006EF078C06FF06C1F6D1F6E1F6F1F6C2BEC
:10461000000E6D236E236F236CC066F06DC067F0D3
:104620006EC068F06FC069F0000C75C066F076C0AF
:1046300067F077C068F078C069F01200826B7DC0C7
:1046400083F07EC084F0DED002017D51020D7F0E2A
:10465000F324D96E020EF420DA6EDF907D51020D44
:104660007F0EF324D96E020EF420DA6EDF927D51B4
:10467000020D7F0EF324D96E020EF420DA6EDF9461
:104680007D51020D7F0EF324D96E020EF420DA6EF6
:10469000DF967D51020D7F0EF324D96E020EF420B9
:1046A000DA6EDF987D51020D7F0EF324D96E020E73
:1046B000F420DA6EDF9A7D51020D7F0EF324D96E5D
:1046C000020EF420DA6EDF9C7D51020D7F0EF32482
:1046D000D96E020EF420DA6EDF9E83C0D9FF84C04B
:1046E000DAFF7D51020D7E0EF324E16E020EF420FE
:1046F000E26EDFCFE7FF60D083C060F084C061F07E
:1047000001EC66F060C083F061C084F002017D516D
:10471000020D7E0EF324D96E020EF420DA6EDF68ED
:1047200062D083C06CF084C06DF019EC0FF06CC0E7
:1047300083F06DC084F057D083C060F084C061F016
:1047400007EC6AF060C083F061C084F04CD083C095
:104750006EF084C06FF08EEC2DF06EC083F06FC0F1
:1047600084F041D083C060F084C061F0F3EC6DF060
:1047700060C083F061C084F036D083C071F084C023
:1047800072F0E5EC2CF071C083F072C084F02BD095
:1047900083C065F084C066F0FAEC67F065C083F012
:1047A00066C084F020D0010E826F7F517D25836F1B
:1047B000000E7E21846FAAD783C0D9FF84C0DAFFA0
:1047C0000001834B842BDF50020A96E0010AA9E026
:1047D000070AB2E0010ABBE0030AC4E0010ACDE027
:1047E0000F0AD6E0E0D702017D51020D7E0EF324C0
:1047F000D96E020EF420DA6EDE2804E0100E7D6120
:1048000001D07D2B00017F517D25806F000E7E2120
:10481000816F8051835D8151845903E2825101E1AE
:1048200013D783C07DF084C07EF012000101E8A59B
:1048300006D0800E0001936F030E926F030CE8C147
:1048400095F0030E0001951705E0800E936F040E9E
:10485000926F040C0101DD5109E1400E00019465E5
:1048600005D0800E936F020E926F020C8A860101B2
:10487000EC510FEC6BF0000E7A6F040E796F6CEC5C
:1048800006F00101DD0523E194C062F0220ED4ECB4
:104890006AF00A0E66EC69F0A16FF00EA117A1870D
:1048A000A1C062F00A0ED4EC6AF0400E0001626F03
:1048B000D4EC6AF00001626B410ED4EC6AF0DDC109
:1048C00065F0010E0001666F5EEC3DF00AD000015C
:1048D000626B400ED4EC6AF00001626B410ED4ECC6
:1048E0006AF00101DD5105E194C062F0000ED4ECE4
:1048F0006AF0C3EC6EF0800E16EC6EF00001A26B55
:104900000BD0A2519225D96E000E9321DA6EDF50A2
:1049100016EC6EF00001A22B9451A25DF2E3C1EC03
:104920006EF00101E881E70EE817DDC165F0000EC9
:104930000001666F030E5EEC3DF000016D6B6E6B67
:104940000A0E6F6F706B0101EC51FAEC61F001011E
:10495000EC512CEC50F00101EF51F011F111F2117A
:1049600059E0F25106E1EF29FF0EF0590F0EF1590F
:1049700019E3EFC160F0F0C161F0F1C162F0F2C182
:1049800063F07D0E0001646F656B666B676BE5EC31
:1049900053F00C0ED8906037613762376337E82EDA
:1049A000F9D720D0EFC195F0F0C196F0F1C197F0A2
:1049B000F2C198F00C0ED8900001953796379737D2
:1049C0009837E82EF8D795C060F096C061F097C090
:1049D00062F098C063F07D0E646F656B666B676B09
:1049E000E5EC53F060C09DF061C09EF062C09FF0A6
:1049F00063C0A0F09DC06DF09EC06EF09FC06FF0D0
:104A0000A0C070F00101EE51FAEC61F00101EE512D
:104A10002CEC50F00001926B936B1200EBC0D9FFAD
:104A2000ECC0DAFFDECFEFF0DDCFF0F0000120EEDA
:104A300002F0EB51D926EC51DA22DECFF2F0DDCFD5
:104A4000F3F0010EF16FF569EFC091F0F0C092F054
:104A500035EC3EF0F46FF2C07AF0F3C07BF0010E5B
:104A60007C6F7D6F7E6B7F6B806B39EC52F0000941
:104A700008E0F2C063F0F3C064F029EC42F0635147
:104A8000F56FF4AFF5BF92D0F16B6CD0F55102E148
:104A900089908CD089808AD0F55102E1899286D0A4
:104AA000898284D0F55102E1899480D089847ED0B6
:104AB000F55102E189967AD0898678D0F55102E1E4
:104AC000899874D0898872D0F55102E1899A6ED0A4
:104AD000898A6CD0F55102E18D9068D08D8066D0C6
:104AE000F55102E18D9262D08D8260D0F55102E1E4
:104AF0008C945CD08C845AD0F55102E18D9456D0C0
:104B00008D8454D0F55102E18B9A50D08B8A4ED0CF
:104B1000F55102E18C9A4AD08C8A48D0F55102E1D5
:104B20008C9E44D08C8E42D0F55102E18C9C3ED0BC
:104B30008C8C3CD0F55102E1899E38D0898E36D0DC
:104B4000F55102E1899C32D0898C30D0F55102E1D7
:104B50008A9E2CD08A8E2AD0F55102E18A9C26D0DA
:104B60008A8C24D0F45192E0010A96E0030A9AE07C
:104B7000010A9EE0070AA2E0010AA6E0030AAAE0F1
:104B8000010AAEE00F0AB2E0010AB6E0030ABAE099
:104B9000010ABEE0070AC2E0010AC6E0030ACAE051
:104BA000010ACEE01F0AD2E0010AD6E0F151020D5F
:104BB000EB0EF324D96E020EF420DA6EDECFEDF0A8
:104BC000DDCFEEF020EE06F0EB51D926EC51DA22E3
:104BD000EDC0DEFFEEC0DEFFDD6A120000018A6F6D
:104BE0000201CB5102EC6EF0B5C288F000018A05DB
:104BF00022E18AC075F08B0E766F776B0201C3518C
:104C000085EC3CF0896FE10E0201B525F66EF76A7E
:104C1000F70EF722F86A000EF8220800F550F8ECBB
:104C20006DF00201C551B55D0A0F236F0D0E2365AE
:104C300049D0236F47D0020111BD16D0B56B8AC091
:104C400075F08B0E0001766F776B400E85EC3CF0B3
:104C5000896F0A0EF8EC6DF00201C5510A08236F46
:104C6000070E11EC6EF01AD0040EB56F8AC075F005
:104C70008B0E0001766F776B080E85EC3CF0896F28
:104C8000080EF8EC6DF00201C5510E08236F0D0EF1
:104C9000236501D0236F090E11EC6EF0020111BDE6
:104CA00004D00001836B832B02D00001836B833B14
:104CB000834783470201115100018319BF0B8319F8
:104CC0000201116F88C0B5F20001895160E1400E08
:104CD0008B611DD08B51A5EC47F060C084F061C0A2
:104CE00085F062C086F063C087F0070E11EC6EF0AD
:104CF000190E0201B725F66EF76AF80EF722F86A68
:104D0000000EF8220800F550FDEC6DF02ED08B510E
:104D100096EC43F060C084F061C085F062C086F01C
:104D200063C087F0090E11EC6EF0190E0201B72571
:104D3000F66EF76AF80EF722F86A000EF8220800FD
:104D4000F550800A650F0EE2190EB725F66EF76A68
:104D5000F80EF722F86A000EF8220800F550FDEC74
:104D60006DF003D01A0EFDEC6DF084C060F085C0CC
:104D700061F086C062F087C063F04CEC4EF0010E2B
:104D80000CEC6EF0000E07EC6EF08BC0B0F2000180
:104D9000895112007BC0C5F17CC0C6F17DC0C7F14E
:104DA0007EC0C8F1A80E0101C96F610ECA6FCB6B3E
:104DB000CC6B500ECD6FC30ECE6FCF6BD06B010E90
:104DC000DD6F070EDF6F020EE06F010EE66FE76B1F
:104DD000D26B080ED16F0C0EDE6F010EE16FE26B2D
:104DE000E56BC10ED46F940ED56FC10ED66F030E56
:104DF000DC6F340ED36FE86BE96B79C0EAF17AC0EF
:104E0000EBF1E36BE46B800EF76F980EEF6F3A0EE9
:104E1000F06FF16BF26B020EF86F0B0EF96F120E62
:104E2000FA6FF46BF56BF35123E135EC55F00101AA
:104E3000EC6F35EC55F00101ED6F35EC55F00101EB
:104E4000EE6FA00E0001606FCF0E616F626B01010B
:104E5000ED51E8EC65F0180E606FC70E616F626B84
:104E60000101EE51E8EC65F0010E0101F36F0BD08A
:104E7000EC510FEC6BF00101ED510FEC6BF0010107
:104E8000EE510FEC6BF09BEC65F0000E0001656FCE
:104E9000010E666F5EEC3DF0C5C16DF0C6C16EF0EF
:104EA000C7C16FF0C8C170F017EC3CF0420E0001B2
:104EB000626F3B0ED4EC6AF03B0E66EC69F07F6FDC
:104EC0007FBBFAD7230E626F0C0ED4EC6AF01E0E75
:104ED0000001626F0D0ED4EC6AF0AA0E0001626F41
:104EE0001F0ED4EC6AF08F0E0001626F350ED4EC09
:104EF0006AF000016269320ED4EC6AF0400E0001E3
:104F0000626F310ED4EC6AF0010E0001656F666FBE
:104F1000000E5EEC3DF093866186F19E0001806B91
:104F200005D081A602D0939603D0802B80AFF9D70D
:104F30006196F18E6269230ED4EC6AF0420E66EC43
:104F400069F00101F66F1200EBC0D9FFECC0DAFF87
:104F5000DECFEFF0DDCFF0F0010E0001F16FF3696D
:104F6000EFC091F0F0C092F035EC3EF0F26FF2BF7E
:104F700080D05AD0000E80B0010EF36F79D0000EB1
:104F800080B2010EF36F74D0000E80B4010EF36F87
:104F90006FD0000E80B6010EF36F6AD0000E80B89D
:104FA000010EF36F65D0000E80BA010EF36F60D072
:104FB000000E84B0010EF36F5BD0000E84B2010EC0
:104FC000F36F56D0000E83B4010EF36F51D0000E74
:104FD00084B4010EF36F4CD0000E82BA010EF36F51
:104FE00047D0000E83BA010EF36F42D0000E83BE8D
:104FF000010EF36F3DD0000E83BC010EF36F38D06D
:10500000000E80BE010EF36F33D0000E80BC010E87
:10501000F36F2ED0000E81BE010EF36F29D0000E6B
:1050200081BC010EF36F24D0F251A4E0010AA7E085
:10503000030AAAE0010AADE0070AB0E0010AB3E002
:10504000030AB6E0010AB9E00F0ABCE0010ABFE0BA
:10505000030AC2E0010AC5E0070AC8E0010ACBE082
:10506000030ACEE0010AD1E01F0AD4E0010AD7E02A
:10507000F16BF15118E0F151020DEB0EF324D96EF2
:10508000020EF420DA6EDECFEDF0DDCFEEF020EE92
:1050900006F0EB51D926EC51DA22EDC0DEFFEEC06E
:1050A000DEFFDD6A1200D80E736F070E746FF351C6
:1050B000756F766B75BF7607786B0A0E776FCAECE3
:1050C0004AF0D80EED6F070EEE6F20EE06F0EB51B2
:1050D000D926EC51DA22EDC0DEFFEEC0DEFF200E55
:1050E000DF6E200C9251946F9351956F966B976B76
:1050F000E80E9403F3CF98F0F4CF99F09A6B9B6B82
:105100009503F3509927F4509A23000E9B23030E26
:105110009403F3509927F4509A23000E9B23E80E32
:105120009603F3509A27F4509B23030E9503F350F4
:105130009A27F4509B23000E9403F3509A27F450BF
:105140009B23E80E9703F3509B27030E9603F3501F
:105150009B27000E9503F3509B27000E9403F350FA
:105160009B2798C0A2F299C0A3F29AC0A4F29BC058
:10517000A5F29251931127E10201BD510FEC6BF0A2
:10518000020114930001A06B18D0A051020D7E0EF5
:10519000F324D96E020EF420DA6E020EDE180BE153
:1051A000A051020D7E0EF324D96E020EF420DA6EA9
:1051B000DF6802017D070001A02B02017D51000183
:1051C000A05DE3E312000201148313A11200A551B4
:1051D00006E1A229FF0EA3590F0EA45919E3A2C29A
:1051E00060F0A3C261F0A4C262F0A5C263F07D0EBC
:1051F0000001646F656B666B676BE5EC53F00C0E3A
:10520000D8906037613762376337E82EF9D720D0FE
:10521000A2C294F0A3C295F0A4C296F0A5C297F0E2
:105220000C0ED89000019437953796379737E82EB3
:10523000F8D794C060F095C061F096C062F097C056
:1052400063F07D0E646F656B666B676BE5EC53F026
:1052500060C09CF061C09DF062C09EF063C09FF092
:105260009CC06DF09DC06EF09EC06FF09FC070F04E
:105270000201BD51FAEC61F00201BD512CEF50F07A
:105280000101EE510FEC6BF08A96080E626F120E60
:10529000D4EC6AF0DDC165F0000E0001666F5EECD3
:1052A0003DF00101E891E8B91200EC5198EC62F090
:1052B0008C5107E11F0E895DAC0E8A59DF0E8B59A8
:1052C00046E30101EC5198EC62F00D0E05D0D89048
:1052D0008C338B338A338933E82EF9D77D0E8903DB
:1052E000F3CFA9F0F4CFAAF0AB6BAC6B8A03F35009
:1052F000AA27F450AB23000EAC238903F350AA274E
:10530000F450AB23000EAC237D0E8B03F350AB2780
:10531000F450AC23000E8A03F350AB27F450AC23B7
:10532000000E8903F350AB27F450AC237D0E8C03A1
:10533000F350AC27000E8B03F350AC27000E8A030A
:10534000F350AC27000E8903F350AC2745D0010180
:10535000EC5198EC62F07D0E8903F3CFA9F0F4CF05
:10536000AAF0AB6BAC6B8A03F350AA27F450AB23C3
:10537000000EAC238903F350AA27F450AB23000E90
:10538000AC237D0E8B03F350AB27F450AC23000EFF
:105390008A03F350AB27F450AC23000E8903F3507B
:1053A000AB27F450AC237D0E8C03F350AC27000EDA
:1053B0008B03F350AC27000E8A03F350AC27000E8A
:1053C0008903F350AC270D0E05D0D890AC33AB3326
:1053D000AA33A933E82EF9D7A9C0B1F0AAC0B2F018
:1053E000ABC0B3F0ACC0B4F0B1512008AD6F4E0EFD
:1053F000B255AE6F000EB355AF6F000EB455B06F1F
:10540000ADC0A2F0AEC0A3F0C3EF1DF03F0E66EC3E
:1054100069F0B56FB5A71200DDC165F0000E666FCB
:105420005EEC3DF00101E891EE510FEC6BF08A96D5
:105430000101E8B91200EC5198EC62F08C5107E1DF
:105440001F0E895DAC0E8A59DF0E8B5946E30101B0
:10545000EC5198EC62F00D0E05D0D8908C338B3364
:105460008A338933E82EF9D77D0E8903F3CFA9F06B
:10547000F4CFAAF0AB6BAC6B8A03F350AA27F450BD
:10548000AB23000EAC238903F350AA27F450AB23BF
:10549000000EAC237D0E8B03F350AB27F450AC23EE
:1054A000000E8A03F350AB27F450AC23000E89039F
:1054B000F350AB27F450AC237D0E8C03F350AC2794
:1054C000000E8B03F350AC27000E8A03F350AC2779
:1054D000000E8903F350AC2745D00101EC5198EC44
:1054E00062F07D0E8903F3CFA9F0F4CFAAF0AB6B85
:1054F000AC6B8A03F350AA27F450AB23000EAC2305
:105500008903F350AA27F450AB23000EAC237D0E81
:105510008B03F350AB27F450AC23000E8A03F350F7
:10552000AB27F450AC23000E8903F350AB27F450A3
:10553000AC237D0E8C03F350AC27000E8B03F3508D
:10554000AC27000E8A03F350AC27000E8903F350FA
:10555000AC270D0E05D0D890AC33AB33AA33A933AA
:10556000E82EF9D7A9C0B1F0AAC0B2F0ABC0B3F031
:10557000ACC0B4F0B1512008AD6F4E0EB255AE6F55
:10558000000EB355AF6F000EB455B06FADC0A2F0B2
:10559000AEC0A3F0C3EF1DF0010E0001EF6FEBC032
:1055A000D9FFECC0DAFFDECF66F0DDCF67F090EC1C
:1055B00064F0000901E192D020EE02F0EB51D9260F
:1055C000EC51DA22DECF66F0DDCF67F090EC64F0CC
:1055D000000901E183D0EBC0D9FFECC0DAFFDECFD8
:1055E00066F0DDCF67F0686B696B6B6B100E6A6FEE
:1055F00023EC22F06651F06F20EE02F0EB51D92639
:10560000EC51DA22DECF66F0DDCF67F0686B696BB4
:105610006B6B100E6A6F23EC22F06651F16FEBC0DA
:10562000D9FFECC0DAFFDECFEDF0DDCFEEF0EDC05C
:1056300060F0EEC061F060516111D8A4200E626F7D
:1056400022EC5EF0020E6019611148E1F05111E1A7
:105650004D0E606FFF0E616FEBC0D9FFECC0DAFF3B
:10566000DECF62F0DDCF63F082EC37F06051611184
:1056700035E120EE02F0EB51D926EC51DA22DECFF3
:10568000EDF0DDCFEEF0EDC060F0EEC061F0605106
:105690006111D8A4200E626F22EC5EF0020E601938
:1056A00061111CE1F15113E14D0E606FFF0E616F4E
:1056B00020EE02F0EB51D926EC51DA22DECF62F077
:1056C000DDCF63F082EC37F06051611107E1F1C08A
:1056D00062F0F051D4EC6AF00001EF6BEF51020D73
:1056E000E30EF324D96E020EF420DA6EDECFEDF075
:1056F000DDCFEEF020EE06F0EB51D926EC51DA22A8
:10570000EDC0DEFFEEC0DEFFDD6A120020EE01F02C
:105710006051D9266151DA22DF50626F20EE05F028
:105720006051D9266151DA2210EE01F06051E12674
:105730006151E222DFCFE7FF20EE09F06051D92668
:105740006151DA2210EE05F06051E1266151E2224A
:10575000DFCFE7FF20EE0DF06051D9266151DA224C
:1057600010EE09F06051E1266151E222DFCFE7FF40
:1057700020EE0DF06051D9266151DA2262C0DFFFC0
:1057800020EE02F06051D9266151DA22DF50626FBB
:1057900020EE0AF06051D9266151DA2210EE02F0B3
:1057A0006051E1266151E222DFCFE7FF20EE0AF0EF
:1057B0006051D9266151DA2262C0DFFF20EE0EF07F
:1057C0006051D9266151DA22DF50626F20EE06F077
:1057D0006051D9266151DA2210EE0EF06051E126B7
:1057E0006151E222DFCFE7FF20EE06F06051D926BB
:1057F0006151DA2262C0DFFF20EE03F06051D9264A
:105800006151DA22DF50626F20EE0FF06051D9262D
:105810006151DA2210EE03F06051E1266151E2227B
:10582000DFCFE7FF20EE0BF06051D9266151DA227D
:1058300010EE0FF06051E1266151E222DFCFE7FF69
:1058400020EE07F06051D9266151DA2210EE0BF0FC
:105850006051E1266151E222DFCFE7FF20EE07F041
:105860006051D9266151DA2262C0DFFF1200EBC01D
:10587000D9FFECC0DAFFDECFEFF0DDCFF0F0010EA4
:105880000001F16FEFC091F0F0C092F035EC3EF006
:10589000F26FF2BF61D0CF0EF225F66EF76AF70E07
:1058A000F722F86A000EF8220800F5A455D000018E
:1058B000F16B38D0000E74EC64F02FD0010E74EC54
:1058C00064F02BD0020E74EC64F027D0030E74EC5D
:1058D00064F023D0040E74EC64F01FD0050E74EC59
:1058E00064F01BD0060E74EC64F017D0160E74EC46
:1058F00064F013D0070E74EC64F00FD0110E74EC4A
:1059000064F00BD0190E74EC64F007D01B0E74EC2D
:1059100064F003D01A0E74EC64F065C0F3F066C056
:10592000F4F01AD0F251C6E0010AC8E0030ACAE056
:10593000010ACCE0060ACEE0030AD0E0010AD2E078
:105940000F0AD4E0010AD6E0030AD8E0010ADAE03F
:10595000070ADCE0010ADEE00001F15118E0F15134
:10596000020DEB0EF324D96E020EF420DA6EDECFB8
:10597000EDF0DDCFEEF020EE06F0EB51D926EC5144
:10598000DA22EDC0DEFFEEC0DEFFDD6A1200D80EC7
:10599000736F070E746FF3C075F0F4C076F0786B18
:1059A0000A0E776FCAEC4AF0D80EED6F070EEE6F55
:1059B00020EE06F0EB51D926EC51DA22EDC0DEFFE5
:1059C000EEC0DEFF200EDF6E200C71C0D9FF72C06A
:1059D000DAFFDF50786F714B722B71C0D9FF72C044
:1059E000DAFFFF0EDE14746FFF0EDE14756FFF0E0C
:1059F000DE14766F000EDE14776F74C060F075C031
:105A000061F076C062F077C063F0640E646F656B1E
:105A1000666B676BB3EC50F060C074F061C075F0FA
:105A200062C076F063C077F0030E7127000E722318
:105A300071C0D9FF72C0DAFFDF50736F714B722BE8
:105A40007851B1EC6CF000093FE07851A5EC47F0DB
:105A50007451601909E17551611906E176516219B5
:105A600003E17751631914E0785196EC43F07451D7
:105A7000601909E17551611906E17651621903E176
:105A80007751631905E074517511761177110AE1A8
:105A900002017D51020D7F0EF324D96E020EF42017
:105AA000DA6EDF8E73C062F000017851D4EC55F0ED
:105AB00000090AE102017D51020D7F0EF324D96E27
:105AC000020EF420DA6EDF8C02017D51020D7F0E92
:105AD000F324D96E020EF420DA6EDFAE1AD07D51B7
:105AE000020D7F0EF324D96E020EF420DA6EDFACC5
:105AF00010D00001745175117611771105E1646BB6
:105B0000785179EC69F005D073C067F07851F2EC08
:105B100068F071C071F072C072F012006EC0D9FFEF
:105B20006FC0DAFFDF50746F6E4B6F2B6EC0D9FF02
:105B30006FC0DAFFFF0EDE14706FFF0EDE14716FA0
:105B4000FF0EDE14726F000EDE14736F70C060F013
:105B500071C061F072C062F073C063F0640E646F74
:105B6000656B666B676BB3EC50F060C070F061C042
:105B700071F062C072F063C073F0030E6E27000E06
