:0400000057EF00F0C6
:100008005E82FACF2AF0FBCF2BF0D9CF2CF0DACFD3
:100018002DF0F3CF2EF0F4CF2FF0F2BC9DA005D039
:100028009EA003D0E1EC5AF030D0F2BC9DAA05D0D6
:100038009EAA03D052EC43F028D0F2BC9DA805D06C
:100048009EA803D0D0EC54F020D0F0B6F0A003D096
:10005800F6EC5BF01AD0F0B8F0A203D0F3EC5BF04A
:1000680014D0F2B6F2A003D0C3EC5AF00ED0F2BC12
:100078009DA605D09EA603D0E2EC15F006D0F2BCF2
:10008800A0A603D0A1B63AEC5CF02FC0F4FF2EC0B6
:10009800F3FF2DC0DAFF2CC0D9FF2BC0FBFF2AC00D
:1000A800FAFF5E921100F4EF26F0E7EC5BF0020134
:1000B80013BF9AD270DB736F7339E832070BE80607
:1000C80001E095D00201295101E091D001016805B4
:1000D800786F19D06851662576DB67210001EA6FD1
:1000E800010178510001E95D8C6FEA51D8A0EA0559
:1000F8004CEC43F0B2EC56F0100E0101786502D0DA
:10010800785F01D0786B7851E5E14E0E0001D66F2B
:10011800020ED76F66C1D8F067C1D9F001016851E6
:10012800FC0F0001DA6F6EEC49F0D6C07DF1D7C044
:100138007EF1D8C07FF1D9C080F1F3DA34EC4FF00A
:10014800BCDA7D51741909E17E51751906E17F51B8
:10015800761903E1805177190EE005EC45F002E1CC
:10016800B5EF55F00AEC45F0D8A41200C751D8B441
:100178001200B5EF55F002011331070B030A03E132
:10018800B95178EC5AF066C182F167C183F1010177
:1001980020EE07F0FBDADECF2AF2DECF2BF2DECF3D
:1001A8002CF2DECF2DF220EE0CF0F0DADF500F0B40
:1001B80057EC4EF0E3DADF38070B0001606FDEDA48
:1001C800DF500F0BB9EC57F082C160F083C161F0CA
:1001D8000101685133EC5CF082C1A0F083C1A1F049
:1001E8001EEC43F044EC28F002010FDBFAD20101C7
:1001F8007339E832070B030A06E07339E832070B54
:10020800050A01E0EED102017D6B66C184F167C188
:1002180085F1010120EE01F01DDA02012A51DE18F4
:1002280009E12B51DE1806E12C51DE1803E12D51AE
:10023800DE1801E0D6D11BC279F11CC27AF11DC2C9
:100248007BF11EC27CF1CC5101E19CD0FBD90201AB
:100258001B51DE182EE11C51DE182BE118DA35ECA3
:100268003BF04CDAFCD9100E646F2BEC47F0FED94A
:100278002BEC47F02CDA70DA7BEC09F043DAEFD993
:10028800040E646F2BEC47F04CDA34EC4FF015DABF
:1002980074517D190DE175517E190AE176517F1966
:1002A80007E17751801901E09CD191DA28EC4CF0F4
:1002B80098D1C8D9DE5002011B5DDE501C591AE2E4
:1002C800C1D9DECFE9F0DDCFEAF002011B51000110
:1002D800E95F02011C510001EA5BE9510201765D08
:1002E8000001EA510201775902E2158150D0AAD9DA
:1002F80065DA4DD0A7D9DF500001E96F100EE92764
:10030800010E02011D250001EA6F75DAEB6FEC6B37
:10031800ED6BE92B05D0D890EA37EB37EC37ED37A2
:10032800E92FF9D7EAC069F1EBC06AF1ECC06BF1CB
:10033800EDC06CF1020176511B250001E96F020145
:1003480077511C210001EA6F000E02011D210001F6
:10035800EB6F51DAEC6F010169510001E95D0101B0
:100368006A510001EA5901016B510001EB59010181
:100378006C510001EC5901E234D164D91FDA7B4B8E
:100388007C2B05D05FD91ADA010E0201CC6F02016D
:1003980015A104D0BB5178EC5AF03FD078D935EC90
:1003A8003BF0ACD95CD9100E646F2BEC47F05ED9EA
:1003B8002BEC47F08CD9D0D97BEC09F0A3D94FD9D5
:1003C800040E646F2BEC47F0ACD934EC4FF075D9C0
:1003D80074517D1909E175517E1906E176517F192D
:1003E80003E17751801901E0FCD0C46BC36B79C17C
:1003F8001BF27AC11CF27BC11DF27CC11EF2020104
:100408001B290EE11C290CE11D290AE11E2908E11E
:10041800BB5178EC5AF002011581050EDEEF44F06D
:100428001331070B030A03E1BB5178EC5AF0010EB4
:100438000201AE6FCCD928EC4CF00101FAD820E0CB
:10044800F8D88425C0D985210001EA6F080EE9256E
:10045800D96E000EEA21DA6EDF5016E0080E0101AF
:1004680084250001B36F000E010185210001B46FDE
:100478000101DFD80001B56FEFEC1BF0ADD904D056
:10048800080E6627000E6723010111D9D2D8000192
:10049800EB6FEC6B0C0EAAD9EB1903E1EA51EC19DE
:1004A80044E079D96D6F664B672BC3D80001E96FBB
:1004B800E9510101685DF40F816FBBD8190F6E6FA8
:1004C8006D510FE09DD90CD96FEC09F04FD976EC3E
:1004D80020F0FF0E01016625706FFF0E6721716F16
:1004E80028D0E5D8A6D80001EB6FEC6B0D0E7ED9AD
:1004F800EB5DEC51800AED6FEA51800AED5915E287
:100508007FD90101EDD873EC09F030D976EC20F0F1
:1005180001018FD80AE166C1B3F067C1B4F0810563
:100528000001B56FEFEC1BF057D90101816B706BBF
:10053800716B010E0201AE6FA66BA76BC46B1199AC
:10054800148111A12CD0010120EE05F083D8DFAA77
:1005580024EF46F002011191EBD80DE0D7D801D86D
:100568000AD00500FA6E0101B651FD6EB751FE6E54
:10057800FF6AFA5012000201149113B911BB12005C
:1005880011B302D011A71200DDD80AEC2FF0000930
:10059800D8A41200000E0DD933EC31F03BD1C8D8E5
:1005A8000DE0B4D801D80AD00500FA6E0101B651A1
:1005B800FD6EB751FE6EFF6AFA501200020113B9C0
:1005C80011BB120011B302D011A71200BBD80AEC5C
:1005D8002FF00009D8A41200000EEBD833EC31F04C
:1005E80019D1000EDEEF44F00101B651B711D8B4AD
:1005F8001200F0EC5BF00001E96FE9B70DD0D2D83A
:10060800030EC56F0500FA6E0101B651FD6EB751B4
:10061800FE6EFF6AFA501200C5D8020EC56F0500BB
:10062800FA6E0101B651FD6EB751FE6EFF6AFA50BF
:10063800120020EE05F08451D9268551DA22DF50C8
:100648000F0B1200010120EE06F08451D9268551C6
:10065800DA2212008451D9268551DA221200616FFC
:10066800C30E626F030E636F656B1200090E606F35
:100678000B0E616F66C162F067C163F0FC0E010189
:1006880068250001646F656BFF0E6523FF0C79C157
:100698006BF07AC16CF07BC16DF07CC16EF001012A
:1006A8006851FC0F00016F6F490E706F010C6851A3
:1006B8000001E96FEA6B010112006BC074F16CC0B4
:1006C80075F16DC076F16EC077F1010112002E0E42
:1006D800C86F020EC96FC30ECA6F030ECB6F12002C
:1006E80081050001A26F010EA36F1BC2A4F01CC2FA
:1006F800A5F01DC2A6F01EC2A7F0010CF90E606F8E
:100708000A0E12007D0E606F010E12000201119B8D
:1007180070C1C2F071C1C3F081C1C4F06FC1C5F02E
:10072800120066C16BF067C16CF068C16DF0120011
:10073800010E01016F6FF10E020113170101B6518D
:10074800B7111200010E0001A76F720EA86F010EFB
:10075800A96F0201C3511200F90ECC6F0A0ECD6FBA
:10076800010168510C0F0001CE6F1200A96F6EC114
:10077800AAF0F90EAB6F0A0EAC6F1200010120EE61
:100788000BF08251D9268351DA2212008251D926E0
:100798008351DA22120066C1D9FF67C1DAFFDF5040
:1007A8000101120066C1C2F067C1C3F068C1C4F09C
:1007B8001200E26FE36FE46FE56F1200DECF79F1AC
:1007C800DDCF7AF112000001E96F0101000C84C14C
:1007D80060F085C161F01200B3C066F1B4C067F182
:1007E80012001B6B1C6B1D6B1E6B1200EB27000E9F
:1007F800EC23E9511200000E02011E210001120033
:1008080066C1A0F067C1A1F01200176B186B196BD5
:100818001A6B1200020111971200B2EC50F062EC50
:100828002AF0E9D98CEC29F00101E05133EC2BF0E6
:100838000101DD0501E068D1D3C162F0390E32EC67
:1008480058F0E7C1A0F0010E0001A0170101D890EF
:10085800E6350001A16F0101DF39D6D91D0E32EC52
:1008680058F09FC0A0F0030E0001A017E1C1A1F04D
:10087800010EA117D890A137D890A1370101DE3910
:10088800C3D91E0E32EC58F00101E351E4113FE0E8
:10089800E3C1A3F0E4C1A4F00001A56BA66B21D0CD
:1008A800A1D97D0E000199D993EC4BF00FD09AD9BC
:1008B800FA0E000192D993EC4BF008D093D9F40EBC
:1008C8000001966F010EC7D993EC4BF092C0A3F0CC
:1008D80093C0A4F094C0A5F095C0A6F00BD09AD907
:1008E80009D00101DF51070ADBE00F0AE0E0010A45
:1008F800E5E0F5D70101DE290001A06F05D0D89009
:10090800A633A533A433A333A02FF9D701D082D9B6
:10091800A3C062F0240E32EC58F09EC062F01F0EA5
:1009280032EC58F0260EC5EC56F0A76F0C0E0101FC
:10093800DE1906E1070EDF1909E0080EDF1906E0E7
:100948000B0EDE1906E1070EDF1903E10001A78788
:1009580002D00001A797A785A7C062F0260E32EC47
:1009680058F0310EC5EC56F0A76FF80EA717030E16
:10097800A71368D932EC58F00A0E0001626F370EDF
:1009880032EC58F0120E0101F61925E1070EDF19B5
:1009980003E0080EDF1913E1310EC5EC56F0A76F1E
:1009A800A79F50D932EC58F0400E0001626F2F0E0D
:1009B80032EC58F00001626B300E32EC58F0090E40
:1009C8000101DF1908E1310EC5EC56F0A76FA78FBA
:1009D80039D932EC58F0330EC5EC56F0A76FA79D05
:1009E800A781E5C1A0F0010EA017060EA16FD8904F
:1009F800A037A12FFCD7A051A713A7C062F0330ED0
:100A080032EC58F0E5C1A0F0010E0001A017D89013
:100A1800A037D890A035FF0A1D0BA76FA7C062F0BA
:100A28003B0E32EC58F006D9200E32EC58F0D1C10A
:100A380062F0210E32EC58F00BD932EC58F000017C
:100A4800626B0E0E32EC58F00001626B0F0E32EC46
:100A580058F0120E0101F61954E1090EDF191AE1D6
:100A6800800EC55D130EC659610EC759330EC8599D
:100A780011E3C505F70EC659CB0EC7593C0EC85928
:100A880009E2020ED4D832EC58F0640ECDD832EC1C
:100A980058F022D0090EDF191BE1800EC55D1A0E31
:100AA800C659700EC759180EC85912E3410EC55DD4
:100AB800DD0EC6594A0EC7591F0EC85909E2020E63
:100AC800B6D832EC58F07F0EAFD832EC58F004D0DC
:100AD800030EADD832EC58F0090E0101DF190AE116
:100AE800E50508E19DD832EC58F0190EA8D832EC8B
:100AF80058F007D095D832EC58F01D0EA0D832EC3B
:100B080058F0A3D832EF58F0C9C16DF0CAC16EF0E1
:100B1800CBC16FF0CCC170F06CEC45F0CDC16DF07D
:100B2800CEC16EF0CFC16FF0D0C170F01BEC44F0B5
:100B380081D8250E32EC58F0D1C162F0260E32EC85
:100B480058F00A0EC5EC56F0A76F9F0EA7170101C3
:100B5800F839E846E00B0001A713A7C062F00A0EB7
:100B680032EC58F0C80E0001A76F0101E15102E014
:100B78000001A789A7C062F0300E32EC58F00001DE
:100B8800A26B0ED0D40EA225D96EDA6A010EDA2233
:100B9800DF50626FA251280F32EC58F00001A22BEF
:100BA8000101DC510001A25DEDE30101DC5108E027
:100BB800DC0510090001626F270E32EC58F005D0F1
:100BC8000001626B270E32EC58F0000162693E0E9C
:100BD80032EC58F044D832EF58F0966F976B986B18
:100BE800996B1200A3C092F0A4C093F0A5C094F032
:100BF800A6C095F01200C5C16DF0C6C16EF0C7C1A0
:100C08006FF0C8C170F01200F00B0001A111A01123
:100C1800626F12000001A36BA46BA56BA66B120098
:100C2800650E0001626F3A0C0001626F3A0C000118
:100C3800626F360C0101D2510001626F120000018F
:100C4800626F3B0CA7C062F0310C00016269120CA4
:100C58000001626B0D0C976F986B996B1200000185
:100C680062693F0C66C1D9FF67C1DAFFDECFEEF0DB
:100C7800DDCFEFF020EE02F0B1D9DECFF0F0DDCF1E
:100C8800F1F0010E0001F26FF369EEC0C5F0EFC09C
:100C9800C6F0FEEC2BF0F36FF3BF8BD1F46B070EAD
:100CA800F46501D086D1F451020D710EF324D96E8A
:100CB800030EF420DA6EDECF60F0DDCF61F0F0C015
:100CC80062F0F1C063F03BEC3CF06051611101E06F
:100CD8006DD1D10EF3257ED9D9EC1BF0F5CFEBF011
:100CE800F4C0ECF0010EED6FEC2B02D0D890ED378C
:100CF800EC2FFCD70001ED51EB1501E157D1F26B58
:100D080026D10F013891929051D10F0138919280DC
:100D18004DD192800F01388149D1F451F2E0010A96
:100D2800F4E0030AF6E012D00F01389392923ED114
:100D38000F01389392823AD192820F01388336D1CB
:100D4800F451F2E0010AF4E0030AF6E0010A2ED1B8
:100D58000F01389592942AD10F013895928426D1A3
:100D680092840F01388522D1F451F2E0010AF4E0AF
:100D7800030AF6E0EBD70F013897929617D10F01C7
:100D88003897928613D192860F0138870FD1F45184
:100D9800F2E0010AF4E0030AF6E0D8D7929806D107
:100DA800928804D1F451FAE0010AFAE0020AFED06E
:100DB8000F01389B929AFAD00F01389B928AF6D08D
:100DC800928A0F01388BF2D0F451F2E0010AF4E074
:100DD800030AF6E0BBD70F013C919690E7D00F01CC
:100DE8003C919680E3D096800F013C81DFD0F4518E
:100DF800F2E0010AF4E0030AF6E0A8D70F013C93F9
:100E08009692D4D00F013C939682D0D096820F014F
:100E18003C83CCD0F451F2E0010AF4E0030AF6E096
:100E280095D70F013B959594C1D00F013B959584BB
:100E3800BDD095840F013B85B9D0F451F2E0010A89
:100E4800F4E0030AF6E082D70F013C959694AED001
:100E58000F013C959684AAD096840F013C85A6D0B4
:100E6800F451F2E0010AF4E0030AF6E06FD70F014B
:100E78003A9B949A9BD00F013A9B948A97D0948A74
:100E88000F013A8B93D0F451F2E0010AF4E0030A1F
:100E9800F6E05CD70F013B9B959A88D00F013B9BEE
:100EA800958A84D0958A0F013B8B80D0F451F2E06B
:100EB800010AF4E0030AF6E049D70F013B9F959E2B
:100EC80075D00F013B9F958E71D0958E0F013B8F8A
:100ED8006DD0F451F2E0010AF4E0030AF6E036D7E7
:100EE8000F013B9D959C62D00F013B9D958C5ED078
:100EF800958C0F013B8D5AD0F451F2E0010AF4E0D1
:100F0800030AF6E023D7929E51D0928E4FD0F45127
:100F1800FAE0010AFAE04AD7929C48D0928C46D06F
:100F2800F451FAE0010AFAE041D7939E3FD0938E3C
:100F38003DD0F451FAE0010AFAE038D7939C36D054
:100F4800938C34D0F451FAE0010AFAE02FD7F35128
:100F580001E1E3D6010A01E1F3D6030A01E104D76E
:100F6800010A01E114D7070A01E11CD7010A01E1CE
:100F78002BD7030A01E13BD7010A01E14BD70F0A3E
:100F880001E15BD7010A01E16BD7030A01E17BD7D5
:100F9800010A8CE0070A9DE0010AAEE0030AB7E007
:100FA800010ABEE01F0AC5E0010ACCE00001F42BEB
:100FB80076D6F25105EC1BF0DECFEBF0DDCFECF08E
:100FC800010120EE06F00AD8EBC0DEFFECC0DEFF20
:100FD800DD6A1200F66EF76AF70E12006651D9261E
:100FE8006751DA221200DD6F100E0001E16FDF6B2E
:100FF800DE0E606F616B636B626B656B010E646F15
:101008004FEC55F040D94FEC55F05DEC3BF0ECEC73
:1010180053F0100E646F4FEC55F0DD0507E1DE511B
:101028001F0B8009DE6F0201118104D0DE511F0BF6
:101038004009DE6FFC0E0001DE17E30EDE17EA0E34
:1010480037D9DEC0DFFFE12B12D961EC3BF016D9AE
:101058002BEC47F0040EE127E06B020113AB30D014
:101068000001E08F0201B551C15D29E20001E08D68
:1010780002011189A64BA72B7A51A619A71102E1E3
:10108800C46B1AD07A510001DB6FDC6B0201A651E8
:101098000001DB5D0201A7510001DC590EE20201EB
:1010A800C42B7B51C45D0CE3C46BAEEC3AF0000971
:1010B80007E10201A66BA76B0001E09D02011199EF
:1010C800020111A304D00001E08B02011193000179
:1010D800E09902017D5104E00001D951DA1114E1CF
:1010E800F00E0001E0170101C45106E0EFD8020E2E
:1010F800DB27E051DB19F7D80101C3510AE0E6D834
:10110800DB2BE051DB1904D077EC3BF0DB6FE01907
:10111800EAD8EA0E0001CCD8E0C0DFFFE12BA7D85F
:10112800170E626F020E636F656B020E646F2BEC15
:1011380047F0020EE12702017D510FE00001D9516D
:10114800DA110BE0EA0E606F090E616FE10E626F53
:10115800010E636FEAEC14F01BD002017D5118E117
:101168000101C45109E0EA0E0001606F090E616FC8
:10117800E10E626F9EEC52F00101C35109E0EA0EE4
:101188000001606F090E616FE10E626FC9EC55F0E6
:10119800EA0E00018DD8D6C0DFFFE12BD951DA1154
:1011A80018E065D8D7C062F0D8C063F0D9C064F041
:1011B800DAC065F02BEC47F0D7C0A0F0D8C0A1F09A
:1011C800D9C0A2F06BD887D879D876EC20F0D9515D
:1011D80019D002017D5117E0F90E0001606F0A0E67
:1011E800616FDF0E626F636BEAEC14F0F90EA06FAB
:1011F8000A0EA16FDFC0A2F051D871D85FD876EC83
:1012080020F0DF51E12717C26BF018C26CF019C249
:101218006DF01AC26EF00001E151F00F6F6F490EC8
:10122800706F000E35EC3BF0EA0E606F090E33EC80
:1012380003F0100E646F2BEC47F06BEC03F0EA0E32
:10124800CC6F090ECD6FE1C0CEF07BEC09F00FD862
:1012580093EC49F013D82BEC47F0040EE127F00E7D
:10126800E1250201AA6FAB6BFF0EAB23FF0CEA0E60
:10127800E125606F616B090E61231200636F656B76
:10128800040E646F040CEA0E606F090E616F636BE5
:10129800626B010E656F0F0E646F0F0CA36B17C2A4
:1012A800A4F018C2A5F019C2A6F01AC2A7F012003D
:1012B800E125D96EDA6A090EDA221200A96FE1C0B7
:1012C800AAF0EA0EAB6F090EAC6F12000001E051F4
:1012D8000F0BDB6F12003E0EA86F020E12002E0ECF
:1012E800A86F020E1200F00BDB19E06F120001016B
:1012F800656B646B626B606B616BC8C0A0F0C9C042
:10130800A1F0100E0001A26F010EA36F000EA46FD2
:10131800010EA56F99EC25F0CE51CF6FD06B0F0E53
:10132800CF27000ED023040ED16FD035D033CF3362
:10133800D12FFBD7CF510101636F635104E1010E37
:10134800636F626B0AD0CEC0CFF00F0E0001CF17CB
:10135800010ED8A4000E0101626F62052EE1646BD4
:101368006351100DF350F00F656F18D0200E010176
:1013780064251BD9100E6425E16EE26A010EFBD8C4
:10138800010165510001CC25E16E000ECD21E26E10
:10139800E750CF19DF6E0101642B652B6351C7D865
:1013A80001016551FED8CF51D15DD251800AD36F6A
:1013B800D051800AD35940E2D9D70001CE51CC256B
:1013C800CF6F000ECD21D06FCE510F0BCF5D010135
:1013D800606F0001D051D8A0D0050101616F656B25
:1013E800E9D865610CD065516025D96E000E612180
:1013F800DA6E300EC5D8E222DFCFE7FF09D0DAD89F
:10140800651904E1ADD8800EDF6E02D0A9D8DF6A75
:10141800652B0F0E6565E4D7656B200E6525C5D86D
:10142800000E6525E16EE26A010EA5D8300E0101B5
:10143800A7D88AD86565F1D7500E0001606F010EF4
:10144800ECEC53F0100E646F4FEC55F00101656B36
:1014580034D00101646B400E6425B1D8655167D85A
:10146800CCC0D1F0CDC0D2F090D864510001D125C4
:10147800E16E000ED221E26EE750D36F500E0101EB
:10148800642575D8E222E7500001D319DF6E010107
:10149800642B0F0E6465DFD7500E0001606F010EDC
:1014A800616F5AD83FD82BEC47F0500E8C6F010E65
:1014B80072D8B2EC56F00101652B0001CF69D069F2
:1014C800010163516ED861D865510001D36FD46BA7
:1014D800D151D35DD451800AD56FD251800AD559E4
:1014E800B8E30101656B400E652569D8200E6525B6
:1014F800E16EE26A010E3FD8500E0101652537D82A
:1015080023D86565F0D7400E00018C6F010E43D8D3
:10151800B2EC56F0CAC060F0CBC061F01DD802D85A
:101528002BEF47F0636F656B100E646F100C0001B2
:10153800CF6FD06BCF3BD03BF00ED017CF510F0BF6
:10154800D013F00ECF17F00CE222E7500001CF19AC
:10155800DF6E0101652B0F0C400E626F010E120049
:10156800300E6525D96EDA6A010EDA221200E16EB4
:10157800E26A010E1200E222E7500001CF6F12006A
:101588006525E16EE26A010E1200CF51D127D051D4
:10159800D223010112008D6FC8C08EF0C9C08FF030
:1015A80012000001D16FD26B1200D96EDA6A010EF7
:1015B800DA2212000001CE510F0B01011200D96E80
:1015C800DA6A010EDA2212000001FD6BFE6B616B14
:1015D800606BF5EC58F02DD90101BE5180EC5BF041
:1015E800BEC176F05AD9BB510AE1040EBA5D07E2D2
:1015F80046D9F5EC58F029D9BA4BBB2BF4D748D9C2
:10160800F5EC58F016D930C06EF031C06FF032C02A
:1016180070F033C071F0BEC172F0BAEC4CF03DD935
:10162800BB510AE1040EBA5D07E229D9F5EC58F07E
:101638000CD9BA4BBB2BF4D730C060F031C061F085
:1016480032C062F033C063F081EC5AF026D9BB5146
:101658000AE1040EBA5D07E212D9F5EC58F0F5D8A4
:10166800BA4BBB2BF4D730C060F031C061F032C048
:1016780062F033C063F08AEC5AF00FD9BB510BE12A
:10168800080EBA5D08E2B30EF0D8F5EC58F0BFD8F2
:10169800BA4BBB2BF3D7000176A106D0B30E6B6F04
:1016A800030E6C6FDDEC55F0F8D8BB510BE1080E5A
:1016B800BA5D08E2B30ED9D8F5EC58F0A8D8BA4B01
:1016C800BB2BF3D7000176A306D0B30E6B6F030EC6
:1016D8006C6F1FEC54F0E1D8BB510BE1100EBA5DF2
:1016E80008E2B30EC2D8F5EC58F091D8BA4BBB2B30
:1016F800F3D7000176A506D0B30E6B6F030E6C6F9F
:1017080019EC56F0CAD8BB510BE1100EBA5D08E2CD
:10171800B30EABD8F5EC58F07AD8BA4BBB2BF3D74D
:10172800000176A906D0B30E6B6F030E6C6F08EC40
:1017380054F0B3D8BB510BE1100EBA5D08E2B30EFA
:1017480094D8F5EC58F063D8BA4BBB2BF3D700010B
:1017580076AB06D0B30E6B6F030E6C6F05EC56F0CC
:10176800306A316A326A336A98D8BB510AE1040E8A
:10177800BA5D07E284D8F5EC58F067D8BA4BBB2BB2
:10178800F4D7000176A70AD030C060F031C061F00C
:1017980032C062F033C063F032EC59F0446A470E4D
:1017A800446401D019D074D8F5EC58F042D801013E
:1017B800BE51010ED8B4000E0001646F4450D8EC3D
:1017C80056F066D8F5EC58F034D8BEC167F04450EE
:1017D800F1EC55F0442AE3D75BD8F5EC58F029D85A
:1017E8000101BE5194EC53F053D8F5EC58F021D8D0
:1017F8000101BE51E8EC58F00B2904E10C2902E183
:101808000B6B0C6B0BC274F00CC275F01200DF6E20
:101818000001FD4BFE2BB30E0101BA25D96E030E54
:10182800BB21DA6EDF5002010B27000E0C230101E9
:10183800000C0101BE6F0001FD4BFE2B0101BE51E2
:1018480002010B27000E0C23000CDF6E0001FD4B7C
:10185800FE2B0101BA51300FD96EDA6ADF5002014E
:101868000B27000E0C230101000CBA25D96E030EBC
:10187800BB21DA6EFDC060F0FEC061F01200BA5103
:10188800300FD96EDA6AFDC060F0FEC061F0120058
:10189800FDC060F0FEC061F012000101BA6BBB6BC5
:1018A800120000017B6F796B7A6B080E7B192EE1B1
:1018B80027EED4F0DE50DE10D8B412001BD98F0EFC
:1018C8007025D96E050E7121DA6EDF5014E1D3C789
:1018D800E8FFFF0FE8CFD3F702D9DECFD6F7DDCF89
:1018E800D7F7FDD8DE6ADD6A27EED3F0DF5009D9D5
:1018F800DE6ADD6A05D027EED6F0DE06000EDD5A78
:1019080027EED4F0DE06000EDD5A000C27EED4F0E8
:10191800250EDE5C020EDE5846E2200E7B1945E1FC
:1019280027EED3F0060EDF603ED0E4D805D9000ECE
:10193800DF6A27EED4F0DE2ADD2227EED6F017EE96
:10194800D3F0E750020DB60EF324E16E070EF42033
:10195800E26EDECFE6FFDDCFE5FF7069716927EE45
:10196800D6F0F1D827EED4F0DECF74F0DDCF75F0E5
:101978007251745F7351755B70517427715175237F
:1019880027EED3F0DF50BDD874C0DEFF75C0DDFF91
:10199800D3C7E8FF010FE8CFD3F7000EE8CFD6F79B
:1019A800E8CFD7F777D0796975D0A4D8C5D87BC0E8
:1019B800DFFF27EED4F0DE2A000EDD2227EED6F078
:1019C800DE2ADD2283D88DEC4DF027EED4F060516D
:1019D800DE5C6151DE582EE3010E7A6F77D88DEC0C
:1019E8004DF060517C6F22D085D8B2D87C51725F9F
:1019F800000E9AD8DF50746F69D88DEC4DF0E60E62
:101A0800756FFF0E766F60517527615176237C5193
:101A1800755F000E765B75C0F6FF76C0F7FFF86A53
:101A28000800F550741901E07A6B7C077C5102E0DC
:101A38007A51DAE17A512EE05DD848D88DEC4DF034
:101A480087D86051725F61516FD8DF6A3FD88DECDB
:101A58004DF027EED6F05DD86051705F6151715B33
:101A68003ED870C0DEFF71C0DDFF27EED6F051D83A
:101A780027EED4F068D87051725F7151735B27EE0E
:101A8800D3F0DF503ED872C0DEFF73C0DDFF010E19
:101A9800E8CFD2F77929D8A41200DAEC53F08DC335
:101AA80060F08EC361F08CEC12F08DEC4DF060C0EC
:101AB80077F061C078F08DC366F08EC367F02ED8DA
:101AC80077C069F078C06AF076EF3DF0E60E606F97
:101AD800FF0E616F6011D8A4000E626F120027EE2E
:101AE800D3F0DF50020DB60EF324D96E070EF420A2
:101AF800DA6E120027EED4F0DECF70F0DDCF71F091
:101B08001200020DC40EF324D96E070EF420DA6E0B
:101B18001200DECF70F0DDCF71F012006651671150
:101B2800D8A4000E686F1200735B70517225D96ECD
:101B380071517321DA6E1200900E7025D96E050E60
:101B48007121DA6E1200DECF72F0DDCF73F0120071
:101B5800900E726F050E736F1200806B816B796B3C
:101B68007A6B0001616BE40E606F626915EC4FF0EF
:101B78000001616BE50E606F626915EC4FF0C0C142
:101B88007FF101017F517927000E7A230001616BF3
:101B9800606B7FC162F015EC4FF00101804B812B27
:101BA8007B0E0001606F010E616F7F0E626F010E88
:101BB800636F66EC56F00101826BF4D815EC4FF0B8
:101BC80023D9030E8265F9D77F5104D915EC4FF05C
:101BD8000101804B812B4BEC5AF060C07BF161C056
:101BE8007CF162C07DF163C07EF1826BDBD815ECBD
:101BF8004FF00AD9030E8265F9D754EC5AF060C049
:101C08007BF161C07CF162C07DF163C07EF1826BC3
:101C1800C9D815EC4FF0F8D8030E8265F9D7680ECD
:101C280000016B6F010E6C6FE7EC57F00101826BDE
:101C3800A1D815EC4FF0E8D8070E8265F9D7680EE1
:101C480000016B6F010E6C6FA4EC59F00101826BFF
:101C580091D815EC4FF0D8D8070E8265F9D7680EE1
:101C680000016B6F010E6C6F8EEC59F00101826BF5
:101C780081D815EC4FF0C8D80F0E8265F9D7680ED9
:101C880000016B6F010E6C6F78EC59F00101826BEB
:101C980071D815EC4FF0B8D80F0E8265F9D7680ED9
:101CA80000016B6F010E6C6F83EC59F00101826BC0
:101CB80061D815EC4FF0A8D80F0E8265F9D75DEC06
:101CC8005AF060C07BF161C07CF162C07DF163C0F5
:101CD8007EF1826B67D815EC4FF096D8030E8265BB
:101CE800F9D7786B470E786501D016D0785105EC96
:101CF80058F07FD86FD815EC4FF00101804B812B3D
:101D08007851F6EC57F075D865D815EC4FF001010D
:101D1800804B812B782BE6D7DEEC5BF06AD85AD85B
:101D280015EC4FF00101804B812BB6EC5BF061D8CC
:101D380051D815EC4FF00101804B812B792904E132
:101D48007A2902E1796B7A6B4FD879C162F015EC88
:101D58004FF00101804B812B47D87AC162F015EC16
:101D68004FF00101804B812B20EE06F06651D926F9
:101D7800675143D0680E8225D96EDA6A010EDA22DD
:101D8800DF507927000E7A2380C160F081C161F0AD
:101D9800680E8225D96EDA6A010EDA22DF50000158
:101DA800626F12007B0E8225D96EDA6A010EDA2282
:101DB800DF507927000E7A2380C160F081C161F07D
:101DC8007B0E8225D96EDA6A010EDA22DF50000115
:101DD800626F12007927000E7A2380C160F081C1FA
:101DE80061F07FC162F0000C80C160F081C161F0D8
:101DF800120001017F6F7F511200DA22CFC2DEFF8D
:101E0800D0C2DEFFDD6A12000101804B812B822BDC
:101E18001200070E786F796B3CD9DF500F0B726F89
:101E280038D9DF506E6F6E390F0B736F6C4B6D2B9B
:101E380030D9DECF76F0DDCF77F076C074F077C09A
:101E480075F0020E6C27000E6D236CC07AF06DC021
:101E58007BF06C4B6D2B020113ABF1D076C060F0B8
:101E680077C061F00AD90001DF38070BCEEC58F0D3
:101E7800000901E08BD002017D51EFD8DF805BD0F3
:101E8800FCD8DF38070B6E6F6E39F00B716F71512C
:101E9800100F6F6F71C07CF023D07C51E6D8F2D858
:101EA8000BE274B103D07451751106E17C51DDD891
:101EB800DF500F0B0001786F7C51D7D8F3D87961C8
:101EC8000BD074B103D07451751106E17C51CDD893
:101ED800DF380F0B0001796FD890753374337C2B82
:101EE8006F517C5D39E2D9D7040E786F796F7651DE
:101EF800771132E102017D51B0D8DF902DD07C6B93
:101F08007C51B3D8BFD803E27C51AFD8C7D87C5135
:101F1800ACD8DF380F0B0001796103D07C51A5D80C
:101F2800C5D87C2B3F0E7C65EBD77651771114E032
:101F3800040E796F11D0A1D80001DF38070BA0E09B
:101F4800010A9EE0030A9CE0010A9AE0070ACCE035
:101F5800020AD5E0010AC8E000017C6B7C512DEC37
:101F68003BF0DE040FE17C5180D88CD803E27C5131
:101F78007CD894D87C5179D895D8796103D07C5194
:101F880074D894D87C2B460E7C65E8D7735102EC44
:101F98005AF000090EE17851735D0BE37351795DD6
:101FA80008E302017D5159D8DF8200017351C2EC68
:101FB8005BF00B0E0001726114D0060E721911E06D
:101FC80002017D514AD8DF84050E0001726102D0FA
:101FD800706F02D072C070F07051BEEC5BF00201FD
:101FE800148702017D5139D8DFA00BD076C067F085
:101FF80077C068F042D80001DF38070B696FA0ECA2
:102008003EF002017D5129D8DFB408D07D5125D892
:10201800DFB204D07D5121D8DFA01AD02ED800011C
:10202800DF500F0B03E10201AC6B07D026D8DF505D
:102038000F0B6E6F6E050201AC6F148909D07D51CC
:102048000CD8DF907D5109D8DF927D5106D8DF94F6
:102058006CC06CF06DC06DF01200020D7F0EF324A1
:10206800D96E020EF420DA6E1200020D010EF3246E
:10207800D96E050EF420DA6E12007AC0D9FF7BC043
:10208800DAFF1200DF500F0B00016E6F78516E5DA2
:1020980012006CC0D9FF6DC0DAFF1200DF500F0BC1
:1020A800786F1200DF380F0B00011200DF380F0BBA
:1020B800796F12008C6B97C39FF198C3A0F19F5161
:1020C800A011D8A4000EA16F8F6B35D08F51090DC8
:1020D800F35083250001F86FF450010184210001B9
:1020E800F96F000E010185210001FA6FF8C0F6FFB3
:1020F800F9C0F7FFFAC0F8FF21EE90F0080E0FD9EB
:10210800FEE290C160F091C161F00101875185EC58
:102118000DF0DECFF8F0DDCFF9F0900E0001F825D4
:10212800626F050EF921636F3BEC3CF06051611161
:1021380005E001018F2B86518F5DC8E301018651AF
:102148008F5D01E3AAD092519311941101E09AD0C6
:102158009551961101E1A1D098510001F86FF96BE2
:1021680001018751D3C7FAF0FAC0FBF00001FC6BFC
:10217800FB5F000EFC5BF851FB1903E1F951FC19F8
:10218800D8A48BD0010187298E6F8D6B985114E0EC
:102198008E2B8E05020DB60EF324D96E070EF42091
:1021A800DA6EDE50DE1003E1010E8D6F05D027EEEA
:1021B800D3F08E51DE5CECE28D516FE1990E000197
:1021C800606F010EECEC53F0090E646F4FEC55F0A4
:1021D80001018CD8F82B000EF923F95113E1070EF1
:1021E800F85D10E27AD8B80EF825D96E070E92D8A5
:1021F80009E073D8C60EF825D96E070E7CD8996FFA
:1022080084D89A6F010172D8020E8ED813E1070E96
:10221800F85D10E262D8BA0EF825D96E070E7AD8A2
:1022280009E05BD8C80EF825D96E070E64D89B6FF5
:102238006CD89C6F01015AD8030E76D813E1070EAB
:10224800F85D10E24AD8BC0EF825D96E070E62D8A0
:1022580009E043D8CA0EF825D96E070E4CD89D6FF1
:1022680054D89E6F990E0101666F010E676F01D8F1
:1022780014D00500FA6E9551FD6E9651FE6EFF6AF8
:10228800FA501200010E8C6F88C1D9FF89C1DAFF9C
:102298008FC1DFFF9F6BA06BA16B01019F51A01144
:1022A800A11118E09FC160F0A0C161F0A1C162F066
:1022B8008DEC4DF060C08AF161C08BF19FC166F072
:1022C800A0C167F0A1C168F08AC169F08BC16AF04A
:1022D80076EC3DF001018C5112000101875100019B
:1022E800F86FF96BD890F837F93712008751000169
:1022F800F86FF96B1200F921DA6EDECFFAF0DDCF54
:10230800FBF0900EFA2501011200050E0001FB21D9
:1023180001011200F921DA6EDE50DE101200090008
:10232800F5CFDEFFE8061200F827000EF923F95171
:102338001200D6D0C45154E023D94BC362F04CC329
:1023480063F064EC53F0DBD88DEC4DF0F7D8AE6F4A
:10235800070ED321AF6FC2C0D9FFC3C0DAFFDF5069
:10236800B06F28EC31F028EC51F0C9D88DEC4DF065
:10237800E5D8F3D8D24BD32BC669C769C451C86F07
:10238800C96BC651C827C751C923120ECA6F020E9E
:10239800CB6FD251CA5FD351CB5BD890CB31CD6FC5
:1023A800CA31CC6FC851CC5DC951CD5903E2B6D8FA
:1023B800DBD806D0FF0EC425CE6FCF6BFF0ECF2320
:1023C800C229B66F000EC321B76FBFD88AEC34F0AC
:1023D80096D88DEC4DF0ADD8CDD8D8A4200E0DD020
:1023E80047C360F048C361F093D88DEC4DF0A1D895
:1023F80047C366F048C367F06ED0686FD0C069F015
:10240800D1C06AF076EF3DF0C45125E0B9D849C390
:1024180062F04AC363F064EC53F071D88DEC4DF070
:102428008DD89BD8D24BD32B79D8C96FC631C86FFA
:10243800C451C85D000EC95903E270D895D803D0BD
:10244800C4C0CEF0CF6BC2C0B6F0C3C0B7F07DD861
:102458008AEC34F0BDD745C360F046C361F058D864
:102468008DEC4DF066D845C366F046C367F033D0AF
:102478004DC360F04EC361F04BD88DEC4DF059D888
:102488004DC366F04EC367F026D04FC360F050C30B
:1024980061F03ED88DEC4DF04CD84FC366F050C378
:1024A80067F019D051C360F052C361F031D88DEC98
:1024B8004DF03FD851C366F052C367F00CD053C3F8
:1024C80060F054C361F024D88DEC4DF032D853C37A
:1024D80066F054C367F066516711D8A4000E8DD713
:1024E8000001C551D2E0010A01E124D7030AC0E086
:1024F800010A8AE0070AD6E0010AE1E01200D80ED4
:10250800606F070E616F6011D8A4200E626F120011
:1025180060516111D8A4000E626F1200120EC66FCE
:10252800020EC76FD251C65FD351C75BD890C7316F
:10253800120060C0D0F061C0D1F0120060C0D2F0CB
:1025480061C0D3F0D80ED2251200D80ED225B86FAC
:10255800070ED321B96FCE511200D96E070ED321C1
:10256800DA6E200EDF6E200CC86FC631CE6FC8C081
:10257800CFF01200D80E666F070E676F6611120053
:10258800D80E606F070E616F12008B6B68518B2538
:10259800D96EDA6A8B51710FE16EE26ADFCFE7FF1D
:1025A8008B2B0F0E8B65F2D70A0E4F6E010E4E6EF7
:1025B8008B6BC4D8B5D800D98B65FBD78B6BB0D8DB
:1025C800DF50696F6A6BD10E6925F66EF60E6A21C7
:1025D800F76EF86A000EF822A3D80800F5CFDFFFDF
:1025E8008B2B0F0E8B65EBD766C060F067C061F070
:1025F800C8EC2CF04F0401E184D08B6B98D8692982
:10260800D96EBDD86B6F8CD8DF506B19896F8FD896
:10261800CFD8B5D8A4D88A6F8919876F88D869297F
:10262800D96EADD89CD8886F7F0E896508D01B0EEF
:1026380089C069F0A9D8816F6A51826F05D0D89096
:102648008935816F826B823781C089F07F0E8865FA
:1026580008D01B0E88C069F097D8836F6A51846FC1
:1026680005D0D8908835836F846B843783C088F011
:102678007F0E8A6508D01B0E8AC069F085D8856FE1
:102688006A51866F05D0D8908A35856F866B8637F4
:1026980085C08AF045D884D887198919DF6E47D84C
:1026A8006929D96E52D86B2975D887198819DF6EB0
:1026B8003ED8020E6925D96E48D8020E6B256AD815
:1026C80087198A19DF6E33D873D83FD8020E6B2565
:1026D80061D86D6F8B5166256E6F000E67216F6F25
:1026E8006E29E16E000E6F21E26EE750706F58D8C8
:1026F80070196D198719DF6E040E8B270F0E8B6505
:102708007DD7710E606F54EC1FF08B6B17D808D80B
:1027180053D88B65FBD74F064F5001E04FD71200B7
:102728008B516625D96E000E6721DA6E12008B5127
:102738006625696F000E67216A6F12008B51710F51
:10274800D96EDA6ADF50696F1200000E6A21DA6EFC
:102758008B5166256B6F000E67216C6F12006B6FD3
:102768008B5166256C6F000E67216D6F020E6C250C
:10277800D96E000E6D21DA6EDF506B191200000E53
:102788006A21DA6EDF5012006A6BD89069376A37AF
:1027980069191200E16E000E6C21E26EE75012001A
:1027A8008B516625E16E000E6721E26EE75012003C
:1027B800030E6925D96E12006951DF1A8B2B0F0C95
:1027C8009FD00001A669A769A869A969A6D011A523
:1027D80021D0B851B8EC52F08C5102E1CFD80DE3BA
:1027E8000201B851B8EC52F00D0E01D0D4D8E82E41
:1027F800FDD7B0D893EC4BF06ED00201B851B8ECCD
:1028080052F0A8D893EC4BF00D0E01D0BED8E82EAC
:10281800FDD761D013A181D0BA51B8EC52F08C51D8
:1028280002E1ACD80DE30201BA51B8EC52F00D0E3A
:1028380001D0B1D8E82EFDD78DD893EC4BF04BD012
:102848000201BA51B8EC52F085D893EC4BF00D0E5A
:1028580001D09BD8E82EFDD73ED011A504D0B951A0
:10286800B8EC52F005D013A104D0BB51B8EC52F02B
:1028780098D80001A95102E19DD81DE3A6C0A2F095
:10288800A7C0A3F0A8C0A4F0A9C0A5F00D0E05D05C
:10289800D890A533A433A333A233E82EF9D7A2C026
:1028A80092F0A3C093F0A4C094F0A5C095F060D8AE
:1028B80093EC4BF010D0A6C092F0A7C093F0A8C03C
:1028C80094F0A9C095F054D893EC4BF00D0E01D0BC
:1028D8005CD8E82EFDD792C0A6F093C0A7F094C0AC
:1028E800A8F095C0A9F019D0BE51B8EC52F059D84B
:1028F800A951C4E15FD8C2E2DED7000162D80DD089
:1029080002011331070B01E15CD7020A01E15FD72D
:10291800060AA3E0020AE8E0F0D70001A951A811CD
:10292800A71103E1C80EA65D09E3CE0EA627FF0E88
:10293800A723A823A9230201138F03D042D8020199
:10294800139FA6C09EF0A7C09FF0A8C0A0F0A9C082
:10295800A1F0120089C092F08AC093F08BC094F065
:102968008CC095F07D0E966F976B986B996B7D0C6C
:102978007D0E966F976B986B996B7D0C1F0E895D1A
:10298800AC0E8A59DF0E8B591200D89095339433C8
:10299800933392331200D8908C338B338A33893334
:1029A800120089C0A6F08AC0A7F08BC0A8F08CC01E
:1029B800A9F012001F0EA65DAC0EA759DF0EA8598C
:1029C8001200A66BA76BA86BA96B1200EED86B6FF1
:1029D8006A6BD0D0635101E1BAD06A51DED8DE28E3
:1029E80001E1B5D0FE0E646F65696A51D6D8DF5033
:1029F800666F676B6451662765516723260E6625E7
:102A0800F66EF80E6721F76EA0EC3BF06BC068F02D
:102A1800696B6827000E6923C8D8685F000E695B78
:102A280069BF95D0695105E1100E685D01E3A8D032
:102A38008ED0A6D0ABD8030EDF6E6B2BA7D8DF6A7B
:102A48006A5131EC10F0DFA004D000019FD8000ECD
:102A5800DB8000016A5131EC10F0DFA203D096D878
:102A6800000EDB8200016A5131EC10F0DFA403D0C4
:102A78008DD8000EDB8400016B2B7BD087D8050E28
:102A8800DF6E6B2B83D8DF6A6A5131EC10F0DFA65A
:102A980004D000017BD8000EDB8000016A5131ECC4
:102AA80010F0DFA803D072D8000EDB8200016A5153
:102AB80031EC10F0DFAA03D069D8000EDB840001E6
:102AC80065D8DF50516ED7D761D8060EDF6E6B2BF5
:102AD8005DD8B6C2DFFF6B2BEAEC5BF0800AA00F73
:102AE80005E3EAEC5BF0800A600F04E300014ED8CE
:102AF800200E05D000014AD8EAEC5BF03F0BDF6EF0
:102B0800BAD744D8070EDF6E6B2B40D8DF6A6A51FC
:102B180031EC10F0DFAE04D0000138D8000EDB80B5
:102B280000016A5131EC10F0DFACA5D72FD8000EA8
:102B3800DB82A1D70201B369B46B00016A512DD8B9
:102B48006B516025E16E000E612134D894D76A512B
:102B580024D8DF50020AEEE0010A01E16BD7070A28
:102B6800ECE0010A8BE0030AAFE0010ACAE00F0AB1
:102B7800E4E06A2B02017D5100016A5D01E22AD777
:102B88006251D96EDA6A6BC0DFFF12006B516025A3
:102B9800D96E000E6121DA6E1200020D7E0EF3244A
:102BA800D96E020EF420DA6E12006251D96EDA6A1A
:102BB800DF501200E26EDFCFE7FF12009E96C6AE2E
:102BC800CED0C69E4D6A010115EC52F0DECF04F05E
:102BD800DDCF05F004C0D9FF05C0DAFF010EDF6EB6
:102BE800BC6BBD6B1200020104B3120002C2BCF13F
:102BF80003C2BDF102C2D9FF03C2DAFFDF504C6E37
:102C080020EE01F00251D9260351DA22DECF3CF042
:102C1800DDCF3DF0050E0227000E0323E20E021958
:102C280007E1030E031904E1DD0E026F030E036FC3
:102C380004910051021904E10151031901E10483CF
:102C4800C580020E4D6E020CC5AC04D015D0040E22
:102C580001EF52F0D8900101FC31056EFB31046E92
:102C68000450C96EFBA103D00B0E4D6E0B0C030E66
:102C78004D6E030CC5AC03D00201062BE8D7C58204
:102C88000101FC51060B046E056AF00E0410FB6F7F
:102C98000550FC6FFB81010E4A6ED3D74A0414E03D
:102CA8003CC0D9FF3DC0DAFFDECFFBF1DDCFFCF140
:102CB80020EE03F06ED8DECF0DF2DDCF0EF220EE5F
:102CC80002F067D8DF504B6EFBC1C9FF0101FBA1C1
:102CD800CED7050E4D6E050CC5AC06D00201062BED
:102CE800C59C050E01EF52F04B064B2807E1BCECE2
:102CF80058F04C2E01D02BD0C582A3D74FD8DF5027
:102D0800C96E02010D4B0E2B1200C5AC07D0020193
:102D1800062B040E01EC52F0C59C1200C586080E65
:102D28004D6E080C080E4D6EC586080C37D8C9CFF5
:102D3800DFFF02010D4B0E2B4B0604E0C59A060E71
:102D48004D6E03D0C58AB3EC58F0C5881200000E4A
:102D580001EF52F00201062B060E01EF52F04D5022
:102D680001E141D7010AC8E0030A98E0010AB4E08A
:102D7800070AEDE0010AC9E0030AD4E0010AE7E026
:102D88000F0AD4E0020A01E15FD7010A01E172D714
:102D9800E1D73C50D9263D50DA2212000DC2D9FFA6
:102DA8000EC2DAFF12000101E8A506D0800E00016C
:102DB800A96F030EA86F030CE8C1ABF0030E000166
:102DC800AB1705E0800EA96F040EA86F040C010173
:102DD800DD5109E1400E0001AA6505D0800EA96FFA
:102DE800020EA86F020C8A860101EC5178EC5AF0A9
:102DF800C7D811EC04F00101DD0521E1AAC062F099
:102E0800220E32EC58F00A0EC5EC56F0B76FF00EF1
:102E1800B717B787B7C062F00A0E32EC58F0400E09
:102E28000001626F32EC58F0A8D832EC58F0DDC1DE
:102E380065F0010E0001666F62EC2AF007D0A6EC7F
:102E480018F032EC58F099D832EC58F00101DD5105
:102E580005E1AAC062F0000E32EC58F027EC5CF0F5
:102E6800800E7BEC5BF00001B86B0BD0B851A82545
:102E7800D96E000EA921DA6EDF507BEC5BF0000101
:102E8800B82BAA51B85DF2E325EC5CF00101E881AA
:102E9800E70EE8172DEC57F0030E62EC2AF000015C
:102EA8006D6B6E6B0A0E6F6F706B0101EC510CEC61
:102EB80051F00101EC5118EC42F059D844E0F251BC
:102EC80002E14FD80BE343D89EEC28F0DBEC3EF050
:102ED8000C0E29EC24F0E82EFCD71DD0EFC1ABF086
:102EE800F0C1ACF0F1C1ADF0F2C1AEF00C0ED8906B
:102EF8000001AB37AC37AD37AE37E82EF8D7ABC0EB
:102F080060F0ACC061F0ADC062F0AEC063F08EECB2
:102F180018F0DBEC3EF060C0B3F061C0B4F062C002
:102F2800B5F063C0B6F0B3C06DF0B4C06EF0B5C014
:102F38006FF0B6C070F00101EE510CEC51F00101D8
:102F4800EE5118EC42F00001A86BA96B1200EFC11A
:102F580060F0F0C161F0F1C162F0F2C163F000010C
:102F68007D0CEF29FF0EF0590F0EF15912000101E7
:102F7800EF51F011F111F21112000001626B410CD6
:102F8800000E9F6F040E9E6F040C0101E8A506D089
:102F9800800E0001A96F030EA86F030CE8C1AAF008
:102FA800030E0001AA1705E0800EA96F040EA86F92
:102FB800040C8A86A851A91105E1C4EC17F011EC9C
:102FC80004F006D0A8C09EF0A9C09FF011EC04F050
:102FD8000101DD050EE1010E0001626F220E32ECE7
:102FE80058F0B0D832EC58F0C1EC17F032EC58F089
:102FF80011D0F9C162F0120E32EC58F0FAC162F049
:10300800130E32EC58F09ED832EC58F0C1EC17F0A1
:1030180032EC58F00101E883E70EE8170001A851E7
:10302800A91106E1B2EC50F0050E62EC2AF030D09E
:103038000101DD0509E1010E0001656F000E666FF3
:10304800060E62EC2AF024D0000E73D862EC2AF047
:103058000001A851AA6FA951AB6FAC6BAD6B0C0EF8
:10306800D8906BD8E82EFCD75BD854D8DBEC3EF070
:1030780060C06DF061C06EF062C06FF063C070F048
:103088000101ED510CEC51F00101ED5118EC42F049
:10309800BBEC17F03BE0F25103E1B5EC17F00CE3A1
:1030A800ABEC17F09EEC28F0DBEC3EF00C0E29ECB4
:1030B80024F0E82EFCD712D0EFC1AAF0F0C1ABF093
:1030C800F1C1ACF0F2C1ADF00C0ED890000135D8CA
:1030D800E82EFBD725D81ED8DBEC3EF060C0AEF05A
:1030E80061C0AFF062C0B0F063C0B1F0AEC06DF0C7
:1030F800AFC06EF0B0C06FF0B1C070F00101EE511A
:103108000CEC51F00101EE5118EC42F00001A86BF3
:10311800A96B12007D0E646F656B666B676B7D0C27
:10312800AAC060F0ABC061F0ACC062F0ADC063F0A3
:1031380012000001656F666F050CAA37AB37AC3714
:10314800AD3712000001626B400C66C1D9FF67C140
:10315800DAFFDECFEDF0DDCFEEF020EE02F0C9D8D9
:10316800DECFF0F0DDCFF1F0010E0001EF6FF36973
:10317800EDC0C5F0EEC0C6F0FEEC2BF0F26FF0C06B
:10318800AEF0F1C0AFF0010EB06F5EEC2CF016ECB3
:103198003FF0000908E0F0C066F0F1C067F07DEC90
:1031A80035F06651F36FF2AFF3BF92D0EF6B6CD08E
:1031B800F35102E189908CD089808AD0F35102E1E1
:1031C800899286D0898284D0F35102E1899480D093
:1031D80089847ED0F35102E189967AD0898678D0A5
:1031E800F35102E1899874D0898872D0F35102E1D1
:1031F800899A6ED0898A6CD0F35102E18D9068D09B
:103208008D8066D0F35102E18D9262D08D8260D0BC
:10321800F35102E18C945CD08C845AD0F35102E1D2
:103228008D9456D08D8454D0F35102E18B9A50D0AE
:103238008B8A4ED0F35102E18C9A4AD08C8A48D0BE
:10324800F35102E18C9E44D08C8E42D0F35102E1BE
:103258008C9C3ED08C8C3CD0F35102E1899E38D0B6
:10326800898E36D0F35102E1899C32D0898C30D0D6
:10327800F35102E18A9E2CD08A8E2AD0F35102E1C2
:103288008A9C26D08A8C24D0F25192E0010A96E0DA
:10329800030A9AE0010A9EE0070AA2E0010AA6E0F2
:1032A800030AAAE0010AAEE00F0AB2E0010AB6E09A
:1032B800030ABAE0010ABEE0070AC2E0010AC6E052
:1032C800030ACAE0010ACEE01F0AD2E0010AD6E0EA
:1032D800EF5105EC1BF0DECFEBF0DDCFECF0010198
:1032E80020EE06F006D8EBC0DEFFECC0DEFFDD6A9C
:1032F80012006651D9266751DA2212007BC0C5F147
:103308007CC0C6F17DC0C7F17EC0C8F1A80E01011E
:10331800C96F610ECA6FCB6BCC6B500ECD6FC30EED
:10332800CE6FCF6BD06B010EDD6F070EDF6F020E15
:10333800E06F010EE66FE76BD26B080ED16F0C0ED3
:10334800DE6F010EE16FE26BE56BC10ED46F940E78
:10335800D56FC10ED66F030EDC6F340ED36FE86BDA
:10336800E96B79C0EAF17AC0EBF1E36BE46B800EAC
:10337800F76F980EEF6F3A0EF06FF16BF26B020E6B
:10338800F86F0B0EF96F120EFA6FF46BF56BF351C1
:1033980023E16DEC4BF00101EC6F6DEC4BF001019A
:1033A800ED6F6DEC4BF00101EE6FF20E0001606FF6
:1033B800AC0E616F626B0101ED5123EC58F0960E73
:1033C800606FA30E616F626B0101EE5123EC58F040
:1033D800010E0101F36F0BD0EC5178EC5AF00101AA
:1033E800ED5178EC5AF00101EE5178EC5AF08EEC80
:1033F80054F0000E0001656F010E666F62EC2AF052
:10340800FFEC05F08CEC29F0420E23EC06F032ECD0
:1034180058F03B0EC5EC56F07F6F7FBBFAD7230EF2
:10342800626F0C0E32EC58F01E0E0001626F0D0E2A
:1034380032EC58F0AA0E0001626F1F0E32EC58F001
:103448008F0E0001626F350E32EC58F00001626990
:10345800320E32EC58F0400E0001626F310E32EC41
:1034680058F0010E0001656F666F000E62EC2AF0DD
:1034780093866186F19E0001806B05D081A602D0FB
:10348800939603D0802B80AFF9D76196F18E62694D
:10349800230E32EC58F0420EC5EC56F00101F66FDF
:1034A800120066C1D9FF67C1DAFFDECFEDF0DDCFCC
:1034B800EEF0010E0001EF6FF169EDC0C5F0EEC04E
:1034C800C6F0FEEC2BF0F06FF0BF80D05AD0000EA3
:1034D80080B0010EF16F79D0000E80B2010EF16F4D
:1034E80074D0000E80B4010EF16F6FD0000E80B65C
:1034F800010EF16F6AD0000E80B8010EF16F65D031
:10350800000E80BA010EF16F60D0000E84B0010E7B
:10351800F16F5BD0000E84B2010EF16F56D0000E31
:1035280083B4010EF16F51D0000E84B4010EF16F17
:103538004CD0000E82BA010EF16F47D0000E83BA4C
:10354800010EF16F42D0000E83BE010EF16F3DD027
:10355800000E83BC010EF16F38D0000E80BE010E44
:10356800F16F33D0000E80BC010EF16F2ED0000E2B
:1035780081BE010EF16F29D0000E81BC010EF16FE2
:1035880024D0F051A4E0010AA7E0030AAAE0010A46
:10359800ADE0070AB0E0010AB3E0030AB6E0010AA9
:1035A800B9E00F0ABCE0010ABFE0030AC2E0010A61
:1035B800C5E0070AC8E0010ACBE0030ACEE0010A29
:1035C800D1E01F0AD4E0010AD7E0EF6BEF5109E020
:1035D800EF5117D8DECFEBF0DDCFECF01FD8DD6A66
:1035E800120017D8F151A76FA86BA7BFA80722D858
:1035F800B8EC36F0D80EEB6F070EEC6F0FD8D9EF9A
:103608002DF0020DEB0EF324D96E020EF420DA6EC3
:103618001200D80EA56F070EA66F1200010120EE4A
:1036280006F06651D9266751DA22EBC0DEFFECC0FE
:10363800DEFF1200AA6B0A0EA96F0A0C0001BC6F0C
:103648000201CB5167EC5BF0B5C2BAF00001BC05D2
:103658001CE1BCC0A7F0BD0EA86FA96B0201C35145
:103668000AEC2FF0BB6FE30E0201B525A9D89DD84F
:10367800F5505DEC5BF00201C551B55D0A0F236F93
:103688000D0E23653FD0236F3DD0020111BD11D02F
:10369800B56B9AD8400E0AEC2FF0BB6F0A0E5DECA2
:1036A8005BF00201C5510A08236F070E76EC5BF048
:1036B80015D0040EB56F88D8080E0AEC2FF0BB6F32
:1036C800080E5DEC5BF00201C5510E08236F0D0E6C
:1036D800236501D0236F090E76EC5BF0020111BD62
:1036E80004D00001B56BB52B02D00001B56BB53B1A
:1036F800B547B547020111510001B519BF0BB519FE
:103708000201116FBAC0B5F20001BB514BE1400E86
:10371800BD6116D0BD51D4EC4AF09EC0B6F09FC032
:10372800B7F0A0C0B8F0A1C0B9F0070E76EC5BF016
:103738001B0E020140D839D8F55062EC5BF020D05E
:10374800BD51EAEC42F09EC0B6F09FC0B7F0A0C0F1
:10375800B8F0A1C0B9F0090E76EC5BF01B0E0201BF
:103768002AD823D8F550800A650F07E21B0E23D804
:103778001CD8F55062EC5BF003D01A0E62EC5BF0DB
:10378800B6C060F0B7C061F0B8C062F0B9C063F00D
:1037980023EC3AF0010E71EC5BF0000E6CEC5BF080
:1037A800BDC0B0F20001BB511200F722F86A000E4A
:1037B800F82208001200B725F66EF76AF80E120014
:1037C800F66EF76AF70E1200BCC0A7F0BD0E000136
:1037D800A86FA96B1200B86BB3C0B9F0B4C0BAF047
:1037E800A5D002017D5131EC10F0DF907D5131EC14
:1037F80010F0DF927D5131EC10F0DF947D5131EC07
:1038080010F0DF967D5131EC10F0DF987D5131ECEE
:1038180010F0DF9A7D5131EC10F0DF9C7D5131ECD6
:1038280010F0DF9E97D87D51020D7E0EF324E16ED5
:10383800020EF420DEEC15F05BD0B9C060F0BAC01F
:1038480061F0A4EC54F060C0B9F061C0BAF00201B4
:103858007D51D1EC15F0DF685FD0B9C06CF0BAC00B
:103868006DF00DEC0FF06CC0B9F06DC0BAF054D02B
:10387800B9C060F0BAC061F067EC57F060C0B9F049
:1038880061C0BAF049D0B9C09EF0BAC09FF01DEC33
:1038980022F09EC0B9F09FC0BAF03ED0B9C060F027
:1038A800BAC061F058EC5BF060C0B9F061C0BAF022
:1038B80033D0B9C0ABF0BAC0ACF005EC21F0ABC066
:1038C800B9F0ACC0BAF028D0B9C067F0BAC068F097
:1038D8003AEC55F067C0B9F068C0BAF01DD0010ED7
:1038E800B86FB551B325B96F000EB421BA6FAFD711
:1038F80031D80001B94BBA2BDF50020A9EE0010A09
:10390800ACE0070AB5E0010ABEE0030AC7E0010A15
:10391800D0E00F0AD9E0E3D702017D51D1EC15F0D0
:10392800DE2804E0100E7D6101D07D2B0001B55129
:10393800B325B66F000EB421B76FB651B95DB75154
:10394800BA5903E2B85101E14CD7B9C0B3F0BAC0D3
:10395800B4F01200B9C0D9FFBAC0DAFF1200AFD86C
:103968009E4B9F2BAD51FDEC56F0F9E2A96BAA6B6B
:10397800AB6BAC6BA86B2D0EAD1906E1010EA86FF1
:103988009ED89E4B9F2B03D02B0EAD19F9E0300E1D
:10399800AD191DE194D89E4B9F2BA251A31104E0B1
:1039A800100EA219A3110DE1780EAD1903E0580EFF
:1039B800AD1907E1A36B100EA26F81D89E4B9F2B08
:1039C80006D0A251A31103E1A36B080EA26FA25166
:1039D800A31103E1A36B0A0EA26FAD5153EC56F08D
:1039E80006E3AD5199EC59F0C90FAD6F06D0AD5152
:1039F80014EC58F02EE3300EAD5FAD51A46FA56BFB
:103A0800A251A45DA551800AA66FA351800AA659A8
:103A180020E2A2C092F0A3C093F018EC43F0A9C032
:103A280096F0AAC097F0ABC098F0ACC099F093ECB0
:103A38004BF0AD519225A96F000E9321AA6F000E8D
:103A48009421AB6F000E9521AC6F39D89E4B9F2BFC
:103A5800C4D7A051A1110EE0FF0E9E25A46FFF0E42
:103A68009F21A56FA0C0D9FFA1C0DAFFA4C0DEFFC7
:103A7800A5C0DDFFA8511AE0A9C0A4F0AAC0A5F00E
:103A8800ABC0A6F0ACC0A7F0A41FA51FA61FA71F18
:103A9800A42B000EA523A623A723A4C09EF0A5C08F
:103AA8009FF0A6C0A0F0A7C0A1F0000CA9C09EF08E
:103AB800AAC09FF0ABC0A0F0ACC0A1F012009EC09D
:103AC800D9FF9FC0DAFFDF50AD6F1200020113BFAC
:103AD80059D0C76B1351F10B0409136F11A529D0E5
:103AE800F10E23259AD8D9EC1BF0F5CFD6F07251F8
:103AF80098D873216ED8DBEC3EF085D8B8510CEC21
:103B080051F097D88AD8D9EC1BF0F5CFD6F074517C
:103B180088D875215ED8DBEC3EF075D8B9510CEC2D
:103B280051F00201B85118EC42F00201B95118EFF6
:103B380042F0F10E232571D8D9EC1BF0F5CFD6F061
:103B48006E516FD86F2145D8DBEC3EF05CD8BA5186
:103B58000CEC51F06ED861D8D9EC1BF0F5CFD6F04B
:103B680070515FD8712135D8DBEC3EF04CD8BB5191
:103B78000CEC51F00201BA5118EC42F00201BB51B1
:103B880018EF42F0F0EC5BF00001D66FD6A90FD029
:103B9800C26BC36BC46B020EC56F0500FA6E0101E0
:103BA800B651FD6EB751FE6EFF6AFA501200A9ECCD
:103BB80024F0D8B412009DEC24F0030EC56F050064
:103BC800FA6E0101B651FD6EB751FE6EFF6AFA50EA
:103BD80012000001D86FD96BDA6B0C0ED890D7376A
:103BE800D837D937DA37E82EF9D7D7C060F0D8C038
:103BF80061F0D9C062F0DAC063F07D0E646F656B66
:103C0800666B676B7D0C60C06DF061C06EF062C062
:103C18006FF063C070F002011200F66EF76AF70EDB
:103C280012000001D625D76F000ED6BFFF0E020185
:103C38001200F10E02012825120066C1D9FF67C1E2
:103C4800DAFFDECFEDF0DDCFEEF0010E0001EF6F11
:103C5800EDC0C5F0EEC0C6F0FEEC2BF0F06FF0BF83
:103C68005DD0D10EF025EEEC07F0D9EC1BF0F5A4F1
:103C780055D00001EF6B38D0000E36EC52F02FD043
:103C8800010E36EC52F02BD0020E36EC52F027D053
:103C9800030E36EC52F023D0040E36EC52F01FD04F
:103CA800050E36EC52F01BD0060E36EC52F017D04B
:103CB800160E36EC52F013D0070E36EC52F00FD039
:103CC800110E36EC52F00BD0190E36EC52F007D02C
:103CD8001B0E36EC52F003D01A0E36EC52F065C0CB
:103CE800F1F066C0F2F01AD0F051C6E0010AC8E05F
:103CF800030ACAE0010ACCE0060ACEE0030AD0E0D3
:103D0800010AD2E00F0AD4E0010AD6E0030AD8E09B
:103D1800010ADAE0070ADCE0010ADEE00001EF51FF
:103D28000AE0EF5105EC1BF0DECFEBF0DDCFECF055
:103D380013D8DD6A12000DEC1BF0F1C0A7F0F2C039
:103D4800A8F01EEC1BF0B8EC36F0D80EEB6F070E9F
:103D5800EC6F02D8D9EF2DF0010120EE06F0665184
:103D6800D9266751DA22EBC0DEFFECC0DEFF120075
:103D7800010E0001ED6F83D865D884EC52F000097C
:103D880047E06AD85FD884EC52F0000941E077D860
:103D98005ED86AD8B3EC1CF09E51EE6F5DD857D848
:103DA800000162D8B3EC1CF09E51EF6F68D8DECFEB
:103DB800EBF06AD841D88DEC4DF0020E6019611114
:103DC80027E1EE5108E167D85AD854D83BEC3CF0CB
:103DD800605161111DE140D8DECFEBF055D80001EC
:103DE8002BD88DEC4DF0020E6019611111E1EF51E5
:103DF80008E151D831D83ED83BEC3CF06051611114
:103E080007E1EFC062F0EE5132EC58F00001ED6BC3
:103E1800ED5116EC3AF0DECFEBF0DDCFECF001011E
:103E280020EE06F06651D9266751DA22EBC0DEFF94
:103E3800ECC0DEFFDD6A120060516111D8A4200ECB
:103E4800626F1200DECF66F0DDCF67F01200DECFC2
:103E58009EF0DDCF9FF01200010120EE02F06651C6
:103E6800D9266751DA221200A06BA16BA36B100E42
:103E7800A26F100CDECF62F0DDCF63F0120066C1D6
:103E8800D9FF67C1DAFF1200DDCFECF0EBC060F0BC
:103E9800ECC061F012004F0E606FFF0E616F1200F0
:103EA8006051D96EDA6A0D0E60D8635186D80E0E4D
:103EB8005CD8D92A635181D80F0E57D8020ED9265B
:103EC80063517BD80C0E51D8030ED926635175D88F
:103ED8004E50DF1A7F0E4E640CD01B0E4EC061F0A0
:103EE800626BD890613762376119646F6251656F90
:103EF80005D0D8904E34646F656B653764C04EF05A
:103F08006051D96EDA6A53D8040E43D8D92A4FD8EB
:103F1800050E3FD8020E44D8060E3BD8030E40D8F3
:103F2800070E37D8040E3CD8080E33D8050E38D8FB
:103F3800090E2FD8060E34D80A0E2BD8070E30D803
:103F48000B0E27D8080E2CD80C0E23D8090E28D80B
:103F58000D0E1FD80A0E24D80E0E1BD80B0E20D813
:103F68000F0ED9266151DF1A1200D926DF50616F72
:103F7800626BD10E6125F66EF60E6221F76EF86A55
:103F8800000EF8220800F5CF63F06051D96EDA6AA6
:103F98001200D9266151DF1A6051D96EDA6A12000F
:103FA800D926DF50616F6051D96EDA6A1200DF508E
:103FB800616F6051D96EDA6A1200DF1A6051D96EEA
:103FC800DA6A120036EC54F0C6EC5BF0380E0001E9
:103FD800646FA40E656F72EC4CF0BAEC5BF0F28E75
:103FE800F28C0001616BE40E606FF5EC58F0030190
:103FF800F06FF16B0001616BE50E606FF5EC58F046
:104008000101BE6FBE510301F127F02902E1F12938
:104018002DE0E8EC0AF074C00BF275C00CF20B51FD
:104028000301F01905E102010C510301F11929E01E
:1040380027EC23F045D8B6EC42F04ED8DDEC55F02D
:10404800010E80EC5BF051EC0CF0BB511AE1E60E6E
:10405800BA5D17E2BAC160F0BBC161F000016269E4
:1040680015EC4FF00101BA4BBB2BEFD727EC23F02F
:1040780027D8B6EC42F030D8DDEC55F0010E80ECD4
:104088005BF024D851EC37F083EC12F08DEC4DF056
:1040980060C0EEF361C0EFF3BEEC12F0D8A4200EBE
:1040A800686FEEC369F0EFC36AF076EC3DF0EAECB6
:1040B8004FF004EC53F04EEC2EF082EC42F0F7D7C0
:1040C800B30E00016F6F030E706F1200D80E00015F
:1040D8006B6F070E6C6F1200B30E00016B6F030E4F
:1040E8006C6F1200B36BB46BA2390F0BB26F010E79
:1040F800B36F31D05BD835EC3BF066D8B2EC56F0F4
:10410800B46B73D8B351AD6FAE6BAD3BAE3BF00E35
:10411800AE17AD510F0BAE13F00EAD17A0C0AFF038
:10412800A1C0B0F0AD51AF27AE51B023B451AF2705
:10413800000EB023F00EAF25E16EFF0EB021E26E47
:10414800E750B16F4AD8B119DF6EAA2BB42B0F0E06
:10415800B465D7D7B32BB351B25DCCE24DD8D8B440
:104168000F0C24D835EC3BF02FD8B2EC56F0B46BDA
:1041780018D03BD8B251100DA0C0ADF0A1C0AEF020
:10418800F350AD27F450AE23B451AD25E16E000EC7
:10419800AE21E26EE750AF6F20D8AF19DF6EAA2BC1
:1041A800B42B2AD8AD51B45DE4E31200A4C06BF07F
:1041B800A5C06CF0A6C06DF0A7C06EF0B3C06FF0DC
:1041C800010E706FA3511200C30E8C6F030E8D6F1A
:1041D800A8C08EF0A9C08FF01200C30EB425E16EFE
:1041E800E26A030EE222E7501200AA51AB25D96E0B
:1041F800000EAC21DA6E1200A2C0ADF00F0EAD17A2
:104208000F0C83D8DF50B26FAB4BAC2B7ED8FF0EB0
:10421800DE14AE6FFF0EDE14AF6FFF0EDE14B06F4C
:10422800000EDE14B16FAEC092F0AFC093F0B0C014
:1042380094F0B1C095F0640EF1EC05F093EC4BF0FE
:1042480092C0AEF093C0AFF094C0B0F095C0B1F09A
:10425800030EAB27000EAC2358D8DF50AD6FAB4B25
:10426800AC2BB251F8EC59F0000932E0B251D4EC61
:104278004AF0AE519E1909E1AF519F1906E1B051BC
:10428800A01903E1B151A11911E0B251EAEC42F0D1
:10429800AE519E1909E1AF519F1906E1B051A0191D
:1042A80003E1B151A11902E035D805E102017D51C0
:1042B80031EC10F0DF8EADC062F00001B2514DEC70
:1042C80042F0000905E102017D5131EC10F0DF8C6C
:1042D80002017D5131EC10F0DFAE12D07D5131EC8E
:1042E80010F0DFAC0DD0000115D805E1646BB251B8
:1042F800D8EC56F005D0ADC067F0B251F1EC55F0EE
:10430800ABC0ABF0ACC0ACF01200ABC0D9FFACC0D6
:10431800DAFF1200AE51AF11B011B1111200010E47
:104328000001ED6F77D880D8EBC060F0ECC061F089
:1043380020EC1FF08DEC4DF060C0F3F061C0F4F09C
:1043480069D8B7EC3FF07DEC35F066C0EFF067C098
:10435800F0F060D8DECFF1F0DDCFF2F0F45149E1B2
:10436800040EF35D46E2140EEF19F0110EE0F0BFF3
:1043780005D0F0513EE1120EEF5D3BE2F0BF39D0BF
:10438800F05103E1020EEF5D34E349D82B0EDE183D
:104398000EE045D82D0EDE1805E1F45108E1020EB5
:1043A800F35D05E23CD8DF5014EC58F022E3010E2F
:1043B800EE6F0BD0EE51F125D96E000EF221DA6EB8
:1043C800DF5014EC58F009E3EE2BEE51EB6FEC6B79
:1043D800F351EB5DF451EC59EDE3EE51F319F4119F
:1043E80003E0F305F41105E1EF5162EC5BF0000125
:1043F800ED6BED5116EC3AF017D8010120EE06F0FE
:104408006651D9266751DA22EBC0DEFFECC0DEFF29
:10441800DD6A120066C1D9FF67C1DAFF1200F1C078
:10442800D9FFF2C0DAFF1200DECFEBF0DDCFECF0FF
:10443800120080D8DF50A46F9E4B9F2B7BD8FF0EB5
:10444800DE14A06FFF0EDE14A16FFF0EDE14A26F44
:10445800000EDE14A36FA0C092F0A1C093F0A2C01A
:1044680094F0A3C095F0640EF1EC05F093EC4BF0DA
:1044780092C0A0F093C0A1F094C0A2F095C0A3F0A0
:10448800030E9E27000E9F23A0C069F0A1C06AF00A
:10449800A2C06BF0A3C06CF04CEC44F0000905E13D
:1044A80002017D5131EC10F0DF860001A4510F0BA1
:1044B800DBEC58F0000905E102017D5131EC10F008
:1044C800DF880001A439070B6FEC5AF0000905E1F9
:1044D80002017D5131EC10F0DF8A02017D5131EC8F
:1044E80010F0DFA81FD07D5131EC10F0DFA61AD0F4
:1044F8007D5131EC10F0DFAA15D00001A439070B6B
:104508000201C56FA0C060F0A1C061F0A2C062F056
:10451800A3C063F00001A4510F0B646FBAEC59F00B
:104528000201148D010E0101C46F9EC09EF09FC050
:104538009FF0010C9EC0D9FF9FC0DAFF120072D80D
:104548007DD8EBC060F0ECC061F0000120EC1FF0FA
:104558008DEC4DF060C0F2F061C0F3F0D890F3310B
:10456800EB6FF231EF6FEBC0F0F0030EED6F66C149
:10457800D9FF67C1DAFF60EC3EF0A9C36BF0AAC3AC
:104588006CF0A7C36DF0A8C36EF0B9EC4BF0EE6FFA
:10459800010120EE02F04DD82FEC34F0F10E0001AD
:1045A8006F6FFBEC3CF000092FE0F0052DE2020EE6
:1045B800EE612AD0010136D826EC1FF084EC52F0C7
:1045C800000922E0F2C06EF0F3C06FF001012AD8B2
:1045D800DECF70F0DDCF71F0D80E0001726F070EDC
:1045E800736F0FEC26F0F2A102D0EF4BF02BF1C065
:1045F800E2F0D80EE36F070EE46FEFC0E5F0EE517E
:1046080033EC31F00001ED6FED5158EC3EF016D867
:10461800010120EE06F00DD8EBC0DEFFECC0DEFF96
:10462800DD6A120020EE04F06651D9266751DA22BD
:1046380012006651D9266751DA221200DECFEBF05C
:10464800DDCFECF012000201C60502E1ADEC4AF044
:10465800340E0201CB6FCB5167EC5BF0020172D8CC
:10466800B369B46B6AD8AA6BAB6BF5EC03F009ECD1
:1046780004F0A86BA96BB26B010EB16FA66BA76BA8
:10468800C46BC56B5AD814935DD8116B126B070EA7
:10469800AD6FAC6B010EAF6FAE6FB66940D882ECF0
:1046A80019F0B0EC51F0060EB76FA00E246F700E23
:1046B800256F080E266F370E276F080E286FB56B0B
:1046C800F2EC3AF002017C6B290E0001606F020ED9
:1046D800ECEC53F0450E646F4FEC55F072EC4EF075
:1046E800070E716FD00E706F130E736F880E726F96
:1046F800170E756F700E746F070E796FD00E786F86
:10470800200E7B6F400E7A6F776F766BCC6B000153
:104718009F6B9E6BABEC23F0010E44EF5BF0090E30
:104728000001796F0B0E7A6FA00E7B6F700E7C6F95
:10473800080E7D6F370E7E6F370C9E6B9F6BA06BDC
:10474800A16B1200136B146B156B166B12009EC0D5
:1047580092F09FC093F0946B956BE80E966F030EE2
:104768002FEC06F093EC4BF092C0A2F293C0A3F2A8
:1047780094C0A4F295C0A5F29E519F111DE10201BB
:10478800BD5178EC5AF0020114930001A86B0ED0C9
:10479800A851D1EC15F0020EDE1806E1A851D1ECB3
:1047A80015F0DF6802017D070001A82B02017D5189
:1047B8000001A85DEDE312000201148313A11200A9
:1047C800A55103E1ADEC28F00BE3A3EC28F09EEC37
:1047D80028F0DBEC3EF00C0E38D8E82EFDD71DD0C3
:1047E800A2C2A0F0A3C2A1F0A4C2A2F0A5C2A3F0E5
:1047F8000C0ED8900001A037A137A237A337E82EB6
:10480800F8D7A0C060F0A1C061F0A2C062F0A3C058
:1048180063F08EEC18F0DBEC3EF060C0A4F061C0F1
:10482800A5F062C0A6F063C0A7F0A4C06DF0A5C053
:104838006EF0A6C06FF0A7C070F00201BD510CEC7D
:1048480051F00201BD5118EF42F0D890603761373E
:10485800623763371200020113BFA3EF5AF0AF515A
:10486800AD5D51E308EC50F00D0FD86FD851D46FFF
:10487800D56B0201AA510001D45D0201AB510001C0
:10488800D5592FE3010E22EC1BF0000902E024EFBA
:1048980046F054D8D7EC16F0A851A91102E024EF3D
:1048A80046F0020187EC31F0AF2BAFB11200B551E1
:1048B800D8B41200AF510001D46FD56B0201AD51CD
:1048C8000001D66FD76BD62B000ED723D451D6193B
:1048D80002E0AEEF3AF0D551D719D8B41200AEEFD6
:1048E8003AF0A3EC5AF031D8D8B4120022D8040E0A
:1048F800C56F0500FA6E0101B651FD6EB751FE6E27
:10490800FF6AFA501200AF51AD5DD8A013BF120074
:10491800A3EC5AF01AD8D8B412000BD8C56B05000E
:10492800FA6A0101B651FD6EB751FE6EFF6AFA5080
:1049380012000001C26BC36BC46B1200FA0EA86FA1
:10494800090EA96FAAC2AAF012000101B651B71147
:1049580012000001606B030E616F626B636B6AEC9F
:1049680052F0200E0001EB6F290EE82EFED7EB2F38
:10497800FCD700D0200E0001EB6F290EE82EFED7E1
:10498800EB2FFCD700D0200E0001EB6F290EE82E8C
:10499800FED7EB2FFCD700D0200E0001EB6F290EBD
:1049A800E82EFED7EB2FFCD700D0200E0001EB6FCE
:1049B800290EE82EFED7EB2FFCD700D0200E0001E1
:1049C800EB6F290EE82EFED7EB2FFCD700D0200E78
:1049D8000001EB6F290EE82EFED7EB2FFCD700D095
:1049E800200E0001EB6F290EE82EFED7EB2FFCD727
:1049F80000D0200E0001EB6F290EE82EFED7EB2F1A
:104A0800FCD700D0200E0001EB6F290EE82EFED750
:104A1800EB2FFCD700D0200E0001EB6F290EE82EFB
:104A2800FED7EB2FFCD700D0200E0001EB6F290E2C
:104A3800E82EFED7EB2FFCD700D0FF0012000001B4
:104A4800E66B47EC09F04FEC55F01F0EE517FC0E2E
:104A5800E517E30EE51729EEEAF0E5C0DFFFE62BE0
:104A6800E76BE7516508D96E000ED8A0E82A02085E
:104A780044D8E765F6D7080EE627E76BE7516D08D7
:104A8800D96E000ED8A0E82A020837D8E765F6D70D
:104A9800080EE627A669A56978EC57F0A5C0A8F224
:104AA800A6C0A9F2EA0EE6253BD80CEC42F02BECA6
:104AB80047F0020EE6274E0ED66F020ED76FEA0EAB
:104AC800D86F090ED96FE6C0DAF06EEC49F0D6C09F
:104AD800E1F0D7C0E2F0D8C0E3F0D9C0E4F0EA0EC4
:104AE800E6251ED8E10E626F636B65EC3BF02BEC9C
:104AF80047F0040EE627E6511200DA6EEA0EDF6F81
:104B0800090EE06FE651DF27000EE023E751DF25AD
:104B1800E16E000EE021E26EDFCFE7FFE72B070C26
:104B2800606F616B090E6123120023EE55F010EEE1
:104B3800A7F00F0EDBCFE3FFE806FCE2B70E606FCD
:104B4800616B4ED84FEC55F0B70E8C6F8D6BA0C0D3
:104B58008EF0A1C08FF0B2EC56F0B7BF04D051D898
:104B680003EC4CF016D04DD803EC4CF0C76BC75192
:104B7800A70FD96EDA6ADF50A66FC751A225D96E82
:104B8800000EA321DA6EA651DF1AC72B0F0EC765D8
:104B9800EED7A2C0D9FFA3C0DAFFDFBE03D026D864
:104BA80003EF4CF023D803EC4CF0C76BC751A42596
:104BB800D96E000EA521DA6EC751A70FE16EE26A21
:104BC800E750A66FC751A425E16E000EA521E26E3D
:104BD800E750A619DF6EC72B0F0EC765E7D70F0C76
:104BE800636B626B656B100E646F100CA2C060F093
:104BF800A3C061F0A4C062F0A5C063F0100E646F9A
:104C0800100CB70E606F616BA2C062F0A3C063F0B6
:104C1800100E646F100C70C060F071C061F020EC71
:104C28001FF08DEC4DF060C07EF061C07FF07C6BB2
:104C38007D6BD8907F31746F7E31776F74C078F058
:104C4800766B7EB103D07707D8A078077E516E19AE
:104C58003EE17F516F1936E03AD07F5103E1020EF1
:104C68007E5D13E37E517025746F7F517121756FDE
:104C7800FE0E7425D96EFF0E7521DA6EDF5029D825
:104C8800020E7E5F000E7F5B05D0300E22D87E07B5
:104C9800D8A07F077C4B7D2B7C51790FD96EDA6ABF
:104CA800DF6A790E666F91EC32F077517225D96E12
:104CB80078517321DA6E66C0DFFF7C6B7D6B7707F6
:104CC800D8A078077E517F11C8E1010E766F765122
:104CD8001200796F7C4B7D2B7E517025746F7F514C
:104CE8007121756FFF0E7425D96EFF0E7521DA6E6E
:104CF8007C51790FE16EE26ADFCFE7FF12006FC0E7
:104D080075F070C076F071C077F072C078F075C039
:104D180060F076C061F077C062F078C063F051D877
:104D2800DBEC3EF060C075F061C076F062C077F0F1
:104D380063C078F06D4B6E2B755176117711781131
:104D4800E6E149D8DF6A6D07D8A06E076FC060F04A
:104D580070C061F071C062F072C063F073C064F03B
:104D680074C065F0000E65BFFF0E666F676F7DEC5F
:104D780044F06051796F6FC060F070C061F071C02D
:104D880062F072C063F01DD8DBEC3EF060C06FF0DB
:104D980061C070F062C071F063C072F0090E79658D
:104DA80002D0070E7927300E792715D879C0DFFF92
:104DB8006D07D8A06E076F51701171117211C6E19D
:104DC800120073C064F074C065F0000E65BFFF0E7A
:104DD800666F676F12006DC0D9FF6EC0DAFF1200F0
:104DE8007A0EF66E660EF76E000EF86E03EE00F0A1
:104DF80010EEABF00900F5CFEEFFE550E150FAE117
:104E0800580EF66EA70EF76E000EF86E02EECFF093
:104E180010EE2EF00900F5CFEEFFE550E150FAE173
:104E2800760EF66EB80EF76E000EF86E0900F5CF26
:104E3800FEF10A0EF66EB70EF76E000EF86E00EE73
:104E480054F010EE09F00900F5CFEEFFE550E150FF
:104E5800FAE105EE90F016EE78F0EE6AE550E150D2
:104E6800FCE1E250FAE105EE00F0900EEE6AE80689
:104E7800FDE104EE00F0C00EEE6AE806FDE103EE87
:104E8800ABF0370EEE6AE806FDE102EE00F0CF0E59
:104E9800EE6AE806FDE101EEB6F0470EEE6AE806B6
:104EA800FDE10001FF6BFE6BFD6B00EE30F0240EA0
:104EB800EE6AE806FDE15E905E920001E6EF1FF003
:104EC80065D869D8EBC060F0ECC061F0000120EC57
:104ED8001FF08DEC4DF060C0F1F061C0F2F0010EF2
:104EE800EF6FD890F231EB6FF131ED6FEBC0EEF070
:104EF800C9EC5BF00001F06FF05105E1F25103E1FC
:104F0800110EF15D06E3F00527E1020EF119F21129
:104F180023E13CD826EC1FF084EC52F000091CE099
:104F2800F1C06EF0F2C06FF031D827D80FEC26F040
:104F3800F1A102D0ED4BEE2BF00505E18DEC32F03E
:104F480067EC5BF007D0D80E6B6F070E6C6FED51F6
:104F580062EC54F00001EF6BEF5116EC3AF01BD8FD
:104F6800010120EE06F06651D9266751DA22EBC01E
:104F7800DEFFECC0DEFFDD6A1200DECF70F0DDCFB1
:104F880071F0D80E726F070E736F120066C1D9FFE9
:104F980067C1DAFF1200DECFEBF0DDCFECF01200D4
:104FA800030E0001F36F67D826EC1FF084EC52F073
:104FB800000943E06F6B080E6E6F5DD8DECF70F0AE
:104FC800DDCF71F0EF0E726F736B0FEC26F00009F6
:104FD80034E0F251F46FF56BF66BF76BF1C0EBF060
:104FE800EC6BED6BEE6BEDC0EEF0ECC0EDF0EBC0F2
:104FF800ECF037D8F0C0EBF0EC6BED6BEE6BECC07F
:10500800EEF0EBC0EDF0EC6B2CD8EFC0EBF0EC6BF6
:10501800ED6BEE6BEBC0EEF0ED6BEC6B22D8F4C0F1
:1050280060F0F5C061F0F6C062F0F7C063F032ECF2
:1050380059F00101C0870001F36BF35158EC3EF0C1
:10504800DECFEBF0DDCFECF0010120EE06F066518B
:10505800D9266751DA22EBC0DEFFECC0DEFFDD6A3D
:105068001200EB6BEB51F427EC51F523ED51F623CD
:10507800EE51F723120066C1D9FF67C1DAFF1200AB
:10508800020111951381F10E1317A66BA76BC46B60
:1050980014A343D0A55102E15CD80AE350D84AD8FA
:1050A800DBEC3EF00C0E29EC24F0E82EFCD71DD0EA
:1050B800A2C292F0A3C293F0A4C294F0A5C295F044
:1050C8000C0ED89000019237933794379537E82E15
:1050D800F8D792C060F093C061F094C062F095C0B8
:1050E80063F08EEC18F0DBEC3EF060C096F061C027
:1050F80097F062C098F063C099F096C06DF097C0C1
:105108006EF098C06FF099C070F00201BD510CECC0
:1051180051F00201BD5118EC42F0C5EC55F0D8B47D
:1051280012000500FA6EB851FD6EB951FE6EFF6AA5
:10513800FA50010C646F656B666B676B1200A2C254
:1051480060F0A3C261F0A4C262F0A5C263F00001DE
:105158007D0CA229FF0EA3590F0EA459120050EC82
:1051680058F001C040F002C041F052041FE1526AF9
:105178005BD8D8A00F060F50106E2FD8156E395077
:105188001220166E3A501320176E3B501420186EDA
:10519800000E15240201076F000E1620086F010E7D
:1051A8001720096F000E182027D80ED03DD8106A96
:1051B80014D80201076F39501220086F3A50132093
:1051C800096F3B50142026D807C209F008C20AF01C
:1051D80009C20BF00AC20CF0120034500D5C116EBB
:1051E80035500E58126E36500F58136E37501058EF
:1051F800146E3850112412000A6F40C034F041C0B8
:1052080035F0366A376A386A396A3A6A3B6A426AF6
:10521800436A12000A6F0751342608513522095192
:1052280036220A51372212004250405C0D6E43501C
:1052380041580E6E0F6A120061D865D8EBC060F055
:10524800ECC061F0000120EC1FF08DEC4DF060C067
:10525800F2F061C0F3F0010EF16FD890F331EB6F0B
:10526800F231EF6FEBC0F0F0F229010EF35935E29D
:1052780045D826EC1FF084EC52F000092EE0F2C06D
:105288006EF0F3C06FF03AD8C1EC27F00FEC26F0BF
:10529800F2A102D0EF4BF02BD80EA86F070EA96F22
:1052A800EFC0AAF0D7EC16F0A8C0EDF0A9C0EEF058
:1052B80005D0F16B12D0030EF16F0FD0EDC0EBF0FB
:1052C800EEC0ECF0EC5103E0800A04E0F4D7EB51B7
:1052D800F0E0F1D7EB51020AEEE1F15116EC3AF0A9
:1052E80012D8010120EE06F06651D9266751DA225C
:1052F800EBC0DEFFECC0DEFFDD6A120066C1D9FF3D
:1053080067C1DAFF1200DECFEBF0DDCFECF0120060
:105318006DC060F06EC061F06FC062F070C063F085
:10532800090E00015BD8DBEC3EF060C075F061C08F
:1053380076F062C077F063C078F06DC060F06EC040
:1053480061F06FC062F070C063F0090E646F3D0ECB
:10535800656F666B676B7DEC44F060C071F061C08F
:1053680072F062C073F063C074F077C078F076C0F2
:1053780077F075C076F0756B73C074F072C073F017
:1053880071C072F0716B71C060F072C061F073C06F
:1053980062F074C063F0090E21D8DBEC3EF060C007
:1053A80071F061C072F062C073F063C074F0715143
:1053B800752772517623735177237451782377C0F8
:1053C80062F0060E32EC58F076C062F0070E32EC4E
:1053D80058F075C062F0080E32EF58F0646F3D0E59
:1053E800656F666B676B3D0C010E0001ED6F61D850
:1053F80026EC1FF084EC52F000093FE052D826EC6E
:105408001FF084EC52F0000938E053D82BEC1FF061
:1054180038EC1FF0B3EC1CF09EC0EEF09FC0EFF02C
:1054280040D82BEC1FF0000138EC1FF0B3EC1CF057
:105438009EC0F0F09FC0F1F0030EEF5D1EE3040E76
:10544800EF5D1BE2F051F11102E0F1050CE34C0EA7
:10545800606FFF0E616F25D83EEC1FF03BEC3CF00F
:10546800605161110AE1EEC073F0EFC074F0F0C052
:1054780075F0C3EC53F00001ED6BED5105EC1BF03A
:10548800DECFEBF0DDCFECF0010120EE06F0665147
:10549800D9266751DA22EBC0DEFFECC0DEFFDD6AF9
:1054A8001200010120EE02F06651D9266751DA2276
:1054B800120066C1D9FF67C1DAFF12006A6F0001E6
:1054C800655108E1060E6A19D8B41200070E6A1968
:1054D80001E11200070E6A17010E6517C5EC56F0B8
:1054E8006B6F6BAF03D0010E676F01D0676B6B51A9
:1054F800070B696F6751651916E0695108E06B5130
:10550800F80B626F010E32EC58F00001696B6551BF
:1055180003E1780E6B1704D06B51780B80096B6F21
:1055280033D832EC58F0000169516A19D8B4120026
:105538006A5112E0660510E1410EC5EC56F0686F3D
:10554800655103E1300E681302D0CF0E681768C0AA
:1055580062F0410E32EC58F0F80E00016B176A51F8
:105568006B1312D832EC58F000016605D8A412006B
:105578006A5105E0EDEC5BF00009FCE01200010E59
:10558800ADEC50F0BAEF54F06BC062F0010C0201C0
:1055980013AF14A31CD000019A6B07D09A51D1EC19
:1055A80015F0020EDE1806E09A2B02017D5100016B
:1055B8009A5DF4E39A5102017D1909E17D51D1EC1C
:1055C80015F0020EDF6E100E7D6101D07D2B14A345
:1055D8001200A55103E1ADEC28F00CE3A3EC28F090
:1055E8009EEC28F0DBEC3EF00C0E29EC24F0E82EC3
:1055F800FCD71DD0A2C292F0A3C293F0A4C294F02B
:10560800A5C295F00C0ED8900001923793379437C5
:105618009537E82EF8D792C060F093C061F094C037
:1056280062F095C063F08EEC18F0DBEC3EF060C0E1
:1056380096F061C097F062C098F063C099F096C088
:105648006DF097C06EF098C06FF099C070F00201CD
:10565800BD510CEC51F00201BD5118EF42F00001B0
:10566800666F0101E25125E100016651800A830F4E
:1056780002E2FD0E666F6651800A700F02E30F0E9C
:10568800666F4D0EC5EC56F0656FF80E65176585AB
:1056980049D832EC58F0000166AF05D0030E6627F2
:1056A8006651200902D066517009626F090E32EF07
:1056B80058F000016651800A7E0F02E2020E666F02
:1056C8006651800A6C0F02E3140E05D06651800AF9
:1056D8006E0F02E3110E666F0B0EC5EC56F0646F89
:1056E8004D0EC5EC56F0656FF80E6517140E661969
:1056F80006E1070E65130F0E666F649B04D065857F
:10570800FE0E6627648B0ED832EC58F00001665105
:105718008009626F090E32EC58F064C062F00B0E1B
:1057280032EF58F065C062F04D0C5DD8EFC2DEFF75
:10573800F0C2DEFFDD6A0F013D9193EC5AF092EC66
:105748005BF08EEC5BF00009FCE01F0E50EC52F0B1
:1057580060C0EDF061C0EEF0C6EC5BF03D81000189
:10576800ED51EE1105E1EF69F069F16BF26B1ED0B6
:10577800EF6BFC0EF06F0F0EF16FF26BEFC060F085
:10578800F0C061F0F1C062F0F2C063F0EDC064F007
:10579800EEC065F0666B676BDBEC3EF060C0EFF067
:1057A80061C0F0F062C0F1F063C0F2F0EF2905E1EA
:1057B800F029F111F211D8B412000DEC1BF0EFC072
:1057C800A7F0F0C0A8F01EEC1BF0B8EC36F0D80E2D
:1057D800EB6F070EEC6F010106D8EBC0DEFFECC0E3
:1057E800DEFFD9EF2DF020EE06F06651D92667517D
:1057F800DA221200C769C5C060F0C6C061F0CD0EDC
:10580800626FFE0E636F656B040E646F0EEC45F0FD
:105818006051611118E1040EC525AE6F000EC62156
:10582800AF6F020EB06F0D0E45D816EC3FF00009B1
:105838003AE0040EC525666F000EC621676F7DEC41
:1058480035F066512FD031D88F0E626FFD0E636F21
:105858003BEC3CF06051611102E10E0E23D025D8DB
:10586800860E626FFD0E636F3BEC3CF06051611178
:1058780002E10F0E17D019D87F0E626FFE0E636F0C
:105888003BEC3CF06051611102E1100E0BD00DD8D9
:10589800790E626FFE0E636F3BEC3CF06051611154
:1058A80002E1110EC76FC7511200C5C060F0C6C033
:1058B80061F01200B16FB26BB36BB46B12005DD8BC
:1058C8009E4B9F2B200EAB19FAE0090EAB19F7E09F
:1058D800A76BA86BA96BAA6BA66B2D0EAB1905E17C
:1058E800A62B4BD89E4B9F2B1FD02B0EAB19F9E044
:1058F8001BD0A7C092F0A8C093F0A9C094F0AAC08A
:1059080095F00A0EF1EC05F093EC4BF0AB51D00F8B
:105918009225A76F000E9321A86F000E9421A96FFE
:10592800000E9521AA6FDDD7AB5114EC58F0E1E2D7
:10593800A6511AE0A7C0A2F0A8C0A3F0A9C0A4F07D
:10594800AAC0A5F0A21FA31FA41FA51FA22B000E6B
:10595800A323A423A523A2C09EF0A3C09FF0A4C0A4
:10596800A0F0A5C0A1F0000CA7C09EF0A8C09FF0B1
:10597800A9C0A0F0AAC0A1F012009EC0D9FF9FC084
:10598800DAFFDF50AB6F120020EE01F05DD8DF5078
:10599800626F20EE05F058D810EE01F04ED820EED8
:1059A80009F052D810EE05F048D820EE0DF04CD88A
:1059B80010EE09F042D820EE0DF046D862C0DFFFA5
:1059C80020EE02F041D8DF50626F20EE0AF03CD89A
:1059D80010EE02F032D820EE0AF036D862C0DFFFAF
:1059E80020EE0EF031D8DF50626F20EE06F02CD892
:1059F80010EE0EF022D820EE06F026D862C0DFFFA7
:105A080020EE03F021D8DF50626F20EE0FF01CD893
:105A180010EE03F012D820EE0BF016D810EE0FF0AF
:105A28000CD820EE07F010D810EE0BF006D820EEB8
:105A380007F00AD862C0DFFF12006051E126615109
:105A4800E222DFCFE7FF12006051D9266151DA2246
:105A5800120041EC58F060C040F061C041F05204BF
:105A680026E1526A51D8D8A06E076E516F6F3DD8A3
:105A7800746F39507121756F3A507221766F3B50AF
:105A88007321776F000E74250201076F000E000165
:105A980075210201086F010E000176210201096FCC
:105AA800000E00017721020100EC29F015D02CD856
:105AB8006F6B1BD80201076F395000017121020179
:105AC800086F3A50000172210201096F3B50000132
:105AD800732102010EEC29F007C268F008C269F0D0
