:10030000DFEF01F0FFFFFFFFFACF2AF0FBCF2BF06A
:10031000E1CF2CF0E2CF2DF0D9CF2EF0DACF2FF0B5
:10032000F3CF30F0F4CF31F01DEEA8F0F2BC9DA079
:1003300005D09EA003D0C8EC6BF030D0F2BC9DAAD3
:1003400005D09EAA03D013EC51F028D0F2BC9DA892
:1003500005D09EA803D04FEC63F020D0F0B6F0A0FB
:1003600003D013EC6DF01AD0F0B8F0A203D010EC6B
:100370006DF014D0F2B6F2A003D0B2EC6BF00ED058
:10038000F2BC9DA605D09EA603D0C2EC21F006D0FB
:10039000F2BCA0A603D0A1B642EC6DF031C0F4FFD0
:1003A00030C0F3FF2FC0DAFF2EC0D9FF2DC0E2FF0F
:1003B0002CC0E1FF2BC0FBFF2AC0FAFF11001CEE8E
:1003C000DEF07FEF34F00AEC6DF02BEED4F0DFB00E
:1003D000C2D392EC06F001017C6F7C39E832070B46
:1003E000E80601E0B3D02BEEEEF0DF5001E0AED036
:1003F0000001F1050101826F1DD00001F151EF25CF
:100400000101666F000E0001F0210101676F82514A
:10041000665D00018C6F01016751D8A0670500017E
:1004200041EC52F039EC67F0100E826502D0825F29
:1004300001D0826B8251E1E1130E0001D76F0C0EE7
:10044000D86FEFC0D9F0F0C0DAF0F151FC0FDB6FDC
:1004500064EC56F0D7C085F1D8C086F1D9C087F1D9
:10046000DAC088F16BEC06F040EC5EF0C1DB855140
:100470007D1909E186517E1906E187517F1903E153
:10048000885180191DE0A8DB050A07E0A5DB030AF7
:100490000CE12CEED6F0DF5008E02BEED3F0DFB805
:1004A00003D080EC64F001D092DBE3CBE8FF020ADA
:1004B000D8A412003FEC16F00909DF6EB0EF51F03E
:1004C0008BDB030A04E180EC09F089EC6BF0EFC0F0
:1004D00089F1F0C08AF1010120EE07F0A0EC06F0EE
:1004E000DECFEFFBDECFF0FBDECFF1FBDDCFF2FBAB
:1004F00020EE0CF0A0EC06F0DF500F0B73EC5AF07E
:1005000098EC06F0DF38070B0001606F98EC06F0FE
:10051000DF500F0BDCEC67F089C19EF08AC19FF0C1
:10052000F15122EC29F089C1A0F08AC1A1F015ECAB
:1005300052F0E66A72EC37F0000E70EC1DF055ECEC
:100540001DF0E3CBE8FF020AB5E012007C39E83287
:10055000070B030A07E07C39E832070B050A02E0C3
:10056000C6EF48F0000EE8CF7CFCEFC090F1F0C081
:1005700091F1E3CBE8FF020A01E011D12CEE33F058
:1005800000EE01F09CDBEE1809E1DE50EE1806E10A
:10059000DE50EE1803E1DE50EE18D8A400D12BEEA9
:1005A000D5F0DFA4FCD090C160F091C161F0DFEC28
:1005B00054F0000901E17ED70101FDDAEADB2BEE00
:1005C000DFF0F1DB05E3E1CB8EF1E2CB8FF104D07C
:1005D0002BEEE1F087DBD7DB2EDB010E716FBEEC7B
:1005E0003EF05ADBFEDA100E646FBAEC55F014DB05
:1005F000BAEC55F0370EC86F0C0EC96FCB0E2ADB64
:100600008BEC13F04DDBEDDA040E646FBAEC55F0B1
:1006100062DB40EC5EF0ECDA7D5185190BE17E5136
:10062000861908E17F51871905E18051881901E099
:1006300041D701D03FD72BEEDFF000EE06F03FDBD5
:10064000EE5CDE50EE581CE32BEEDFF04BDBB3DA52
:1006500060DB2CEE73F0B1DB0DE2BB51BC1101E1AC
:1006600029D744EC16F0050EC56F01D823D7050035
:10067000FA6E8DD0A0DADECFDFFBDDCFE0FB2DD030
:100680002CEE73F000EE06F09051E9269151EA222B
:10069000EECF68F1EDCF69F10BEEDFF0EECF6AF14E
:1006A000EDCF6BF16A1D6C6F6B1D6D6F68516C2720
:1006B00069516D23DE506C5DDE506D590AE2000E0B
:1006C000E8CFDFFBE8CFE0FB2BEEE1F0DE2ADD2216
:1006D00004D0BB51BC11C5E1EDD62BEEDFF0DE2816
:1006E00007E1DE2805E1DE2803E1DE2801E1F1D79C
:1006F00073DA080A08E1B8EC1FF089EC6BF02DDB27
:1007000089EC6BF006D068DA030A03E126DB89EC9A
:100710006BF033DB57DA46DAF3DA03E16751691934
:1007200020E000DB796F0001EF4BF02BF151F40F6B
:1007300001018B6F190E816F65DADFCBA4F0E0CB7E
:10074000A5F0E1CBA6F0E2CBA7F0470EA86F0C0E08
:100750008FDA010EAD6FD0EC2CF0FF0EEF25F5DA3D
:1007600001D030DB2BEED4F0DF8231DABB51BC118B
:1007700001E1A0D683C1C2F084C1C3F08BC1C4F033
:10078000010E0001C56F01D895D60500FA6E010172
:10079000BB51FD6EBC51FE6EFF6AFA5012002BEE8B
:1007A000EFF000EE01F08BDAEE1809E1DE50EE1802
:1007B00006E1DE50EE1803E1DE50EE1802E0C6EF6F
:1007C00048F0F9D9E6DA2BEEDBF0EDDA05E3DDCB24
:1007D0008EF1DECB8FF104D02BEEDDF083DAD3DAAD
:1007E0002ADA716B010EBEEC3EF056DAFAD9100E21
:1007F000646FBAEC55F010DABAEC55F05AEC13F01D
:1008000029DA8BEC13F04CDAECD9040E646FBAECF5
:1008100055F061DA40EC5EF0EBD97D5185190CE1C1
:100820007E51861909E17F51871906E180518819A7
:1008300002E0C6EF48F002D0C6EF48F02BEEDBF046
:1008400000EE06F03CDAEE5CDE50EE5826E32BEECE
:10085000DBF048DAB0D95DDA2CEE71F0AEDA1AE2EC
:10086000FBEC48F0B4D9BB51BC1111E0F7EC48F0F7
:1008700044EC16F0C56B01D80AD00500FA6E0101F0
:10088000BB51FD6EBC51FE6EFF6AFA50120003ECC4
:1008900049F051D090D982DA41D02CEE71F022DAB1
:1008A0006651686F6751696F6A6B6B6B2BEEDBF09B
:1008B000DECF6CF1DDCF6DF17ED9DECF6EF1DDCF15
:1008C0006FF16C516E5D706F6D516F59716F726B1E
:1008D000D8A072077251736FFF0E7025746FFF0EF0
:1008E0007121756F000E7221766F000E7321776F84
:1008F0006851745D695175596A5176597751800A0A
:10090000786F6B51800A785902E3C6EF48F053D9EB
:1009100045DA2BEEDDF0DE2A000EDD22DC6BDB6B30
:10092000DA6B2BEEDBF0DE280AE1DE2808E1DE28B8
:1009300006E1DE2804E12BEED5F0DF8202D64CD9A9
:10094000030A03E10ADA89EC6BF0010EE8CFBDFC83
:1009500090C160F091C161F0EEEC58F0010122D934
:100960001FE020D99025666F000E9121676F080E59
:100970006625D96E000E6721DA6EDF5012E0080E90
:1009800090250001A76F000E010191210001A86FC1
:10099000010108D90001A96FB1EC22F009DA01D0F8
:1009A000ECD900010FD9FED8ABD903E16751691921
:1009B00047E0B8D9796F0001EF4BF02B0101F2D875
:1009C000666F66510001F15DF40F01018B6FEAD88B
:1009D000190F816F79510CE015D989D97BEC13F08F
:1009E00047D9AD6BD0EC2CF0FF0EEF25AED929D056
:1009F0000001E8D8D7D8686F696B0D0E6827000E24
:100A000069236651685D6951800A6A6F6751800A7F
:100A10006A5915E2F7D86BD977EC13F029D9AD6B89
:100A2000D0EC2CF00101BED80AE1EFC0A7F0F0C075
:100A3000A8F08B050001A96FB1EC22F0B9D9010132
:100A4000C1D992EC6AF041D9E8CFD3FC2BEED1F0BA
:100A5000DF982BEED4F0DF822BEED1F0DFA043D075
:100A600020EE05F09051D9269151DA22DFAA38D034
:100A70002BEED1F0DF90010E7B6FA9D8BB51BC11DA
:100A80000CE0FED801D809D00500FA6EBB51FD6E0E
:100A9000BC51FE6EFF6AFA5012002BEED4F0DF92CA
:100AA0002BEED3F0DFAA4BD02BEED1F0DFBA47D03C
:100AB0002BEED1F0DFB204D02BEED1F0DFA63FD089
:100AC000F3D80DEC3EF0000908E1000E51D915EC09
:100AD00039F02BEED1F0DF9632D087EC2FF02FD00B
:100AE000A9EC52F02CD0010E7B6F71D8BB51BC1118
:100AF0000CE0C6D801D809D00500FA6EBB51FD6ED6
:100B0000BC51FE6EFF6AFA5012002BEED3F0DFAA42
:100B100016D02BEED1F0DFBA12D02BEED1F0DFB22F
:100B200004D02BEED1F0DFA60AD0BED80DEC3EF0FB
:100B30000009D3E1000E1CD915EC39F0CAD7E3CB7C
:100B4000E8FF020AD8A4120007EC6DF00101666FFD
:100B500066B11200AFD40101BB51BC11D8B4120070
:100B600007EC6DF00101666F66B70ED0FAD8030E80
:100B70000001C56F0500FA6E0101BB51FD6EBC514D
:100B8000FE6EFF6AFA501200ECD8020E0001C56F2B
:100B90000500FA6E0101BB51FD6EBC51FE6EFF6A8D
:100BA000FA50120020EE05F09051D9269151DA2228
:100BB000DF500F0B120020EE06F09051D926915114
:100BC000DA221200F1510101666F676B12002BEE01
:100BD000D3F0F00EDF16F00C2BEED3F0DF500F0B3E
:100BE0001200616FCB0E626F020E636F656B1200B5
:100BF0006BC07DF16CC07EF16DC07FF16EC080F185
:100C000001011200EFC0A0F0F0C0A1F08B050001BF
:100C1000A26F010EA36F010CC30E606F090E616F0E
:100C2000EFC062F0F0C063F0FC0EF125646F656BFD
:100C3000FF0E6523FF0C8CC16BF08DC16CF08EC173
:100C40006DF08FC16EF00001F151FC0F6F6F490E16
:100C5000706F490CCA6F020ECB6FB30ECC6F090ECA
:100C6000CD6F0C0EF125CE6FCF6B000ECF23000C95
:100C7000A96F81C1AAF0B30EAB6F090EAC6F120061
:100C80002BEED1F0DF9A83C1C2F084C1C3F08BC1D7
:100C9000C4F07BC1C5F01200B30E606F090E1200E4
:100CA000850E606F010E1200010E0001A76F7A0E13
:100CB000A86F010EA96F2CEED2F0DF5012009051F8
:100CC000E9269151EA22DE501200000EE8CFB5FC71
:100CD000E8CFB6FC000CEFC06BF0F0C06CF0F1C0D8
:100CE0006DF01200DECF66F1DDCF67F11200DBCBD5
:100CF000A4F0DCCBA5F0DDCBA6F0DECBA7F0120094
:100D0000686F696B0C0E6827000E692366516819BD
:100D10001200DECF68F1DDCF69F16651685F67517F
:100D2000695B1200EFC0D9FFF0C0DAFFDF5012009C
:100D3000010120EE0BF08951D9268A51DA221200E6
:100D40008951D9268A51DA2212000101836FFF0EE0
:100D50000001F0210101846F12002CEECAF0DF5077
:100D60001200EFC0C2F0F0C0C3F0F1C0C4F0120036
:100D7000E56FE66FE76FE86F1200080E0001EF27DE
:100D8000000EF023000C66298E6F000E67218F6F16
:100D90001200DECF8CF1DDCF8DF11200DECFDBFB58
:100DA000DDCFDCFB1200DE508C5DDE508D59120071
:100DB000A7C0EFF0A8C0F0F012006851DE5C6951E6
:100DC000DE5812008B6B836B846B12002BEED4F019
:100DD000DFB0D1D10001E76BE86BE96BEA6BEB6B3D
:100DE000F069F169F269F369000EE8CFD6FC3FECD7
:100DF00016F00209DF6EBFCCF8F02BEED1F0DFA4C5
:100E000069D02CEE6DF016DA2BEEE8F0DCD926EC8A
:100E10004CF015DABCEC1FF0A7EC60F02CEE6FF094
:100E200009DA2BEEEDF0CFD926EC4CF008DA68DACF
:100E3000A7EC60F0BCEC1FF0DEEC50F061DADEEC09
:100E400050F0F851120D47DA080EA5EC46F02CE0F0
:100E50002CEEDCF0DF500DE12CEEC0F0EBD945DAE2
:100E60002F0EDCEC0DF0BFEC5AF01ADABFEC5AF0A2
:100E700026D02CEEDCF00B0EDF600BD02CEEC0F099
:100E8000D9D933DAD60E966F0B0E3EDABFEC5AF094
:100E9000ECD72CEEC0F0CED928DA530E966F760E32
:100EA00033DABFEC5AF0E1D7F851120D14DAD0D989
:100EB000C1D9D8D9BFEC5AF0F3D9BFEC5AF0F851E8
:100EC000B1D992C0DEFF93C0DEFF94C0DEFF95C0B3
:100ED000DEFF2BD02CEE69F0ADD92BEEE8F073D904
:100EE00026EC4CF0ACD9B8EC1FF0A7EC60F02CEE7F
:100EF0006BF0A0D92BEEEDF066D926EC4CF09FD923
:100F0000ADEC06F0A7EC60F0B8EC1FF0DEEC50F0B2
:100F1000ADEC06F0DEEC50F0F851120DDCD998D9AA
:100F200089D9A0D9BFEC5AF0A0D7E6D980EC6AF0F5
:100F3000000961E0E1D989EC6BF0DED985EC62F063
:100F400089C0ECF08AC0EDF08BC0EEF08CC0EFF001
:100F5000EF5107E11F0EEC5DAC0EED59DF0EEE59BF
:100F60001DE3ECC0D6F0EDC0D7F0EEC0D8F0EFC076
:100F7000D9F00D0E05D0D890D933D833D733D63326
:100F8000E82EF9D7D6C092F0D7C093F0D8C094F02D
:100F9000D9C095F061D9BFEC5AF011D0ECC092F0F5
:100FA000EDC093F0EEC094F0EFC095F055D9BFECD2
:100FB0005AF00D0E02D095EC1FF0E82EFCD792C02F
:100FC000DFF093C0E0F094C0E1F095C0E2F0ADCC6A
:100FD000D6F0AECCD7F0AFCCD8F0B0CCD9F0DF5152
:100FE000D65DE86FE051D759E96FE151D859EA6F02
:100FF000E251D959EB6FF86BF851A9EC1EF0B3EC44
:101000003EF056E1F8510ED989EC1EF051E02CEE7D
:10101000BFF0F851DE1830E0F85104D9DE50E85D39
:10102000DE50E959DE50EA59DE50EB5921E2F85121
:10103000F9D8DECFD6F0DECFD7F0DECFD8F0DECFD6
:10104000D9F0E851D65DDA6FE951D759DB6FEA5133
:10105000D859DC6FEB51D959DD6FF851E3D8DAC0BC
:10106000DEFFDBC0DEFFDCC0DEFFDDC0DEFF04D064
:10107000F851D8D8CDEC29F0F851D4D8DE50F05D35
:10108000DE50F159DE50F259DE50F35911E3F851B8
:10109000C9D889EC1EF00CE0F851C4D8DECFF0F0CE
:1010A000DECFF1F0DECFF2F0DECFF3F0010EE76F2E
:1010B000F82B0F0EF865A0D7E70553E1F0C0ADFCA3
:1010C000F1C0AEFCF2C0AFFCF3C0B0FCF35106E1DE
:1010D000F029FF0EF1590F0EF25911E3F0C060F044
:1010E000F1C061F0F2C062F0F3C063F08DEC27F064
:1010F00026EC4CF00C0EF3D8E82EFDD71CD0F0C037
:10110000D6F0F1C0D7F0F2C0D8F0F3C0D9F00C0E91
:10111000D890D637D737D837D937E82EF9D7D6C0B1
:1011200060F0D7C061F0D8C062F0D9C063F08DEC38
:1011300027F026EC4CF060C0E3F061C0E4F062C040
:10114000E5F063C0E6F0E3C06DF0E4C06EF0E5C02A
:101150006FF0E6C070F0D0D8A7EC60F0CDD8DEEC30
:1011600050F0FFEC48F0D8A412003FEC16F008094C
:10117000DF6EB0EF51F007EC6DF00001D66FD6A92D
:1011800011D0C6D8D8B4120044EC16F0020EC56FC8
:101190000500FA6E0101BB51FD6EBC51FE6EFF6A87
:1011A000FA501200B5D8D8B4120044EC16F0030E71
:1011B000C56F0500FA6E0101BB51FD6EBC51FE6E9C
:1011C000FF6AFA501200DF50D86FD96B560ED8253F
:1011D000F66EF70ED921F76EF86A000EF8220800B5
:1011E000F5CFDAF0D651DA25DB6F000EDABFFF0E4D
:1011F000D721DC6FDD6BDE6B0C0ED890DB37DC3774
:10120000DD37DE37E82EF9D7DBC060F0DCC061F0F7
:10121000DDC062F0DEC063F07D0E646F656B666BEF
:10122000676B7D0C120D9F0EF324D96E080EF4200F
:10123000DA6E1200DECFD6F0DDCFD7F0120060C03C
:101240006DF061C06EF062C06FF063C070F01200AC
:10125000080EF420DA6E12007D0E966F976B986B75
:10126000996B7D0CD651D86FD751D96FDA6BDB6B88
:10127000D829926F000ED921936F000EDA21946F56
:10128000000EDB21956F2CEEC0F0DECFDCF0DDCF61
:10129000DDF0DCC096F0DDC097F0986B996B120022
:1012A000FF0E9225F46FFF0E9321F56FFF0E942130
:1012B000F66FFF0E9521F76FF4C092F0F5C093F032
:1012C000F6C094F0F7C095F0D4C096F0D5C097F072
:1012D000986B996B12009D0EF324D96E1200D89072
:1012E00060376137623763371200D6C092F0D7C0DB
:1012F00093F0946B956B12002CEECEF0DF50120041
:101300002CEEC8F0DF501200976F986B996B1200AB
:101310000101BB51BC111200806B816B796B7A6B40
:10132000010E0001616FB30E606F62695FEC5DF0EA
:10133000010E0001616FB40E606F62695FEC5DF0D9
:10134000B8EC6CF01EDA7927000E7A230001616B8D
:10135000606B7BC162F05FEC5DF00101804B812B23
:101360007C0E0001606F010E616F7B0E626F010EDB
:10137000636F0CEC66F001017B51F2D95FEC5DF01C
:101380000101804B812B826B030E826501D005D059
:10139000B7D95FEC5DF0F9D9F7D790C27CF191C273
:1013A0007DF17E6B7F6B7D517927E4D97DC162F041
:1013B0005FEC5DF00101804B812B7C517927DAD9FC
:1013C0007CC162F05FEC5DF00101804B812BC0ECD1
:1013D0006CF07B6F7B51C4D95FEC5DF00101804BF9
:1013E000812B26EC6BF060C07CF161C07DF162C0A6
:1013F0007EF163C07FF1826B030E826501D005D060
:101400007FD95FEC5DF0C1D9F7D741EC6BF060C0DC
:101410007CF161C07DF162C07EF163C07FF1826BBF
:10142000030E826501D005D06BD95FEC5DF0ADD9BC
:10143000F7D7660E00016B6F010E6C6FD2EC69F08E
:101440000101826B070E826501D005D071D95FEC76
:101450005DF09BD9F7D7660E00016B6F010E6C6FC4
:10146000C6EC68F00101826B070E826501D005D0E1
:101470005FD95FEC5DF089D9F7D7660E00016B6F1D
:10148000010E6C6F5FEC6AF00101826B0F0E8265DA
:1014900001D005D04DD95FEC5DF077D9F7D7660E56
:1014A00000016B6F010E6C6F49EC6AF00101826BF9
:1014B0000F0E826501D005D03BD95FEC5DF065D998
:1014C000F7D7660E00016B6F010E6C6F54EC6AF07B
:1014D0000101826B0F0E826501D005D029D95FEC26
:1014E0005DF053D9F7D74AEC6BF060C07CF161C076
:1014F0007DF162C07EF163C07FF1826B030E826575
:1015000001D005D0FDD85FEC5DF03FD9F7D7660E6E
:1015100000016B6F010E6C6F8AEC68F00101826B49
:101520000F0E826501D005D003D95FEC5DF02DD997
:10153000F7D7660E00016B6F010E6C6F7BEC68F0E5
:101540000101826B0F0E826501D005D0F1D85FECEE
:101550005DF01BD9F7D738EC6BF060C07CF161C04F
:101560007DF162C07EF163C07FF1826B030E826504
:1015700001D005D0C5D85FEC5DF007D9F7D74EECA8
:101580006CF07B6F7B51ECD85FEC5DF00101804B20
:10159000812B786B020E786501D01DD07851B2ECAA
:1015A00066F0EFD8DDD85FEC5DF00CD9CBEC67F0DE
:1015B000E8D8D6D85FEC5DF005D93BEC64F0F1D803
:1015C000030E826501D005D09BD85FEC5DF0DDD8BD
:1015D000F7D7782BDFD7786B1C0E786501D03AD01F
:1015E0007851030F20EC69F060C07CF161C07DF19F
:1015F00062C07EF163C07FF10101826B030E8265E0
:1016000001D005D07DD85FEC5DF0BFD8F7D7785119
:10161000030F3BEC64F0C5D8030E826501D005D002
:101620006FD85FEC5DF0B1D8F7D77851030FCBECF2
:1016300067F0A7D895D85FEC5DF0C4D8030FB2EC83
:1016400066F09FD88DD85FEC5DF00101804B812B57
:10165000782BC2D7BCEC6CF07B6F7B5181D85FECF0
:101660005DF00101804B812B58EC6CF07B6F7B515E
:1016700077D85FEC5DF00101804B812B9CEC6CF026
:101680007B6F7B516DD85FEC5DF00101804B812B4E
:1016900044EC6CF060C076F161C077F1826B010EB2
:1016A000826501D00AD086D8792764D883D8000112
:1016B000626F5FEC5DF069D8F2D7792904E17A298D
:1016C00002E1796B7A6B80C160F081C161F079C110
:1016D00062F05FEC5DF00101804B812B80C160F016
:1016E00081C161F07AC162F05FEC5DF00101804B75
:1016F000812B000120EE06F0EF51D926F0514AD09F
:101700007C0E8225D96EDA6A010EDA22DF50792743
:10171000000E7A2380C160F081C161F07C0E8225C9
:10172000D96EDA6A010EDA22DF500001626F120010
:10173000660E8225D96EDA6A010EDA22DF50792729
:10174000000E7A2380C160F081C161F0660E8225AF
:10175000D96EDA6A010EDA22DF500001626F1200E0
:101760007927000E7A2380C160F081C161F07BC1CE
:1017700062F0000C000E7A2380C160F081C161F03C
:10178000000C01017B6F7B5112000101804B812B0A
:10179000822B1200DA2200C2DEFF01C2DEFFDD6A08
:1017A000120063C07CF164C07DF101017E6B7F6B30
:1017B000826B1200760E8225D96EDA6A010EDA2269
:1017C000DF5012000101804B812B785112009DECFB
:1017D00021F046EC38F016EC26F0C5EC35F00201AD
:1017E000AF517BEC39F00201AC0501E068D1A2C237
:1017F00062F0390EF3EC68F0B6C2A0F0010E000101
:10180000A0170201D890B5350001A16F0201AE39D1
:10181000CDD91D0EF3EC68F09FC0A0F0030E0001BF
:10182000A017B0C2A1F0010EA117D890A137D8908F
:10183000A1370201AD39BAD91E0EF3EC68F00201EE
:10184000B251B3113DE0B2C2A3F0B3C2A4F00001A3
:10185000A56BA66B1FD0A1D97D0E000199D9BFEC55
:101860005AF00DD09AD9FA0E000192D9BFEC5AF075
:1018700006D093D9F40E00019FD9BFEC5AF092C064
:10188000A3F093C0A4F094C0A5F095C0A6F00BD02F
:1018900099D909D00201AE51070ADDE00F0AE2E052
:1018A000010AE7E0F5D70201AD290001A06F05D0DC
:1018B000D890A633A533A433A333A02FF9D701D0F2
:1018C00081D9A3C062F0240EF3EC68F09EC062F0F0
:1018D0001F0EF3EC68F0260E72EC67F0A76F0C0E8B
:1018E0000201AD1906E1070EAE1909E0080EAE19A6
:1018F00006E00B0EAD1906E1070EAE1903E100017B
:10190000A78702D00001A797A785A7C062F0260E7F
:10191000F3EC68F0310E72EC67F0A76FF80EA717C2
:10192000030EA71363D9F3EC68F00A0E0001626F8F
:10193000370EF3EC68F0120E0201C51925E1070E0F
:10194000AE1903E0080EAE1913E1310E72EC67F028
:10195000A76FA79F4BD9F3EC68F0400E0001626FB0
:101960002F0EF3EC68F00001626B300EF3EC68F0C0
:10197000090E0201AE1908E1310E72EC67F0A76F93
:10198000A78F34D9F3EC68F0330E72EC67F0A76FD1
:10199000A79DA781B4C2A0F0010EA017060EA16FEB
:1019A000D890A037A12FFCD7A051A713A7C062F0F1
:1019B000330EF3EC68F0B4C2A0F0010E0001A017E2
:1019C000D890A037D890A035FF0A1D0BA76FA7C0ED
:1019D00062F03B0EF3EC68F001D9200EF3EC68F0F6
:1019E000A0C262F0210EF3EC68F006D9F3EC68F0C7
:1019F0000001626B0E0EF3EC68F00001626B0F0EDB
:101A0000F3EC68F0120E0201C51956E1090EAE1989
:101A10001AE1800E945D130E9559610E9659330E9E
:101A2000975911E39405F70E9559CB0E96593C0E34
:101A3000975909E2020ECFD8F3EC68F0640EC8D8CB
:101A4000F3EC68F022D0090EAE191BE1800E945D14
:101A50001A0E9559700E9659180E975912E3410EA9
:101A6000945DDD0E95594A0E96591F0E975909E25D
:101A7000020EB1D8F3EC68F07F0EAAD8F3EC68F050
:101A800004D0030EA8D8F3EC68F0090E0201AE19D9
:101A90000BE1B40509E1650E9BD8F3EC68F0190E73
:101AA000A2D8F3EC68F008D0650E92D8F3EC68F099
:101AB0001D0E99D8F3EC68F09CD8F3EF68F098C24B
:101AC0006DF099C26EF09AC26FF09BC270F0FAECA2
:101AD00053F09CC26DF09DC26EF09EC26FF09FC22B
:101AE00070F0DAEC52F07AD8250EF3EC68F0A0C270
:101AF00062F0260EF3EC68F00A0E72EC67F0A76F46
:101B00009F0EA7170201C839E846E00B0001A71392
:101B1000A7C062F00A0EF3EC68F0C80E0001A76FD0
:101B20000201B05102E00001A789A7C062F0300EA7
:101B3000F3EC68F00001A26B0ED0A30EA225D96EC3
:101B4000DA6A020EDA22DF50626FA251280FF3EC3C
:101B500068F00001A22B0201AB510001A25DEDE390
:101B60000201AB5108E0AB0510090001626F270EBE
:101B7000F3EC68F005D00001626B270EF3EC68F01F
:101B8000000162693E0EF3EC68F039D8F3EF68F0BB
:101B9000966F976B986B996B1200A3C092F0A4C0DC
:101BA00093F0A5C094F0A6C095F01200F00B0001D0
:101BB000A111A011626F1200966F010E976F986BC2
:101BC000996B010C0001A36BA46BA56BA66B1200B3
:101BD0000001626F3A0C0001626F360C0201A151E4
:101BE0000001626F12000001626F3B0CA7C062F03F
:101BF000310C00016269120C0001626B0D0C0001D6
:101C000062693F0C0001CA6BCB6B616B606BC5EC0A
:101C100069F00001C56FCA4BCB2BC5C0C2F0C36BC6
:101C2000C55173EC1CF0E5D9C5EC69F0C9D9CC6B92
:101C3000D0D9C5EC69F0A1D9CC65FAD7C6C065F09A
:101C4000C7C066F0C8C067F0C9C068F0C5C069F019
:101C50004FEC5CF0CED9C5EC69F0B2D9C5C0BCF090
:101C6000BD6BBC51BD6FBC6BC4D9C5EC69F0A8D9C4
:101C7000C551BC27000EBD23BCC060F0BDC061F0E3
:101C800071EC6CF0BCC0C0F0BDC0C1F0B2D9C5EC05
:101C900069F096D9C55172EC5CF00001CC6B99D912
:101CA000C5EC69F06AD9CC65FAD7C6C060F0C7C088
:101CB00061F0C8C062F0C9C063F06EEC6BF0CC6B31
:101CC00088D9C5EC69F059D9CC65FAD7C6C060F09F
:101CD000C7C061F0C8C062F0C9C063F077EC6BF0B8
:101CE000CC6BCC51AC0F7ED9C5EC69F0DF6E53D90B
:101CF000CC65F7D7C0A105D0AC0E6B6F6C6B98ECC0
:101D000063F0CC6BCC51AC0F6DD9C5EC69F0DF6ED4
:101D100042D9CC65F7D7C0A305D0AC0E6B6F6C6B06
:101D20004BEC66F0CC6BCC51AC0F5CD9C5EC69F0D8
:101D3000DF6E000169D93CD9CC65F5D7C0A505D0C7
:101D4000AC0E6B6F6C6B36EC66F0CC6BCC51AC0FA1
:101D500049D9C5EC69F0DF6E000156D929D9CC65A7
:101D6000F5D7C0A905D0AC0E6B6F6C6B80EC63F03F
:101D7000CC6BCC51AC0F36D9C5EC69F0DF6E0001ED
:101D800043D916D9CC65F5D7C0AB05D0AC0E6B6F77
:101D90006C6B21EC66F032D91CD9C5EC69F0EDD83A
:101DA000CC65FAD7C0A70AD0C6C060F0C7C061F042
:101DB000C8C062F0C9C063F0B8EC69F0CC6BCC511C
:101DC000AC0F10D9C5EC69F0DF6E00011DD9F0D859
:101DD000CC65F5D7C0AF05D0AC0E6B6F6C6B3EEC2D
:101DE00068F0CC6BCC51AC0FFDD8C5EC69F0DF6E60
:101DF00000010AD9DDD8CC65F5D7C1A105D0AC0E5C
:101E00006B6F6C6B2EEC68F0F9D8E3D8C5EC69F019
:101E1000B4D8CC65FAD7C0AD0AD0C6C060F0C7C090
:101E200061F0C8C062F0C9C063F00EEC6AF0E1D89E
:101E3000C5EC69F0C5D8C55180EC5DF00001C46BFC
:101E4000020EC46501D021D0D4D8C5EC69F0B8D851
:101E5000C551010ED8B4000E656FC45165EC61F038
:101E6000C8D8C5EC69F0ACD8C5C066F0C4511DEC4B
:101E700063F0C4D8AED8C5EC69F07FD8CC65FAD78A
:101E8000C8D860EC65F0C42BDBD7C46B1C0EC465EE
:101E900001D034D0B3D89DD8C5EC69F06ED8CC65EC
:101EA000FAD7C6C065F0C7C066F0C8C067F0C9C041
:101EB00068F0C451030FB7EC5CF0A0D88AD8C5EC29
:101EC00069F05BD8CC65FAD7A4D8030F60EC65F055
:101ED00090D8C5EC69F074D8C5C066F0C451030F42
:101EE0001DEC63F086D8C5EC69F06AD8C5C065F012
:101EF000C451030F65EC61F0C42BC8D77AD8C5EC88
:101F000069F05ED8C551B0EC63F073D8C5EC69F0E8
:101F100057D8C551E4EC68F06CD8C5EC69F050D8DE
:101F2000C5510BEC6CF00001BE6BBF6BCC6BCC51A0
:101F3000BE0F58D8C5EC69F0DF6E0001CA4BCB2B41
:101F4000CC51BE0FD96EDA6ADF50C227000EC32310
:101F5000CC2B010ECC65EBD7BEC060F0BFC061F0EA
:101F6000C5EC64F0C22904E1C32902E1C26BC36B72
:101F7000C2C0AAF0C3C0ABF01200DF6E0001CA4BB2
:101F8000CB2BCC51C60FD96EDA6ADF50C227000EB8
:101F9000C323CC2B030C0001CA4BCB2BCC51AC0F71
:101FA000D96EDA6ADF50C227000EC323CC2B070C90
:101FB000D96EDA6ADF50C227000EC323CC2B0F0C78
:101FC0000001C56FCA4BCB2BC551C227000EC323DE
:101FD000000CCC51C60FD96EDA6ACAC060F0CBC013
:101FE00061F01200D96EDA6ACAC060F0CBC061F04D
:101FF0001200CAC060F0CBC061F01200C66BC76BA4
:10200000C86BC96BCC6B1200CA4BCB2BCC51AC0F3D
:102010001200C6C063F0C7C064F0C4511200EFC024
:10202000D9FFF0C0DAFFDECFF4F0DDCFF5F000012C
:1020300020EE02F0B0D9DECFF6F0DDCFF7F0010EE2
:10204000F86FF969F4C0C5F0F5C0C6F0ACEC3AF031
:10205000F96FF9BF8BD1FA6B070EFA6501D086D103
:10206000FA51020D340EF324D96E020EF420DA6E0A
:10207000DECF60F0DDCF61F0F6C062F0F7C063F054
:1020800085EC48F06051611101E06DD12B0EF9250E
:102090007DD97BEC48F0F5CFF1F0FAC0F2F0010EFB
:1020A000F36FF22B02D0D890F337F22FFCD7000158
:1020B000F351F11501E157D1F86B26D10F01389199
:1020C000929051D10F01389192804DD192800F01A1
:1020D000388149D1FA51F2E0010AF4E0030AF6E04E
:1020E00012D00F01389392923ED10F013893928211
:1020F0003AD192820F01388336D1FA51F2E0010AC7
:10210000F4E0030AF6E0010A2ED10F01389592940B
:102110002AD10F013895928426D192840F013885F7
:1021200022D1FA51F2E0010AF4E0030AF6E0EBD71B
:102130000F013897929617D10F013897928613D1D5
:1021400092860F0138870FD1FA51F2E0010AF4E0CC
:10215000030AF6E0D8D7929806D1928804D1FA51B2
:10216000FAE0010AFAE0020AFED00F01389B929AC7
:10217000FAD00F01389B928AF6D0928A0F01388BE1
:10218000F2D0FA51F2E0010AF4E0030AF6E0BBD71C
:102190000F013C919690E7D00F013C919680E3D0DF
:1021A00096800F013C81DFD0FA51F2E0010AF4E0A1
:1021B000030AF6E0A8D70F013C939692D4D00F0102
:1021C0003C939682D0D096820F013C83CCD0FA51BA
:1021D000F2E0010AF4E0030AF6E095D70F013B951F
:1021E0009594C1D00F013B959584BDD095840F0186
:1021F0003B85B9D0FA51F2E0010AF4E0030AF6E0B7
:1022000082D70F013C959694AED00F013C959684F1
:10221000AAD096840F013C85A6D0FA51F2E0010ABB
:10222000F4E0030AF6E06FD70F013A9B949A9BD033
:102230000F013A9B948A97D0948A0F013A8B93D0DE
:10224000FA51F2E0010AF4E0030AF6E05CD70F016C
:102250003B9B959A88D00F013B9B958A84D0958AA9
:102260000F013B8B80D0FA51F2E0010AF4E0030A3F
:10227000F6E049D70F013B9F959E75D00F013B9F1C
:10228000958E71D0958E0F013B8F6DD0FA51F2E093
:10229000010AF4E0030AF6E036D70F013B9D959C56
:1022A00062D00F013B9D958C5ED0958C0F013B8DCC
:1022B0005AD0FA51F2E0010AF4E0030AF6E023D71B
:1022C000929E51D0928E4FD0FA51FAE0010AFAE074
:1022D0004AD7929C48D0928C46D0FA51FAE0010A33
:1022E000FAE041D7939C3FD0938C3DD0FA51FAE06D
:1022F000010AFAE038D7939E36D0938E34D0FA5143
:10230000FAE0010AFAE02FD7F95101E1E3D6010A18
:1023100001E1F3D6030A01E104D7010A01E114D770
:10232000070A01E11CD7010A01E12BD7030A01E1E9
:102330003BD7010A01E14BD70F0A01E15BD7010A44
:1023400001E16BD7030A01E17BD7010A8CE0070AA0
:102350009DE0010AAEE0030AB7E0010ABEE01F0AF1
:10236000C5E0010ACCE00001FA2B76D6F851CFEC9B
:1023700026F0DECFF1F0DDCFF2F020EE06F00BD844
:10238000F1C0DEFFF2C0DEFFDD6A1200F66EF76A12
:10239000F70EF7221200EF51D926F051DA2212007F
:1023A000E06F100E0001E46FE26BE10E606F616B95
:1023B000636B626B656B010E646F60EC66F065D9F0
:1023C00060EC66F003EC3FF0F6EC3EF060EC66F09B
:1023D000E00506E1E1511F0B8009E16F98D904D0B7
:1023E000E1511F0B4009E16FFC0EE117E30EE1170D
:1023F000C20E6FD9E1C0DFFFE42B40D908EC3FF0FB
:10240000F1EC3EF0BAEC55F0040EE427E36B2BEE52
:10241000D3F0DFAC3FD0E38F6AEC44F017E2E38DFA
:102420002BEED1F0DF882CEEB5F0DE2A000EDD2297
:102430002CEEB5F0DECFDCF0DDCFDDF02CEE77F06A
:10244000DF50DC19DD1106E15ED9E39D2BEED1F002
:10245000DF9820D02CEEB5F00CEE77F0EF50DE6F69
:10246000DF6BDE50DE5DDE50DF59EFE2D3CCE8FFFC
:10247000010FE8CFD3FC2CEE78F00CEED3F0DE5059
:10248000EE5C08E340D928EC44F0000903E165EC78
:1024900006F0DBD72BEED1F0DFA204D0E38B2BEEDE
:1024A000D1F0DF92E3992CEE7CF0DF5003E0DA51BB
:1024B000DB1119E1F00EE3170101DC5103E000012B
:1024C0000ED91DD90101DB5108E00001E3510F0BCA
:1024D000DC6FDC2BE351DC1912D90101DA5108E081
:1024E0000001FDD804D0C6EC49F0DC6FE31907D930
:1024F000C20E0001EED8E3C0DFFFE42BBFD8D70E39
:10250000626F0B0E636F656B020E646FBAEC55F071
:10251000020EE4272CEE7CF0DF500EE0DA51DB11E6
:102520000BE0C20E606F0A0E616FE40E626F010E67
:10253000636FC5EC1FF028D02CEE7CF0DF5024E157
:102540000101DA5109E0C20E0001606F0A0E616FED
:10255000E40E626F6BEC62F00101DC5109E0C20E27
:102560000001606F0A0E616FE40E626F51EC62F061
:102570000101DB5109E0C20E0001606F0A0E616FBC
:10258000E40E626FC6EC66F0C20E0001A2D8D7C09E
:10259000DFFFE42BDA51DB1118E070D8D8C062F00D
:1025A000D9C063F0DAC064F0DBC065F0BAEC55F076
:1025B000D8C0A0F0D9C0A1F0DAC0A2F071D89BD8E1
:1025C0007FD8D0EC2CF0DA5119D02CEE7CF0DF5013
:1025D00016E0B30E606F090E616FE20E626F636BFF
:1025E000C5EC1FF0B30EA06F090EA16FE2C0A2F000
:1025F00057D87DD865D8D0EC2CF0E251E427D7CB62
:102600006BF0D8CB6CF0D9CB6DF0DACB6EF0E45137
:10261000F00F6F6F490E706F000E716BBEEC3EF0E5
:10262000C20E606F0A0EF1EC05F0100E646FBAEC8A
:1026300055F040D8CA6F020ECB6FC20ECC6F0A0E97
:10264000CD6FE4C0CEF0CF6B8BEC13F017D88AECD3
:1026500056F0F1EC3EF0BAEC55F0040EE427F00E23
:10266000DC6FDD69E451DE6FDF6BDC51DE27DD51AD
:10267000DF23DEC0B9FCDFC0BAFC1200C20EE425C5
:10268000606F616B0A0E61231200C20E606F0A0E4A
:10269000616F636B626B010E656F0F0E646F0F0CE1
:1026A000A36BD7CBA4F0D8CBA5F0D9CBA6F0DACBCF
:1026B000A7F01200F30EC86F0B0EC96FCB0E1200FD
:1026C000A96FE4C0AAF0C20EAB6F0A0EAC6FAD6B7F
:1026D0001200E425D96EDA6A0A0EDA221200E351FA
:1026E0000F0BDC6F020EDC27E351DC191200F30E36
:1026F000A86F0B0E1200030EA86F0C0E1200F00B49
:10270000DC19E36F1200000EE8CFD3FC000C2BEEB7
:10271000D1F0DF8012000101656B646B626B606B4E
:10272000616BC8C0A0F0C9C0A1F0100E0001A26F7B
:10273000010EA36F000EA46F010EA56F4FEC32F0D7
:102740000F0ECE25D06F000ECF21D16F040ED26FA9
:10275000D890D133D033D22FFBD7D0510101636F42
:10276000635104E1010E636F626B0AD0CEC0D0F0FA
:102770000F0E0001D017010ED8A4000E0101626FE8
:1027800062052DE1646B6351100DF350F00F656F1E
:1027900018D0200E0101642526D9100E6425E96E9B
:1027A000EA6A010EF6D8010165510001CC25E96EF7
:1027B000000ECD21EA6EEF50D019DF6E0101642BBF
:1027C000652B6351C6D80101655108D9D25DD3513B
:1027D000800AD46FD151800AD45940E2DAD70F0E63
:1027E0000001CE15D06FD16BD9D8D25FD151D35B58
:1027F000CE51D2250101606F0001CF51D3210101DB
:10280000616F656BE1D865610CD065516025D96E4B
:10281000000E6121DA6E300EC7D8EA22DFCFEFFF5B
:1028200009D0D2D8651904E1ADD8800EDF6E02D090
:10283000A9D8DF6A652B0F0E6565E4D7656B200E9E
:102840006525D1D8000E6525E96EEA6A010EA1D88A
:10285000300E0101A9D88AD86565F1D7500E000164
:10286000606F010E616FF6EC3EF060EC66F0010106
:10287000656B32D00101646B400E6425AAD86551A6
:1028800068D88CD89CD864510001D225E96E000E1E
:10289000D321EA6EEF50D46F500E010164256ED83B
:1028A000EA22EF500001D419DF6E0101642B0F0EF4
:1028B0006465E2D7500E0001606F010E616F400E3B
:1028C000626F010E41D8BAEC55F0500E8C6F010EBC
:1028D00070D839EC67F0652B0001D069D16901012E
:1028E00063517CD86CD865510001D46FD56BD2513F
:1028F000D45DD551800AD66FD351800AD659BAE338
:102900000101656B400E652564D8200E6525E96ED2
:10291000EA6A010E3ED8500E010165252FD826D84F
:102920006565F0D7400E00018C6F010E42D839EC7E
:1029300067F0CAC060F0CBC061F0400E0001626F6A
:10294000010E02D8BAEF55F0636F656B100E646F1D
:10295000100C0001D06FD16BD03BD13BF00ED117E2
:10296000D0510F0BD113F00ED017F00CEA22EF501C
:102970000001D019DF6E0101652B0F0CE96EEA6AC8
:10298000010E1200300E6525D96EDA6A010EDA22C8
:102990001200EA22EF500001D06F1200CCC0D2F03A
:1029A000CDC0D3F0D05112006525E96EEA6A010E60
:1029B00012008D6FC8C08EF0C9C08FF01200D227F0
:1029C000D151D323010112000001CE510F0B01019F
:1029D0001200D96EDA6A010EDA2212000001D26FFB
:1029E000D36BD0511200D96EDA6A010EDA221200CE
:1029F0000001DA69DB69DC69DD692BEED4F0DFB058
:102A00002DD1ECEC05F0030A2FE139D90409DF6E72
:102A10002BEED3F0DFA81200E3CBE8FF020AD8A424
:102A200012002BEED1F0DFB0120039D9D8B012006D
:102A30002CEEB9F0010EDB5004E10E0EDE5CD8A0E6
:102A400012008BEC6AF088EC09F0D8B412001CD9A3
:102A5000010EC56F0500FA6E0101BB51FD6EBC5140
:102A6000FE6EFF6AFA5012002BEED1F0DFB480EF59
:102A700064F02BEED3F0DFA8E8D02BEED1F0DFA08E
:102A800043D003EC2BF02AE3FAD8D5EC52F0DECF9A
:102A9000D4F0DDCFD5F0D451D66FD551D76FD86BE8
:102AA000D96B0C0ED890D637D737D837D937E82E10
:102AB000F9D7D6C060F0D7C061F0D8C062F0D9C0F5
:102AC00063F08DEC27F026EC4CF01FEC09F0EED80B
:102AD000A7EC60F0EBD8DEEC50F0B7D065EC6BF013
:102AE0000101BB51BC1101E1B0D0000ECDD8C56BC6
:102AF00001D8ABD00500FA6E0101BB51FD6EBC518F
:102B0000FE6EFF6AFA501200CAD801E285D0B7D82B
:102B10000609DF6E010E59EC42F0000913E1E1EC09
:102B20004DF09FEC23F0A851A91105E1B2D8A7D828
:102B30000109DF6E8AD08BEC6AF00101BB51BC1138
:102B4000D4E183D0DE6B3AD0DE51A9EC1EF0B3ECB9
:102B50003EF033E1DE5112EC09F089EC1EF02DE07D
:102B6000DE5112EC09F0DE50DA5DDE50DB59DE504A
:102B7000DC59DE50DD5921E3DE51ABEC3EF0DF5095
:102B80000F0BD46F2CEEC4F0D451DE5C16E32CEEA8
:102B9000C4F0DE51F4EC2FF0EF380F0BD56FDE50A0
:102BA000D55D0BE3DE5112EC09F0DECFDAF0DECFBB
:102BB000DBF0DECFDCF0DECFDDF0DE2B2CEED2F072
:102BC000DE51DE5CC1E2DAC0D4F0DBC0D5F0DCC09F
:102BD000D6F0DDC0D7F00C0ED890D437D537D63725
:102BE000D737E82EF9D7000ED425606F200ED521F7
:102BF000616F030ED621626F000ED721636F8DECDB
:102C000027F026EC4CF01FEC09F054D8A7EC60F04C
:102C100051D8DEEC50F019D0E3CBE8FF020A15E002
:102C20008BEC6AF00101BB51BC110FE02DD8010EF5
:102C3000C56F01D80AD00500FA6E0101BB51FD6EC7
:102C4000BC51FE6EFF6AFA501200FFEC48F0D8A4A7
:102C5000120015D80909DF6EB0EF51F088EC09F0C9
:102C6000D8B4120011D8020EC56F0500FA6E01012A
:102C7000BB51FD6EBC51FE6EFF6AFA5012002BEE86
:102C8000D3F0DF50F00B12000001C26BC36BC46BBA
:102C90001200BDCCE8FF010FE8CFBDFC12002CEE06
:102CA000BDF00CEEBBF0DE50EE5C12002CEECDF071
:102CB000DF5012002CEECFF0DF50120000017B6FCE
:102CC000796B7A6B080E7B192EE126EE7DF0DE50D3
:102CD000DE10D8B412001BD9380E7025D96E040E40
:102CE0007121DA6EDF5014E17CC6E8FFFF0FE8CFF8
:102CF0007CF602D9DECF7FF6DDCF80F6FDD8DE6A26
:102D0000DD6A26EE7CF0DF5009D9DE6ADD6A05D087
:102D100026EE7FF0DE06000EDD5A26EE7DF0DE06A2
:102D2000000EDD5A000C26EE7DF0250EDE5C020E54
:102D3000DE5846E2200E7B1945E126EE7CF0060EB9
:102D4000DF603ED0E4D805D9000EDF6A26EE7DF0C4
:102D5000DE2ADD2226EE7FF006EE7CF0EF50020D3B
:102D60005F0EF324E96E060EF420EA6EDECFEEFF6E
:102D7000DDCFEDFF7069716926EE7FF0F1D826EEA8
:102D80007DF0DECF74F0DDCF75F07251745F73515A
:102D9000755B705174277151752326EE7CF0DF50FE
:102DA000BDD874C0DEFF75C0DDFF7CC6E8FF010F33
:102DB000E8CF7CF6000EE8CF7FF6E8CF80F677D03C
:102DC000796975D0A4D8C5D87BC0DFFF26EE7DF029
:102DD000DE2A000EDD2226EE7FF0DE2ADD2283D8F9
:102DE0002CEC5CF026EE7DF06051DE5C6151DE582B
:102DF0002EE3010E7A6F77D82CEC5CF060517C6F7B
:102E000022D085D8B2D87C51725F000E9AD8DF509C
:102E1000746F69D82CEC5CF0E40E756FFF0E766F62
:102E200060517527615176237C51755F000E765B8A
:102E300075C0F6FF76C0F7FFF86A0800F550741900
:102E400001E07A6B7C077C5102E07A51DAE17A5139
:102E50002EE05DD848D82CEC5CF087D86051725FCA
:102E600061516FD8DF6A3FD82CEC5CF026EE7FF022
:102E70005DD86051705F6151715B3ED870C0DEFFFC
:102E800071C0DDFF26EE7FF051D826EE7DF068D8C8
:102E90007051725F7151735B26EE7CF0DF503ED84B
:102EA00072C0DEFF73C0DDFF010EE8CF7BF679292B
:102EB000D8A4120052EC64F050C260F051C261F02C
:102EC00014EC1BF02CEC5CF060C077F061C078F083
:102ED00050C266F051C267F02ED877C069F078C052
:102EE0006AF0FAEF4AF0E40E606FFF0E616F601156
:102EF000D8A4000E626F120026EE7CF0DF50020DA7
:102F00005F0EF324D96E060EF420DA6E120026EE60
:102F10007DF0DECF70F0DDCF71F01200020D6D0E8E
:102F2000F324D96E060EF420DA6E1200DECF70F0B4
:102F3000DDCF71F0120066516711D8A4000E686FE2
:102F40001200735B70517225D96E71517321DA6E64
:102F50001200390E7025D96E040E7121DA6E12003E
:102F6000DECF72F0DDCF73F01200390E726F040EF7
:102F7000736F1200010E756F7B6F766B776B6E0748
:102F8000D8A06F07F6D0050E6E25726F000E6F2168
:102F9000736F7051725D715173591BE220EE05F031
:102FA0006E51D9266F51DA22030EDE1812E1752B0D
:102FB000040E6E257C6F000E6F217D6F0AD902EC26
:102FC0006AF0000901E07B6B050E6E27000E6F238F
:102FD000D0D006D9030EDE1801E0CBD06E4B6F2B9C
:102FE000FFD8DF500F0B746FFBD8DF50726F723950
:102FF0000F0B7A6F6E4B6F2BF3D8DECF78F0DDCFEF
:1030000079F0020E6E27000E6F236EC07CF06FC049
:103010007DF06E4B6F2B2BEED3F0DFAC63D07B518A
:1030200012E0D7D802EC6AF0000902E07B6B0BD00B
:10303000D0D8060A08E078C060F079C061F0AEEC44
:1030400064F00009F3E17A51D3EC6AF0000911E170
:10305000080E7A610ED078C060F079C061F07AC055
:1030600062F0B7D8636FC6EC58F0000902E1010EB8
:10307000776F74513CEC69F0000902E1010E766F44
:10308000760572E1770570E17B056EE178C06BF043
:1030900079C06CF09ED86D6F75EC6AF0745105ECD8
:1030A0006CF02BEED4F0DF8800017A5111EC6CF05B
:1030B0007CC0D9FF7DC0DAFF0001DF500F0B04E1B7
:1030C000000EE8CFBBFC0AD07CC0D9FF7DC0DAFF80
:1030D000DF500F0B726F720772C0BBFC2BEED4F087
:1030E000DF8A42D07B6B40D070D84ED87BB102D003
:1030F000DF9001D0DF8069D847D8000177B102D0D6
:10310000DF9201D0DF8261D83FD8000176B102D0D2
:10311000DF9401D0DF849CEC23F0DF6025D0000138
:10312000755122E091EC23F050D82ED8DF904DD885
:103130002BD8DF924AD828D82FD826D832D824D8EE
:1031400035D822D838D820D83BD81ED8DF9E3DD8D5
:103150006CEC30F0DF9039D86CEC30F0DF9235D881
:10316000BBEC20F0030EDF6E00017507752907E048
:10317000BBD770516E5D71516F5901E204D76EC0BB
:103180006EF06FC06FF01200030D7E0EF324D96E47
:103190000C0EF420DA6E1200DF942CEE7CF0DF507F
:1031A0001200DF962CEE7CF0DF501200DF982CEE40
:1031B0007CF0DF501200DF9A2CEE7CF0DF50120022
:1031C000DF9C2CEE7CF0DF5012002CEE7CF0DF5008
:1031D00012007CC0D9FF7DC0DAFFDF38070B120078
:1031E0006EC0D9FF6FC0DAFF1200916B60C2A4F10C
:1031F00061C2A5F1A451A511D8A4000EA66F946BCD
:1032000031D09451090DF35083258A6FF4508421F5
:103210008B6F000E85218C6F8AC1F6FF8BC1F7FF83
:103220008CC1F8FF21EE95F0080E05D9FEE295C19C
:1032300060F096C161F087518EEC17F0DECF8AF115
:10324000DDCF8BF1390E8A250001626F040E01017A
:103250008B210001636F85EC48F06051611105E03E
:103260000101942B8651945DCCE301018651945D5C
:1032700001E3ACD097519811991101E09CD09A517B
:103280009B1101E1A3D09D518A6F8B6B87517CC646
:103290008CF18CC18DF18E6B8D5F000E8E5B8A512F
:1032A0008D1903E18B518E19D8A490D08729936F83
:1032B000926B9D5112E0932B9305020D5F0EF32448
:1032C000D96E060EA5EC46F003E1010E926F05D013
:1032D00026EE7CF09351DE5CEEE2925177E19E0E99
:1032E0000001606F010E64EC64F0090E646F60EC25
:1032F00066F0010187518A6F8B6B8A2B000E8B233E
:103300008B5114E1070E8A5D11E280D8610E8A2587
:10331000D96E060E8BD80AE079D86F0E8A25D96E41
:10332000060E7BD89E6F040E8D219F6F87518A6F8A
:103330008B6B020E85D814E1070E8A5D11E266D808
:10334000630E8A25D96E060E71D80AE05FD8710E19
:103350008A25D96E060E61D8A06F040E8D21A16F4B
:1033600087518A6F8B6B030E6BD814E1070E8A5D51
:1033700011E24CD8650E8A25D96E060E57D80AE0A0
:1033800045D8730E8A25D96E060E47D8A26F040E53
:103390008D21A36F9E0E0001EF6F010EF06F01D81B
:1033A00015D00500FA6E01019A51FD6E9B51FE6E1B
:1033B000FF6AFA501200010E916F88C1D9FF89C1CE
:1033C000DAFF94C1DFFFA46BA56BA66B0101A451CA
:1033D000A511A61118E0A4C160F0A5C161F0A6C1B5
:1033E00062F02CEC5CF060C08FF161C090F1A4C180
:1033F00066F0A5C167F0A6C168F08FC169F090C101
:103400006AF0FAEC4AF001019151120087518A6F7B
:103410008B6BD8908A378B3712008B21DA6EDECF18
:103420008CF1DDCF8DF1390E8C2512008B21DA6EF7
:10343000DE50DE1012000900F5CFDEFFE8061200B4
:103440008A27000E8B238B511200D6D0C45154E032
:1034500023D91EC262F01FC263F068EC63F0DBD8B0
:103460002CEC5CF0F7D8AE6F060ED321AF6FC2C064
:10347000D9FFC3C0DAFFDF50B06F02EC3EF08BEC37
:1034800060F0C9D82CEC5CF0E5D8F3D8D24BD32B44
:10349000C669C769C451C86FC96BC651C827C7512F
:1034A000C923120ECA6F020ECB6FD251CA5FD3511D
:1034B000CB5BD890CB31CD6FCA31CC6FC851CC5DCE
:1034C000C951CD5903E2B6D8DBD806D0FF0EC425CA
:1034D000CE6FCF6BFF0ECF23C229B66F000EC32174
:1034E000B76FBFD817EC41F096D82CEC5CF0ADD894
:1034F000CDD8D8A4200E0DD01AC260F01BC261F046
:1035000093D82CEC5CF0A1D81AC266F01BC267F00D
:103510006ED0686FD0C069F0D1C06AF0FAEF4AF09F
:10352000C45125E0B9D81CC262F01DC263F068EC3A
:1035300063F071D82CEC5CF08DD89BD8D24BD32B98
:1035400079D8C96FC631C86FC451C85D000EC9595A
:1035500003E270D895D803D0C4C0CEF0CF6BC2C000
:10356000B6F0C3C0B7F07DD817EC41F0BDD718C294
:1035700060F019C261F058D82CEC5CF066D818C223
:1035800066F019C267F033D020C260F021C261F04A
:103590004BD82CEC5CF059D820C266F021C267F001
:1035A00026D022C260F023C261F03ED82CEC5CF041
:1035B0004CD822C266F023C267F019D024C260F052
:1035C00025C261F031D82CEC5CF03FD824C266F003
:1035D00025C267F00CD026C260F027C261F024D863
:1035E0002CEC5CF032D826C266F027C267F0665138
:1035F0006711D8A4000E8DD70001C551D2E0010A91
:1036000001E124D7030AC0E0010A8AE0070AD6E0F4
:10361000010AE1E01200810E606F060E616F601119
:10362000D8A4200E626F120060516111D8A4000E60
:10363000626F1200120EC66F020EC76FD251C65FC4
:10364000D351C75BD890C731120060C0D0F061C0C1
:10365000D1F0120060C0D2F061C0D3F0810ED2254B
:103660001200810ED225B86F060ED321B96FCE514C
:103670001200D96E060ED321DA6E200EDF6E200CFA
:10368000C86FC631CE6FC8C0CFF01200810E666F12
:10369000060E676F66111200810E606F060E616F75
:1036A00012008B6B68518B25D96EDA6A8B51710FC2
:1036B000E96EEA6ADFCFEFFF8B2B0F0E8B65F2D737
:1036C0000A0E0101D66F010E456E00018B6BC9D841
:1036D000C1D805D98B65FBD700018B6BBBD8DF50F8
:1036E000696F6A6B2B0E6925F66EF60E6A21F76E0E
:1036F000F86A000EF822AED80800F5CFDFFF8B2B5A
:103700000F0E8B65EBD766C060F067C061F076EC9A
:103710003BF00101D60501E185D000018B6B93D808
:103720006929D96EBFD86B6F95D8DF506B19896F37
:103730008AD8D1D8B7D8A6D88A6F8919876F83D885
:103740006929D96EAFD89ED8886F7F0E896508D059
:103750001B0E89C069F0ABD8816F6A51826F05D0AA
:10376000D8908935816F826B823781C089F07F0E56
:10377000886508D01B0E88C069F099D8836F6A519C
:10378000846F05D0D8908835836F846B843783C06D
:1037900088F07F0E8A6508D01B0E8AC069F087D832
:1037A000856F6A51866F05D0D8908A35856F866B94
:1037B000863785C08AF04ED886D887198919DF6E7A
:1037C00042D86929D96E54D86B2977D887198819B6
:1037D000DF6E39D8020E6925D96E4AD8020E6B25E4
:1037E0006CD887198A19DF6E2ED875D841D8020E89
:1037F0006B2563D86D6F8B5166256E6F000E672148
:103800006F6F6E29E96E000E6F21EA6EEF50706FD8
:103810005AD870196D198719DF6E040E8B270F0E99
:103820008B657DD7710E0001606F65EC2DF08B6BA1
:1038300018D810D854D88B65FBD70101D607D651BC
:1038400001E04AD712008B516625696F000E67218F
:103850006A6F12008B516625D96E000E6721DA6EF1
:1038600012008B51710FD96EDA6ADF50696F120046
:10387000000E6A21DA6E8B5166256B6F000E672190
:103880006C6F12006B6F8B5166256C6F000E672199
:103890006D6F020E6C25D96E000E6D21DA6EDF5051
:1038A0006B191200000E6A21DA6EDF5012006A6B8B
:1038B000D89069376A3769191200E96E000E6C21D9
:1038C000EA6EEF5012008B516625E96E000E6721FB
:1038D000EA6EEF501200030E6925D96E120069518D
:1038E000DF1A8B2B0F0C0001A96FD5CCE8FF010A62
:1038F00002E138EC55F0340EE8CFD9FC11D976EC62
:103900006CF0000EDBD8FED8F4D8E8CFB9FCE8CFD5
:10391000BAFCCBD8E5D8E8CFB7FCE8CFB8FC010EAD
:10392000E8CFC0FC000EE8CFC1FCE8CFB5FCE8CF83
:10393000B6FCE8CFD3FCE8CFD4FCDBD8E8CFDDFC85
:10394000E8CFDCFC2BEED4F0DF94B8D8E8CFD1FB85
:10395000E8CFD2FB070EE8CFBCFC000EE8CFBBFCE3
:10396000010EE8CFBEFCE8CFBDFCFF0EE8CFC5FCE2
:103970002CEE79F0A9C0DFFF000EE8CFE3FB100EBC
:10398000E8CFD2FC0001A9511DE1C30E82D852EC50
:1039900025F0E2EC5FF0000EE8CFEDFB080EE8CF7B
:1039A000E9FBE60EE8CFEAFBD30EE8CFEBFB330EE4
:1039B000E8CFECFB8CD8A7EC60F0FDEC5DF0DEEC22
:1039C00050F01FD0C30E796F090E7A6F200E7B6FF7
:1039D000A20E7C6FD30E7D6F190E7E6F52EC25F018
:1039E0006CEC53F0000EE8CFEDFB280EE8CFE9FBBE
:1039F000760EE8CFEAFBE80EE8CFEBFB190EE8CF36
:103A0000ECFB010EE8CFC6FC000EE8CFC4FC00ECD6
:103A100048F0000EE8CF7AFCE8CF7BFCEE0E606F3A
:103A20000B0E64EC64F0690E646F60EC66F071D8A4
:103A3000D00EE8CF6BFC070EE8CF6CFC880EE8CF09
:103A40006DFC130EE8CF6EFC700EE8CF6FFC170E06
:103A5000E8CF70FCD00EE8CF75FC070EE8CF76FCFF
:103A6000200EE8CF78FC400EE8CF77FC000EE8CFC0
:103A700071FC400EE8CF72FC000EE8CF73FC400EE4
:103A8000E8CF74FC000EE8CFDAFC9F6B9E6B02EF70
:103A90002FF0796F090E7A6FA00E7B6F270E7C6F67
:103AA000BE0E7D6F330E7E6F330CE8CFDBFBE8CFAD
:103AB000DCFBE8CFDDFBE8CFDEFB1200E8CFD3FB79
:103AC000E8CFD4FBE8CFD5FBE8CFD6FB12006D6B77
:103AD0006E6B1E0E6F6F706B2CEEDBF0DF50120002
:103AE000E8CFD7FBE8CFD8FBE8CFD9FBE8CFDAFBAC
:103AF0001200E8CFADFCE8CFAEFCE8CFAFFCE8CFDA
:103B0000B0FC1200FF0EE8CFC2FC000EE8CFC3FCF1
:103B1000000CE80EE8CF69FC030EE8CF6AFC030C4A
:103B20002CEED9F0DF5012000A0EE126000EE22240
:103B30005068516852685368FDD8FE0EE36AFE0E65
:103B4000E35007D9B3EC3EF06AE1FE0EE35012EC0D
:103B500009F0DFD864E0FE0EE35012EC09F00CEE41
:103B6000ADF0DE50EE5CDE50EE58DE50EE58DE502A
:103B7000EE582DE2ADCC50F0AECC51F0AFCC52F0BF
:103B8000B0CC53F0FE0EE35012EC09F0DECF4CF057
:103B9000DECF4DF0DECF4EF0DECF4FF050504C5C1C
:103BA000486E51504D58496E52504E584A6E5350BF
:103BB0004F584B6EFE0EE35012EC09F048C0DEFF8A
:103BC00049C0DEFF4AC0DEFF4BC0DEFF06D0FE0E5E
:103BD000E35012EC09F0CDEC29F0FE0EE35012ECAC
:103BE00009F0FA0E6AEC2AF0FB0EB8D8FC0EB6D833
:103BF000FD0EB4D814E3FE0EE35012EC09F089D8A0
:103C00000EE0FE0EE35012EC09F0DECF50F0DECFF6
:103C100051F0DECF52F0DECF53F08CD8E32AFE0E07
:103C2000E32AE3CF48F00F0E486489D7FF0EE30480
:103C30006DE1E150FA0F72D8DECFADFCDECFAEFC05
:103C4000DECFAFFCDDCFB0FCFD0EE3500DE1FA0E90
:103C5000E328FB0EE3CF48F0FF0E485AFC0EE3CFFB
:103C600048F00F0E485A18E3E150FA0F57D8DECF4C
:103C700060F0DECF61F0DECF62F0DECF63F07D0E6C
:103C80000001BFEC37F026EC4CF0C4EC37F00C0E22
:103C90004BD8E82EFDD720D0FA0EE3CF50F0FB0E24
:103CA000E3CF51F0FC0EE3CF52F0FD0EE3CF53F023
:103CB0000C0E3AD8E82EFDD750C060F051C061F02C
:103CC00052C062F053C063F07D0E0001BFEC37F0CC
:103CD00026EC4CF0C4EC37F0F60E50C0E3FFF70EC4
:103CE00051C0E3FFF80E52C0E3FFF90E53C0E3FFEB
:103CF000E150F60FD96EE250CDEC37F07CEC09F0D4
:103D0000A7EC60F07CEC09F0DEEC50F0F50ED9EF9A
:103D100037F0DE50DE10DE10DE101200D96EE250F9
:103D2000DA6EFF0EDA22FF0CD8905036513652363A
:103D300053361200FA0E50C0E3FFFB0E51C0E3FFF2
:103D4000FC0E52C0E3FFFD0E53C0E3FFFF0EE36A1B
:103D50001200120D9B0EF324D96E1200E3CF48F02F
:103D6000DE5048581200A8D00001A669A769A869CA
:103D7000A969AED02BEED1F0DFA41FD0FDD885EC21
:103D800062F08C5102E1D7D80CE3F6D885EC62F0F2
:103D90000D0E01D0D7D8E82EFDD7B9D8BFEC5AF018
:103DA00075D0EAD885EC62F0B2D8BFEC5AF00D0EAF
:103DB00001D0BBD8E82EFDD769D02BEED3F0DFA819
:103DC00087D0D6D885EC62F08C5102E1B4D80CE3F0
:103DD000CFD885EC62F00D0E01D0B4D8E82EFDD717
:103DE00096D8BFEC5AF052D0C3D885EC62F08FD889
:103DF000BFEC5AF00D0E01D098D8E82EFDD746D072
:103E00002BEED1F0DFA405D080EC09F085EC62F058
:103E100008D02BEED3F0DFA805D0ADEC06F085EC92
:103E200062F096D80001A95102E19BD81EE3A6C01A
:103E3000A2F0A7C0A3F0A8C0A4F0A9C0A5F00D0EE1
:103E400005D0D890A533A433A333A233E82EF9D7F5
:103E5000A2C092F0A3C093F0A4C094F0A5C095F0C6
:103E60002CEC09F0BFEC5AF011D0A6C092F0A7C01C
:103E700093F0A8C094F0A9C095F02CEC09F0BFEC29
:103E80005AF00D0E01D051D8E82EFDD792C0A6F001
:103E900093C0A7F094C0A8F095C0A9F019D056EC33
:103EA00016F085EC62F054D8A951C1E15AD8BFE2AE
:103EB000DCD7000165D80CD0ECEC05F001E154D75B
:103EC000020A01E157D7060A9BE0020AE8E0F1D7AF
:103ED0000001A951A811A71103E1C80EA65D0AE3CC
:103EE000CE0EA627FF0EA723A823A9232BEED4F0DE
:103EF000DF8004D045D82BEED4F0DF90A6C09EF032
:103F0000A7C09FF0A8C0A0F0A9C0A1F0120089C06E
:103F100092F08AC093F08BC094F08CC095F07D0E27
:103F2000966F976B986B996B7D0CD8909533943303
:103F30009333923312001F0E895DAC0E8A59DF0E47
:103F40008B591200D8908C338B338A33893312000B
:103F500089C0A6F08AC0A7F08BC0A8F08CC0A9F0D9
:103F600012001F0EA65DAC0EA759DF0EA859120055
:103F70002CEEC9F0DF5012002CEEC7F0DF5012001B
:103F8000A66BA76BA86BA96B120006D96B6F6A6B47
:103F9000DFD0635101E1C6D06A51EDD8DE2801E1DE
:103FA000C1D0FE0E646F65696A51E5D8DF50666F57
:103FB000676B64516627655167233D0E6625F66E73
:103FC000F70E6721AEEC5AF0F5506BC068F0696BE4
:103FD0006827000E6923E0D8685F000E695B69BF3F
:103FE000A1D0695105E1100E685D01E3B7D09AD008
:103FF000B5D0BAD8030EDF6E6B2BB6D8DF6A6A5124
:10400000C4EC18F0DFA003D0AFD8000EDB806A51FB
:10401000C4EC18F0DFA203D0A7D8000EDB826A51EF
:10402000C4EC18F0DFA403D09FD8000EDB8400019D
:104030006B2B8DD099D8050EDF6E6B2B95D8DF6A70
:104040006A51C4EC18F0DFA603D08ED8000EDB80D6
:104050006A51C4EC18F0DFA803D086D8000EDB82CA
:104060006A51C4EC18F0DFAA03D07ED8000EDB84BE
:104070007BD8DF500101D96FDAD776D8060EDF6E14
:104080006B2B2CEEC5F07FD86B2B04EC6DF0800A07
:10409000A00F05E304EC6DF0800A600F04E300015B
:1040A00063D8200E05D000015FD804EC6DF03F0B03
:1040B000DF6EBDD759D8070EDF6E6B2B55D8DF6A80
:1040C0006A51C4EC18F0DFAE03D04ED8000EDB808E
:1040D0006A51C4EC18F0DFACAAD746D8000EDB82D8
:1040E000A6D782EC1DF06A5146D84DD8A0D73CD84F
:1040F0000A0EDF6E6B2B38D8DF6A6A516CEC30F039
:10410000DFA003D031D8000EDB806A516CEC30F0B8
:10411000DFA203D029D8000EDB8226D8DF500101B0
:10412000D86F85D76A5127D8DF50020ADAE0010A32
:1041300001E15FD7070AD7E0010A01E17BD7030A53
:104140009CE0010AB7E00F0ACEE0020AD0E06A2B39
:104150002CEE7CF0DE506A5D01E21BD76251D96E15
:10416000DA6A6BC0DFFF12006B516025D96E000E5A
:104170006121DA6E1200030D7D0EF324D96E0C0E50
:10418000F420DA6E12006B516025E96E000E612199
:10419000EA6EDFCFEFFF12006251D96EDA6ADF50AC
:1041A00012000201B7A506D0800E0001A96F030E10
:1041B000A86F030CB7C2AAF0030E0001AA1705E00E
:1041C000800EA96F040EA86F040CA851A91104E178
:1041D000C8D8E7EC0BF006D0A8C09EF0A9C09FF0AD
:1041E000E7EC0BF00201AC050DE1010E0001626F7E
:1041F000220EF3EC68F0C3D8F3EC68F0AFD8F3EC20
:1042000068F010D0C9C262F0120EF3EC68F0CAC2B6
:1042100062F0130EF3EC68F0B2D8F3EC68F09ED8BD
:10422000F3EC68F00201B783E70EB7170001A8515D
:10423000A91105E182D8050E46EC38F02BD0020119
:10424000AC0509E1010E0001656F000E666F060EF8
:1042500046EC38F01FD0000E8ED846EC38F0000146
:10426000A851AA6FA951AB6FAC6BAD6B0C0ED89077
:104270007DD8E82EFCD758D88DEC27F026EC4CF0F2
:104280001FEC09F00201BC51A7EC60F00201BC5127
:10429000DEEC50F05DD83AE0C15102E153D80BE3B7
:1042A00039D8BFEC37F026EC4CF00C0E6FEC09F06F
:1042B000E82EFCD713D0BEC2AAF0BFC2ABF0C0C27A
:1042C000ACF0C1C2ADF00C0ED89000014FD8E82E72
:1042D000FBD72AD88DEC27F026EC4CF060C0AEF06E
:1042E00061C0AFF062C0B0F063C0B1F0AEC06DF0BD
:1042F000AFC06EF0B0C06FF0B1C070F00201BD5140
:10430000A7EC60F00201BD51DEEC50F00001A86B9B
:10431000A96B1200BEC260F0BFC261F0C0C262F001
:10432000C1C263F000017D0CAAC060F0ABC061F0B7
:10433000ACC062F0ADC063F01200ACC265F0000E1C
:10434000666F000CBE29FF0EBF590F0EC059120038
:104350000201BE51BF11C011C11112000001626BF8
:10436000410C000E9F6F040E9E6F040CAA37AB37F2
:10437000AC37AD3712000001656F666F050C0001A8
:10438000626B400C9E96C6AEC7D0C69E0101D56B2F
:1043900094EC61F0DECF04F0DDCF05F004C0D9FF6E
:1043A00005C0DAFF010EDF6EC36BC46B120036B2BC
:1043B000120034C0C3F135C0C4F134C0D9FF35C0D8
:1043C000DAFFDF50D46F20EE01F03450D92635509B
:1043D000DA22DECFC5F1DDCFC6F1050E3426000EA0
:1043E0003522EA0E341807E1020E351804E1E50E15
:1043F000346E020E356E36903250341804E133506C
:10440000351801E13682C580020ED56F020CC5ACAD
:1044100004D014D0040E80EF61F0D890DE31056E28
:10442000DD31046E0450C96EDDA103D00B0ED56FD3
:104430000B0C030ED56F030CC5AC02D0382AEAD79B
:10444000C582DE51060B046E056AF00E0410DD6FA6
:104450000550DE6FDD81010ED26FD6D7D20514E094
:10446000C5C1D9FFC6C1DAFFDECFDDF1DDCFDEF198
:1044700020EE03F06CD8DECF92F2DDCF93F220EE87
:1044800002F065D8DF50D36FDDC1C9FFDDA1D1D700
:10449000050ED56F050CC5AC05D0382AC59C050E98
:1044A00080EF61F0D307D32907E199EC69F0D42FAD
:1044B00001D02BD0C582A8D74FD8DF50C96E0201DA
:1044C000924B932B1200C5AC06D0382A040E80EC18
:1044D00061F0C59C1200C586080ED56F080C080E49
:1044E000D56FC586080C38D8C9CFDFFF0201924BC3
:1044F000932B0101D30704E0C59A060ED56F03D0B4
:10450000C58A90EC69F0C5881200000E80EF61F05A
:10451000382A060E80EF61F00101D55101E147D73D
:10452000010AC8E0030A9AE0010AB5E0070AEDE0D3
:10453000010AC9E0030AD3E0010AE7E00F0AD3E069
:10454000020A01E164D7010A01E176D7E1D7C5513A
:10455000D926C651DA22120092C2D9FF93C2DAFFDD
:104560001200AC6BA7C0ADF0A8C0AEF0C6D0E5ECB1
:1045700018F0C4EC18F0DF90E5EC18F0C4EC18F07B
:10458000DF92E5EC18F0C4EC18F0CCEC18F0C4ECB9
:1045900018F0D1EC18F0C4EC18F0D6EC18F0C4EC1C
:1045A00018F0DBEC18F0C4EC18F0E0EC18F0C4ECF8
:1045B00018F0DF9EE5EC18F06CEC30F0DF90E5ECE5
:1045C00018F06CEC30F0DF92B2D80CEE7CF0EF50CB
:1045D000030D7D0EF324E96E0C0EF420EA6EDFCF9E
:1045E000EFFF6CD0ADC060F0AEC061F034EC65F0B0
:1045F00060C0ADF061C0AEF0E5EC18F0BBEC20F0AF
:10460000DF6871D0ADC06EF0AEC06FF0A951A725C4
:10461000706F000EA821716FBAEC17F06EC0ADF08C
:104620006FC0AEF060D0ADC060F0AEC061F0ADEC78
:1046300057F060C0ADF061C0AEF055D0ADC09EF097
:10464000AEC09FF0F7EC2DF09EC0ADF09FC0AEF075
:104650004AD0ADC060F0AEC061F05DEC6CF060C0FF
:10466000ADF061C0AEF03FD0ADC09EF0AEC09FF0E7
:10467000ACEC27F09EC0ADF09FC0AEF034D0ADC022
:104680006BF0AEC06CF097EC64F06BC0ADF06CC03A
:10469000AEF029D0ADC09EF0AEC09FF000EC30F07F
:1046A0009EC0ADF09FC0AEF01ED0010EAC6FA95100
:1046B000A725AD6F000EA821AE6F9ED738D8AD4BA1
:1046C000AE2BDF50020A8EE0010A9CE0070AABE045
:1046D000010AB4E0030ABDE0010AC6E00F0ACFE018
:1046E000020AD8E0E2D7E5EC18F0BBEC20F0DE28B7
:1046F00004E022D8DF6001D014D80001A951A72519
:10470000AA6F000EA821AB6FAA51AD5DAB51AE5997
:1047100003E2AC5101E12BD7ADC0A7F0AEC0A8F0C9
:1047200012007CCCE8FF010FE8CF7CFC1200ADC08A
:10473000D9FFAEC0DAFF12002CEE7CF0100C0201A3
:10474000B7A506D0800E0001A96F030EA86F030C59
:10475000B7C2ABF0030E0001AB1705E0800EA96FE6
:10476000040EA86F040C0201AC5109E1400E0001D7
:10477000AA6505D0800EA96F020EA86F020C020177
:10478000BB5189EC6BF0B1EC21F0E7EC0BF00201CE
:10479000AC051EE1AAC062F0220EF3EC68F00A0E2E
:1047A00072EC67F0B76FF00EB717B787B7C062F05B
:1047B0000A0EF3EC68F0400E0001626FF3EC68F053
:1047C000AEEC21F0F3EC68F08FD846EC38F008D06E
:1047D000BFEC21F0F3EC68F0AEEC21F0F3EC68F004
:1047E0000201AC5105E1AAC062F0000EF3EC68F0E2
:1047F0002DEC6DF0800E7BEC6CF00001B86B0BD0F3
:10480000B851A825D96E000EA921DA6EDF507BECD5
:104810006CF00001B82BAA51B85DF2E32BEC6DF0FF
:104820000201B781E70EB7172EEC65F0030E46ECD8
:1048300038F000016D6B6E6B0A0E6F6F706B0201CA
:10484000BB51A7EC60F00201BB51DEEC50F0A8ECCC
:1048500021F046E0C15103E1A2EC21F00CE38AEC27
:1048600021F0BFEC37F026EC4CF00C0E6FEC09F0A9
:10487000E82EFCD71DD0BEC2ABF0BFC2ACF0C0C2A8
:10488000ADF0C1C2AEF00C0ED8900001AB37AC3722
:10489000AD37AE37E82EF8D7ABC060F0ACC061F0F2
:1048A000ADC062F0AEC063F08DEC27F026EC4CF0AA
:1048B00060C0B3F061C0B4F062C0B5F063C0B6F0E0
:1048C000B3C06DF0B4C06EF0B5C06FF0B6C070F09C
:1048D0000201BD51A7EC60F00201BD51DEEC50F0C9
:1048E0000001A86BA96B1200ACC265F0010E0001BB
:1048F000666F010CEFC0D9FFF0C0DAFFDECFF3F036
:10490000DDCFF4F0000120EE02F0C7D8DECFF6F0E4
:10491000DDCFF7F0010EF56FF969F3C0C5F0F4C013
:10492000C6F0ACEC3AF0F86FF6C0AEF0F7C0AFF0FE
:10493000010EB06F0CEC3BF0D5EC4CF0000908E038
:10494000F6C066F0F7C067F0BAEC41F06651F96F57
:10495000F8AFF9BF92D0F56B6CD0F95102E18990B4
:104960008CD089808AD0F95102E1899286D08982DF
:1049700084D0F95102E1899480D089847ED0F951A4
:1049800002E189967AD0898678D0F95102E1899836
:1049900074D0898872D0F95102E1899A6ED0898ADF
:1049A0006CD0F95102E18D9068D08D8066D0F951BC
:1049B00002E18D9262D08D8260D0F95102E18C9437
:1049C0005CD08C845AD0F95102E18D9456D08D84FC
:1049D00054D0F95102E18B9A50D08B8A4ED0F951C4
:1049E00002E18C9A4AD08C8A48D0F95102E18C9E1F
:1049F00044D08C8E42D0F95102E18C9C3ED08C8CFC
:104A00003CD0F95102E1899E38D0898E36D0F951D7
:104A100002E1899C32D0898C30D0F95102E18A9C24
:104A20002CD08A8C2AD0F95102E18A9E26D08A8E17
:104A300024D0F85192E0010A96E0030A9AE0010AB4
:104A40009EE0070AA2E0010AA6E0030AAAE0010A22
:104A5000AEE00F0AB2E0010AB6E0030ABAE0010ACA
:104A6000BEE0070AC2E0010AC6E0030ACAE0010A82
:104A7000CEE01F0AD2E0010AD6E0F551CFEC26F0D5
:104A8000DECFF1F0DDCFF2F020EE06F006D8F1C077
:104A9000DEFFF2C0DEFFDD6A1200EF51D926F051D1
:104AA000DA2212007BC094F27CC095F27DC096F2AF
:104AB0007EC097F2A80E0201986F610E996F9A6BF3
:104AC0009B6B500E9C6FC30E9D6F9E6B9F6B010E78
:104AD000AC6F070EAE6F010EAF6FB56FB66BA16B0B
:104AE000080EA06F0C0EAD6F010EB06FB16BB46B02
:104AF000C10EA36F940EA46FC10EA56F030EAB6F12
:104B0000340EA26FB76BB86B79C0B9F27AC0BAF243
:104B1000B26BB36B800EC66FC76F980EBE6F3A0E46
:104B2000BF6FC06BC16B020EC86F0B0EC96F120E48
:104B3000CA6FC36BC46BC25123E17EEC5EF002010D
:104B4000BB6F7EEC5EF00201BC6F7EEC5EF002019A
:104B5000BD6F6E0E0001606FC40E616F626B02016B
:104B6000BC518CEC65F05E0E606FC20E616F626BC3
:104B70000201BD518CEC65F0010E0201C26F0BD039
:104B8000BB5189EC6BF00201BC5189EC6BF0020166
:104B9000BD5189EC6BF036EC63F0000E0001656FDF
:104BA000010E666F46EC38F041D8C5EC35F0420E88
:104BB000F3EC0DF0F3EC68F03B0E72EC67F07F6FF6
:104BC0007FBBFAD7230E626F0C0EF3EC68F01E0E5B
:104BD0000001626F0D0EF3EC68F0AA0E0001626F27
:104BE0001F0EF3EC68F08F0E0001626F350EF3ECD0
:104BF00068F000016269320EF3EC68F0400E0001CB
:104C0000626F310EF3EC68F0010E0001656F666FA4
:104C1000000E46EC38F000016269230EF3EC68F0F8
:104C2000420E72EC67F00201C56F120094C26DF083
:104C300095C26EF096C26FF097C270F01200EFC08E
:104C4000D9FFF0C0DAFFDECFF3F0DDCFF4F0010ED4
:104C50000001F56FF769F3C0C5F0F4C0C6F0ACEC25
:104C60003AF0F66FF6BF80D05AD0000E80B0010E39
:104C7000F76F79D0000E80B2010EF76F74D0000E7E
:104C800080B4010EF76F6FD0000E80B6010EF76F83
:104C90006AD0000E80B8010EF76F65D0000E80BAA2
:104CA000010EF76F60D0000E84B0010EF76F5BD07D
:104CB000000E84B2010EF76F56D0000E83B4010EC1
:104CC000F76F51D0000E84B4010EF76F4CD0000E78
:104CD00082BA010EF76F47D0000E83BA010EF76F4C
:104CE00042D0000E83BE010EF76F3DD0000E83BC94
:104CF000010EF76F38D0000E80BE010EF76F33D073
:104D0000000E80BC010EF76F2ED0000E81BC010E8C
:104D1000F76F29D0000E81BE010EF76F24D0F65137
:104D2000A4E0010AA7E0030AAAE0010AADE0070A2D
:104D3000B0E0010AB3E0030AB6E0010AB9E00F0AE5
:104D4000BCE0010ABFE0030AC2E0010AC5E0070AAD
:104D5000C8E0010ACBE0030ACEE0010AD1E01F0A55
:104D6000D4E0010AD7E0F56BF55109E0F55117D809
:104D7000DECFF1F0DDCFF2F01FD8DD6A120017D8D8
:104D8000F751A76FA86BA7BFA80721D843EC43F042
:104D9000810EF16F060EF26F0FD844EF3DF0020D59
:104DA000520EF324D96E020EF420DA6E1200810E38
:104DB000A56F060EA66F120020EE06F0EF51D92661
:104DC000F051DA22F1C0DEFFF2C0DEFF1200AA6B62
:104DD0000A0EA96F0A0C826B836B896B846B795105
:104DE00011E17629FF0E77590F0E78590BE29BD807
:104DF00094D826EC4CF01FEC09F00101EA51A7EC25
:104E000060F088D076C07EF077C07FF078C080F008
:104E100079C081F017D0D8907933783377337633EF
:104E200089C07AF0010E7B6F7C6B7A2B03D0D8900F
:104E30007B377C377A2FFBD700017B5182137C5163
:104E40008313892B7951E7E1100E785DE4E26BD88A
:104E500064D826EC4CF060C085F061C086F062C07A
:104E600087F063C088F0060E896515D08951200847
:104E700085C07AF086C07BF087C07CF088C07DF06A
:104E8000E82A05D0D8907D337C337B337A33E82E03
:104E9000F9D77A51846F84C060F00101EA5192EC35
:104EA0006BF0892905D0D8908537863787378837C2
:104EB000E82EF9D7000182517E157A6F83517F1554
:104EC0007B6F7C6B7D6B0C0ED8907A377B377C3791
:104ED0007D37E82EF9D77AC060F07BC061F07CC0E6
:104EE00062F07DC063F019D826EC4CF06051852744
:104EF00061518623625187236351882385C06DF0F9
:104F000086C06EF087C06FF088C070F00101EA5172
:104F1000A7EC60F0020E53EF6BF07D0E646F656BD3
:104F2000666B676B7D0C76C07AF077C07BF078C0DB
:104F30007CF079C07DF00C0ED8907A377B377C37C7
:104F40007D37E82EF9D77AC060F07BC061F07CC075
:104F500062F07DC063F01200A7D8DF50A66F9E4BB1
:104F60009F2BA2D8FF0EDE14A26FFF0EDE14A36FDC
:104F7000FF0EDE14A46F000EDE14A56FA2C092F027
:104F8000A3C093F0A4C094F0A5C095F0640EC8EC43
:104F90000DF0BFEC5AF092C0A2F093C0A3F094C001
:104FA000A4F095C0A5F0030E9E27000E9F237CD889
:104FB000DF50A16F9E4B9F2B606BA651D5EC68F024
:104FC00000091DE1A2C060F0A3C061F0A4C062F0BE
:104FD000A5C063F057EC54F0000902E06AD805E17F
:104FE000E5EC18F0C4EC18F0DF8EA1519FEC62F0F4
:104FF000000905E1E5EC18F0C4EC18F0DF8CE5ECF5
:1050000018F0C4EC18F0DFAE40D0E5EC18F0C4ECBA
:1050100018F0DFAC3AD02CEEBFF0100EDF6018D0E5
:1050200048D811E037D85FEC67F0A1C060F0A65116
:1050300066EC3EF043D876EC65F0010E606FA65149
:10504000E1EC39F021D0656BA65165EC61F01CD024
:1050500030D815E01FD8100F5FEC67F0A1C060F0EA
:10506000A651100F66EC3EF029D8100F76EC65F0D3
:10507000010E606FA651100FE1EC39F005D0656BA1
:10508000A651100F65EC61F01FD89EC09EF09FC026
:105090009FF01200A2C060F0A3C061F0A4C062F053
:1050A000A5C063F0A65112009EC0D9FF9FC0DAFFD1
:1050B0001200A251A311A411A5111200010E616FDB
:1050C0002E0E606FA65112002BEED4F0DF86120078
:1050D000B2D89E4B9F2BAD5197EC67F0F9E2A96BCC
:1050E000AA6BAB6BAC6BA86B2D0EAD1906E1010E74
:1050F000A86FA1D89E4B9F2B03D02B0EAD19F9E0C2
:10510000300EAD191DE197D89E4B9F2BA251A311D4
:1051100004E0100EA219A3110DE1780EAD1903E001
:10512000580EAD1907E1A36B100EA26F84D89E4BE9
:105130009F2B06D0A251A31103E1A36B080EA26F0F
:10514000A251A31103E1A36B0A0EA26FAD5100ECB3
:1051500067F006E3AD516AEC6AF0C90FAD6F06D097
:10516000AD51B7EC68F031E3300EAD5FAD51A46FD7
:10517000A56BA251A45DA551800AA66FA351800A18
:10518000A65923E2A2C092F0A3C093F0000E93BFF1
:10519000FF0E946F956FA9C096F0AAC097F0ABC0B0
:1051A00098F0ACC099F0BFEC5AF0AD519225A96FC0
:1051B000000E9321AA6F000E9421AB6F000E952173
:1051C000AC6F39D89E4B9F2BC1D7A051A1110EE0D7
:1051D000FF0E9E25A46FFF0E9F21A56FA0C0D9FFD3
:1051E000A1C0DAFFA4C0DEFFA5C0DDFFA8511AE010
:1051F000A9C0A4F0AAC0A5F0ABC0A6F0ACC0A7F0AF
:10520000A41FA51FA61FA71FA42B000EA523A6231E
:10521000A723A4C09EF0A5C09FF0A6C0A0F0A7C081
:10522000A1F0000CA9C09EF0AAC09FF0ABC0A0F0F6
:10523000ACC0A1F012009EC0D9FF9FC0DAFFDF50C2
:10524000AD6F1200A26F210E0001A219D8A41200A6
:10525000030EA76FA86BA36BA46BA56BA66BA30E25
:10526000606F616BA851030D9EC0A0F09FC0A1F0BC
:10527000F350A027F450A1230D0EA025626F000E5D
:10528000A121636FDAEC50F0BAEC55F0A3C092F0B4
:10529000A4C093F0A5C094F0A6C095F0640EC8EC2D
:1052A0000DF0BFEC5AF092C0A3F093C0A4F094C0EC
:1052B000A5F095C0A6F0A351A411A511A61147E031
:1052C000A3C060F0A4C061F0A5C062F0A6C063F006
:1052D00057EC54F0000940E153D8F35045D8A3C02F
:1052E000DEFFA4C0DEFFA5C0DEFFA6C0DEFF48D8FB
:1052F000040EA027000EA123F35036D84ED840D874
:1053000046D832D8DF500F0B5009DF6E39D83FD85E
:105310002BD8F00EDF1634D80A0EA027000EA123DA
:10532000F35022D8E70EDE6E030EDD6E29D8110E83
:10533000A027000EA123F35017D8DF68010E656F78
:10534000A851A72565EC61F064EC28F005D0656BE9
:10535000A851A72565EC61F0A82B040EA8657BD7A2
:105360002BEED4F0DF86040CA027F450A123A75124
:10537000120DF350A025D96EF450A121DA6E12005F
:10538000A851120D930EA06F080EA16F1200090E06
:10539000A027000EA123F3501200DE6ADE6ADE6A47
:1053A000DD6A1200050EE126000EE2222BEED4F09B
:1053B000DFB027D02BEED4F0DFA423D0FF0EE36ABA
:1053C00009D0FF0EE350BBEC20F0020EDE1807E020
:1053D000FF0EE32A2CEE7CF0FF0E7CD8F2E32CEEDD
:1053E0007CF0FF0EE350DE180CE1E5EC18F0BBECAE
:1053F00020F0020EDF6E9CEC23F0DF6002D091EC17
:1054000023F02BEED4F0DFA434D05FD802E157D8DC
:105410000FE34CD87D0E0001BFEC37F026EC4CF0CA
:10542000C4EC37F00C0E94EC1EF0E82EFCD707D03D
:1054300023D8BFEC37F026EC4CF0C4EC37F0FB0E71
:1054400050C0E3FFFC0E51C0E3FFFD0E52C0E3FF6E
:10545000FE0E53C0E3FFE150FB0FD96EE250CDECDE
:1054600037F083EC2FF0A7EC60F083EC2FF0DEEC4C
:1054700050F0FA0ED9EF37F0B1CC50F0B2CC51F079
:10548000B3CC52F0B4CC53F00C0ED8905036513609
:1054900052365336E82EF9D750C060F051C061F053
:1054A00052C062F053C063F000017D0CB1CC60F0DB
:1054B000B2CC61F0B3CC62F0B4CC63F01200DE2861
:1054C000FF0EDE580F0EDE5812002CEEB1F0030E68
:1054D000DB501200E3CF48F0DE50485C1200E65289
:1054E0002BEED4F0DFB08BD0E3CBE8FF020A02E171
:1054F0001AEC6AF088D861E399EC5AF0536E0D0EFD
:105500005326FF0E53C0E3FF2CEEB9F0E350496E73
:105510004A6ADE50495CDE504A583DE3010E59ECC0
:1055200042F0000934E1E1EC4DF09FEC23F0E8ECAF
:105530004DF02DE13FEC16F00109DF6EBECCE8FF27
:10554000010FE8CFBEFC2CEEBEF0DFB04EEF62F0F4
:105550002CEEC4F0DF5002E14EEF62F02CEEBEF014
:10556000DF50496E4A6A2CEEBCF0DF50526E536A2F
:10557000522A000E53224950521805E14A5053183E
:1055800002E14EEF62F028EC44F04EEF62F0A9EC3D
:1055900052F04EEF62F065EC6BF00101BB51BC11B3
:1055A00002E14EEF62F044EC16F0040EC56F02D833
:1055B0004EEF62F00500FA6E1AD025D802E34EEFE6
:1055C00062F02BEED4F0DFB04EEF62F065EC6BF0E2
:1055D0000101BB51BC1102E14EEF62F0000E44EC40
:1055E00016F0C56B02D84EEF62F00500FA6E0101AD
:1055F000BB51FD6EBC51FE6EFF6AFA50120065ECA5
:105600006BF04EEF62F02CEEBEF00CEEBCF0DE5014
:10561000EE5C1200EFC0D9FFF0C0DAFFDECFF3F08E
:10562000DDCFF4F0010E0001F56FF3C0C5F0F4C05A
:10563000C6F0ACEC3AF0F66FF6BF5DD02B0EF62557
:10564000C6EC11F07BEC48F0F5A455D00001F56BE9
:1056500038D0000EE9EC61F02FD0010EE9EC61F0DA
:105660002BD0020EE9EC61F027D0030EE9EC61F0DB
:1056700023D0040EE9EC61F01FD0050EE9EC61F0D7
:105680001BD0060EE9EC61F017D0160EE9EC61F0C4
:1056900013D0070EE9EC61F00FD0110EE9EC61F0C8
:1056A0000BD0190EE9EC61F007D01B0EE9EC61F0AC
:1056B00003D01A0EE9EC61F065C0F7F066C0F8F0AF
:1056C0001AD0F651C6E0010AC8E0030ACAE0010A8E
:1056D000CCE0060ACEE0030AD0E0010AD2E00F0ACD
:1056E000D4E0010AD6E0030AD8E0010ADAE0070AAA
:1056F000DCE0010ADEE00001F5510AE0F551CFECF3
:1057000026F0DECFF1F0DDCFF2F013D8DD6A120023
:10571000D7EC26F0F7C0A7F0F8C0A8F0E7EC26F029
:1057200043EC43F0810EF16F060EF26F02D844EFA6
:105730003DF020EE06F0EF51D926F051DA22F1C00B
:10574000DEFFF2C0DEFF1200010E0001F36F89D808
:105750005ED81DEC62F0000949E06CD858D81DEC09
:1057600062F0000943E07DD8DECF9EF055D868ECAA
:1057700028F09E51F46F20EE02F06AD863EC37F007
:105780004BD868EC28F09E51F56F6BD8DECFF1F066
:1057900058D84AD82CEC5CF0020E6019611126E151
:1057A000F45108E163D85DD857D885EC48F06051D2
:1057B00061111CE13FD8DECFF1F043D835D82CEC95
:1057C0005CF0020E6019611111E1F55108E14ED84B
:1057D00031D842D885EC48F06051611107E1F5C03D
:1057E00062F0F451F3EC68F00001F36BF351F3EC69
:1057F00047F0DECFF1F0DDCFF2F020EE06F028D852
:10580000DA22F1C0DEFFF2C0DEFFDD6A1200DECF79
:1058100066F0DDCF67F01200DDCF9FF0A06BA16BCB
:10582000A36B100EA26F100C60516111D8A4200E52
:10583000626F120020EE02F0EF51D926F051DA2209
:105840001200DDCFF2F0F1C060F0F2C061F01200A2
:10585000EF51D926F0511200DECF62F0DDCF63F0B8
:105860001200EFC0D9FFF0C0DAFF1200410E606FE6
:10587000FF0E616F1200DCEC64F0E0EC6CF0360EB1
:105880000001646FC30E656F9EEC5BF0C8EC6CF0BA
:10589000F28EF28C010E0001616FB30E606FC5ECE9
:1058A00069F00401356F366B010E0001616FB40EB3
:1058B000606FC5EC69F00401346F34513627352927
:1058C00002E136292DE002EC0EF0AAC030F4ABC0A4
:1058D00031F404013051351903E1315136192CE00E
:1058E000000E73EC1CF053D87CEC51F04AD898ECC5
:1058F00063F052D871EC6CF00401376B386B37C42D
:1059000060F038C461F0000162695FEC5DF0040191
:10591000374B382BB50E375D010E38590DE2EFD7F6
:10592000000E73EC1CF033D87CEC51F02AD898ECC4
:1059300063F032D871EC6CF01ED8DCEC43F00BEC69
:105940001BF02CEC5CF060C032F461C033F446EC28
:105950001BF0D8A4200E686F32C469F033C46AF01B
:10596000FAEC4AF033EC5FF0B9EC62F09DEC3CF0FD
:1059700048EC51F0F7D7810E00016B6F060E6C6F8B
:105980001200200E00016B6F040E6C6F1200200ECF
:105990006F6F040E706F1200616B010E606F010C6F
:1059A000B46BB56BA2390F0BB36FAA51010DF35055
:1059B000AB27F450AC23010EB46F2FD057D8BEECF8
:1059C0003EF06DD839EC67F00001B56BB451AE6FA5
:1059D000AF6BAE3BAF3BF00EAF17AE510F0BAF133B
:1059E000F00EAE17A0C0B0F0A1C0B1F0AE51B0271C
:1059F000AF51B123B551B027000EB123F00EB02541
:105A0000D96EFF0EB121DA6EDF50B26F51D8B219E4
:105A10003DD80F0EB565DAD7B42BB451B35DCEE2E5
:105A20004FD8D8B40F0C22D8BEEC3EF038D839ECA1
:105A300067F00001B56B15D0B351100DA0C0AEF0EA
:105A4000A1C0AFF0F350AE27F450AF23B551AE254F
:105A5000D96E000EAF21DA6EDF50B06F29D8B019C1
:105A600015D82ED8AE51B55DE7E31200A4C06BF097
:105A7000A5C06CF0A6C06DF0A7C06EF0B4C06FF00A
:105A8000010E706FADC071F0A3511200ABC0D9FF11
:105A9000ACC0DAFFDF6EAB4BAC2BB52B1200CB0EDC
:105AA0008C6F020E8D6FA8C08EF0A9C08FF012000F
:105AB000CB0EB525D96EDA6A020EDA22DF5012005B
:105AC000A2C0AEF00F0EAE170F0C6051D96EDA6A9D
:105AD0000D0E60D8635186D80E0E5CD8D92A63515A
:105AE00081D80F0E57D8020ED92663517BD80C0EE1
:105AF00051D8030ED926635175D84550DF1A7F0E51
:105B000045640CD01B0E45C061F0626BD8906137C4
:105B100062376119646F6251656F05D0D890453462
:105B2000646F656B653764C045F06051D96EDA6AA1
:105B300053D8040E43D8D92A4FD8050E3FD8020EA9
:105B400044D8060E3BD8030E40D8070E37D8040EB3
:105B50003CD8080E33D8050E38D8090E2FD8060EBB
:105B600034D80A0E2BD8070E30D80B0E27D8080EC3
:105B70002CD80C0E23D8090E28D80D0E1FD80A0ECB
:105B800024D80E0E1BD80B0E20D80F0ED92661512B
:105B9000DF1A1200D926DF50616F626B2B0E612570
:105BA000F66EF60E6221F76EF86A000EF822080013
:105BB000F5CF63F06051D96EDA6A1200D9266151CF
:105BC000DF1A6051D96EDA6A1200D926DF50616F90
:105BD0006051D96EDA6A1200DF50616F6051D96E80
:105BE000DA6A1200DF1A6051D96EDA6A120080D8C0
:105BF000DF50A56F9E4B9F2B7BD8FF0EDE14A16F4D
:105C0000FF0EDE14A26FFF0EDE14A36F000EDE1473
:105C1000A46FA1C092F0A2C093F0A3C094F0A4C05E
:105C200095F0640EC8EC0DF0BFEC5AF092C0A1F0F4
:105C300093C0A2F094C0A3F095C0A4F0030E9E27D9
:105C4000000E9F23A1C060F0A2C061F0A3C062F06B
:105C5000A4C063F057EC54F0000905E1E5EC18F03E
:105C6000C4EC18F0DF86A5510F0BD3EC6AF00009E5
:105C700005E1E5EC18F0C4EC18F0DF88A539070B56
:105C8000BFEC6AF0000905E1E5EC18F0C4EC18F08F
:105C9000DF8AE5EC18F0C4EC18F0DFA821D0E5ECC1
:105CA00018F0C4EC18F0DFA61BD0E5EC18F0C4EC3B
:105CB00018F0DFAA15D0A539070BA06FA0C0D4FC3F
:105CC000A1C060F0A2C061F0A3C062F0A4C063F004
:105CD000A5510F0B646FABEC69F02BEED4F0DF8EA7
:105CE000010E0101DC6F9EC09EF09FC09FF0010C71
:105CF0009EC0D9FF9FC0DAFF1200010E0001F36FB2
:105D000072D87BD8F1C060F0F2C061F014EC2CF0D6
:105D10002CEC5CF060C0F9F061C0FAF064D86AEC79
:105D200050F0BAEC41F066C0F4F067C0F5F05BD813
:105D3000DECFF7F0DDCFF8F0FA5145E1040EF95D62
:105D400042E2F5BF05D0F5513EE1100EF45D3BE2B5
:105D5000F5AF05D0FD0EF45DFF0EF55934E348D8DC
:105D60002B0EDE180EE044D82D0EDE1805E1FA5198
:105D700008E1020EF95D05E23BD8DF50B7EC68F0B0
:105D800022E3010EF66F0BD0F651F725D96E000E07
:105D9000F821DA6EDF50B7EC68F009E3F62BF65124
:105DA000F16FF26BF951F15DFA51F259EDE3F651F1
:105DB000F919FA1103E0F905FA1105E1F451CCECF7
:105DC0006CF00001F36BF351F3EC47F016D820EEC2
:105DD00006F0EF51D926F051DA22F1C0DEFFF2C011
