:040000005FEF00F0BE
:10000800FACF2AF0FBCF2BF0E1CF2CF0E2CF2DF086
:10001800D9CF2EF0DACF2FF0F3CF30F0F4CF31F084
:100028001DEEA8F0F2BC9DA005D09EA003D078ECF0
:100038006AF030D0F2BC9DAA05D09EAA03D0B8ECD5
:100048004FF028D0F2BC9DA805D09EA803D015EC8F
:1000580062F020D0F0B6F0A003D0C5EC6BF01AD057
:10006800F0B8F0A203D0C2EC6BF014D0F2B6F2A054
:1000780003D062EC6AF00ED0F2BC9DA605D09EA615
:1000880003D046EC20F006D0F2BCA0A603D0A1B65F
:10009800F4EC6BF031C0F4FF30C0F3FF2FC0DAFF8F
:1000A8002EC0D9FF2DC0E2FF2CC0E1FF2BC0FBFF03
:1000B8002AC0FAFF11001CEEDEF07CEF33F0BCEC36
:1000C8006BF02BEED4F0DFB0C6D316EC05F00101CF
:1000D8007C6F7C39E832070BE80601E0B7D02BEEDD
:1000E800EEF0DF5001E0B2D00001F1050101826FAE
:1000F8001DD00001F151EF250101666F000E0001CE
:10010800F0210101676F8251665D00018C6F01016A
:100118006751D8A067050001E6EC50F0E9EC65F0FE
:10012800100E826502D0825F01D0826B8251E1E1BC
:10013800130E0001D76F0C0ED86FEFC0D9F0F0C0C6
:10014800DAF0F151FC0FDB6F09EC55F0D7C085F1FF
:10015800D8C086F1D9C087F1DAC088F1EFEC04F095
:1001680007EC5DF0C5DB85517D1909E186517E19E3
:1001780006E187517F1903E1885180191DE0ACDB46
:10018800050A07E0A9DB030A0CE12CEED6F0DF50E4
:1001980008E02BEED3F0DFB803D046EC63F001D0D3
:1001A80096DBE3CBE8FF020AD8A41200C3EC14F0F4
:1001B8000909DF6E55EF50F08FDB030A04E100EC0C
:1001C80008F039EC6AF0EFC089F1F0C08AF101015A
:1001D80020EE07F01CEC05F0DECFEFFBDECFF0FBE6
:1001E800DECFF1FBDDCFF2FB20EE0CF01CEC05F0CE
:1001F800DF500F0B18EC59F029EC05F01CEC05F05A
:10020800DF38070B0001606F29EC05F01CEC05F0E6
:10021800DF500F0B8CEC66F089C19EF08AC19FF00D
:10022800F151A8EC27F089C1A0F08AC1A1F0BAEC7D
:1002380050F0E66A03EC36F0000EEBEC1BF0FDEC38
:100248001BF0E3CBE8FF020AB1E012007C39E83288
:10025800070B030A07E07C39E832070B050A02E0BE
:100268006BEF47F0000EE8CF7CFCEFC090F1F0C0D8
:1002780091F1E3CBE8FF020A01E011D12CEE33F053
:1002880000EE01F091DBEE1809E1DE50EE1806E110
:10029800DE50EE1803E1DE50EE18D8A400D12BEEA4
:1002A800D5F0DFA4FCD090C160F091C161F084EC7E
:1002B80053F0000901E17AD70101FDDAF5DB2BEEF5
:1002C800DFF0E3DB05E3E1CB8EF1E2CB8FF104D085
:1002D8002BEEE1F087DBCDDB1FDB010E716FB2EC9B
:1002E8003DF04EDBFEDA100E646F5FEC54F023DB5A
:1002F8005FEC54F0370EC86F0C0EC96FCC0E2ADBBA
:100308000FEC12F041DBEDDA040E646F5FEC54F091
:1003180062DB07EC5DF0ECDA7D5185190BE17E516B
:10032800861908E17F51871905E18051881901E094
:100338003DD701D03BD72BEEDFF000EE06F034DBE3
:10034800EE5CDE50EE581CE32BEEDFF04BDBB3DA4D
:1003580060DB2CEE73F0A3DB0DE2BB51BC1101E1B5
:1003680025D7C8EC14F0050EC56F01D81FD70500B6
:10037800FA6E8DD0A0DADECFDFFBDDCFE0FB2DD02B
:100388002CEE73F000EE06F09051E9269151EA2226
:10039800EECF68F1EDCF69F10BEEDFF0EECF6AF149
:1003A800EDCF6BF16A1D6C6F6B1D6D6F68516C271B
:1003B80069516D23DE506C5DDE506D590AE2000E06
:1003C800E8CFDFFBE8CFE0FB2BEEE1F0DE2ADD2211
:1003D80004D0BB51BC11C5E1E9D62BEEDFF0DE2815
:1003E80007E1DE2805E1DE2803E1DE2801E1F1D797
:1003F80073DA080A08E135EC1EF039EC6AF029DBFB
:1004080039EC6AF006D068DA030A03E122DB39EC3A
:100418006AF035DB57DA46DAF3DA03E1675169192E
:1004280020E000DB796F0001EF4BF02BF151F40F66
:1004380001018B6F190E816F65DADFCBA4F0E0CB79
:10044800A5F0E1CBA6F0E2CBA7F0470EA86F0C0E03
:100458008FDA010EAD6F56EC2BF0FF0EEF25EDDABB
:1004680001D02CDB2BEED4F0DF8231DABB51BC118A
:1004780001E19CD683C1C2F084C1C3F08BC1C4F032
:10048800010E0001C56F01D891D60500FA6E010171
:10049800BB51FD6EBC51FE6EFF6AFA5012002BEE86
:1004A800EFF000EE01F080DAEE1809E1DE50EE1808
:1004B80006E1DE50EE1803E1DE50EE1802E06BEFC5
:1004C80047F0F9D9F1DA2BEEDBF0DFDA05E3DDCB23
:1004D8008EF1DECB8FF104D02BEEDDF083DAC9DAB2
:1004E8001BDA716B010EB2EC3DF04ADAFAD9100E44
:1004F800646F5FEC54F01FDA5FEC54F0E7EC11F036
:1005080029DA0FEC12F040DAECD9040E646F5FECD4
:1005180054F061DA07EC5DF0EBD97D5185190CE1F7
:100528007E51861909E17F51871906E180518819A2
:1005380002E06BEF47F002D06BEF47F02BEEDBF0F9
:1005480000EE06F031DAEE5CDE50EE5826E32BEED4
:10055800DBF048DAB0D95DDA2CEE71F0A0DA1AE2F5
:10056800A0EC47F0B4D9BB51BC1111E09CEC47F0AA
:10057800C8EC14F0C56B01D80AD00500FA6E010169
:10058800BB51FD6EBC51FE6EFF6AFA501200A8EC1A
:1005980047F051D090D98DDA41D02CEE71F022DAA3
:1005A8006651686F6751696F6A6B6B6B2BEEDBF096
:1005B800DECF6CF1DDCF6DF17ED9DECF6EF1DDCF10
:1005C8006FF16C516E5D706F6D516F59716F726B19
:1005D800D8A072077251736FFF0E7025746FFF0EEB
:1005E8007121756F000E7221766F000E7321776F7F
:1005F8006851745D695175596A5176597751800A05
:10060800786F6B51800A785902E36BEF47F053D942
:1006180050DA2BEEDDF0DE2A000EDD22DC6BDB6B20
:10062800DA6B2BEEDBF0DE280AE1DE2808E1DE28B3
:1006380006E1DE2804E12BEED5F0DF8202D64CD9A4
:10064800030A03E106DA39EC6AF0010EE8CFBDFCD3
:1006580090C160F091C161F093EC57F0010122D98B
:100668001FE020D99025666F000E9121676F080E54
:100678006625D96E000E6721DA6EDF5012E0080E8B
:1006880090250001A76F000E010191210001A86FBC
:10069800010108D90001A96F35EC21F0FBD901D07F
:1006A800EED900010FD9FED8ABD903E1675169191A
:1006B80047E0B8D9796F0001EF4BF02B0101F2D870
:1006C800666F66510001F15DF40F01018B6FEAD886
:1006D800190F816F79510CE015D989D9FFEC11F008
:1006E80047D9AD6B56EC2BF0FF0EEF25A6D929D0D4
:1006F8000001E8D8D7D8686F696B0D0E6827000E1F
:1007080069236651685D6951800A6A6F6751800A7A
:100718006A5915E2F7D86BD9FBEC11F029D9AD6B02
:1007280056EC2BF00101BED80AE1EFC0A7F0F0C0EB
:10073800A8F08B050001A96F35EC21F0ABD90101B8
:10074800BDD942EC69F036D9E8CFD3FC2BEED1F015
:10075800DF982BEED4F0DF822BEED1F0DFA043D070
:1007680020EE05F09051D9269151DA22DFAA38D02F
:100778002BEED1F0DF90010E7B6FA9D8BB51BC11D5
:100788000CE006D901D809D00500FA6EBB51FD6E00
:10079800BC51FE6EFF6AFA5012002BEED4F0DF92C5
:1007A8002BEED3F0DFAA4BD02BEED1F0DFBA47D037
:1007B8002BEED1F0DFB204D02BEED1F0DFA63FD084
:1007C800FFD801EC3DF0000908E1000E4DD9A6EC78
:1007D80037F02BEED1F0DF9632D00DEC2EF02FD083
:1007E8004EEC51F02CD0010E7B6F71D8BB51BC116F
:1007F8000CE0CED801D809D00500FA6EBB51FD6EC9
:10080800BC51FE6EFF6AFA5012002BEED3F0DFAA3D
:1008180016D02BEED1F0DFBA12D02BEED1F0DFB22A
:1008280004D02BEED1F0DFA60AD0CAD801EC3DF0F7
:100838000009D3E1000E18D9A6EC37F0CAD7E3CBEC
:10084800E8FF020AD8A41200B9EC6BF00101666F48
:1008580066B11200ABD40101BB51BC11D8B412006F
:10086800B9EC6BF00101666F66B70ED0F6D8030ECF
:100878000001C56F0500FA6E0101BB51FD6EBC5148
:10088800FE6EFF6AFA501200E8D8020E0001C56F2A
:100898000500FA6E0101BB51FD6EBC51FE6EFF6A88
:1008A800FA50120020EE05F09051D9269151DA2223
:1008B800DF500F0B120020EE06F09051D92691510F
:1008C800DA221200F1510101666F676B12002BEEFC
:1008D800D3F0F00EDF16F00C2BEED3F0DF500F0B39
:1008E8001200616FCC0E626F020E636F656B1200AF
:1008F8006BC07DF16CC07EF16DC07FF16EC080F180
:1009080001011200EFC0A0F0F0C0A1F08B050001BA
:10091800A26F010EA36F010C8CC16BF08DC16CF03E
:100928008EC16DF08FC16EF00001F151FC0F6F6F39
:10093800490E706F490CC30E606F090E616FEFC0EE
:1009480062F0F0C063F0FC0EF125646F656BFF0E7A
:100958006523FF0CCA6F020ECB6FB30ECC6F090E66
:10096800CD6F0C0EF125CE6FCF6B000ECF23000C90
:10097800A96F81C1AAF0B30EAB6F090EAC6F12005C
:10098800B30E606F090E1200850E606F010E120023
:100998002BEED1F0DF9A83C1C2F084C1C3F08BC1C2
:1009A800C4F07BC1C5F012009051E9269151EA22AA
:1009B800DE501200000EE8CFB5FCE8CFB6FC000C04
:1009C800010E0001A76F7A0EA86F010EA96F2CEE19
:1009D800D2F0DF501200EFC06BF0F0C06CF0F1C045
:1009E8006DF01200DECF66F1DDCF67F11200DBCBD0
:1009F800A4F0DCCBA5F0DDCBA6F0DECBA7F012008F
:100A0800686F696B0C0E6827000E692366516819B8
:100A18001200DECF68F1DDCF69F16651685F67517A
:100A2800695B1200EFC0D9FFF0C0DAFFDF50120097
:100A38008951D9268A51DA2212000101836FFF0EEB
:100A48000001F0210101846F1200010120EE0BF07A
:100A580012002CEECAF0DF501200EFC0C2F0F0C056
:100A6800C3F0F1C0C4F01200E56FE66FE76FE86FFE
:100A7800120066298E6F000E67218F6F1200080E14
:100A88000001EF27000EF023000CDE508C5DDE50D5
:100A98008D591200A7C0EFF0A8C0F0F012006851FD
:100AA800DE5C6951DE581200DECF8CF1DDCF8DF1AE
:100AB8001200DECFDBFBDDCFDCFB12008B6B836B20
:100AC800846B12002BEED4F0DFB0D1D10001E76BBC
:100AD800E86BE96BEA6BEB6BF069F169F269F36952
:100AE800000EE8CFD6FCC3EC14F00209DF6EBFCCD1
:100AF800F8F02BEED1F0DFA469D02CEE6DF01FDA00
:100B08002BEEE8F0DCD9CBEC4AF010DA40EC1EF022
:100B18006EEC5FF02CEE6FF012DA2BEEEDF0CFD921
:100B2800CBEC4AF003DA68DA6EEC5FF040EC1EF0CA
:100B380083EC4FF061DA83EC4FF0F851120D47DA8D
:100B4800080E4AEC45F02CE02CEEDCF0DF500DE10D
:100B58002CEEC0F0F4D945DA2F0E54EC0CF064EC0E
:100B680059F01ADA64EC59F026D02CEEDCF00B0EB2
:100B7800DF600BD02CEEC0F0E2D933DAD60E966FD8
:100B88000B0E3EDA64EC59F0ECD72CEEC0F0D7D956
:100B980028DA530E966F760E33DA64EC59F0E1D703
:100BA800F851120D14DAD0D9CAD9D8D964EC59F051
:100BB800F3D964EC59F0F851B1D992C0DEFF93C073
:100BC800DEFF94C0DEFF95C0DEFF2BD02CEE69F06F
:100BD800B6D92BEEE8F073D9CBEC4AF0A7D935ECAF
:100BE8001EF06EEC5FF02CEE6BF0A9D92BEEEDF059
:100BF80066D9CBEC4AF09AD92DEC05F06EEC5FF093
:100C080035EC1EF083EC4FF02DEC05F083EC4FF043
:100C1800F851120DDCD998D992D9A0D964EC59F0C1
:100C2800A0D7E6D930EC69F0000961E0E1D939ECE8
:100C38006AF0DED94BEC61F089C0ECF08AC0EDF0C7
:100C48008BC0EEF08CC0EFF0EF5107E11F0EEC5DAA
:100C5800AC0EED59DF0EEE591DE3ECC0D6F0EDC039
:100C6800D7F0EEC0D8F0EFC0D9F00D0E05D0D8906F
:100C7800D933D833D733D633E82EF9D7D6C092F044
:100C8800D7C093F0D8C094F0D9C095F061D964EC7E
:100C980059F011D0ECC092F0EDC093F0EEC094F092
:100CA800EFC095F055D964EC59F00D0E02D019EC4F
:100CB8001EF0E82EFCD792C0DFF093C0E0F094C09D
:100CC800E1F095C0E2F0ADCCD6F0AECCD7F0AFCC29
:100CD800D8F0B0CCD9F0DF51D65DE86FE051D759E4
:100CE800E96FE151D859EA6FE251D959EB6FF86BC6
:100CF800F8512DEC1DF0A7EC3DF056E1F8510ED956
:100D08000DEC1DF051E02CEEBFF0F851DE1830E08C
:100D1800F85104D9DE50E85DDE50E959DE50EA5951
:100D2800DE50EB5921E2F851F9D8DECFD6F0DECF0C
:100D3800D7F0DECFD8F0DECFD9F0E851D65DDA6F44
:100D4800E951D759DB6FEA51D859DC6FEB51D959C2
:100D5800DD6FF851E3D8DAC0DEFFDBC0DEFFDCC0B0
:100D6800DEFFDDC0DEFF04D0F851D8D853EC28F000
:100D7800F851D4D8DE50F05DDE50F159DE50F2590A
:100D8800DE50F35911E3F851C9D80DEC1DF00CE011
:100D9800F851C4D8DECFF0F0DECFF1F0DECFF2F0BC
:100DA800DECFF3F0010EE76FF82B0F0EF865A0D732
:100DB800E70553E1F0C0ADFCF1C0AEFCF2C0AFFCFA
:100DC800F3C0B0FCF35106E1F029FF0EF1590F0E04
:100DD800F25911E3F0C060F0F1C061F0F2C062F0C6
:100DE800F3C063F013EC26F0CBEC4AF00C0EF3D80A
:100DF800E82EFDD71CD0F0C0D6F0F1C0D7F0F2C075
:100E0800D8F0F3C0D9F00C0ED890D637D737D837EA
:100E1800D937E82EF9D7D6C060F0D7C061F0D8C06E
:100E280062F0D9C063F013EC26F0CBEC4AF060C056
:100E3800E3F061C0E4F062C0E5F063C0E6F0E3C04F
:100E48006DF0E4C06EF0E5C06FF0E6C070F0D0D889
:100E58006EEC5FF0CDD883EC4FF0A4EC47F0D8A44B
:100E68001200C3EC14F00809DF6E55EF50F0B9EC2E
:100E78006BF00001D66FD6A911D0C6D8D8B412002D
:100E8800C8EC14F0020EC56F0500FA6E0101BB51E3
:100E9800FD6EBC51FE6EFF6AFA501200B5D8D8B488
:100EA8001200C8EC14F0030EC56F0500FA6E0101BC
:100EB800BB51FD6EBC51FE6EFF6AFA501200DF5046
:100EC800D86FD96B580ED825F66EF70ED921F76E64
:100ED800F86A000EF8220800F5CFDAF0D651DA25C4
:100EE800DB6F000EDABFFF0ED721DC6FDD6BDE6B28
:100EF8000C0ED890DB37DC37DD37DE37E82EF9D734
:100F0800DBC060F0DCC061F0DDC062F0DEC063F021
:100F18007D0E646F656B666B676B7D0C120D9F0EA3
:100F2800F324D96E080EF420DA6E120060C06DF05A
:100F380061C06EF062C06FF063C070F01200DECF67
:100F4800D6F0DDCFD7F01200080EF420DA6E1200CA
:100F58007D0E966F976B986B996B7D0CD651D86FF9
:100F6800D751D96FDA6BDB6BD829926F000ED92174
:100F7800936F000EDA21946F000EDB21956F2CEE33
:100F8800C0F0DECFDCF0DDCFDDF0DCC096F0DDC0F8
:100F980097F0986B996B1200FF0E9225F46FFF0E75
:100FA8009321F56FFF0E9421F66FFF0E9521F76FD1
:100FB800F4C092F0F5C093F0F6C094F0F7C095F045
:100FC800D4C096F0D5C097F0986B996B12009D0E1F
:100FD800F324D96E1200D8906037613762376337CF
:100FE8001200D6C092F0D7C093F0946B956B1200A4
:100FF8002CEECEF0DF5012002CEEC8F0DF501200BD
:10100800976F986B996B12000101BB51BC111200CC
:10101800806B816B796B7A6B010E0001616FB30E87
:10102800606F6269E8EC5CF0010E0001616FB40E5C
:10103800606F6269E8EC5CF06DEC6BF01EDA7927A2
:10104800000E7A230001616B606B7BC162F0E8ECF3
:101058005CF00101804B812B7C0E0001606F010E5A
:10106800616F7B0E626F010E636FBCEC64F001016F
:101078007B51F2D9E8EC5CF00101804B812B826B4B
:10108800030E826501D005D0B7D9E8EC5CF0F9D938
:10109800F7D790C27CF191C27DF17E6B7F6B7D5159
:1010A8007927E4D97DC162F0E8EC5CF00101804B5E
:1010B800812B7C517927DAD97CC162F0E8EC5CF0AD
:1010C8000101804B812B75EC6BF07B6F7B51C4D990
:1010D800E8EC5CF00101804B812BD6EC69F060C034
:1010E8007CF161C07DF162C07EF163C07FF1826BEB
:1010F800030E826501D005D07FD9E8EC5CF0C1D938
:10110800F7D7F1EC69F060C07CF161C07DF162C095
:101118007EF163C07FF1826B030E826501D005D03A
:101128006BD9E8EC5CF0ADD9F7D7660E00016B6FB0
:10113800010E6C6F82EC68F00101826B070E82650C
:1011480001D005D071D9E8EC5CF09BD9F7D7660ED1
:1011580000016B6F010E6C6F76EC67F00101826B1A
:10116800070E826501D005D05FD9E8EC5CF089D91B
:10117800F7D7660E00016B6F010E6C6F0FEC69F00C
:101188000101826B0F0E826501D005D04DD9E8ECC4
:101198005CF077D9F7D7660E00016B6F010E6C6FA4
:1011A800F9EC68F00101826B0F0E826501D005D061
:1011B8003BD9E8EC5CF065D9F7D7660E00016B6F98
:1011C800010E6C6F04EC69F00101826B0F0E8265F1
:1011D80001D005D029D9E8EC5CF053D9F7D7FAEC5F
:1011E80069F060C07CF161C07DF162C07EF163C0CE
:1011F8007FF1826B030E826501D005D0FDD8E8EC43
:101208005CF03FD9F7D7660E00016B6F010E6C6F6B
:101218003AEC67F00101826B0F0E826501D005D0B0
:1012280003D9E8EC5CF02DD9F7D7660E00016B6F97
:10123800010E6C6F2BEC67F00101826B0F0E82655B
:1012480001D005D0F1D8E8EC5CF01BD9F7D7E8EC71
:1012580069F060C07CF161C07DF162C07EF163C05D
:101268007FF1826B030E826501D005D0C5D8E8EC0A
:101278005CF007D9F7D703EC6BF07B6F7B51ECD8A8
:10128800E8EC5CF00101804B812B786B020E7865ED
:1012980001D01DD0785162EC65F0EFD8DDD8E8ECCC
:1012A8005CF00CD97BEC66F0E8D8D6D8E8EC5CF0BA
:1012B80005D901EC63F0F1D8030E826501D005D0A1
:1012C8009BD8E8EC5CF0DDD8F7D7782BDFD7786BC4
:1012D8001C0E786501D03AD07851030FD0EC67F036
:1012E80060C07CF161C07DF162C07EF163C07FF1B6
:1012F8000101826B030E826501D005D07DD8E8EC30
:101308005CF0BFD8F7D77851030F01EC63F0C5D86C
:10131800030E826501D005D06FD8E8EC5CF0B1D837
:10132800F7D77851030F7BEC66F0A7D895D8E8EC8F
:101338005CF0C4D8030F62EC65F09FD88DD8E8EC58
:101348005CF00101804B812B782BC2D771EC6BF0DC
:101358007B6F7B5181D8E8EC5CF00101804B812BDD
:101368000DEC6BF07B6F7B5177D8E8EC5CF00101FA
:10137800804B812B51EC6BF07B6F7B516DD8E8EC87
:101388005CF00101804B812BF9EC6AF060C076F1CA
:1013980061C077F1826B010E826501D00AD086D8D0
:1013A800792764D883D80001626FE8EC5CF069D8CB
:1013B800F2D7792904E17A2902E1796B7A6B80C145
:1013C80060F081C161F079C162F0E8EC5CF0010184
:1013D800804B812B80C160F081C161F07AC162F0DD
:1013E800E8EC5CF00101804B812B000120EE06F057
:1013F800EF51D926F0514AD07C0E8225D96EDA6A8F
:10140800010EDA22DF507927000E7A2380C160F0BE
:1014180081C161F07C0E8225D96EDA6A010EDA226A
:10142800DF500001626F1200660E8225D96EDA6AFB
:10143800010EDA22DF507927000E7A2380C160F08E
:1014480081C161F0660E8225D96EDA6A010EDA2250
:10145800DF500001626F12007927000E7A2380C1E5
:1014680060F081C161F07BC162F0000C000E7A234C
:1014780080C160F081C161F0000C01017B6F7B517C
:1014880012000101804B812B822B1200DA2200C24C
:10149800DEFF01C2DEFFDD6A120063C07CF164C0BA
:1014A8007DF101017E6B7F6B826B1200760E8225C7
:1014B800D96EDA6A010EDA22DF5012000101804B80
:1014C800812B7851120021EC20F0D7EC36F09CECFF
:1014D80024F056EC34F00201AF510CEC38F0020164
:1014E800AC0501E066D1A2C262F0390EA3EC67F048
:1014F800B6C2A0F0010E0001A0170201D890B535C0
:101508000001A16F0201AE39D7D91D0EA3EC67F017
:101518009FC0A0F0030E0001A017B0C2A1F0010EF9
:10152800A117D890A137D890A1370201AD39C4D9F5
:101538001E0EA3EC67F00201B251B3113DE0B2C236
:10154800A3F0B3C2A4F00001A56BA66B1FD09FD96E
:101558007D0E000197D964EC59F00DD098D9FA0E98
:10156800000190D964EC59F006D091D9F40E00012D
:1015780097D964EC59F092C0A3F093C0A4F094C03A
:10158800A5F095C0A6F00BD091D909D00201AE51B3
:10159800070ADDE00F0AE2E0010AE7E0F5D70201F9
:1015A800AD290001A06F05D0D890A633A533A43388
:1015B800A333A02FF9D701D079D9A3C062F0240EA4
:1015C800A3EC67F09EC062F01F0EA3EC67F0260E36
:1015D80022EC66F0A76F0C0E0201AD1906E1070EAA
:1015E800AE1909E0080EAE1906E00B0EAD1906E1BA
:1015F800070EAE1903E10001A78702D00001A797E3
:10160800A785A7C062F0260EA3EC67F0310E22EC86
:1016180066F0A76FF80EA717030EA71362D9A3ECFD
:1016280067F00A0E0001626F370EA3EC67F0120E26
:101638000201C51925E1070EAE1903E0080EAE191F
:1016480013E1310E22EC66F0A76FA79F4AD9A3ECED
:1016580067F0400E0001626F2F0EA3EC67F00001E7
:10166800626B300EA3EC67F0090E0201AE1908E1B7
:10167800310E22EC66F0A76FA78F33D9A3EC67F081
:10168800330E22EC66F0A76FA79DA781B4C2A0F025
:10169800010EA017060EA16FD890A037A12FFCD776
:1016A800A051A713A7C062F0330EA3EC67F0B4C231
:1016B800A0F0010E0001A017D890A037D890A0354F
:1016C800FF0A1D0BA76FA7C062F03B0EA3EC67F0E3
:1016D80000D9200EA3EC67F0A0C262F0210EA3ECA3
:1016E80067F005D9A3EC67F00001626B0E0EA3EC5E
:1016F80067F00001626B0F0EA3EC67F0120E020197
:10170800C51954E1090EAE191AE1800E945D130E45
:101718009559610E9659330E975911E39405F70EB2
:101728009559CB0E96593C0E975909E2020ECAD824
:10173800A3EC67F0640ED2D8A3EC67F022D0090EB0
:10174800AE191BE1800E945D1A0E9559700E9659CC
:10175800180E975912E3410E945DDD0E95594A0E05
:1017680096591F0E975909E2020EACD8A3EC67F000
:101778007F0EB4D8A3EC67F004D0030EA3D8A3EC73
:1017880067F0090E0201AE190AE1B40508E19DD817
:10179800A3EC67F0190EA8D8A3EC67F007D095D88A
:1017A800A3EC67F01D0EA0D8A3EC67F0A6D8A3EFB2
:1017B80067F098C26DF099C26EF09AC26FF09BC242
:1017C80070F09FEC52F09CC26DF09DC26EF09EC20C
:1017D8006FF09FC270F07FEC51F07BD8250EA3EC20
:1017E80067F0A0C262F0260EA3EC67F00A0E22ECA6
:1017F80066F0A76F9F0EA7170201C939E846E00BEC
:101808000001A713A7C062F00A0EA3EC67F0C80E88
:101818000001A76F0201B05102E00001A789A7C02B
:1018280062F0300EA3EC67F00001A26B0ED0A30E9D
:10183800A225D96EDA6A020EDA22DF50626FA2514F
:10184800280FA3EC67F00001A22B0201AB510001A5
:10185800A25DEDE30201AB5108E0AB051009000100
:10186800626F270EA3EC67F005D00001626B270EAC
:10187800A3EC67F0000162693E0EA3EC67F03AD86A
:10188800A3EF67F0966F976B986B996B1200A3C0E4
:1018980092F0A4C093F0A5C094F0A6C095F01200F1
:1018A800966F010E976F986B996B010C0001A36BF3
:1018B800A46BA56BA66B1200F00B0001A111A0117F
:1018C800626F12000001626F360C650E0001626FD4
:1018D8003A0C0201A1510001626F12000001626F0F
:1018E8003A0CA7C062F0310C0001626F3B0C00019A
:1018F800626B0D0C000162693F0C00016269120CF9
:101908000001CA6BCB6B616B606B75EC68F0000112
:10191800C56FCA4BCB2BC5C0C2F0C36BC551F7EC22
:101928001AF0E5D975EC68F0C9D9CC6BD0D975EC4B
:1019380068F0A1D9CC65FAD7C6C065F0C7C066F013
:10194800C8C067F0C9C068F0C5C069F018EC5BF0A2
:10195800CED975EC68F0B2D9C5C0BCF0BD6BBC512E
:10196800BD6FBC6BC4D975EC68F0A8D9C551BC274C
:10197800000EBD23BCC060F0BDC061F026EC6BF06A
:10198800BCC0C0F0BDC0C1F0B2D975EC68F096D942
:10199800C5513BEC5BF00001CC6B99D975EC68F054
:1019A8006AD9CC65FAD7C6C060F0C7C061F0C8C0B4
:1019B80062F0C9C063F01EEC6AF0CC6B88D975EC94
:1019C80068F059D9CC65FAD7C6C060F0C7C061F0D5
:1019D800C8C062F0C9C063F027EC6AF0CC6BCC5188
:1019E800AC0F7ED975EC68F0DF6E53D9CC65F7D7AC
:1019F800C0A105D0AC0E6B6F6C6B5EEC62F0CC6B6B
:101A0800CC51AC0F6DD975EC68F0DF6E42D9CC655E
:101A1800F7D7C0A305D0AC0E6B6F6C6BFBEC64F012
:101A2800CC6BCC51AC0F5CD975EC68F0DF6E000163
:101A380069D93CD9CC65F5D7C0A505D0AC0E6B6F7C
:101A48006C6BE6EC64F0CC6BCC51AC0F49D975ECFF
:101A580068F0DF6E000156D929D9CC65F5D7C0A941
:101A680005D0AC0E6B6F6C6B46EC62F0CC6BCC5156
:101A7800AC0F36D975EC68F0DF6E000143D916D982
:101A8800CC65F5D7C0AB05D0AC0E6B6F6C6BD1ECE9
:101A980064F032D91CD975EC68F0EDD8CC65FAD76A
:101AA800C0A70AD0C6C060F0C7C061F0C8C062F065
:101AB800C9C063F068EC68F0CC6BCC51AC0F10D99E
:101AC80075EC68F0DF6E00011DD9F0D8CC65F5D74C
:101AD800C0AF05D0AC0E6B6F6C6BEEEC66F0CC6BE8
:101AE800CC51AC0FFDD875EC68F0DF6E00010AD957
:101AF800DDD8CC65F5D7C1A105D0AC0E6B6F6C6B8A
:101B0800DEEC66F0F9D8E3D875EC68F0B4D8CC65AB
:101B1800FAD7C0AD0AD0C6C060F0C7C061F0C8C06F
:101B280062F0C9C063F0BEEC68F0E1D875EC68F00B
:101B3800C5D8C55128EC5CF00001C46B020EC46521
:101B480001D021D0D4D875EC68F0B8D8C551010EB1
:101B5800D8B4000E656FC45111EC60F0C8D875ECAC
:101B680068F0ACD8C5C066F0C451E3EC61F0C4D8E5
:101B7800AED875EC68F07FD8CC65FAD7C8D810EC29
:101B880064F0C42BDBD7C46B1C0EC46501D034D001
:101B9800B3D89DD875EC68F06ED8CC65FAD7C6C0B6
:101BA80065F0C7C066F0C8C067F0C9C068F0C45126
:101BB800030F80EC5BF0A0D88AD875EC68F05BD88E
:101BC800CC65FAD7A4D8030F10EC64F090D875EC64
:101BD80068F074D8C5C066F0C451030FE3EC61F037
:101BE80086D875EC68F06AD8C5C065F0C451030F93
:101BF80011EC60F0C42BC8D77AD875EC68F05ED8C1
:101C0800C55176EC62F073D875EC68F057D8C551B9
:101C180094EC67F06CD875EC68F050D8C551BBEC03
:101C28006AF00001BE6BBF6BCC6BCC51BE0F58D8AD
:101C380075EC68F0DF6E0001CA4BCB2BCC51BE0FA0
:101C4800D96EDA6ADF50C227000EC323CC2B010EEF
:101C5800CC65EBD7BEC060F0BFC061F08BEC63F021
:101C6800C22904E1C32902E1C26BC36BC2C0AAF056
:101C7800C3C0ABF01200DF6E0001CA4BCB2BCC51B6
:101C8800C60FD96EDA6ADF50C227000EC323CC2BE9
:101C9800030C0001CA4BCB2BCC51AC0FD96EDA6ABE
:101CA800DF50C227000EC323CC2B070CD96EDA6A8B
:101CB800DF50C227000EC323CC2B0F0C0001C56FC9
:101CC800CA4BCB2BC551C227000EC323000CCC51E5
:101CD800C60FD96EDA6ACAC060F0CBC061F01200D4
:101CE800D96EDA6ACAC060F0CBC061F01200CAC00F
:101CF80060F0CBC061F01200C66BC76BC86BC96BD4
:101D0800CC6B1200CA4BCB2BCC51AC0F1200C6C007
:101D180063F0C7C064F0C4511200EFC0D9FFF0C02F
:101D2800DAFFDECFF4F0DDCFF5F0000120EE02F0AF
:101D3800B0D9DECFF6F0DDCFF7F0010EF86FF96914
:101D4800F4C0C5F0F5C0C6F03DEC39F0F96FF9BF45
:101D58008BD1FA6B070EFA6501D086D1FA51020DC4
:101D6800340EF324D96E020EF420DA6EDECF60F062
:101D7800DDCF61F0F6C062F0F7C063F02AEC47F0FF
:101D88006051611101E06DD12D0EF9257DD920EC4E
:101D980047F0F5CFF1F0FAC0F2F0010EF36FF22B35
:101DA80002D0D890F337F22FFCD70001F351F11588
:101DB80001E157D1F86B26D10F013891929051D19A
:101DC8000F01389192804DD192800F01388149D10D
:101DD800FA51F2E0010AF4E0030AF6E012D00F012A
:101DE800389392923ED10F01389392823AD19282DF
:101DF8000F01388336D1FA51F2E0010AF4E0030A00
:101E0800F6E0010A2ED10F01389592942AD10F01DC
:101E18003895928426D192840F01388522D1FA51BF
:101E2800F2E0010AF4E0030AF6E0EBD70F01389775
:101E3800929617D10F013897928613D192860F0187
:101E480038870FD1FA51F2E0010AF4E0030AF6E00C
:101E5800D8D7929806D1928804D1FA51FAE0010AAB
:101E6800FAE0020AFED00F01389B929AFAD00F01CD
:101E7800389B928AF6D0928A0F01388BF2D0FA51A9
:101E8800F2E0010AF4E0030AF6E0BBD70F013C9147
:101E98009690E7D00F013C919680E3D096800F0191
:101EA8003C81DFD0FA51F2E0010AF4E0030AF6E0DF
:101EB800A8D70F013C939692D4D00F013C939682F9
:101EC800D0D096820F013C83CCD0FA51F2E0010ABF
:101ED800F4E0030AF6E095D70F013B959594C1D03D
:101EE8000F013B959584BDD095840F013B85B9D0F2
:101EF800FA51F2E0010AF4E0030AF6E082D70F0192
:101F08003C959694AED00F013C959684AAD09684C1
:101F18000F013C85A6D0FA51F2E0010AF4E0030A69
:101F2800F6E06FD70F013A9B949A9BD00F013A9B2A
:101F3800948A97D0948A0F013A8B93D0FA51F2E0A1
:101F4800010AF4E0030AF6E05CD70F013B9B959A7F
:101F580088D00F013B9B958A84D0958A0F013B8BD3
:101F680080D0FA51F2E0010AF4E0030AF6E049D71A
:101F78000F013B9F959E75D00F013B9F958E71D0A9
:101F8800958E0F013B8F6DD0FA51F2E0010AF4E013
:101F9800030AF6E036D70F013B9D959C62D00F01EE
:101FA8003B9D958C5ED0958C0F013B8D5AD0FA5194
:101FB800F2E0010AF4E0030AF6E023D7929E51D03A
:101FC800928E4FD0FA51FAE0010AFAE04AD7929C71
:101FD80048D0928C46D0FA51FAE0010AFAE041D78B
:101FE800939C3FD0938C3DD0FA51FAE0010AFAE075
:101FF80038D7939E36D0938E34D0FA51FAE0010A3E
:10200800FAE02FD7F95101E1E3D6010A01E1F3D64D
:10201800030A01E104D7010A01E114D7070A01E123
:102028001CD7010A01E12BD7030A01E13BD7010ABA
:1020380001E14BD70F0A01E15BD7010A01E16BD738
:10204800030A01E17BD7010A8CE0070A9DE0010A37
:10205800AEE0030AB7E0010ABEE01F0AC5E0010AC4
:10206800CCE00001FA2B76D6F85155EC25F0DECFFE
:10207800F1F0DDCFF2F020EE06F00BD8F1C0DEFF74
:10208800F2C0DEFFDD6A1200F66EF76AF70EF7227D
:102098001200EF51D926F051DA221200E06F100E2B
:1020A8000001E46FE26BE10E606F616B636B626B62
:1020B800656B010E646F10EC65F06ED965D910EC94
:1020C80065F0F7EC3DF0EAEC3DF010EC65F0E0056A
:1020D80006E1E1511F0B8009E16F95D904D0E15168
:1020E8001F0B4009E16FFC0EE117E30EE117C20E6A
:1020F80070D9E1C0DFFFE42B40D9FCEC3DF0E5EC02
:102108003DF05FEC54F0040EE427E36B2BEED3F0C4
:10211800DFAC3FD0E38F0FEC43F017E2E38D2BEEFB
:10212800D1F0DF882CEEB5F0DE2A000EDD222CEE91
:10213800B5F0DECFDCF0DDCFDDF02CEE77F0DF5050
:10214800DC19DD1106E163D9E39D2BEED1F0DF98B0
:1021580020D02CEEB5F00CEE77F0EF50DE6FDF6B91
:10216800DE50DE5DDE50DF59EFE2D3CCE8FF010F31
:10217800E8CFD3FC2CEE78F00CEED3F0DE50EE5C1A
:1021880008E345D9CDEC42F0000903E1DEEC04F0A8
:10219800DBD72BEED1F0DFA204D0E38B2BEED1F00E
:1021A800DF92E3992CEE7CF0DF5003E0DA51DB118B
:1021B80019E1F00EE3170101DC5103E000010FD92A
:1021C8001ED90101DB5108E00001E3510F0BDC6F60
:1021D800DC2BE351DC1913D90101DA5108E00001C5
:1021E800FED804D06BEC48F0DC6FE31908D9C20EB6
:1021F8000001EFD8E3C0DFFFE42BBFD8D70E626F32
:102208000B0E636F656B020E646F5FEC54F0020E89
:10221800E4272CEE7CF0DF500EE0DA51DB110BE006
:10222800C20E606F0A0E616FE40E626F010E636F7B
:1022380049EC1EF028D02CEE7CF0DF5024E101019F
:10224800DA5109E0C20E0001606F0A0E616FE40EF8
:10225800626F31EC61F00101DC5109E0C20E00014E
:10226800606F0A0E616FE40E626F17EC61F0010196
:10227800DB5109E0C20E0001606F0A0E616FE40EC7
:10228800626F76EC65F0C20E0001A3D8D7C0DFFFFD
:10229800E42BDA51DB1118E070D8D8C062F0D9C04D
:1022A80063F0DAC064F0DBC065F05FEC54F0D8C0CE
:1022B800A0F0D9C0A1F0DAC0A2F072D89CD87AD820
:1022C80056EC2BF0DA5119D02CEE7CF0DF5016E0EA
:1022D800B30E606F090E616FE20E626F636B49ECBB
:1022E8001EF0B30EA06F090EA16FE2C0A2F058D87D
:1022F8007ED860D856EC2BF0E251E427D7CB6BF0B0
:10230800D8CB6CF0D9CB6DF0DACB6EF0E451F00F8E
:102318006F6F490E706F000E716BB2EC3DF0C20E1C
:10232800606F0A0E75EC04F0100E646F5FEC54F0E9
:102338004AD8CA6F020ECB6FC20ECC6F0A0ECD6F91
:10234800E4C0CEF0CF6B0FEC12F017D82FEC55F09D
:10235800E5EC3DF05FEC54F0040EE427F00EDC6F82
:10236800DD69E451DE6FDF6BDC51DE27DD51DF23F1
:10237800DEC0B9FCDFC0BAFC1200C20EE425606FF3
:10238800616B0A0E61231200616F636B626B010E51
:10239800656F0F0E646F0F0CC20E606F0A0E12008D
:1023A800A36BD7CBA4F0D8CBA5F0D9CBA6F0DACBCA
:1023B800A7F01200A96FE4C0AAF0C20EAB6F0A0E14
:1023C800AC6FAD6B1200F30EC86F0B0EC96FCC0E5D
:1023D8001200E425D96EDA6A0A0EDA221200E351F5
:1023E8000F0BDC6F020EDC27E351DC191200F30E31
:1023F800A86F0B0E1200030EA86F0C0E1200F00B44
:10240800DC19E36F12002BEED1F0DF801200000E12
:10241800E8CFD3FC000C0101656B646B626B606BE9
:10242800616BC8C0A0F0C9C0A1F0100E0001A26F76
:10243800010EA36F000EA46F010EA56F4CEC31F0D6
:102448000F0ECE25D06F000ECF21D16F040ED26FA4
:10245800D890D133D033D22FFBD7D0510101636F3D
:10246800635104E1010E636F626B0AD0CEC0D0F0F5
:102478000F0E0001D017010ED8A4000E0101626FE3
:1024880062052DE1646B6351100DF350F00F656F19
:1024980018D0200E010164251CD9100E6425E96EA0
:1024A800EA6A010EF6D8010165510001CC25E96EF2
:1024B800000ECD21EA6EEF50D019DF6E0101642BBA
:1024C800652B6351C6D801016551FED8D25DD35141
:1024D800800AD46FD151800AD45940E2DAD70F0E5E
:1024E8000001CE15D06FD16BD9D8D25FD151D35B53
:1024F800CE51D2250101606F0001CF51D3210101D6
:10250800616F656BF0D865610CD065516025D96E37
:10251800000E6121DA6E300EC7D8EA22DFCFEFFF56
:1025280009D0E1D8651904E1ADD8800EDF6E02D07C
:10253800A9D8DF6A652B0F0E6565E4D7656B200E99
:102548006525C7D8000E6525E96EEA6A010EA1D88F
:10255800300E0101A9D88AD86565F1D7500E00015F
:10256800606F010E616FEAEC3DF010EC65F001015F
:10257800656B32D00101646B400E6425A0D86551AB
:1025880068D88CD8ABD864510001D225E96E000E0A
:10259800D321EA6EEF50D46F500E010164256ED836
:1025A800EA22EF500001D419DF6E0101642B0F0EEF
:1025B8006465E2D7500E0001606F010E616F400E36
:1025C800626F010E41D85FEC54F0500E8C6F010E13
:1025D80070D8E9EC65F0652B0001D069D16901017B
:1025E800635172D87BD865510001D46FD56BD25135
:1025F800D45DD551800AD66FD351800AD659BAE333
:102608000101656B400E65255AD8200E6525E96ED7
:10261800EA6A010E3ED8500E010165252FD826D84A
:102628006565F0D7400E00018C6F010E42D8E9ECC9
:1026380065F0CAC060F0CBC061F0400E0001626F67
:10264800010E02D85FEF54F0636F656B100E646F74
:10265800100C0001D06FD16BD03BD13BF00ED117DD
:10266800D0510F0BD113F00ED017F00CEA22EF5017
:102678000001D019DF6E0101652B0F0CE96EEA6AC3
:10268800010E1200300E6525D96EDA6A010EDA22C3
:102698001200EA22EF500001D06F1200CCC0D2F035
:1026A800CDC0D3F0D05112006525E96EEA6A010E5B
:1026B80012008D6FC8C08EF0C9C08FF01200D96E9D
:1026C800DA6A010EDA2212000001D26FD36BD05100
:1026D8001200D96EDA6A010EDA221200D227D1511D
:1026E800D323010112000001CE510F0B010112008A
:1026F8000001DA69DB69DC69DD692BEED4F0DFB053
:102708002DD170EC04F0030A2FE139D90409DF6EEA
:102718002BEED3F0DFA81200E3CBE8FF020AD8A41F
:1027280012002BEED1F0DFB0120039D9D8B0120068
:102738002CEEB9F0010EDB5004E10E0EDE5CD8A0E1
:1027480012003BEC69F008EC08F0D8B412001CD970
:10275800010EC56F0500FA6E0101BB51FD6EBC513B
:10276800FE6EFF6AFA5012002BEED1F0DFB446EF8E
:1027780063F02BEED3F0DFA8E8D02BEED1F0DFA08A
:1027880043D089EC29F02AE3FAD87AEC51F0DECF6D
:10279800D4F0DDCFD5F0D451D66FD551D76FD86BE3
:1027A800D96B0C0ED890D637D737D837D937E82E0B
:1027B800F9D7D6C060F0D7C061F0D8C062F0D9C0F0
:1027C80063F013EC26F0CBEC4AF09AEC07F0EED865
:1027D8006EEC5FF0EBD883EC4FF0B7D015EC6AF0F5
:1027E8000101BB51BC1101E1B0D0000ECDD8C56BC1
:1027F80001D8ABD00500FA6E0101BB51FD6EBC518A
:10280800FE6EFF6AFA501200CAD801E285D0B7D826
:102818000609DF6E010EFEEC40F0000913E186ECBC
:102828004CF023EC22F0A851A91105E1B2D8A7D8A1
:102838000109DF6E8AD03BEC69F00101BB51BC1184
:10284800D4E183D0DE6B3AD0DE512DEC1DF0A7EC3D
:102858003DF033E1DE5192EC07F00DEC1DF02DE078
:10286800DE5192EC07F0DE50DA5DDE50DB59DE50C7
:10287800DC59DE50DD5921E3DE519FEC3DF0DF509D
:102888000F0BD46F2CEEC4F0D451DE5C16E32CEEA3
:10289800C4F0DE517AEC2EF0EF380F0BD56FDE5016
:1028A800D55D0BE3DE5192EC07F0DECFDAF0DECF38
:1028B800DBF0DECFDCF0DECFDDF0DE2B2CEED2F06D
:1028C800DE51DE5CC1E2DAC0D4F0DBC0D5F0DCC09A
:1028D800D6F0DDC0D7F00C0ED890D437D537D63720
:1028E800D737E82EF9D7000ED425606F200ED521F2
:1028F800616F030ED621626F000ED721636F13EC50
:1029080026F0CBEC4AF09AEC07F054D86EEC5FF066
:1029180051D883EC4FF019D0E3CBE8FF020A15E059
:102928003BEC69F00101BB51BC110FE02DD8010E41
:10293800C56F01D80AD00500FA6E0101BB51FD6EC2
:10294800BC51FE6EFF6AFA501200A4EC47F0D8A4FE
:10295800120015D80909DF6E55EF50F008EC08F0A1
:10296800D8B4120011D8020EC56F0500FA6E010125
:10297800BB51FD6EBC51FE6EFF6AFA5012002BEE81
:10298800D3F0DF50F00B12000001C26BC36BC46BB5
:102998001200BDCCE8FF010FE8CFBDFC12002CEE01
:1029A800BDF00CEEBBF0DE50EE5C12002CEECDF06C
:1029B800DF5012002CEECFF0DF50120000017B6FC9
:1029C800796B7A6B080E7B192EE126EE7DF0DE50CE
:1029D800DE10D8B412001BD9380E7025D96E040E3B
:1029E8007121DA6EDF5014E17CC6E8FFFF0FE8CFF3
:1029F8007CF602D9DECF7FF6DDCF80F6FDD8DE6A21
:102A0800DD6A26EE7CF0DF5009D9DE6ADD6A05D082
:102A180026EE7FF0DE06000EDD5A26EE7DF0DE069D
:102A2800000EDD5A000C26EE7DF0250EDE5C020E4F
:102A3800DE5846E2200E7B1945E126EE7CF0060EB4
:102A4800DF603ED0E4D805D9000EDF6A26EE7DF0BF
:102A5800DE2ADD2226EE7FF006EE7CF0EF50020D36
:102A68005F0EF324E96E060EF420EA6EDECFEEFF69
:102A7800DDCFEDFF7069716926EE7FF0F1D826EEA3
:102A88007DF0DECF74F0DDCF75F07251745F735155
:102A9800755B705174277151752326EE7CF0DF50F9
:102AA800BDD874C0DEFF75C0DDFF7CC6E8FF010F2E
:102AB800E8CF7CF6000EE8CF7FF6E8CF80F677D037
:102AC800796975D0A4D8C5D87BC0DFFF26EE7DF024
:102AD800DE2A000EDD2226EE7FF0DE2ADD2283D8F4
:102AE800F5EC5AF026EE7DF06051DE5C6151DE585F
:102AF8002EE3010E7A6F77D8F5EC5AF060517C6FAF
:102B080022D085D8B2D87C51725F000E9AD8DF5097
:102B1800746F69D8F5EC5AF0E60E756FFF0E766F94
:102B280060517527615176237C51755F000E765B85
:102B380075C0F6FF76C0F7FFF86A0800F5507419FB
:102B480001E07A6B7C077C5102E07A51DAE17A5134
:102B58002EE05DD848D8F5EC5AF087D86051725FFE
:102B680061516FD8DF6A3FD8F5EC5AF026EE7FF056
:102B78005DD86051705F6151715B3ED870C0DEFFF7
:102B880071C0DDFF26EE7FF051D826EE7DF068D8C3
:102B98007051725F7151735B26EE7CF0DF503ED846
:102BA80072C0DEFF73C0DDFF010EE8CF7BF6792926
:102BB800D8A4120018EC63F050C260F051C261F062
:102BC80098EC19F0F5EC5AF060C077F061C078F035
:102BD80050C266F051C267F02ED877C069F078C04D
:102BE8006AF09FEF49F0E60E606FFF0E616F6011AB
:102BF800D8A4000E626F120026EE7CF0DF50020DA2
:102C08005F0EF324D96E060EF420DA6E120026EE5B
:102C18007DF0DECF70F0DDCF71F01200020D6D0E89
:102C2800F324D96E060EF420DA6E1200DECF70F0AF
:102C3800DDCF71F0120066516711D8A4000E686FDD
:102C48001200735B70517225D96E71517321DA6E5F
:102C58001200390E7025D96E040E7121DA6E120039
:102C6800DECF72F0DDCF73F01200390E726F040EF2
:102C7800736F1200010E756F7B6F766B776B6E0743
:102C8800D8A06F07F6D0050E6E25726F000E6F2163
:102C9800736F7051725D715173591BE220EE05F02C
:102CA8006E51D9266F51DA22030EDE1812E1752B08
:102CB800040E6E257C6F000E6F217D6F0AD9B2EC71
:102CC80068F0000901E07B6B050E6E27000E6F238C
:102CD800D0D006D9030EDE1801E0CBD06E4B6F2B97
:102CE800FFD8DF500F0B746FFBD8DF50726F72394B
:102CF8000F0B7A6F6E4B6F2BF3D8DECF78F0DDCFEA
:102D080079F0020E6E27000E6F236EC07CF06FC044
:102D18007DF06E4B6F2B2BEED3F0DFAC63D07B5185
:102D280012E0D7D8B2EC68F0000902E07B6B0BD058
:102D3800D0D8060A08E078C060F079C061F074EC79
:102D480063F00009F3E17A5183EC69F0000911E1BD
:102D5800080E7A610ED078C060F079C061F07AC050
:102D680062F0B7D8636F6BEC57F0000902E1010E0F
:102D7800776F7451ECEC67F0000902E1010E766F91
:102D8800760572E1770570E17B056EE178C06BF03E
:102D980079C06CF09ED86D6F25EC69F07451B5EC74
:102DA8006AF02BEED4F0DF8800017A51C1EC6AF0AA
:102DB8007CC0D9FF7DC0DAFF0001DF500F0B04E1B2
:102DC800000EE8CFBBFC0AD07CC0D9FF7DC0DAFF7B
:102DD800DF500F0B726F720772C0BBFC2BEED4F082
:102DE800DF8A42D07B6B40D070D84ED87BB102D0FE
:102DF800DF9001D0DF8069D847D8000177B102D0D1
:102E0800DF9201D0DF8261D83FD8000176B102D0CD
:102E1800DF9401D0DF8420EC22F0DF6025D00001B0
:102E2800755122E015EC22F050D82ED8DF904DD8FD
:102E38002BD8DF924AD828D82FD826D832D824D8E9
:102E480035D822D838D820D83BD81ED8DF9E3DD8D0
:102E5800F2EC2EF0DF9039D8F2EC2EF0DF9235D874
:102E68003FEC1FF0030EDF6E00017507752907E0C0
:102E7800BBD770516E5D71516F5901E204D76EC0B6
:102E88006EF06FC06FF01200030D7E0EF324D96E42
:102E98000C0EF420DA6E1200DF942CEE7CF0DF507A
:102EA8001200DF962CEE7CF0DF501200DF982CEE3B
:102EB8007CF0DF501200DF9A2CEE7CF0DF5012001D
:102EC800DF9C2CEE7CF0DF5012002CEE7CF0DF5003
:102ED80012007CC0D9FF7DC0DAFFDF38070B120073
:102EE8006EC0D9FF6FC0DAFF1200916B60C2A4F107
:102EF80061C2A5F1A451A511D8A4000EA66F946BC8
:102F080031D09451090DF35083258A6FF4508421F0
:102F18008B6F000E85218C6F8AC1F6FF8BC1F7FF7E
:102F28008CC1F8FF21EE95F0080E0AD9FEE295C192
:102F380060F096C161F0875112EC16F0DECF8AF18D
:102F4800DDCF8BF1390E8A250001626F040E010175
:102F58008B210001636F2AEC47F06051611105E095
:102F68000101942B8651945DCCE301018651945D57
:102F780001E3ACD097519811991101E09CD09A5176
:102F88009B1101E1A3D09D518A6F8B6B87517CC641
:102F98008CF18CC18DF18E6B8D5F000E8E5B8A512A
:102FA8008D1903E18B518E19D8A490D08729936F7E
:102FB800926B9D5112E0932B9305020D5F0EF32443
:102FC800D96E060E4AEC45F003E1010E926F05D06A
:102FD80026EE7CF09351DE5CEEE2925177E19E0E94
:102FE8000001606F010E2AEC63F0090E646F10ECAB
:102FF80065F0010187518A6F8B6B8A2B000E8B233A
:103008008B5114E1070E8A5D11E280D8610E8A2582
:10301800D96E060E8BD80AE079D86F0E8A25D96E3C
:10302800060E7BD89E6F040E8D219F6F87518A6F85
:103038008B6B020E80D814E1070E8A5D11E266D808
:10304800630E8A25D96E060E71D80AE05FD8710E14
:103058008A25D96E060E61D8A06F040E8D21A16F46
:1030680087518A6F8B6B030E66D814E1070E8A5D51
:1030780011E24CD8650E8A25D96E060E57D80AE09B
:1030880045D8730E8A25D96E060E47D8A26F040E4E
:103098008D21A36F9E0E0001EF6F010EF06F01D816
:1030A80015D00500FA6E01019A51FD6E9B51FE6E16
:1030B800FF6AFA501200010E916F88C1D9FF89C1C9
:1030C800DAFF94C1DFFFA46BA56BA66B0101A451C5
:1030D800A511A61118E0A4C160F0A5C161F0A6C1B0
:1030E80062F0F5EC5AF060C08FF161C090F1A4C1B4
:1030F80066F0A5C167F0A6C168F08FC169F090C1FC
:103108006AF09FEC49F001019151120087518A6FD2
:103118008B6BD8908A378B3712008B21DA6EDECF13
:103128008CF1DDCF8DF1390E8C2512008B21DA6EF2
:10313800DE50DE1012008A27000E8B238B511200FE
:103148000900F5CFDEFFE8061200D6D0C45154E0DE
:1031580023D91EC262F01FC263F02EEC62F0DBD8E6
:10316800F5EC5AF0F7D8AE6F060ED321AF6FC2C098
:10317800D9FFC3C0DAFFDF50B06FF6EC3CF052EC79
:103188005FF0C9D8F5EC5AF0E5D8F3D8D24BD32B79
:10319800C669C769C451C86FC96BC651C827C7512A
:1031A800C923120ECA6F020ECB6FD251CA5FD35118
:1031B800CB5BD890CB31CD6FCA31CC6FC851CC5DC9
:1031C800C951CD5903E2B6D8E1D806D0FF0EC425BF
:1031D800CE6FCF6BFF0ECF23C229B66F000EC3216F
:1031E800B76FBFD80BEC40F096D8F5EC5AF0ADD8D5
:1031F800C7D8D8A4200E0DD01AC260F01BC261F047
:1032080093D8F5EC5AF0A1D81AC266F01BC267F041
:103218006ED0686FD0C069F0D1C06AF09FEF49F0F6
:10322800C45125E0B9D81CC262F01DC263F02EEC6F
:1032380062F071D8F5EC5AF08DD89BD8D24BD32BCD
:1032480079D8C96FC631C86FC451C85D000EC95955
:1032580003E270D89BD803D0C4C0CEF0CF6BC2C0F5
:10326800B6F0C3C0B7F07DD80BEC40F0BDD718C29C
:1032780060F019C261F058D8F5EC5AF066D818C257
:1032880066F019C267F033D020C260F021C261F045
:103298004BD8F5EC5AF059D820C266F021C267F035
:1032A80026D022C260F023C261F03ED8F5EC5AF075
:1032B8004CD822C266F023C267F019D024C260F04D
:1032C80025C261F031D8F5EC5AF03FD824C266F037
:1032D80025C267F00CD026C260F027C261F024D85E
:1032E800F5EC5AF032D826C266F027C267F066516C
:1032F8006711D8A4000E8DD70001C551D2E0010A8C
:1033080001E124D7030AC0E0010A8AE0070AD6E0EF
:10331800010AE1E01200810E606F060E616F601114
:10332800D8A4200E626F120060516111D8A4000E5B
:10333800626F1200120EC66F020EC76FD251C65FBF
:10334800D351C75BD890C731120060C0D0F061C0BC
:10335800D1F0120060C0D2F061C0D3F0810ED22546
:103368001200810ED225B86F060ED321B96FCE5147
:103378001200D96E060ED321DA6E200EDF6E200CF5
:10338800810E666F060E676F66111200C86FC63130
:10339800CE6FC8C0CFF01200810E606F060E616F4D
:1033A80012008B6B68518B25D96EDA6A8B51710FBD
:1033B800E96EEA6ADFCFEFFF8B2B0F0E8B65F2D732
:1033C8000A0E0101D66F010E456E00018B6BC9D83C
:1033D800C1D805D98B65FBD700018B6BBBD8DF50F3
:1033E800696F6A6B2D0E6925F66EF60E6A21F76E07
:1033F800F86A000EF822AED80800F5CFDFFF8B2B55
:103408000F0E8B65EBD766C060F067C061F007EC04
:103418003AF00101D60501E185D000018B6B93D804
:103428006929D96EBFD86B6F95D8DF506B19896F32
:103438008AD8D1D8B7D8A6D88A6F8919876F83D880
:103448006929D96EAFD89ED8886F7F0E896508D054
:103458001B0E89C069F0B1D8816F6A51826F05D09F
:10346800D8908935816F826B823781C089F07F0E51
:10347800886508D01B0E88C069F09FD8836F6A5191
:10348800846F05D0D8908835836F846B843783C068
:1034980088F07F0E8A6508D01B0E8AC069F08DD827
:1034A800856F6A51866F05D0D8908A35856F866B8F
:1034B800863785C08AF04ED886D887198919DF6E75
:1034C80042D86929D96E54D86B2971D887198819B7
:1034D800DF6E39D8020E6925D96E4AD8020E6B25DF
:1034E80066D887198A19DF6E2ED875D841D8020E8A
:1034F8006B255DD86D6F8B5166256E6F000E672149
:103508006F6F6E29E96E000E6F21EA6EEF50706FD3
:103518005AD870196D198719DF6E040E8B270F0E94
:103528008B657DD7710E0001606FEBEC2BF08B6B18
:1035380018D810D854D88B65FBD70101D607D651B7
:1035480001E04AD712008B516625696F000E67218A
:103558006A6F12008B516625D96E000E6721DA6EEC
:1035680012008B51710FD96EDA6ADF50696F120041
:10357800000E6A21DA6E8B5166256B6F000E67218B
:103588006C6F12006B6F8B5166256C6F000E672194
:103598006D6F020E6C25D96E000E6D21DA6EDF504C
:1035A8006B191200000E6A21DA6EDF501200E96E04
:1035B800000E6C21EA6EEF5012006A6BD8906937E2
:1035C8006A37691912008B516625E96E000E67216A
:1035D800EA6EEF501200030E6925D96E1200695188
:1035E800DF1A8B2B0F0C0001A96FD5CCE8FF010A5D
:1035F80002E1DDEC53F0340EE8CFD9FC11D92BEC05
:103608006BF0000ED2D8FED8EBD8E8CFB9FCE8CFE3
:10361800BAFCEFD8DCD8E8CFB7FCE8CFB8FC010E8D
:10362800E8CFC0FC000EE8CFC1FCE8CFB5FCE8CF7E
:10363800B6FCE8CFD3FCE8CFD4FCD2D8E8CFDDFC89
:10364800E8CFDCFC2BEED4F0DF94AFD8E8CFD1FB89
:10365800E8CFD2FB070EE8CFBCFC000EE8CFBBFCDE
:10366800010EE8CFBEFCE8CFBDFCFF0EE8CFC5FCDD
:103678002CEE79F0A9C0DFFF000EE8CFE3FB100EB7
:10368800E8CFD2FC0001A9511DE1C30E82D8D7ECC6
:1036980023F0A9EC5EF0000EE8CFEDFB080EE8CFB2
:1036A800E9FBE60EE8CFEAFBD30EE8CFEBFB330EDF
:1036B800E8CFECFB83D86EEC5FF0A5EC5CF083EC14
:1036C8004FF01FD0C30E796F090E7A6F200E7B6FF3
:1036D800A20E7C6FD30E7D6F190E7E6FD7EC23F090
:1036E80011EC52F0000EE8CFEDFB280EE8CFE9FB15
:1036F800760EE8CFEAFBE80EE8CFEBFB190EE8CF31
:10370800ECFB010EE8CFC6FC000EE8CFC4FCA5EC2C
:1037180046F0000EE8CF7AFCE8CF7BFCEE0E606F37
:103728000B0E2AEC63F0690E646F10EC65F071D82B
:10373800D00EE8CF6BFC070EE8CF6CFC880EE8CF04
:103748006DFC130EE8CF6EFC700EE8CF6FFC170E01
:10375800E8CF70FCD00EE8CF75FC070EE8CF76FCFA
:10376800200EE8CF78FC400EE8CF77FC000EE8CFBB
:1037780071FC400EE8CF72FC000EE8CF73FC400EDF
:10378800E8CF74FC000EE8CFDAFC9F6B9E6B88EFE5
:103798002DF0796F090E7A6FA00E7B6F270E7C6F64
:1037A800BE0E7D6F330E7E6F330CE8CFD3FBE8CFB0
:1037B800D4FBE8CFD5FBE8CFD6FB12006D6B6E6B60
:1037C8001E0E6F6F706B2CEEDBF0DF501200E8CF2F
:1037D800D7FBE8CFD8FBE8CFD9FBE8CFDAFB12005C
:1037E800E8CFADFCE8CFAEFCE8CFAFFCE8CFB0FC4B
:1037F8001200E8CFDBFBE8CFDCFBE8CFDDFBE8CF4E
:10380800DEFB1200FF0EE8CFC2FC000EE8CFC3FCBF
:10381800000CE80EE8CF69FC030EE8CF6AFC030C45
:103828002CEED9F0DF5012000A0EE126000EE2223B
:103838005068516852685368FDD8FE0EE36AFE0E60
:10384800E35007D9A7EC3DF06AE1FE0EE35092EC95
:1038580007F0DFD864E0FE0EE35092EC07F00CEEC0
:10386800ADF0DE50EE5CDE50EE58DE50EE58DE5025
:10387800EE582DE2ADCC50F0AECC51F0AFCC52F0BA
:10388800B0CC53F0FE0EE35092EC07F0DECF4CF0D4
:10389800DECF4DF0DECF4EF0DECF4FF050504C5C17
:1038A800486E51504D58496E52504E584A6E5350BA
:1038B8004F584B6EFE0EE35092EC07F048C0DEFF07
:1038C80049C0DEFF4AC0DEFF4BC0DEFF06D0FE0E59
:1038D800E35092EC07F053EC28F0FE0EE35092EC24
:1038E80007F0FA0EF0EC28F0FB0EB8D8FC0EB6D8AC
:1038F800FD0EB4D814E3FE0EE35092EC07F089D81D
:103908000EE0FE0EE35092EC07F0DECF50F0DECF73
:1039180051F0DECF52F0DECF53F08CD8E32AFE0E02
:10392800E32AE3CF48F00F0E486489D7FF0EE3047B
:103938006DE1E150FA0F78D8DECFADFCDECFAEFCFA
:10394800DECFAFFCDDCFB0FCFD0EE3500DE1FA0E8B
:10395800E328FB0EE3CF48F0FF0E485AFC0EE3CFF6
:1039680048F00F0E485A18E3E150FA0F5DD8DECF41
:1039780060F0DECF61F0DECF62F0DECF63F07D0E67
:10398800000150EC36F0CBEC4AF055EC36F00C0E5A
:1039980045D8E82EFDD720D0FA0EE3CF50F0FB0E25
:1039A800E3CF51F0FC0EE3CF52F0FD0EE3CF53F01E
:1039B8000C0E34D8E82EFDD750C060F051C061F02D
:1039C80052C062F053C063F07D0E000150EC36F037
:1039D800CBEC4AF055EC36F0F60E50C0E3FFF70E8C
:1039E80051C0E3FFF80E52C0E3FFF90E53C0E3FFE6
:1039F800E150F60FD96EE2505EEC36F0FCEC07F0C1
:103A08006EEC5FF0FCEC07F083EC4FF0F50E6AEF1C
:103A180036F0DE50DE10DE10DE101200D890503680
:103A28005136523653361200D96EE250DA6EFF0E16
:103A3800DA22FF0CFA0E50C0E3FFFB0E51C0E3FF81
:103A4800FC0E52C0E3FFFD0E53C0E3FFFF0EE36A16
:103A58001200120D9B0EF324D96E1200E3CF48F02A
:103A6800DE5048581200A8D00001A669A769A869C5
:103A7800A969AED02BEED1F0DFA41FD0FDD84BEC56
:103A880061F08C5102E1D7D80CE3F6D84BEC61F029
:103A98000D0E01D0D7D8E82EFDD7B9D864EC59F06F
:103AA80075D0EAD84BEC61F0B2D864EC59F00D0E41
:103AB80001D0BBD8E82EFDD769D02BEED3F0DFA814
:103AC80087D0CFD84BEC61F08C5102E1B4D80CE32D
:103AD800C8D84BEC61F00D0E01D0B4D8E82EFDD754
:103AE80096D864EC59F052D0BCD84BEC61F08FD822
:103AF80064EC59F00D0E01D098D8E82EFDD746D0C9
:103B08002BEED1F0DFA405D000EC08F04BEC61F00F
:103B180008D02BEED3F0DFA805D02DEC05F04BEC48
:103B280061F096D80001A95102E19FD81EE3A6C012
:103B3800A2F0A7C0A3F0A8C0A4F0A9C0A5F00D0EDC
:103B480005D0D890A533A433A333A233E82EF9D7F0
:103B5800A2C092F0A3C093F0A4C094F0A5C095F0C1
:103B6800ACEC07F064EC59F011D0A6C092F0A7C0F5
:103B780093F0A8C094F0A9C095F0ACEC07F064EC01
:103B880059F00D0E01D051D8E82EFDD792C0A6F0FD
:103B980093C0A7F094C0A8F095C0A9F019D0DAECAA
:103BA80014F04BEC61F054D8A951C1E15ED8BFE2E2
:103BB800DCD7000165D80CD070EC04F001E154D7D3
:103BC800020A01E157D7060A9BE0020AE8E0F1D7AA
:103BD8000001A951A811A71103E1C80EA65D0AE3C7
:103BE800CE0EA627FF0EA723A823A9232BEED4F0D9
:103BF800DF8004D045D82BEED4F0DF90A6C09EF02D
:103C0800A7C09FF0A8C0A0F0A9C0A1F0120089C069
:103C180092F08AC093F08BC094F08CC095F07D0E22
:103C2800966F976B986B996B7D0CD89095339433FE
:103C38009333923312001F0E895DAC0E8A59DF0E42
:103C48008B591200D8908C338B338A338933120006
:103C580089C0A6F08AC0A7F08BC0A8F08CC0A9F0D4
:103C680012002CEEC9F0DF5012001F0EA65DAC0E3C
:103C7800A759DF0EA85912002CEEC7F0DF5012002A
:103C8800A66BA76BA86BA96B120006D96B6F6A6B42
:103C9800DFD0635101E1C6D06A51EDD8DE2801E1D9
:103CA800C1D0FE0E646F65696A51E5D8DF50666F52
:103CB800676B64516627655167233F0E6625F66E6C
:103CC800F70E672153EC59F0F5506BC068F0696B3B
:103CD8006827000E6923E0D8685F000E695B69BF3A
:103CE800A1D0695105E1100E685D01E3B7D09AD003
:103CF800B5D0BAD8030EDF6E6B2BB6D8DF6A6A511F
:103D080048EC17F0DFA003D0AFD8000EDB806A5173
:103D180048EC17F0DFA203D0A7D8000EDB826A5167
:103D280048EC17F0DFA403D09FD8000EDB84000115
:103D38006B2B8DD099D8050EDF6E6B2B95D8DF6A6B
:103D48006A5148EC17F0DFA603D08ED8000EDB804E
:103D58006A5148EC17F0DFA803D086D8000EDB8242
:103D68006A5148EC17F0DFAA03D07ED8000EDB8436
:103D78007BD8DF500101D96FDAD776D8060EDF6E0F
:103D88006B2B2CEEC5F07FD86B2BB6EC6BF0800A52
:103D9800A00F05E3B6EC6BF0800A600F04E30001A6
:103DA80063D8200E05D000015FD8B6EC6BF03F0B4E
:103DB800DF6EBDD759D8070EDF6E6B2B55D8DF6A7B
:103DC8006A5148EC17F0DFAE03D04ED8000EDB8006
:103DD8006A5148EC17F0DFACAAD746D8000EDB8250
:103DE800A6D706EC1CF06A5146D84DD8A0D73CD8C7
:103DF8000A0EDF6E6B2B38D8DF6A6A51F2EC2EF0B0
:103E0800DFA003D031D8000EDB806A51F2EC2EF02F
:103E1800DFA203D029D8000EDB8226D8DF500101AB
:103E2800D86F85D76A5127D8DF50020ADAE0010A2D
:103E380001E15FD7070AD7E0010A01E17BD7030A4E
:103E48009CE0010AB7E00F0ACEE0020AD0E06A2B34
:103E58002CEE7CF0DE506A5D01E21BD76251D96E10
:103E6800DA6A6BC0DFFF12006B516025D96E000E55
:103E78006121DA6E1200030D7D0EF324D96E0C0E4B
:103E8800F420DA6E12006B516025E96E000E612194
:103E9800EA6EDFCFEFFF12006251D96EDA6ADF50A7
:103EA80012000201B7A506D0800E0001A96F030E0B
:103EB800A86F030CB7C2AAF0030E0001AA1705E009
:103EC800800EA96F040EA86F040CA851A91104E173
:103ED800C5D867EC0AF006D0A8C09EF0A9C09FF02C
:103EE80067EC0AF00201AC050DE1010E0001626FFA
:103EF800220EA3EC67F0C3D8A3EC67F0BDD8A3ECFF
:103F080067F010D0CAC262F0120EA3EC67F0CBC201
:103F180062F0130EA3EC67F0B2D8A3EC67F0ACD84C
:103F2800A3EC67F00201B783E70EB7170001A851A9
:103F3800A91105E182D8050ED7EC36F02BD0020185
:103F4800AC0509E1010E0001656F000E666F060EF3
:103F5800D7EC36F01FD0000E8BD8D7EC36F0000126
:103F6800A851AA6FA951AB6FAC6BAD6B0C0ED89072
:103F78007AD8E82EFCD758D813EC26F0CBEC4AF0C8
:103F88009AEC07F00201BC516EEC5FF00201BC51E3
:103F980083EC4FF05DD83AE0C15102E153D80BE30E
:103FA80039D850EC36F0CBEC4AF00C0EEFEC07F0B9
:103FB800E82EFCD713D0BEC2AAF0BFC2ABF0C0C275
:103FC800ACF0C1C2ADF00C0ED89000014CD8E82E70
:103FD800FBD72AD813EC26F0CBEC4AF060C0AEF041
:103FE80061C0AFF062C0B0F063C0B1F0AEC06DF0B8
:103FF800AFC06EF0B0C06FF0B1C070F00201BD513B
:104008006EEC5FF00201BD5183EC4FF00001A86B2C
:10401800A96B1200BEC260F0BFC261F0C0C262F0FC
:10402800C1C263F000017D0CAAC060F0ABC061F0B2
:10403800ACC062F0ADC063F01200ACC265F0000E17
:10404800666F000CBE29FF0EBF590F0EC059120033
:104058000201BE51BF11C011C1111200000E9F6FA5
:10406800040E9E6F040CAA37AB37AC37AD3712007D
:104078000001656F666F050C0001626B410C000161
:10408800626B400C9E96C6AEC7D0C69E0101D56B2A
:1040980040EC60F0DECF04F0DDCF05F004C0D9FFBE
:1040A80005C0DAFF010EDF6EC36BC46B120036B2B7
:1040B800120034C0C3F135C0C4F134C0D9FF35C0D3
:1040C800DAFFDF50D46F20EE01F03450D926355096
:1040D800DA22DECFC5F1DDCFC6F1050E3426000E9B
:1040E8003522EB0E341807E1020E351804E1E60E0E
:1040F800346E020E356E36903250341804E1335067
:10410800351801E13682C580020ED56F020CC5ACA8
:1041180004D014D0040E2CEF60F0D890DE31056E78
:10412800DD31046E0450C96EDDA103D00B0ED56FCE
:104138000B0C030ED56F030CC5AC02D0382AEAD796
:10414800C582DE51060B046E056AF00E0410DD6FA1
:104158000550DE6FDD81010ED26FD6D7D20514E08F
:10416800C5C1D9FFC6C1DAFFDECFDDF1DDCFDEF193
:1041780020EE03F071D8DECF92F2DDCF93F220EE7D
:1041880002F06AD8DF50D36FDDC1C9FFDDA1D1D7F6
:10419800050ED56F050CC5AC05D0382AC59C050E93
:1041A8002CEF60F0D307D32907E149EC68F0D42F4E
:1041B80001D02BD0C582A8D74AD8DF50C96E0201DA
:1041C800924B932B1200C5AC06D0382A040E2CEC67
:1041D80060F0C59C1200C586080ED56F080C080E45
:1041E800D56FC586080C33D8C9CFDFFF0201924BC3
:1041F800932B0101D30704E0C59A060ED56F03D0AF
:10420800C58A40EC68F0C5881200000E2CEF60F0FB
:10421800382A060E2CEF60F00101D55101E147D78D
:10422800010AC8E0030A9AE0010AB5E0070AEDE0CE
:10423800010AC9E0030AD3E0010AE7E00F0AD3E064
:10424800020A01E164D7010A01E176D7E1D792C2F7
:10425800D9FF93C2DAFF1200C551D926C651DA2216
:104268001200AC6BA7C0ADF0A8C0AEF0C6D069EC28
:1042780017F048EC17F0DF9069EC17F048EC17F0EE
:10428800DF9269EC17F048EC17F050EC17F048ECA7
:1042980017F055EC17F048EC17F05AEC17F048EC0B
:1042A80017F05FEC17F048EC17F064EC17F048ECE7
:1042B80017F0DF9E69EC17F0F2EC2EF0DF9069EC56
:1042C80017F0F2EC2EF0DF92B2D80CEE7CF0EF5043
:1042D800030D7D0EF324E96E0C0EF420EA6EDFCF99
:1042E800EFFF6CD0ADC060F0AEC061F0E4EC63F0FD
:1042F80060C0ADF061C0AEF069EC17F03FEC1FF0A4
:10430800DF6871D0ADC06EF0AEC06FF0A951A725BF
:10431800706F000EA821716F3EEC16F06EC0ADF004
:104328006FC0AEF060D0ADC060F0AEC061F052ECCE
:1043380056F060C0ADF061C0AEF055D0ADC09EF093
:10434800AEC09FF07DEC2CF09EC0ADF09FC0AEF0EB
:104358004AD0ADC060F0AEC061F012EC6BF060C046
:10436800ADF061C0AEF03FD0ADC09EF0AEC09FF0E2
:1043780032EC26F09EC0ADF09FC0AEF034D0ADC098
:104388006BF0AEC06CF05DEC63F06BC0ADF06CC070
:10439800AEF029D0ADC09EF0AEC09FF086EC2EF0F6
:1043A8009EC0ADF09FC0AEF01ED0010EAC6FA951FB
:1043B800A725AD6F000EA821AE6F9ED738D8AD4B9C
:1043C800AE2BDF50020A8EE0010A9CE0070AABE040
:1043D800010AB4E0030ABDE0010AC6E00F0ACFE013
:1043E800020AD8E0E2D769EC17F03FEC1FF0DE28AC
:1043F80004E022D8DF6001D014D80001A951A72514
:10440800AA6F000EA821AB6FAA51AD5DAB51AE5992
:1044180003E2AC5101E12BD7ADC0A7F0AEC0A8F0C4
:1044280012007CCCE8FF010FE8CF7CFC1200ADC085
:10443800D9FFAEC0DAFF12002CEE7CF0100C02019E
:10444800B7A506D0800E0001A96F030EA86F030C54
:10445800B7C2ABF0030E0001AB1705E0800EA96FE1
:10446800040EA86F040C0201AC5109E1400E0001D2
:10447800AA6505D0800EA96F020EA86F020C020172
:10448800BB5139EC6AF032EC20F067EC0AF002011B
:10449800AC051EE1AAC062F0220EA3EC67F00A0E7A
:1044A80022EC66F0B76FF00EB717B787B7C062F0A7
:1044B8000A0EA3EC67F0400E0001626FA3EC67F0F0
:1044C80040EC20F0A3EC67F08FD8D7EC36F008D09A
:1044D80043EC20F0A3EC67F040EC20F0A3EC67F08D
:1044E8000201AC5105E1AAC062F0000EA3EC67F02E
:1044F800DFEC6BF0800E30EC6BF00001B86B0BD08A
:10450800B851A825D96E000EA921DA6EDF5030EC1B
:104518006BF00001B82BAA51B85DF2E3DDEC6BF04B
:104528000201B781E70EB717DEEC63F0030ED7EC94
:1045380036F000016D6B6E6B0A0E6F6F706B0201C7
:10454800BB516EEC5FF00201BB5183EC4FF02CECD9
:1045580020F046E0C15103E126EC20F00CE30EEC1C
:1045680020F050EC36F0CBEC4AF00C0EEFEC07F0F4
:10457800E82EFCD71DD0BEC2ABF0BFC2ACF0C0C2A3
:10458800ADF0C1C2AEF00C0ED8900001AB37AC371D
:10459800AD37AE37E82EF8D7ABC060F0ACC061F0ED
:1045A800ADC062F0AEC063F013EC26F0CBEC4AF07D
:1045B80060C0B3F061C0B4F062C0B5F063C0B6F0DB
:1045C800B3C06DF0B4C06EF0B5C06FF0B6C070F097
:1045D8000201BD516EEC5FF00201BD5183EC4FF05A
:1045E8000001A86BA96B1200ACC265F0010E0001B6
:1045F800666F010CEFC0D9FFF0C0DAFFDECFF3F031
:10460800DDCFF4F0000120EE02F0C8D8DECFF6F0DE
:10461800DDCFF7F0010EF56FF969F3C0C5F0F4C00E
:10462800C6F03DEC39F0F86FF6C0AEF0F7C0AFF069
:10463800010EB06FB16F9EEC39F07AEC4BF00009C7
:1046480008E0F6C066F0F7C067F0AEEC40F06651DF
:10465800F96FF8AFF9BF92D0F56B6CD0F95102E160
:1046680089908CD089808AD0F95102E1899286D0CC
:10467800898284D0F95102E1899480D089847ED0DE
:10468800F95102E189967AD0898678D0F95102E108
:10469800899874D0898872D0F95102E1899A6ED0CC
:1046A800898A6CD0F95102E18D9068D08D8066D0EE
:1046B800F95102E18D9262D08D8260D0F95102E108
:1046C8008C945CD08C845AD0F95102E18D9456D0E8
:1046D8008D8454D0F95102E18B9A50D08B8A4ED0F8
:1046E800F95102E18C9A4AD08C8A48D0F95102E1FA
:1046F8008C9E44D08C8E42D0F95102E18C9C3ED0E5
:104708008C8C3CD0F95102E1899E38D0898E36D004
:10471800F95102E1899C32D0898C30D0F95102E1FB
:104728008A9C2CD08A8C2AD0F95102E18A9E26D004
:104738008A8E24D0F85192E0010A96E0030A9AE0A2
:10474800010A9EE0070AA2E0010AA6E0030AAAE01D
:10475800010AAEE00F0AB2E0010AB6E0030ABAE0C5
:10476800010ABEE0070AC2E0010AC6E0030ACAE07D
:10477800010ACEE01F0AD2E0010AD6E0F55155EC55
:1047880025F0DECFF1F0DDCFF2F020EE06F006D80E
:10479800F1C0DEFFF2C0DEFFDD6A1200EF51D9265C
:1047A800F051DA2212007BC094F27CC095F27DC0F1
:1047B80096F27EC097F2A80E0201986F610E996F6B
:1047C8009A6B9B6B500E9C6FC30E9D6F9E6B9F6B7D
:1047D800010EAC6F070EAE6F010EAF6FB56FB66B03
:1047E800A16B080EA06F0C0EAD6F010EB06FB16B10
:1047F800B46BC10EA36F940EA46FC10EA56F030E08
:10480800AB6F340EA26FB76BB86B79C0B9F27AC0D0
:10481800BAF2B26BB36B800EC66FC869C76F980ED9
:10482800BE6F3A0EBF6FC06BC16B020EC96F0B0E25
:10483800CA6F120ECB6FC36BC46BC25123E145EC38
:104848005DF00201BB6F45EC5DF00201BC6F45EC09
:104858005DF00201BD6FFA0E0001606FC10E616F5D
:10486800626B0201BC513CEC64F0B60E606FBF0E87
:10487800616F626B0201BD513CEC64F0010E0201F4
:10488800C26F0BD0BB5139EC6AF00201BC5139EC54
:104898006AF00201BD5139EC6AF0FCEC61F0000EDF
:1048A8000001656F010E666FD7EC36F041D856EC03
:1048B80034F0420E78EC0CF0A3EC67F03B0E22ECDF
:1048C80066F07F6F7FBBFAD7230E626F0C0EA3ECE6
:1048D80067F01E0E0001626F0D0EA3EC67F0AA0EC2
:1048E8000001626F1F0EA3EC67F08F0E0001626F6C
:1048F800350EA3EC67F000016269320EA3EC67F095
:10490800400E0001626F310EA3EC67F0010E00014A
:10491800656F666F000ED7EC36F000016269230EF2
:10492800A3EC67F0420E22EC66F00201C56F12009C
:1049380094C26DF095C26EF096C26FF097C270F097
:104948001200EFC0D9FFF0C0DAFFDECFF3F0DDCF01
:10495800F4F0010E0001F56FF769F3C0C5F0F4C07B
:10496800C6F03DEC39F0F66FF6BF80D05AD0000E95
:1049780080B0010EF76F79D0000E80B2010EF76F8C
:1049880074D0000E80B4010EF76F6FD0000E80B6A1
:10499800010EF76F6AD0000E80B8010EF76F65D070
:1049A800000E80BA010EF76F60D0000E84B0010EC1
:1049B800F76F5BD0000E84B2010EF76F56D0000E71
:1049C80083B4010EF76F51D0000E84B4010EF76F57
:1049D8004CD0000E82BA010EF76F47D0000E83BA92
:1049E800010EF76F42D0000E83BE010EF76F3DD067
:1049F800000E83BC010EF76F38D0000E80BE010E8A
:104A0800F76F33D0000E80BC010EF76F2ED0000E6A
:104A180081BC010EF76F29D0000E81BE010EF76F21
:104A280024D0F651A4E0010AA7E0030AAAE0010A8B
:104A3800ADE0070AB0E0010AB3E0030AB6E0010AF4
:104A4800B9E00F0ABCE0010ABFE0030AC2E0010AAC
:104A5800C5E0070AC8E0010ACBE0030ACEE0010A74
:104A6800D1E01F0AD4E0010AD7E0F56BF55109E05F
:104A7800F55117D8DECFF1F0DDCFF2F01FD8DD6A9F
:104A8800120017D8F751A76FA86BA7BFA80721D89E
:104A9800E8EC41F0810EF16F060EF26F0FD838EF97
:104AA8003CF0020D520EF324D96E020EF420DA6E99
:104AB8001200810EA56F060EA66F120020EE06F0FA
:104AC800EF51D926F051DA22F1C0DEFFF2C0DEFF45
:104AD8001200AA6B0A0EA96F0A0C826B836B896B92
:104AE800846B795111E17629FF0E77590F0E7859A9
:104AF8000BE29BD894D8CBEC4AF09AEC07F0010172
:104B0800EA516EEC5FF088D076C07EF077C07FF017
:104B180078C080F079C081F017D0D8907933783395
:104B28007733763389C07AF0010E7B6F7C6B7A2BF2
:104B380003D0D8907B377C377A2FFBD700017B5185
:104B480082137C518313892B7951E7E1100E785D2C
:104B5800E4E26BD864D8CBEC4AF060C085F061C061
:104B680086F062C087F063C088F0060E896515D0AC
:104B78008951200885C07AF086C07BF087C07CF018
:104B880088C07DF0E82A05D0D8907D337C337B330C
:104B98007A33E82EF9D77A51846F84C060F0010126
:104BA800EA5142EC6AF0892905D0D89085378637D2
:104BB80087378837E82EF9D7000182517E157A6F3A
:104BC80083517F157B6F7C6B7D6B0C0ED8907A3789
:104BD8007B377C377D37E82EF9D77AC060F07BC009
:104BE80061F07CC062F07DC063F019D8CBEC4AF06C
:104BF8006051852761518623625187236351882339
:104C080085C06DF086C06EF087C06FF088C070F008
:104C18000101EA516EEC5FF0020E03EF6AF07D0EBF
:104C2800646F656B666B676B7D0C76C07AF077C0D6
:104C38007BF078C07CF079C07DF00C0ED8907A3784
:104C48007B377C377D37E82EF9D77AC060F07BC098
:104C580061F07CC062F07DC063F01200A7D8DF501D
:104C6800A66F9E4B9F2BA2D8FF0EDE14A26FFF0EDD
:104C7800DE14A36FFF0EDE14A46F000EDE14A56F02
:104C8800A2C092F0A3C093F0A4C094F0A5C095F080
:104C9800640E46EC0CF064EC59F092C0A2F093C09C
:104CA800A3F094C0A4F095C0A5F0030E9E27000EB3
:104CB8009F237CD8DF50A16F9E4B9F2B606BA65122
:104CC80085EC67F000091DE1A2C060F0A3C061F0A7
:104CD800A4C062F0A5C063F0FCEC52F0000902E049
:104CE8006AD805E169EC17F048EC17F0DF8EA1519E
:104CF80065EC61F0000905E169EC17F048EC17F084
:104D0800DF8C69EC17F048EC17F0DFAE40D069ECA7
:104D180017F048EC17F0DFAC3AD02CEEBFF0100ECD
:104D2800DF6018D048D811E037D80FEC66F0A1C082
:104D380060F0A6515AEC3DF043D826EC64F0010E21
:104D4800606FA65172EC38F021D0656BA65111EC5A
:104D580060F01CD030D815E01FD8100F0FEC66F0AB
:104D6800A1C060F0A651100F5AEC3DF029D8100FE1
:104D780026EC64F0010E606FA651100F72EC38F04B
:104D880005D0656BA651100F11EC60F01FD89EC0BE
:104D98009EF09FC09FF01200A2C060F0A3C061F017
:104DA800A4C062F0A5C063F0A65112009EC0D9FF4E
:104DB8009FC0DAFF1200A251A311A411A51112007D
:104DC800010E616F2E0E606FA65112002BEED4F00B
:104DD800DF861200B2D89E4B9F2BAD5147EC66F090
:104DE800F9E2A96BAA6BAB6BAC6BA86B2D0EAD1976
:104DF80006E1010EA86FA1D89E4B9F2B03D02B0E66
:104E0800AD19F9E0300EAD191DE197D89E4B9F2BD7
:104E1800A251A31104E0100EA219A3110DE1780EFE
:104E2800AD1903E0580EAD1907E1A36B100EA26F80
:104E380084D89E4B9F2B06D0A251A31103E1A36BEC
:104E4800080EA26FA251A31103E1A36B0A0EA26F71
:104E5800AD51B0EC65F006E3AD511AEC69F0C90F3D
:104E6800AD6F06D0AD5167EC67F031E3300EAD5F42
:104E7800AD51A46FA56BA251A45DA551800AA66F80
:104E8800A351800AA65923E2A2C092F0A3C093F0CE
:104E9800000E93BFFF0E946F956FA9C096F0AAC03D
:104EA80097F0ABC098F0ACC099F064EC59F0AD51F4
:104EB8009225A96F000E9321AA6F000E9421AB6F63
:104EC800000E9521AC6F39D89E4B9F2BC1D7A051AE
:104ED800A1110EE0FF0E9E25A46FFF0E9F21A56F66
:104EE800A0C0D9FFA1C0DAFFA4C0DEFFA5C0DDFFC6
:104EF800A8511AE0A9C0A4F0AAC0A5F0ABC0A6F0BA
:104F0800ACC0A7F0A41FA51FA61FA71FA42B000EA7
:104F1800A523A623A723A4C09EF0A5C09FF0A6C0E2
:104F2800A0F0A7C0A1F0000CA9C09EF0AAC09FF0F5
:104F3800ABC0A0F0ACC0A1F012009EC0D9FF9FC0CA
:104F4800DAFFDF50AD6F1200A26F210E0001A21927
:104F5800D8A41200030EA76FA86BA36BA46BA56B54
:104F6800A66BA30E606F616BA851030D9EC0A0F0E5
:104F78009FC0A1F0F350A027F450A1230D0EA02547
:104F8800626F000EA121636F7FEC4FF05FEC54F06D
:104F9800A3C092F0A4C093F0A5C094F0A6C095F069
:104FA800640E46EC0CF064EC59F092C0A3F093C088
:104FB800A4F094C0A5F095C0A6F0A351A411A51122
:104FC800A61147E0A3C060F0A4C061F0A5C062F0DC
:104FD800A6C063F0FCEC52F0000940E153D8F3504E
:104FE80045D8A3C0DEFFA4C0DEFFA5C0DEFFA6C073
:104FF800DEFF48D8040EA027000EA123F35036D8B0
:105008004ED840D846D832D8DF500F0B5009DF6E43
:1050180039D83FD82BD8F00EDF1634D80A0EA0277F
:10502800000EA123F35022D8E70EDE6E030EDD6ECC
:1050380029D8110EA027000EA123F35017D8DF6836
:10504800010E656FA851A72511EC60F0EAEC26F077
:1050580005D0656BA851A72511EC60F0A82B040EAC
:10506800A8657BD72BEED4F0DF86040CA027F4507C
:10507800A123A751120DF350A025D96EF450A121F8
:10508800DA6E1200A851120D930EA06F080EA16FD0
:105098001200090EA027000EA123F3501200DE6AA9
:1050A800DE6ADE6ADD6A1200050EE126000EE222E3
:1050B8002BEED4F0DFB027D02BEED4F0DFA423D032
:1050C800FF0EE36A09D0FF0EE3503FEC1FF0020E1B
:1050D800DE1807E0FF0EE32A2CEE7CF0FF0E7CD8EA
:1050E800F2E32CEE7CF0FF0EE350DE180CE169ECE5
:1050F80017F03FEC1FF0020EDF6E20EC22F0DF60AD
:1051080002D015EC22F02BEED4F0DFA434D05FD817
:1051180002E157D80FE34CD87D0E000150EC36F071
:10512800CBEC4AF055EC36F00C0E12EC1DF0E82EE4
:10513800FCD707D023D850EC36F0CBEC4AF055EC2E
:1051480036F0FB0E50C0E3FFFC0E51C0E3FFFD0E2E
:1051580052C0E3FFFE0E53C0E3FFE150FB0FD96ED0
:10516800E2505EEC36F009EC2EF06EEC5FF009ECE4
:105178002EF083EC4FF0FA0E6AEF36F0B1CC50F017
:10518800B2CC51F0B3CC52F0B4CC53F00C0ED89052
:105198005036513652365336E82EF9D750C060F0A3
:1051A80051C061F052C062F053C063F000017D0C41
:1051B800B1CC60F0B2CC61F0B3CC62F0B4CC63F0A7
:1051C8001200DE28FF0EDE580F0EDE5812002CEEFD
:1051D800B1F0030EDB501200E3CF48F0DE50485C1C
:1051E8001200E6522BEED4F0DFB08BD0E3CBE8FF11
:1051F800020A02E1CAEC68F088D861E33EEC59F093
:10520800536E0D0E5326FF0E53C0E3FF2CEEB9F07C
:10521800E350496E4A6ADE50495CDE504A583DE325
:10522800010EFEEC40F0000934E186EC4CF023EC72
:1052380022F08DEC4CF02DE1C3EC14F00109DF6E87
:10524800BECCE8FF010FE8CFBEFC2CEEBEF0DFB00D
:1052580014EF61F02CEEC4F0DF5002E114EF61F0BE
:105268002CEEBEF0DF50496E4A6A2CEEBCF0DF50DF
:10527800526E536A522A000E53224950521805E1C1
:105288004A50531802E114EF61F0CDEC42F014EFEC
:1052980061F04EEC51F014EF61F015EC6AF0010189
:1052A800BB51BC1102E114EF61F0C8EC14F0040E1C
:1052B800C56F02D814EF61F00500FA6E1AD025D830
:1052C80002E314EF61F02BEED4F0DFB014EF61F0DD
:1052D80015EC6AF00101BB51BC1102E114EF61F059
:1052E800000EC8EC14F0C56B02D814EF61F005008D
:1052F800FA6E0101BB51FD6EBC51FE6EFF6AFA5099
:10530800120015EC6AF014EF61F02CEEBEF00CEE12
:10531800BCF0DE50EE5C1200EFC0D9FFF0C0DAFF3F
:10532800DECFF3F0DDCFF4F0010E0001F56FF3C02E
:10533800C5F0F4C0C6F03DEC39F0F66FF6BF5DD0AD
:105348002D0EF62548EC10F020EC47F0F5A455D0CA
:105358000001F56B38D0000E95EC60F02FD0010EEF
:1053680095EC60F02BD0020E95EC60F027D0030E80
:1053780095EC60F023D0040E95EC60F01FD0050E7C
:1053880095EC60F01BD0060E95EC60F017D0160E69
:1053980095EC60F013D0070E95EC60F00FD0110E6D
:1053A80095EC60F00BD0190E95EC60F007D01B0E51
:1053B80095EC60F003D01A0E95EC60F065C0F7F03C
:1053C80066C0F8F01AD0F651C6E0010AC8E0030A30
:1053D800CAE0010ACCE0060ACEE0030AD0E0010ADE
:1053E800D2E00F0AD4E0010AD6E0030AD8E0010AA5
:1053F800DAE0070ADCE0010ADEE00001F5510AE024
:10540800F55155EC25F0DECFF1F0DDCFF2F013D8F1
:10541800DD6A12005DEC25F0F7C0A7F0F8C0A8F02F
:105428006DEC25F0E8EC41F0810EF16F060EF26F9D
:1054380002D838EF3CF020EE06F0EF51D926F051B3
:10544800DA22F1C0DEFFF2C0DEFF1200010E000119
:10545800F36F84D85ED8E3EC60F0000949E06CD8BB
:1054680058D8E3EC60F0000943E078D8DECF9EF02E
:1054780055D8EEEC26F09E51F46F20EE02F06AD873
:10548800F4EC35F04BD8EEEC26F09E51F56F66D86B
:10549800DECFF1F058D84AD8F5EC5AF0020E601970
:1054A800611126E1F45108E163D858D85CD82AEC98
:1054B80047F0605161111CE13FD8DECFF1F043D8CD
:1054C80035D8F5EC5AF0020E6019611111E1F55169
:1054D80008E14ED831D847D82AEC47F0605161111D
:1054E80007E1F5C062F0F451A3EC67F00001F36B3B
:1054F800F35198EC46F0DECFF1F0DDCFF2F020EE7C
:1055080006F028D8DA22F1C0DEFFF2C0DEFFDD6A3D
:105518001200DECF66F0DDCF67F01200DDCF9FF01E
:10552800A06BA16BA36B100EA26F100C60516111E0
:10553800D8A4200E626F120020EE02F0EF51D92697
:10554800F051DA221200DDCFF2F0F1C060F0F2C0C3
:1055580061F01200EF51D926F0511200EFC0D9FFC7
:10556800F0C0DAFF1200DECF62F0DDCF63F0120088
:10557800430E606FFF0E616F1200A2EC63F095ECB2
:105588006BF08E0E0001646FC00E656F43EC5AF02D
:105598007DEC6BF0F28EF28C010E0001616FB30EA0
:1055A800606F75EC68F00401356F366B010E000111
:1055B800616FB40E606F75EC68F00401346F34519C
:1055C8003627352902E136292DE084EC0CF0AAC0F3
:1055D80030F4ABC031F404013051351903E13151D5
:1055E80036192CE0000EF7EC1AF053D821EC50F0E5
:1055F8004AD85EEC62F052D826EC6BF00401376BA7
:10560800386B37C460F038C461F000016269E8ECB7
:105618005CF00401374B382BB50E375D010E385955
:105628000DE2EFD7000EF7EC1AF033D821EC50F06A
:105638002AD85EEC62F032D826EC6BF01ED881ECEA
:1056480042F08FEC19F0F5EC5AF060C032F461C00A
:1056580033F4C4EC19F0D8A4200E686F32C469F092
:1056680033C46AF09FEC49F0FAEC5DF07FEC61F02E
:1056780091EC3BF0EDEC4FF0F7D7810E00016B6F2A
:10568800060E6C6F1200200E00016B6F040E6C6F1B
:105698001200200E6F6F040E706F1200616B010E06
:1056A800606F010CB46BB56BA2390F0BB36FAA51C5
:1056B800010DF350AB27F450AC23010EB46F2FD07B
:1056C80057D8B2EC3DF06DD8E9EC65F00001B56B48
:1056D800B451AE6FAF6BAE3BAF3BF00EAF17AE51F0
:1056E8000F0BAF13F00EAE17A0C0B0F0A1C0B1F011
:1056F800AE51B027AF51B123B551B027000EB12339
:10570800F00EB025D96EFF0EB121DA6EDF50B26F00
:1057180051D8B2193DD80F0EB565DAD7B42BB451AC
:10572800B35DCEE24FD8D8B40F0C22D8B2EC3DF01E
:1057380038D8E9EC65F00001B56B15D0B351100D00
:10574800A0C0AEF0A1C0AFF0F350AE27F450AF2325
:10575800B551AE25D96E000EAF21DA6EDF50B06FAD
:1057680029D8B01915D82ED8AE51B55DE7E3120087
:10577800A4C06BF0A5C06CF0A6C06DF0A7C06EF019
:10578800B4C06FF0010E706FADC071F0A35112007C
:10579800ABC0D9FFACC0DAFFDF6EAB4BAC2BB52B7F
:1057A8001200CC0E8C6F020E8D6FA8C08EF0A9C0AF
:1057B8008FF01200CC0EB525D96EDA6A020EDA2205
:1057C800DF501200A2C0AEF00F0EAE170F0C6051E2
:1057D800D96EDA6A0D0E60D8635186D80E0E5CD881
:1057E800D92A635181D80F0E57D8020ED926635192
:1057F8007BD80C0E51D8030ED926635175D8455065
:10580800DF1A7F0E45640CD01B0E45C061F0626B39
:10581800D890613762376119646F6251656F05D03E
:10582800D8904534646F656B653764C045F0605146
:10583800D96EDA6A53D8040E43D8D92A4FD8050E40
:105848003FD8020E44D8060E3BD8030E40D8070EA8
:1058580037D8040E3CD8080E33D8050E38D8090EB0
:105868002FD8060E34D80A0E2BD8070E30D80B0EB8
:1058780027D8080E2CD80C0E23D8090E28D80D0EC0
:105888001FD80A0E24D80E0E1BD80B0E20D80F0EC8
:10589800D9266151DF1A1200D926DF50616F626B79
:1058A8002D0E6125F66EF60E6221F76EF86A000E6F
:1058B800F8220800F5CF63F06051D96EDA6A120059
:1058C800D9266151DF1A6051D96EDA6A1200D926D9
:1058D800DF50616F6051D96EDA6A1200DF50616F74
:1058E8006051D96EDA6A1200DF1A6051D96EDA6A2D
:1058F800120080D8DF50A56F9E4B9F2B7BD8FF0EE0
:10590800DE14A16FFF0EDE14A26FFF0EDE14A36F6C
:10591800000EDE14A46FA1C092F0A2C093F0A3C041
:1059280094F0A4C095F0640E46EC0CF064EC59F0C9
:1059380092C0A1F093C0A2F094C0A3F095C0A4F0C7
:10594800030E9E27000E9F23A1C060F0A2C061F045
:10595800A3C062F0A4C063F0FCEC52F0000905E1BA
:1059680069EC17F048EC17F0DF86A5510F0B83ECB4
:1059780069F0000905E169EC17F048EC17F0DF88D9
:10598800A539070B6FEC69F0000905E169EC17F020
:1059980048EC17F0DF8A69EC17F048EC17F0DFA83D
:1059A80021D069EC17F048EC17F0DFA61BD069ECA2
:1059B80017F048EC17F0DFAA15D0A539070BA06F30
:1059C800A0C0D4FCA1C060F0A2C061F0A3C062F086
:1059D800A4C063F0A5510F0B646F5BEC68F02BEE6D
:1059E800D4F0DF8E010E0101DC6F9EC09EF09FC0D7
:1059F8009FF0010C9EC0D9FF9FC0DAFF1200010E74
:105A08000001F36F77D87BD8F1C060F0F2C061F085
:105A18009AEC2AF0F5EC5AF060C0F9F061C0FAF09F
:105A280069D80FEC4FF0AEEC40F066C0F4F067C0F8
:105A3800F5F060D8DECFF7F0DDCFF8F0FA5145E1A8
:105A4800040EF95D42E2F5BF05D0F5513EE1100EB6
:105A5800F45D3BE2F5AF05D0FD0EF45DFF0EF559A0
:105A680034E343D82B0EDE180EE03FD82D0EDE1897
:105A780005E1FA5108E1020EF95D05E236D8DF507A
:105A880067EC67F022E3010EF66F0BD0F651F725AD
:105A9800D96E000EF821DA6EDF5067EC67F009E383
:105AA800F62BF651F16FF26BF951F15DFA51F2599B
:105AB800EDE3F651F919FA1103E0F905FA1105E1D8
:105AC800F45181EC6BF00001F36BF35198EC46F064
:105AD80016D820EE06F0EF51D926F051DA22F1C09F
